:100000000C9475080C949D080C949D080C949D0804
:100010000C949D080C949D080C949D080C949D08CC
:100020000C949D080C949D080C949D080C949D08BC
:100030000C949D080C949D080C949D080C949D08AC
:100040000C9463150C949D080C949F140C947914D3
:100050000C949D080C949D080C949D080C949D088C
:100060000C94AD150C949D08206E6F7468696E67D2
:1000700020746F20646F2C20736C656570696E67E7
:100080002E2E2E0A00536C65657074696D652069AB
:10009000732020002062757420697320696E61638B
:1000A00074697665206F72206974732074696D6558
:1000B00072206973206E6F7420726570656174615F
:1000C000626C650A00204C61756E6368696E67201A
:1000D0006974732074696D65720A0020427574201A
:1000E0006861732061207765656B6C792044617964
:1000F0004F666620746F6461790A002000204163B6
:10010000746976653A2000466F756E6420416C61B3
:10011000726D3A20002046696E69736865642072CA
:100120006573746F72696E670A000A004C617374BC
:100130002074696D65207265636F72646564200068
:1001400043697263756974206861732072657373A3
:10015000657465642C20747279696E6720746F20F1
:10016000726573756D6520696E74657272757074F1
:100170006564206F7065726174696F6E732E2E2EC8
:100180000A000A002054696D652E20416374697667
:10019000653D002054696D6572204F666620636F6F
:1001A000756E74646F776E20000A002054696D6567
:1001B0002E204163746976653D002054696D657237
:1001C000204F6E20636F756E74646F776E20000A27
:1001D00000536C65657074696D652069732020003B
:1001E0000A00566572626F73697479206973202002
:1001F00000416C61726D7320696E666F20697320B7
:100200006C6F616465640A0020455050524F4D2068
:10021000616C726561647920696E697469616C6989
:100220007A65640A00200054696D652069732000B6
:10023000525443206861732073657420746865208C
:1002400073797374656D2074696D6500556E6162B4
:100250006C6520746F2073796E63207769746820F1
:1002600074686520525443002068617320446179AA
:10027000206F666620746F6461792C2073636865F3
:1002800064756C696E6720697420746F20746F6D7B
:100290006F72726F770A00416C61726D2000202EC0
:1002A0002E2E0A00204F464620636F756E74646FD1
:1002B000776E206F6E2052656C6179200020526548
:1002C00061636865642074696D65722000206973DC
:1002D000206163746976652C20636865636B696E61
:1002E000672069747320636F756E74646F776E2E08
:1002F0002E2E0A0020003A00206F6E2052656C619D
:1003000079200054696D6572204F66662000202EAA
:100310002E2E0A00204F4E20636F756E74646F7727
:100320006E206F6E2052656C6179200020526561ED
:10033000636865642074696D6572200020697320AC
:100340006163746976652C20636865636B696E67A9
:100350002069747320636F756E74646F776E2E2ED0
:100360002E0A0020003A00206F6E2052656C6179E1
:10037000200054696D6572204F6E20000A2A2A2AD7
:100380002A2A2A2A2A2A2A2A2A2A2A2A2A2A2A2ACD
:100390002A2A2A2A2A2A2A2A2A2A2A2A2A2A2A2ABD
:1003A0002A2A2A2A2A2A2A2A0A002E2E2E0A0074EB
:1003B0003D00207261697365642E2E2E0A00416C27
:1003C00061726D20002A2A2A2A2A2A2A2A2A2A2AFF
:1003D0002A2A2A2A2A2A2A2A2A2A2A2A2A2A2A2A7D
:1003E0002A2A2A2A2A2A2A2A2A2A2A2A2A2A2A2A6D
:1003F0000A00207261697365642E2E2E0A00416C1A
:1004000061726D20002E2E2E0A00743D000A2A2AE9
:100410002A2A2A2A2A2A2A2A2A2A2A2A2A2A2A2A3C
:100420002A2A2A2A2A2A2A2A2A2A2A2A2A2A2A2A2C
:100430002A2A2A2A2A2A2A2A2A0A00206973206EAE
:100440006F7420612076616C696420636F6D6D61EB
:100450006E640A005761726E696E6720000A2A2A6C
:100460002A2A2A2A2A2A2A2A2A2A2A2A2A2A2A2AEC
:100470002A2A2A2A2A2A2A2A2A2A2A2A2A2A2A2ADC
:100480002A2A2A2A2A2A2A2A2A0A000A2A2A2A2A36
:100490002A2A2A2A2A2A2A2A2A2A2A2A2A2A2A2ABC
:1004A0002A2A2A2A2A2A2A2A2A2A2A2A2A2A2A2AAC
:1004B0002A2A2A2A2A2A2A0A0057616B696E67208B
:1004C00075702E2E2E200A004665656C696E6720B9
:1004D000536C656570792C207A7A7A2E2E2E2E2018
:1004E0000A000A0020536C656570206973207365EB
:1004F0007420746F20000A2A2A2A2A2A2A2A2A2AE1
:100500002A2A2A2A2A2A2A2A2A2A2A2A2A2A2A2A4B
:100510002A2A2A2A2A2A2A2A2A2A2A2A2A2A2A2A3B
:100520002A2A0A000A2A2A2A2A2A2A2A2A2A2A2A95
:100530002A2A2A2A2A2A2A2A2A2A2A2A2A2A2A2A1B
:100540002A2A2A2A2A2A2A2A2A2A2A2A2A2A2A2A0B
:100550000A000A0020566572626F73697479206917
:10056000732073657420746F20000A2A2A2A2A2AAD
:100570002A2A2A2A2A2A2A2A2A2A2A2A2A2A2A2ADB
:100580002A2A2A2A2A2A2A2A2A2A2A2A2A2A2A2ACB
:100590002A2A2A2A2A2A0A000A2A2A2A2A2A2A2A25
:1005A0002A2A2A2A2A2A2A2A2A2A2A2A2A2A2A2AAB
:1005B0002A2A2A2A2A2A2A2A2A2A2A2A2A2A2A2A9B
:1005C0002A2A2A2A0A000A2A2A2A2A2A2A2A2A2AF5
:1005D0002A2A2A2A2A2A2A2A2A2A2A2A2A2A2A2A7B
:1005E0002A2A2A2A2A2A2A2A2A2A2A2A2A2A2A2A6B
:1005F0002A2A0A000A0020796561726C79207265E6
:100600007065617461626C6520002F002F002069A5
:1006100073206E6F77200020486F6C7964617920B9
:10062000000A2A2A2A2A2A2A2A2A2A2A2A2A2A2A74
:100630002A2A2A2A2A2A2A2A2A2A2A2A2A2A2A2A1A
:100640002A2A2A2A2A2A2A2A2A2A2A2A2A0A000A74
:100650002A2A2A2A2A2A2A2A2A2A2A2A2A2A2A2AFA
:100660002A2A2A2A2A2A2A2A2A2A2A2A2A2A2A2AEA
:100670002A2A2A2A2A2A2A2A2A2A2A0A000A2A2A44
:100680002A2A2A2A2A2A2A2A2A2A2A2A2A2A2A2ACA
:100690002A2A2A2A2A2A2A2A2A2A2A2A2A2A2A2ABA
:1006A0002A2A2A2A2A2A2A2A2A0A0020617265204E
:1006B00073657420746F20005765656B6C792044F6
:1006C00061796F66667320666F7220616C61726D0E
:1006D000000A2A2A2A2A2A2A2A2A2A2A2A2A2A2AC4
:1006E0002A2A2A2A2A2A2A2A2A2A2A2A2A2A2A2A6A
:1006F0002A2A2A2A2A2A2A2A2A2A2A2A2A0A000AC4
:100700002A2A2A2A2A2A2A2A2A2A2A2A2A2A2A2A49
:100710002A2A2A2A2A2A2A2A2A2A2A2A2A2A2A2A39
:100720002A2A2A2A2A2A2A2A2A2A2A0A00446F6ED0
:100730006520696E697469616C697A696E670A001F
:10074000496E697469616C697A696E6720416C6C85
:1007500020616C61726D730A000A2A2A2A2A2A2AE9
:100760002A2A2A2A2A2A2A2A2A2A2A2A2A2A2A2AE9
:100770002A2A2A2A2A2A2A2A2A2A2A2A2A2A2A2AD9
:100780002A2A2A2A2A0A000A2A2A2A2A2A2A2A2A33
:100790002A2A2A2A2A2A2A2A2A2A2A2A2A2A2A2AB9
:1007A0002A2A2A2A2A2A2A2A2A2A2A2A2A2A2A2AA9
:1007B0002A2A2A0A00202020202020202020202051
:1007C0003D2D3D2D3D2D3D2D3D2D3D2D3D2D3D2DD9
:1007D0003D202020202020202020202020202020FC
:1007E0000A0020202020202020202020203D2D3DF8
:1007F0002D3D2D3D2D3D2D3D2D3D2D3D2D3D2020D3
:10080000202020202020202020202020200A00201E
:10081000202020202020202020203D2D3D2D3D2D5A
:100820003D2D3D2D3D2D3D2D3D2D3D2020202020D9
:10083000202020202020202020200A000A002052F2
:10084000657065617461626C653D002052656C6124
:10085000793D002054696D652E2041637469766589
:100860003D002069732054696D6572204F666620D3
:10087000000A002052657065617461626C653D001C
:100880002052656C61793D002054696D652E2041D0
:1008900063746976653D002069732054696D6572E3
:1008A000204F6E20000A002052616E646F6D3D0083
:1008B0002054696D65723D002054696D652E20419C
:1008C00063746976653D0020697320416C61726DC7
:1008D00020000A2A2A2A2A2A2A2A2A2A2A2A2A2ACC
:1008E0002A2A2A2A2A2A2A2A2A2A2A2A2A2A2A2A68
:1008F0002A2A2A2A2A2A2A2A2A2A2A2A2A2A0A00A2
:100900000A2A2A2A2A2A2A2A2A2A2A2A2A2A2A2A67
:100910002A2A2A2A2A2A2A2A2A2A2A2A2A2A2A2A37
:100920002A2A2A2A2A2A2A2A2A2A2A2A0A000A00BB
:1009300020204368616E67656420746F20005D202D
:1009400050696E20002052656C6179436F6E74723D
:100950006F6C5B000A2A2A2A2A2A2A2A2A2A2A2A89
:100960002A2A2A2A2A2A2A2A2A2A2A2A2A2A2A2AE7
:100970002A2A2A2A2A2A2A2A2A2A2A2A2A2A2A2AD7
:100980000A000A2A2A2A2A2A2A2A2A2A2A2A2A2A31
:100990002A2A2A2A2A2A2A2A2A2A2A2A2A2A2A2AB7
:1009A0002A2A2A2A2A2A2A2A2A2A2A2A2A2A0A00F1
:1009B0000A00205361766564206F6E2045455052D1
:1009C0004F4D206164647265737320002052616E24
:1009D000646F6D3D00204F6E2054696D65723D005F
:1009E000204163746976653D002053657420746FFF
:1009F000200020416C61726D20000A2A2A2A2A2ACE
:100A00002A2A2A2A2A2A2A2A2A2A2A2A2A2A2A2A46
:100A10002A2A2A2A2A2A2A2A2A2A2A2A2A2A2A2A36
:100A20002A2A2A2A2A2A0A000A2A2A2A2A2A2A2A90
:100A30002A2A2A2A2A2A2A2A2A2A2A2A2A2A2A2A16
:100A40002A2A2A2A2A2A2A2A2A2A2A2A2A2A2A2A06
:100A50002A2A2A2A0A000A00205361766564206F38
:100A60006E20454550524F4D20616464726573732A
:100A700020002052616E646F6D3D00204F6E205447
:100A8000696D65723D00204163746976653D0020A3
:100A900053657420746F20002054696D6572204F77
:100AA000666620000A2A2A2A2A2A2A2A2A2A2A2A82
:100AB0002A2A2A2A2A2A2A2A2A2A2A2A2A2A2A2A96
:100AC0002A2A2A2A2A2A2A2A2A2A2A2A2A2A2A2A86
:100AD0000A000A2A2A2A2A2A2A2A2A2A2A2A2A2AE0
:100AE0002A2A2A2A2A2A2A2A2A2A2A2A2A2A2A2A66
:100AF0002A2A2A2A2A2A2A2A2A2A2A2A2A2A0A00A0
:100B00000A2A2A2A2A2A2A2A2A2A2A2A2A2A2A2A65
:100B10002A2A2A2A2A2A2A2A2A2A2A2A2A2A2A2A35
:100B20002A2A2A2A2A2A2A2A2A2A2A2A0A000A2A8F
:100B30002A2A2A2A2A2A2A2A2A2A2A2A2A2A2A2A15
:100B40002A2A2A2A2A2A2A2A2A2A2A2A2A2A2A2A05
:100B50002A2A2A2A2A2A2A2A2A2A0A000A0020536A
:100B600061766564206F6E20454550524F4D20617F
:100B700064647265737320002052616E646F6D3D12
:100B800000204F6E2054696D65723D0020416374F2
:100B90006976653D002053657420746F2000204104
:100BA0006C61726D20000A2A2A2A2A2A2A2A2A2AF5
:100BB0002A2A2A2A2A2A2A2A2A2A2A2A2A2A2A2A95
:100BC0002A2A2A2A2A2A2A2A2A2A2A2A2A2A2A2A85
:100BD0002A2A0A000A2A2A2A2A2A2A2A2A2A2A2ADF
:100BE0002A2A2A2A2A2A2A2A2A2A2A2A2A2A2A2A65
:100BF0002A2A2A2A2A2A2A2A2A2A2A2A2A2A2A2A55
:100C00000A000A00205361766564206F6E20454516
:100C100050524F4D206164647265737320002052FE
:100C2000657065617461626C653D002052656C6140
:100C3000793D00204163746976653D0020536574F9
:100C400020746F20002054696D6572204F66662005
:100C5000000A2A2A2A2A2A2A2A2A2A2A2A2A2A2A3E
:100C60002A2A2A2A2A2A2A2A2A2A2A2A2A2A2A2AE4
:100C70002A2A2A2A2A2A2A2A2A2A2A2A2A0A000A3E
:100C80002A2A2A2A2A2A2A2A2A2A2A2A2A2A2A2AC4
:100C90002A2A2A2A2A2A2A2A2A2A2A2A2A2A2A2AB4
:100CA0002A2A2A2A2A2A2A2A2A2A2A0A000A002042
:100CB0005361766564206F6E20454550524F4D203C
:100CC000616464726573732000205265706561749D
:100CD00061626C653D002052656C61793D00204188
:100CE00063746976653D002053657420746F20003D
:100CF0002054696D6572204F6E20000A2A2A2A2A24
:100D00002A2A2A2A2A2A2A2A2A2A2A2A2A2A2A2A43
:100D10002A2A2A2A2A2A2A2A2A2A2A2A2A2A2A2A33
:100D20002A2A2A2A2A2A2A0A000A0052544320542C
:100D3000696D652053657420746F20000A00202DB2
:100D400020000A0054696D652069732000205469F1
:100D50006D652053617665640A004572724A616E62
:100D60004665624D61724170724D61794A756E4A95
:100D7000756C4175675365704F63744E6F7644654B
:100D800063002068617320446179206F6666207477
:100D90006F6461792C207363686564756C696E6734
:100DA00020697420746F20746F6D6F72726F770A90
:100DB00000416C61726D20000A2A2A2A2A2A2A2AF6
:100DC0002A2A2A2A2A2A2A2A2A2A2A2A2A2A2A2A83
:100DD0002A2A2A2A2A2A2A2A2A2A2A2A2A2A2A2A73
:100DE0002A2A2A2A0A00546F6461792069732061D3
:100DF0006E207363686564756C656420686F6C79D8
:100E00006461792C20676F696E6720746F20736C42
:100E10006565702E2E2E0A000A2A2A2A2A2A2A2AD4
:100E20002A2A2A2A2A2A2A2A2A2A2A2A2A2A2A2A22
:100E30002A2A2A2A2A2A2A2A2A2A2A2A2A2A2A2A12
:100E40002A2A2A2A0A000A2A2A2A2A2A2A2A2A2A6C
:100E50002A2A2A2A2A2A2A2A2A2A2A2A2A2A2A2AF2
:100E60002A2A2A2A2A2A2A2A2A2A2A2A2A2A2A2AE2
:100E70002A2A0A0054696D65206973200057616B46
:100E8000696E672075702E2E2E0A002072616973BC
:100E900065642E2E2E0A00416C61726D20002D2D8E
:100EA0002D2D2D2D2D2D2D2D2D3D3D3D3D3D3D3D02
:100EB0003D3D3D3D204177616B696E67203D3D3D85
:100EC0003D3D3D3D3D3D3D3D2D2D2D2D2D2D2D2DD2
:100ED0002D2D2D0A000A002052616E646F6D3D00B9
:100EE0002054696D65723D002054696D652E204166
:100EF00063746976653D0020416C61726D20000A63
:100F0000002052657065617461626C653D0020521D
:100F1000656C61793D002054696D652E20416374D4
:100F20006976653D002054696D6572204F6E200022
:100F30000A002052657065617461626C653D002035
:100F400052656C61793D002054696D652E204163C6
:100F5000746976653D002054696D6572204F666640
:100F600020000A002061726520005765656B6C796E
:100F7000204461794F666673206F6620416C617210
:100F80006D2000202879792F6D6D2F6464290A0067
:100F900020796561726C7920726570656174616237
:100FA0006C6520002F002F00206973200020486FFF
:100FB0006C7964617920000A00536C65657074690E
:100FC0006D652069732020000A00566572626F7398
:100FD00069747920697320200020454550524F4D97
:100FE00020686173206265656E20696E697469614D
:100FF0006C697A65640A0054696D65206973200024
:101000005265616C6C7920676F696E6720746F2020
:10101000736C6565702C206E6F77202E2E2E0A0063
:101020005475726E696E6720737461747573206C89
:101030006564206F66662E2E2E0A005377697463EE
:1010400068696E672072656C617973206F66662EC1
:101050002E2E0A0053657474696E672074696D657D
:101060007273206F66662E2E2E0A005365747469A3
:101070006E6720536C65657074696D652062697474
:101080002E2E2E0A00476F696E6720746F20736CD6
:101090006565702E2E2E0A00000000080002010077
:1010A0000003040700000000000000000000000032
:1010B000250028002B0000000000240027002A0043
:1010C00004040404040404040202020202020303EE
:1010D00003030303010204081020408001020408F6
:1010E0001020010204081020352B11241FBECFEF61
:1010F000D8E0DEBFCDBF26E0AEEBB3E001C01D926D
:10110000A138B207E1F713E0A0E0B1E0E0EAFEE5C4
:1011100002C005900D92AE3BB107D9F718E0C5E7C4
:10112000D8E004C02197FE010E940E2DC437D107DC
:10113000C9F70E944C1A0C944E2F0C940000CF92C9
:10114000DF92EF92FF920F931F93CF93DF93EB0108
:101150007B012AE0E20EF11C8B016C01C61AD70A52
:10116000C601800F911F0E94492CF80181938F01C5
:10117000EE15FF05A9F7CE01DF91CF911F910F91D9
:10118000FF90EF90DF90CF900895CF92DF92EF9293
:10119000FF920F931F93CF93DF93EB017B0124E02A
:1011A000E20EF11C8B016C01C61AD70AC601800F32
:1011B000911F0E94492CF80181938F01EE15FF05C4
:1011C000A9F7CE01DF91CF911F910F91FF90EF9082
:1011D000DF90CF9008956F927F928F929F92AF92FF
:1011E000BF92CF92DF92EF92FF920F931F93CF9314
:1011F000DF93EA012CE3C22ED12CE12CF12CA701C4
:1012000096010E94D02C6883CA01B901A7019601FA
:101210000E94D02C6983CA01B90128E130E040E086
:1012200050E00E94D02C69017A016A83CA01B90199
:101230006C5F7F4F8F4F9F4F27E030E040E050E0E2
:101240000E94D02C6F5F6B83812C912C540140E065
:1012500034E6632E712C00E911E0242F30E02E5487
:10126000384FF901E370FF27309789F4C901B301C2
:101270000E94BC2C892B31F4C901B8010E94BC2CFE
:10128000892B29F48EE691E0A0E0B0E004C08DE661
:1012900091E0A0E0B0E0880E991EAA1EBB1ED50109
:1012A000C401AA27BB27C816D906EA06FB0610F018
:1012B0004F5FD3CF4E83309799F4C90164E670E055
:1012C0000E94BC2C892B39F4C90160E971E00E94AD
:1012D000BC2C892B29F48EE691E0A0E0B0E004C09C
:1012E0008DE691E0A0E0B0E0881A990AAA0ABB0A4C
:1012F000C818D908EA08FB08C90164E670E00E9432
:10130000BC2C8C01C90160E971E00E94BC2CAFE5E6
:10131000B2E020E0213041F4309751F4011511057D
:1013200029F4009729F402C04C9103C04DE101C09B
:101330004CE150E060E070E0C416D506E606F70622
:1013400040F0C41AD50AE60AF70A2F5F11962C302E
:1013500009F72F5F2D83C394CC82DF91CF911F912A
:101360000F91FF90EF90DF90CF90BF90AF909F9044
:101370008F907F906F900895CF92DF92EF92FF92BF
:10138000C090BF04D090C004E090C104F090C204AB
:101390006C157D058E059F0571F06B017C014AE29D
:1013A00054E00E94EB08C092BF04D092C004E092C7
:1013B000C104F092C204FF90EF90DF90CF900895A7
:1013C0000E94BC098091300490E08E54984F08959B
:1013D000CF93DF93EB010E94492C8883CE01DF91EC
:1013E000CF910895CF93DF93EB010E94492C88831E
:1013F000CE01DF91CF910895BF92CF92DF92EF920D
:10140000FF920F931F93CF93DF9303E314E08AE5DA
:10141000E82EFF24F394C0E0B801C7010E94C5087C
:1014200084E0E80EF11C97012D5C3B4FF901EB5570
:10143000F140D081F801D080F901ED55F140C08034
:101440003196B0808DEA9FE00E9434198C2F0E9463
:10145000551988EA9FE00E9434198B2D0E94551976
:1014600086EA9FE00E9434198C2D0E94551984EA67
:101470009FE00E9434198D2D0E94551980E99FE04C
:101480000E9434198D2F90E00E945C1983E89FE040
:101490000E943419CF5F0C5F1F4FCE3109F0BCCFD3
:1014A000DF91CF911F910F91FF90EF90DF90CF9040
:1014B000BF900895EF92FF920F931F93CF93DF9306
:1014C000C82F8AE69FE00E9434198C2F0E9455197C
:1014D00084E69FE00E94341985E9E82E82E0F82E28
:1014E00000E810E0D0E0C555DB4F8881802319F07B
:1014F000F701608101C06FE58EE795E00E945B1403
:101500001F5F0695FFEFEF1AFF0A183071F782E6AA
:101510009FE0DF91CF911F910F91FF90EF900C947E
:1015200034191F93CF93DF93C2E5D1E01C2F1255DE
:10153000BE01675A7C4FCE010E94E8092196812F97
:101540000E945A0ACA3581E0D80781F7DF91CF910E
:101550001F910895CF92DF92EF92FF92CF93DF9386
:1015600000D000D000D0CDB7DEB76B017C010E9467
:10157000BC0980912C0490E0A0E0B0E089839A83BC
:10158000AB83BC838AE090E09E838D83C701B60164
:101590000E94BC0980912C0490E00A971CF061E93C
:1015A00072E002C06CEB73E08EE795E00E94771466
:1015B000CE0101960E94FB186AE30E945B14C701EA
:1015C000B6010E94BC0980912B0490E0A0E0B0E03D
:1015D00089839A83AB83BC838AE090E09E838D836A
:1015E000C701B6010E94BC0980912B0490E00A97C4
:1015F0001CF061E972E002C06CEB73E08EE795E0ED
:101600000E947714CE0101960E94FB186AE30E94A3
:101610005B14C701B6010E94BC0980912A0490E0C6
:10162000A0E0B0E089839A83AB83BC838AE090E03A
:101630009E838D83C701B6010E94BC0980912A0454
:1016400090E00A971CF061E972E002C06CEB73E075
:101650008EE795E00E947714CE0101960E94FB1858
:1016600026960FB6F894DEBF0FBECDBFDF91CF91A7
:10167000FF90EF90DF90CF900895CF92DF92EF929E
:10168000FF92CF93DF9300D000D000D0CDB7DEB76C
:101690006B017C010E94BC0980912E0490E0A0E0C7
:1016A000B0E089839A83AB83BC838AE090E09E8319
:1016B0008D83C701B6010E94BC0980912E0490E081
:1016C0000A971CF061E972E002C06CEB73E08EE7F0
:1016D00095E00E947714CE0101960E94FB186CE9F8
:1016E00072E00E947714C701B6010E94E009092E3A
:1016F000000CAA0BBB0B89839A83AB83BC838AE063
:1017000090E09E838D83C701B6010E94BC092091A1
:101710002F0483E0289F90011124A5EBB4E080E022
:1017200090E0FC01E20FF31FE65AF24FE491ED93D3
:10173000019683309105A9F71092B80465EB74E027
:101740008EE795E00E9477146CE972E08EE795E0F1
:101750000E947714CE0101960E94FB1860E20E945D
:101760005B14C701B6010E94BC0980912C0490E073
:10177000A0E0B0E089839A83AB83BC838AE090E0E9
:101780009E838D83C701B6010E94BC0980912C0401
:1017900090E00A971CF061E972E002C06CEB73E024
:1017A0008EE795E00E947714CE0101960E94FB1807
:1017B0006AE30E945B14C701B6010E94BC098091D4
:1017C0002B0490E0A0E0B0E089839A83AB83BC83D4
:1017D0008AE090E09E838D83C701B6010E94BC0918
:1017E00080912B0490E00A971CF061E972E002C03E
:1017F0006CEB73E08EE795E00E947714CE010196C2
:101800000E94FB186AE30E945B14C701B6010E94A4
:10181000BC0980912A0490E0A0E0B0E089839A831B
:10182000AB83BC838AE090E09E838D83C701B601C1
:101830000E94BC0980912A0490E00A971CF061E99B
:1018400072E002C06CEB73E08EE795E00E947714C3
:10185000CE0101960E94FB1826960FB6F894DEBFC3
:101860000FBECDBFDF91CF91FF90EF90DF90CF9073
:1018700008958F929F92AF92BF92CF92DF92EF9294
:10188000FF921F93CF93DF93C0EAD1E010E080EA8C
:10189000E82EF12CBE01C7010E949F088AE0E80EE5
:1018A000F11C6AE070E080E090E00E941D156A8102
:1018B0007B818C819D810E943D0BCE80DF80A8843E
:1018C000B9848880998086E59FE00E943419812F31
:1018D0000E94551987E49FE00E943419C4010E94B8
:1018E0005C198FE39FE00E943419C5010E945C19C6
:1018F00082E39FE00E943419C6010E945C1980E3D4
:101900009FE00E9434191F5F2A96183019F6DF9164
:10191000CF911F91FF90EF90DF90CF90BF90AF904D
:101920009F908F9008957F928F929F92AF92BF92D7
:10193000CF92DF92EF92FF920F931F93CF93DF939B
:10194000782EC0EFD1E000E010E080E5E82EF12C29
:1019500081E078120DC0BE01C7010E949F088AE095
:10196000E80EF11C6AE070E080E090E00E941D1536
:101970006A817B818C819D810E943D0BCE80DF80BE
:10198000A884B9848880998085E29FE00E943419F8
:10199000C8010E945C1986E19FE00E943419C401CD
:1019A0000E945C198EE09FE00E943419C5010E94DC
:1019B0005C1981E09FE00E943419C6010E945C1905
:1019C0008FEF9EE00E9434190F5F1F4F2A96083058
:1019D000110509F0BDCFDF91CF911F910F91FF90BD
:1019E000EF90DF90CF90BF90AF909F908F907F90BF
:1019F00008957F928F929F92AF92BF92CF92DF9283
:101A0000EF92FF920F931F93CF93DF93782EC0E551
:101A1000D1E000E010E0E12CF12C81E078120DC063
:101A2000BE01C7010E949F088AE0E80EF11C6AE02F
:101A300070E080E090E00E941D156A817B818C81BE
:101A40009D810E943D0BCE80DF80A884B984888070
:101A5000998087EF9EE00E943419C8010E945C19AA
:101A600088EE9EE00E943419C4010E945C1980EE49
:101A70009EE00E943419C5010E945C1987ED9EE02A
:101A80000E943419C6010E945C1985ED9EE00E94F7
:101A900034190F5F1F4F2A960830110509F0BDCF8A
:101AA000DF91CF911F910F91FF90EF90DF90CF903A
:101AB000BF90AF909F908F907F900895EF92FF928C
:101AC0000F931F93CF93DF931F92CDB7DEB77C01A7
:101AD000FC0100811181C80169830E94492C698140
:101AE000681719F0C8010E94512CC7010F90DF91AF
:101AF000CF911F910F91FF90EF900895EF92FF9279
:101B00000F931F93CF93DF9300D0CDB7DEB78C0137
:101B10007B01FB0160819A838983CE0101960E943B
:101B20005E0DF70161810F5F1F4F1A830983CE019C
:101B300001960E945E0DC7010F900F90DF91CF912B
:101B40001F910F91FF90EF900895AF92BF92CF92A7
:101B5000DF92EF92FF920F931F93CF93DF9300D00A
:101B6000CDB7DEB78B016B0126E0C20ED11C7B0125
:101B70005C01A61AB70A95012E0D3F1DF701619170
:101B80007F013A832983CE0101960E945E0DEC14F9
:101B9000FD0489F7C8010F900F90DF91CF911F913D
:101BA0000F91FF90EF90DF90CF90BF90AF9008958E
:101BB0000F931F93CF93DF9300D0CDB7DEB78B0188
:101BC000FB0160819A838983CE0101960E945E0D9C
:101BD000C8010F900F90DF91CF911F910F91089541
:101BE00085E890E10E94341961E374E088ED91E0AA
:101BF0000E94D80D8BE690E10E94341984E590E1B3
:101C00000E94341980E090E0FC01E051FE4F118207
:101C10001082FC01E056FE4F118210820A96803538
:101C2000910591F78BE390E10E94341961E087E020
:101C30000E94D11461E086E00E94D11461E085E049
:101C40000E94D11461E084E00E94D11480E290E10E
:101C50000E94341960E08DE00E94D11480E090E190
:101C60000E94341981E08093B30487EF9FE00E94C3
:101C700034190E9402170C943D0BAF92BF92CF9281
:101C8000DF92EF92FF920F931F93CF93DF9300D0D9
:101C9000CDB7DEB78B016B0124E0C20ED11C7B01F6
:101CA0005C01A61AB70A95012E0D3F1DF70161913F
:101CB0007F013A832983CE0101960E945E0DEC14C8
:101CC000FD0489F7C8010F900F90DF91CF911F910C
:101CD0000F91FF90EF90DF90CF90BF90AF9008955D
:101CE000AF92BF92CF92DF92EF92FF920F931F932A
:101CF000CF93DF9300D0CDB7DEB78B016B012AE025
:101D0000C20ED11C7B015C01A61AB70A95012E0DEB
:101D10003F1DF70161917F013A832983CE0101962E
:101D20000E945E0DEC14FD0489F7C8010F900F901E
:101D3000DF91CF911F910F91FF90EF90DF90CF90A7
:101D4000BF90AF9008952F923F924F925F926F9203
:101D50007F928F929F92AF92BF92CF92DF92EF923B
:101D6000FF920F931F93CF93DF93CDB7DEB72F97DB
:101D70000FB6F894DEBF0FBECDBF65E972E0CE01AD
:101D800008960E9446140E9402171B012C010E9413
:101D9000BC0980912C048B83C201B1010E94BC0953
:101DA00080912B048A83C201B1010E94BC098091F9
:101DB0002A04898333E3C32E34E0D32E06E314E0F0
:101DC0001E864AE5E42EFF24F394BB24B394B601A7
:101DD000C7010E94C50824E0E20EF11CF80131970A
:101DE0008081F60190819D83F801329790819E83D6
:101DF000825E8F83CE0101960E948C176215730557
:101E00008405950511F58091B304811110C0C201BC
:101E1000B1010E943D0B88E19EE00E94341986EEDC
:101E20009DE00E94341988EB9DE00E943419F8016E
:101E30008081811108C0B082B601C7010E943D0EA9
:101E400021E02E8702C041E04E8754E0C50ED11C30
:101E50000C5F1F4F82EDE81681E0F80609F0B7CF5E
:101E6000C201B1010E94BC0980912F048E83C2017E
:101E7000B1010E94BC0980912E048D83C201B10181
:101E80000E94E009825B8F8380E5E82E81E0F82ED6
:101E900087019BEAA92E94E0B92EC12CD12C20E811
:101EA000822E912C2A2DEBEAF4E02E1B2F87F501D0
:101EB00071905F01C201B1010E94BC09272D30E081
:101EC00080912D048150A40102C0559547958A95B3
:101ED000E2F7CA0182239323892B91F1C201B10158
:101EE0000E94BC0970902F04F80162817381848183
:101EF00095810E94BC0980912F04781221C0C201F3
:101F0000B1010E94BC0970902E04F80162817381B6
:101F1000848195810E94BC0980912E04781210C0A2
:101F2000C201B1010E94E0093C01F80162817381A4
:101F3000848195810E94E0096816790609F45CC0E5
:101F4000FAE0CF0ED11C065F1F4F20E5C216D10468
:101F500009F0A8CFCE0108960E9441144E85411188
:101F600047C010E0F7018085918583369105C1F562
:101F7000808191810197A1F50E940217F70182806B
:101F80009380A480B580DC01CB0188199909AA0946
:101F9000BB094E97A105B10518F58EE99EE00E9498
:101FA000341987E99EE00E943419812F0E94551947
:101FB0008BE89EE00E9434198DE79EE00E94341960
:101FC00084E79EE00E9434190E9402170E940217C3
:101FD0000E943D0B1092B30486E49EE00E943419E7
:101FE0001F5FFAE0EF0EF11C183009F0BBCF41C0C3
:101FF00081E08093B3043DC0F801628173818481E4
:1020000095810E94BC0980912C048B83F801628128
:102010007381848195810E94BC0980912B048A83FD
:10202000F80162817381848195810E94BC0980914D
:102030002A048983CE0101960E948C17DC01CB0112
:1020400080589E4AAE4FBF4FF80182839383A4838A
:10205000B58381EB9DE00E9434198F850E9455194C
:1020600082E89DE00E943419B801C6010E94700EFA
:1020700067CF2F960FB6F894DEBF0FBECDBFDF91AE
:10208000CF911F910F91FF90EF90DF90CF90BF9075
:10209000AF909F908F907F906F905F904F903F9008
:1020A0002F9008958F929F92AF92BF92CF92DF921E
:1020B000EF92FF920F931F93CF93DF9300D0CDB792
:1020C000DEB7F0E5EF2EF1E0FF2E812CAAE79A2E85
:1020D000A9E4AA2EAAE5BA2E00E010E0F7011182C9
:1020E000108282829382A482B58217821682118620
:1020F0001086B701C8010E94700E065F1F4FFAE0FC
:10210000EF0EF11C8FEF881A980AA80AB80A00355A
:10211000110521F770EFE72E71E0F72EEAE08E2E21
:10212000912CA12CB12CF701118210828282938212
:10213000A482B5821782168211861086B701C80163
:102140000E94700E065F1F4FFAE0EF0EF11C003A7E
:10215000110549F750EAE52E51E0F52E6AE0862E8A
:10216000912CA12CB12CF7011182108282829382D2
:10217000A482B5821782168211861086B701C80123
:102180000E94700E065F1F4FFAE0EF0EF11C003F39
:10219000110549F74AEFE42E43E0F42EF7011182CE
:1021A00010821282138214821582B701C8010E9424
:1021B000A50D0A5F1F4FF6E0EF0EF11C003281E023
:1021C000180761F73AECE32E33E0F32EF7011182A2
:1021D00010821282138214821582B701C8010E94F4
:1021E000A50D0A5F1F4FF6E0EF0EF11C003581E0F0
:1021F000180761F722E9E22E22E0F22EF701619141
:102200007F011A830983CE0101960E945E0D0F5F44
:102210001F4F0335F1E01F0789F79BEAE92E94E091
:10222000F92E02E511E0F7011082B701C8010E9402
:10223000D80D0F5F1F4FFFEFEF1AFF0A0A3581E03D
:10224000180789F783E3C82E84E0D82EF12CF60115
:10225000F082C8018D5C9B4FFC01E955F140108272
:102260003196108231961082B601C8010E943D0E4F
:102270000C5F1F4FF394F4E0CF0ED11C8EE1F812E7
:10228000E6CF81E090E09A838983BE016F5F7F4F44
:1022900087ED91E00E947E0D1A821982BE016F5F68
:1022A0007F4F88ED91E00E947E0D89ED9FE00E94B6
:1022B000341981E00E94F90C81E00E94930C0E9485
:1022C000390C0E94910A0E94FC0962E374E087EDD8
:1022D00091E00E94E809109132048AEC9FE00E948C
:1022E0003419812F0E94551988EC9FE00E943419FF
:1022F00061E374E088ED91E00E94E80910913104F7
:1023000089EB9FE00E943419812F0E94551987EBB9
:102310009FE00E9434190F900F90DF91CF911F9191
:102320000F91FF90EF90DF90CF90BF90AF909F9074
:102330008F900895CF92DF92EF92FF920F931F93A9
:10234000CF93DF936C017A018B01C0E0D0E0CE1512
:10235000DF0589F0D8016D918D01D601ED91FC91D9
:102360000190F081E02DC6010995892B11F47E01C1
:1023700002C02196ECCFC701DF91CF911F910F9141
:10238000FF90EF90DF90CF900895FC01538D448D26
:10239000252F30E0842F90E0821B930B541710F010
:1023A000CF96089501970895FC01918D828D98171D
:1023B00061F0828DDF01A80FB11D5D968C91928D29
:1023C0009F5F9F73928F90E008958FEF9FEF089526
:1023D000FC01918D828D981731F0828DE80FF11DEF
:1023E000858D90E008958FEF9FEF0895FC01918D0A
:1023F000228D892F90E0805C9F4F821B91098F7303
:10240000992708958EE795E00E94F61121E0892B27
:1024100009F420E0822F0895FC01848DDF01A80FCC
:10242000B11DA35ABF4F2C91848D90E001968F73FC
:102430009927848FA689B7892C93A089B1898C911B
:1024400080648C93938D848D981306C00288F389E1
:10245000E02D80818F7D80830895EF92FF920F930E
:102460001F93CF93DF93EC0181E0888F9B8D8C8D40
:10247000981305C0E889F989808185FD24C0F62E6E
:102480000B8D10E00F5F1F4F0F731127E02E8C8D07
:10249000E8120CC00FB607FCFACFE889F9898081F1
:1024A00085FFF5CFCE010E940C12F1CF8B8DFE017E
:1024B000E80FF11DE35AFF4FF0820B8FEA89FB8989
:1024C0008081806207C0EE89FF896083E889F9898D
:1024D00080818064808381E090E0DF91CF911F91C3
:1024E0000F91FF90EF900895CF93DF93EC01888DCB
:1024F0008823C9F0EA89FB89808185FD05C0A88908
:10250000B9898C9186FD0FC00FB607FCF5CF80818D
:1025100085FFF2CFA889B9898C9185FFEDCFCE01D7
:102520000E940C12E7CFDF91CF91089580E090E0F8
:10253000892B29F00E94021281110C940000089549
:102540003FB7F8948091140590911505A091160558
:10255000B091170526B5A89B05C02F3F19F001962D
:10256000A11DB11D3FBFBA2FA92F982F8827820F19
:10257000911DA11DB11DBC01CD0142E0660F771F69
:10258000881F991F4A95D1F7089585ED8093BC0067
:102590008091BC0084FDFCCF10921D0608954091EF
:1025A000EA04262F30E0240F311D21323105DCF4FE
:1025B00020911D062430C9F4FC0180E090E08617CC
:1025C00058F43091EA042191DC01A853BB4FA30FCA
:1025D000B11D2C930196F3CF8091EA04680F6093AC
:1025E000EA0480E0089581E0089582E00895089566
:1025F000E091210680912006E81730F4F0E0E85ED3
:10260000FA4F808190E008958FEF9FEF08959091A9
:10261000210680912006981750F4E92FF0E0E85E3B
:10262000FA4F208130E09F5F9093210602C02FEF88
:102630003FEFC90108958091200690E02091210686
:10264000821B91090895CF92DF92EF92FF920F9330
:102650001F93CF93DF937C01262F972F8A018091C0
:102660005C05882391F0C62FD72F6E01C40ED51EAE
:10267000CC15DD0571F06991D701ED91FC910190C8
:10268000F081E02DC7010995F3CF642F822F0E94BE
:10269000CF12C801DF91CF911F910F91FF90EF9062
:1026A000DF90CF900895CF93DF931F92CDB7DEB721
:1026B000698320915C052223D1F020911E062032EF
:1026C00040F021E030E0FC013383228380E090E0A1
:1026D00015C080911F06E82FF0E0E35AFA4F998168
:1026E00090838F5F80931F0680931E0605C061E074
:1026F000CE0101960E94CF1281E090E00F90DF9111
:10270000CF910895089580E090E00895982F9295D4
:102710009F702AEF929F800D112408950E940B2F25
:10272000EF92FF920F931F93CF93DF93EC017B0106
:102730008A0188819981009729F02A813B81241799
:102740003507F8F4B8016F5F7F4F0E94412E009764
:1027500059F0998388831B830A832C813D81232B25
:1027600081F4FC0110820DC088819981009711F0DD
:102770000E94A92D198218821D821C821B821A8236
:1027800007C01D830C83B701888199810E942D2F7A
:10279000CE01DF91CF911F910F91FF90EF9008959F
:1027A000AF92BF92CF92DF92EF92FF920F931F935F
:1027B000CF93DF93FC0124813581FB014481558156
:1027C0008901041B150B4115510551F121153105E6
:1027D00039F12417350720F10217130718F0890182
:1027E000015011097B01FC01A080B180C501DFEF20
:1027F000CFEF6501C00ED11EC816D906A0F0F701B3
:10280000608171810E94342F009769F09C012A1920
:102810003B090217130710F0D22FC32F0196ECCFFC
:102820008FEF9FEF02C08D2F9C2FDF91CF911F91D3
:102830000F91FF90EF90DF90CF90BF90AF900895F1
:10284000CF93DF93EC016115710559F0FB01019005
:102850000020E9F73197AF01461B570B0E949013F8
:102860000CC088819981009711F00E94A92D1982CE
:1028700018821D821C821B821A82CE01DF91CF91A9
:102880000895FC01808191810C94A92DFC01118295
:10289000108213821282158214826115710551F023
:1028A000FB0101900020E9F73197AF01461B570B60
:1028B0000C9490130895DC01ED91FC910190F0814E
:1028C000E02D09946115710579F0FB01019000205C
:1028D000E9F73197AF01461B570BDC01ED91FC91F5
:1028E0000280F381E02D099480E090E008950C943B
:1028F00062141F920F920FB60F9211242F933F93E1
:102900004F935F936F937F938F939F93AF93BF93F7
:10291000EF93FF938EE795E00E940C12FF91EF91E9
:10292000BF91AF919F918F917F916F915F914F91E7
:102930003F912F910F900FBE0F901F9018951F92EF
:102940000F920FB60F9211242F938F939F93EF93B3
:10295000FF93E0918E05F0918F058081E0919405C1
:10296000F091950582FD12C09081809197058F5F4F
:102970008F7320919805821751F0E0919705F0E050
:10298000E258FA4F958F8093970501C08081FF919F
:10299000EF919F918F912F910F900FBE0F901F90ED
:1029A000189590E0FC01E856FF4E3491FC01EC5282
:1029B000FF4E2491FC01E054FF4EE491EE2309F414
:1029C0003BC0332339F1333091F038F43130A9F082
:1029D000323001F584B58F7D12C0373091F0383038
:1029E000A1F03430B9F4809180008F7D03C08091D4
:1029F00080008F77809380000DC084B58F7784BD71
:102A000009C08091B0008F7703C08091B0008F7DA6
:102A10008093B000F0E0EE0FFF1FE455FF4EA5914C
:102A2000B4918FB7F894EC91611103C020952E23D7
:102A300001C02E2B2C938FBF08958F929F92AF923F
:102A4000BF92CF92DF92EF92FF926B017C010E94C6
:102A5000A0124B015C01C114D104E104F104F1F0B6
:102A60000E94A012DC01CB0188199909AA09BB09AF
:102A7000883E9340A105B10570F321E0C21AD10848
:102A8000E108F10888EE880E83E0981EA11CB11CB5
:102A9000C114D104E104F10419F7DDCFFF90EF90E8
:102AA000DF90CF90BF90AF909F908F9008952FB7F9
:102AB000F894609110057091110580911205909124
:102AC00013052FBF08951F920F920FB60F92112476
:102AD0002F933F938F939F93AF93BF938091100554
:102AE00090911105A0911205B091130530910F0539
:102AF00023E0230F2D3720F40196A11DB11D05C041
:102B000026E8230F0296A11DB11D20930F05809387
:102B1000100590931105A0931205B09313058091B1
:102B2000140590911505A0911605B0911705019611
:102B3000A11DB11D8093140590931505A093160552
:102B4000B0931705BF91AF919F918F913F912F91B6
:102B50000F900FBE0F901F9018951F920F920FB6F7
:102B60000F9211242F933F934F935F936F937F9313
:102B70008F939F93AF93BF93EF93FF938091B9008F
:102B8000887F803609F49CC068F5883209F45BC000
:102B900090F4803109F454C038F4882309F4F6C065
:102BA000883009F44DC0F6C0883109F44CC0803239
:102BB00009F45DC0EFC0803409F468C048F4803384
:102BC00009F455C0883309F0E5C080935B05D8C08F
:102BD000803509F44FC0883509F45DC0883409F0A8
:102BE000D9C0D6C0883909F4C7C0A8F4883709F419
:102BF00067C038F4883609F463C0803709F460C0D0
:102C0000C9C0883809F4B8C0803909F45FC0803879
:102C100009F0C0C05BC0803B09F486C038F4803A3C
:102C200009F466C0883A09F47FC0B4C0803C09F456
:102C3000A7C0883C09F4A4C0883B09F48AC0AAC094
:102C40008091380510C090915A05809159059817C8
:102C500070F5E0915A0581E08E0F80935A05F0E0FF
:102C6000E75CFA4F80818093BB0085EC86C080933F
:102C70005B058EC0E0915A0581E08E0F80935A0566
:102C80008091BB00F0E0E75CFA4F808390915A0599
:102C9000809159056EC0E0915A0581E08E0F8093B6
:102CA0005A058091BB00F0E0E75CFA4F8083809189
:102CB0001C0681116DC081E080931B0684EA61C00F
:102CC00083E080931D0610920E05CFCF80910E05F4
:102CD000803208F051C0E0910E0581E08E0F8093A4
:102CE0000E058091BB00F0E0E251FB4F8083BDCF29
:102CF00085EC8093BC0010921D0680910E058032F9
:102D000030F4E0910E05F0E0E251FB4F108260914B
:102D10000E0570E0E091EC04F091ED048EEE94E08D
:102D2000099510920E0536C084E080931D0610921E
:102D3000EB041092EA04E091E804F091E9040995AB
:102D40008091EA04811105C081E08093EA04109229
:102D5000C804E091EB0481E08E0F8093EB04F0E077
:102D6000E853FB4F80818093BB009091EB048091EE
:102D7000EA04981708F479CF85E88093BC000AC06C
:102D800085EC8093BC0010921D0604C010925B0578
:102D90000E94C512FF91EF91BF91AF919F918F91CA
:102DA0007F916F915F914F913F912F910F900FBE47
:102DB0000F901F9018956093C2037093C303809384
:102DC000C4039093C503DC01CB01845D9E4FAF4FDC
:102DD000BF4F8093BE039093BF03A093C003B093F3
:102DE000C10382E090E09093C9038093C8030E94DE
:102DF00057156093C3047093C4048093C5049093E3
:102E0000C6040895CF92DF92EF92FF920F931F9323
:102E10000E945715C090C304D090C404E090C5042C
:102E2000F090C6048B019C010C191D092E093F0965
:102E30008091C2039091C303A091C403B091C503D4
:102E4000083E134021053105D0F00196A11DB11DAA
:102E50008093C2039093C303A093C403B093C503AC
:102E6000B701A60148515C4F6F4F7F4F4093C30499
:102E70005093C4046093C5047093C604C9CF4091B5
:102E8000BE035091BF036091C0037091C1038417CA
:102E90009507A607B70788F1E091C603F091C7032D
:102EA000309759F10995611571058105910519F062
:102EB0000E94DB1622C08091C2039091C303A091AF
:102EC000C403B091C503845D9E4FAF4FBF4F809345
:102ED000BE039093BF03A093C003B093C10381E0EE
:102EE00090E02091C8033091C903232B11F480E0B6
:102EF00090E09093C9038093C8036091C2037091DE
:102F0000C3038091C4039091C5031F910F91FF905B
:102F1000EF90DF90CF9008956F927F928F929F9263
:102F2000AF92BF92CF92DF92EF92FF920F931F93D7
:102F3000CF93DF93EC01EE81AE2FB0E020E833E3D6
:102F400041EE51E00E945F2C4B015C0122EB37E027
:102F5000FD0104E610E080E9E82EFF24F394C901A6
:102F6000825B97408E179F07DCF4C9018370992715
:102F7000892B99F4C901B8010E94BC2C892B31F42A
:102F8000C901B7010E94BC2C892B39F480E8880E56
:102F900081E5981E81E0A81EB11C2F5F3F4FDFCF57
:102FA0006D80712CEE54F84FCF0164E670E00E9402
:102FB000BC2C7C01CF0160E971E00E94BC2C6C014B
:102FC00001E010E0E370FF27061517052CF502302D
:102FD000110581F4309771F4E114F10419F4C1146E
:102FE000D10441F480E8880E8BE3981E86E2A81E87
:102FF000B11C0FC0D801A25ABD4FAC91B0E020E87F
:1030000031E541E050E00E945F2C860E971EA81E1D
:10301000B91E0F5F1F4FD8CF49812A8130E0A0E150
:10302000BEE00E94A12C6B017C01242F30E0ACE3B8
:10303000B0E00E94A12CDC01CB018C0D9D1DAE1DCA
:10304000BF1D28816C017D01C20ED11CE11CF11C49
:10305000AC81B0E0119720E831E541E050E00E94FA
:10306000F22CDC01CB018C0D9D1DAE1DBF1DBC01E2
:10307000CD01680D791D8A1D9B1DDF91CF911F9198
:103080000F91FF90EF90DF90CF90BF90AF909F9007
:103090008F907F906F900895CF93DF93CDB7DEB779
:1030A00027970FB6F894DEBF0FBECDBF81E08093A7
:1030B0005C0588E680937D0510921F0610921E061F
:1030C00060E082E296E00E94531381E00E948C1936
:1030D000882331F08093C70460E070E0CB013FC0EB
:1030E00067E088E60E94E919109221068093200685
:1030F00082E296E00E9407138F770E9486138983ED
:1031000082E296E00E9407130E9486138A8382E27D
:1031100096E00E9407138F7B0E9486138B8382E2C6
:1031200096E00E9407138C8382E296E00E940713C8
:103130000E9486138D8382E296E00E9407138F77A8
:103140000E9486138E8382E296E00E9407130E94FB
:103150008613825E8F83CE0101960E948C1727967C
:103160000FB6F894DEBF0FBECDBFDF91CF910895AB
:103170008F929F92AF92BF920F931F93CF93DF9343
:10318000CDB7DEB7A1970FB6F894DEBF0FBECDBFA7
:1031900019A2423008F44AE08E010F5D1F4F842EC1
:1031A000912CA12CB12CA50194010E94D02CE62FCA
:1031B000B901CA0101501109EA3014F4E05D01C0FF
:1031C000E95CD801EC93232B242B252B61F7B80164
:1031D0008EE795E00E946214A1960FB6F894DEBFC8
:1031E0000FBECDBFDF91CF911F910F91BF90AF90D8
:1031F0009F908F900895CF92DF92EF92FF92FC0103
:1032000044815581C080D180E280F3804115510511
:1032100061F4E0917E05F0917F050190F081E02D51
:103220006C2D8EE795E0099518C04A30510589F458
:10323000F7FE0EC06DE28EE795E00E945B146627F4
:103240007727CB016C197D098E099F094AE003C0DD
:103250004AE0C701B6010E94B8188EE795E0FF90DA
:10326000EF90DF90CF9008950F931F93CF93DF934C
:103270008C01C0E0D0E0F801EC0FFD1F64916623E3
:1032800071F0E0917E05F0917F050190F081E02DD5
:103290008EE795E00995892B11F02196ECCFCE01B0
:1032A000DF91CF911F910F910895682F70E080E01A
:1032B00090E04AE00C94B818CF92DF92EF92FF9220
:1032C000CF93DF936C01990FEE08FF08F7FE19C04A
:1032D0006DE28EE795E00E945B14EC01662777278C
:1032E000CB016C197D098E099F094AE00E94B8182C
:1032F0008C0F9D1FDF91CF91FF90EF90DF90CF90CB
:1033000008954AE0C701B601DF91CF91FF90EF9099
:10331000DF90CF900C94B818382F20911E06909112
:103320007D05213208F049C080911D068111FCCF36
:1033300042E040931D0630931C063FEF30935B053F
:1033400010925A0520935905ADE5B5E049E355E0E3
:10335000FA013E2F341B321718F43D913193F9CF07
:103360001092380520913805990F922B90933805CB
:1033700090911B06913061F410921B0690913805D4
:103380009093BB009091BC0093FDF8CF95EC01C0E9
:1033900095EE9093BC0090911D069230E1F39091D0
:1033A0005B059F3F79F080915B05803241F0809111
:1033B0005B05803331F084E005C081E003C082E02A
:1033C00001C083E010921F0610921E0610925C0549
:1033D000089590911D069111FCCF91E090931D06E8
:1033E00090931C062FEF20935B0510925A05260F31
:1033F000209359059093380590913805880F892BB3
:103400008093380580911B06813061F410921B0671
:10341000809138058093BB008091BC0083FDF8CF7C
:1034200085EC01C085EE8093BC0080911D06813043
:10343000E1F380915A05861710F460915A05A9E3CB
:10344000B5E028E135E0F9018E2F821B861718F4CC
:103450008D918193F9CF862F089590E0FC01EC5275
:10346000FF4E2491FC01E054FF4E8491882399F093
:1034700090E0880F991FFC01EA54FF4EA591B4918A
:10348000FC01E455FF4E859194918FB7F894EC912F
:10349000E22BEC938FBF0895CF93DF93CDB7DEB7C8
:1034A000CF54D1090FB6F894DEBF0FBECDBF7894CC
:1034B00084B5826084BD84B5816084BD85B5826039
:1034C00085BD85B5816085BD80916E0081608093EA
:1034D0006E00109281008091810082608093810053
:1034E0008091810081608093810080918000816063
:1034F000809380008091B10084608093B1008091BE
:10350000B00081608093B00080917A0084608093E5
:103510007A0080917A00826080937A0080917A00AC
:10352000816080937A0080917A00806880937A002D
:103530001092C10081E491E4A0E022968DAF9EAF8D
:10354000AFAF22978DE00E942D1A87E00E942D1ABE
:1035500086E00E942D1A85E00E942D1A84E00E94C8
:103560002D1AE0918E05F0918F0582E08083E09125
:103570008A05F0918B051082E0918C05F0918D0504
:1035800080E1808310929605E0919205F091930579
:1035900086E08083E0919005F091910580818061C3
:1035A0008083E0919005F09191058081886080830F
:1035B000E0919005F0919105808180688083E09191
:1035C0009005F091910580818F7D80830E94021784
:1035D000C090C203D090C303E090C403F090C50331
:1035E0002CE438E13093C7032093C603C092BE0396
:1035F000D092BF03E092C003F092C103672B682B07
:10360000692B29F40E940217DD24D39403C00E9481
:103610000217D12C0E9402178091C8039091C90310
:10362000029759F08CE492E00E9434196FE872E03E
:103630008EE795E00E94621418C080E392E00E9439
:1036400034196FE872E08EE795E00E94621487E219
:1036500092E00E9434190E9402170E943D0B60E91B
:1036600072E08EE795E00E947714BE01615C7F4FA7
:1036700080E591E00E94F2096FE370E06C0F7D1F1E
:103680006F5F7F4F81E591E00E94F209BE01615CAE
:103690007F4FCE0101960E9446148D819E81892B19
:1036A00049F062E972E089819A810E94242F11E039
:1036B000892B09F010E0CE0101960E9441141123DC
:1036C00009F45BC0BE01615C7F4FCE0101960E9490
:1036D000461480E090E00E945C1985E292E00E942E
:1036E00034194D815E8169817A818EE795E00E946F
:1036F0009A1188E092E00E943419CE0101960E944E
:10370000411481EF91E00E94341981E00E94F90C8C
:1037100081E00E94930C0E94390C0E94910A0E9441
:10372000FC0962E374E087ED91E00E94E8091091E2
:10373000320482EE91E00E943419812F0E945519C3
:1037400080EE91E00E94341961E374E088ED91E02D
:103750000E94E8091091310481ED91E00E94341932
:10376000812F0E9455198FEC91E00E9434195AEF75
:10377000E52E53E0F52E10E003C00E945210F7CF63
:10378000D70112966D917D918D919C9115970E9414
:103790003D0BF701A080B1808AEB91E00E943419C3
:1037A000812F0E9455198BEA91E00E943419C501BE
:1037B0000E945C1989EA91E00E9434191F5FF6E0CB
:1037C000EF0EF11C1830E1F64AECE42E43E0F42E43
:1037D00010E0D70112966D917D918D919C91159776
:1037E0000E943D0BF701A080B18083E991E00E9427
:1037F0003419812F0E94551984E891E00E943419F0
:10380000C5010E945C1982E891E00E9434191F5F93
:10381000F6E0EF0EF11C1830E1F606E512E034E0B8
:10382000F32EF00E61E0D8018D918D010E94D1142C
:103830006AEF70E080E090E00E941D15F012F2CF78
:10384000DD2009F47DC180E491E00E94341980E11B
:10385000E6E4F2E0DE01919601900D928A95E1F79F
:1038600061E374E088ED91E00E94E8091091310471
:10387000111158C11092B3040E9402176B017C0110
:103880000E94BC0980912F048EABC701B6010E9433
:10389000BC0980912E048DABC701B6010E94E009DE
:1038A000825B8FAB7E01B8E3EB0EF11C03ED11E000
:1038B000C8010E94492CF70181937F010F5F1F4FC0
:1038C000073DF1E01F07A1F78CE291E00E94341957
:1038D00068AD79AD8AAD9BAD0E943D0B8AE291E067
:1038E0000E9434199E012F5F3F4F7901690100E06A
:1038F00010E0F801E05BFE4F82809380A480B580E9
:10390000C501B4010E94BC0980912C048BABC50198
:10391000B4010E94BC0980912B048AABC501B4019B
:103920000E94BC0980912A0489ABCE01C1960E94F5
:103930008C17F801E050FF4F628373838483958373
:10394000D6016D937D938D939D936D01F801E051A8
:10395000FE4F11821082F801E056FE4F1182108254
:10396000065F1F4F0035110521F687E090E0FE014C
:10397000319620E030E028173907DCF4419151916D
:103980006191719180809180A280B38084169506A8
:10399000A606B70658F4DF0114978D929D92AD925A
:1039A000BC92139740835183628373832F5F3F4F91
:1039B000E2CF0197E1F6FE01B1969F01D7014D914B
:1039C0005D916D917D917D01A0E0B1E080E090E09E
:1039D00012968D909D90AD90BC9015974815590505
:1039E0006A057B0511F49183808301961A968830CD
:1039F000910571F73296E216F30601F7FE01F19692
:103A00002F0196E0E92EF12C2AE0322ED201BE9051
:103A1000AE902D013A9C80013B9C100D1124F801C1
:103A2000E050FF4F62807380848095800E9402176F
:103A3000661677068806990608F06AC0F801E05B0A
:103A4000FE4F6F01808591858835910589F40E942C
:103A5000A30E8AE08A9DF0018B9DF00D1124E05B9E
:103A6000FE4F808591850E945C1985E191E066C0DA
:103A70008336910561F36080718087E091E00E9458
:103A80003419C5010E945C198DEF90E00E94341931
:103A9000C3010E945C198BEF90E00E943419F6017B
:103AA00062817381848195810E943D0BD6018D9145
:103AB0009C91019749F500511E4FF801A680B780EF
:103AC000F1E0AF16B10401F5F701E555FB4FC180F8
:103AD000D12C0E9402170E94BC0980912D048150B4
:103AE00020E830E002C0359527958A95E2F7C2229A
:103AF000D322CD2819F08BED90E008C0D801AD920B
:103B0000BC9285EC90E002C084E990E00E943419F8
:103B1000B1E0EB1AF108EEEFEE16EFEFFE0609F05A
:103B200075CF0EC081E08093B30485E890E00E94D9
:103B30003419812F0E94551988E690E00E943419AB
:103B40008091B304811134C300E511E0C12CD12C64
:103B5000312CD8018D919C911197019709F0FBC0F0
:103B600018968D919C911997CC970CF0F4C0809188
:103B7000B3048111F0C00E940217F8014280538003
:103B800064807580461A570A680A790A0E940217EB
:103B90004B015C010E94BC0980912F048E83C501FA
:103BA000B4010E94BC0980912E048D83C501B4012B
:103BB0000E94E009825B8F83C501B4010E94BC09A9
:103BC00080912C048B83C501B4010E94BC098091B3
:103BD0002B048A83C501B4010E94BC0980912A0488
:103BE000898380E5E82E81E0F82E2BEA34E02D96DB
:103BF0003FAF2EAF2D97A12CB12C2C962FAD2C972B
:103C00004BEA54E0241B2E962FAF2E972D96AEAD87
:103C1000BFAD2D979D902D96BFAFAEAF2D970E9453
:103C200002170E94BC09292D30E080912D0481509B
:103C3000E0E8F0E002C0F595E7958A95E2F7CF015C
:103C400082239323892BB9F10E9402170E94BC0999
:103C500090902F04D70112966D917D918D919C913A
:103C600015970E94BC0980912F04981224C00E94CD
:103C700002170E94BC0990902E04F70162817381A3
:103C8000848195810E94BC0980912E04981213C0F2
:103C90000E9402170E94E0094C01D70112966D9113
:103CA0007D918D919C9115970E94E0098816990647
:103CB00011F40C94F32ABAE0AB0EB11CEAE0EE0E5C
:103CC000F11CF0E5AF16B10409F097CF22E14216DE
:103CD00051046104710408F08EC08AE094E00E94EF
:103CE00034194AE0C301B2010E94B81885E094E09B
:103CF0000E9434198EEF93E00E943419832D0E94A4
:103D0000551982EF93E00E943419D80118968D91CD
:103D10009C9119972AE0289FF001299FF00D11240A
:103D2000E051FE4F8D919C91119791838083129663
:103D30008D919D910D90BC91A02D80589E4AAE4FC3
:103D4000BF4FF80182839383A483B583B801C60172
:103D50000E94700E50C00E940217D80112964D901A
:103D60005D906D907C90159753014201861A970AD9
:103D7000A80AB90ABAE08B169104A104B104D8F5D7
:103D8000F8012081318121303105A9F52085318567
:103D90002835310581F5D301C20180589E4AAE4FC6
:103DA000BF4F82839383A483B583B801C6010E9469
:103DB000700E85EC93E00E9434198EEB93E00E9424
:103DC0003419832D0E94551982EB93E00E94341917
:103DD0008FEA93E00E9434194AE0C501B4010E94C1
:103DE000B8188AEA93E00E9434190E94F00D8CE71B
:103DF00093E00E9434193394065F1F4FFAE0CF0E10
:103E0000D11C20E5C216D10409F0A3CEE0EFAE2EFE
:103E1000E1E0BE2EF0EAEF2EF1E0FF2EAFE48A2EB5
:103E2000A6E09A2EBAEFCB2EB3E0DB2E1AEC212EB1
:103E300013E0312E370185012C961FAE2C97D80147
:103E40008D919C911197019709F0ADC08091B304B9
:103E50008111A9C01896ED91FC911997EA5AFD4F6E
:103E600060E080810E94D1140E945715F4012081E6
:103E7000318142815381DC01CB01821B930BA40B66
:103E8000B50B893E9340A105B10508F48CC0F6013D
:103E900082819381A481B5810196A11DB11D828388
:103EA0009383A483B583809132048130A9F5D8012E
:103EB00018964D905C901997F201EA5AFD4F2081B7
:103EC00082E793E060962FAF60970E9434192C969A
:103ED0008FAD2C970E94551987E693E00E94341904
:103EE000C2010E945C1985E693E00E943419609635
:103EF0002FAD6097822F0E94551983E693E00E94B0
:103F00003419F60162817381848195810E94AA0A25
:103F10008CE393E00E9434190E945715D4016D93ED
:103F20007D938D939C931397F60142815381648115
:103F30007581F80182819381A481B5814817590761
:103F40006A077B0780F1408451848CE293E00E94F1
:103F500034192C968FAD2C970E94551984E193E06B
:103F60000E943419C2010E945C198EE093E00E9405
:103F70003419D80111961C921E9221E030E0F30111
:103F8000318320831896ED91FC911997EA5AFD4FE1
:103F900061E080810E94D114D10112961D921D9280
:103FA0001D921C9215972C962FAD2C972F5F2C9657
:103FB0002FAF2C97065F1F4F3AE0630E711C46E04F
:103FC000240E311C54E0850E911C86E0C80ED11CD5
:103FD000283009F034CF6FE2862E66E0962E0AEC88
:103FE00013E07AEF672E73E0772ED12CD7018D91F5
:103FF0009C911197019709F0A0C08091B3048111A1
:104000009CC01896ED91FC911997EA5AFD4F61E01A
:1040100080810E94D1140E945715F40120813181C2
:1040200042815381DC01CB01821B930BA40BB50BA6
:10403000893E9340A105B10508F47FC0F801828153
:104040009381A481B5810196A11DB11D82839383C3
:10405000A483B58380913204813089F5D701189605
:10406000ED91FC911997EA5AFD4FC080F50140840B
:10407000518483E093E00E9434198D2D0E945519DC
:1040800088EF92E00E943419C2010E945C1986EF09
:1040900092E00E9434198C2D0E94551984EF92E011
:1040A0000E943419D80112966D917D918D919C9149
:1040B00015970E94AA0A8DEC92E00E9434190E9482
:1040C0005715F4016083718382839383D80112961C
:1040D0004D915D916D917C911597F701828193814E
:1040E000A481B581481759076A077B0730F14084DE
:1040F00051848DEB92E00E9434198D2D0E94551948
:1041000084EA92E00E943419C2010E945C198EE98F
:1041100092E00E943419D7011D921C92F50186810C
:1041200097818130910549F491838083D301129660
:104130001D921D921D921C921597D394BAE0EB0E1E
:10414000F11CEAE0AE0EB11CF6E06F0E711C24E02B
:10415000820E911C0A5F1F4F38E0D31247CF0E9496
:1041600057150091730610917406209175063091D1
:104170007606DC01CB01801B910BA20BB30B893EB1
:104180009340A105B105B0F06091B40481E06827C7
:104190006093B4048DE00E94D1140E94571560937F
:1041A000730670937406809375069093760602C02A
:1041B0000E94A30ECE0101967C0100E010E00E9457
:1041C00057156093860570938705809388059093B3
:1041D0008905E0917E05F0917F050284F385E02D4D
:1041E0008EE795E0099597FD09C0D7018D937D0174
:1041F0000F5F1F4F0E31110511F71DC00E9457159B
:104200008090860590908705A0908805B0908905DC
:10421000DC01CB0188199909AA09BB0980908205A4
:1042200090908305A0908405B09085058815990528
:10423000AA05BB0570F2E1E0F0E0EC0FFD1FE00F16
:10424000F11F108261E972E0CE018B5B9F4F0E94EB
:10425000461465E972E0CE01CF960E9446146EE9DD
:1042600072E0CE0101960E94092C7C01BC01CE01B6
:104270008B5B9F4F0E9420142796CEACDFAC279714
:10428000C114D10409F444C02B960EAD1FAD2B9779
:1042900001151105E9F146015401BFEF8B1A9B0A84
:1042A000F5018081082E000C990B0E943D2C892B72
:1042B00099F7015011090C0D1D1DD8018C91082E84
:1042C000000C990B0E943D2C892B89F40F5F1F4F26
:1042D000A8014A195B092B965FAF4EAF2B97CA1402
:1042E000DB0458F4B501C6010E941B2F06C00A1555
:1042F0001B0560F301501109E0CF2796EEADFFAD2D
:1043000027972B968EAD9FAD2B97E80FF91F108244
:1043100062EA72E0CE0181960E944614BE016F5D92
:104320007F4FCE018B5B9F4F0E94D0138C01CE013B
:1043300081960E94411417FD0EC084E49DE00E9406
:1043400034190E9402170E943D0B82E49DE00E94F6
:10435000341901E001C000E06AEA72E0CE01819602
:104360000E944614BE016F5D7F4FCE018B5B9F4F55
:104370000E94D0136C01CE0181960E94411410E07E
:10438000D7FCFCC0E114F10401F16EE972E080E0B9
:1043900090E00E94092C7C010E94EB2BFE013196DB
:1043A000E10FF11DE10FF11D91A380A30E945C19A3
:1043B0008EE39DE00E943419812F0E9455198CE3F1
:1043C0009DE00E9434191F5FDDCF8DA18CAF8BA1C2
:1043D0008DAF89A1825B8EAF8FA18AAF89A589AF8E
:1043E0008BA588AFCE01C8960E948C174B015C014B
:1043F000AE014F5C5F4F0E94EB08CC24C394C09287
:104400005C0558E6D52ED0927D0510921F061092BD
:104410001E0660E082E296E00E94531329A90AE09A
:10442000822F602F0E94B02C682F660F860F682F96
:10443000660F620F82E296E00E9453132AA9822F30
:10444000602F0E94B02C682F660F860F682F660FB2
:10445000620F82E296E00E9453132BA9822F602FF5
:104460000E94B02C682F660F860F682F660F620FB0
:1044700082E296E00E9453136CA982E296E00E94C9
:1044800053132DA9822F602F0E94B02C682F660F26
:10449000860F682F660F620F82E296E00E94531328
:1044A0002EA9822F602F0E94B02C682F660F860FD6
:1044B000682F660F620F82E296E00E9453132FA9C5
:1044C0002E51822F602F0E94B02C682F660F860F0E
:1044D000880F682F620F82E296E00E94531381E0FA
:1044E0000E948C19C0925C05D0927D0510921F0627
:1044F00010921E066FE082E296E00E94531381E064
:104500000E948C1981110FC061E088E60E94E919B0
:10451000109221068093200682E296E00E94071303
:104520002F968FAF2F9781E080935C0588E680936C
:104530007D0510921F0610921E066FE082E296E043
:104540000E9453132F966FAD2F976F7782E296E0FC
:104550000E94531381E00E948C19C501B4010E948E
:10456000DB168BE29DE00E943419C501B4010E9464
:104570003D0B89E29DE00E94341901E062EB72E09C
:10458000CE01C1960E944614BE016F5C7F4FCE01E2
:104590008B5B9F4F0E94D0136C01CE01C1960E948D
:1045A0004114D7FC91C0E114F10499F06EE972E076
:1045B00080E090E00E94092C7C010E94EB2BFE0120
:1045C0003196E10FF11DE10FF11D91A380A31F5F53
:1045D000EACF89A09AA08AE0889D5001899DB00CFD
:1045E0001124F501E051FE4F6F0189A59AA597832B
:1045F00086838BA59CA5918780871182108281E09C
:104600008CAF8DAF1EAE8BA18AAF8DA189AF8FA16C
:1046100088AFCE01C8960E948C17D60112966D9372
:104620007D938D939C931597B0E5AB0EB11CB601AD
:10463000C5010E94700E8BEF9CE00E94341980EF40
:104640009CE00E943419C4010E945C1987EE9CE032
:104650000E943419F60162817381848195810E94E0
:10466000AA0AD60116968D909C90179718966D9071
:104670007C901997CD90DC908EED9CE00E943419CF
:10468000C6010E945C1986ED9CE00E943419C301AA
:104690000E945C1989EC9CE00E943419C4010E94BC
:1046A0005C198FEA9CE00E943419C5010E945C19D4
:1046B0008DEA9CE00E94341980E00E94930C8FE701
:1046C0009CE00E94341901E06DEB72E0CE01C196CE
:1046D0000E944614BE016F5C7F4FCE018B5B9F4FE3
:1046E0000E94D0136C01CE01C1960E944114D7FCE8
:1046F00096C0E114F10499F06EE972E080E090E078
:104700000E94092C7C010E94EB2BFE013196E10FE7
:10471000F11DE10FF11D91A380A31F5FEACF89A0D6
:104720009AA08AE0889D5001899DB00C1124F50162
:10473000E056FE4F6F0189A59AA5978386838BA5C6
:104740009CA5918780871182108281E08CAF8DAF0C
:104750001EAE8BA18AAF8DA189AF8FA188AFCE018C
:10476000C8960E948C17D60112966D937D938D93F7
:104770009C931597B0EAAB0EB11CB601C5010E941F
:10478000700E6AE070E080E090E00E941D1581E507
:104790009CE00E94341985E49CE00E943419C40115
:1047A0000E945C198CE39CE00E943419F60162813E
:1047B0007381848195810E94AA0AD60116968D90F4
:1047C0009C90179718966D907C901997CD90DC90DF
:1047D00083E39CE00E943419C6010E945C198BE2BD
:1047E0009CE00E943419C3010E945C198EE19CE098
:1047F0000E943419C4010E945C1984E09CE00E946C
:104800003419C5010E945C1982E09CE00E943419B1
:104810000E94390C84ED9BE00E94341901E069ECA0
:1048200072E0CE01C1960E944614BE016F5C7F4FBC
:10483000CE018B5B9F4F0E94D0136C01CE01C196BD
:104840000E944114D7FCA6C0E114F10499F06EE96E
:1048500072E080E090E00E94092C7C010E94EB2B2A
:10486000FE013196E10FF11DE10FF11D91A380A32F
:104870001F5FEACF89A09AA08AE0889D5001899D98
:10488000B00C1124F501E05BFE4F6F0189A59AA5DC
:10489000978386838BA59CA5918780871182108240
:1048A0000E9402172B013C010E94BC0980912F0439
:1048B0008DAFC301B2010E94BC0980912E048CAF60
:1048C000C301B2010E94E009825B8EAF8BA18AAF67
:1048D0008DA189AF8FA188AFCE01C8960E948C1799
:1048E000D60112966D937D938D939C931597B60187
:1048F000C5010E94700E6AE070E080E090E00E94C6
:104900001D1586EA9BE00E9434198EE99BE00E9407
:104910003419C4010E945C1985E99BE00E94341996
:10492000F60162817381848195810E94AA0AD60171
:1049300016968D909C90179718966D907C9019976D
:10494000CD90DC908CE89BE00E943419C6010E9457
:104950005C1981E89BE00E943419C3010E945C1934
:1049600088E79BE00E943419C4010E945C198EE51F
:104970009BE00E943419C5010E945C198CE59BE004
:104980000E94341981E00E94F90C8EE29BE00E94A3
:10499000341901E062ED72E0CE01C1960E94461426
:1049A000BE016F5C7F4FCE018B5B9F4F0E94D01387
:1049B0006C01CE01C1960E944114D7FC86C0E1145F
:1049C000F10499F06EE972E080E090E00E94092C19
:1049D0007C010E94EB2BFE013196E10FF11DE10FEE
:1049E000F11D91A380A31F5FEACF89A09AA02AE0BE
:1049F000289DC001299D900D1124FC01E051FE4F1E
:104A00006F012BA13CA1318320835C01F0E5AF0E47
:104A1000B11CB601C5010E94700E6AE070E080E032
:104A200090E00E941D1580E09BE00E9434196BED20
:104A300072E08EE795E00E947714C4010E945C1931
:104A400063EE72E08EE795E00E947714D60112962D
:104A50006D917D918D919C9115970E94AA0AF60106
:104A60008680978060847184C080D1806CEE72E013
:104A70008EE795E00E947714C6010E945C1965EFED
:104A800072E08EE795E00E947714C3010E945C19E2
:104A900060E073E08EE795E00E947714C4010E9405
:104AA0005C1969E073E08EE795E00E947714C50118
:104AB0000E945C1960E972E08EE795E00E9477142D
:104AC00082ED9AE00E94341901E063E273E0CE01C6
:104AD000C1960E944614BE016F5C7F4FCE018B5B76
:104AE0009F4F0E94D0136C01CE01C1960E944114C9
:104AF000D7FC7DC0E114F10499F06EE972E080E02A
:104B000090E00E94092C7C010E94EB2BFE01319663
:104B1000E10FF11DE10FF11D91A380A31F5FEACF0B
:104B200089A09AA02AE0289DC001299D900D1124FA
:104B30009C0120563E4F69012BA13CA1D6012D932B
:104B40003C935C01B0E5AB0EB11CB601C5010E94FF
:104B5000700E6AE070E080E090E00E941D1584EA2B
:104B60009AE00E94341988E99AE00E943419C4013D
:104B70000E945C198FE89AE00E943419F601628164
:104B80007381848195810E94AA0AD60116968D9020
:104B90009C90179718966D907C901997CD90DC900B
:104BA00086E89AE00E943419C6010E945C198BE7DE
:104BB0009AE00E943419C3010E945C1982E79AE0CE
:104BC0000E943419C4010E945C1988E59AE00E9491
:104BD0003419C5010E945C1986E59AE00E943419D7
:104BE0000E94390C88E29AE00E94341901E06FE2D9
:104BF00073E0CE01C1960E944614BE016F5C7F4FE8
:104C0000CE018B5B9F4F0E94D0136C01CE01C196E9
:104C10000E944114D7FC77C0E114F10499F06EE9C9
:104C200072E080E090E00E94092C7C010E94EB2B56
:104C3000FE013196E10FF11DE10FF11D91A380A35B
:104C40001F5FEACF89A09AA08AE0889D5001899DC4
:104C5000B00C1124F501E05BFE4F6F018BA19CA10C
:104C600091838083BF01C5010E94700E6AE070E0ED
:104C700080E090E00E941D158AEF99E00E943419AF
:104C800082EF99E00E943419C4010E945C1989EEF8
:104C900099E00E943419D60112966D917D918D9103
:104CA0009C9115970E94AA0AF601868097806084DD
:104CB0007184C080D18080EE99E00E943419C601D1
:104CC0000E945C1985ED99E00E943419C3010E948D
:104CD0005C198CEC99E00E943419C4010E945C19A3
:104CE00082EB99E00E943419C5010E945C1980EBA7
:104CF00099E00E94341981E00E94F90C82E899E061
:104D00000E94341901E068E373E0CE01C1960E946D
:104D10004614BE016F5C7F4FCE018B5B9F4F0E949C
:104D2000D0136C01CE01C1960E944114D7FC44C03F
:104D3000E114F10499F06EE972E080E090E00E94E5
:104D4000092C7C010E94EB2BFE013196E10FF11D35
:104D5000E10FF11D91A380A31F5FEACF0BA1CCA0AF
:104D6000E9A1FAA1EA5AFD4FD080602F8D2D0E9453
:104D7000D11484E599E00E94341985E499E00E94F9
:104D80003419812F0E9455198EE399E00E9434193D
:104D90008D2D0E94551980E399E00E943419802FCF
:104DA0009C2D0E945C198EE299E00E94341980E0EB
:104DB00099E00E94341901E061E473E0CE01C196EC
:104DC0000E944614BE016F5C7F4FCE018B5B9F4FEC
:104DD0000E94D0136C01CE01C1960E944114D7FCF1
:104DE000F8C082ED98E00E9434196EE972E080E02C
:104DF00090E00E94092C7C01DC018C91082E000CB3
:104E0000990BC0970A9708F0C9C0C7010E94EB2B05
:104E10005C019AA389A30AE00A9DC0010B9D900D35
:104E20001124FC01E05BFE4F6F016281738184817C
:104E300095810E943D0BD60116968D909C901797F8
:104E400018966D907C9019974D905C9087EC98E047
:104E50000E943419C5010E945C1988EB98E00E94F9
:104E60003419C2010E945C1980EB98E00E94341949
:104E7000C3010E945C1987EA98E00E943419C401BA
:104E80000E945C1985EA98E00E943419F601808539
:104E90009185089FF001099FF00D1124E051FE4F0C
:104EA00062817381848195810E94AA0AD601189635
:104EB0002D903C901997029DF001039DF00D112457
:104EC000E051FE4F868097806084718440805180DD
:104ED00087E998E00E943419C1010E945C1988E8B2
:104EE00098E00E943419C2010E945C1980E898E0A1
:104EF0000E943419C3010E945C1983E798E00E9464
:104F00003419C4010E945C1981E798E00E943419A9
:104F1000F60180859185089FF001099FF00D11240D
:104F2000E056FE4F62817381848195810E94AA0AB6
:104F3000D6011896CD90DC9019970C9DF0010D9D2F
:104F4000F00D1124E056FE4F8680978060847184B6
:104F50004080518082E698E00E943419C6010E9488
:104F60005C1983E598E00E943419C2010E945C1923
:104F70008BE498E00E943419C3010E945C198EE30F
:104F800098E00E943419C4010E945C198CE398E0F7
:104F90000E9434198A2D0E945A0A16C080E00E948D
:104FA000F90C8FE098E00E94341980E00E94930C85
:104FB00082EE97E00E9434190E94390C85EB97E04D
:104FC0000E9434190E94910A87E897E00E943419E0
:104FD00001E06FE473E0CE01C1960E944614BE0169
:104FE0006F5C7F4FCE018B5B9F4F0E94D0136C0193
:104FF000CE01C1960E944114D7FC29C0E114F104EE
:1050000099F06EE972E080E090E00E94092C7C014A
:105010000E94EB2BFE013196E10FF11DE10FF11D16
:1050200091A380A31F5FEACF89E597E00E9434191E
:1050300080E497E00E9434190E9452108DE297E0BC
:105040000E9434198FEF96E00E94341901E064E663
:1050500073E0CE01C1960E944614BE016F5C7F4F83
:10506000CE018B5B9F4F0E94D0136C01CE01C19685
:105070000E944114D7FC17C06BE18EE795E00E94B7
:105080002D126AE673E08EE795E00E9477146BE1DB
:105090008EE795E00E942D126EE673E08EE795E0B4
:1050A0000E94771401E061E773E0CE01C1960E948F
:1050B0004614BE016F5C7F4FCE018B5B9F4F0E94F9
:1050C000D0136C01CE01C1960E944114D7FC9BC045
:1050D000E114F10421F16EE972E080E090E00E94B9
:1050E000092C7C01FC018081082E000C990B0E9488
:1050F000132F892B39F0B701CE018B5B9F4F0E9494
:1051000020140BC0C7010E94EB2BFE013196E10F6A
:10511000F11DE10FF11D91A380A31F5FD9CF8DA1D8
:105120009EA1A9A0BAA0BE016B5B7F4F019799F425
:10513000CE01CF960E94D013F501E555FB4F20E834
:1051400030E002C0359527958A95E2F7C901908134
:10515000892B808320C0CE01CF960E94D013F50109
:10516000E555FB4FAC0147505109477055272EEFCD
:1051700030E0B90102C0759567954A95E2F747E0BE
:1051800050E0481B590B01C0220F4A95EAF7262B25
:10519000608126232083A50145555B4F6A01BA0132
:1051A000C5018E5A9E4F0E94D80D81ED96E00E9457
:1051B000341988EB96E00E943419C5010E945C19ED
:1051C0008BEA96E00E94341935E9A32E32E0B32E23
:1051D00000E040E8942ED6018C91892119F0F50168
:1051E000608101C06FE58EE795E00E945B140F5F60
:1051F0009694FFEFAF1ABF0A083069F78DE796E083
:105200000E94341901E06FE773E0CE01C1960E945D
:105210004614BE016F5C7F4FCE018B5B9F4F0E9497
:10522000D0136C01CE01C1960E944114D7FC22C05C
:105230008FE496E00E9434196EE972E080E090E01D
:105240000E94092C7C01DC018C91082E000C990B2A
:10525000C0970A9740F4C7010E94EB2B89A39AA339
:105260000E945A0A02C00E94910A81E296E00E94BE
:10527000341901E061E973E0CE01C1960E94461441
:10528000BE016F5C7F4FCE018B5B9F4F0E94D0139E
:105290006C01CE01C1960E944114D7FC69C0E11493
:1052A000F10499F06EE972E080E090E00E94092C30
:1052B0007C010E94EB2BFE013196E10FF11DE10F05
:1052C000F11D91A380A31F5FEACFA9A0BAA0C501D9
:1052D000880F991F880F991FFC01ED5CFB4F2BA1D4
:1052E00020832DA121832FA1228321E039A5311113
:1052F00001C020E02383FC01ED5CFB4F6F01BF0187
:105300008AE591E00E943D0ED60113960C91139709
:1053100012969C90129711968C901197DC9087E1D1
:1053200096E00E943419C5010E945C198EE096E057
:105330000E9434198D2D0E9455198CE096E00E9430
:105340003419882D0E9455198AE096E00E9434197C
:10535000892D0E94551986EF95E00E943419802FFF
:1053600090E00E945C1984EF95E00E94341901E0FE
:105370006CE973E0CE01C1960E944614BE016F5CD9
:105380007F4FCE018B5B9F4F0E94D0136C01CE01EB
:10539000C1960E944114D7FC0BC086EC95E00E9498
:1053A00034190E94FC0988E995E00E94341901E053
:1053B0006CEA73E0CE01C1960E944614BE016F5C98
:1053C0007F4FCE018B5B9F4F0E94D0136C01CE01AB
:1053D000C1960E944114D7FC3BC0E114F10499F03E
:1053E0006EE972E080E090E00E94092C7C010E944E
:1053F000EB2BFE013196E10FF11DE10FF11D91A3A1
:1054000080A31F5FEACF09A1DAA00093320462E310
:1054100074E087ED91E00E94D80D6AE070E080E0D2
:1054200090E00E941D158AE695E00E94341984E5FB
:1054300095E00E943419802F9D2D0E945C1982E511
:1054400095E00E94341984E295E00E94341901E04D
:1054500066EB73E0CE01C1960E944614BE016F5CFC
:105460007F4FCE018B5B9F4F0E94D0136C01CE010A
:10547000C1960E944114D7FC4BC0EF2899F06EE909
:1054800072E080E090E00E94092C7C010E94EB2BEE
:10549000FE013196E10FF11DE10FF11D91A380A3F3
:1054A0001F5FEBCF19A10AA11093310461E374E0EF
:1054B00088ED91E00E94D80D6AE070E080E090E015
:1054C0000E941D1586EF94E00E94341984EE94E04A
:1054D0000E943419812F902F0E945C1982EE94E073
:1054E0000E94341980913104813039F488EC94E0C1
:1054F0000E9434190E94F00D08C089EB94E00E94CC
:1055000034191092B3040E94A30E8BE894E018C0E3
:10551000011118C0E114F104A9F08DE594E00E9496
:10552000341984E594E00E943419B7018EE795E0C0
:105530000E9477148BE394E00E9434198DE094E08C
:105540000E943419CE01CF960E944114CE018B5B8C
:105550009F4F0E9441140E94571500916F061091B1
:1055600070062091710630917206DC01CB01801B20
:10557000910BA20BB30B81369A4EA105B10578F1C0
:105580000E9402174B015C0169837A838B839C83A1
:105590009E012F5F3F4F790103ED11E0D7016D911F
:1055A0007D011AA309A3CE0181960E945E0D0F5FB3
:1055B0001F4F073DB1E01B0789F7C501B4010E94E9
:1055C0003D0B0E94571560936F0670937006809391
:1055D0007106909372068DE49DE00E9434190E943A
:1055E00096120C94A01DF7016281738184819581CC
:1055F0000E94BC0980912C048B83D70112966D9177
:105600007D918D919C9115970E94BC0980912B04EE
:105610008A83F70162817381848195810E94BC092C
:1056200080912A048983CE0101960E948C17DC01A7
:10563000CB0180589E4AAE4FBF4FF70182839383C0
:10564000A483B58387E992E00E9434192E968FAD2A
:105650002E970E94551988E692E00E943419B701EE
:10566000C5010E94700E0C945B1ECF93DF931092C5
:1056700081051092800588EE93E0A0E0B0E0809371
:10568000820590938305A0938405B09385052FE64A
:1056900032E030937F0520937E0525EC30E0309397
:1056A0008B0520938A0524EC30E030938D05209300
:1056B0008C0520EC30E030938F0520938E0521EC93
:1056C00030E0309391052093900522EC30E0309348
:1056D00093052093920526EC30E0309395052093B6
:1056E00094051092970510929805109299051092C2
:1056F0009A05109225061092240680932606909310
:105700002706A0932806B093290681E892E090939B
:1057100023068093220610922106109220061092F2
:105720001F0610921E0610921D0681E080931C0633
:1057300010921B0661E082E10E94D11461E083E1D6
:105740000E94D1148091B9008E7F8093B90080911E
:10575000B9008D7F8093B90088E48093B80085E418
:105760008093BC000E94571560937706709378066B
:105770008093790690937A060E945715609373067A
:105780007093740680937506909376060E94571561
:1057900060936F0670937006809371069093720603
:1057A000CFE4D6E00E945715699379938993999332
:1057B00086E0CF36D807B1F7CFE2D6E00E94571582
:1057C000699379938993999386E0CF34D807B1F799
:1057D000DF91CF910895FC0188279927E8942191C2
:1057E0002032E9F3293010F02E30C8F32B3241F08B
:1057F0002D3239F4689404C00E94352C820F911D1B
:10580000219120532A30C0F31EF4909581959F4F2B
:1058100008954BE756E00E940E2C0895FA01A191DD
:10582000B081009719F41097E1F0CD01DC01CD01B2
:105830000D90002011F4C00113C0FB01219122231F
:1058400019F02015D9F7F3CFFB012191201519F498
:105850001E92119606C02223C1F70D900020A1F7D9
:10586000D001FA01A193B08308957AE0979F902D1B
:10587000879F802D910D1124089591110C94462C31
:10588000803219F089508550C8F7089599278827E4
:105890000895F999FECF92BD81BDF89A992780B5F8
:1058A0000895262FF999FECF1FBA92BD81BD20BD64
:1058B0000FB6F894FA9AF99A0FBE019608950E94CD
:1058C000A12CA59F900DB49F900DA49F800D911DBC
:1058D000112408952F923F924F925F926F927F9280
:1058E0008F929F92AF92BF92CF92DF92EF92FF92F0
:1058F0000F931F93CF93DF93CDB7DEB7CA1BDB0B9C
:105900000FB6F894DEBF0FBECDBF09942A88398840
:1059100048885F846E847D848C849B84AA84B98447
:10592000C884DF80EE80FD800C811B81AA81B98153
:10593000CE0FD11D0FB6F894DEBF0FBECDBFED0167
:105940000895A29FB001B39FC001A39F700D811D58
:105950001124911DB29F700D811D1124911D089578
:10596000991B79E004C0991F961708F0961B881FB1
:105970007A95C9F78095089597FB072E16F4009441
:1059800007D077FD09D00E94FA2C07FC05D03EF421
:10599000909581959F4F0895709561957F4F0895DB
:1059A000A1E21A2EAA1BBB1BFD010DC0AA1FBB1F23
:1059B000EE1FFF1FA217B307E407F50720F0A21B95
:1059C000B30BE40BF50B661F771F881F991F1A9402
:1059D00069F760957095809590959B01AC01BD012C
:1059E000CF010895B7FF0C945F2C0E945F2C821B9F
:1059F000930B0895AA1BBB1B51E107C0AA1FBB1F35
:105A0000A617B70710F0A61BB70B881F991F5A954A
:105A1000A9F780959095BC01CD010895EE0FFF1F69
:105A20000590F491E02D0994CF93DF938230910596
:105A300010F482E090E0E0917F06F091800620E093
:105A400030E0C0E0D0E0309711F14081518148173B
:105A50005907C0F04817590761F482819381209754
:105A600019F09B838A832BC09093800680937F06D6
:105A700026C02115310519F04217530718F49A0171
:105A8000BE01DF01EF010280F381E02DDCCF2115A3
:105A9000310509F1281B390B2430310590F4129699
:105AA0008D919C9113976115710521F0FB019383F2
:105AB000828304C09093800680937F06FD01329616
:105AC00044C0FD01E20FF31F8193919322503109ED
:105AD0002D933C933AC020917D0630917E06232B76
