:100000000C9449070C9471070C9471070C947107B8
:100010000C9471070C9471070C9471070C94710780
:100020000C9471070C9471070C9471070C94710770
:100030000C9471070C9471070C9471070C94710760
:100040000C943C0B0C9471070C94780A0C94520A93
:100050000C9471070C9471070C9471070C94710740
:100060000C94860B0C9471072062757420697320C0
:10007000696E616374697665206F7220697473209C
:1000800074696D6572206973206E6F74207265707B
:1000900065617461626C650A00204C61756E63680D
:1000A000696E67206974732074696D65720A002037
:1000B00000204163746976653A2000466F756E646E
:1000C00020416C61726D3A20002046696E69736848
:1000D000656420726573746F72696E670A000A0046
:1000E0004C6173742074696D65207265636F72640E
:1000F00065642000436972637569742068617320C8
:1001000072657373657465642C20747279696E67A7
:1001100020746F20726573756D6520696E746572E9
:10012000727570746564206F7065726174696F6E4A
:10013000732E2E2E0A000A002054696D652E204170
:1001400063746976653D002054696D6572204F6661
:100150006620636F756E74646F776E20000A0020EE
:1001600054696D652E204163746976653D002054A5
:10017000696D6572204F6E20636F756E74646F7762
:100180006E2000416C61726D7320696E666F20692C
:1001900073206C6F616465640A0020455050524FB3
:1001A0004D20616C726561647920696E6974696162
:1001B0006C697A65640A00200054696D6520697372
:1001C0002000525443206861732073657420746862
:1001D000652073797374656D2074696D6500556E63
:1001E00061626C6520746F2073796E632077697427
:1001F000682074686520525443002052656163682A
:10020000656420636F756E74646F776E2E2E2E0A90
:1002100000206973206163746976652C20636865CA
:10022000636B696E672069747320636F756E7464A5
:100230006F776E2E2E2E0A0020003A00206F6E205F
:1002400052656C6179200054696D6572204F666655
:100250002000205265616368656420636F756E7469
:10026000646F776E2E2E2E0A0020697320616374EE
:100270006976652C20636865636B696E67206974B5
:100280007320636F756E74646F776E2E2E2E0A0066
:1002900020003A00206F6E2052656C617920005476
:1002A000696D6572204F6E20000A2A2A2A2A2A2A9E
:1002B0002A2A2A2A2A2A2A2A2A2A2A2A2A2A2A2A9E
:1002C0002A2A2A2A2A2A2A2A2A2A2A2A2A2A2A2A8E
:1002D0002A2A2A2A2A0A0054696D65206973200097
:1002E000537769746368696E672072656C617973AE
:1002F000206F66662E2E2E0A0053657474696E6731
:100300002074696D657273206F66662E2E2E0A004A
:10031000476F696E6720746F20736C6565702E2E51
:100320002E0A002E2E2E0A00743D00207261697381
:1003300065642E2E2E0A00416C61726D20002A2AFF
:100340002A2A2A2A2A2A2A2A2A2A2A2A2A2A2A2A0D
:100350002A2A2A2A2A2A2A2A2A2A2A2A2A2A2A2AFD
:100360002A2A2A2A2A2A2A2A2A0A0020726169733A
:1003700065642E2E2E0A00416C61726D20002E2EB7
:100380002E0A00743D000A2A2A2A2A2A2A2A2A2A00
:100390002A2A2A2A2A2A2A2A2A2A2A2A2A2A2A2ABD
:1003A0002A2A2A2A2A2A2A2A2A2A2A2A2A2A2A2AAD
:1003B0002A2A0A00206973206E6F742061207661FA
:1003C0006C696420636F6D6D616E640A00576172C1
:1003D0006E696E6720000A2A2A2A2A2A2A2A2A2ACD
:1003E0002A2A2A2A2A2A2A2A2A2A2A2A2A2A2A2A6D
:1003F0002A2A2A2A2A2A2A2A2A2A2A2A2A2A2A2A5D
:100400002A2A0A000A2A2A2A2A2A2A2A2A2A2A2AB6
:100410002A2A2A2A2A2A2A2A2A2A2A2A2A2A2A2A3C
:100420002A2A2A2A2A2A2A2A2A2A2A2A2A2A2A2A2C
:100430000A000A2A2A2A2A2A2A2A2A2A2A2A2A2A86
:100440002A2A2A2A2A2A2A2A2A2A2A2A2A2A2A2A0C
:100450002A2A2A2A2A2A2A2A2A2A2A2A2A2A0A0046
:100460000A0020796561726C79207265706561742B
:1004700061626C6520002F002F00206973206E6F71
:1004800077200020486F6C7964617920000A2A2A5D
:100490002A2A2A2A2A2A2A2A2A2A2A2A2A2A2A2ABC
:1004A0002A2A2A2A2A2A2A2A2A2A2A2A2A2A2A2AAC
:1004B0002A2A2A2A2A2A2A2A2A0A000A2A2A2A2A06
:1004C0002A2A2A2A2A2A2A2A2A2A2A2A2A2A2A2A8C
:1004D0002A2A2A2A2A2A2A2A2A2A2A2A2A2A2A2A7C
:1004E0002A2A2A2A2A2A2A0A000A2A2A2A2A2A2AD6
:1004F0002A2A2A2A2A2A2A2A2A2A2A2A2A2A2A2A5C
:100500002A2A2A2A2A2A2A2A2A2A2A2A2A2A2A2A4B
:100510002A2A2A2A2A0A002061726520736574201B
:10052000746F20005765656B6C79204461796F6644
:10053000667320666F7220616C61726D000A2A2AF0
:100540002A2A2A2A2A2A2A2A2A2A2A2A2A2A2A2A0B
:100550002A2A2A2A2A2A2A2A2A2A2A2A2A2A2A2AFB
:100560002A2A2A2A2A2A2A2A2A0A000A2A2A2A2A55
:100570002A2A2A2A2A2A2A2A2A2A2A2A2A2A2A2ADB
:100580002A2A2A2A2A2A2A2A2A2A2A2A2A2A2A2ACB
:100590002A2A2A2A2A2A2A0A00446F6E6520696EAE
:1005A000697469616C697A696E670A00496E697479
:1005B00069616C697A696E6720416C6C20616C615D
:1005C000726D730A000A2A2A2A2A2A2A2A2A2A2A21
:1005D0002A2A2A2A2A2A2A2A2A2A2A2A2A2A2A2A7B
:1005E0002A2A2A2A2A2A2A2A2A2A2A2A2A2A2A2A6B
:1005F0002A0A000A2A2A2A2A2A2A2A2A2A2A2A2AC5
:100600002A2A2A2A2A2A2A2A2A2A2A2A2A2A2A2A4A
:100610002A2A2A2A2A2A2A2A2A2A2A2A2A2A2A0A5A
:100620000020202020202020202020203D2D3D2D96
:100630003D2D3D2D3D2D3D2D3D2D3D2D3D202020A1
:100640002020202020202020202020200A002020E0
:100650002020202020202020203D2D3D2D3D2D3DFF
:100660002D3D2D3D2D3D2D3D2D3D202020202020B8
:100670002020202020202020200A002020202020B0
:100680002020202020203D2D3D2D3D2D3D2D3D2D98
:100690003D2D3D2D3D2D3D202020202020202020BF
:1006A0002020202020200A000A0020526570656169
:1006B0007461626C653D002052656C61793D00207B
:1006C00054696D652E204163746976653D0020692B
:1006D000732054696D6572204F666620000A002001
:1006E00052657065617461626C653D002052656C95
:1006F00061793D002054696D652E204163746976EF
:10070000653D002069732054696D6572204F6E202D
:10071000000A002052616E646F6D3D002054696DC7
:1007200065723D002054696D652E204163746976C1
:10073000653D0020697320416C61726D20000A2ABA
:100740002A2A2A2A2A2A2A2A2A2A2A2A2A2A2A2A09
:100750002A2A2A2A2A2A2A2A2A2A2A2A2A2A2A2AF9
:100760002A2A2A2A2A2A2A2A2A2A0A000A2A2A2A53
:100770002A2A2A2A2A2A2A2A2A2A2A2A2A2A2A2AD9
:100780002A2A2A2A2A2A2A2A2A2A2A2A2A2A2A2AC9
:100790002A2A2A2A2A2A2A2A0A000A00202043680A
:1007A000616E67656420746F20005D2050696E2063
:1007B000002052656C6179436F6E74726F6C5B00E0
:1007C0000A2A2A2A2A2A2A2A2A2A2A2A2A2A2A2AA9
:1007D0002A2A2A2A2A2A2A2A2A2A2A2A2A2A2A2A79
:1007E0002A2A2A2A2A2A2A2A2A2A2A2A0A000A2AD3
:1007F0002A2A2A2A2A2A2A2A2A2A2A2A2A2A2A2A59
:100800002A2A2A2A2A2A2A2A2A2A2A2A2A2A2A2A48
:100810002A2A2A2A2A2A2A2A2A2A0A000A002053AD
:1008200061766564206F6E20454550524F4D2061C2
:1008300064647265737320002052616E646F6D3D55
:1008400000204F6E2054696D65723D002041637435
:100850006976653D002053657420746F2000204147
:100860006C61726D20000A2A2A2A2A2A2A2A2A2A38
:100870002A2A2A2A2A2A2A2A2A2A2A2A2A2A2A2AD8
:100880002A2A2A2A2A2A2A2A2A2A2A2A2A2A2A2AC8
:100890002A2A0A000A2A2A2A2A2A2A2A2A2A2A2A22
:1008A0002A2A2A2A2A2A2A2A2A2A2A2A2A2A2A2AA8
:1008B0002A2A2A2A2A2A2A2A2A2A2A2A2A2A2A2A98
:1008C0000A000A00205361766564206F6E2045455A
:1008D00050524F4D20616464726573732000205242
:1008E000616E646F6D3D00204F6E2054696D6572BE
:1008F0003D00204163746976653D00205365742096
:10090000746F20002054696D6572204F6666200068
:100910000A2A2A2A2A2A2A2A2A2A2A2A2A2A2A2A57
:100920002A2A2A2A2A2A2A2A2A2A2A2A2A2A2A2A27
:100930002A2A2A2A2A2A2A2A2A2A2A2A0A000A2A81
:100940002A2A2A2A2A2A2A2A2A2A2A2A2A2A2A2A07
:100950002A2A2A2A2A2A2A2A2A2A2A2A2A2A2A2AF7
:100960002A2A2A2A2A2A2A2A2A2A0A000A2A2A2A51
:100970002A2A2A2A2A2A2A2A2A2A2A2A2A2A2A2AD7
:100980002A2A2A2A2A2A2A2A2A2A2A2A2A2A2A2AC7
:100990002A2A2A2A2A2A2A2A0A000A2A2A2A2A2A21
:1009A0002A2A2A2A2A2A2A2A2A2A2A2A2A2A2A2AA7
:1009B0002A2A2A2A2A2A2A2A2A2A2A2A2A2A2A2A97
:1009C0002A2A2A2A2A2A0A000A0020536176656404
:1009D000206F6E20454550524F4D20616464726512
:1009E000737320002052616E646F6D3D00204F6E66
:1009F0002054696D65723D00204163746976653DE0
:100A0000002053657420746F200020416C61726D6A
:100A100020000A2A2A2A2A2A2A2A2A2A2A2A2A2A8A
:100A20002A2A2A2A2A2A2A2A2A2A2A2A2A2A2A2A26
:100A30002A2A2A2A2A2A2A2A2A2A2A2A2A2A0A0060
:100A40000A2A2A2A2A2A2A2A2A2A2A2A2A2A2A2A26
:100A50002A2A2A2A2A2A2A2A2A2A2A2A2A2A2A2AF6
:100A60002A2A2A2A2A2A2A2A2A2A2A2A0A000A007A
:100A7000205361766564206F6E20454550524F4D7E
:100A80002061646472657373200020526570656133
:100A90007461626C653D002052656C61793D002097
:100AA0004163746976653D002053657420746F203E
:100AB000002054696D6572204F666620000A2A2A5C
:100AC0002A2A2A2A2A2A2A2A2A2A2A2A2A2A2A2A86
:100AD0002A2A2A2A2A2A2A2A2A2A2A2A2A2A2A2A76
:100AE0002A2A2A2A2A2A2A2A2A0A000A2A2A2A2AD0
:100AF0002A2A2A2A2A2A2A2A2A2A2A2A2A2A2A2A56
:100B00002A2A2A2A2A2A2A2A2A2A2A2A2A2A2A2A45
:100B10002A2A2A2A2A2A2A0A000A002053617665EC
:100B200064206F6E20454550524F4D2061646472C1
:100B300065737320002052657065617461626C6535
:100B40003D002052656C61793D00204163746976F7
:100B5000653D002053657420746F20002054696D3A
:100B60006572204F6E20000A2A2A2A2A2A2A2A2A57
:100B70002A2A2A2A2A2A2A2A2A2A2A2A2A2A2A2AD5
:100B80002A2A2A2A2A2A2A2A2A2A2A2A2A2A2A2AC5
:100B90002A2A2A0A000A005254432054696D65200B
:100BA00053657420746F20000A00202D20000A0075
:100BB00054696D65206973200054696D6520536127
:100BC0007665640A000000000800020100000304CA
:100BD0000700000000000000004572724A616E4686
:100BE00065624D61724170724D61794A756E4A75E8
:100BF0006C4175675365704F63744E6F76446563DF
:100C0000002068617320446179206F666620746FEC
:100C10006461792C207363686564756C696E672004
:100C2000697420746F20746F6D6F72726F770A0031
:100C3000416C61726D20000A2A2A2A2A2A2A2A2A4D
:100C40002A2A2A2A2A2A2A2A2A2A2A2A2A2A2A2A04
:100C50002A2A2A2A2A2A2A2A2A2A2A2A2A2A2A2AF4
:100C60002A2A2A0A00546F64617920697320616E10
:100C7000207363686564756C656420686F6C796463
:100C800061792C20676F696E6720746F20736C65C3
:100C900065702E2E2E0A000A2A2A2A2A2A2A2A2A91
:100CA0002A2A2A2A2A2A2A2A2A2A2A2A2A2A2A2AA4
:100CB0002A2A2A2A2A2A2A2A2A2A2A2A2A2A2A2A94
:100CC0002A2A2A0A000A2A2A2A2A2A2A2A2A2A2AEE
:100CD0002A2A2A2A2A2A2A2A2A2A2A2A2A2A2A2A74
:100CE0002A2A2A2A2A2A2A2A2A2A2A2A2A2A2A2A64
:100CF0002A0A0054696D65206973200057616B6989
:100D00006E672075702E2E2E0A0020726169736541
:100D1000642E2E2E0A00416C61726D20002D2D2D47
:100D20002D2D2D2D2D2D2D2D3D3D3D3D3D3D3D3D73
:100D30003D3D3D204177616B696E67203D3D3D3D06
:100D40003D3D3D3D3D3D3D2D2D2D2D2D2D2D2D2D63
:100D50002D2D0A000A002052616E646F6D3D002047
:100D600054696D65723D002054696D652E204163A4
:100D7000746976653D0020416C61726D20000A0047
:100D80002052657065617461626C653D002052653A
:100D90006C61793D002054696D652E204163746952
:100DA00076653D002054696D6572204F6E20000A03
:100DB000002052657065617461626C653D0020526F
:100DC000656C61793D002054696D652E2041637426
:100DD0006976653D002054696D6572204F66662016
:100DE000000A002061726520005765656B6C7920F0
:100DF0004461794F666673206F6620416C61726D45
:100E00002000202879792F6D6D2F6464290A002035
:100E1000796561726C792072657065617461626C6C
:100E20006520002F002F00206973200020486F6C80
:100E300079646179200020454550524F4D2068610A
:100E400073206265656E20696E697469616C697A88
:100E500065640A0000000000250028002B00000047
:100E60000000240027002A000404040404040404ED
:100E70000202020202020303030303030102040845
:100E800010204080010204081020010204081020F4
:100E9000952711241FBECFEFD8E0DEBFCDBF26E0DF
:100EA000AEEAB3E001C01D92AF36B207E1F713E03E
:100EB000A0E0B1E0E0E6F7E502C005900D92AE3AA1
:100EC000B107D9F717E0C9E4D7E004C02197FE01C4
:100ED0000E946E29C834D107C9F70E947B180C9470
:100EE000AE2B0C940000CF92DF92EF92FF920F9303
:100EF0001F93CF93DF936C017A018B01C0E0D0E0A8
:100F0000CE15DF0589F0D8016D918D01D601ED91E7
:100F1000FC910190F081E02DC6010995892B11F417
:100F20007E0102C02196ECCFC701DF91CF911F91C6
:100F30000F91FF90EF90DF90CF900895FC01538DBB
:100F4000448D252F30E0842F90E0821B930B5417A3
:100F500010F0CF96089501970895FC01918D828D30
:100F6000981761F0828DDF01A80FB11D5D968C91FD
:100F7000928D9F5F9F73928F90E008958FEF9FEF08
:100F80000895FC01918D828D981731F0828DE80FC4
:100F9000F11D858D90E008958FEF9FEF0895FC017E
:100FA000918D228D892F90E0805C9F4F821B91094B
:100FB0008F73992708958CE695E00E94CF0721E072
:100FC000892B09F420E0822F0895FC01848DDF0134
:100FD000A80FB11DA35ABF4F2C91848D90E00196AC
:100FE0008F739927848FA689B7892C93A089B1899B
:100FF0008C9180648C93938D848D981306C00288A5
:10100000F389E02D80818F7D80830895EF92FF9298
:101010000F931F93CF93DF93EC0181E0888F9B8D1B
:101020008C8D981305C0E889F989808185FD24C0DD
:10103000F62E0B8D10E00F5F1F4F0F731127E02E60
:101040008C8DE8120CC00FB607FCFACFE889F9893D
:10105000808185FFF5CFCE010E94E507F1CF8B8D12
:10106000FE01E80FF11DE35AFF4FF0820B8FEA8972
:10107000FB898081806207C0EE89FF896083E889EF
:10108000F98980818064808381E090E0DF91CF9155
:101090001F910F91FF90EF900895CF93DF93EC0194
:1010A000888D8823C9F0EA89FB89808185FD05C088
:1010B000A889B9898C9186FD0FC00FB607FCF5CFC2
:1010C000808185FFF2CFA889B9898C9185FFEDCF0A
:1010D000CE010E94E507E7CFDF91CF91089580E030
:1010E00090E0892B29F00E94DB0781110C9400000D
:1010F00008953FB7F8948091F4049091F504A0917D
:10110000F604B091F70426B5A89B05C02F3F19F04F
:101110000196A11DB11D3FBFBA2FA92F982F882777
:10112000820F911DA11DB11DBC01CD0142E0660FD2
:10113000771F881F991F4A95D1F7089585ED8093F1
:10114000BC008091BC0084FDFCCF10920B0608957A
:101150004091CA04262F30E0240F311D2132310581
:10116000DCF420910B062430C9F4FC0180E090E00F
:10117000861758F43091CA042191DC01A855BB4F61
:10118000A30FB11D2C930196F3CF8091CA04680F71
:101190006093CA0480E0089581E0089582E0089594
:1011A0000895E0910F0680910E06E81730F4F0E004
:1011B000EA5FFA4F808190E008958FEF9FEF0895E6
:1011C00090910F0680910E06981750F4E92FF0E0E9
:1011D000EA5FFA4F208130E09F5F90930F0602C0D4
:1011E0002FEF3FEFC901089580910E0690E0209106
:1011F0000F06821B91090895CF92DF92EF92FF9222
:101200000F931F93CF93DF937C01262F972F8A0193
:1012100080914A05882391F0C62FD72F6E01C40E06
:10122000D51ECC15DD0571F06991D701ED91FC91CA
:101230000190F081E02DC7010995F3CF642F822F33
:101240000E94A808C801DF91CF911F910F91FF90D4
:10125000EF90DF90CF900895CF93DF931F92CDB79B
:10126000DEB7698320914A052223D1F020910C0634
:10127000203240F021E030E0FC013383228380E023
:1012800090E015C080910D06E82FF0E0E55BFA4F85
:10129000998190838F5F80930D0680930C0605C023
:1012A00061E0CE0101960E94A80881E090E00F90D5
:1012B000DF91CF910895089580E090E00895982FF0
:1012C00092959F702AEF929F800D112408950E949D
:1012D0006B2BEF92FF920F931F93CF93DF93EC0151
:1012E0007B018A0188819981009729F02A813B81BD
:1012F00024173507F8F4B8016F5F7F4F0E94A12AC9
:10130000009759F0998388831B830A832C813D8140
:10131000232B81F4FC0110820DC0888199810097F4
:1013200011F00E94092A198218821D821C821B82D8
:101330001A8207C01D830C83B701888199810E949E
:101340008D2BCE01DF91CF911F910F91FF90EF90E8
:101350000895AF92BF92CF92DF92EF92FF920F93D8
:101360001F93CF93DF93FC0124813581FB014481DE
:1013700055818901041B150B4115510551F12115AA
:10138000310539F12417350720F10217130718F03A
:101390008901015011097B01FC01A080B180C501C8
:1013A000DFEFCFEF6501C00ED11EC816D906A0F041
:1013B000F701608171810E94942B009769F09C0174
:1013C0002A193B090217130710F0D22FC32F0196D9
:1013D000ECCF8FEF9FEF02C08D2F9C2FDF91CF912D
:1013E0001F910F91FF90EF90DF90CF90BF90AF9043
:1013F0000895CF93DF93EC016115710559F0FB015E
:1014000001900020E9F73197AF01461B570B0E946E
:1014100069090CC088819981009711F00E94092AFE
:10142000198218821D821C821B821A82CE01DF91D2
:10143000CF910895FC01808191810C94092AFC01CF
:101440001182108213821282158214826115710535
:1014500051F0FB0101900020E9F73197AF01461BE5
:10146000570B0C9469090895DC01ED91FC910190F2
:10147000F081E02D09946115710579F0FB0101906F
:101480000020E9F73197AF01461B570BDC01ED91C6
:10149000FC910280F381E02D099480E090E00895B2
:1014A0000C943B0A1F920F920FB60F9211242F93A8
:1014B0003F934F935F936F937F938F939F93AF93DC
:1014C000BF93EF93FF938CE695E00E94E507FF91B1
:1014D000EF91BF91AF919F918F917F916F915F91AC
:1014E0004F913F912F910F900FBE0F901F90189525
:1014F0001F920F920FB60F9211242F938F939F93E9
:10150000EF93FF93E0917C05F0917D058081E09160
:101510008205F091830582FD12C09081809185053E
:101520008F5F8F7320918605821751F0E0918505BA
:10153000F0E0E459FA4F958F8093850501C08081D2
:10154000FF91EF919F918F912F910F900FBE0F9070
:101550001F90189590E0FC01EB53F44F3491FC017F
:10156000E458F14F2491FC01E859F14FE491EE2346
:1015700009F43BC0332339F1333091F038F4313082
:10158000A9F0323001F584B58F7D12C0373091F06B
:101590003830A1F03430B9F4809180008F7D03C0E1
:1015A000809180008F77809380000DC084B58F7705
:1015B00084BD09C08091B0008F7703C08091B000D6
:1015C0008F7D8093B000F0E0EE0FFF1FEC5AF14FDB
:1015D000A591B4918FB7F894EC91611103C0209557
:1015E0002E2301C02E2B2C938FBF08958F929F9294
:1015F000AF92BF92CF92DF92EF92FF926B017C018C
:101600000E9479084B015C01C114D104E104F1048A
:10161000F1F00E947908DC01CB0188199909AA0927
:10162000BB09883E9340A105B10570F321E0C21AC1
:10163000D108E108F10888EE880E83E0981EA11C0D
:10164000B11CC114D104E104F10419F7DDCFFF90FE
:10165000EF90DF90CF90BF90AF909F908F900895C4
:101660002FB7F8946091F0047091F1048091F20426
:101670009091F3042FBF08951F920F920FB60F920F
:1016800011242F933F938F939F93AF93BF93809198
:10169000F0049091F104A091F204B091F304309120
:1016A000EF0423E0230F2D3720F40196A11DB11D77
:1016B00005C026E8230F0296A11DB11D2093EF045B
:1016C0008093F0049093F104A093F204B093F30498
:1016D0008091F4049091F504A091F604B091F70480
:1016E0000196A11DB11D8093F4049093F504A0937D
:1016F000F604B093F704BF91AF919F918F913F9102
:101700002F910F900FBE0F901F9018951F920F9260
:101710000FB60F9211242F933F934F935F936F93C4
:101720007F938F939F93AF93BF93EF93FF9380919A
:10173000B900887F803609F49CC068F5883209F4C6
:101740005BC090F4803109F454C038F4882309F464
:10175000F6C0883009F44DC0F6C0883109F44CC099
:10176000803209F45DC0EFC0803409F468C048F4E9
:10177000803309F455C0883309F0E5C080934905EA
:10178000D8C0803509F44FC0883509F45DC088346D
:1017900009F0D9C0D6C0883909F4C7C0A8F4883781
:1017A00009F467C038F4883609F463C0803709F457
:1017B00060C0C9C0883809F4B8C0803909F45FC076
:1017C000803809F0C0C05BC0803B09F486C038F4A3
:1017D000803A09F466C0883A09F47FC0B4C0803CFE
:1017E00009F4A7C0883C09F4A4C0883B09F48AC066
:1017F000AAC08091260510C09091480580914705A8
:10180000981770F5E091480581E08E0F80934805A8
:10181000F0E0E95DFA4F80818093BB0085EC86C0E3
:10182000809349058EC0E091480581E08E0F80933A
:1018300048058091BB00F0E0E95DFA4F808390910C
:101840004805809147056EC0E091480581E08E0F04
:10185000809348058091BB00F0E0E95DFA4F8083FA
:1018600080910A0681116DC081E08093090684EAA7
:1018700061C083E080930B061092EE04CFCF80917D
:10188000EE04803208F051C0E091EE0481E08E0F4A
:101890008093EE048091BB00F0E0E253FB4F808325
:1018A000BDCF85EC8093BC0010920B068091EE04B6
:1018B000803230F4E091EE04F0E0E253FB4F10820E
:1018C0006091EE0470E0E091CC04F091CD048EECD8
:1018D00094E009951092EE0436C084E080930B06E4
:1018E0001092CB041092CA04E091C804F091C9048C
:1018F00009958091CA04811105C081E08093CA04D2
:101900001092A804E091CB0481E08E0F8093CB0469
:10191000F0E0E855FB4F80818093BB009091CB04B1
:101920008091CA04981708F479CF85E88093BC00A9
:101930000AC085EC8093BC0010920B0604C0109284
:1019400049050E949E08FF91EF91BF91AF919F9131
:101950008F917F916F915F914F913F912F910F9058
:101960000FBE0F901F9018956093B2037093B3034E
:101970008093B4039093B503DC01CB01845D9E4F4B
:10198000AF4FBF4F8093AE039093AF03A093B003CC
:10199000B093B10382E090E09093B9038093B803D1
:1019A0000E94300B6093A3047093A4048093A50459
:1019B0009093A6040895CF92DF92EF92FF920F9337
:1019C0001F930E94300BC090A304D090A404E09019
:1019D000A504F090A6048B019C010C191D092E0989
:1019E0003F098091B2039091B303A091B403B091E9
:1019F000B503083E134021053105D0F00196A11D25
:101A0000B11D8093B2039093B303A093B403B0933A
:101A1000B503B701A60148515C4F6F4F7F4F40930C
:101A2000A3045093A4046093A5047093A604C9CFA3
:101A30004091AE035091AF036091B0037091B10338
:101A400084179507A607B70788F1E091B603F091D0
:101A5000B703309759F10995611571058105910515
:101A600019F00E94B40C22C08091B2039091B3038C
:101A7000A091B403B091B503845D9E4FAF4FBF4FAB
:101A80008093AE039093AF03A093B003B093B103E0
:101A900081E090E02091B8033091B903232B11F439
:101AA00080E090E09093B9038093B8036091B20313
:101AB0007091B3038091B4039091B5031F910F917E
:101AC000FF90EF90DF90CF9008956F927F928F926A
:101AD0009F92AF92BF92CF92DF92EF92FF920F93BD
:101AE0001F93CF93DF93EC01EE81AE2FB0E020E89F
:101AF00033E341EE51E00E94BF284B015C0122EB31
:101B000037E0FD0104E610E080E9E82EFF24F394BD
:101B1000C901825B97408E179F07DCF4C90183706F
:101B20009927892B99F4C901B8010E941C29892B96
:101B300031F4C901B7010E941C29892B39F480E8CE
:101B4000880E81E5981E81E0A81EB11C2F5F3F4FD3
:101B5000DFCF6D80712CEE54F84FCF0164E670E05A
:101B60000E941C297C01CF0160E971E00E941C29C0
:101B70006C0101E010E0E370FF27061517052CF556
:101B80000230110581F4309771F4E114F10419F475
:101B9000C114D10441F480E8880E8BE3981E86E2DC
:101BA000A81EB11C0FC0D801A35ABD4FAC91B0E024
:101BB00020E831E541E050E00E94BF28860E971EE4
:101BC000A81EB91E0F5F1F4FD8CF49812A8130E070
:101BD000A0E1BEE00E9401296B017C01242F30E0CE
:101BE000ACE3B0E00E940129DC01CB018C0D9D1D0E
:101BF000AE1DBF1D28816C017D01C20ED11CE11CF0
:101C0000F11CAC81B0E0119720E831E541E050E0F3
:101C10000E945229DC01CB018C0D9D1DAE1DBF1D04
:101C2000BC01CD01680D791D8A1D9B1DDF91CF91EF
:101C30001F910F91FF90EF90DF90CF90BF90AF90EA
:101C40009F908F907F906F900895CF93DF93CDB743
:101C5000DEB727970FB6F894DEBF0FBECDBF81E089
:101C600080934A0588E680936B0510920D061092CA
:101C70000C0660E080E196E00E942C0981E00E9461
:101C8000BB17882331F08093A70460E070E0CB019C
:101C90003FC067E088E60E94181810920F068093F4
:101CA0000E0680E196E00E94E0088F770E945F09AF
:101CB000898380E196E00E94E0080E945F098A83A0
:101CC00080E196E00E94E0088F7B0E945F098B8391
:101CD00080E196E00E94E0088C8380E196E00E941B
:101CE000E0080E945F098D8380E196E00E94E00891
:101CF0008F770E945F098E8380E196E00E94E00862
:101D00000E945F09825E8F83CE0101960E94650D5D
:101D100027960FB6F894DEBF0FBECDBFDF91CF91EF
:101D20000895CF92DF92EF92FF920F931F93CF937C
:101D3000DF93EB017B012AE0E20EF11C8B016C01C9
:101D4000C61AD70AC601800F911F0E94A928F80160
:101D500081938F01EE15FF05A9F7CE01DF91CF9199
:101D60001F910F91FF90EF90DF90CF900895CF9249
:101D7000DF92EF92FF920F931F93CF93DF93EB01CC
:101D80007B0124E0E20EF11C8B016C01C61AD70A1C
:101D9000C601800F911F0E94A928F80181938F012D
:101DA000EE15FF05A9F7CE01DF91CF911F910F919D
:101DB000FF90EF90DF90CF9008956F927F928F9277
:101DC0009F92AF92BF92CF92DF92EF92FF920F93CA
:101DD0001F93CF93DF93EA012CE3C22ED12CE12C89
:101DE000F12CA70196010E9430296883CA01B9012C
:101DF000A70196010E9430296983CA01B90128E12F
:101E000030E040E050E00E94302969017A016A83A5
:101E1000CA01B9016C5F7F4F8F4F9F4F27E030E0C1
:101E200040E050E00E9430296F5F6B83812C912C41
:101E3000540140E034E6632E712C00E911E0242FB8
:101E400030E02E54384FF901E370FF27309789F4C2
:101E5000C901B3010E941C29892B31F4C901B801C1
:101E60000E941C29892B29F48EE691E0A0E0B0E0C5
:101E700004C08DE691E0A0E0B0E0880E991EAA1E95
:101E8000BB1ED501C401AA27BB27C816D906EA067E
:101E9000FB0610F04F5FD3CF4E83309799F4C90102
:101EA00064E670E00E941C29892B39F4C90160E9BD
:101EB00071E00E941C29892B29F48EE691E0A0E0B4
:101EC000B0E004C08DE691E0A0E0B0E0881A990A85
:101ED000AA0ABB0AC818D908EA08FB08C90164E6BF
:101EE00070E00E941C298C01C90160E971E00E9428
:101EF0001C29AEE5B2E020E0213041F4309751F4E6
:101F00000115110529F4009729F402C04C9103C072
:101F10004DE101C04CE150E060E070E0C416D50630
:101F2000E606F70640F0C41AD50AE60AF70A2F5F5C
:101F300011962C3009F72F5F2D83C394CC82DF914B
:101F4000CF911F910F91FF90EF90DF90CF90BF90B6
:101F5000AF909F908F907F906F900895CF92DF9277
:101F6000EF92FF92C0900205D0900305E090040527
:101F7000F09005056C157D058E059F0571F06B01D0
:101F80007C014AE154E00E94DD0EC0920205D0922D
:101F90000305E0920405F0920505FF90EF90DF90B5
:101FA000CF900895CF93DF93EB010E94A9288883F7
:101FB000CE01DF91CF910895BF92CF92DF92EF9241
:101FC000FF920F931F93CF93DF9301E214E08AE512
:101FD000E82EFF24F394C0E0B801C7010E94B70EB9
:101FE00084E0E80EF11C97012F5D3B4FF901EB55A2
:101FF000F140D081F801D080F901ED55F140C08069
:102000003196B0808CE29EE00E9463178C2F0E9474
:10201000841787E29EE00E9463178B2D0E9484172D
:1020200085E29EE00E9463178C2D0E94841783E254
:102030009EE00E9463178D2D0E9484178FE09EE022
:102040000E9463178D2F90E00E948B1782E09EE024
:102050000E946317CF5F0C5F1F4FCE3109F0BCCFDA
:10206000DF91CF911F910F91FF90EF90DF90CF9074
:10207000BF900895EF92FF920F931F93CF93DF933A
:10208000C82F89EE9DE00E9463178C2F0E94841751
:1020900083EE9DE00E94631784E9E82E82E0F82E2B
:1020A00000E810E0D0E0C756DB4F8881802319F0AC
:1020B000F701608101C06FE58CE695E00E94340A6B
:1020C0001F5F0695FFEFEF1AFF0A183071F781EED8
:1020D0009DE0DF91CF911F910F91FF90EF900C94B5
:1020E0006317CF92DF92FF920F931F93CF93DF93EB
:1020F00089E9C82E84E0D82E8601C2E5D1E0F02E11
:10210000FC18CE010E94A928F80181938F01219625
:102110008F2D0E943A10CA35F1E0DF0781F7DF9179
:10212000CF911F910F91FF90DF90CF900895CF92A4
:10213000DF92EF92FF92CF93DF9300D000D000D0D8
:10214000CDB7DEB76B017C010E94AE0F80911C04FD
:1021500090E0A0E0B0E089839A83AB83BC838AE0FF
:1021600090E09E838D83C701B6010E94AE0F8091DF
:102170001C0490E00A971CF060E972E002C06BEA70
:1021800073E08CE695E00E94500ACE0101960E9411
:102190002A176AE30E94340AC701B6010E94AE0FF3
:1021A00080911B0490E0A0E0B0E089839A83AB8328
:1021B000BC838AE090E09E838D83C701B6010E94B4
:1021C000AE0F80911B0490E00A971CF060E972E06A
:1021D00002C06BEA73E08CE695E00E94500ACE01E3
:1021E00001960E942A176AE30E94340AC701B601C9
:1021F0000E94AE0F80911A0490E0A0E0B0E08983C5
:102200009A83AB83BC838AE090E09E838D83C70171
:10221000B6010E94AE0F80911A0490E00A971CF05C
:1022200060E972E002C06BEA73E08CE695E00E9420
:10223000500ACE0101960E942A1726960FB6F894EE
:10224000DEBF0FBECDBFDF91CF91FF90EF90DF904B
:10225000CF900895CF92DF92EF92FF92CF93DF93CA
:1022600000D000D000D0CDB7DEB76B017C010E945A
:10227000AE0F80911E0490E0A0E0B0E089839A83C5
:10228000AB83BC838AE090E09E838D83C701B60157
:102290000E94AE0F80911E0490E00A971CF060E946
:1022A00072E002C06BEA73E08CE695E00E94500A8F
:1022B000CE0101960E942A176BE972E00E94500A33
:1022C000C701B6010E94AE0F8091200490E08E54A9
:1022D000984F092E000CAA0BBB0B89839A83AB8302
:1022E000BC838AE090E09E838D83C701B6010E9483
:1022F000AE0F20911F0483E0289F90011124A8EFC6
:10230000B4E080E090E0FC01E20FF31FE752F44FED
:10231000E491ED93019683309105A9F71092FB04A7
:1023200068EF74E08CE695E00E94500A6BE972E079
:102330008CE695E00E94500ACE0101960E942A1771
:1023400060E20E94340AC701B6010E94AE0F80917C
:102350001C0490E0A0E0B0E089839A83AB83BC8347
:102360008AE090E09E838D83C701B6010E94AE0F84
:1023700080911C0490E00A971CF060E972E002C0B2
:102380006BEA73E08CE695E00E94500ACE0101965C
:102390000E942A176AE30E94340AC701B6010E940C
:1023A000AE0F80911B0490E0A0E0B0E089839A8397
:1023B000AB83BC838AE090E09E838D83C701B60126
:1023C0000E94AE0F80911B0490E00A971CF060E918
:1023D00072E002C06BEA73E08CE695E00E94500A5E
:1023E000CE0101960E942A176AE30E94340AC701AF
:1023F000B6010E94AE0F80911A0490E0A0E0B0E018
:1024000089839A83AB83BC838AE090E09E838D832B
:10241000C701B6010E94AE0F80911A0490E00A979E
:102420001CF060E972E002C06BEA73E08CE695E0B4
:102430000E94500ACE0101960E942A1726960FB6D6
:10244000F894DEBF0FBECDBFDF91CF91FF90EF902C
:10245000DF90CF9008958F929F92AF92BF92CF92CC
:10246000DF92EF92FF921F93CF93DF93C0EAD1E008
:1024700010E080EAE82EF12CBE01C7010E94910E07
:102480008AE0E80EF11C6AE070E080E090E00E94D3
:10249000F60A6A817B818C819D810E942A11CE80FF
:1024A000DF80A884B9848880998085ED9DE00E94B2
:1024B0006317812F0E94841786EC9DE00E946317AA
:1024C000C4010E948B178EEB9DE00E946317C5012B
:1024D0000E948B1781EB9DE00E946317C6010E944A
:1024E0008B178FEA9DE00E9463171F5F2A961830B2
:1024F00019F6DF91CF911F91FF90EF90DF90CF9071
:10250000BF90AF909F908F9008958F929F92AF92BF
:10251000BF92CF92DF92EF92FF920F931F93CF93D0
:10252000DF93C0EFD1E0E12CF12C00E510E0BE011B
:10253000C8010E94910E065F1F4F6AE070E080E0C4
:1025400090E00E94F60A6A817B818C819D810E94C5
:102550002A11CE80DF80A884B9848880998084EA9B
:102560009DE00E946317C7010E948B1785E99DE0DB
:102570000E946317C4010E948B178DE89DE00E94A2
:102580006317C5010E948B1780E89DE00E946317C6
:10259000C6010E948B178EE79DE00E9463178FEFA4
:1025A000E81AF80A2A96003A110509F6DF91CF9148
:1025B0001F910F91FF90EF90DF90CF90BF90AF9061
:1025C0009F908F9008958F929F92AF92BF92CF92DB
:1025D000DF92EF92FF920F931F93CF93DF93C0E5AB
:1025E000D1E0E12CF12C00E010E0BE01C8010E9416
:1025F000910E065F1F4F6AE070E080E090E00E945D
:10260000F60A6A817B818C819D810E942A11CE808D
:10261000DF80A884B9848880998086E79DE00E9445
:102620006317C7010E948B1787E69DE00E9463171E
:10263000C4010E948B178FE59DE00E946317C501BE
:102640000E948B1786E59DE00E946317C6010E94D9
:102650008B1784E59DE00E9463178FEFE81AF80A54
:102660002A960035110509F6DF91CF911F910F9140
:10267000FF90EF90DF90CF90BF90AF909F908F90A2
:102680000895EF92FF920F931F93CF93DF931F92C2
:10269000CDB7DEB77C01FC0100811181C8016983DF
:1026A0000E94A9286981681719F0C8010E94B12801
:1026B000C7010F90DF91CF911F910F91FF90EF9085
:1026C0000895AF92BF92CF92DF92EF92FF920F9355
:1026D0001F93CF93DF9300D0CDB7DEB78B016B0193
:1026E00026E0C20ED11C7B015C01A61AB70A950137
:1026F0002E0D3F1DF70161917F013A832983CE01A1
:1027000001960E944113EC14FD0489F7C8010F9053
:102710000F90DF91CF911F910F91FF90EF90DF907D
:10272000CF90BF90AF9008950F931F93CF93DF93F7
:1027300000D0CDB7DEB78B01FB0160819A8389831E
:10274000CE0101960E944113C8010F900F90DF91B6
:10275000CF911F910F910895AF92BF92CF92DF92C8
:10276000EF92FF920F931F93CF93DF9300D0CDB7DB
:10277000DEB78B016B0124E0C20ED11C7B015C0132
:10278000A61AB70A95012E0D3F1DF70161917F0131
:102790003A832983CE0101960E944113EC14FD0473
:1027A00089F7C8010F900F90DF91CF911F910F9182
:1027B000FF90EF90DF90CF90BF90AF900895AF92D1
:1027C000BF92CF92DF92EF92FF920F931F93CF931E
:1027D000DF9300D0CDB7DEB78B016B012AE0C20ECC
:1027E000D11C7B015C01A61AB70A95012E0D3F1D75
:1027F000F70161917F013A832983CE0101960E94FE
:102800004113EC14FD0489F7C8010F900F90DF917C
:10281000CF911F910F91FF90EF90DF90CF90BF90DD
:10282000AF9008952F923F924F925F926F927F9256
:102830008F929F92AF92BF92CF92DF92EF92FF92D0
:102840000F931F93CF93DF93CDB7DEB72D970FB6BE
:10285000F894DEBF0FBECDBF64E972E0CE010896EA
:102860000E941F0A0E94DB0C2B013C010E94AE0F4C
:1028700080911C048B83C301B2010E94AE0F809132
:102880001B048A83C301B2010E94AE0F80911A0417
:10289000898321E2C22E24E0D22E04E214E0312CFE
:1028A0003AE5E32EFF24F394BB24B394B601C701A9
:1028B0000E94B70E44E0E40EF11CF80131978081CC
:1028C000F60190819D83F801329790819E83825E0C
:1028D0008F83CE0101960E94650D641575058605EE
:1028E0009705F9F48091A104811110C0C301B201D0
:1028F0000E942A1187E99CE00E94631785E69CE00C
:102900000E94631787E39CE00E946317F8018081AF
:10291000811105C0B082B601C7010E94AC133324F7
:102920003394F4E0CF0ED11C0C5F1F4F42EDE41640
:1029300041E0F40609F0BACFC301B2010E94AE0F24
:1029400080911F048E83C301B2010E94AE0F80915B
:102950001E048D83C301B2010E94AE0F809120043A
:102960008F8300E511E089E9A82E84E0B82EC12C00
:10297000D12C90E8892E912C2A2C89E994E0281AF0
:10298000F501F1905F01C301B2010E94AE0F2F2D3E
:1029900030E080911D048150A40102C055954795F7
:1029A0008A95E2F7CA0182239323892BE9F1C301B7
:1029B000B2010E94AE0FF0901F04F8016281738192
:1029C000848195810E94AE0F80911F04F8122CC063
:1029D000C301B2010E94AE0FF0901E04F8016281A3
:1029E0007381848195810E94AE0F80911E04F8123C
:1029F0001BC0C301B2010E94AE0FE0902004F12C75
:102A0000FEE4EF1AF8EFFF0AF80162817381848116
:102A100095810E94AE0F8091200490E08E54984FD3
:102A2000E816F90609F471C0FAE0CF0ED11C065F72
:102A30001F4F40E5C416D10409F09ECFCE01089681
:102A40000E941A0A31105DC08DE19DE00E9463175B
:102A500000E511E0F12CF801808591858336910520
:102A600009F044C080819181019709F03FC00E9424
:102A7000DB0CF80182809380A480B580DC01CB015F
:102A800088199909AA09BB094E97A105B10570F5E6
:102A900086E19DE00E9463178F2D0E9484178AE0D3
:102AA0009DE00E9463178CEF9CE00E94631783EF08
:102AB0009CE00E9463170E94DB0C0E94DB0C0E94CA
:102AC0002A111092A104F80182819381A481B58119
:102AD00080589E4AAE4FBF4F82839383A483B583B1
:102AE000B801C801805591400E94DF13F394065F3E
:102AF0001F4FF8E0FF12AFCF85EC9CE00E946317F8
:102B000041C081E08093A1043DC0F80162817381DE
:102B1000848195810E94AE0F80911C048B83F80103
:102B200062817381848195810E94AE0F80911B0424
:102B30008A83F80162817381848195810E94AE0F3E
:102B400080911A048983CE0101960E94650DDC01F3
:102B5000CB0180589E4AAE4FBF4FF80182839383CA
:102B6000A483B58380E39CE00E946317822D0E94BA
:102B7000841781E09CE00E946317B801C6010E949F
:102B8000DF1352CF2D960FB6F894DEBF0FBECDBF28
:102B9000DF91CF911F910F91FF90EF90DF90CF9039
:102BA000BF90AF909F908F907F906F905F904F906D
:102BB0003F902F9008958F929F92AF92BF92CF92A5
:102BC000DF92EF92FF920F931F93CF93DF9300D08A
:102BD000CDB7DEB7F0E5EF2EF1E0FF2E812CAAE7AE
:102BE0009A2EA9E4AA2EAAE5BA2E00E010E0F70179
:102BF0001182108282829382A482B5821782168209
:102C000011861086B701C8010E94DF13065F1F4FAF
:102C1000FAE0EF0EF11C8FEF881A980AA80AB80A9A
:102C20000035110521F770EFE72E71E0F72EEAE08D
:102C30008E2E912CA12CB12CF70111821082828250
:102C40009382A482B5821782168211861086B701FC
:102C5000C8010E94DF13065F1F4FFAE0EF0EF11C60
:102C6000003A110549F750EAE52E51E0F52E6AE0E9
:102C7000862E912CA12CB12CF70111821082828218
:102C80009382A482B5821782168211861086B701BC
:102C9000C8010E94DF13065F1F4FFAE0EF0EF11C20
:102CA000003F110549F74AEEE42E43E0F42EF70108
:102CB000118210821282138214821582B701C80118
:102CC0000E9461130A5F1F4FF6E0EF0EF11C003205
:102CD00081E0180761F73AEBE32E33E0F32EF701BA
:102CE000118210821282138214821582B701C801E8
:102CF0000E9461130A5F1F4FF6E0EF0EF11C0035D2
:102D000081E0180761F721E9E22E22E0F22EF701B7
:102D100061917F011A830983CE0101960E944113BC
:102D20000F5F1F4F0335F1E01F0789F799E9E92E7F
:102D300094E0F92E02E511E0F7011082B701C80115
:102D40000E9494130F5F1F4FFFEFEF1AFF0A0A351F
:102D500081E0180789F781E2C82E84E0D82EF12C93
:102D6000F601F082C8018F5D9B4FFC01E955F140EF
:102D700010823196108231961082B601C8010E94ED
:102D8000AC130C5F1F4FF394F4E0CF0ED11C8EE117
:102D9000F812E6CF86E39EE00E9463170E94E312DA
:102DA0000E9485120E942B120E9471100E94DC0F5B
:102DB0000F900F90DF91CF911F910F91FF90EF90A7
:102DC000DF90CF90BF90AF909F908F9008958F929B
:102DD0009F92AF92BF920F931F93CF93DF93CDB784
:102DE000DEB7A1970FB6F894DEBF0FBECDBF19A214
:102DF000423008F44AE08E010F5D1F4F842E912C63
:102E0000A12CB12CA50194010E943029E62FB90113
:102E1000CA0101501109EA3014F4E05D01C0E95C17
:102E2000D801EC93232B242B252B61F7B8018CE6DA
:102E300095E00E943B0AA1960FB6F894DEBF0FBE44
:102E4000CDBFDF91CF911F910F91BF90AF909F9019
:102E50008F900895CF92DF92EF92FF92FC01448110
:102E60005581C080D180E280F3804115510561F425
:102E7000E0916C05F0916D050190F081E02D6C2DD5
:102E80008CE695E0099518C04A30510589F4F7FEA3
:102E90000EC06DE28CE695E00E94340A6627772723
:102EA000CB016C197D098E099F094AE003C04AE0F5
:102EB000C701B6010E94E7168CE695E0FF90EF90FF
:102EC000DF90CF9008950F931F93CF93DF938C01E2
:102ED000C0E0D0E0F801EC0FFD1F6491662371F0B3
:102EE000E0916C05F0916D050190F081E02D8CE68C
:102EF00095E00995892B11F02196ECCFCE01DF9159
:102F0000CF911F910F910895682F70E080E090E0BD
:102F10004AE00C94E716CF92DF92EF92FF92CF93A4
:102F2000DF936C01990FEE08FF08F7FE19C06DE200
:102F30008CE695E00E94340AEC0166277727CB01E6
:102F40006C197D098E099F094AE00E94E7168C0FD3
:102F50009D1FDF91CF91FF90EF90DF90CF9008956C
:102F60004AE0C701B601DF91CF91FF90EF90DF906B
:102F7000CF900C94E716382F20910C0690916B059A
:102F8000213208F049C080910B068111FCCF42E04C
:102F900040930B0630930A063FEF30934905109299
:102FA000480520934705ABE4B5E047E255E0FA0158
:102FB0003E2F341B321718F43D913193F9CF109204
:102FC000260520912605990F922B90932605909126
:102FD0000906913061F410920906909126059093AC
:102FE000BB009091BC0093FDF8CF95EC01C095EE2D
:102FF0009093BC0090910B069230E1F390914905BB
:103000009F3F79F080914905803241F080914905D8
:10301000803331F084E005C081E003C082E001C06C
:1030200083E010920D0610920C0610924A05089546
:1030300090910B069111FCCF91E090930B06909329
:103040000A062FEF2093490510924805260F20937A
:1030500047059093260590912605880F892B80932C
:10306000260580910906813061F41092090680914D
:1030700026058093BB008091BC0083FDF8CF85ECD2
:1030800001C085EE8093BC0080910B068130E1F396
:1030900080914805861710F460914805A7E2B5E0D5
:1030A00026E035E0F9018E2F821B861718F48D91EA
:1030B0008193F9CF862F089590E0FC01E458F14FF9
:1030C0002491FC01E859F14F8491882399F090E014
:1030D000880F991FFC01E25AF14FA591B491FC01B0
:1030E000EC5AF14F859194918FB7F894EC91E22BC3
:1030F000EC938FBF0895CF93DF93CDB7DEB7CF5456
:10310000D1090FB6F894DEBF0FBECDBF789484B559
:10311000826084BD84B5816084BD85B5826085BDD3
:1031200085B5816085BD80916E00816080936E0061
:103130001092810080918100826080938100809153
:103140008100816080938100809180008160809304
:1031500080008091B10084608093B1008091B000C4
:1031600081608093B00080917A00846080937A00BF
:1031700080917A00826080937A0080917A008160E9
:1031800080937A0080917A00806880937A00109210
:10319000C10081E491E4A0E022968DAF9EAFAFAF75
:1031A00022978DE00E945C1887E00E945C1886E000
:1031B0000E945C1885E00E945C1884E00E945C1804
:1031C000E0917C05F0917D0582E08083E0917805B7
:1031D000F09179051082E0917A05F0917B0580E10C
:1031E000808310928405E0918005F091810586E04E
:1031F0008083E0917E05F0917F05808180618083EE
:10320000E0917E05F0917F05808188608083E09168
:103210007E05F0917F05808180688083E0917E0546
:10322000F0917F0580818F7D80830E94DB0CC090B0
:10323000B203D090B303E090B403F090B50325E25D
:103240003EE03093B7032093B603C092AE03D09212
:10325000AF03E092B003F092B103672B682B692BA8
:1032600029F40E94DB0CDD24D39403C00E94DB0C04
:10327000D12C0E94DB0C8091B8039091B903029786
:1032800059F08EED91E00E9463176EE872E08CE6D3
:1032900095E00E943B0A18C082EC91E00E946317FF
:1032A0006EE872E08CE695E00E943B0A89EB91E0C3
:1032B0000E9463170E94DB0C0E942A116FE872E0E3
:1032C0008CE695E00E94500ABE01615C7F4F80E56C
:1032D00091E00E94D20F6FE370E06C0F7D1F6F5F73
:1032E0007F4F81E591E00E94D20FBE01615C7F4F6C
:1032F000CE0101960E941F0A8D819E81892B49F083
:1033000061E972E089819A810E94842B11E0892B06
:1033100009F010E0CE0101960E941A0A112399F1DA
:10332000BE01615C7F4FCE0101960E941F0A80E0C2
:1033300090E00E948B1787EB91E00E9463174D810C
:103340005E8169817A818CE695E00E9473078AE943
:1033500091E00E946317CE0101960E941A0A83E849
:1033600091E00E9463170E94E3120E9485120E945E
:103370002B120E9471100E94DC0F2AEEE22E23E035
:10338000F22E10E003C00E94DB15F7CFD701129692
:103390006D917D918D919C9115970E942A11F70155
:1033A000A080B1808EE691E00E946317812F0E9479
:1033B00084178FE591E00E946317C5010E948B1767
:1033C0008DE591E00E9463171F5FF6E0EF0EF11CA0
:1033D0001830E1F69AEBE92E93E0F92E10E0D701D0
:1033E00012966D917D918D919C9115970E942A1155
:1033F000F701A080B18087E491E00E946317812FDC
:103400000E94841788E391E00E946317C5010E941F
:103410008B1786E391E00E9463171F5FF6E0EF0EC3
:10342000F11C1830E1F606E512E084E0F82EF00E0B
:1034300061E0D8018D918D010E94AA0A6AEF70E0C7
:1034400080E090E00E94F60AF012F2CFDD2009F44D
:103450005CC184EF90E00E94631780E1E6E4F2E053
:10346000DE01919601900D928A95E1F70E94DB0CA6
:103470006B017C010E94AE0F80911F048EABC701CF
:10348000B6010E94AE0F80911E048DABC701B6013C
:103490000E94AE0F809120048FAB7E01B8E3EB0E4B
:1034A000F11C03ED11E0C8010E94A928F7018193E6
:1034B0007F010F5F1F4F073DF1E01F07A1F780EE6F
:1034C00090E00E94631768AD79AD8AAD9BAD0E9414
:1034D0002A118EED90E00E9463179E012F5F3F4FEF
:1034E0007901690100E010E0F801E05BFE4F8280A5
:1034F0009380A480B580C501B4010E94AE0F809175
:103500001C048BABC501B4010E94AE0F80911B045B
:103510008AABC501B4010E94AE0F80911A0489AB39
:10352000CE01C1960E94650DF801E050FF4F628305
:10353000738384839583D6016D937D938D939D933F
:103540006D01F801E051FE4F11821082F801E05642
:10355000FE4F11821082065F1F4F0035110521F6C4
:1035600087E090E0FE01319620E030E0281739072F
:10357000DCF4419151916191719180809180A280A0
:10358000B38084169506A606B70658F4DF01149793
:103590008D929D92AD92BC9213974083518362832A
:1035A00073832F5F3F4FE2CF0197E1F6FE01B196A3
:1035B0009F01D7014D915D916D917D917D01A0E0BD
:1035C000B1E080E090E012968D909D90AD90BC901F
:1035D0001597481559056A057B0511F49183808379
:1035E00001961A968830910571F73296E216F30625
:1035F00001F7FE01F1966F01B6E4AB2EB12C1AE093
:10360000312ED6019E908E906D01389C7001399CB0
:10361000F00C1124F701E050FF4F4280538064808A
:1036200075800E94DB0C461657066806790608F07E
:1036300063C08701005B1E4FF80180859185883546
:10364000910599F40E9412148AE0889DF001899DE9
:10365000F00D1124E05BFE4F808591850E948B1751
:1036600089EC90E00E94631750C08336910551F3B6
:10367000608071808BEB90E00E946317C4010E9410
:103680008B1781EB90E00E946317C3010E948B1798
:103690008FEA90E00E946317F80162817381848150
:1036A00095810E942A11D8018D919C91019701F575
:1036B000F701E051FE4F8681978181309105C1F479
:1036C0009183808389E990E00E946317F8018281E9
:1036D0009381A481B58180589E4AAE4FBF4F8283AB
:1036E0009383A483B583B801C5010E94DF1304C08E
:1036F00088E690E00E946317FAE0AF1AB10826EF5F
:10370000A2162FEFB20609F07CCF8091A10481119F
:10371000AFC200E511E0E12CF12CD12CD8018D9144
:103720009C911197019709F05BC018968D919C911F
:103730001997CC970CF054C08091A104811150C00E
:103740000E94DB0CF80182809380A480B580861AE9
:10375000970AA80AB90AF2E18F169104A104B104EC
:1037600008F0C9C083E893E00E9463174AE0C501EE
:10377000B4010E94E7168EE793E00E94631787E783
:1037800093E00E9463178D2D0E9484178BE693E0CF
:103790000E946317D80118968D919C9119972AE081
:1037A000289FF001299FF00D1124E051FE4F8D91CB
:1037B0009C9111979183808312968D919D910D908C
:1037C000BC91A02D80589E4AAE4FBF4FF801828316
:1037D0009383A483B583B801C7010E94DF138BC014
:1037E0000E94DB0CD80112968D909D90AD90BC90FC
:1037F0001597861A970AA80AB90ABAE08B16910497
:10380000A104B10408F077C0F8018081918101978B
:1038100009F071C0808591858835910509F06BC0EC
:103820008EE393E00E94631787E393E00E9463179F
:103830008D2D0E9484178BE293E00E94631788E22B
:1038400093E00E9463174AE0C501B4010E94E716A5
:1038500083E293E00E94631780E193E00E94631784
:10386000F80182819381A481B58180589E4AAE4F30
:10387000BF4F82839383A483B583B801C7010E949D
:10388000DF1389EF92E00E94631720E030E0F90136
:10389000E051FE4F11821082F901E056FE4F118275
:1038A0001082265F3F4F2035310589F780EE92E088
:1038B0000E94631761E087E00E94AA0A61E086E047
:1038C0000E94AA0A61E085E00E94AA0A61E084E001
:1038D0000E94AA0A81E08093A10487ED92E00E94F1
:1038E00063170E94DB0C0E94DB0C0E942A1189EAFC
:1038F00092E00E946317D394065F1F4FFAE0EF0E29
:10390000F11C20E5E216F10409F008CF60EFA62EC5
:1039100061E0B62E70EAE72E71E0F72EEDE38E2E11
:10392000E6E09E2EFAEECF2EF3E0DF2EAAEB2A2E53
:10393000A3E03A2E370185012C961FAE2C97D801B3
:103940004D905C90B1E04B16510409F0A2C08091FB
:10395000A10481119EC0D8011896ED91FC91199790
:10396000EA5AFD4F60E080810E94AA0A0E94300B53
:10397000F4012081318142815381DC01CB01821B22
:10398000930BA40BB50B893E9340A105B10508F438
:1039900080C0F60182819381A481B5810196A11D29
:1039A000B11D82839383A483B583D80118962D918A
:1039B0003C911997F901EA5AFD4F40818FE992E055
:1039C0002E962FAF2E972F963FAF2F9760964FAF23
:1039D00060970E9463172C968FAD2C970E948417D6
:1039E00084E992E00E9463172E962FAD2E972F96B2
:1039F0003FAD2F97C9010E948B1782E992E00E9488
:103A0000631760964FAD6097842F0E94841780E9FA
:103A100092E00E946317F60162817381848195812F
:103A20000E94971089E692E00E9463170E94300B73
:103A3000D4016D937D938D939C931397F6014281EE
:103A4000538164817581F80182819381A481B5815C
:103A5000481759076A077B07E0F082E592E00E9469
:103A60006317D80111961C921E92F3015182408275
:103A70001896ED91FC911997EA5AFD4F61E080810B
:103A80000E94AA0AD10112961D921D921D921C92AB
:103A900015972C962FAD2C972F5F2C962FAF2C9728
:103AA000065F1F4F3AE0630E711C86E0280E311C42
:103AB00096E0C90ED11CA4E08A0E911C283009F0B2
:103AC0003ECF4DE1C42E46E0D42E0AEB13E05AEE71
:103AD000852E53E0952E512CF7018081918101971D
:103AE00009F08BC08091A104811187C00084F18509
:103AF000E02DEA5AFD4F61E080810E94AA0A0E94EF
:103B0000300BD6012D913D914D915C91DC01CB01A3
:103B1000821B930BA40BB50B893E9340A105B10505
:103B200008F46BC0F80182819381A481B58101966C
:103B3000A11DB11D82839383A483B583D7011896F9
:103B4000ED91FC911997EA5AFD4F4080F501608490
:103B5000718487E492E00E946317852D0E94841788
:103B60008CE392E00E946317C3010E948B178AE3E3
:103B700092E00E946317842D0E94841788E392E0EC
:103B80000E946317D80112966D917D918D919C9141
:103B900015970E94971081E192E00E9463170E949E
:103BA000300BF6016083718382839383D801129670
:103BB0004D915D916D917C911597F7018281938173
:103BC000A481B581481759076A077B07B0F08AEFCF
:103BD00091E00E946317D7011D921C92F501868126
:103BE00097818130910549F491838083D4011296A5
:103BF0001D921D921D921C9215975394BAE0EB0EE4
:103C0000F11CEAE0AE0EB11CF6E08F0E911C0A5FCB
:103C10001F4F24E0C20ED11C38E053125DCF0E942A
:103C2000300B00916106109162062091630630917D
:103C30006406DC01CB01801B910BA20BB30B893E08
:103C40009340A105B105B0F06091A20481E068271E
:103C50006093A2048DE00E94AA0A0E94300B609338
:103C6000610670936206809363069093640602C0B7
:103C70000E9412149E012F5F3F4F790100E010E077
:103C80000E94300B609374057093750580937605E0
:103C900090937705E0916C05F0916D050284F385B2
:103CA000E02D8CE695E0099597FD09C0D7018D932D
:103CB0007D010F5F1F4F0E31110511F71DC00E94CE
:103CC000300B8090740590907505A0907605B090AB
:103CD0007705DC01CB0188199909AA09BB098090F5
:103CE000700590907105A0907205B09073058815CD
:103CF0009905AA05BB0570F2E1E0F0E0EC0FFD1FAD
:103D0000E00FF11F108260E972E0CE018B5B9F4FE4
:103D10000E941F0A64E972E0CE01CF960E941F0A3A
:103D20006DE972E0CE0101960E9469287C01BC0118
:103D3000CE018B5B9F4F0E94F9092796CEACDFAC7A
:103D40002797C114D10409F444C02B960EAD1FADC2
:103D50002B9701151105E9F146015401BFEF8B1AAC
:103D60009B0AF5018081082E000C990B0E949D286A
:103D7000892B99F7015011090C0D1D1DD8018C914B
:103D8000082E000C990B0E949D28892B89F4A8010C
:103D90004F5F5F4F4A195B092B965FAF4EAF2B9772
:103DA000CA14DB0458F4B501C6010E947B2B06C07F
:103DB0000A151B0560F301501109E0CF2796EEADFF
:103DC000FFAD27972B968EAD9FAD2B97E80FF91F70
:103DD000108261EA72E0CE0181960E941F0ABE0144
:103DE0006F5D7F4FCE018B5B9F4F0E94A9098C01B5
:103DF000CE0181960E941A0A17FD0EC080EB9BE04F
:103E00000E9463170E94DB0C0E942A118EEA9BE03D
:103E10000E94631701E001C000E069EA72E0CE0190
:103E200081960E941F0ABE016F5D7F4FCE018B5BA2
:103E30009F4F0E94A9096C01CE0181960E941A0A27
:103E400010E0D7FCFCC0E114F10401F16DE972E06F
:103E500080E090E00E9469287C010E944B28FE01CE
:103E60003196E10FF11DE10FF11D91A380A30E9496
:103E70008B178AEA9BE00E946317812F0E948417A8
:103E800088EA9BE00E9463171F5FDDCF8DA18CAF96
:103E90008BA18DAF89A1825B8EAF8FA18AAF89A5DF
:103EA00089AF8BA588AFCE01C8960E94650D4B01E6
:103EB0005C01AE014F5C5F4F0E94DD0ECC24C394C9
:103EC000C0924A0538E6D32ED0926B0510920D06AB
:103ED00010920C0660E080E196E00E942C0929A96E
:103EE0000AE0822F602F0E941029682F660F860F2C
:103EF000682F660F620F80E196E00E942C092AA9C4
:103F0000822F602F0E941029682F660F860F682F5E
:103F1000660F620F80E196E00E942C092BA9822F88
:103F2000602F0E941029682F660F860F682F660F7A
:103F3000620F80E196E00E942C096CA980E196E076
:103F40000E942C092DA9822F602F0E941029682F12
:103F5000660F860F682F660F620F80E196E00E9461
:103F60002C092EA9822F602F0E941029682F660F1E
:103F7000860F682F660F620F80E196E00E942C0981
:103F80002FA92E51822F602F0E941029682F660FB3
:103F9000860F880F682F620F80E196E00E942C093F
:103FA00081E00E94BB17C0924A05D0926B05109227
:103FB0000D0610920C066FE080E196E00E942C093D
:103FC00081E00E94BB1781110FC061E088E60E946A
:103FD000181810920F0680930E0680E196E00E945A
:103FE000E0082D968FAF2D9781E080934A0588E6F3
:103FF00080936B0510920D0610920C066FE080E125
:1040000096E00E942C092D966FAD2D976F7780E179
:1040100096E00E942C0981E00E94BB17C501B40103
:104020000E94B40C87E99BE00E946317C501B401AC
:104030000E942A1185E99BE00E94631701E061EB71
:1040400072E0CE01C1960E941F0ABE016F5C7F4FD5
:10405000CE018B5B9F4F0E94A9096C01CE01C196D6
:104060000E941A0AD7FC90C0E114F10499F06DE99E
:1040700072E080E090E00E9469287C010E944B2859
:10408000FE013196E10FF11DE10FF11D91A380A317
:104090001F5FEACF89A09AA08AE0889D5001899D80
:1040A000B00C1124F501E051FE4F6F0189A59AA5CE
:1040B000978386838BA59CA5918780871182108228
:1040C00081E08CAF8DAF1EAE8BA18AAF8DA189AF81
:1040D0008FA188AFCE01C8960E94650DD6011296B9
:1040E0006D937D938D939C931597B0E5AB0EB11CAA
:1040F000B601C5010E94DF1387E69BE00E946317AB
:104100008CE59BE00E946317C4010E948B1783E536
:104110009BE00E946317F60162817381848195811F
:104120000E949710D60116968D909C90179718961E
:104130006D907C901997CD90DC908AE49BE00E9472
:104140006317C6010E948B1782E49BE00E946317ED
:10415000C3010E948B1785E39BE00E946317C40193
:104160000E948B178BE19BE00E946317C5010E94A0
:104170008B1789E19BE00E9463170E9485128BEEEA
:104180009AE00E94631701E06CEB72E0CE01C196E9
:104190000E941F0ABE016F5C7F4FCE018B5B9F4F59
:1041A0000E94A9096C01CE01C1960E941A0AD7FC8F
:1041B00096C0E114F10499F06DE972E080E090E0BE
:1041C0000E9469287C010E944B28FE013196E10F74
:1041D000F11DE10FF11D91A380A31F5FEACF89A01C
:1041E0009AA08AE0889D5001899DB00C1124F501A8
:1041F000E056FE4F6F0189A59AA5978386838BA50C
:104200009CA5918780871182108291E09CAF9DAF21
:104210001EAE8BA18AAF8DA189AF8FA188AFCE01D1
:10422000C8960E94650DD60112966D937D938D936D
:104230009C931597B0EAAB0EB11CB601C5010E9464
:10424000DF136AE070E080E090E00E94F60A8DEBF8
:104250009AE00E94631781EB9AE00E946317C40101
:104260000E948B1788EA9AE00E946317F601628128
:104270007381848195810E949710D60116968D9046
:104280009C90179718966D907C901997CD90DC9024
:104290008FE99AE00E946317C6010E948B1787E995
:1042A0009AE00E946317C3010E948B178AE89AE084
:1042B0000E946317C4010E948B1780E79AE00E9456
:1042C0006317C5010E948B178EE69AE00E94631760
:1042D0000E942B1280E49AE00E94631701E068ECD0
:1042E00072E0CE01C1960E941F0ABE016F5C7F4F33
:1042F000CE018B5B9F4F0E94A9096C01CE01C19634
:104300000E941A0AD7FCA6C0E114F10499F06DE9E5
:1043100072E080E090E00E9469287C010E944B28B6
:10432000FE013196E10FF11DE10FF11D91A380A374
:104330001F5FEACF89A09AA08AE0889D5001899DDD
:10434000B00C1124F501E05BFE4F6F0189A59AA521
:10435000978386838BA59CA5918780871182108285
:104360000E94DB0C2B013C010E94AE0F80911F04C8
:104370008DAFC301B2010E94AE0F80911E048CAFBD
:10438000C301B2010E94AE0F809120048EAF8BA1B9
:104390008AAF8DA189AF8FA188AFCE01C8960E9448
:1043A000650DD60112966D937D938D939C93159711
:1043B000B601C5010E94DF136AE070E080E090E082
:1043C0000E94F60A82E19AE00E9463178AE09AE06E
:1043D0000E946317C4010E948B1781E09AE00E943B
:1043E0006317F60162817381848195810E94971021
:1043F000D60116968D909C90179718966D907C908C
:104400001997CD90DC9088EF99E00E946317C60160
:104410000E948B178DEE99E00E946317C3010E94E2
:104420008B1784EE99E00E946317C4010E948B17DA
:104430008AEC99E00E946317C5010E948B1788ECF3
:1044400099E00E9463170E94E3128AE999E00E94B2
:10445000631701E061ED72E0CE01C1960E941F0A70
:10446000BE016F5C7F4FCE018B5B9F4F0E94A909FD
:104470006C01CE01C1960E941A0AD7FC86C0E114D5
:10448000F10499F06DE972E080E090E00E94692803
:104490007C010E944B28FE013196E10FF11DE10FD6
:1044A000F11D91A380A31F5FEACF89A09AA08AE0A3
:1044B000889D9001899D300D1124F901E051FE4F36
:1044C0006F018BA19CA1918380835901F0E5AF0E10
:1044D000B11CB601C5010E94DF136AE070E080E004
:1044E00090E00E94F60A8CE699E00E9463176AED5C
:1044F00072E08CE695E00E94500AC4010E948B177E
:1045000062EE72E08CE695E00E94500AD6011296A7
:104510006D917D918D919C9115970E949710F60158
:104520008680978060847184C080D1806BEE72E059
:104530008CE695E00E94500AC6010E948B1764EF3A
:1045400072E08CE695E00E94500AC3010E948B172E
:104550006FEF72E08CE695E00E94500AC4010E9461
:104560008B1768E073E08CE695E00E94500AC50165
:104570000E948B176FE872E08CE695E00E94500A6B
:104580008EE399E00E94631701E062E273E0CE01DE
:10459000C1960E941F0ABE016F5C7F4FCE018B5BEC
:1045A0009F4F0E94A9096C01CE01C1960E941A0A70
:1045B000D7FC7DC0E114F10499F06DE972E080E070
:1045C00090E00E9469287C010E944B28FE013196F0
:1045D000E10FF11DE10FF11D91A380A31F5FEACF51
:1045E00089A09AA08AE0889D9001899D300D1124B0
:1045F000C90180569E4F6C018BA19CA1D6018D9361
:104600009C935901B0E5AB0EB11CB601C5010E94E7
:10461000DF136AE070E080E090E00E94F60A80E13B
:1046200099E00E94631784E099E00E946317C40137
:104630000E948B178BEF98E00E946317F60162814E
:104640007381848195810E949710D60116968D9072
:104650009C90179718966D907C901997CD90DC9050
:1046600082EF98E00E946317C6010E948B1787EEC5
:1046700098E00E946317C3010E948B178EED98E0AB
:104680000E946317C4010E948B1784EC98E00E947B
:104690006317C5010E948B1782EC98E00E94631794
:1046A0000E942B1284E998E00E94631701E06EE2F9
:1046B00073E0CE01C1960E941F0ABE016F5C7F4F5E
:1046C000CE018B5B9F4F0E94A9096C01CE01C19660
:1046D0000E941A0AD7FC76C0E114F10499F06DE942
:1046E00072E080E090E00E9469287C010E944B28E3
:1046F000FE013196E10FF11DE10FF11D91A380A3A1
:104700001F5FEACFA9A0BAA08AE08A9D40018B9DD5
:10471000900C1124F401E05BFE4F6F018BA19CA172
:1047200091838083BF01C4010E94DF136AE070E0BF
:1047300080E090E00E94F60A86E698E00E94631707
:104740008EE598E00E946317C5010E948B1785E5EE
:1047500098E00E946317D60112966D917D918D911C
:104760009C9115970E949710F601A680B7806084EF
:104770007184C080D1808CE498E00E946317C601E8
:104780000E948B1781E498E00E946317C3010E9486
:104790008B1788E398E00E946317C5010E948B176E
:1047A0008EE198E00E946317C4010E948B178CE190
:1047B00098E00E9463170E94E3128EEE97E00E9439
:1047C000631701E067E373E0CE01C1960E941F0A00
:1047D000BE016F5C7F4FCE018B5B9F4F0E94A9098A
:1047E0006C01CE01C1960E941A0AD7FC44C0E114A4
:1047F000F10499F06DE972E080E090E00E94692890
:104800007C010E944B28FE013196E10FF11DE10F62
:10481000F11D91A380A31F5FEACF0BA1CCA0E9A15A
:10482000FAA1EA5AFD4FD080602F8D2D0E94AA0A6E
:1048300080EC97E00E94631781EB97E00E9463177A
:10484000812F0E9484178AEA97E00E9463178D2DBA
:104850000E9484178CE997E00E946317802F9C2D9B
:104860000E948B178AE997E00E9463178CE697E015
:104870000E94631701E060E473E0CE01C1960E94DC
:104880001F0ABE016F5C7F4FCE018B5B9F4F0E9462
:10489000A9096C01CE01C1960E941A0AD7FCF6C084
:1048A0008EE397E00E9463176DE972E080E090E08C
:1048B0000E9469287C01DC018C91082E000C990B68
:1048C000C0970A9708F0C9C0C7010E944B285C0135
:1048D0009AA389A30AE00A9DC0010B9D900D1124A3
:1048E000FC01E05BFE4F6F016281738184819581E1
:1048F0000E942A11D60116968D909C9017971896B3
:104900006D907C9019974D905C9083E397E00E94A6
:104910006317C5010E948B1784E297E00E9463171A
:10492000C2010E948B178CE197E00E946317C301BC
:104930000E948B1783E197E00E946317C4010E94D5
:104940008B1781E197E00E946317F60180859185BE
:10495000089FF001099FF00D1124E051FE4F628184
:104960007381848195810E949710D60118962D90AD
:104970003C901997029DF001039DF00D1124E05128
:10498000FE4F86809780608471844080518083E0F0
:1049900097E00E946317C1010E948B1784EF96E095
:1049A0000E946317C2010E948B178CEE96E00E9452
:1049B0006317C3010E948B178FED96E00E94631767
:1049C000C4010E948B178DED96E00E946317F601DB
:1049D00080859185089FF001099FF00D1124E05614
:1049E000FE4F62817381848195810E949710D60168
:1049F00018964D905C901997049DF001059DF00D5F
:104A00001124E056FE4FC680D78080849184608058
:104A100071808EEC96E00E946317C2010E948B1792
:104A20008FEB96E00E946317C3010E948B1787EB00
:104A300096E00E946317C4010E948B178AEA96E0F1
:104A40000E946317C6010E948B1788EA96E00E94B5
:104A500063178A2D0E943A1014C00E94E3128BE75C
:104A600096E00E9463170E9485128EE496E00E94F1
:104A700063170E942B1281E296E00E9463170E9446
:104A8000711083EF95E00E94631701E06EE473E01C
:104A9000CE01C1960E941F0ABE016F5C7F4FCE01FE
:104AA0008B5B9F4F0E94A9096C01CE01C1960E94A9
:104AB0001A0AD7FC29C0E114F10499F06DE972E0FB
:104AC00080E090E00E9469287C010E944B28FE0152
:104AD0003196E10FF11DE10FF11D91A380A31F5F3E
:104AE000EACF85EC95E00E9463178CEA95E00E947E
:104AF00063170E94DB1589E995E00E9463178BE636
:104B000095E00E94631701E063E673E0CE01C19671
:104B10000E941F0ABE016F5C7F4FCE018B5B9F4FCF
:104B20000E94A9096C01CE01C1960E941A0AD7FC05
:104B300017C06BE18CE695E00E94060869E673E019
:104B40008CE695E00E94500A6BE18CE695E00E94AD
:104B500006086DE673E08CE695E00E94500A01E0DD
:104B600060E773E0CE01C1960E941F0ABE016F5C30
:104B70007F4FCE018B5B9F4F0E94A9096C01CE0134
:104B8000C1960E941A0AD7FC9AC0E114F10421F1DF
:104B90006DE972E080E090E00E9469287C01FC01F0
:104BA0008081082E000C990B0E94732B892B39F001
:104BB000B701CE018B5B9F4F0E94F9090BC0C70163
:104BC0000E944B28FE013196E10FF11DE10FF11D0E
:104BD00091A380A31F5FD9CF8DA19EA1C9A0DAA008
:104BE000BE016B5B7F4F019789F4CE01CF960E9487
:104BF000A909F601E756FB4F20E830E002C03595E1
:104C000027958A95E2F78081282B20C0CE01CF9688
:104C10000E94A909F601E756FB4FAC014750510924
:104C2000477055272EEF30E0B90102C075956795A2
:104C30004A95E2F747E050E0DA01A81BB90B01C042
:104C4000220FAA95EAF7262B808128232083F601DC
:104C5000E756FB4F5F01BF01C6018E5A9E4F0E946F
:104C600094138DE395E00E94631784E295E00E941F
:104C70006317C6010E948B1787E195E00E946317B6
:104C800094E9C92E92E0D92E00E020E8922ED501B9
:104C90008C91892119F0F601608101C06FE58CE6E5
:104CA00095E00E94340A0F5F9694FFEFCF1ADF0A57
:104CB000083069F789EE94E00E94631701E06EE71F
:104CC00073E0CE01C1960E941F0ABE016F5C7F4F48
:104CD000CE018B5B9F4F0E94A9096C01CE01C1964A
:104CE0000E941A0AD7FC22C08BEB94E00E94631743
:104CF0006DE972E080E090E00E9469287C01DC01AF
:104D00008C91082E000C990BC0970A9740F4C701AC
:104D10000E944B2889A39AA30E943A1002C00E94C5
:104D200071108DE894E00E94631701E060E973E080
:104D3000CE01C1960E941F0ABE016F5C7F4FCE015B
:104D40008B5B9F4F0E94A9096C01CE01C1960E9406
:104D50001A0AD7FC61C0E114F10499F06DE972E020
:104D600080E090E00E9469287C010E944B28FE01AF
:104D70003196E10FF11DE10FF11D91A380A31F5F9B
:104D8000EACFC9A0DAA08601000F111F000F111F82
:104D9000F801EF5DFB4F8BA180838DA181838FA1F3
:104DA000828391E089A5811101C090E093830F5D1A
:104DB0001B4FB8018AE591E00E94AC13F801B38063
:104DC000A2809180108183E894E00E946317C6015D
:104DD0000E948B178AE794E00E946317812F0E943C
:104DE000841788E794E00E946317892D0E94841736
:104DF00086E794E00E9463178A2D0E94841782E65A
:104E000094E00E9463178B2D90E00E948B1780E640
:104E100094E00E94631701E06BE973E0CE01C19654
:104E20000E941F0ABE016F5C7F4FCE018B5B9F4FBC
:104E30000E94A9096C01CE01C1960E941A0AD7FCF2
:104E400009C082E394E00E9463170E94DC0F84E0B3
:104E500094E018C0011118C0E114F104A9F086ED26
:104E600093E00E9463178DEC93E00E946317B701F3
:104E70008CE695E00E94500A84EB93E00E94631751
:104E800086E893E00E946317CE01CF960E941A0A2B
:104E9000CE018B5B9F4F0E941A0A0E94300B00913B
:104EA0005D0610915E0620915F0630916006DC0180
:104EB000CB01801B910BA20BB30B81369A4EA1053F
:104EC000B10578F10E94DB0C6B017C0169837A8368
:104ED0008B839C839E012F5F3F4F590103ED11E0AF
:104EE000D5016D915D011AA309A3CE0181960E949F
:104EF00041130F5F1F4F073DB1E01B0789F7C70143
:104F0000B6010E942A110E94300B60935D067093D7
:104F10005E0680935F069093600689EB9BE00E949B
:104F200063170E946F080C94851BCF93DF93109238
:104F30006F0510926E0588EE93E0A0E0B0E08093DC
:104F4000700590937105A0937205B09373052EE6DA
:104F500032E030936D0520936C0525EC30E0309302
:104F600079052093780524EC30E030937B0520937D
:104F70007A0520EC30E030937D0520937C0521EC10
:104F800030E030937F0520937E0522EC30E03093B3
:104F900081052093800526EC30E030938305209333
:104FA0008205109285051092860510928705109251
:104FB000880510921306109212068093140690939F
:104FC0001506A0931606B093170680E892E090931A
:104FD00011068093100610920F0610920E06109282
:104FE0000D0610920C0610920B0681E080930A06C3
:104FF0001092090661E082E10E94AA0A61E083E161
:105000000E94AA0A8091B9008E7F8093B900809196
:10501000B9008D7F8093B90088E48093B80085E45F
:105020008093BC000E94300B609365067093660607
:1050300080936706909368060E94300B6093610628
:105040007093620680936306909364060E94300B0F
:1050500060935D0670935E0680935F069093600692
:10506000CDE3D6E00E94300B6993799389939993AD
:1050700086E0CD35D807B1F7CDE1D6E00E94300B00
:10508000699379938993999386E0CD33D807B1F7E3
:10509000DF91CF910895FC0188279927E894219109
:1050A0002032E9F3293010F02E30C8F32B3241F0D2
:1050B0002D3239F4689404C00E949528820F911D06
:1050C000219120532A30C0F31EF4909581959F4F73
:1050D000089549E656E00E946E280895FA01A191CC
:1050E000B081009719F41097E1F0CD01DC01CD01FA
:1050F0000D90002011F4C00113C0FB012191222367
:1051000019F02015D9F7F3CFFB012191201519F4DF
:105110001E92119606C02223C1F70D900020A1F720
:10512000D001FA01A193B08308957AE0979F902D62
:10513000879F802D910D1124089591110C94A6281C
:10514000803219F089508550C8F70895992788272B
:105150000895F999FECF92BD81BDF89A992780B53F
:105160000895262FF999FECF1FBA92BD81BD20BDAB
:105170000FB6F894FA9AF99A0FBE019608950E9414
:105180000129A59F900DB49F900DA49F800D911DA6
:10519000112408952F923F924F925F926F927F92C7
:1051A0008F929F92AF92BF92CF92DF92EF92FF9237
:1051B0000F931F93CF93DF93CDB7DEB7CA1BDB0BE3
:1051C0000FB6F894DEBF0FBECDBF09942A88398888
:1051D00048885F846E847D848C849B84AA84B9848F
:1051E000C884DF80EE80FD800C811B81AA81B9819B
:1051F000CE0FD11D0FB6F894DEBF0FBECDBFED01AF
:105200000895A29FB001B39FC001A39F700D811D9F
:105210001124911DB29F700D811D1124911D0895BF
:10522000991B79E004C0991F961708F0961B881FF8
:105230007A95C9F78095089597FB072E16F4009488
:1052400007D077FD09D00E945A2907FC05D03EF40B
:10525000909581959F4F0895709561957F4F089522
:10526000A1E21A2EAA1BBB1BFD010DC0AA1FBB1F6A
:10527000EE1FFF1FA217B307E407F50720F0A21BDC
:10528000B30BE40BF50B661F771F881F991F1A9449
:1052900069F760957095809590959B01AC01BD0173
:1052A000CF010895B7FF0C94BF280E94BF28821B2E
:1052B000930B0895AA1BBB1B51E107C0AA1FBB1F7C
:1052C000A617B70710F0A61BB70B881F991F5A9592
:1052D000A9F780959095BC01CD010895EE0FFF1FB1
:1052E0000590F491E02D0994CF93DF9382309105DE
:1052F00010F482E090E0E0916D06F0916E0620E0FF
:1053000030E0C0E0D0E0309711F140815181481782
:105310005907C0F04817590761F48281938120979B
:1053200019F09B838A832BC090936E0680936D0641
:1053300026C02115310519F04217530718F49A01B8
:10534000BE01DF01EF010280F381E02DDCCF2115EA
:10535000310509F1281B390B2430310590F41296E0
:105360008D919C9113976115710521F0FB01938339
:10537000828304C090936E0680936D06FD01329681
:1053800044C0FD01E20FF31F819391932250310934
:105390002D933C933AC020916B0630916C06232BE1
:1053A00041F4209142023091430230936C062093E5
:1053B0006B0620914002309141022115310541F4E4
:1053C0002DB73EB74091440250914502241B350B46
:1053D000E0916B06F0916C06E217F307A0F42E1B28
:1053E0003F0B2817390778F0AC014E5F5F4F241749
:1053F000350748F04E0F5F1F50936C0640936B06C5
:105400008193919302C0E0E0F0E0CF01DF91CF9172
:1054100008950F931F93CF93DF93009709F48CC0E7
:10542000FC0132971382128200916D0610916E0674
:105430000115110581F420813181820F931F209184
:105440006B0630916C062817390779F5F0936C06D6
:10545000E0936B0671C0D80140E050E0AE17BF0783
:1054600050F412962D913C911397AD012115310501
:1054700009F1D901F3CF9D01DA01338322836081E1
:105480007181860F971F8217930769F4EC012881B9
:105490003981260F371F2E5F3F4F318320838A814A
:1054A0009B8193838283452B29F4F0936E06E093CE
:1054B0006D0642C01396FC93EE931297ED0149914D
:1054C00059919E01240F351FE217F30771F4808173
:1054D0009181840F951F029611969C938E938281E1
:1054E000938113969C938E931297E0E0F0E0D8019D
:1054F00012968D919C911397009719F0F8018C01E9
:10550000F6CF8D919C9198012E5F3F4F820F931F94
:1055100020916B0630916C062817390769F4309793
:1055200029F410926E0610926D0602C01382128248
:1055300010936C0600936B06DF91CF911F910F9132
:105540000895A0E0B0E0E7EAFAE20C94CE28EC017E
:10555000009721F4CB010E947429B8C0FC01E60F2A
:10556000F71F9C0122503109E217F30708F4ACC081
:10557000D9010D911C91119706171707B0F005304E
:10558000110508F49FC0C80104978617970708F40F
:1055900099C002501109061B170B019311936D93CB
:1055A0007C93CF010E94092A8DC05B01A01AB10A29
:1055B0004C01800E911EA0916D06B0916E0640E0E8
:1055C00050E0E12CF12C109709F44AC0A815B90558
:1055D000D1F56D907C901197630182E0C80ED11CCB
:1055E000CA14DB0480F1A3014A195B096A0182E055
:1055F000C80ED11C1296BC9012971396AC91B5E0D0
:10560000CB16D10440F0B282A38351834083D901E9
:105610006D937C930AC00E5F1F4FC301800F911FD3
:10562000F90191838083EB2DFA2FE114F10431F01D
:10563000D7011396FC93EE93129744C0F0936E0635
:10564000E0936D063FC08D919C91119748175907C3
:1056500008F4AC017D0112960D90BC91A02DB3CF42
:1056600080916B0690916C0688159905E1F44617B8
:105670005707C8F48091400290914102009741F48D
:105680008DB79EB74091440250914502841B950B03
:10569000E817F907C8F4F0936C06E0936B06F9017C
:1056A000718360830FC0CB010E9474297C01009735
:1056B00059F0A801BE010E947B2BCE010E94092A4D
:1056C000C70104C0CE0102C080E090E0CDB7DEB7D4
:1056D000EEE00C94EA2881E090E0F8940C94AE2B74
:1056E00085FD0C94A628806291110C94A628815601
:1056F0008A51D8F70895FB01DC0102C001900D9298
:1057000041505040D8F70895FB01DC018D91019084
:1057100080190110D9F3990B0895FB01DC01019068
:105720000D920020E1F70895FB0151915523A9F056
:10573000BF01DC014D9145174111E1F759F4CD014D
:105740000190002049F04D9140154111C9F3FB0132
:105750004111EFCF81E090E001970895F894FFCFD9
:105760000000007A495A000000000000007A495AFF
:10577000000000000000007A495A0000000000000C
:10578000007A495A000000000000007A495A0000DF
:1057900000000000007A495A000000000000007A72
:1057A000495A000000000000647A495A00000000D5
:1057B0000000027A495A000000000000037A495AAA
:1057C000000000000000007A495A000000000000BC
:1057D000057A495A000000000000087A495A000082
:1057E00000000000097A495A000000000000077A12
:1057F000495A000000000000067A495A00000000E3
:1058000000000A0000000000000000000A00000084
:105810000000000000000A0000000000000000007E
:105820000A0000000000000000000A000000000064
:10583000000000000A0000000000000000000A0054
:1058400000000000000000000A000000000000004E
:1058500000000A0000000000000000000A00000034
:105860000000000000000A0000000000000000002E
:105870000A0000000000000000000A000000000014
:10588000000000000A0000000000000000000A0004
:1058900000000000000000000A00000000000000FE
:1058A00000006F06800000000100020003000400F9
:1058B00005000600070007060504070605041F1C6F
:1058C0001F1E1F1E1F1F1E1F1E1F00000000060898
:1058D00073079E074D08CF07AD07C1070000000002
:1058E0002C09FC085C09D008F408E008D1080D0A6E
:1058F00000436800444C4D584A56532000203A2F2C
:105900000050727454696D650053657454696D6517
:10591000005365744F6E54696D6572005365744F22
:10592000666654696D657200536574416C61726D91
:105930000041637454696D6572002054696D65722D
:1059400020002053657420746F2000204163746927
:1059500076653D00204F6E2054696D65723D0020D4
:1059600052616E646F6D3D00205361766564206FF7
:105970006E20454550524F4D2061646472657373CB
:10598000200041637454696D65724F66660041631F
:1059900074416C61726D0041637452656C61790091
:1059A000446973706C6179416C61726D730052650A
:1059B000736574416C6C546865416C61726D734EB3
:1059C0006F7700436C65616E005B324A005B480094
:1059D0005365745765656B6461794F666600446909
:1059E00073706C61795765656B6461794F666600A9
:1059F000536574486F6C7964617900446973706CA5
:0E5A00006179486F6C79646179730030000041
:107E0000112484B714BE81FFF0D085E080938100F7
:107E100082E08093C00088E18093C10086E0809377
:107E2000C20080E18093C4008EE0C9D0259A86E02C
:107E300020E33CEF91E0309385002093840096BBD3
:107E4000B09BFECF1D9AA8958150A9F7CC24DD24C4
:107E500088248394B5E0AB2EA1E19A2EF3E0BF2EE7
:107E6000A2D0813461F49FD0082FAFD0023811F036
:107E7000013811F484E001C083E08DD089C08234E0
:107E800011F484E103C0853419F485E0A6D080C0E4
:107E9000853579F488D0E82EFF2485D0082F10E0AE
:107EA000102F00270E291F29000F111F8ED06801E7
:107EB0006FC0863521F484E090D080E0DECF843638
:107EC00009F040C070D06FD0082F6DD080E0C81688
