:100000000C94CD080C94F5080C94F5080C94F508A4
:100010000C94F5080C94F5080C94F5080C94F5086C
:100020000C94F5080C94F5080C94F5080C94F5085C
:100030000C94F5080C94F5080C94F5080C94F5084C
:100040000C94D4150C94F5080C9410150C94EA1427
:100050000C94F5080C94F5080C94F5080C94F5082C
:100060000C941E160C94F508206E6F7468696E6708
:1000700020746F20646F2C20736C656570696E67E7
:100080002E2E2E0A00536C65657074696D652069AB
:10009000732020002062757420697320696E61638B
:1000A00074697665206F72206974732074696D6558
:1000B00072206973206E6F7420726570656174615F
:1000C000626C650A00204C61756E6368696E67201A
:1000D0006974732074696D65720A0020427574201A
:1000E0006861732061207765656B6C792044617964
:1000F0004F666620746F6461790A002000204163B6
:10010000746976653A2000466F756E6420416C61B3
:10011000726D3A20002046696E69736865642072CA
:100120006573746F72696E670A000A004C617374BC
:100130002074696D65207265636F72646564200068
:1001400043697263756974206861732072657373A3
:10015000657465642C20747279696E6720746F20F1
:10016000726573756D6520696E74657272757074F1
:100170006564206F7065726174696F6E732E2E2EC8
:100180000A000A002054696D652E20416374697667
:10019000653D002054696D6572204F666620636F6F
:1001A000756E74646F776E20000A002054696D6567
:1001B0002E204163746976653D002054696D657237
:1001C000204F6E20636F756E74646F776E20000A27
:1001D00000536C65657074696D652069732020003B
:1001E0000A00566572626F73697479206973202002
:1001F00000416C61726D7320696E666F20697320B7
:100200006C6F616465640A0020455050524F4D2068
:10021000616C726561647920696E697469616C6989
:100220007A65640A00200054696D652069732000B6
:10023000525443206861732073657420746865208C
:1002400073797374656D2074696D6500556E6162B4
:100250006C6520746F2073796E63207769746820F1
:1002600074686520525443002068617320446179AA
:10027000206F666620746F6461792C2073636865F3
:1002800064756C696E6720697420746F20746F6D7B
:100290006F72726F770A00416C61726D2000202EC0
:1002A0002E2E0A002000204F464620636F756E7484
:1002B000646F776E206F6E2052656C61792000202C
:1002C000526561636865642074696D657220002001
:1002D0006973206163746976652C20636865636B5C
:1002E000696E672069747320636F756E74646F77CD
:1002F0006E2E2E2E0A0020003A00206F6E205265CE
:100300006C6179200054696D6572204F666620002B
:10031000202E2E2E0A002000204F4E20636F756E77
:1003200074646F776E206F6E2052656C6179200067
:1003300020526561636865642074696D6572200090
:10034000206973206163746976652C206368656336
:100350006B696E672069747320636F756E74646F68
:10036000776E2E2E2E0A0020003A00206F6E20524B
:10037000656C6179200054696D6572204F6E2000B4
:100380000A2A2A2A2A2A2A2A2A2A2A2A2A2A2A2AED
:100390002A2A2A2A2A2A2A2A2A2A2A2A2A2A2A2ABD
:1003A0002A2A2A2A2A2A2A2A2A2A2A2A0A002E2EEF
:1003B0002E0A00743D00207261697365642E2E2E32
:1003C0000A00416C61726D20002A2A2A2A2A2A2AF0
:1003D0002A2A2A2A2A2A2A2A2A2A2A2A2A2A2A2A7D
:1003E0002A2A2A2A2A2A2A2A2A2A2A2A2A2A2A2A6D
:1003F0002A2A2A2A0A00207261697365642E2E2E29
:100400000A00416C61726D20002E2E2E0A00743D90
:10041000000A2A2A2A2A2A2A2A2A2A2A2A2A2A2A86
:100420002A2A2A2A2A2A2A2A2A2A2A2A2A2A2A2A2C
:100430002A2A2A2A2A2A2A2A2A2A2A2A2A0A002070
:100440006973206E6F7420612076616C696420632B
:100450006F6D6D616E640A005761726E696E672020
:10046000000A2A2A2A2A2A2A2A2A2A2A2A2A2A2A36
:100470002A2A2A2A2A2A2A2A2A2A2A2A2A2A2A2ADC
:100480002A2A2A2A2A2A2A2A2A2A2A2A2A0A000A36
:100490002A2A2A2A2A2A2A2A2A2A2A2A2A2A2A2ABC
:1004A0002A2A2A2A2A2A2A2A2A2A2A2A2A2A2A2AAC
:1004B0002A2A2A2A2A2A2A2A2A2A2A0A0057616B41
:1004C000696E672075702E2E2E200A004665656CB9
:1004D000696E6720536C656570792C207A7A7A2E64
:1004E0002E2E2E200A000A0020536C6565702069AC
:1004F000732073657420746F20000A2A2A2A2A2A1E
:100500002A2A2A2A2A2A2A2A2A2A2A2A2A2A2A2A4B
:100510002A2A2A2A2A2A2A2A2A2A2A2A2A2A2A2A3B
:100520002A2A2A2A2A2A0A000A2A2A2A2A2A2A2A95
:100530002A2A2A2A2A2A2A2A2A2A2A2A2A2A2A2A1B
:100540002A2A2A2A2A2A2A2A2A2A2A2A2A2A2A2A0B
:100550002A2A2A2A0A000A0020566572626F7369E5
:1005600074792069732073657420746F20000A2ADF
:100570002A2A2A2A2A2A2A2A2A2A2A2A2A2A2A2ADB
:100580002A2A2A2A2A2A2A2A2A2A2A2A2A2A2A2ACB
:100590002A2A2A2A2A2A2A2A2A2A0A000A2A2A2A25
:1005A0002A2A2A2A2A2A2A2A2A2A2A2A2A2A2A2AAB
:1005B0002A2A2A2A2A2A2A2A2A2A2A2A2A2A2A2A9B
:1005C0002A2A2A2A2A2A2A2A0A000A2A2A2A2A2AF5
:1005D0002A2A2A2A2A2A2A2A2A2A2A2A2A2A2A2A7B
:1005E0002A2A2A2A2A2A2A2A2A2A2A2A2A2A2A2A6B
:1005F0002A2A2A2A2A2A0A000A0020796561726CAE
:10060000792072657065617461626C6520002F00ED
:100610002F00206973206E6F77200020486F6C795F
:1006200064617920000A2A2A2A2A2A2A2A2A2A2ABE
:100630002A2A2A2A2A2A2A2A2A2A2A2A2A2A2A2A1A
:100640002A2A2A2A2A2A2A2A2A2A2A2A2A2A2A2A0A
:100650002A0A000A2A2A2A2A2A2A2A2A2A2A2A2A64
:100660002A2A2A2A2A2A2A2A2A2A2A2A2A2A2A2AEA
:100670002A2A2A2A2A2A2A2A2A2A2A2A2A2A2A0AFA
:10068000000A2A2A2A2A2A2A2A2A2A2A2A2A2A2A14
:100690002A2A2A2A2A2A2A2A2A2A2A2A2A2A2A2ABA
:1006A0002A2A2A2A2A2A2A2A2A2A2A2A2A0A0020FE
:1006B0006172652073657420746F20005765656BE7
:1006C0006C79204461796F66667320666F72206171
:1006D0006C61726D000A2A2A2A2A2A2A2A2A2A2AC0
:1006E0002A2A2A2A2A2A2A2A2A2A2A2A2A2A2A2A6A
:1006F0002A2A2A2A2A2A2A2A2A2A2A2A2A2A2A2A5A
:100700002A0A000A2A2A2A2A2A2A2A2A2A2A2A2AB3
:100710002A2A2A2A2A2A2A2A2A2A2A2A2A2A2A2A39
:100720002A2A2A2A2A2A2A2A2A2A2A2A2A2A2A0A49
:1007300000446F6E6520696E697469616C697A69DD
:100740006E670A00496E697469616C697A696E67DF
:1007500020416C6C20616C61726D730A000A2A2A58
:100760002A2A2A2A2A2A2A2A2A2A2A2A2A2A2A2AE9
:100770002A2A2A2A2A2A2A2A2A2A2A2A2A2A2A2AD9
:100780002A2A2A2A2A2A2A2A2A0A000A2A2A2A2A33
:100790002A2A2A2A2A2A2A2A2A2A2A2A2A2A2A2AB9
:1007A0002A2A2A2A2A2A2A2A2A2A2A2A2A2A2A2AA9
:1007B0002A2A2A2A2A2A2A0A002020202020202029
:1007C000202020203D2D3D2D3D2D3D2D3D2D3D2D2D
:1007D0003D2D3D2D3D2020202020202020202020A8
:1007E000202020200A00202020202020202020203F
:1007F000203D2D3D2D3D2D3D2D3D2D3D2D3D2D3DB6
:100800002D3D2020202020202020202020202020BE
:10081000200A0020202020202020202020203D2DE4
:100820003D2D3D2D3D2D3D2D3D2D3D2D3D2D3D2085
:1008300020202020202020202020202020200A00EE
:100840000A002052657065617461626C653D00202C
:1008500052656C61793D002054696D652E204163BD
:10086000746976653D002069732054696D65722056
:100870004F666620000A00205265706561746162EF
:100880006C653D002052656C61793D002054696DB6
:10089000652E204163746976653D0020697320549C
:1008A000696D6572204F6E20000A002052616E64EF
:1008B0006F6D3D002054696D65723D002054696D77
:1008C000652E204163746976653D0020697320417F
:1008D0006C61726D20000A2A2A2A2A2A2A2A2A2AC8
:1008E0002A2A2A2A2A2A2A2A2A2A2A2A2A2A2A2A68
:1008F0002A2A2A2A2A2A2A2A2A2A2A2A2A2A2A2A58
:100900002A2A0A000A2A2A2A2A2A2A2A2A2A2A2AB1
:100910002A2A2A2A2A2A2A2A2A2A2A2A2A2A2A2A37
:100920002A2A2A2A2A2A2A2A2A2A2A2A2A2A2A2A27
:100930000A000A0020204368616E67656420746FB6
:1009400020005D2050696E20002052656C61794363
:100950006F6E74726F6C5B000A2A2A2A2A2A2A2A6E
:100960002A2A2A2A2A2A2A2A2A2A2A2A2A2A2A2AE7
:100970002A2A2A2A2A2A2A2A2A2A2A2A2A2A2A2AD7
:100980002A2A2A2A0A000A2A2A2A2A2A2A2A2A2A31
:100990002A2A2A2A2A2A2A2A2A2A2A2A2A2A2A2AB7
:1009A0002A2A2A2A2A2A2A2A2A2A2A2A2A2A2A2AA7
:1009B0002A2A0A000A00205361766564206F6E209F
:1009C000454550524F4D2061646472657373200039
:1009D0002052616E646F6D3D00204F6E2054696D32
:1009E00065723D00204163746976653D0020536562
:1009F0007420746F200020416C61726D20000A2AFF
:100A00002A2A2A2A2A2A2A2A2A2A2A2A2A2A2A2A46
:100A10002A2A2A2A2A2A2A2A2A2A2A2A2A2A2A2A36
:100A20002A2A2A2A2A2A2A2A2A2A0A000A2A2A2A90
:100A30002A2A2A2A2A2A2A2A2A2A2A2A2A2A2A2A16
:100A40002A2A2A2A2A2A2A2A2A2A2A2A2A2A2A2A06
:100A50002A2A2A2A2A2A2A2A0A000A0020536176E8
:100A60006564206F6E20454550524F4D206164648F
:100A70007265737320002052616E646F6D3D0020BB
:100A80004F6E2054696D65723D0020416374697634
:100A9000653D002053657420746F20002054696DFB
:100AA0006572204F666620000A2A2A2A2A2A2A2AE4
:100AB0002A2A2A2A2A2A2A2A2A2A2A2A2A2A2A2A96
:100AC0002A2A2A2A2A2A2A2A2A2A2A2A2A2A2A2A86
:100AD0002A2A2A2A0A000A2A2A2A2A2A2A2A2A2AE0
:100AE0002A2A2A2A2A2A2A2A2A2A2A2A2A2A2A2A66
:100AF0002A2A2A2A2A2A2A2A2A2A2A2A2A2A2A2A56
:100B00002A2A0A000A2A2A2A2A2A2A2A2A2A2A2AAF
:100B10002A2A2A2A2A2A2A2A2A2A2A2A2A2A2A2A35
:100B20002A2A2A2A2A2A2A2A2A2A2A2A2A2A2A2A25
:100B30000A000A2A2A2A2A2A2A2A2A2A2A2A2A2A7F
:100B40002A2A2A2A2A2A2A2A2A2A2A2A2A2A2A2A05
:100B50002A2A2A2A2A2A2A2A2A2A2A2A2A2A0A003F
:100B60000A00205361766564206F6E20454550521F
:100B70004F4D206164647265737320002052616E72
:100B8000646F6D3D00204F6E2054696D65723D00AD
:100B9000204163746976653D002053657420746F4D
:100BA000200020416C61726D206461746520000A30
:100BB0002A2A2A2A2A2A2A2A2A2A2A2A2A2A2A2A95
:100BC0002A2A2A2A2A2A2A2A2A2A2A2A2A2A2A2A85
:100BD0002A2A2A2A2A2A2A2A2A2A2A0A000A2A2ADF
:100BE0002A2A2A2A2A2A2A2A2A2A2A2A2A2A2A2A65
:100BF0002A2A2A2A2A2A2A2A2A2A2A2A2A2A2A2A55
:100C00002A2A2A2A2A2A2A2A2A0A000A0020536182
:100C1000766564206F6E20454550524F4D206164CB
:100C2000647265737320002052616E646F6D3D00C5
:100C3000204F6E2054696D65723D002041637469D8
:100C400076653D002053657420746F200020416C50
:100C500061726D20000A2A2A2A2A2A2A2A2A2A2A86
:100C60002A2A2A2A2A2A2A2A2A2A2A2A2A2A2A2AE4
:100C70002A2A2A2A2A2A2A2A2A2A2A2A2A2A2A2AD4
:100C80002A0A000A2A2A2A2A2A2A2A2A2A2A2A2A2E
:100C90002A2A2A2A2A2A2A2A2A2A2A2A2A2A2A2AB4
:100CA0002A2A2A2A2A2A2A2A2A2A2A2A2A2A2A0AC4
:100CB000000A00205361766564206F6E2045455020
:100CC000524F4D2061646472657373200020526539
:100CD0007065617461626C653D002052656C61797C
:100CE0003D00204163746976653D002053657420A2
:100CF000746F20002054696D6572204F6666200075
:100D00000A2A2A2A2A2A2A2A2A2A2A2A2A2A2A2A63
:100D10002A2A2A2A2A2A2A2A2A2A2A2A2A2A2A2A33
:100D20002A2A2A2A2A2A2A2A2A2A2A2A0A000A2A8D
:100D30002A2A2A2A2A2A2A2A2A2A2A2A2A2A2A2A13
:100D40002A2A2A2A2A2A2A2A2A2A2A2A2A2A2A2A03
:100D50002A2A2A2A2A2A2A2A2A2A0A000A00205368
:100D600061766564206F6E20454550524F4D20617D
:100D700064647265737320002052657065617461EC
:100D8000626C653D002052656C61793D00204163D5
:100D9000746976653D002053657420746F200020CF
:100DA00054696D6572204F6E20000A2A2A2A2A2A69
:100DB0002A2A2A2A2A2A2A2A2A2A2A2A2A2A2A2A93
:100DC0002A2A2A2A2A2A2A2A2A2A2A2A2A2A2A2A83
:100DD0002A2A2A2A2A2A0A000A005254432054693D
:100DE0006D652053657420746F20000A00202D204B
:100DF000000A0054696D6520697320002054696DF4
:100E0000652053617665640A004572724A616E46D8
:100E100065624D61724170724D61794A756E4A75B5
:100E20006C4175675365704F63744E6F76446563AC
:100E3000002068617320446179206F666620746FBA
:100E40006461792C207363686564756C696E6720D2
:100E5000697420746F20746F6D6F72726F770A00FF
:100E6000416C61726D20000A2A2A2A2A2A2A2A2A1B
:100E70002A2A2A2A2A2A2A2A2A2A2A2A2A2A2A2AD2
:100E80002A2A2A2A2A2A2A2A2A2A2A2A2A2A2A2AC2
:100E90002A2A2A0A00546F64617920697320616EDE
:100EA000207363686564756C656420686F6C796431
:100EB00061792C20676F696E6720746F20736C6591
:100EC00065702E2E2E0A000A2A2A2A2A2A2A2A2A5F
:100ED0002A2A2A2A2A2A2A2A2A2A2A2A2A2A2A2A72
:100EE0002A2A2A2A2A2A2A2A2A2A2A2A2A2A2A2A62
:100EF0002A2A2A0A000A2A2A2A2A2A2A2A2A2A2ABC
:100F00002A2A2A2A2A2A2A2A2A2A2A2A2A2A2A2A41
:100F10002A2A2A2A2A2A2A2A2A2A2A2A2A2A2A2A31
:100F20002A0A0054696D65206973200057616B6956
:100F30006E672075702E2E2E0A002072616973650F
:100F4000642E2E2E0A00416C61726D20002D2D2D15
:100F50002D2D2D2D2D2D2D2D3D3D3D3D3D3D3D3D41
:100F60003D3D3D204177616B696E67203D3D3D3DD4
:100F70003D3D3D3D3D3D3D2D2D2D2D2D2D2D2D2D31
:100F80002D2D0A000A002052616E646F6D3D002015
:100F900054696D65723D002054696D652E20416372
:100FA000746976653D0020416C61726D20000A0015
:100FB0002052657065617461626C653D0020526508
:100FC0006C61793D002054696D652E204163746920
:100FD00076653D002054696D6572204F6E20000AD1
:100FE000002052657065617461626C653D0020523D
:100FF000656C61793D002054696D652E20416374F4
:101000006976653D002054696D6572204F666620E3
:10101000000A002061726520005765656B6C7920BD
:101020004461794F666673206F6620416C61726D12
:101030002000202879792F6D6D2F6464290A002003
:10104000796561726C792072657065617461626C3A
:101050006520002F002F00206973200020486F6C4E
:101060007964617920000A00536C65657074696D5C
:10107000652069732020000A00566572626F7369EB
:10108000747920697320200020454550524F4D202F
:10109000686173206265656E20696E697469616C50
:1010A000697A65640A0054696D652069732000528D
:1010B00065616C6C7920676F696E6720746F20734F
:1010C0006C6565702C206E6F77202E2E2E0A0054D2
:1010D00075726E696E6720737461747573206C65C8
:1010E00064206F66662E2E2E0A005377697463683B
:1010F000696E672072656C617973206F66662E2E4B
:101100002E0A0053657474696E672074696D657288
:1011100073206F66662E2E2E0A0053657474696EF6
:101120006720536C65657074696D65206269742E03
:101130002E2E0A00476F696E6720746F20736C65EE
:1011400065702E2E2E0A000000000800020100002B
:10115000030407000000000000000000000000255C
:101160000028002B0000000000240027002A0004B3
:10117000040404040404040202020202020303033E
:101180000303030102040810204080010204081038
:1011900020010204081020008C2C11241FBECFEF68
:1011A000D8E0DEBFCDBF26E0A8ECB3E001C01D92C1
:1011B000AB38B207E1F713E0A0E0B1E0EEE4F1E60E
:1011C00002C005900D92A83CB107D9F718E0CDEC0C
:1011D000D8E004C02197FE010E94652ECC3CD107C7
:1011E000C9F70E94BD1A0C94A5300C940000CF9250
:1011F000DF92EF92FF920F931F93CF93DF93EB0158
:101200007B012AE0E20EF11C8B016C01C61AD70AA1
:10121000C601800F911F0E94A02DF80181938F01BC
:10122000EE15FF05A9F7CE01DF91CF911F910F9128
:10123000FF90EF90DF90CF900895CF92DF92EF92E2
:10124000FF920F931F93CF93DF93EB017B0124E079
:10125000E20EF11C8B016C01C61AD70AC601800F81
:10126000911F0E94A02DF80181938F01EE15FF05BB
:10127000A9F7CE01DF91CF911F910F91FF90EF90D1
:10128000DF90CF9008956F927F928F929F92AF924E
:10129000BF92CF92DF92EF92FF920F931F93CF9363
:1012A000DF93EA012CE3C22ED12CE12CF12CA70113
:1012B00096010E94272E6883CA01B901A7019601F1
:1012C0000E94272E6983CA01B90128E130E040E07D
:1012D00050E00E94272E69017A016A83CA01B90190
:1012E0006C5F7F4F8F4F9F4F27E030E040E050E032
:1012F0000E94272E6F5F6B83812C912C540140E05C
:1013000034E6632E712C00E911E0242F30E02E54D6
:10131000384FF901E370FF27309789F4C901B30111
:101320000E94132E892B31F4C901B8010E94132E9B
:10133000892B29F48EE691E0A0E0B0E004C08DE6B0
:1013400091E0A0E0B0E0880E991EAA1EBB1ED50158
:10135000C401AA27BB27C816D906EA06FB0610F067
:101360004F5FD3CF4E83309799F4C90164E670E0A4
:101370000E94132E892B39F4C90160E971E00E94A3
:10138000132E892B29F48EE691E0A0E0B0E004C092
:101390008DE691E0A0E0B0E0881A990AAA0ABB0A9B
:1013A000C818D908EA08FB08C90164E670E00E9481
:1013B000132E8C01C90160E971E00E94132EAFE584
:1013C000B2E020E0213041F4309751F401151105CD
:1013D00029F4009729F402C04C9103C04DE101C0EB
:1013E0004CE150E060E070E0C416D506E606F70672
:1013F00040F0C41AD50AE60AF70A2F5F11962C307E
:1014000009F72F5F2D83C394CC82DF91CF911F9179
:101410000F91FF90EF90DF90CF90BF90AF909F9093
:101420008F907F906F900895CF92DF92EF92FF920E
:10143000C090C904D090CA04E090CB04F090CC04D2
:101440006C157D058E059F0571F06B017C0144E3F1
:1014500054E00E944309C092C904D092CA04E092A9
:10146000CB04F092CC04FF90EF90DF90CF900895E2
:101470000E94140A80913A0490E08E54984F089587
:10148000CF93DF93EB010E94A02D8883CE01DF91E3
:10149000CF910895CF93DF93EB010E94A02D888315
:1014A000CE01DF91CF910895BF92CF92DF92EF925C
:1014B000FF920F931F93CF93DF930DE314E08AE520
:1014C000E82EFF24F394C0E0B801C7010E941D0973
:1014D00084E0E80EF11C9701235C3B4FF901EB55CA
:1014E000F140D081F801D080F901ED55F140C08084
:1014F0003196B0808CE590E10E94A5198C2F0E9456
:10150000C61987E590E10E94A5198B2D0E94C61986
:1015100085E590E10E94A5198C2D0E94C61983E5EE
:1015200090E10E94A5198D2D0E94C6198FE390E1CC
:101530000E94A5198D2F90E00E94CD1982E390E1C1
:101540000E94A519CF5F0C5F1F4FCE3109F0BCCFB1
:10155000DF91CF911F910F91FF90EF90DF90CF908F
:10156000BF900895EF92FF920F931F93CF93DF9355
:10157000C82F89E190E10E94A5198C2F0E94C619FD
:1015800083E190E10E94A51985E9E82E82E0F82E1A
:1015900000E810E0D0E0CB54DB4F8881802319F0C5
:1015A000F701608101C06FE588E895E00E94CC14E6
:1015B0001F5F0695FFEFEF1AFF0A183071F781E100
:1015C00090E1DF91CF911F910F91FF90EF900C94DC
:1015D000A5191F93CF93DF93C2E5D1E01C2F1255BD
:1015E000BE016D597C4FCE010E94400A2196812F89
:1015F0000E94B20ACA3581E0D80781F7DF91CF9106
:101600001F910895CF92DF92EF92FF92CF93DF93D5
:1016100000D000D000D0CDB7DEB76B017C010E94B6
:10162000140A8091360490E0A0E0B0E089839A83A8
:10163000AB83BC838AE090E09E838D83C701B601B3
:101640000E94140A8091360490E00A971CF061E928
:1016500072E002C066EC73E088E895E00E94E8144E
:10166000CE0101960E946C196AE30E94CC14C70156
:10167000B6010E94140A8091350490E0A0E0B0E029
:1016800089839A83AB83BC838AE090E09E838D83B9
:10169000C701B6010E94140A8091350490E00A97B0
:1016A0001CF061E972E002C066EC73E088E895E046
:1016B0000E94E814CE0101960E946C196AE30E9410
:1016C000CC14C701B6010E94140A8091340490E042
:1016D000A0E0B0E089839A83AB83BC838AE090E08A
:1016E0009E838D83C701B6010E94140A8091340441
:1016F00090E00A971CF061E972E002C066EC73E0CA
:1017000088E895E00E94E814CE0101960E946C19C9
:1017100026960FB6F894DEBF0FBECDBFDF91CF91F6
:10172000FF90EF90DF90CF900895CF92DF92EF92ED
:10173000FF92CF93DF9300D000D000D0CDB7DEB7BB
:101740006B017C010E94140A8091380490E0A0E0B3
:10175000B0E089839A83AB83BC838AE090E09E8368
:101760008D83C701B6010E94140A8091380490E06D
:101770000A971CF061E972E002C066EC73E088E849
:1017800095E00E94E814CE0101960E946C196CE964
:1017900072E00E94E814C701B6010E94380A092EBF
:1017A000000CAA0BBB0B89839A83AB83BC838AE0B2
:1017B00090E09E838D83C701B6010E94140A209198
:1017C000390483E0289F90011124AFEBB4E080E05E
:1017D00090E0FC01E20FF31FE75FF14FE491ED931E
:1017E000019683309105A9F71092C2046FEB74E063
:1017F00088E895E00E94E8146CE972E088E895E0DA
:101800000E94E814CE0101960E946C1960E20E94C9
:10181000CC14C701B6010E94140A8091360490E0EE
:10182000A0E0B0E089839A83AB83BC838AE090E038
:101830009E838D83C701B6010E94140A80913604ED
:1018400090E00A971CF061E972E002C066EC73E078
:1018500088E895E00E94E814CE0101960E946C1978
:101860006AE30E94CC14C701B6010E94140A809159
:10187000350490E0A0E0B0E089839A83AB83BC8319
:101880008AE090E09E838D83C701B6010E94140A0E
:101890008091350490E00A971CF061E972E002C083
:1018A00066EC73E088E895E00E94E814CE010196AA
:1018B0000E946C196AE30E94CC14C701B6010E9411
:1018C000140A8091340490E0A0E0B0E089839A8308
:1018D000AB83BC838AE090E09E838D83C701B60111
:1018E0000E94140A8091340490E00A971CF061E988
:1018F00072E002C066EC73E088E895E00E94E814AC
:10190000CE0101960E946C1926960FB6F894DEBFA0
:101910000FBECDBFDF91CF91FF90EF90DF90CF90C2
:1019200008958F929F92AF92BF92CF92DF92EF92E3
:10193000FF921F93CF93DF93C0EAD1E010E080EADB
:10194000E82EF12CBE01C7010E94F7088AE0E80EDC
:10195000F11C6AE070E080E090E00E948E156A81E0
:101960007B818C819D810E94950BCE80DF80A88435
:10197000B9848880998085E090E10E94A519812F23
:101980000E94C61986EF9FE00E94A519C4010E941B
:10199000CD198EEE9FE00E94A519C5010E94CD19B8
:1019A00081EE9FE00E94A519C6010E94CD198FED1E
:1019B0009FE00E94A5191F5F2A96183019F6DF9143
:1019C000CF911F91FF90EF90DF90CF90BF90AF909D
:1019D0009F908F9008957F928F929F92AF92BF9227
:1019E000CF92DF92EF92FF920F931F93CF93DF93EB
:1019F000782EC0EFD1E000E010E080E5E82EF12C79
:101A000081E078120DC0BE01C7010E94F7088AE08C
:101A1000E80EF11C6AE070E080E090E00E948E1514
:101A20006A817B818C819D810E94950BCE80DF80B5
:101A3000A884B9848880998084ED9FE00E94A519CC
:101A4000C8010E94CD1985EC9FE00E94A519C40130
:101A50000E94CD198DEB9FE00E94A519C5010E943F
:101A6000CD1980EB9FE00E94A519C6010E94CD19F7
:101A70008EEA9FE00E94A5190F5F1F4F2A9608303B
:101A8000110509F0BDCFDF91CF911F910F91FF900C
:101A9000EF90DF90CF90BF90AF909F908F907F900E
:101AA00008957F928F929F92AF92BF92CF92DF92D2
:101AB000EF92FF920F931F93CF93DF93782EC0E5A1
:101AC000D1E000E010E0E12CF12C81E078120DC0B3
:101AD000BE01C7010E94F7088AE0E80EF11C6AE027
:101AE00070E080E090E00E948E156A817B818C819D
:101AF0009D810E94950BCE80DF80A884B984888068
:101B0000998086EA9FE00E94A519C8010E94CD191C
:101B100087E99FE00E94A519C4010E94CD198FE8B2
:101B20009FE00E94A519C5010E94CD1986E89FE09B
:101B30000E94A519C6010E94CD1984E89FE00E9469
:101B4000A5190F5F1F4F2A960830110509F0BDCF68
:101B5000DF91CF911F910F91FF90EF90DF90CF9089
:101B6000BF90AF909F908F907F900895EF92FF92DB
:101B70000F931F93CF93DF931F92CDB7DEB77C01F6
:101B8000FC0100811181C80169830E94A02D698137
:101B9000681719F0C8010E94A82DC7010F90DF91A6
:101BA000CF911F910F91FF90EF900895EF92FF92C8
:101BB0000F931F93CF93DF9300D0CDB7DEB78C0187
:101BC0007B01FB0160819A838983CE0101960E948B
:101BD000B60DF70161810F5F1F4F1A830983CE0194
:101BE00001960E94B60DC7010F900F90DF91CF9123
:101BF0001F910F91FF90EF900895AF92BF92CF92F7
:101C0000DF92EF92FF920F931F93CF93DF9300D059
:101C1000CDB7DEB78B016B0126E0C20ED11C7B0174
:101C20005C01A61AB70A95012E0D3F1DF7016191BF
:101C30007F013A832983CE0101960E94B60DEC14F0
:101C4000FD0489F7C8010F900F90DF91CF911F918C
:101C50000F91FF90EF90DF90CF90BF90AF900895DD
:101C60000F931F93CF93DF9300D0CDB7DEB78B01D7
:101C7000FB0160819A838983CE0101960E94B60D93
:101C8000C8010F900F90DF91CF911F910F91089590
:101C900081E080933B0484E391E10E94A5196BE30A
:101CA00074E088ED91E00E94300E8AE191E10E949B
:101CB000A51983E091E10E94A51980E090E0FC0164
:101CC000E051FE4F11821082FC01E056FE4F11825E
:101CD00010820A968035910591F78AEE90E10E9474
:101CE000A51961E087E00E94421561E086E00E944C
:101CF000421561E085E00E94421561E084E00E94A7
:101D000042158FEC90E10E94A51960E08DE00E94E1
:101D100042158FEA90E10E94A51981E08093BD04ED
:101D200086EA90E10E94A5190E9473170C94950B06
:101D3000AF92BF92CF92DF92EF92FF920F931F93D9
:101D4000CF93DF9300D0CDB7DEB78B016B0124E0DA
:101D5000C20ED11C7B015C01A61AB70A95012E0D9B
:101D60003F1DF70161917F013A832983CE010196DE
:101D70000E94B60DEC14FD0489F7C8010F900F9076
:101D8000DF91CF911F910F91FF90EF90DF90CF9057
:101D9000BF90AF900895AF92BF92CF92DF92EF9233
:101DA000FF920F931F93CF93DF9300D0CDB7DEB791
:101DB0008B016B012AE0C20ED11C7B015C01A61ACB
:101DC000B70A95012E0D3F1DF70161917F013A83FE
:101DD0002983CE0101960E94B60DEC14FD0489F70B
:101DE000C8010F900F90DF91CF911F910F91FF903D
:101DF000EF90DF90CF90BF90AF9008952F923F92D9
:101E00004F925F926F927F928F929F92AF92BF920A
:101E1000CF92DF92EF92FF920F931F93CF93DF93B6
:101E2000CDB7DEB72D970FB6F894DEBF0FBECDBF8E
:101E300065E972E0CE0108960E94B7140E947317FC
:101E40002B013C010E94140A809136048B83C3014C
:101E5000B2010E94140A809135048A83C301B20141
:101E60000E94140A8091340489832DE3C22E24E059
:101E7000D22E00E414E0312C3AE5E32EFF24F39453
:101E8000BB24B394B601C7010E941D0944E0E40ECF
:101E9000F11CF80131978081F60190819D83F80152
:101EA000329790819E83825E8F83CE0101960E943D
:101EB000FD176415750586059705F9F48091BD0435
:101EC000811110C0C301B2010E94950B87EC9EE006
:101ED0000E94A51985E99EE00E94A51987E69EE06B
:101EE0000E94A519F8018081811105C0B082B60158
:101EF000C7010E94980E33243394F4E0CF0ED11C16
:101F00000C5F1F4F42EDE41641E0F40609F0BACF32
:101F1000C301B2010E94140A809139048E83C30167
:101F2000B2010E94140A809138048D83C301B2016A
:101F30000E94380A825B8F8300E511E085EBC82E92
:101F400084E0D82EE12CF12C90E8A92EB12C2C2C79
:101F500085EB94E0281AF60191906F01C301B2015C
:101F60000E94140A292D30E0809137048150A50188
:101F700002C0559547958A95E2F7CA0182239323BB
:101F8000892B91F1C301B2010E94140A9090390487
:101F9000F80162817381848195810E94140A809185
:101FA0003904981221C0C301B2010E94140A909012
:101FB0003804F80162817381848195810E94140A3A
:101FC00080913804981210C0C301B2010E94380AEF
:101FD0004C01F80162817381848195810E94380AE5
:101FE0008816990609F479C0FAE0EF0EF11C065F35
:101FF0001F4F40E5E416F10409F0A9CFCE01089681
:102000000E94B214311065C000E511E0F12CF80116
:10201000808591858336910509F054C08081918136
:10202000019709F04FC00E947317F80182809380D6
:10203000A480B580DC01CB0188199909AA09BB09E4
:102040004E97A105B105F0F58DE49FE00E94A5191A
:1020500086E49FE00E94A5198F2D0E94C6198AE38D
:102060009FE00E94A5198CE29FE00E94A51983E2DF
:102070009FE00E94A5190E9473170E9473170E9487
:10208000950B1092BD0410923B046BE374E088ED55
:1020900091E00E94300EF80182819381A481B58184
:1020A00080589E4AAE4FBF4F82839383A483B583EB
:1020B000B801C801805591400E94CB0E85EF9EE08B
:1020C0000E94A519F394065F1F4FF8E0FF129FCFFF
:1020D00041C081E08093BD043DC0F80162817381FD
:1020E000848195810E94140A809136048B83F801C3
:1020F00062817381848195810E94140A80913504E4
:102100008A83F80162817381848195810E94140A17
:10211000809134048983CE0101960E94FD17DC0171
:10212000CB0180589E4AAE4FBF4FF8018283938304
:10213000A483B58380E69EE00E94A519822D0E94AB
:10214000C61981E39EE00E94A519B801C7010E944B
:10215000CB0E4ACF2D960FB6F894DEBF0FBECDBF83
:10216000DF91CF911F910F91FF90EF90DF90CF9073
:10217000BF90AF909F908F907F906F905F904F90A7
:102180003F902F9008958F929F92AF92BF92CF92DF
:10219000DF92EF92FF920F931F93CF93DF9300D0C4
:1021A000CDB7DEB7F0E5EF2EF1E0FF2E812CAAE7E8
:1021B0009A2EA9E4AA2EAAE5BA2E00E010E0F701B3
:1021C0001182108282829382A482B5821782168243
:1021D00011861086B701C8010E94CB0E065F1F4F03
:1021E000FAE0EF0EF11C8FEF881A980AA80AB80AD5
:1021F0000035110521F770EFE72E71E0F72EEAE0C8
:102200008E2E912CA12CB12CF7011182108282828A
:102210009382A482B5821782168211861086B70136
:10222000C8010E94CB0E065F1F4FFAE0EF0EF11CB3
:10223000003A110549F750EAE52E51E0F52E6AE023
:10224000862E912CA12CB12CF70111821082828252
:102250009382A482B5821782168211861086B701F6
:10226000C8010E94CB0E065F1F4FFAE0EF0EF11C73
:10227000003F110549F744E0E42E44E0F42EF70155
:10228000118210821282138214821582B701C80152
:102290000E94FD0D0A5F1F4FF6E0EF0EF11C0032A9
:1022A00081E0180761F734EDE32E33E0F32EF701F8
:1022B000118210821282138214821582B701C80122
:1022C0000E94FD0D0A5F1F4FF6E0EF0EF11C003576
:1022D00081E0180761F722E9E22E22E0F22EF701F1
:1022E00061917F011A830983CE0101960E94B60D88
:1022F0000F5F1F4F0335F1E01F0789F795EBE92EBC
:1023000094E0F92E02E511E0F7011082B701C8014F
:102310000E94300E0F5F1F4FFFEFEF1AFF0A0A35C2
:1023200081E0180789F78DE3C82E84E0D82EF12CC0
:10233000F601F082C801835C9B4FFC01E955F14036
:1023400010823196108231961082B601C8010E9427
:10235000980E0C5F1F4FF394F4E0CF0ED11C8EE16A
:10236000F812E6CF81E090E09A838983BE016F5F27
:102370007F4F87ED91E00E94D60D1A821982BE012F
:102380006F5F7F4F88ED91E00E94D60D88E890E165
:102390000E94A51981E00E94510D81E00E94EB0C82
:1023A0000E94910C0E94E90A0E94540A6CE374E0B6
:1023B00087ED91E00E94400A10913C0489E790E18A
:1023C0000E94A519812F0E94C61987E790E10E94FB
:1023D000A5196BE374E088ED91E00E94400A10912A
:1023E0003B0488E690E10E94A519812F0E94C6193E
:1023F00086E690E10E94A5190F900F90DF91CF9192
:102400001F910F91FF90EF90DF90CF90BF90AF9012
:102410009F908F900895CF92DF92EF92FF920F934B
:102420001F93CF93DF936C017A018B01C0E0D0E062
:10243000CE15DF0589F0D8016D918D01D601ED91A2
:10244000FC910190F081E02DC6010995892B11F4D2
:102450007E0102C02196ECCFC701DF91CF911F9181
:102460000F91FF90EF90DF90CF900895FC01538D76
:10247000448D252F30E0842F90E0821B930B54175E
:1024800010F0CF96089501970895FC01918D828DEB
:10249000981761F0828DDF01A80FB11D5D968C91B8
:1024A000928D9F5F9F73928F90E008958FEF9FEFC3
:1024B0000895FC01918D828D981731F0828DE80F7F
:1024C000F11D858D90E008958FEF9FEF0895FC0139
:1024D000918D228D892F90E0805C9F4F821B910906
:1024E0008F739927089588E895E00E94671221E08C
:1024F000892B09F420E0822F0895FC01848DDF01EF
:10250000A80FB11DA35ABF4F2C91848D90E0019666
:102510008F739927848FA689B7892C93A089B18955
:102520008C9180648C93938D848D981306C002885F
:10253000F389E02D80818F7D80830895EF92FF9253
:102540000F931F93CF93DF93EC0181E0888F9B8DD6
:102550008C8D981305C0E889F989808185FD24C098
:10256000F62E0B8D10E00F5F1F4F0F731127E02E1B
:102570008C8DE8120CC00FB607FCFACFE889F989F8
:10258000808185FFF5CFCE010E947D12F1CF8B8D2A
:10259000FE01E80FF11DE35AFF4FF0820B8FEA892D
:1025A000FB898081806207C0EE89FF896083E889AA
:1025B000F98980818064808381E090E0DF91CF9110
:1025C0001F910F91FF90EF900895CF93DF93EC014F
:1025D000888D8823C9F0EA89FB89808185FD05C043
:1025E000A889B9898C9186FD0FC00FB607FCF5CF7D
:1025F000808185FFF2CFA889B9898C9185FFEDCFC5
:10260000CE010E947D12E7CFDF91CF91089580E047
:1026100090E0892B29F00E94731281110C94000024
:1026200008953FB7F89480911E0590911F05A091E1
:102630002005B091210526B5A89B05C02F3F19F0B4
:102640000196A11DB11D3FBFBA2FA92F982F882732
:10265000820F911DA11DB11DBC01CD0142E0660F8D
:10266000771F881F991F4A95D1F7089585ED8093AC
:10267000BC008091BC0084FDFCCF10922706089519
:102680004091F404262F30E0240F311D2132310512
:10269000DCF4209127062430C9F4FC0180E090E0AE
:1026A000861758F43091F4042191DC01AE52BB4FEF
:1026B000A30FB11D2C930196F3CF8091F404680F02
:1026C0006093F40480E0089581E0089582E0089525
:1026D0000895E0912B0680912A06E81730F4F0E087
:1026E000EE5DFA4F808190E008958FEF9FEF08959F
:1026F00090912B0680912A06981750F4E92FF0E06C
:10270000EE5DFA4F208130E09F5F90932B0602C070
:102710002FEF3FEFC901089580912A0690E02091A4
:102720002B06821B91090895CF92DF92EF92FF92C0
:102730000F931F93CF93DF937C01262F972F8A014E
:1027400080916605882391F0C62FD72F6E01C40EA5
:10275000D51ECC15DD0571F06991D701ED91FC9185
:102760000190F081E02DC7010995F3CF642F822FEE
:102770000E944013C801DF91CF911F910F91FF90EC
:10278000EF90DF90CF900895CF93DF931F92CDB756
:10279000DEB76983209166052223D1F020912806B7
:1027A000203240F021E030E0FC013383228380E0DE
:1027B00090E015C080912906E82FF0E0E959FA4F22
:1027C000998190838F5F809329068093280605C0A6
:1027D00061E0CE0101960E94401381E090E00F90ED
:1027E000DF91CF910895089580E090E00895982FAB
:1027F00092959F702AEF929F800D112408950E9458
:102800006230EF92FF920F931F93CF93DF93EC010F
:102810007B018A0188819981009729F02A813B8177
:1028200024173507F8F4B8016F5F7F4F0E94982F87
:10283000009759F0998388831B830A832C813D81FB
:10284000232B81F4FC0110820DC0888199810097AF
:1028500011F00E94002F198218821D821C821B8297
:102860001A8207C01D830C83B701888199810E9459
:102870008430CE01DF91CF911F910F91FF90EF90A7
:102880000895AF92BF92CF92DF92EF92FF920F9393
:102890001F93CF93DF93FC0124813581FB01448199
:1028A00055818901041B150B4115510551F1211565
:1028B000310539F12417350720F10217130718F0F5
:1028C0008901015011097B01FC01A080B180C50183
:1028D000DFEFCFEF6501C00ED11EC816D906A0F0FC
:1028E000F701608171810E948B30009769F09C0133
:1028F0002A193B090217130710F0D22FC32F019694
:10290000ECCF8FEF9FEF02C08D2F9C2FDF91CF91E7
:102910001F910F91FF90EF90DF90CF90BF90AF90FD
:102920000895CF93DF93EC016115710559F0FB0118
:1029300001900020E9F73197AF01461B570B0E9429
:1029400001140CC088819981009711F00E94002F1A
:10295000198218821D821C821B821A82CE01DF918D
:10296000CF910895FC01808191810C94002FFC018E
:1029700011821082138212821582148261157105F0
:1029800051F0FB0101900020E9F73197AF01461BA0
:10299000570B0C9401140895DC01ED91FC9101900A
:1029A000F081E02D09946115710579F0FB0101902A
:1029B0000020E9F73197AF01461B570BDC01ED9181
:1029C000FC910280F381E02D099480E090E008956D
:1029D0000C94D3141F920F920FB60F9211242F93C1
:1029E0003F934F935F936F937F938F939F93AF9397
:1029F000BF93EF93FF9388E895E00E947D12FF91CB
:102A0000EF91BF91AF919F918F917F916F915F9166
:102A10004F913F912F910F900FBE0F901F901895DF
:102A20001F920F920FB60F9211242F938F939F93A3
:102A3000EF93FF93E0919805F09199058081E091E3
:102A40009E05F0919F0582FD12C090818091A105A5
:102A50008F5F8F732091A205821751F0E091A1053D
:102A6000F0E0E857FA4F958F8093A10501C080816F
:102A7000FF91EF919F918F912F910F900FBE0F902B
:102A80001F90189590E0FC01E95BFE4E3491FC012B
:102A9000ED57FE4E2491FC01E159FE4EE491EE23E8
:102AA00009F43BC0332339F1333091F038F431303D
:102AB000A9F0323001F584B58F7D12C0373091F026
:102AC0003830A1F03430B9F4809180008F7D03C09C
:102AD000809180008F77809380000DC084B58F77C0
:102AE00084BD09C08091B0008F7703C08091B00091
:102AF0008F7D8093B000F0E0EE0FFF1FE55AFE4E91
:102B0000A591B4918FB7F894EC91611103C0209511
:102B10002E2301C02E2B2C938FBF08958F929F924E
:102B2000AF92BF92CF92DF92EF92FF926B017C0146
:102B30000E9411134B015C01C114D104E104F104A2
:102B4000F1F00E941113DC01CB0188199909AA093F
:102B5000BB09883E9340A105B10570F321E0C21A7C
:102B6000D108E108F10888EE880E83E0981EA11CC8
:102B7000B11CC114D104E104F10419F7DDCFFF90B9
:102B8000EF90DF90CF90BF90AF909F908F9008957F
:102B90002FB7F89460911A0570911B0580911C0560
:102BA00090911D052FBF08951F920F920FB60F929F
:102BB00011242F933F938F939F93AF93BF93809153
:102BC0001A0590911B05A0911C05B0911D0530912F
:102BD000190523E0230F2D3720F40196A11DB11D07
:102BE00005C026E8230F0296A11DB11D20931905EB
:102BF00080931A0590931B05A0931C05B0931D05A7
:102C000080911E0590911F05A0912005B09121058E
:102C10000196A11DB11D80931E0590931F05A093E1
:102C20002005B0932105BF91AF919F918F913F9166
:102C30002F910F900FBE0F901F9018951F920F921B
:102C40000FB60F9211242F933F934F935F936F937F
:102C50007F938F939F93AF93BF93EF93FF93809155
:102C6000B900887F803609F49CC068F5883209F481
:102C70005BC090F4803109F454C038F4882309F41F
:102C8000F6C0883009F44DC0F6C0883109F44CC054
:102C9000803209F45DC0EFC0803409F468C048F4A4
:102CA000803309F455C0883309F0E5C08093650589
:102CB000D8C0803509F44FC0883509F45DC0883428
:102CC00009F0D9C0D6C0883909F4C7C0A8F488373C
:102CD00009F467C038F4883609F463C0803709F412
:102CE00060C0C9C0883809F4B8C0803909F45FC031
:102CF000803809F0C0C05BC0803B09F486C038F45E
:102D0000803A09F466C0883A09F47FC0B4C0803CB8
:102D100009F4A7C0883C09F4A4C0883B09F48AC020
:102D2000AAC08091420510C090916405809163050E
:102D3000981770F5E091640581E08E0F809364052B
:102D4000F0E0ED5BFA4F80818093BB0085EC86C09C
:102D5000809365058EC0E091640581E08E0F8093BD
:102D600064058091BB00F0E0ED5BFA4F80839091A9
:102D70006405809163056EC0E091640581E08E0F6B
:102D8000809364058091BB00F0E0ED5BFA4F808397
:102D90008091260681116DC081E08093250684EA2A
:102DA00061C083E08093270610921805CFCF8091F1
:102DB0001805803208F051C0E091180581E08E0FAF
:102DC000809318058091BB00F0E0E850FB4F8083B2
:102DD000BDCF85EC8093BC0010922706809118052A
:102DE000803230F4E0911805F0E0E850FB4F10829B
:102DF0006091180570E0E091F604F091F70488EF17
:102E000094E009951092180536C084E08093270657
:102E10001092F5041092F404E091F204F091F3049E
:102E200009958091F404811105C081E08093F40438
:102E30001092D204E091F50481E08E0F8093F504A6
:102E4000F0E0EE52FB4F80818093BB009091F5043F
:102E50008091F404981708F479CF85E88093BC003A
:102E60000AC085EC8093BC001092270604C0109223
:102E700065050E943613FF91EF91BF91AF919F912D
:102E80008F917F916F915F914F913F912F910F9013
:102E90000FBE0F901F9018956093CC037093CD03D5
:102EA0008093CE039093CF03DC01CB01845D9E4FD2
:102EB000AF4FBF4F8093C8039093C903A093CA0339
:102EC000B093CB0382E090E09093D3038093D2033E
:102ED0000E94C8156093CD047093CE048093CF04F4
:102EE0009093D0040895CF92DF92EF92FF920F93C8
:102EF0001F930E94C815C090CD04D090CE04E090DE
:102F0000CF04F090D0048B019C010C191D092E09EF
:102F10003F098091CC039091CD03A091CE03B09155
:102F2000CF03083E134021053105D0F00196A11DC5
:102F3000B11D8093CC039093CD03A093CE03B093A7
:102F4000CF03B701A60148515C4F6F4F7F4F4093AD
:102F5000CD045093CE046093CF047093D004C9CFB6
:102F60004091C8035091C9036091CA037091CB038B
:102F700084179507A607B70788F1E091D003F09171
:102F8000D103309759F109956115710581059105B6
:102F900019F00E944C1722C08091CC039091CD0370
:102FA000A091CE03B091CF03845D9E4FAF4FBF4F32
:102FB0008093C8039093C903A093CA03B093CB0333
:102FC00081E090E02091D2033091D303232B11F4C0
:102FD00080E090E09093D3038093D2036091CC0380
:102FE0007091CD038091CE039091CF031F910F91EB
:102FF000FF90EF90DF90CF9008956F927F928F9225
:103000009F92AF92BF92CF92DF92EF92FF920F9377
:103010001F93CF93DF93EC01EE81AE2FB0E020E859
:1030200033E341EE51E00E94B62D4B015C0122EBEF
:1030300037E0FD0104E610E080E9E82EFF24F39478
:10304000C901825B97408E179F07DCF4C90183702A
:103050009927892B99F4C901B8010E94132E892B55
:1030600031F4C901B7010E94132E892B39F480E88D
:10307000880E81E5981E81E0A81EB11C2F5F3F4F8E
:10308000DFCF6D80712CEE54F84FCF0164E670E015
:103090000E94132E7C01CF0160E971E00E94132E83
:1030A0006C0101E010E0E370FF27061517052CF511
:1030B0000230110581F4309771F4E114F10419F430
:1030C000C114D10441F480E8880E8BE3981E86E297
:1030D000A81EB11C0FC0D801A25ABD4FAC91B0E0E0
:1030E00020E831E541E050E00E94B62D860E971EA3
:1030F000A81EB91E0F5F1F4FD8CF49812A8130E02B
:10310000A0E1BEE00E94F82D6B017C01242F30E08D
:10311000ACE3B0E00E94F82DDC01CB018C0D9D1DCD
:10312000AE1DBF1D28816C017D01C20ED11CE11CAA
:10313000F11CAC81B0E0119720E831E541E050E0AE
:103140000E94492EDC01CB018C0D9D1DAE1DBF1DC3
:10315000BC01CD01680D791D8A1D9B1DDF91CF91AA
:103160001F910F91FF90EF90DF90CF90BF90AF90A5
:103170009F908F907F906F900895CF93DF93CDB7FE
:10318000DEB727970FB6F894DEBF0FBECDBF81E044
:103190008093660588E68093870510922906109231
:1031A000280660E08CE296E00E94C41381E00E9451
:1031B000FD19882331F08093D10460E070E0CB01E9
:1031C0003FC067E088E60E945A1A10922B0680934F
:1031D0002A068CE296E00E9478138F770E94F713FC
:1031E00089838CE296E00E9478130E94F7138A8309
:1031F0008CE296E00E9478138F7B0E94F7138B83FA
:103200008CE296E00E9478138C838CE296E00E9418
:1032100078130E94F7138D838CE296E00E94781356
:103220008F770E94F7138E838CE296E00E947813CA
:103230000E94F713825E8F83CE0101960E94FD17D4
:1032400027960FB6F894DEBF0FBECDBFDF91CF91AA
:1032500008958F929F92AF92BF920F931F93CF9337
:10326000DF93CDB7DEB7A1970FB6F894DEBF0FBEE0
:10327000CDBF19A2423008F44AE08E010F5D1F4F06
:10328000842E912CA12CB12CA50194010E94272EF3
:10329000E62FB901CA0101501109EA3014F4E05DCA
:1032A00001C0E95CD801EC93232B242B252B61F77B
:1032B000B80188E895E00E94D314A1960FB6F8945F
:1032C000DEBF0FBECDBFDF91CF911F910F91BF9099
:1032D000AF909F908F900895CF92DF92EF92FF92E0
:1032E000FC0144815581C080D180E280F38041158A
:1032F000510561F4E0918805F09189050190F08114
:10330000E02D6C2D88E895E0099518C04A305105EC
:1033100089F4F7FE0EC06DE288E895E00E94CC14B7
:1033200066277727CB016C197D098E099F094AE032
:1033300003C04AE0C701B6010E94291988E895E058
:10334000FF90EF90DF90CF9008950F931F93CF934E
:10335000DF938C01C0E0D0E0F801EC0FFD1F649119
:10336000662371F0E0918805F09189050190F08164
:10337000E02D88E895E00995892B11F02196ECCF96
:10338000CE01DF91CF911F910F910895682F70E0CA
:1033900080E090E04AE00C942919CF92DF92EF92FE
:1033A000FF92CF93DF936C01990FEE08FF08F7FEB1
:1033B00019C06DE288E895E00E94CC14EC01662704
:1033C0007727CB016C197D098E099F094AE00E947D
:1033D00029198C0F9D1FDF91CF91FF90EF90DF9007
:1033E000CF9008954AE0C701B601DF91CF91FF90D9
:1033F000EF90DF90CF900C942919382F2091280658
:1034000090918705213208F049C0809127068111EB
:10341000FCCF42E040932706309326063FEF3093DF
:1034200065051092640520936305A7E6B5E043E4C3
:1034300055E0FA013E2F341B321718F43D913193B9
:10344000F9CF1092420520914205990F922B90934B
:10345000420590912506913061F4109225069091D5
:1034600042059093BB009091BC0093FDF8CF95EC82
:1034700001C095EE9093BC00909127069230E1F345
:10348000909165059F3F79F080916505803241F00C
:1034900080916505803331F084E005C081E003C090
:1034A00082E001C083E01092290610922806109253
:1034B00066050895909127069111FCCF91E09093B5
:1034C0002706909326062FEF20936505109264053A
:1034D000260F209363059093420590914205880F33
:1034E000892B8093420580912506813061F41092EA
:1034F0002506809142058093BB008091BC0083FD2E
:10350000F8CF85EC01C085EE8093BC008091270642
:103510008130E1F380916405861710F460916405B1
:10352000A3E4B5E022E235E0F9018E2F821B861775
:1035300018F48D918193F9CF862F089590E0FC01C6
:10354000ED57FE4E2491FC01E159FE4E84918823F3
:1035500099F090E0880F991FFC01EB59FE4EA59160
:10356000B491FC01E55AFE4E859194918FB7F89481
:10357000EC91E22BEC938FBF0895CF93DF93CDB7FF
:10358000DEB7CF54D1090FB6F894DEBF0FBECDBF62
:10359000789484B5826084BD84B5816084BD85B52E
:1035A000826085BD85B5816085BD80916E0081603A
:1035B00080936E00109281008091810082608093E0
:1035C00081008091810081608093810080918000E2
:1035D0008160809380008091B10084608093B1000D
:1035E0008091B00081608093B00080917A00846007
:1035F00080937A0080917A00826080937A00809133
:103600007A00816080937A0080917A00806880934C
:103610007A001092C10081E491E4A0E022968DAF7F
:103620009EAFAFAF22978DE00E949E1A87E00E9466
:103630009E1A86E00E949E1A85E00E949E1A84E0EF
:103640000E949E1AE0919805F091990582E080838E
:10365000E0919405F09195051082E0919605F09126
:10366000970580E180831092A005E0919C05F09180
:103670009D0586E08083E0919A05F0919B0580810D
:1036800080618083E0919A05F0919B05808188603C
:103690008083E0919A05F0919B058081806880830A
:1036A000E0919A05F0919B0580818F7D80830E9437
:1036B0007317C090CC03D090CD03E090CE03F09070
:1036C000CF032DEB38E13093D1032093D003C09288
:1036D000C803D092C903E092CA03F092CB03672BD0
:1036E000682B692B29F40E947317DD24D39403C03F
:1036F0000E947317D12C0E9473178091D20390916E
:10370000D303029759F08CE492E00E94A5196FE868
:1037100072E088E895E00E94D31418C080E392E03C
:103720000E94A5196FE872E088E895E00E94D31422
:1037300087E292E00E94A5190E9473170E94950BE0
:1037400060E972E088E895E00E94E814BE01615CDF
:103750007F4F80E591E00E944A0A6FE370E06C0FB2
:103760007D1F6F5F7F4F81E591E00E944A0ABE0195
:10377000615C7F4FCE0101960E94B7148D819E81BE
:10378000892B49F062E972E089819A810E947B303D
:1037900011E0892B09F010E0CE0101960E94B214CD
:1037A000112309F45BC0BE01615C7F4FCE0101961D
:1037B0000E94B71480E090E00E94CD1985E292E06B
:1037C0000E94A5194D815E8169817A8188E895E022
:1037D0000E940B1288E092E00E94A519CE0101968A
:1037E0000E94B21481EF91E00E94A51981E00E942D
:1037F000510D81E00E94EB0C0E94910C0E94E90A9D
:103800000E94540A6CE374E087ED91E00E94400A44
:1038100010913C0482EE91E00E94A519812F0E9434
:10382000C61980EE91E00E94A5196BE374E088ED63
:1038300091E00E94400A10913B0481ED91E00E94CA
:10384000A519812F0E94C6198FEC91E00E94A5193D
:1038500064E0E62E64E0F62E10E003C00E94C31080
:10386000F7CFD70112966D917D918D919C9115970F
:103870000E94950BF701A080B1808AEB91E00E9435
:10388000A519812F0E94C6198BEA91E00E94A51903
:10389000C5010E94CD1989EA91E00E94A5191F5F18
:1038A000F6E0EF0EF11C1830E1F654EDE52E53E092
:1038B000F52E10E0D70112966D917D918D919C911E
:1038C00015970E94950BF701A080B18083E991E0E4
:1038D0000E94A519812F0E94C61984E891E00E94D8
:1038E000A519C5010E94CD1982E891E00E94A51991
:1038F0001F5FF6E0EF0EF11C1830E1F606E512E06E
:1039000044E0F42EF00E61E0D8018D918D010E940B
:1039100042156AEF70E080E090E00E948E15F01290
:10392000F2CFDD2009F492C180E491E00E94A51954
:1039300080E1E6E4F2E0DE01919601900D928A9535
:10394000E1F76BE374E088ED91E00E94400A10918A
:103950003B0411116DC11092BD040E9473176B01DD
:103960007C010E94140A809139048EABC701B60114
:103970000E94140A809138048DABC701B6010E94E1
:10398000380A825B8FAB7E01B8E3EB0EF11C03EDCE
:1039900011E0C8010E94A02DF70181937F010F5F04
:1039A0001F4F073DF1E01F07A1F78CE291E00E9455
:1039B000A51968AD79AD8AAD9BAD0E94950B8AE2E1
:1039C00091E00E94A5199E012F5F3F4F7901690187
:1039D00000E010E0F801E05BFE4F82809380A4805D
:1039E000B580C501B4010E94140A809136048BABE6
:1039F000C501B4010E94140A809135048AABC50147
:103A0000B4010E94140A8091340489ABCE01C1969E
:103A10000E94FD17F801E050FF4F62837383848397
:103A20009583D6016D937D938D939D936D01F801E0
:103A3000E051FE4F11821082F801E056FE4F1182D4
:103A40001082065F1F4F0035110521F687E090E0D8
:103A5000FE01319620E030E028173907DCF441916F
:103A600051916191719180809180A280B380841680
:103A70009506A606B70658F4DF0114978D929D921D
:103A8000AD92BC92139740835183628373832F5FFF
:103A90003F4FE2CF0197E1F6FE01B1969F01D701BA
:103AA0004D915D916D917D917D01A0E0B1E080E04F
:103AB00090E012968D909D90AD90BC901597481512
:103AC00059056A057B0511F49183808301961A9646
:103AD0008830910571F73296E216F30601F7FE0180
:103AE000F1967F0196E0C92ED12C2AE0B22E30E863
:103AF000632E712CD7019E908E907D01B89C800121
:103B0000B99C100D1124F801E050FF4F2280338042
:103B1000448055800E9473172616370648065906BA
:103B200008F07CC0005B1E4FF801808591858835C8
:103B3000910589F40E94FE0E8AE0889DF001899D1E
:103B4000F00D1124E05BFE4F808591850E94CD1918
:103B500085E191E079C08336910561F34080518021
:103B600087E091E00E94A519C4010E94CD198DEF54
:103B700090E00E94A519C2010E94CD198BEF90E040
:103B80000E94A519F80162817381848195810E9448
:103B9000950BD8018D919C9111970197D9F51896A5
:103BA0008D919C911997B89EF001B99EF00D11244A
:103BB000E051FE4F46805780B1E04B16510451F55D
:103BC000F601EB54FB4F8180912C0E9473170E94E9
:103BD000140A809137048150F30102C0F595E795EE
:103BE0008A95E2F78E229F22892819F08BED90E0CA
:103BF00013C0D80118968D919C911997B89EF00129
:103C0000B99EF00D1124E051FE4F5182408285ECA7
:103C100090E002C084E990E00E94A519B1E0CB1ABF
:103C2000D108EEEFCE16EFEFDE0609F063CF0EC03F
:103C300081E08093BD0485E890E00E94A519812F62
:103C40000E94C61988E690E00E94A5198091BD04E3
:103C5000811147C300E511E0C12CD12C312CD801D2
:103C60008D919C911197019709F0FBC018968D9149
:103C70009C911997CC970CF0F4C08091BD048111F0
:103C8000F0C00E947317F8014280538064807580F1
:103C9000461A570A680A790A0E9473174B015C0199
:103CA0000E94140A809139048E83C501B4010E94D8
:103CB000140A809138048D83C501B4010E94380A2A
:103CC000825B8F83C501B4010E94140A809136047F
:103CD0008B83C501B4010E94140A809135048A8344
:103CE000C501B4010E94140A80913404898380E5DF
:103CF000E82E81E0F82E25EB34E02D963FAF2EAF75
:103D00002D97A12CB12C2C962FAD2C9745EB54E080
:103D1000241B2E962FAF2E972D96AEADBFAD2D97AF
:103D20009D902D96BFAFAEAF2D970E9473170E9446
:103D3000140A292D30E0809137048150E0E8F0E04A
:103D400002C0F595E7958A95E2F7CF018223932388
:103D5000892BB9F10E9473170E94140A90903904BC
:103D6000D70112966D917D918D919C9115970E942E
:103D7000140A80913904981224C00E9473170E947B
:103D8000140A90903804F7016281738184819581CF
:103D90000E94140A80913804981213C00E9473176D
:103DA0000E94380A4C01D70112966D917D918D9138
:103DB0009C9115970E94380A8816990611F40C9464
:103DC0004A2CBAE0AB0EB11CEAE0EE0EF11CF0E5B5
:103DD000AF16B10409F097CF22E1421651046104F5
:103DE000710408F08EC08EE094E00E94A5194AE0AC
:103DF000C301B2010E94291989E094E00E94A5192B
:103E000082E094E00E94A519832D0E94C61986EFD6
:103E100093E00E94A519D80118968D919C9119974D
:103E20002AE0289FF001299FF00D1124E051FE4F58
:103E30008D919C9111979183808312968D919D9184
:103E40000D90BC91A02D80589E4AAE4FBF4FF801F7
:103E500082839383A483B583B801C6010E94CB0EED
:103E600050C00E947317D80112964D905D906D90CE
:103E70007C90159753014201861A970AA80AB90A3D
:103E8000BAE08B169104A104B104D8F5F8012081A1
:103E9000318121303105A9F520853185283531055D
:103EA00081F5D301C20180589E4AAE4FBF4F828335
:103EB0009383A483B583B801C6010E94CB0E89EC1D
:103EC00093E00E94A51982EC93E00E94A519832D2E
:103ED0000E94C61986EB93E00E94A51983EB93E03C
:103EE0000E94A5194AE0C501B4010E9429198EEA71
:103EF00093E00E94A5190E94480E80E893E00E947A
:103F0000A5193394065F1F4FFAE0CF0ED11C20E5B0
:103F1000C216D10409F0A3CEE0EFAE2EE1E0BE2E32
:103F2000F0EAEF2EF1E0FF2EA9E58A2EA6E09A2E08
:103F3000B4ED2B2EB3E03B2E370114E0C12E14E07C
:103F4000D12E85012C961FAE2C97D8018D919C9176
:103F50001197019709F0B8C08091BD048111B4C0D8
:103F60001896ED91FC911997EA5AFD4F60E0808117
:103F70000E9442150E94C815F401208131814281BE
:103F80005381DC01CB01821B930BA40BB50B893E43
:103F90009340A105B10508F497C0F6018281938191
:103FA000A481B5810196A11DB11D82839383A48351
:103FB000B58380913C048130A9F5D80118964D90C5
:103FC0005C901997F201EA5AFD4F208186E793E051
:103FD00060962FAF60970E94A5192C968FAD2C97F5
:103FE0000E94C6198BE693E00E94A519C2010E94A7
:103FF000CD1989E693E00E94A51960962FAD6097D0
:10400000822F0E94C61987E693E00E94A519F60147
:1040100062817381848195810E94020B80E493E028
:104020000E94A5190E94C815D4016D937D938D93AC
:104030009C931397F6014281538164817581F80145
:1040400082819381A481B581481759076A077B074C
:10405000D8F14084518480E393E00E94A5192C9606
:104060008FAD2C970E94C61988E193E00E94A51994
:10407000C2010E94CD1986E193E00E94A519D601E4
:1040800012966D917D918D919C9115970E94020BD6
:1040900080E193E00E94A519F80111821082E1E00D
:1040A000F0E0D301ED93FC93D8011896ED91FC91CB
:1040B0001997EA5AFD4F61E080810E944215F10193
:1040C00012821382148215822C962FAD2C972F5FAB
:1040D0002C962FAF2C97065F1F4F36E0C30ED11CD6
:1040E0004AE0640E711C56E0250E311C84E0880EF7
:1040F000911C283009F029CF69E3C62E66E0D62E40
:1041000004ED13E074E0872E74E0972E512CD70154
:104110008D919C911197019709F0A8C08091BD04E1
:104120008111A4C01896ED91FC911997EA5AFD4FA0
:1041300061E080810E9442150E94C815F60120812D
:10414000318142815381DC01CB01821B930BA40B93
:10415000B50B893E9340A105B10508F487C0F8016D
:1041600082819381A481B5810196A11DB11D8283B5
:104170009383A483B58380913C04813069F5D70192
:1041800018966D907C901997F301EA5AFD4F408084
:1041900085E093E00E94A519852D0E94C6198AEF3B
:1041A00092E00E94A519C3010E94CD1988EF92E008
:1041B0000E94A519842D0E94C61986EF92E00E94E4
:1041C000A519F80162817381848195810E94020B97
:1041D0008FEC92E00E94A5190E94C815D6016D933C
:1041E0007D938D939C931397F80142815381648151
:1041F0007581F70182819381A481B58148175907A0
:104200006A077B0798F1608471848FEB92E00E94CB
:10421000A519852D0E94C61986EA92E00E94A5196B
:10422000C3010E94CD1984EA92E00E94A519D80129
:1042300012966D917D918D919C9115970E94020B24
:104240008EE992E00E94A519F70111821082D50132
:1042500016968D919C9117978130910539F48D9325
:104260009C93F40112821382148215825394FAE013
:10427000EF0EF11C2AE0A20EB11C36E0830E911C59
:104280000A5F1F4F44E0C40ED11C58E055123FCFC7
:104290000E94C81500917D0610917E0620917F0630
:1042A00030918006DC01CB01801B910BA20BB30B7C
:1042B000893E9340A105B105B0F06091BE0481E054
:1042C00068276093BE048DE00E9442150E94C815C5
:1042D00060937D0670937E0680937F0690938006A0
:1042E00002C00E94FE0E9E012F5F3F4F790100E049
:1042F00010E00E94C815609390057093910580931B
:10430000920590939305E0918805F09189050284C8
:10431000F385E02D88E895E0099597FD09C0D70160
:104320008D937D010F5F1F4F0E31110511F71DC0D9
:104330000E94C8158090900590909105A0909205DC
:10434000B0909305DC01CB0188199909AA09BB0932
:1043500080908C0590908D05A0908E05B0908F0573
:1043600088159905AA05BB0570F2E1E0F0E0EC0FB5
:10437000FD1FE00FF11F108261E972E0CE018B5B3F
:104380009F4F0E94B71465E972E0CE01CF960E945C
:10439000B7146EE972E0CE0101960E94602D7C0197
:1043A000BC01CE018B5B9F4F0E9491142796CEAC2F
:1043B000DFAC2797C114D10409F444C02B960EAD8D
:1043C0001FAD2B9701151105E9F146015401BFEF0F
:1043D0008B1A9B0AF5018081082E000C990B0E9414
:1043E000942D892B99F7015011090C0D1D1DD80131
:1043F0008C91082E000C990B0E94942D892B89F426
:104400000F5F1F4FA8014A195B092B965FAF4EAF94
:104410002B97CA14DB0458F4B501C6010E94723010
:1044200006C00A151B0560F301501109E0CF27965D
:10443000EEADFFAD27972B968EAD9FAD2B97E80F76
:10444000F91F108262EA72E0CE0181960E94B714D1
:10445000BE016F5D7F4FCE018B5B9F4F0E94411469
:104460008C01CE0181960E94B21417FD0EC083EF1D
:104470009DE00E94A5190E9473170E94950B81EF81
:104480009DE00E94A51901E001C000E06AEA72E027
:10449000CE0181960E94B714BE016F5D7F4FCE01A1
:1044A0008B5B9F4F0E9441146C01CE0181960E944C
:1044B000B21410E0D7FCFCC0E114F10401F16EE984
:1044C00072E080E090E00E94602D7C010E94422D0D
:1044D000FE013196E10FF11DE10FF11D91A380A3C3
:1044E0000E94CD198DEE9DE00E94A519812F0E949A
:1044F000C6198BEE9DE00E94A5191F5FDDCF8DA12F
:104500008CAF8BA18DAF89A1825B8EAF8FA18AAF5B
:1045100089A589AF8BA588AFCE01C8960E94FD17EB
:104520004B015C01AE014F5C5F4F0E944309CC24FC
:10453000C394C092660558E6D52ED0928705109296
:1045400029061092280660E08CE296E00E94C413CF
:1045500029A90AE0822F602F0E94072E682F660F7C
:10456000860F682F660F620F8CE296E00E94C413DC
:104570002AA9822F602F0E94072E682F660F860FB0
:10458000682F660F620F8CE296E00E94C4132BA97D
:10459000822F602F0E94072E682F660F860F682FCC
:1045A000660F620F8CE296E00E94C4136CA98CE245
:1045B00096E00E94C4132DA9822F602F0E94072E1F
:1045C000682F660F860F682F660F620F8CE296E0E9
:1045D0000E94C4132EA9822F602F0E94072E682FDD
:1045E000660F860F682F660F620F8CE296E00E94BE
:1045F000C4132FA92E51822F602F0E94072E682FDF
:10460000660F860F880F682F620F8CE296E00E947B
:10461000C41381E00E94FD19C0926605D0928705FF
:1046200010922906109228066FE08CE296E00E9414
:10463000C41381E00E94FD1981110FC061E088E67A
:104640000E945A1A10922B0680932A068CE296E05A
:104650000E9478132F968FAF2F9781E08093660585
:1046600088E68093870510922906109228066FE04D
:104670008CE296E00E94C4132F966FAD2F976F7750
:104680008CE296E00E94C41381E00E94FD19C501EE
:10469000B4010E944C178AED9DE00E94A519C50146
:1046A000B4010E94950B88ED9DE00E94A51901E0E0
:1046B00062EB72E0CE01C1960E94B714BE016F5C3E
:1046C0007F4FCE018B5B9F4F0E9441146C01CE0146
:1046D000C1960E94B214D7FC91C0E114F10499F084
:1046E0006EE972E080E090E00E94602D7C010E9403
:1046F000422DFE013196E10FF11DE10FF11D91A355
:1047000080A31F5FEACF89A09AA08AE0889D50010C
:10471000899DB00C1124F501E051FE4F6F0189A570
:104720009AA5978386838BA59CA591878087118204
:10473000108281E08CAF8DAF1EAE8BA18AAF8DA1B0
:1047400089AF8FA188AFCE01C8960E94FD17D60110
:1047500012966D937D938D939C931597B0E5AB0E58
:10476000B11CB601C5010E94CB0E8AEA9DE00E94F1
:10477000A5198FE99DE00E94A519C4010E94CD19D9
:1047800086E99DE00E94A519F6016281738184810A
:1047900095810E94020BD60116968D909C901797DA
:1047A00018966D907C901997CD90DC908DE89DE0E7
:1047B0000E94A519C6010E94CD1985E89DE00E94BE
:1047C000A519C3010E94CD1988E79DE00E94A51993
:1047D000C4010E94CD198EE59DE00E94A519C50176
:1047E0000E94CD198CE59DE00E94A51980E00E94F1
:1047F000EB0C8EE29DE00E94A51901E06DEB72E0EA
:10480000CE01C1960E94B714BE016F5C7F4FCE01EE
:104810008B5B9F4F0E9441146C01CE01C1960E9498
:10482000B214D7FC96C0E114F10499F06EE972E07D
:1048300080E090E00E94602D7C010E94422DFE01EC
:104840003196E10FF11DE10FF11D91A380A31F5FD0
:10485000EACF89A09AA08AE0889D5001899DB00C7A
:104860001124F501E056FE4F6F0189A59AA59783A3
:1048700086838BA59CA5918780871182108281E019
:104880008CAF8DAF1EAE8BA18AAF8DA189AF8FA1EA
:1048900088AFCE01C8960E94FD17D60112966D937F
:1048A0007D938D939C931597B0EAAB0EB11CB60126
:1048B000C5010E94CB0E6AE070E080E090E00E94AB
:1048C0008E1580E09DE00E94A51984EF9CE00E9477
:1048D000A519C4010E94CD198BEE9CE00E94A51978
:1048E000F60162817381848195810E94020BD60159
:1048F00016968D909C90179718966D907C901997AE
:10490000CD90DC9082EE9CE00E94A519C6010E9429
:10491000CD198AED9CE00E94A519C3010E94CD1912
:104920008DEC9CE00E94A519C4010E94CD1983EB77
:104930009CE00E94A519C5010E94CD1981EB9CE065
:104940000E94A5190E94910C83E89CE00E94A51981
:1049500001E069EC72E0CE01C1960E94B714BE017D
:104960006F5C7F4FCE018B5B9F4F0E9441146C01A7
:10497000CE01C1960E94B214D7FCA6C0E114F10486
:1049800099F06EE972E080E090E00E94602D7C0179
:104990000E94422DFE013196E10FF11DE10FF11D44
:1049A00091A380A31F5FEACF89A09AA08AE0889D87
:1049B0005001899DB00C1124F501E05BFE4F6F01A1
:1049C00089A59AA5978386838BA59CA591878087C7
:1049D000118210820E9473172B013C010E94140A5D
:1049E000809139048DAFC301B2010E94140A8091F5
:1049F00038048CAFC301B2010E94380A825B8EAFCB
:104A00008BA18AAF8DA189AF8FA188AFCE01C89647
:104A10000E94FD17D60112966D937D938D939C9302
:104A20001597B601C5010E94CB0E6AE070E080E0E8
:104A300090E00E948E1585E59CE00E94A5198DE40A
:104A40009CE00E94A519C4010E94CD1984E49CE059
:104A50000E94A519F60162817381848195810E946B
:104A6000020BD60116968D909C90179718966D9014
:104A70007C901997CD90DC908BE39CE00E94A51967
:104A8000C6010E94CD1980E39CE00E94A519C301D4
:104A90000E94CD1987E29CE00E94A519C4010E94E2
:104AA000CD198DE09CE00E94A519C5010E94CD1989
:104AB0008BE09CE00E94A51981E00E94510D8DEDD4
:104AC0009BE00E94A51901E062ED72E0CE01C19663
:104AD0000E94B714BE016F5C7F4FCE018B5B9F4F6E
:104AE0000E9441146C01CE01C1960E94B214D7FC01
:104AF000A8C0E114F10499F06EE972E080E090E062
:104B00000E94602D7C010E94422DFE013196E10F32
:104B1000F11DE10FF11D91A380A31F5FEACF0E9459
:104B200073178BA1825B8EAF8DA18DAF8FA18CAFE0
:104B300089A09AA08AE0889D5001899DB00C11241B
:104B4000F501E05BFE4F6F01628173818481958185
:104B50000E94140A809136048AAFD60112966D9194
:104B60007D918D919C9115970E94140A8091350436
:104B700089AFF60162817381848195810E94140A54
:104B80008091340488AFCE01C8960E94FD17D601EB
:104B900012966D937D938D939C931597B601C501E5
:104BA0000E94CB0E6AE070E080E090E00E948E15DB
:104BB0008FEA9BE00E94A51982EA9BE00E94A5195A
:104BC000C4010E94CD1989E99BE00E94A519F60154
:104BD00062817381848195810E94950BD60116961E
:104BE0008D909C90179718966D907C901997CD900A
:104BF000DC9080E99BE00E94A519C6010E94CD19B6
:104C000085E89BE00E94A519C3010E94CD198CE79D
:104C10009BE00E94A519C4010E94CD1982E69BE089
:104C20000E94A519C5010E94CD1980E69BE00E9453
:104C3000A51981E00E94510D82E39BE00E94A51915
:104C400001E06CED72E0CE01C1960E94B714BE0186
:104C50006F5C7F4FCE018B5B9F4F0E9441146C01B4
:104C6000CE01C1960E94B214D7FC86C0E114F104B3
:104C700099F06EE972E080E090E00E94602D7C0186
:104C80000E94422DFE013196E10FF11DE10FF11D51
:104C900091A380A31F5FEACF89A09AA02AE0289D54
:104CA000C001299D900D1124FC01E051FE4F6F01C0
:104CB0002BA13CA1318320835C01F0E5AF0EB11C38
:104CC000B601C5010E94CB0E6AE070E080E090E082
:104CD0000E948E1584E09BE00E94A51965EE72E0AB
:104CE00088E895E00E94E814C4010E94CD196DEE99
:104CF00072E088E895E00E94E814D60112966D9162
:104D00007D918D919C9115970E94020BF6018680F2
:104D1000978060847184C080D18066EF72E088E8FB
:104D200095E00E94E814C6010E94CD196FEF72E071
:104D300088E895E00E94E814C3010E94CD196AE05A
:104D400073E088E895E00E94E814C4010E94CD1940
:104D500063E173E088E895E00E94E814C5010E94D1
:104D6000CD1960E972E088E895E00E94E81486EDCC
:104D70009AE00E94A51901E06DE273E0CE01C196B0
:104D80000E94B714BE016F5C7F4FCE018B5B9F4FBB
:104D90000E9441146C01CE01C1960E94B214D7FC4E
:104DA0007DC0E114F10499F06EE972E080E090E0DA
:104DB0000E94602D7C010E94422DFE013196E10F80
:104DC000F11DE10FF11D91A380A31F5FEACF89A020
:104DD0009AA02AE0289DC001299D900D11249C01D4
:104DE00020563E4F69012BA13CA1D6012D933C9347
:104DF0005C01B0E5AB0EB11CB601C5010E94CB0E43
:104E00006AE070E080E090E00E948E1588EA9AE007
:104E10000E94A5198CE99AE00E94A519C4010E947C
:104E2000CD1983E99AE00E94A519F6016281738188
:104E3000848195810E94020BD60116968D909C90DC
:104E4000179718966D907C901997CD90DC908AE812
:104E50009AE00E94A519C6010E94CD198FE79AE039
:104E60000E94A519C3010E94CD1986E79AE00E940D
:104E7000A519C4010E94CD198CE59AE00E94A519DC
:104E8000C5010E94CD198AE59AE00E94A5190E94E9
:104E9000910C8CE29AE00E94A51901E069E373E0AD
:104EA000CE01C1960E94B714BE016F5C7F4FCE0148
:104EB0008B5B9F4F0E9441146C01CE01C1960E94F2
:104EC000B214D7FC77C0E114F10499F06EE972E0F6
:104ED00080E090E00E94602D7C010E94422DFE0146
:104EE0003196E10FF11DE10FF11D91A380A31F5F2A
:104EF000EACF89A09AA08AE0889D5001899DB00CD4
:104F00001124F501E05BFE4F6F018BA19CA1918301
:104F10008083BF01C5010E94CB0E6AE070E080E093
:104F200090E00E948E158EEF99E00E94A51986EF01
:104F300099E00E94A519C4010E94CD198DEE99E057
:104F40000E94A519D60112966D917D918D919C912B
:104F500015970E94020BF601868097806084718409
:104F6000C080D18084EE99E00E94A519C6010E94FC
:104F7000CD1989ED99E00E94A519C3010E94CD19B0
:104F800080ED99E00E94A519C4010E94CD1986EB1D
:104F900099E00E94A519C5010E94CD1984EB99E002
:104FA0000E94A51981E00E94510D86E899E00E94B7
:104FB000A51901E062E473E0CE01C1960E94B71426
:104FC000BE016F5C7F4FCE018B5B9F4F0E944114EF
:104FD0006C01CE01C1960E94B214D7FC44C0E1140A
:104FE000F10499F06EE972E080E090E00E94602D9B
:104FF0007C010E94422DFE013196E10FF11DE10F6F
:10500000F11D91A380A31F5FEACF0BA1CCA0E9A162
:10501000FAA1EA5AFD4FD080602F8D2D0E944215D3
:1050200088E599E00E94A51989E499E00E94A519F4
:10503000812F0E94C61982E499E00E94A5198D2D46
:105040000E94C61984E399E00E94A519802F9C2D27
:105050000E94CD1982E399E00E94A51984E099E0AD
:105060000E94A51901E06BE473E0CE01C1960E9495
:10507000B714BE016F5C7F4FCE018B5B9F4F0E94C8
:1050800041146C01CE01C1960E94B214D7FCF8C045
:1050900086ED98E00E94A5196EE972E080E090E04C
:1050A0000E94602D7C01DC018C91082E000C990B74
:1050B000C0970A9708F0C9C0C7010E94422D5C0141
:1050C0009AA389A30AE00A9DC0010B9D900D1124AB
:1050D000FC01E05BFE4F6F016281738184819581E9
:1050E0000E94950BD60116968D909C901797189656
:1050F0006D907C9019974D905C908BEC98E00E949D
:10510000A519C5010E94CD198CEB98E00E94A51944
:10511000C2010E94CD1984EB98E00E94A519C30139
:105120000E94CD198BEA98E00E94A519C4010E9443
:10513000CD1989EA98E00E94A519F601808591852C
:10514000089FF001099FF00D1124E051FE4F62818C
:105150007381848195810E94020BD60118962D904F
:105160003C901997029DF001039DF00D1124E05130
:10517000FE4F8680978060847184408051808BE9E7
:1051800098E00E94A519C1010E94CD198CE898E011
:105190000E94A519C2010E94CD1984E898E00E94DE
:1051A000A519C3010E94CD1987E798E00E94A519AF
:1051B000C4010E94CD1985E798E00E94A519F60167
:1051C00080859185089FF001099FF00D1124E0561C
:1051D000FE4F62817381848195810E94020BD6010A
:1051E0001896CD90DC9019970C9DF0010D9DF00D57
:1051F0001124E056FE4F8680978060847184408041
:10520000518086E698E00E94A519C6010E94CD193A
:1052100087E598E00E94A519C2010E94CD198FE48C
:1052200098E00E94A519C3010E94CD1982E498E07C
:105230000E94A519C4010E94CD1980E498E00E9443
:10524000A5198A2D0E94B20A16C080E00E94510D55
:1052500083E198E00E94A51980E00E94EB0C86EEA5
:1052600097E00E94A5190E94910C89EB97E00E949B
:10527000A5190E94E90A8BE897E00E94A51901E0B0
:1052800069E573E0CE01C1960E94B714BE016F5C60
:105290007F4FCE018B5B9F4F0E9441146C01CE016A
:1052A000C1960E94B214D7FC29C0E114F10499F010
:1052B0006EE972E080E090E00E94602D7C010E9427
:1052C000422DFE013196E10FF11DE10FF11D91A379
:1052D00080A31F5FEACF8DE597E00E94A51984E4C3
:1052E00097E00E94A5190E94C31081E397E00E94F5
:1052F000A51983E097E00E94A51901E06EE673E02E
:10530000CE01C1960E94B714BE016F5C7F4FCE01E3
:105310008B5B9F4F0E9441146C01CE01C1960E948D
:10532000B214D7FC17C06BE188E895E00E949E128A
:1053300064E773E088E895E00E94E8146BE188E890
:1053400095E00E949E1268E773E088E895E00E946D
:10535000E81401E06BE773E0CE01C1960E94B71438
:10536000BE016F5C7F4FCE018B5B9F4F0E9441144B
:105370006C01CE01C1960E94B214D7FC9BC0E1140F
:10538000F10421F16EE972E080E090E00E94602D6E
:105390007C01FC018081082E000C990B0E946A3070
:1053A000892B39F0B701CE018B5B9F4F0E9491147E
:1053B0000BC0C7010E94422DFE013196E10FF11D85
:1053C000E10FF11D91A380A31F5FD9CF8DA19EA1F5
:1053D000A9A0BAA0BE016B5B7F4F019799F4CE01E3
:1053E000CF960E944114F501EB54FB4F20E830E0CA
:1053F00002C0359527958A95E2F7C9019081892BDE
:10540000808320C0CE01CF960E944114F501EB5459
:10541000FB4FAC0147505109477055272EEF30E044
:10542000B90102C0759567954A95E2F747E050E0EB
:10543000481B590B01C0220F4A95EAF7262B6081C1
:1054400026232083A5014B545B4F6A01BA01C50195
:105450008E5A9E4F0E94300E85ED96E00E94A5194F
:105460008CEB96E00E94A519C5010E94CD198FEA28
:1054700096E00E94A51935E9A32E32E0B32E00E094
:1054800040E8942ED6018C91892119F0F5016081B4
:1054900001C06FE588E895E00E94CC140F5F9694F8
:1054A000FFEFAF1ABF0A083069F781E896E00E9463
:1054B000A51901E069E873E0CE01C1960E94B71416
:1054C000BE016F5C7F4FCE018B5B9F4F0E944114EA
:1054D0006C01CE01C1960E94B214D7FC22C083E5B4
:1054E00096E00E94A5196EE972E080E090E00E94CB
:1054F000602D7C01DC018C91082E000C990BC0976B
:105500000A9740F4C7010E94422D89A39AA30E94E2
:10551000B20A02C00E94E90A85E296E00E94A5193B
:1055200001E06BE973E0CE01C1960E94B714BE01A1
:105530006F5C7F4FCE018B5B9F4F0E9441146C01CB
:10554000CE01C1960E94B214D7FC69C0E114F104E7
:1055500099F06EE972E080E090E00E94602D7C019D
:105560000E94422DFE013196E10FF11DE10FF11D68
:1055700091A380A31F5FEACFA9A0BAA0C501880F9D
:10558000991F880F991FFC01E35CFB4F2BA120831F
:105590002DA121832FA1228321E039A5311101C042
:1055A00020E02383FC01E35CFB4F6F01BF018AE530
:1055B00091E00E94980ED60113960C9113971296C3
:1055C0009C90129711968C901197DC908BE196E04D
:1055D0000E94A519C5010E94CD1982E196E00E94A2
:1055E000A5198D2D0E94C61980E196E00E94A5198B
:1055F000882D0E94C6198EE096E00E94A519892D7B
:105600000E94C6198AEF95E00E94A519802F90E0AC
:105610000E94CD1988EF95E00E94A51901E066EA85
:1056200073E0CE01C1960E94B714BE016F5C7F4F3C
:10563000CE018B5B9F4F0E9441146C01CE01C1963D
:105640000E94B214D7FC0BC08AEC95E00E94A51909
:105650000E94540A8CE995E00E94A51901E066EBCE
:1056600073E0CE01C1960E94B714BE016F5C7F4FFC
:10567000CE018B5B9F4F0E9441146C01CE01C196FD
:105680000E94B214D7FC3BC0E114F10499F06EE91A
:1056900072E080E090E00E94602D7C010E94422D2B
:1056A000FE013196E10FF11DE10FF11D91A380A3E1
:1056B0001F5FEACF09A1DAA000933C046CE374E019
:1056C00087ED91E00E94300E6AE070E080E090E0AB
:1056D0000E948E158EE695E00E94A51988E595E05A
:1056E0000E94A519802F9D2D0E94CD1986E595E079
:1056F0000E94A51988E295E00E94A51901E060ECDE
:1057000073E0CE01C1960E94B714BE016F5C7F4F5B
:10571000CE018B5B9F4F0E9441146C01CE01C1965C
:105720000E94B214D7FC4BC0EF2899F06EE972E0EA
:1057300080E090E00E94602D7C010E94422DFE01DD
:105740003196E10FF11DE10FF11D91A380A31F5FC1
:10575000EBCF19A10AA110933B046BE374E088ED31
:1057600091E00E94300E6AE070E080E090E00E94DC
:105770008E158AEF94E00E94A51988EE94E00E94AD
:10578000A519812F902F0E94CD1986EE94E00E94DA
:10579000A51980913B04813039F48CEC94E00E948F
:1057A000A5190E94480E08C08DEB94E00E94A5192F
:1057B0001092BD040E94FE0E8FE894E018C0011103
:1057C00018C0E114F104A9F081E694E00E94A51943
:1057D00088E594E00E94A519B70188E895E00E9449
:1057E000E8148FE394E00E94A51981E194E00E94FF
:1057F000A519CE01CF960E94B214CE018B5B9F4FAC
:105800000E94B2140E94C8150091790610917A0680
:1058100020917B0630917C06DC01CB01801B910B33
:10582000A20BB30B81369A4EA105B10578F10E9407
:1058300073174B015C0169837A838B839C839E0180
:105840002F5F3F4F790103ED11E0D7016D917D018D
:105850001AA309A3CE0181960E94B60D0F5F1F4FB8
:10586000073DB1E01B0789F7C501B4010E94950B04
:105870000E94C8156093790670937A0680937B0620
:1058800090937C068CEF9DE00E94A5190E9407135F
:105890000C94261EF70162817381848195810E9498
:1058A000140A809136048B83D70112966D917D91F5
:1058B0008D919C9115970E94140A809135048A83DA
:1058C000F70162817381848195810E94140A80911D
:1058D00034048983CE0101960E94FD17DC01CB01BF
:1058E00080589E4AAE4FBF4FF70182839383A483B3
:1058F000B58387E992E00E94A5192E968FAD2E9769
:105900000E94C61988E692E00E94A519B701C50158
:105910000E94CB0E0C94E11ECF93DF9310928B0567
:1059200010928A0588EE93E0A0E0B0E080938C05A9
:1059300090938D05A0938E05B0938F052FE632E0EE
:10594000309389052093880525EC30E03093950548
:105950002093940524EC30E030939705209396052E
:1059600020EC30E0309399052093980521EC30E04D
:1059700030939B0520939A0522EC30E030939D05EF
:1059800020939C0526EC30E030939F0520939E05E4
:105990001092A1051092A2051092A3051092A405E1
:1059A00010922F0610922E068093300690933106A7
:1059B000A0933206B093330681E892E090932D06CF
:1059C00080932C0610922B0610922A06109229061C
:1059D000109228061092270681E0809326061092E6
:1059E000250661E082E10E94421561E083E10E94A8
:1059F00042158091B9008E7F8093B9008091B900E3
:105A00008D7F8093B90088E48093B80085E480930B
:105A1000BC000E94C8156093810670938206809333
:105A20008306909384060E94C81560937D06709348
:105A30007E0680937F06909380060E94C81560932F
:105A4000790670937A0680937B0690937C06C9E56D
:105A5000D6E00E94C815699379938993999386E05B
:105A6000C937D807B1F7C9E3D6E00E94C8156993D2
:105A700079938993999386E0C935D807B1F7DF9177
:105A8000CF910895FC0188279927E894219120322D
:105A9000E9F3293010F02E30C8F32B3241F02D32CB
:105AA00039F4689404C00E948C2D820F911D2191BD
:105AB00020532A30C0F31EF4909581959F4F08958E
:105AC00045E856E00E94652D0895FA01A191B08144
:105AD000009719F41097E1F0CD01DC01CD010D9094
