:100000000C9486030C94AE030C94AE030C94AE03D4
:100010000C94AE030C94AE030C94AE030C94AE039C
:100020000C94AE030C94AE030C94AE030C94AE038C
:100030000C94AE030C94AE030C94AE030C94AE037C
:100040000C9420070C94AE030C945C060C943606BA
:100050000C94AE030C94AE030C94AE030C94AE035C
:100060000C946A070C94AE032062757420697320A7
:10007000696E616374697665206F7220697473209C
:1000800074696D6572206973206E6F74207265707B
:1000900065617461626C650A00204C61756E63680D
:1000A000696E67206974732074696D65720A002037
:1000B0004163746976653A2000466F756E6420412D
:1000C0006C61726D3A20002046696E6973686564E0
:1000D00020726573746F72696E670A000A002C00E3
:1000E000536F727465642041727261793A20000A1C
:1000F000002C00556E536F727465642041727261FA
:10010000793A20000A004C6173742074696D65208F
:100110007265636F72646564200043697263756918
:1001200074206861732072657373657465642C2034
:10013000747279696E6720746F20726573756D656E
:1001400020696E746572727570746564206F706575
:10015000726174696F6E732E2E2E0A000A0020548D
:10016000696D652E204163746976653D0020546990
:100170006D6572204F666620636F756E74646F776D
:100180006E20000A002054696D652E204163746959
:1001900076653D002054696D6572204F6E20636F57
:1001A000756E74646F776E200020455050524F4D2D
:1001B00020696E697469616C697A65640A00416CD2
:1001C00061726D7320696E666F206973206C6F6158
:1001D0006465640A0020455050524F4D20616C7296
:1001E0006561647920696E697469616C697A6564B6
:1001F0000A00200054696D65206973200052544341
:100200002068617320736574207468652073797346
:1002100074656D2074696D6500556E61626C652052
:10022000746F2073796E63207769746820746865D1
:100230002052544300206973206163746976652CF1
:1002400020636865636B696E672069747320636FF0
:10025000756E74646F776E2E2E2E0A0020003A00A1
:10026000206F6E2052656C6179200054696D657253
:10027000204F6666200020526561636865642063D4
:100280006F756E74646F776E2E2E2E0A0020697360
:10029000206163746976652C20636865636B696EA1
:1002A000672069747320636F756E74646F776E2E48
:1002B0002E2E0A0020003A00206F6E2052656C61DD
:1002C00079200054696D6572204F6E20000A2A2A39
:1002D0002A2A2A2A2A2A2A2A2A2A2A2A2A2A2A2A7E
:1002E0002A2A2A2A2A2A2A2A2A2A2A2A2A2A2A2A6E
:1002F0002A2A2A2A2A2A2A2A2A0A0054696D6520CB
:1003000069732000537769746368696E672072654A
:100310006C617973206F66662E2E2E0A0053657409
:1003200074696E672074696D657273206F66662EDE
:100330002E2E0A00476F696E6720746F20736C65FC
:1003400065702E2E2E0A002E2E2E0A00743D0020DF
:100350007261697365642E2E2E0A00416C61726DA4
:1003600020002A2A2A2A2A2A2A2A2A2A2A2A2A2A21
:100370002A2A2A2A2A2A2A2A2A2A2A2A2A2A2A2ADD
:100380002A2A2A2A2A2A2A2A2A2A2A2A2A0A002021
:100390007261697365642E2E2E0A00416C61726D64
:1003A00020002E2E2E0A00743D000A2A2A2A2A2A0C
:1003B0002A2A2A2A2A2A2A2A2A2A2A2A2A2A2A2A9D
:1003C0002A2A2A2A2A2A2A2A2A2A2A2A2A2A2A2A8D
:1003D0002A2A2A2A2A2A0A0054696D65206973206C
:1003E0000057616B696E672075702E2E2E0A0020F3
:1003F0007261697365642E2E2E0A00416C61726D04
:1004000020002A2A2A2A2A2A2A2A2A2A2A2A2A2A80
:100410002A2A2A2A2A2A2A2A2A2A2A2A2A2A2A2A3C
:100420002A2A2A2A2A2A2A2A2A2A2A2A2A0A000A96
:100430000020204368616E67656420746F20005D52
:100440002050696E20002052656C6179436F6E7494
:10045000726F6C5B000A00205361766564206F6EDA
:1004600020454550524F4D2061646472657373207E
:10047000002052616E646F6D3D00204F6E20546904
:100480006D65723D00204163746976653D002053BF
:10049000657420746F200020416C61726D20000A29
:1004A00000205361766564206F6E20454550524FA1
:1004B0004D206164647265737320002052616E6424
:1004C0006F6D3D00204F6E2054696D65723D0020B8
:1004D0004163746976653D002053657420746F2014
:1004E000002054696D6572204F666620000A002066
:1004F0005361766564206F6E20454550524F4D2004
:100500006164647265737320002052616E646F6D64
:100510003D00204F6E2054696D65723D002041639F
:10052000746976653D002053657420746F20002047
:10053000416C61726D20000A002053617665642071
:100540006F6E20454550524F4D2061646472657353
:100550007320002052657065617461626C653D00B6
:100560002052656C61793D00204163746976653D78
:10057000002053657420746F20002054696D6572EB
:10058000204F666620000A00205361766564206F64
:100590006E20454550524F4D2061646472657373FF
:1005A00020002052657065617461626C653D0020B9
:1005B00052656C61793D00204163746976653D0048
:1005C0002053657420746F20002054696D6572207B
:1005D0004F6E20000A005254432054696D65205329
:1005E000657420746F20000A00202D20000A00543A
:1005F000696D65206973200054696D6520536176CB
:1006000065640A004572724A616E4665624D6172A8
:100610004170724D61794A756E4A756C41756753C8
:1006200065704F63744E6F76446563000A00205214
:10063000616E646F6D3D002054696D65723D0020F0
:1006400054696D652E204163746976653D002041D3
:100650006C61726D20000A002052657065617461E2
:10066000626C653D002052656C61793D00205469E3
:100670006D652E204163746976653D002054696D77
:100680006572204F6E20000A00205265706561740B
:1006900061626C653D002052656C61793D002054BB
:1006A000696D652E204163746976653D002054694B
:1006B0006D6572204F666620000000000800020190
:1006C000000003040700000000000000000000001C
:1006D00000250028002B0000000000240027002A2D
:1006E00000040404040404040402020202020203DB
:1006F00003030303030102040810204080010204E5
:1007000008102001020408102000641C11241FBEE0
:10071000CFEFD8E0DEBFCDBF25E0A2E4B3E001C05B
:100720001D92A338B207E1F713E0A0E0B1E0ECE9D5
:10073000F0E402C005900D92A234B107D9F713E09E
:10074000C6E8D3E004C02197FE010E94311EC538DF
:10075000D107C9F70E9435100C944C200C9400006E
:10076000CF92DF92EF92FF920F931F93CF93DF937D
:100770006C017A018B01C0E0D0E0CE15DF0589F075
:10078000D8016D918D01D601ED91FC910190F08120
:10079000E02DC6010995892B11F47E0102C0219636
:1007A000ECCFC701DF91CF911F910F91FF90EF9098
:1007B000DF90CF900895FC01538D448D252F30E0BC
:1007C000842F90E0821B930B541710F0CF9608955E
:1007D00001970895FC01918D828D981761F0828DAB
:1007E000DF01A80FB11D5D968C91928D9F5F9F7365
:1007F000928F90E008958FEF9FEF0895FC01918D07
:10080000828D981731F0828DE80FF11D858D90E073
:1008100008958FEF9FEF0895FC01918D228D892F10
:1008200090E0805C9F4F821B91098F7399270895F8
:1008300080E894E00E940C0421E0892B09F420E078
:10084000822F0895FC01848DDF01A80FB11DA35AEA
:10085000BF4F2C91848D90E001968F739927848FE0
:10086000A689B7892C93A089B1898C9180648C93D7
:10087000938D848D981306C00288F389E02D8081C2
:100880008F7D80830895EF92FF920F931F93CF93F4
:10089000DF93EC0181E0888F9B8D8C8D981305C0D0
:1008A000E889F989808185FD24C0F62E0B8D10E042
:1008B0000F5F1F4F0F731127E02E8C8DE8120CC0B5
:1008C0000FB607FCFACFE889F989808185FFF5CF5B
:1008D000CE010E942204F1CF8B8DFE01E80FF11DA5
:1008E000E35AFF4FF0820B8FEA89FB898081806297
:1008F00007C0EE89FF896083E889F9898081806477
:10090000808381E090E0DF91CF911F910F91FF9064
:10091000EF900895CF93DF93EC01888D8823C9F081
:10092000EA89FB89808185FD05C0A889B9898C91F8
:1009300086FD0FC00FB607FCF5CF808185FFF2CF93
:10094000A889B9898C9185FFEDCFCE010E94220440
:10095000E7CFDF91CF91089580E090E0892B29F0D7
:100960000E94180481110C94000008953FB7F89478
:100970008091160490911704A0911804B091190465
:1009800026B5A89B05C02F3F19F00196A11DB11DEA
:100990003FBFBA2FA92F982F8827820F911DA11D25
:1009A000B11DBC01CD0142E0660F771F881F991F62
:1009B0004A95D1F7089585ED8093BC008091BC00E5
:1009C00084FDFCCF10921F0508954091EC03262F63
:1009D00030E0240F311D21323105DCF420911F0558
:1009E0002430C9F4FC0180E090E0861758F430917F
:1009F000EC032191DC01A653BC4FA30FB11D2C9336
:100A00000196F3CF8091EC03680F6093EC0380E0D4
:100A1000089581E0089582E008950895E091230506
:100A200080912205E81730F4F0E0E65EFB4F80810C
:100A300090E008958FEF9FEF0895909123058091A6
:100A40002205981750F4E92FF0E0E65EFB4F208175
:100A500030E09F5F9093230502C02FEF3FEFC90165
:100A600008958091220590E020912305821B910931
:100A70000895CF92DF92EF92FF920F931F93CF933F
:100A8000DF937C01262F972F8A0180915E048823B3
:100A900091F0C62FD72F6E01C40ED51ECC15DD05E3
:100AA00071F06991D701ED91FC910190F081E02DF9
:100AB000C7010995F3CF642F822F0E94E504C80176
:100AC000DF91CF911F910F91FF90EF90DF90CF902A
:100AD0000895CF93DF931F92CDB7DEB7698320913E
:100AE0005E042223D1F020912005203240F021E045
:100AF00030E0FC013383228380E090E015C08091D8
:100B00002105E82FF0E0E15AFB4F998190838F5F38
:100B1000809321058093200505C061E0CE010196F8
:100B20000E94E50481E090E00F90DF91CF9108955D
:100B3000089580E090E00895982F92959F702AEF95
:100B4000929F800D112408950E942E20CF92DF9253
:100B5000EF92FF920F931F93CF93DF93EB017B01F3
:100B60002AE0E20EF11C8B016C01C61AD70AC601FD
:100B7000800F911F0E946C1DF80181938F01EE156B
:100B8000FF05A9F7CE01DF91CF911F910F91FF9043
:100B9000EF90DF90CF900895EF92FF920F931F9305
:100BA000CF93DF93EC01198218821B821A821D8277
:100BB0001C8261157105A9F17B01FB0101900020E8
:100BC000E9F731978F01061B170BB8016F5F7F4F55
:100BD00080E090E00E94641F009759F09983888319
:100BE0001B830A832C813D81232B81F4FC0110821D
:100BF0000DC088819981009711F00E94CC1E198246
:100C000018821D821C821B821A820BC01D830C83DA
:100C1000B701DF91CF911F910F91FF90EF900C944E
:100C20004520DF91CF911F910F91FF90EF90089594
:100C3000DC01ED91FC910190F081E02D09946115AA
:100C4000710579F0FB0101900020E9F73197AF01C0
:100C5000461B570BDC01ED91FC910280F381E02DE6
:100C6000099480E090E008950C941F061F920F9263
:100C70000FB60F9211242F933F934F935F936F936F
:100C80007F938F939F93AF93BF93EF93FF9380E8EE
:100C900094E00E942204FF91EF91BF91AF919F9148
:100CA0008F917F916F915F914F913F912F910F9015
:100CB0000FBE0F901F9018951F920F920FB60F92B4
:100CC00011242F938F939F93EF93FF93E0919004C0
:100CD000F09191048081E0919604F091970482FD57
:100CE00012C09081809199048F5F8F7320919A0434
:100CF000821751F0E0919904F0E0E058FB4F958F96
:100D00008093990401C08081FF91EF919F918F9111
:100D10002F910F900FBE0F901F90189590E0FC013F
:100D2000E754F94F3491FC01EB50F94F2491FC0149
:100D3000EF51F94FE491EE2309F43BC0332339F12D
:100D4000333091F038F43130A9F0323001F584B508
:100D50008F7D12C0373091F03830A1F03430B9F4C3
:100D6000809180008F7D03C0809180008F77809379
:100D700080000DC084B58F7784BD09C08091B0001C
:100D80008F7703C08091B0008F7D8093B000F0E03A
:100D9000EE0FFF1FE353F94FA591B4918FB7F8946D
:100DA000EC91611103C020952E2301C02E2B2C93B2
:100DB0008FBF08958F929F92AF92BF92CF92DF9292
:100DC000EF92FF926B017C010E94B6044B015C0123
:100DD000C114D104E104F104F1F00E94B604DC0175
:100DE000CB0188199909AA09BB09883E9340A1053E
:100DF000B10570F321E0C21AD108E108F10888EECC
:100E0000880E83E0981EA11CB11CC114D104E1041A
:100E1000F10419F7DDCFFF90EF90DF90CF90BF90F6
:100E2000AF909F908F9008952FB7F894609112041F
:100E30007091130480911404909115042FBF0895AC
:100E40001F920F920FB60F9211242F933F938F93FF
:100E50009F93AF93BF938091120490911304A0913C
:100E60001404B09115043091110423E0230F2D37A1
:100E700020F40196A11DB11D05C026E8230F02969E
:100E8000A11DB11D209311048093120490931304AB
:100E9000A0931404B0931504809116049091170444
:100EA000A0911804B09119040196A11DB11D809361
:100EB000160490931704A0931804B0931904BF91DB
:100EC000AF919F918F913F912F910F900FBE0F90F7
:100ED0001F9018951F920F920FB60F9211242F9307
:100EE0003F934F935F936F937F938F939F93AF93B2
:100EF000BF93EF93FF938091B900887F803609F408
:100F00009CC068F5883209F45BC090F4803109F424
:100F100054C038F4882309F4F6C0883009F44DC071
:100F2000F6C0883109F44CC0803209F45DC0EFC0CE
:100F3000803409F468C048F4803309F455C088331C
:100F400009F0E5C080935D04D8C0803509F44FC036
:100F5000883509F45DC0883409F0D9C0D6C0883915
:100F600009F4C7C0A8F4883709F467C038F4883694
:100F700009F463C0803709F460C0C9C0883809F437
:100F8000B8C0803909F45FC0803809F0C0C05BC0C8
:100F9000803B09F486C038F4803A09F466C0883A88
:100FA00009F47FC0B4C0803C09F4A7C0883C09F4B0
:100FB000A4C0883B09F48AC0AAC080913A0410C03A
:100FC00090915C0480915B04981770F5E0915C044B
:100FD00081E08E0F80935C04F0E0E55CFB4F808144
:100FE0008093BB0085EC86C080935D048EC0E09149
:100FF0005C0481E08E0F80935C048091BB00F0E084
:10100000E55CFB4F808390915C0480915B046EC033
:10101000E0915C0481E08E0F80935C048091BB00C2
:10102000F0E0E55CFB4F808380911E0581116DC06F
:1010300081E080931D0584EA61C083E080931F05F1
:1010400010921004CFCF80911004803208F051C06C
:10105000E091100481E08E0F809310048091BB001A
:10106000F0E0E051FC4F8083BDCF85EC8093BC0065
:1010700010921F0580911004803230F4E09110042A
:10108000F0E0E051FC4F10826091100470E0E091BC
:10109000EE03F091EF0380EF93E0099510921004B6
:1010A00036C084E080931F051092ED031092EC038C
:1010B000E091EA03F091EB0309958091EC03811133
:1010C00005C081E08093EC031092CA03E091ED0328
:1010D00081E08E0F8093ED03F0E0E653FC4F8081BA
:1010E0008093BB009091ED038091EC03981708F476
:1010F00079CF85E88093BC000AC085EC8093BC0062
:1011000010921F0504C010925D040E94DB04FF9141
:10111000EF91BF91AF919F918F917F916F915F916F
:101120004F913F912F910F900FBE0F901F901895E8
:101130006093460370934703809348039093490359
:10114000DC01CB01845D9E4FAF4FBF4F80934203C4
:1011500090934303A0934403B093450382E090E04F
:1011600090934D0380934C030E9414076093C50332
:101170007093C6038093C7039093C8030895CF92DA
:10118000DF92EF92FF920F931F930E941407C0907B
:10119000C503D090C603E090C703F090C8038B014D
:1011A0009C010C191D092E093F098091460390915D
:1011B0004703A0914803B0914903083E134021051D
:1011C0003105D0F00196A11DB11D80934603909387
:1011D0004703A0934803B0934903B701A6014851C0
:1011E0005C4F6F4F7F4F4093C5035093C60360938E
:1011F000C7037093C803C9CF409142035091430382
:10120000609144037091450384179507A607B707BB
:1012100088F1E0914A03F0914B03309759F1099519
:10122000611571058105910519F00E94980822C089
:101230008091460390914703A0914803B0914903E0
:10124000845D9E4FAF4FBF4F809342039093430303
:10125000A0934403B093450381E090E020914C03B8
:1012600030914D03232B11F480E090E090934D03D7
:1012700080934C036091460370914703809148032B
:10128000909149031F910F91FF90EF90DF90CF90C5
:1012900008956F927F928F929F92AF92BF92CF925A
:1012A000DF92EF92FF920F931F93CF93DF93EC01A6
:1012B000EE81AE2FB0E020E833E341EE51E00E9432
:1012C000821D4B015C0122EB37E0FD0104E610E0DA
:1012D00080E9E82EFF24F394C901825B97408E17C2
:1012E0009F07DCF4C90183709927892B99F4C90100
:1012F000B8010E94DF1D892B31F4C901B7010E949A
:10130000DF1D892B39F480E8880E81E5981E81E085
:10131000A81EB11C2F5F3F4FDFCF6D80712CEE54A4
:10132000F84FCF0164E670E00E94DF1D7C01CF0121
:1013300060E971E00E94DF1D6C0101E010E0E370E4
:10134000FF27061517052CF50230110581F430979B
:1013500071F4E114F10419F4C114D10441F480E8EA
:10136000880E8BE3981E86E2A81EB11C0FC0D80120
:10137000AB59BD4FAC91B0E020E831E541E050E021
:101380000E94821D860E971EA81EB91E0F5F1F4F5A
:10139000D8CF49812A8130E0A0E1BEE00E94C41D7F
:1013A0006B017C01242F30E0ACE3B0E00E94C41D4F
:1013B000DC01CB018C0D9D1DAE1DBF1D28816C0174
:1013C0007D01C20ED11CE11CF11CAC81B0E0119773
:1013D00020E831E541E050E00E94151EDC01CB0120
:1013E0008C0D9D1DAE1DBF1DBC01CD01680D791D6D
:1013F0008A1D9B1DDF91CF911F910F91FF90EF9060
:10140000DF90CF90BF90AF909F908F907F906F9024
:101410000895CF93DF93CDB7DEB727970FB6F89433
:10142000DEBF0FBECDBF81E080935E0488E680936F
:101430007F04109221051092200560E084E295E07F
:101440000E94690581E00E94750F882331F0809326
:10145000C90360E070E0CB013FC067E088E60E940E
:10146000D20F109223058093220584E295E00E941A
:101470001D058F770E949C05898384E295E00E9478
:101480001D050E949C058A8384E295E00E941D054B
:101490008F7B0E949C058B8384E295E00E941D0552
:1014A0008C8384E295E00E941D050E949C058D833B
:1014B00084E295E00E941D058F770E949C058E8333
:1014C00084E295E00E941D050E949C05825E8F8348
:1014D000CE0101960E94490927960FB6F894DEBF07
:1014E0000FBECDBFDF91CF9108956F927F928F9203
:1014F0009F92AF92BF92CF92DF92EF92FF920F93A3
:101500001F93CF93DF93EA012CE3C22ED12CE12C61
:10151000F12CA70196010E94F31D6883CA01B9014D
:10152000A70196010E94F31D6983CA01B90128E150
:1015300030E040E050E00E94F31D69017A016A83C7
:10154000CA01B9016C5F7F4F8F4F9F4F27E030E09A
:1015500040E050E00E94F31D6F5F6B83812C912C63
:10156000540140E034E6632E712C00E911E0242F91
:1015700030E02E54384FF901E370FF27309789F49B
:10158000C901B3010E94DF1D892B31F4C901B801E3
:101590000E94DF1D892B29F48EE691E0A0E0B0E0E7
:1015A00004C08DE691E0A0E0B0E0880E991EAA1E6E
:1015B000BB1ED501C401AA27BB27C816D906EA0657
:1015C000FB0610F04F5FD3CF4E83309799F4C901DB
:1015D00064E670E00E94DF1D892B39F4C90160E9DF
:1015E00071E00E94DF1D892B29F48EE691E0A0E0D6
:1015F000B0E004C08DE691E0A0E0B0E0881A990A5E
:10160000AA0ABB0AC818D908EA08FB08C90164E697
:1016100070E00E94DF1D8C01C90160E971E00E9449
:10162000DF1DA6E6B2E020E0213041F4309751F40E
:101630000115110529F4009729F402C04C9103C04B
:101640004DE101C04CE150E060E070E0C416D50609
:10165000E606F70640F0C41AD50AE60AF70A2F5F35
:1016600011962C3009F72F5F2D83C394CC82DF9124
:10167000CF911F910F91FF90EF90DF90CF90BF908F
:10168000AF909F908F907F906F900895CF92DF9250
:10169000EF92FF92C090C103D090C203E090C303C9
:1016A000F090C4036C157D058E059F0571F06B01EC
:1016B0007C014EE453E00E94750AC092C103D092AF
:1016C000C203E092C303F092C403FF90EF90DF9057
:1016D000CF900895CF93DF93EB010E946C1D888318
:1016E000CE01DF91CF910895CF92DF92EF92FF92DA
:1016F000CF93DF9300D000D000D0CDB7DEB76B0121
:101700007C010E94460B8091500390E0A0E0B0E085
:1017100089839A83AB83BC838AE090E09E838D8328
:10172000C701B6010E94460B8091500390E00A97D2
:101730001CF068E972E002C06FE373E080E894E0B7
:101740000E943406CE0101960E94EB0E6AE30E94CD
:101750001806C701B6010E94460B80914F0390E026
:10176000A0E0B0E089839A83AB83BC838AE090E0F9
:101770009E838D83C701B6010E94460B80914F0363
:1017800090E00A971CF068E972E002C06FE373E032
:1017900080E894E00E943406CE0101960E94EB0E90
:1017A0006AE30E941806C701B6010E94460B8091A9
:1017B0004E0390E0A0E0B0E089839A83AB83BC83C2
:1017C0008AE090E09E838D83C701B6010E94460B9C
:1017D00080914E0390E00A971CF068E972E002C025
:1017E0006FE373E080E894E00E943406CE01019636
:1017F0000E94EB0E26960FB6F894DEBF0FBECDBF4B
:10180000DF91CF91FF90EF90DF90CF900895CF922E
:10181000DF92EF92FF92CF93DF9300D000D000D001
:10182000CDB7DEB76B017C010E94460B809152035D
:1018300090E0A0E0B0E089839A83AB83BC838AE028
:1018400090E09E838D83C701B6010E94460B809174
:10185000520390E00A971CF068E972E002C06FE35F
:1018600073E080E894E00E943406CE0101960E9465
:10187000EB0E68EE72E00E943406C701B6010E94CA
:10188000460B8091540390E08E54984F092E000C23
:10189000AA0BBB0B89839A83AB83BC838AE090E05D
:1018A0009E838D83C701B6010E94460B209153038E
:1018B00083E0289F90011124A7EBB3E080E090E043
:1018C000FC01E20FF31FEC5FF94FE491ED930196F9
:1018D00083309105A9F71092BA0367EB73E080E8B3
:1018E00094E00E94340668EE72E080E894E00E9482
:1018F0003406CE0101960E94EB0E60E20E941806AB
:10190000C701B6010E94460B8091500390E0A0E011
:10191000B0E089839A83AB83BC838AE090E09E83A6
:101920008D83C701B6010E94460B8091500390E061
:101930000A971CF068E972E002C06FE373E080E888
:1019400094E00E943406CE0101960E94EB0E6AE3F9
:101950000E941806C701B6010E94460B80914F03F2
:1019600090E0A0E0B0E089839A83AB83BC838AE0F7
:1019700090E09E838D83C701B6010E94460B809143
:101980004F0390E00A971CF068E972E002C06FE331
:1019900073E080E894E00E943406CE0101960E9434
:1019A000EB0E6AE30E941806C701B6010E94460BBF
:1019B00080914E0390E0A0E0B0E089839A83AB83EE
:1019C000BC838AE090E09E838D83C701B6010E94AC
:1019D000460B80914E0390E00A971CF068E972E094
:1019E00002C06FE373E080E894E00E943406CE0109
:1019F00001960E94EB0E26960FB6F894DEBF0FBE3E
:101A0000CDBFDF91CF91FF90EF90DF90CF90089501
:101A10008F929F92AF92BF92CF92DF92EF92FF92FE
:101A20000F931F93CF93DF93C0EAD1E0E12CF12C09
:101A300000EA10E0BE01C8010E94A605065F1F4F24
:101A40006AE070E080E090E00E94DA066A817B81C3
:101A50008C819D810E94070CCE80DF80A884B98490
:101A6000888099808DEA96E00E94240FC7010E9429
:101A7000450F8EE996E00E94240FC4010E94450F95
:101A800086E996E00E94240FC5010E94450F89E86F
:101A900096E00E94240FC6010E94450F87E896E059
:101AA0000E94240F8FEFE81AF80A2A96003F1105CA
:101AB00009F6DF91CF911F910F91FF90EF90DF908A
:101AC000CF90BF90AF909F908F9008958F929F92EC
:101AD000AF92BF92CF92DF92EF92FF920F931F933C
:101AE000CF93DF93C0EFD1E0E12CF12C00E510E0C3
:101AF000BE01C8010E94A605065F1F4F6AE070E0A4
:101B000080E090E00E94DA066A817B818C819D8171
:101B10000E94070CCE80DF80A884B98488809980D9
:101B20008CE796E00E94240FC7010E94450F8DE6C6
:101B300096E00E94240FC4010E94450F85E696E0BE
:101B40000E94240FC5010E94450F88E596E00E947F
:101B5000240FC6010E94450F86E596E00E94240FDF
:101B60008FEFE81AF80A2A96003A110509F6DF9174
:101B7000CF911F910F91FF90EF90DF90CF90BF908A
:101B8000AF909F908F9008958F929F92AF92BF9247
:101B9000CF92DF92EF92FF920F931F93CF93DF9339
:101BA000C0E5D1E0E12CF12C00E010E0BE01C8015D
:101BB0000E94A605065F1F4F6AE070E080E090E09B
:101BC0000E94DA066A817B818C819D810E94070CCC
:101BD000CE80DF80A884B984888099808EE496E0E6
:101BE0000E94240FC7010E94450F8FE396E00E94D8
:101BF000240FC4010E94450F87E396E00E94240F42
:101C0000C5010E94450F8EE296E00E94240FC60196
:101C10000E94450F8CE296E00E94240F8FEFE81A95
:101C2000F80A2A960035110509F6DF91CF911F9128
:101C30000F91FF90EF90DF90CF90BF90AF909F906B
:101C40008F900895EF92FF920F931F93CF93DF939E
:101C50001F92CDB7DEB77C01FC0100811181C80164
:101C600069830E946C1D6981681719F0C8010E9480
:101C7000741DC7010F90DF91CF911F910F91FF90BD
:101C8000EF900895AF92BF92CF92DF92EF92FF92C2
:101C90000F931F93CF93DF9300D0CDB7DEB78B01A7
:101CA0006B0126E0C20ED11C7B015C01A61AB70AAB
:101CB00095012E0D3F1DF70161917F013A83298324
:101CC000CE0101960E94220EEC14FD0489F7C80192
:101CD0000F900F90DF91CF911F910F91FF90EF9098
:101CE000DF90CF90BF90AF900895AF92BF92CF9208
:101CF000DF92EF92FF920F931F93CF93DF9300D069
:101D0000CDB7DEB78B016B012AE0C20ED11C7B017F
:101D10005C01A61AB70A95012E0D3F1DF7016191CE
:101D20007F013A832983CE0101960E94220EEC1492
:101D3000FD0489F7C8010F900F90DF91CF911F919B
:101D40000F91FF90EF90DF90CF90BF90AF900895EC
:101D50008F929F92AF92BF920F931F93CF93DF9377
:101D6000CDB7DEB7A1970FB6F894DEBF0FBECDBFDB
:101D700019A2423008F44AE08E010F5D1F4F842EF5
:101D8000912CA12CB12CA50194010E94F31DE62FEA
:101D9000B901CA0101501109EA3014F4E05D01C033
:101DA000E95CD801EC93232B242B252B61F7B80198
:101DB00080E894E00E941F06A1960FB6F894DEBF5B
:101DC0000FBECDBFDF91CF911F910F91BF90AF900C
:101DD0009F908F900895CF92DF92EF92FF92FC0137
:101DE00044815581C080D180E280F3804115510546
:101DF00061F4E0918004F09181040190F081E02D84
:101E00006C2D80E894E0099518C04A30510589F49A
:101E1000F7FE0EC06DE280E894E00E941806662787
:101E20007727CB016C197D098E099F094AE003C011
:101E30004AE0C701B6010E94A80E80E894E0FF9036
:101E4000EF90DF90CF9008950F931F93CF93DF9380
:101E50008C01C0E0D0E0F801EC0FFD1F6491662317
:101E600071F0E0918004F09181040190F081E02D07
:101E700080E894E00995892B11F02196ECCFCE01F2
:101E8000DF91CF911F910F910895CF92DF92EF9242
:101E9000FF92CF93DF936C01990FEE08FF08F7FED6
:101EA00019C06DE280E894E00E941806EC016627F4
:101EB0007727CB016C197D098E099F094AE00E94A2
:101EC000A80E8C0F9D1FDF91CF91FF90EF90DF90B8
:101ED000CF9008954AE0C701B601DF91CF91FF90FE
:101EE000EF90DF90CF900C94A80E382F2091200512
:101EF00090917F04213208F049C080911F05811123
:101F0000FCCF42E040931F0530931E053FEF309316
:101F10005D0410925C0420935B04AFE5B4E04BE3F6
:101F200054E0FA013E2F341B321718F43D913193DF
:101F3000F9CF10923A0420913A04990F922B909382
:101F40003A0490911D05913061F410921D05909115
:101F50003A049093BB009091BC0093FDF8CF95ECB0
:101F600001C095EE9093BC0090911F059230E1F373
:101F700090915D049F3F79F080915D04803241F043
:101F800080915D04803331F084E005C081E003C0BE
:101F900082E001C083E0109221051092200510928A
:101FA0005E04089590911F059111FCCF91E09093EC
:101FB0001F0590931E052FEF20935D0410925C0483
:101FC000260F20935B0490933A0490913A04880F73
:101FD000892B80933A0480911D05813061F4109221
:101FE0001D0580913A048093BB008091BC0083FD65
:101FF000F8CF85EC01C085EE8093BC0080911F0571
:102000008130E1F380915C04861710F460915C04E8
:10201000ABE3B4E02AE134E0F9018E2F821B86178E
:1020200018F48D918193F9CF862F089590E0FC01EB
:10203000EB50F94F2491FC01EF51F94F8491882323
:1020400099F090E0880F991FFC01E952F94FA59192
:10205000B491FC01E353F94F859194918FB7F894B3
:10206000EC91E22BEC938FBF0895CF93DF93CDB724
:10207000DEB7C854D1090FB6F894DEBF0FBECDBF8E
:10208000789484B5826084BD84B5816084BD85B553
:10209000826085BD85B5816085BD80916E0081605F
:1020A00080936E0010928100809181008260809305
:1020B0008100809181008160809381008091800007
:1020C0008160809380008091B10084608093B10032
:1020D0008091B00081608093B00080917A0084602C
:1020E00080937A0080917A00826080937A00809158
:1020F0007A00816080937A0080917A008068809372
:102100007A001092C10081E491E4A0E022968DAFA4
:102110009EAFAFAF22978DE00E94161087E00E941D
:10212000161086E00E94161085E00E94161084E0CA
:102130000E941610E0919004F091910482E0808357
:10214000E0918C04F0918D041082E0918E04F09166
:102150008F0480E1808310929804E0919404F091C0
:10216000950486E08083E0919204F091930480814D
:1021700080618083E0919204F09193048081886073
:102180008083E0919204F091930480818068808341
:10219000E0919204F091930480818F7D80830E946E
:1021A000BF08C0904603D0904703E0904803F090EA
:1021B000490329E03AE030934B0320934A03C0924D
:1021C0004203D0924303E0924403F0924503672B0D
:1021D000682B692B29F40E94BF08DD24D39403C027
:1021E0000E94BF08D12C0E94BF0880914C0390919F
:1021F0004D03029759F089E192E00E94240F66E9AD
:1022000072E080E894E00E941F0618C08DEF91E014
:102210000E94240F66E972E080E894E00E941F06A5
:1022200084EF91E00E94240F0E94BF080E94070CD7
:1022300067E972E080E894E00E943406BE01615CC8
:102240007F4F80E591E00E946A0B6FE370E06C0FB6
:102250007D1F6F5F7F4F81E591E00E946A0BBE0199
:10226000615C7F4FCE0101960E94CC058D819E81DD
:10227000E980FA80892B41F069E972E0C7010E9488
:102280003C2011E0892B09F010E0C7010E94CC1E10
:10229000112381F1BE01615C7F4FCE0101960E9446
:1022A000CC0580E090E00E94450F82EF91E00E9413
:1022B000240F4D815E8169817A8180E894E00E94DB
:1022C000B00385ED91E00E94240F89819A810E94DC
:1022D000CC1E8EEB91E00E94240F0E94C40D0E9440
:1022E000660D0E94080D95E8E92E93E0F92E00E0B6
:1022F00010E051C000E010E0B801605B7E4FC80103
:102300000E94750E065F1F4F00351105A9F7B80131
:1023100060567E4FC8010E94750E065F1F4F003A3F
:102320001105A9F7B80160507F4FC8010E94750ED2
:10233000065F1F4F003F1105A9F7B8016B567D4F8F
:10234000C8010E94420E0A5F1F4F003221E01207AF
:10235000A1F7B8016B5C7D4FC8010E94420E0A5F75
:102360001F4F003531E01307A1F789E9E82E82E01D
:10237000F82ED7016D917D011A830983CE01019654
:102380000E94220E0F5F1F4F0335B1E01B0789F734
:1023900089EA91E0A0CFF701628173818481958100
:1023A0000E94070CD701AD90BC9084E991E00E9497
:1023B000240FC8010E94450F85E891E00E94240F78
:1023C000C5010E94450F83E891E00E94240F0F5F32
:1023D0001F4FB6E0EB0EF11C08301105E1F605E5E4
:1023E000E02E03E0F02E00E010E0F701628173813F
:1023F000848195810E94070CD701AD90BC908DE639
:1024000091E00E94240FC8010E94450F8EE591E0E3
:102410000E94240FC5010E94450F8CE591E00E94A7
:10242000240F0F5F1F4FB6E0EB0EF11C08301105B3
:10243000E1F606E512E0F80180810E5F1F4F61E0D2
:102440000E948E066AEF70E080E090E00E94DA065B
:10245000F2E00E351F0779F7DD2009F46FC18AE13C
:1024600091E00E94240F80E1E6E4F2E0DE01919623
:1024700001900D928A95E1F70E94BF086B017C01E3
:102480000E94460B809153038EABC701B6010E9498
:10249000460B809152038DABC701B6010E94460BDB
:1024A000809154038FAB7E0128E3E20EF11C02E51C
:1024B00011E0C8010E946C1DD7018D937D010F5F53
:1024C0001F4F0635B1E01B07A1F786E091E00E949F
:1024D000240F68AD79AD8AAD9BAD0E94070C84E0F6
:1024E00091E00E94240FFE0131967F016F0100E010
:1024F00010E0F801E05BFE4F82809380A480B580FD
:10250000C501B4010E94460B809150038BABC501FD
:10251000B4010E94460B80914F038AABC501B40100
:102520000E94460B80914E0389ABCE01C1960E945A
:102530004909F801E050FF4F6283738384839583D8
:10254000D6016D937D938D939D936D01F801E051BC
:10255000FE4F11821082F801E056FE4F1182108268
:10256000065F1F4F0035110521F687E090E0FE0160
:10257000319620E030E028173907DCF44191519181
:102580006191719180809180A280B38084169506BC
:10259000A606B70658F4DF0114978D929D92AD926E
:1025A000BC92139740835183628373832F5F3F4FA5
:1025B000E2CF0197E1F683EF90E00E94240F00E55F
:1025C00011E0F80162817381848195810E94070C7A
:1025D00081EF90E00E94240F065F1F4FF1E0003A68
:1025E0001F0779F78FEE90E00E94240F80EE90E0B5
:1025F0000E94240F8E010F5D1F4F9E012F5F3F4FE2
:102600006901D6016D917D918D919D916D010E9421
:10261000070C8EED90E00E94240FC016D10689F7BA
:102620008CED90E00E94240FD801F7014191519167
:10263000619171917F01E0E0F1E080E090E08280C3
:102640009380A480B580481559056A057B0519F467
:1026500011969C938E9301963A968830910579F75E
:102660001296E016F10609F79E012F5C3F4F7901A3
:10267000B6E0AB2EB12C1AE0712ED7019E908E9051
:102680007D01789C8001799C100D1124F801E050A7
:10269000FF4F22803380448055800E94BF08261659
:1026A00037064806590608F040C0F801E05BFE4FC7
:1026B0006F01808591858835910539F40E94450F19
:1026C00087EC90E00E94240F39C083369105B1F366
:1026D0004080518089EB90E00E94240FC4010E9449
:1026E000450F8FEA90E00E94240FC2010E94450F1F
:1026F000F60162817381848195810E94070CD60165
:102700008D919C91019769F4F801E051FE4F86810B
:1027100097818130910529F49183808389E990E044
:1027200002C088E690E00E94240FB1E0AB1AB10825
:10273000EEEFAE16EFEFBE0609F09FCF8091B60325
:1027400000E511E0E12CF12CC12CD12C8111D8C273
:10275000D8018D919C911197019709F05BC0189653
:102760008D919C911997CC970CF054C08091B60331
:10277000811150C00E94BF08F80182809380A4801C
:10278000B580861A970AA80AB90AF2E18F16910451
:10279000A104B10408F0C9C087EA93E00E94240FA5
:1027A0004AE0C501B4010E94A80E82EA93E00E94AB
:1027B000240F8BE993E00E94240FC6010E94450F6D
:1027C0008FE893E00E94240FD80118968D919C9178
:1027D00019972AE0289FF001299FF00D1124E0515C
:1027E000FE4F8D919C9111979183808312968D91CC
:1027F0009D910D90BC91A02D80589E4AAE4FBF4F29
:10280000F80182839383A483B583B801C7010E9432
:10281000750E8BC00E94BF08D80112968D909D90B6
:10282000AD90BC901597861A970AA80AB90ABAE023
:102830008B169104A104B10408F077C0F8018081DF
:102840009181019709F071C0808591858835910546
:1028500009F06BC082E693E00E94240F8BE593E0C1
:102860000E94240FC6010E94450F8FE493E00E944E
:10287000240F8CE493E00E94240F4AE0C501B401C8
:102880000E94A80E87E493E00E94240F84E393E063
:102890000E94240FF80182819381A481B581805820
:1028A0009E4AAE4FBF4F82839383A483B583B80102
:1028B000C7010E94750E8DE193E00E94240F20E075
:1028C00030E0F901E051FE4F11821082F901E0562B
:1028D000FE4F11821082265F3F4F2035310589F768
:1028E00084E093E00E94240F61E087E00E948E065E
:1028F00061E086E00E948E0661E085E00E948E061F
:1029000061E084E00E948E0681E08093B6038BEF45
:1029100092E00E94240F0E94BF080E94BF080E94FC
:10292000070C8DEC92E00E94240FFFEFCF1ADF0A14
:10293000065F1F4F2AE0E20EF11C30E5E316F104BA
:1029400009F006CF60EFA62E61E0B62E70EAE72E02
:1029500071E0F72EE1E56E2EE5E07E2EF5E8CF2E54
:10296000F3E0DF2EA5E52A2EA3E03A2E270185010C
:10297000812C912CD8010D90BC91A02D2496BFAF35
:10298000AEAF2497119709F0B1C08091B6038111C1
:10299000ADC0D8011896ED91FC911997EE0FFF1F6D
:1029A000EA5AFD4F60E080810E948E060E94140763
:1029B000F3012081318142815381DC01CB01821BF3
:1029C000930BA40BB50B893E9340A105B10508F408
:1029D0008DC0F60182819381A481B5810196A11DEC
:1029E000B11D82839383A483B583D80118962D915A
:1029F0003C911997F901EE0FFF1FEA5AFD4F4081F4
:102A0000518183EC92E026962FAF269727963FAF11
:102A1000279728964FAF289729965FAF29970E944E
:102A2000240FC4010E94450F88EB92E00E94240FFE
:102A300026962FAD269727963FAD2797C9010E946E
:102A4000450F86EB92E00E94240F28964FAD289701
:102A500029965FAD2997CA010E94450F84EB92E049
:102A60000E94240FF60162817381848195810E9406
:102A7000740B8DE892E00E94240F0E941407D3018A
:102A80006D937D938D939C931397F60142815381AF
:102A900064817581F80182819381A481B581481791
:102AA00059076A077B0710F186E792E00E94240F1E
:102AB000D80111961C921E9224962EAD3FAD2497FC
:102AC000F201318320831896ED91FC911997EE0F56
:102AD000FF1FEA5AFD4F61E080810E948E06D101FE
:102AE00012961D921D921D921C921597BFEF8B1A84
:102AF0009B0A065F1F4FEAE04E0E511CF6E02F0EB8
:102B0000311C26E0C20ED11C34E0630E711C88E03B
:102B10008816910409F02ECF11E3612E15E0712E75
:102B200005E513E085E8882E83E0982EC12CD12C92
:102B3000D7018D919C911197019709F08CC08091DC
:102B4000B603811188C01896ED91FC911997EE0F8C
:102B5000FF1FEA5AFD4F61E080810E948E060E94AD
:102B60001407F3012081318142815381DC01CB01C3
:102B7000821B930BA40BB50B893E9340A105B105B5
:102B800008F469C0F80182819381A481B58101961E
:102B9000A11DB11D82839383A483B583D7011896A9
:102BA000ED91FC911997EE0FFF1FEA5AFD4F20801F
:102BB0003180F501408451848BE692E00E94240F1D
:102BC000C6010E94450F80E692E00E94240FC201D8
:102BD0000E94450F8EE592E00E94240FC1010E94E1
:102BE000450F8CE592E00E94240FD80112966D915A
:102BF0007D918D919C9115970E94740B85E392E0D5
:102C00000E94240F0E941407F30160837183828362
:102C10009383D80112964D915D916D917C9115979A
:102C2000F70182819381A481B581481759076A070A
:102C30007B0788F0D50116968D919C91179781306E
:102C4000910549F48D939C9311821082F4011282B4
:102C5000138214821582FFEFCF1ADF0A2AE0E20EF8
:102C6000F11C3AE0A30EB11C86E0880E911C0A5FAD
:102C70001F4F94E0690E711CA8E0CA16D10409F038
:102C800057CF0E9414070091750510917605209189
:102C9000770530917805DC01CB01801B910BA20BED
:102CA000B30B893E9340A105B10598F06091B5033F
:102CB00081E068276093B5038DE00E948E060E9434
:102CC000140760937505709376058093770590934C
:102CD00078059E012F5F3F4F790100E010E090C022
:102CE0008D919C910197A9F0FFEFCF1ADF0A2AE09E
:102CF000E20EF11C065F1F4F30E5E316F10449F3C5
:102D0000D80118968D919C9119978336910561F79A
:102D1000E7CF0E94BF08F80182809380A480B5802D
:102D2000DC01CB0188199909AA09BB094E97A105B5
:102D3000B105D0F682E094E00E94240F8BEF93E07F
:102D40000E94240FC6010E94450F8FEE93E00E945F
:102D5000240F81EE93E00E94240F88ED93E00E94FF
:102D6000240F0E94BF080E94BF080E94070C8AEA35
:102D700093E00E94240F1092B603F80182819381A0
:102D8000A481B58180589E4AAE4FBF4F8283938302
:102D9000A483B583B801C7010E94750EA5CF0E9418
:102DA00014078090880490908904A0908A04B090C1
:102DB0008B04DC01CB0188199909AA09BB09809011
:102DC000840490908504A0908604B09087048815B0
:102DD0009905AA05BB05F8F4E0918004F0918104FF
:102DE0000284F385E02D80E894E0099597FDD7CF24
:102DF000D7018D937D010F5F1F4F0E31110559F0E3
:102E00000E941407609388047093890480938A0455
:102E100090938B04E1CFE1E0F0E0EC0FFD1FE00FB9
:102E2000F11F10826CE972E0CE0101960E94381DFC
:102E30008C01BC0180EA92E00E943C20892B61F465
:102E40008FEE95E00E94240F0E94BF080E94070C9D
:102E50008DEE95E00E94240FB80188EA92E00E946E
:102E60003C20892B09F000C1FE01B1966F01E12CD5
:102E7000F12C01151105F1F06CE972E080E090E0B1
:102E80000E94381D8C010E941A1DD6018D939D93BE
:102E90006D010E94450F89EE95E00E94240FC70145
:102EA0000E94450F87EE95E00E94240FBFEFEB1ABA
:102EB000FB0ADFCF8DA18CAF8BA18DAF89A1825B87
:102EC0008EAF8FA18AAF89A589AF8BA588AFCE01C0
:102ED000C8960E9449094B015C01AE014F5C5F4FEF
:102EE0000E94750A7724739470925E04E8E6CE2EF1
:102EF000C0927F04109221051092200560E084E2C8
:102F000095E00E94690529A9FAE0DF2E822F6D2D38
:102F10000E94D31D682F660F860F682F660F620F01
:102F200084E295E00E9469052AA9822F6D2D0E94F6
:102F3000D31D682F660F860F682F660F620F84E21D
:102F400095E00E9469052BA9822F6D2D0E94D31D4B
:102F5000682F660F860F682F660F620F84E295E078
:102F60000E9469056CA984E295E00E9469052DA97B
:102F7000822F6D2D0E94D31D682F660F860F682F3C
:102F8000660F620F84E295E00E9469052EA9822FE8
:102F90006D2D0E94D31D682F660F860F682F660F58
:102FA000620F84E295E00E9469052FA92E51822FBD
:102FB0006D2D0E94D31D682F660F860F880F682F16
:102FC000620F84E295E00E94690581E00E94750F1E
:102FD00070925E04C0927F04109221051092200529
:102FE0006FE084E295E00E94690581E00E94750F20
:102FF00081110FC061E088E60E94D20F1092230574
:103000008093220584E295E00E941D0525968FAFEE
:10301000259781E080935E0488E680937F04109278
:103020002105109220056FE084E295E00E94690579
:1030300025966FAD25976F7784E295E00E9469052C
:1030400081E00E94750FC501B4010E94980886EDC9
:1030500095E00E94240FC501B4010E94070C84ED85
:1030600095E00E94240F02C0E12CF12CB80180EB06
:1030700092E00E943C20892B09F094C05701AA0CD1
:10308000BB1CC12CD12C01151105D9F06CE972E0E3
:1030900080E090E00E94381D8C010E941A1DF6010C
:1030A000EA0DFB1D21E230E02C0F3D1FE20FF31F64
:1030B000918380833FEFE31AF30A82E0C80ED11CAC
:1030C000E2CF89A09AA08AE0889D5001899DB00C2A
:1030D0001124D501A051BE4F6D0189A59AA517965F
:1030E0009C938E9316978BA59CA519969C938E9373
:1030F00018971D921C9281E08CAF8DAF1EAE8BA1F4
:103100008AAF8DA189AF8FA188AFCE01C8960E94EA
:103110004909F6016283738384839583F0E5AF0EDA
:10312000B11CB601C5010E94750E89EC95E00E94A4
:10313000240FC4010E94450F80EC95E00E94240FEB
:10314000D60112966D917D918D919C9115970E945B
:10315000740BF6018680978060847184C080D18072
:1031600087EB95E00E94240FC6010E94450F8FEA6D
:1031700095E00E94240FC3010E94450F82EA95E06A
:103180000E94240FC4010E94450F88E895E00E9428
:10319000240FC5010E94450F86E895E00E94240F88
:1031A0000E94660DB8018BEB92E00E943C20892BB7
:1031B00009F09AC05701AA0CBB1CC12CD12C0115D7
:1031C0001105D9F06CE972E080E090E00E94381DB2
:1031D0008C010E941A1DF601EA0DFB1D21E230E070
:1031E0002C0F3D1FE20FF31F918380833FEFE31A03
:1031F000F30A82E0C80ED11CE2CF89A09AA08AE02F
:10320000889D5001899DB00C1124D501A056BE4F58
:103210006D0189A59AA517969C938E9316978BA5F9
:103220009CA519969C938E9318971D921C9291E0E1
:103230009CAF9DAF1EAE8BA18AAF8DA189AF8FA130
:1032400088AFCE01C8960E944909F6016283738354
:1032500084839583F0EAAF0EB11CB601C5010E94CC
:10326000750E6AE070E080E090E00E94DA068AE77E
:1032700095E00E94240FC4010E94450F81E795E06C
:103280000E94240FD60112966D917D918D919C9193
:1032900015970E94740BF601868097806084718474
:1032A000C080D18088E695E00E94240FC6010E946C
:1032B000450F80E695E00E94240FC3010E94450F50
:1032C00083E595E00E94240FC4010E94450F89E325
:1032D00095E00E94240FC5010E94450F87E395E009
:1032E0000E94240F0E94080DB80187EC92E00E9412
:1032F0003C20892B09F0AAC05701AA0CBB1CC12C89
:10330000D12C01151105D9F06CE972E080E090E054
:103310000E94381D8C010E941A1DF601EA0DFB1D4A
:1033200021E230E02C0F3D1FE20FF31F91838083D9
:103330003FEFE31AF30A82E0C80ED11CE2CF89A066
:103340009AA08AE0889D5001899DB00C1124D50176
:10335000A05BBE4F6D0189A59AA517969C938E938D
:1033600016978BA59CA519969C938E9318971D92E2
:103370001C920E94BF082B013C010E94460B8091C9
:1033800053038DAFC301B2010E94460B80915203DB
:103390008CAFC301B2010E94460B809154038EAFE3
:1033A0008BA18AAF8DA189AF8FA188AFCE01C896BE
:1033B0000E944909F6016283738384839583B60171
:1033C000C5010E94750E6AE070E080E090E00E9406
:1033D000DA068FE295E00E94240FC4010E94450F97
:1033E00086E295E00E94240FD60112966D917D91A0
:1033F0008D919C9115970E94740BF60186809780A1
:1034000060847184C080D1808DE195E00E94240F9A
:10341000C6010E94450F82E195E00E94240FC3017E
:103420000E94450F89E095E00E94240FC4010E948C
:10343000450F8FEE94E00E94240FC5010E94450FB6
:103440008DEE94E00E94240F0E94C40DB80180ED1F
:1034500092E00E943C20892B09F08EC05701AA0CF3
:10346000BB1CC12CD12C01151105D9F06CE972E0FF
:1034700080E090E00E94381D8C010E941A1DF60128
:10348000EA0DFB1D21E230E02C0F3D1FE20FF31F80
:10349000918380833FEFE31AF30A82E0C80ED11CC8
:1034A000E2CF89A09AA08AE0889D9001899D300D85
:1034B0001124D901A051BE4F6D018BA19CA18D9308
:1034C0009C935901B0E5AB0EB11CB601C5010E9439
:1034D000750E6AE070E080E090E00E94DA0669ED27
:1034E00072E080E894E00E943406C4010E94450F17
:1034F00061EE72E080E894E00E943406F601628199
:103500007381848195810E94740BD60116968D90EB
:103510009C90179718966D907C901997CD90DC90A1
:103520006AEE72E080E894E00E943406C6010E94D0
:10353000450F63EF72E080E894E00E943406C30117
:103540000E94450F6EEF72E080E894E00E9434061E
:10355000C4010E94450F67E073E080E894E00E9498
:103560003406C5010E94450F67E972E080E894E0E7
:103570000E9434060E94660DB80181E293E00E9429
:103580003C20892B09F080C05701AA0CBB1CC12C20
:10359000D12C01151105D9F06CE972E080E090E0C2
:1035A0000E94381D8C010E941A1DF601EA0DFB1DB8
:1035B00021E230E02C0F3D1FE20FF31F9183808347
:1035C0003FEFE31AF30A82E0C80ED11CE2CF89A0D4
:1035D0009AA08AE0889D9001899D300D1124D9011F
:1035E000A056BE4F6D018BA19CA18D939C93590158
:1035F000B0E5AB0EB11CB601C5010E94750E6AE0C4
:1036000070E080E090E00E94DA0681EE94E00E9493
:10361000240FC4010E94450F88ED94E00E94240FFE
:10362000F60162817381848195810E94740BD601B9
:1036300016968D909C90179718966D907C90199780
:10364000CD90DC908FEC94E00E94240FC6010E9484
:10365000450F84EC94E00E94240FC3010E94450FA3
:103660008BEB94E00E94240FC4010E94450F81EA75
:1036700094E00E94240FC5010E94450F8FE994E059
:103680000E94240F0E94080DB8018DE293E00E9471
:103690003C20892B09F07DC05701AA0CBB1CC12C12
:1036A000D12C01151105D9F06CE972E080E090E0B1
:1036B0000E94381D8C010E941A1DF601EA0DFB1DA7
:1036C00021E230E02C0F3D1FE20FF31F9183808336
:1036D0003FEFE31AF30A82E0C80ED11CE2CF89A0C3
:1036E0009AA08AE0889D5001899DB00C1124D501D3
:1036F000A05BBE4F6D018BA19CA111969C938E93F4
:10370000BD01C5010E94750E6AE070E080E090E0A6
:103710000E94DA0687E994E00E94240FC4010E9407
:10372000450F8EE894E00E94240FF60162817381B8
:10373000848195810E94740BD60116968D909C9081
:10374000179718966D907C901997CD90DC9085E82E
:1037500094E00E94240FC6010E94450F8AE794E07E
:103760000E94240FC3010E94450F81E794E00E944C
:10377000240FC4010E94450F87E594E00E94240FA6
:10378000C5010E94450F85E594E00E94240F0E9428
:10379000C40DB80186E393E00E943C20892B09F018
:1037A0004BC05701AA0CBB1CC12CD12C012BD9F04A
:1037B0006CE972E080E090E00E94381D8C010E946C
:1037C0001A1DF601EA0DFB1D21E230E02C0F3D1F12
:1037D000E20FF31F918380833FEFE31AF30A82E045
:1037E000C80ED11CE3CF1BA1DCA0E9A1FAA1EE0F0A
:1037F000FF1FEA5AFD4F0081C180612F802F0E9478
:103800008E0686E494E00E94240FC7010E94450FB3
:103810008FE394E00E94240F802F9C2D0E94450F7F
:1038200081E394E00E94240F812F9D2D0E94450F7B
:103830008FE294E00E94240F0E941407009171050A
:10384000109172052091730530917405DC01CB0154
:10385000801B910BA20BB30B81369A4EA105B105CB
:1038600078F10E94BF086B017C0169837A838B83A6
:103870009C839E012F5F3F4F590102E511E0D50166
:103880006D915D011AA309A3CE0181960E94220EBB
:103890000F5F1F4F0635B1E01B0789F7C701B6015F
:1038A0000E94070C0E9414076093710570937205C3
:1038B000809373059093740588EF95E00E94240F20
:1038C0000E94AC040C949E13CF93DF931092830458
:1038D0001092820488EE93E0A0E0B0E0809384042C
:1038E00090938504A0938604B093870426E732E082
:1038F000309381042093800425EC30E030938D04D4
:1039000020938C0424EC30E030938F0420938E04B9
:1039100020EC30E0309391042093900421EC30E0CF
:10392000309393042093920422EC30E0309395047A
:103930002093940426EC30E030939704209396046F
:103940001092990410929A0410929B0410929C0475
:10395000109227051092260580932805909329053B
:10396000A0932A05B0932B0588E892E09093250553
:1039700080932405109223051092220510922105B0
:103980001092200510921F0581E080931E05109271
:103990001D0561E082E10E948E0661E083E10E94E4
:1039A0008E068091B9008E7F8093B9008091B90016
:1039B0008D7F8093B90088E48093B80085E480937C
:1039C000BC000E9414076093790570937A05809378
:1039D0007B0590937C050E94140760937505709396
:1039E000760580937705909378050E94140760937D
:1039F0007105709372058093730590937405C1E50A
:103A0000D5E00E941407699379938993999385E08F
:103A1000C137D807B1F7C1E3D5E00E941407699315
:103A200079938993999385E0C135D807B1F7DF91F0
:103A3000CF910895FC0188279927E894219120329D
:103A4000E9F3293010F02E30C8F32B3241F02D323B
:103A500039F4689404C00E94641D820F911D219165
:103A600020532A30C0F31EF4909581959F4F0895FE
:103A70004DE755E00E943D1D0895FA01A191B081E6
:103A8000009719F41097E1F0CD01DC01CD010D9004
:103A9000002011F4C00113C0FB012191222319F071
:103AA0002015D9F7F3CFFB012191201519F41E92AF
:103AB000119606C02223C1F70D900020A1F7D00176
:103AC000FA01A193B08308957AE0979F902D879F84
:103AD000802D910D11240895F999FECF92BD81BDDD
:103AE000F89A992780B50895262FF999FECF1FBA25
:103AF00092BD81BD20BD0FB6F894FA9AF99A0FBE17
:103B0000019608950E94C41DA59F900DB49F900D2D
:103B1000A49F800D911D112408952F923F924F92E2
:103B20005F926F927F928F929F92AF92BF92CF924D
:103B3000DF92EF92FF920F931F93CF93DF93CDB756
:103B4000DEB7CA1BDB0B0FB6F894DEBF0FBECDBFCE
:103B500009942A88398848885F846E847D848C849F
:103B60009B84AA84B984C884DF80EE80FD800C81A8
:103B70001B81AA81B981CE0FD11D0FB6F894DEBF8B
:103B80000FBECDBFED010895A29FB001B39FC0014C
:103B9000A39F700D811D1124911DB29F700D811D79
:103BA0001124911D0895991B79E004C0991F96175F
:103BB00008F0961B881F7A95C9F78095089597FBA2
:103BC000072E16F4009407D077FD09D00E941D1E21
:103BD00007FC05D03EF4909581959F4F0895709510
:103BE00061957F4F0895A1E21A2EAA1BBB1BFD0110
:103BF0000DC0AA1FBB1FEE1FFF1FA217B307E407CC
:103C0000F50720F0A21BB30BE40BF50B661F771F23
:103C1000881F991F1A9469F7609570958095909503
:103C20009B01AC01BD01CF010895B7FF0C94821D2B
:103C30000E94821D821B930B0895AA1BBB1B51E19E
:103C400007C0AA1FBB1FA617B70710F0A61BB70B0C
:103C5000881F991F5A95A9F780959095BC01CD01B1
:103C60000895EE0FFF1F0590F491E02D0994CF9376
:103C7000DF938230910510F482E090E0E0918105BD
:103C8000F091820520E030E0C0E0D0E0309711F103
:103C90004081518148175907C0F04817590761F40E
:103CA00082819381209719F09B838A832BC0909304
:103CB00082058093810526C02115310519F0421730
:103CC000530718F49A01BE01DF01EF010280F3816E
:103CD000E02DDCCF2115310509F1281B390B2430EB
:103CE000310590F412968D919C9113976115710591
:103CF00021F0FB019383828304C09093820580931B
:103D00008105FD01329644C0FD01E20FF31F81934E
:103D10009193225031092D933C933AC020917F0515
:103D200030918005232B41F42091420230914302CF
:103D30003093800520937F0520914002309141020D
:103D40002115310541F42DB73EB740914402509101
:103D50004502241B350BE0917F05F0918005E217A9
:103D6000F307A0F42E1B3F0B2817390778F0AC019E
:103D70004E5F5F4F2417350748F04E0F5F1F50937B
:103D8000800540937F058193919302C0E0E0F0E0CD
:103D9000CF01DF91CF9108950F931F93CF93DF93BE
:103DA000009709F48CC0FC013297138212820091B3
:103DB0008105109182050115110581F42081318161
:103DC000820F931F20917F053091800528173907B6
:103DD00079F5F0938005E0937F0571C0D80140E04C
:103DE00050E0AE17BF0750F412962D913C911397F7
:103DF000AD012115310509F1D901F3CF9D01DA019A
:103E00003383228360817181860F971F8217930706
:103E100069F4EC0128813981260F371F2E5F3F4F4F
:103E2000318320838A819B8193838283452B29F46C
:103E3000F0938205E093810542C01396FC93EE93C4
:103E40001297ED01499159919E01240F351FE217F8
:103E5000F30771F480819181840F951F029611966A
:103E60009C938E938281938113969C938E93129749
:103E7000E0E0F0E0D80112968D919C9113970097A5
:103E800019F0F8018C01F6CF8D919C9198012E5F6D
:103E90003F4F820F931F20917F0530918005281797
:103EA000390769F4309729F4109282051092810540
:103EB00002C0138212821093800500937F05DF9168
:103EC000CF911F910F910895A0E0B0E0EAE6FFE1E5
:103ED0000C94911DEC01009721F4CB010E94371E38
:103EE000B8C0FC01E60FF71F9C0122503109E21710
:103EF000F30708F4ACC0D9010D911C911197061776
:103F00001707B0F00530110508F49FC0C8010497E9
:103F10008617970708F499C002501109061B170B62
:103F2000019311936D937C93CF010E94CC1E8DC0A1
:103F30005B01A01AB10A4C01800E911EA09181056F
:103F4000B091820540E050E0E12CF12C109709F48B
:103F50004AC0A815B905D1F56D907C901197630101
:103F600082E0C80ED11CCA14DB0480F1A3014A19F7
:103F70005B096A0182E0C80ED11C1296BC901297B0
:103F80001396AC91B5E0CB16D10440F0B282A38376
:103F900051834083D9016D937C930AC00E5F1F4FFC
:103FA000C301800F911FF90191838083EB2DFA2FBC
:103FB000E114F10431F0D7011396FC93EE931297BC
:103FC00044C0F0938205E09381053FC08D919C91A0
:103FD00011974817590708F4AC017D0112960D900E
:103FE000BC91A02DB3CF80917F059091800588155D
:103FF0009905E1F446175707C8F480914002909163
:104000004102009741F48DB79EB740914402509110
:104010004502841B950BE817F907C8F4F093800557
:10402000E0937F05F901718360830FC0CB010E948B
:10403000371E7C01009759F0A801BE010E94332071
:10404000CE010E94CC1EC70104C0CE0102C080E098
:1040500090E0CDB7DEB7EEE00C94AD1D81E090E0CE
:10406000F8940C944C20FB01DC0102C001900D92ED
:1040700041505040D8F70895FB01DC018D9101902B
:1040800080190110D9F3990B0895FB01DC0101900F
:0C4090000D920020E1F70895F894FFCF96
:10409C000000007A495A000000000000007A495ADA
:1040AC00000000000000007A495A000000000000E7
:1040BC00007A495A000000000000007A495A0000BA
:1040CC0000000000007A495A000000000000007A4D
:1040DC00495A000000000000647A495A00000000B0
:1040EC000000027A495A000000000000037A495A85
:1040FC00000000000000007A495A00000000000097
:10410C00057A495A000000000000087A495A00005C
:10411C0000000000097A495A000000000000077AEC
:10412C00495A000000000000067A495A00000000BD
:10413C0000000A0000000000000000000A0000005F
:10414C000000000000000A00000000000000000059
:10415C000A0000000000000000000A00000000003F
:10416C00000000000A0000000000000000000A002F
:10417C0000000000000000000A0000000000000029
:10418C0000000A0000000000000000000A0000000F
:10419C000000000000000A00000000000000000009
:1041AC000A0000000000000000000A0000000000EF
:1041BC00000000000A0000000000000000000A00DF
:1041CC0000000000000000000A00000000000000D9
:1041DC0000008305800000000100020003000400C1
:1041EC000500060007000700060005000400070094
:1041FC000600050004001F1C1F1E1F1E1F1F1E1F74
:10420C001E1F000000004304B003DB038A040C04EF
:10421C00EA03FE03000000006905390599050D0548
:10422C0031051D050E050D0A00436800203A2F00CC
:10423C0050727454696D650053657454696D6500F2
:10424C005365744F6E54696D6572005365744F6697
:10425C006654696D657200536574416C61726D00D2
:10426C0041637454696D6572002054696D657220E8
:10427C00002053657420746F2000204163746976AC
:10428C00653D00204F6E2054696D65723D002052D3
:10429C00616E646F6D3D00205361766564206F6EB6
:1042AC0020454550524F4D206164647265737320F4
:1042BC000041637454696D65724F666600416374A6
:1042CC00416C61726D0041637452656C61790030B0
:0242DC000000E0
:107E0000112484B714BE81FFF0D085E080938100F7
:107E100082E08093C00088E18093C10086E0809377
:107E2000C20080E18093C4008EE0C9D0259A86E02C
:107E300020E33CEF91E0309385002093840096BBD3
:107E4000B09BFECF1D9AA8958150A9F7CC24DD24C4
:107E500088248394B5E0AB2EA1E19A2EF3E0BF2EE7
:107E6000A2D0813461F49FD0082FAFD0023811F036
:107E7000013811F484E001C083E08DD089C08234E0
:107E800011F484E103C0853419F485E0A6D080C0E4
:107E9000853579F488D0E82EFF2485D0082F10E0AE
:107EA000102F00270E291F29000F111F8ED06801E7
:107EB0006FC0863521F484E090D080E0DECF843638
:107EC00009F040C070D06FD0082F6DD080E0C81688
:107ED00080E7D80618F4F601B7BEE895C0E0D1E017
:107EE00062D089930C17E1F7F0E0CF16F0E7DF06D8
:107EF00018F0F601B7BEE89568D007B600FCFDCFD4
:107F0000A601A0E0B1E02C9130E011968C91119780
:107F100090E0982F8827822B932B1296FA010C0160
:107F200087BEE89511244E5F5F4FF1E0A038BF0790
:107F300051F7F601A7BEE89507B600FCFDCF97BE46
:107F4000E89526C08437B1F42ED02DD0F82E2BD052
:107F50003CD0F601EF2C8F010F5F1F4F84911BD097
:107F6000EA94F801C1F70894C11CD11CFA94CF0C13
:107F7000D11C0EC0853739F428D08EE10CD085E9AC
:107F80000AD08FE07ACF813511F488E018D01DD067
:107F900080E101D065CF982F8091C00085FFFCCF94
:107FA0009093C60008958091C00087FFFCCF809118
:107FB000C00084FD01C0A8958091C6000895E0E648
:107FC000F0E098E1908380830895EDDF803219F02E
:107FD00088E0F5DFFFCF84E1DECF1F93182FE3DFCA
:107FE0001150E9F7F2DF1F91089580E0E8DFEE27F6
:047FF000FF270994CA
:027FFE00040479
:0400000300007E007B
:00000001FF
