:100000000C944A080C9472080C9472080C947208B0
:100010000C9472080C9472080C9472080C94720878
:100020000C9472080C9472080C9472080C94720868
:100030000C9472080C9472080C9472080C94720858
:100040000C9472160C9472080C94AE150C948815CE
:100050000C9472080C9472080C9472080C94720838
:100060000C94BC160C947208206E6F7468696E67ED
:1000700020746F20646F2C20736C656570696E67E7
:100080002E2E2E0A00536C65657074696D652069AB
:10009000732020002062757420697320696E61638B
:1000A00074697665206F72206974732074696D6558
:1000B00072206973206E6F7420726570656174615F
:1000C000626C650A00204C61756E6368696E67201A
:1000D0006974732074696D65720A002000204163A1
:1000E000746976653A2000466F756E6420416C61D4
:1000F000726D3A20002046696E69736865642072EB
:100100006573746F72696E670A000A004C617374DC
:100110002074696D65207265636F72646564200088
:1001200043697263756974206861732072657373C3
:10013000657465642C20747279696E6720746F2011
:10014000726573756D6520696E7465727275707411
:100150006564206F7065726174696F6E732E2E2EE8
:100160000A000A002054696D652E20416374697687
:10017000653D002054696D6572204F666620636F8F
:10018000756E74646F776E20000A002054696D6587
:100190002E204163746976653D002054696D657257
:1001A000204F6E20636F756E74646F776E20000A47
:1001B00000536C65657074696D652069732020005B
:1001C0000A00566572626F73697479206973202022
:1001D00000416C61726D7320696E666F20697320D7
:1001E0006C6F616465640A0020455050524F4D2089
:1001F000616C726561647920696E697469616C69AA
:100200007A65640A00200054696D652069732000D6
:1002100052544320686173207365742074686520AC
:1002200073797374656D2074696D6500556E6162D4
:100230006C6520746F2073796E6320776974682011
:100240007468652052544300202E2E2E0A00204F41
:10025000464620636F756E74646F776E206F6E20F4
:1002600052656C6179200020526561636865642085
:1002700074696D657220002069732061637469760A
:10028000652C20636865636B696E672069747320F1
:10029000636F756E74646F776E2E2E2E0A002000C9
:1002A0003A00206F6E2052656C6179200054696DB0
:1002B0006572204F66662000202E2E2E0A00204FE9
:1002C0004E20636F756E74646F776E206F6E205270
:1002D000656C6179200020526561636865642074F3
:1002E000696D6572200020697320616374697665A9
:1002F0002C20636865636B696E6720697473206383
:100300006F756E74646F776E2E2E2E0A0020003A81
:1003100000206F6E2052656C6179200054696D6514
:1003200072204F6E20000A2A2A2A2A2A2A2A2A2ADA
:100330002A2A2A2A2A2A2A2A2A2A2A2A2A2A2A2A1D
:100340002A2A2A2A2A2A2A2A2A2A2A2A2A2A2A2A0D
:100350002A2A0A002E2E2E0A00743D00207261699E
:100360007365642E2E2E0A00416C61726D20002A86
:100370002A2A2A2A2A2A2A2A2A2A2A2A2A2A2A2ADD
:100380002A2A2A2A2A2A2A2A2A2A2A2A2A2A2A2ACD
:100390002A2A2A2A2A2A2A2A2A2A0A002072616953
:1003A0007365642E2E2E0A00416C61726D20002E42
:1003B0002E2E0A00743D000A2A2A2A2A2A2A2A2ACC
:1003C0002A2A2A2A2A2A2A2A2A2A2A2A2A2A2A2A8D
:1003D0002A2A2A2A2A2A2A2A2A2A2A2A2A2A2A2A7D
:1003E0002A2A2A0A00206973206E6F742061207601
:1003F000616C696420636F6D6D616E640A005761A2
:10040000726E696E6720000A2A2A2A2A2A2A2A2A54
:100410002A2A2A2A2A2A2A2A2A2A2A2A2A2A2A2A3C
:100420002A2A2A2A2A2A2A2A2A2A2A2A2A2A2A2A2C
:100430002A2A2A0A000A2A2A2A2A2A2A2A2A2A2A86
:100440002A2A2A2A2A2A2A2A2A2A2A2A2A2A2A2A0C
:100450002A2A2A2A2A2A2A2A2A2A2A2A2A2A2A2AFC
:100460002A0A0057616B696E672075702E2E2E2048
:100470000A004665656C696E6720536C6565707926
:100480002C207A7A7A2E2E2E2E200A000A00205353
:100490006C6565702069732073657420746F20002B
:1004A0000A2A2A2A2A2A2A2A2A2A2A2A2A2A2A2ACC
:1004B0002A2A2A2A2A2A2A2A2A2A2A2A2A2A2A2A9C
:1004C0002A2A2A2A2A2A2A2A2A2A2A2A0A000A2AF6
:1004D0002A2A2A2A2A2A2A2A2A2A2A2A2A2A2A2A7C
:1004E0002A2A2A2A2A2A2A2A2A2A2A2A2A2A2A2A6C
:1004F0002A2A2A2A2A2A2A2A2A2A0A000A002056CE
:100500006572626F736974792069732073657420F2
:10051000746F20000A2A2A2A2A2A2A2A2A2A2A2A00
:100520002A2A2A2A2A2A2A2A2A2A2A2A2A2A2A2A2B
:100530002A2A2A2A2A2A2A2A2A2A2A2A2A2A2A2A1B
:100540000A000A2A2A2A2A2A2A2A2A2A2A2A2A2A75
:100550002A2A2A2A2A2A2A2A2A2A2A2A2A2A2A2AFB
:100560002A2A2A2A2A2A2A2A2A2A2A2A2A2A0A0035
:100570000A2A2A2A2A2A2A2A2A2A2A2A2A2A2A2AFB
:100580002A2A2A2A2A2A2A2A2A2A2A2A2A2A2A2ACB
:100590002A2A2A2A2A2A2A2A2A2A2A2A0A000A004F
:1005A00020796561726C7920726570656174616231
:1005B0006C6520002F002F00206973206E6F77205C
:1005C0000020486F6C7964617920000A2A2A2A2A5F
:1005D0002A2A2A2A2A2A2A2A2A2A2A2A2A2A2A2A7B
:1005E0002A2A2A2A2A2A2A2A2A2A2A2A2A2A2A2A6B
:1005F0002A2A2A2A2A2A2A0A000A2A2A2A2A2A2AC5
:100600002A2A2A2A2A2A2A2A2A2A2A2A2A2A2A2A4A
:100610002A2A2A2A2A2A2A2A2A2A2A2A2A2A2A2A3A
:100620002A2A2A2A2A0A000A2A2A2A2A2A2A2A2A94
:100630002A2A2A2A2A2A2A2A2A2A2A2A2A2A2A2A1A
:100640002A2A2A2A2A2A2A2A2A2A2A2A2A2A2A2A0A
:100650002A2A2A0A00206172652073657420746F4B
:1006600020005765656B6C79204461796F6666730D
:1006700020666F7220616C61726D000A2A2A2A2A34
:100680002A2A2A2A2A2A2A2A2A2A2A2A2A2A2A2ACA
:100690002A2A2A2A2A2A2A2A2A2A2A2A2A2A2A2ABA
:1006A0002A2A2A2A2A2A2A0A000A2A2A2A2A2A2A14
:1006B0002A2A2A2A2A2A2A2A2A2A2A2A2A2A2A2A9A
:1006C0002A2A2A2A2A2A2A2A2A2A2A2A2A2A2A2A8A
:1006D0002A2A2A2A2A0A00446F6E6520696E6974E4
:1006E00069616C697A696E670A00496E697469614B
:1006F0006C697A696E6720416C6C20616C61726D07
:10070000730A000A2A2A2A2A2A2A2A2A2A2A2A2A6A
:100710002A2A2A2A2A2A2A2A2A2A2A2A2A2A2A2A39
:100720002A2A2A2A2A2A2A2A2A2A2A2A2A2A2A0A49
:10073000000A2A2A2A2A2A2A2A2A2A2A2A2A2A2A63
:100740002A2A2A2A2A2A2A2A2A2A2A2A2A2A2A2A09
:100750002A2A2A2A2A2A2A2A2A2A2A2A2A0A00204D
:10076000202020202020202020203D2D3D2D3D2D0B
:100770003D2D3D2D3D2D3D2D3D2D3D20202020208A
:10078000202020202020202020200A00202020209F
:10079000202020202020203D2D3D2D3D2D3D2D3D94
:1007A0002D3D2D3D2D3D2D3D2020202020202020A1
:1007B000202020202020200A00202020202020206F
:1007C000202020203D2D3D2D3D2D3D2D3D2D3D2D2D
:1007D0003D2D3D2D3D2020202020202020202020A8
:1007E000202020200A000A00205265706561746193
:1007F000626C653D002052656C61793D0020546952
:100800006D652E204163746976653D002069732013
:1008100054696D6572204F666620000A002052659B
:100820007065617461626C653D002052656C617930
:100830003D002054696D652E204163746976653DE5
:10084000002069732054696D6572204F6E20000A84
:10085000002052616E646F6D3D002054696D6572B9
:100860003D002054696D652E204163746976653DB5
:100870000020697320416C61726D20000A2A2A2AC7
:100880002A2A2A2A2A2A2A2A2A2A2A2A2A2A2A2AC8
:100890002A2A2A2A2A2A2A2A2A2A2A2A2A2A2A2AB8
:1008A0002A2A2A2A2A2A2A2A0A000A2A2A2A2A2A12
:1008B0002A2A2A2A2A2A2A2A2A2A2A2A2A2A2A2A98
:1008C0002A2A2A2A2A2A2A2A2A2A2A2A2A2A2A2A88
:1008D0002A2A2A2A2A2A0A000A0020204368616E4E
:1008E00067656420746F20005D2050696E200020D1
:1008F00052656C6179436F6E74726F6C5B000A2A8B
:100900002A2A2A2A2A2A2A2A2A2A2A2A2A2A2A2A47
:100910002A2A2A2A2A2A2A2A2A2A2A2A2A2A2A2A37
:100920002A2A2A2A2A2A2A2A2A2A0A000A2A2A2A91
:100930002A2A2A2A2A2A2A2A2A2A2A2A2A2A2A2A17
:100940002A2A2A2A2A2A2A2A2A2A2A2A2A2A2A2A07
:100950002A2A2A2A2A2A2A2A0A000A0020536176E9
:100960006564206F6E20454550524F4D2061646490
:100970007265737320002052616E646F6D3D0020BC
:100980004F6E2054696D65723D0020416374697635
:10099000653D002053657420746F200020416C6118
:1009A000726D20000A2A2A2A2A2A2A2A2A2A2A2A70
:1009B0002A2A2A2A2A2A2A2A2A2A2A2A2A2A2A2A97
:1009C0002A2A2A2A2A2A2A2A2A2A2A2A2A2A2A2A87
:1009D0000A000A2A2A2A2A2A2A2A2A2A2A2A2A2AE1
:1009E0002A2A2A2A2A2A2A2A2A2A2A2A2A2A2A2A67
:1009F0002A2A2A2A2A2A2A2A2A2A2A2A2A2A0A00A1
:100A00000A00205361766564206F6E204545505280
:100A10004F4D206164647265737320002052616ED3
:100A2000646F6D3D00204F6E2054696D65723D000E
:100A3000204163746976653D002053657420746FAE
:100A400020002054696D6572204F666620000A2AD6
:100A50002A2A2A2A2A2A2A2A2A2A2A2A2A2A2A2AF6
:100A60002A2A2A2A2A2A2A2A2A2A2A2A2A2A2A2AE6
:100A70002A2A2A2A2A2A2A2A2A2A0A000A2A2A2A40
:100A80002A2A2A2A2A2A2A2A2A2A2A2A2A2A2A2AC6
:100A90002A2A2A2A2A2A2A2A2A2A2A2A2A2A2A2AB6
:100AA0002A2A2A2A2A2A2A2A0A000A2A2A2A2A2A10
:100AB0002A2A2A2A2A2A2A2A2A2A2A2A2A2A2A2A96
:100AC0002A2A2A2A2A2A2A2A2A2A2A2A2A2A2A2A86
:100AD0002A2A2A2A2A2A0A000A2A2A2A2A2A2A2AE0
:100AE0002A2A2A2A2A2A2A2A2A2A2A2A2A2A2A2A66
:100AF0002A2A2A2A2A2A2A2A2A2A2A2A2A2A2A2A56
:100B00002A2A2A2A0A000A00205361766564206F87
:100B10006E20454550524F4D206164647265737379
:100B200020002052616E646F6D3D00204F6E205496
:100B3000696D65723D00204163746976653D0020F2
:100B400053657420746F200020416C61726D200029
:100B50000A2A2A2A2A2A2A2A2A2A2A2A2A2A2A2A15
:100B60002A2A2A2A2A2A2A2A2A2A2A2A2A2A2A2AE5
:100B70002A2A2A2A2A2A2A2A2A2A2A2A0A000A2A3F
:100B80002A2A2A2A2A2A2A2A2A2A2A2A2A2A2A2AC5
:100B90002A2A2A2A2A2A2A2A2A2A2A2A2A2A2A2AB5
:100BA0002A2A2A2A2A2A2A2A2A2A0A000A0020531A
:100BB00061766564206F6E20454550524F4D20612F
:100BC000646472657373200020526570656174619E
:100BD000626C653D002052656C61793D0020416387
:100BE000746976653D002053657420746F20002081
:100BF00054696D6572204F666620000A2A2A2A2AE7
:100C00002A2A2A2A2A2A2A2A2A2A2A2A2A2A2A2A44
:100C10002A2A2A2A2A2A2A2A2A2A2A2A2A2A2A2A34
:100C20002A2A2A2A2A2A2A0A000A2A2A2A2A2A2A8E
:100C30002A2A2A2A2A2A2A2A2A2A2A2A2A2A2A2A14
:100C40002A2A2A2A2A2A2A2A2A2A2A2A2A2A2A2A04
:100C50002A2A2A2A2A0A000A00205361766564207B
:100C60006F6E20454550524F4D206164647265732C
:100C70007320002052657065617461626C653D008F
:100C80002052656C61793D00204163746976653D51
:100C9000002053657420746F20002054696D6572C4
:100CA000204F6E20000A2A2A2A2A2A2A2A2A2A2A99
:100CB0002A2A2A2A2A2A2A2A2A2A2A2A2A2A2A2A94
:100CC0002A2A2A2A2A2A2A2A2A2A2A2A2A2A2A2A84
:100CD0002A0A000A005254432054696D6520536566
:100CE0007420746F20000A00202D20000A0054692F
:100CF0006D6520697320002054696D65205361760D
:100D000065640A004572724A616E4665624D6172A1
:100D10004170724D61794A756E4A756C41756753C1
:100D200065704F63744E6F7644656300206861732D
:100D300020446179206F666620746F6461792C208D
:100D40007363686564756C696E6720697420746F7D
:100D500020746F6D6F72726F770A00416C61726DF3
:100D600020000A2A2A2A2A2A2A2A2A2A2A2A2A2A37
:100D70002A2A2A2A2A2A2A2A2A2A2A2A2A2A2A2AD3
:100D80002A2A2A2A2A2A2A2A2A2A2A2A2A2A0A000D
:100D9000546F64617920697320616E2073636865A4
:100DA00064756C656420686F6C796461792C206768
:100DB0006F696E6720746F20736C6565702E2E2EC0
:100DC0000A000A2A2A2A2A2A2A2A2A2A2A2A2A2AED
:100DD0002A2A2A2A2A2A2A2A2A2A2A2A2A2A2A2A73
:100DE0002A2A2A2A2A2A2A2A2A2A2A2A2A2A0A00AD
:100DF0000A2A2A2A2A2A2A2A2A2A2A2A2A2A2A2A73
:100E00002A2A2A2A2A2A2A2A2A2A2A2A2A2A2A2A42
:100E10002A2A2A2A2A2A2A2A2A2A2A2A0A00546913
:100E20006D65206973200057616B696E672075706E
:100E30002E2E2E0A00207261697365642E2E2E0AF2
:100E400000416C61726D20002D2D2D2D2D2D2D2D2D
:100E50002D2D2D3D3D3D3D3D3D3D3D3D3D3D20410B
:100E600077616B696E67203D3D3D3D3D3D3D3D3DBC
:100E70003D3D2D2D2D2D2D2D2D2D2D2D2D0A000AF5
:100E8000002052616E646F6D3D002054696D657283
:100E90003D002054696D652E204163746976653D7F
:100EA0000020416C61726D20000A0020526570655F
:100EB000617461626C653D002052656C61793D0032
:100EC0002054696D652E204163746976653D00206C
:100ED00054696D6572204F6E20000A0020526570C3
:100EE00065617461626C653D002052656C61793D9D
:100EF000002054696D652E204163746976653D005C
:100F00002054696D6572204F666620000A002061DA
:100F1000726520005765656B6C79204461794F6676
:100F20006673206F6620416C61726D200020287905
:100F3000792F6D6D2F6464290A0020796561726CC8
:100F4000792072657065617461626C6520002F00A4
:100F50002F00206973200020486F6C79646179202C
:100F6000000A00536C65657074696D6520697320B3
:100F700020000A00566572626F7369747920697384
:100F800020200020454550524F4D2068617320625B
:100F900065656E20696E697469616C697A65640A59
:100FA0000054696D6520697320005265616C6C792D
:100FB00020676F696E6720746F20736C6565702C95
:100FC000206E6F77202E2E2E0A005475726E696E79
:100FD0006720737461747573206C6564206F666636
:100FE0002E2E2E0A00537769746368696E6720722B
:100FF000656C617973206F66662E2E2E0A0053652C
:101000007474696E672074696D657273206F6666AB
:101010002E2E2E0A0053657474696E6720536C651A
:10102000657074696D65206269742E2E2E0A004702
:101030006F696E6720746F20736C6565702E2E2E3D
:101040000A0000000008000201000003040700007D
:1010500000000000000000000000250028002B0018
:1010600000000000240027002A00040404040404F3
:101070000404020202020202030303030303010247
:101080000408102040800102040810200102040816
:101090001020362A11241FBECFEFD8E0DEBFCDBF0F
:1010A00026E0AEEBB3E001C01D92A138B207E1F734
:1010B00013E0A0E0B1E0E2EAFCE502C005900D9289
:1010C000AE3BB107D9F718E0CAE4D8E004C02197D5
:1010D000FE010E940F2CC934D107C9F70E942F1AB4
:1010E0000C944F2E0C940000CF92DF92EF92FF925F
:1010F0000F931F93CF93DF93EB017B012AE0E20E66
:10110000F11C8B016C01C61AD70AC601800F911F12
:101110000E944A2BF80181938F01EE15FF05A9F774
:10112000CE01DF91CF911F910F91FF90EF90DF9053
:10113000CF900895CF92DF92EF92FF920F931F937B
:10114000CF93DF93EB017B0124E0E20EF11C8B01D6
:101150006C01C61AD70AC601800F911F0E944A2B44
:10116000F80181938F01EE15FF05A9F7CE01DF91FC
:10117000CF911F910F91FF90EF90DF90CF90089546
:101180006F927F928F929F92AF92BF92CF92DF9297
:10119000EF92FF920F931F93CF93DF93EC01EE81B9
:1011A000AE2FB0E020E833E341EE51E00E94602B27
:1011B0004B015C0122EB37E0FD0104E610E080E921
:1011C000E82EFF24F394C901825B97408E179F0796
:1011D000DCF4C90183709927892B99F4C901B801FE
:1011E0000E94BD2B892B31F4C901B7010E94BD2B90
:1011F000892B39F480E8880E81E5981E81E0A81ECD
:10120000B11C2F5F3F4FDFCF6D80712CEE54F84F34
:10121000CF0164E670E00E94BD2B7C01CF0160E944
:1012200071E00E94BD2B6C0101E010E0E370FF272C
:10123000061517052CF50230110581F4309771F46D
:10124000E114F10419F4C114D10441F480E8880ECA
:101250008BE3981E86E2A81EB11C0FC0D801A25ACB
:10126000BD4FAC91B0E020E831E541E050E00E9494
:10127000602B860E971EA81EB91E0F5F1F4FD8CF7A
:1012800049812A8130E0A0E1BEE00E94A22B6B01DF
:101290007C01242F30E0ACE3B0E00E94A22BDC0103
:1012A000CB018C0D9D1DAE1DBF1D28816C017D01E4
:1012B000C20ED11CE11CF11CAC81B0E0119720E8FA
:1012C00031E541E050E00E94F32BDC01CB018C0DB5
:1012D0009D1DAE1DBF1DBC01CD01680D791D8A1D70
:1012E0009B1DDF91CF911F910F91FF90EF90DF90A9
:1012F000CF90BF90AF909F908F907F906F90089508
:101300006F927F928F929F92AF92BF92CF92DF9215
:10131000EF92FF920F931F93CF93DF93EA012CE399
:10132000C22ED12CE12CF12CA70196010E94D12BC9
:101330006883CA01B901A70196010E94D12B698374
:10134000CA01B90128E130E040E050E00E94D12B11
:1013500069017A016A83CA01B9016C5F7F4F8F4FBF
:101360009F4F27E030E040E050E00E94D12B6F5FBC
:101370006B83812C912C540140E034E6632E712C58
:1013800000E911E0242F30E02E54384FF901E370CA
:10139000FF27309789F4C901B3010E94BD2B892B27
:1013A00031F4C901B8010E94BD2B892B29F48EE6C6
:1013B00091E0A0E0B0E004C08DE691E0A0E0B0E0F4
:1013C000880E991EAA1EBB1ED501C401AA27BB27E1
:1013D000C816D906EA06FB0610F04F5FD3CF4E833E
:1013E000309799F4C90164E670E00E94BD2B892B07
:1013F00039F4C90160E971E00E94BD2B892B29F401
:101400008EE691E0A0E0B0E004C08DE691E0A0E0BF
:10141000B0E0881A990AAA0ABB0AC818D908EA08CB
:10142000FB08C90164E670E00E94BD2B8C01C90174
:1014300060E971E00E94BD2BAFE5B2E020E0213011
:1014400041F4309751F40115110529F4009729F45E
:1014500002C04C9103C04DE101C04CE150E060E09E
:1014600070E0C416D506E606F70640F0C41AD50AA1
:10147000E60AF70A2F5F11962C3009F72F5F2D83AC
:10148000C394CC82DF91CF911F910F91FF90EF9089
:10149000DF90CF90BF90AF909F908F907F906F9094
:1014A0000895CF92DF92EF92FF92C090BF04D09048
:1014B000C004E090C104F090C2046C157D058E0557
:1014C0009F0571F06B017C014AE254E00E948009A3
:1014D000C092BF04D092C004E092C104F092C20452
:1014E000FF90EF90DF90CF900895CF93DF93EB01C3
:1014F0000E944A2B8883CE01DF91CF910895CF932C
:10150000DF93EB010E944A2B8883CE01DF91CF91BC
:101510000895BF92CF92DF92EF92FF920F931F93A5
:10152000CF93DF9303E314E08AE5E82EFF24F394DE
:10153000C0E0B801C7010E949A0884E0E80EF11CDF
:1015400097012D5C3B4FF901EB55F140D081F8013B
:10155000D080F901ED55F140C0803196B08087E52B
:101560009FE00E9417198C2F0E94381982E59FE096
:101570000E9417198B2D0E94381980E59FE00E9468
:1015800017198C2D0E9438198EE49FE00E941719BC
:101590008D2D0E9438198AE39FE00E9417198D2F24
:1015A00090E00E943F198DE29FE00E941719CF5FE3
:1015B0000C5F1F4FCE3109F0BCCFDF91CF911F914F
:1015C0000F91FF90EF90DF90CF90BF900895EF9232
:1015D000FF920F931F93CF93DF93C82F84E19FE077
:1015E0000E9417198C2F0E9438198EE09FE00E94EC
:1015F000171985E9E82E82E0F82E00E810E0D0E027
:10160000C555DB4F8881802319F0F701608101C047
:101610006FE58EE795E00E946A151F5F0695FFEF64
:10162000EF1AFF0A183071F78CE09FE0DF91CF913D
:101630001F910F91FF90EF900C9417191F93CF9368
:10164000DF93C2E5D1E01C2F1255BE01675A7C4FD3
:10165000CE010E94750A2196812F0E94E70ACA35A1
:1016600081E0D80781F7DF91CF911F910895CF9244
:10167000DF92EF92FF92CF93DF9300D000D000D0A3
:10168000CDB7DEB76B017C010E94510A80912C041A
:1016900090E0A0E0B0E089839A83AB83BC838AE0CA
:1016A00090E09E838D83C701B6010E94510A80910C
:1016B0002C0490E00A971CF061E972E002C06CEB28
:1016C00073E08EE795E00E948615CE0101960E9498
:1016D000DE186AE30E946A15C701B6010E94510A2A
:1016E00080912B0490E0A0E0B0E089839A83AB83E3
:1016F000BC838AE090E09E838D83C701B6010E947F
:10170000510A80912B0490E00A971CF061E972E085
:1017100002C06CEB73E08EE795E00E948615CE0167
:1017200001960E94DE186AE30E946A15C701B6019D
:101730000E94510A80912A0490E0A0E0B0E08983E1
:101740009A83AB83BC838AE090E09E838D83C7013C
:10175000B6010E94510A80912A0490E00A971CF079
:1017600061E972E002C06CEB73E08EE795E00E94E5
:101770008615CE0101960E94DE1826960FB6F894C3
:10178000DEBF0FBECDBFDF91CF91FF90EF90DF9016
:10179000CF900895CF92DF92EF92FF92CF93DF9395
:1017A00000D000D000D0CDB7DEB76B017C010E9425
:1017B000510A80912E0490E0A0E0B0E089839A83E2
:1017C000AB83BC838AE090E09E838D83C701B60122
:1017D0000E94510A80912E0490E00A971CF061E962
:1017E00072E002C06CEB73E08EE795E00E94861514
:1017F000CE0101960E94DE186CE972E00E94861507
:10180000C701B6010E94510A8091300490E08E54C5
:10181000984F092E000CAA0BBB0B89839A83AB83CC
:10182000BC838AE090E09E838D83C701B6010E944D
:10183000510A20912F0483E0289F90011124A5EBE9
:10184000B4E080E090E0FC01E20FF31FEC5FF24FA8
:10185000E491ED93019683309105A9F71092B804B5
:1018600065EB74E08EE795E00E9486156CE972E006
:101870008EE795E00E948615CE0101960E94DE1843
:1018800060E20E946A15C701B6010E94510A809168
:101890002C0490E0A0E0B0E089839A83AB83BC8302
:1018A0008AE090E09E838D83C701B6010E94510AB1
:1018B00080912C0490E00A971CF061E972E002C06C
:1018C0006CEB73E08EE795E00E948615CE010196E1
:1018D0000E94DE186AE30E946A15C701B6010E94E1
:1018E000510A80912B0490E0A0E0B0E089839A83B4
:1018F000AB83BC838AE090E09E838D83C701B601F1
:101900000E94510A80912B0490E00A971CF061E933
:1019100072E002C06CEB73E08EE795E00E948615E2
:10192000CE0101960E94DE186AE30E946A15C70183
:10193000B6010E94510A80912A0490E0A0E0B0E034
:1019400089839A83AB83BC838AE090E09E838D83F6
:10195000C701B6010E94510A80912A0490E00A97BB
:101960001CF061E972E002C06CEB73E08EE795E079
:101970000E948615CE0101960E94DE1826960FB6AB
:10198000F894DEBF0FBECDBFDF91CF91FF90EF90F7
:10199000DF90CF9008958F929F92AF92BF92CF9297
:1019A000DF92EF92FF921F93CF93DF93C0EAD1E0D3
:1019B00010E080EAE82EF12CBE01C7010E947408F5
:1019C0008AE0E80EF11C6AE070E080E090E00E949E
:1019D0002C166A817B818C819D810E94CA0BCE80EE
:1019E000DF80A884B9848880998080E09FE00E948D
:1019F0001719812F0E94381981EF9EE00E94171954
:101A0000C4010E943F1989EE9EE00E941719C5018A
:101A10000E943F198CED9EE00E941719C6010E949A
:101A20003F198AED9EE00E9417191F5F2A96183011
:101A300019F6DF91CF911F91FF90EF90DF90CF903B
:101A4000BF90AF909F908F9008958F929F92AF928A
:101A5000BF92CF92DF92EF92FF920F931F93CF939B
:101A6000DF93C0EFD1E0E12CF12C00E510E0BE01E6
:101A7000C8010E947408065F1F4F6AE070E080E0B2
:101A800090E00E942C166A817B818C819D810E944E
:101A9000CA0BCE80DF80A884B984888099808FECBF
:101AA0009EE00E941719C7010E943F1980EC9EE03A
:101AB0000E941719C4010E943F1988EB9EE00E9402
:101AC0001719C5010E943F198BEA9EE00E94171961
:101AD000C6010E943F1989EA9EE00E9417198FEF04
:101AE000E81AF80A2A96003A110509F6DF91CF9113
:101AF0001F910F91FF90EF90DF90CF90BF90AF902C
:101B00009F908F9008957F928F929F92AF92BF92F5
:101B1000CF92DF92EF92FF920F931F93CF93DF93B9
:101B2000782EC0E5D1E000E010E0E12CF12C81E05E
:101B300078120DC0BE01C7010E9474088AE0E80E49
:101B4000F11C6AE070E080E090E00E942C166A814F
:101B50007B818C819D810E94CA0BCE80DF80A8840E
:101B6000B9848880998081EA9EE00E941719C80193
:101B70000E943F1982E99EE00E941719C4010E9449
:101B80003F198AE89EE00E941719C5010E943F197B
:101B900081E89EE00E941719C6010E943F198FE755
:101BA0009EE00E9417190F5F1F4F2A9608301105FB
:101BB00009F0BDCFDF91CF911F910F91FF90EF9072
:101BC000DF90CF90BF90AF909F908F907F900895BF
:101BD000EF92FF920F931F93CF93DF931F92CDB796
:101BE000DEB77C01FC0100811181C80169830E947C
:101BF0004A2B6981681719F0C8010E94522BC7014E
:101C00000F90DF91CF911F910F91FF90EF9008956A
:101C1000EF92FF920F931F93CF93DF9300D0CDB736
:101C2000DEB78C017B01FB0160819A838983CE0141
:101C300001960E94E80DF70161810F5F1F4F1A8323
:101C40000983CE0101960E94E80DC7010F900F9005
:101C5000DF91CF911F910F91FF90EF900895AF9278
:101C6000BF92CF92DF92EF92FF920F931F93CF9389
:101C7000DF9300D0CDB7DEB78B016B0126E0C20E3B
:101C8000D11C7B015C01A61AB70A95012E0D3F1DE0
:101C9000F70161917F013A832983CE0101960E9469
:101CA000E80DEC14FD0489F7C8010F900F90DF9147
:101CB000CF911F910F91FF90EF90DF90CF90BF9049
:101CC000AF9008950F931F93CF93DF9300D0CDB7BC
:101CD000DEB78B01FB0160819A838983CE01019677
:101CE0000E94E80DC8010F900F90DF91CF911F91D6
:101CF0000F9108958FE290E10E94171961E374E05B
:101D000088ED91E00E94620E85E190E10E94171932
:101D10008EEF9FE00E94171980E090E0FC01E051F7
:101D2000FE4F11821082FC01E056FE4F118210829C
:101D30000A968035910591F785EE9FE00E9417196C
:101D400061E087E00E94E01561E086E00E94E01516
:101D500061E085E00E94E01561E084E00E94E0150A
:101D60008AEC9FE00E94171960E08DE00E94E01568
:101D70008AEA9FE00E94171981E08093B30481EA08
:101D80009FE00E9417190E9411180C94CA0BAF9281
:101D9000BF92CF92DF92EF92FF920F931F93CF9358
:101DA000DF9300D0CDB7DEB78B016B0124E0C20E0C
:101DB000D11C7B015C01A61AB70A95012E0D3F1DAF
:101DC000F70161917F013A832983CE0101960E9438
:101DD000E80DEC14FD0489F7C8010F900F90DF9116
:101DE000CF911F910F91FF90EF90DF90CF90BF9018
:101DF000AF900895AF92BF92CF92DF92EF92FF9291
:101E00000F931F93CF93DF9300D0CDB7DEB78B0135
:101E10006B012AE0C20ED11C7B015C01A61AB70A35
:101E200095012E0D3F1DF70161917F013A832983B2
:101E3000CE0101960E94E80DEC14FD0489F7C8015B
:101E40000F900F90DF91CF911F910F91FF90EF9026
:101E5000DF90CF90BF90AF9008952F923F924F9216
:101E60005F926F927F928F929F92AF92BF92CF922A
:101E7000DF92EF92FF920F931F93CF93DF93CDB733
:101E8000DEB72D970FB6F894DEBF0FBECDBF65E964
:101E900072E0CE0108960E9455150E9411182B0180
:101EA0003C010E94510A80912C048B83C301B20132
:101EB0000E94510A80912B048A83C301B2010E94BF
:101EC000510A80912A04898323E3C22E24E0D22E72
:101ED00006E314E0312C3AE5E32EFF24F394BB240F
:101EE000B394B601C7010E949A0844E0E40EF11CC5
:101EF000F80131978081F60190819D83F801329736
:101F000090819E83825E8F83CE0101960E94C008DD
:101F10006415750586059705F9F48091B304811160
:101F200010C0C301B2010E94CA0B82EC9DE00E9466
:101F3000171980E99DE00E94171982E69DE00E9432
:101F40001719F8018081811105C0B082B601C7015F
:101F50000E94C70E33243394F4E0CF0ED11C0C5FE3
:101F60001F4F42EDE41641E0F40609F0BACFC30179
:101F7000B2010E94510A80912F048E83C301B201E5
:101F80000E94510A80912E048D83C301B2010E94E8
:101F9000510A809130048F8300E511E08BEAA82E6E
:101FA00084E0B82EC12CD12C90E8892E912C2A2CBB
:101FB0008BEA94E0281AF501F1905F01C301B201A8
:101FC0000E94510A2F2D30E080912D048150A401F0
:101FD00002C0559547958A95E2F7CA01822393235B
:101FE000892BE9F1C301B2010E94510AF0902F043C
:101FF000F80162817381848195810E94510A8091E8
:102000002F04F8122CC0C301B2010E94510AF090B3
:102010002E04F80162817381848195810E94510AA6
:1020200080912E04F8121BC0C301B2010E94510A14
:10203000E0903004F12CFEE4EF1AF8EFFF0AF8010B
:1020400062817381848195810E94510A809130045C
:1020500090E08E54984FE816F90609F471C0FAE042
:10206000CF0ED11C065F1F4F40E5C416D10409F006
:102070009ECFCE0108960E94501531105DC000E53C
:1020800011E0F12CF801808591858336910509F0E6
:102090004CC080819181019709F047C00E941118BE
:1020A000F80182809380A480B580DC01CB0188197F
:1020B0009909AA09BB094E97A105B105B0F588E4B5
:1020C0009EE00E94171981E49EE00E9417198F2D4F
:1020D0000E94381985E39EE00E94171987E29EE06E
:1020E0000E9417198EE19EE00E9417190E94111894
:1020F0000E9411180E94CA0B1092B304F801828149
:102100009381A481B58180589E4AAE4FBF4F828390
:102110009383A483B583B801C801805591400E9480
:10212000FA0E80EF9DE00E941719F394065F1F4F8F
:10213000F8E0FF12A7CF41C081E08093B3043DC017
:10214000F80162817381848195810E94510A809196
:102150002C048B83F80162817381848195810E94B4
:10216000510A80912B048A83F801628173818481F2
:1021700095810E94510A80912A048983CE0101969B
:102180000E94C008DC01CB0180589E4AAE4FBF4F71
:10219000F80182839383A483B5838BE59DE00E943D
:1021A0001719822D0E9438198CE29DE00E941719A0
:1021B000B801C6010E94FA0E52CF2D960FB6F894C0
:1021C000DEBF0FBECDBFDF91CF911F910F91FF906A
:1021D000EF90DF90CF90BF90AF909F908F907F90C7
:1021E0006F905F904F903F902F9008958F929F92A5
:1021F000AF92BF92CF92DF92EF92FF920F931F9315
:10220000CF93DF9300D0CDB7DEB7F0E5EF2EF1E04E
:10221000FF2E812CAAE79A2EA9E4AA2EAAE5BA2EAF
:1022200000E010E0F7011182108282829382A48282
:10223000B5821782168211861086B701C8010E94E6
:10224000FA0E065F1F4FFAE0EF0EF11C8FEF881AAF
:10225000980AA80AB80A0035110521F770EFE72E91
:1022600071E0F72EEAE08E2E912CA12CB12CF70113
:102270001182108282829382A482B5821782168292
:1022800011861086B701C8010E94FA0E065F1F4F23
:10229000FAE0EF0EF11C003A110549F750EAE52E7D
:1022A00051E0F52E6AE0862E912CA12CB12CF7017D
:1022B0001182108282829382A482B5821782168252
:1022C00011861086B701C8010E94FA0E065F1F4FE3
:1022D000FAE0EF0EF11C003F110549F74AEFE42E3A
:1022E00043E0F42EF70111821082128213821482CD
:1022F0001582B701C8010E942F0E0A5F1F4FF6E03A
:10230000EF0EF11C003281E0180761F73AECE32E82
:1023100033E0F32EF70111821082128213821482AD
:102320001582B701C8010E942F0E0A5F1F4FF6E009
:10233000EF0EF11C003581E0180761F722E9E22E6B
:1023400022E0F22EF70161917F011A830983CE0109
:1023500001960E94E80D0F5F1F4F0335F1E01F0744
:1023600089F79BEAE92E94E0F92E02E511E0F701E6
:102370001082B701C8010E94620E0F5F1F4FFFEF6E
:10238000EF1AFF0A0A3581E0180789F783E3C82EA0
:1023900084E0D82EF12CF601F082C8018D5C9B4FB1
:1023A000FC01E955F140108231961082319610827D
:1023B000B601C8010E94C70E0C5F1F4FF394F4E0F2
:1023C000CF0ED11C8EE1F812E6CF81E090E09A8327
:1023D0008983BE016F5F7F4F87ED91E00E94080EF9
:1023E0001A821982BE016F5F7F4F88ED91E00E94D3
:1023F000080E83E89FE00E94171981E00E94830D78
:102400000E94250D0E94CB0C0E941E0B0E94890A7F
:1024100062E374E087ED91E00E94750A1091320446
:1024200084E79FE00E941719812F0E94381982E7E4
:102430009FE00E94171961E374E088ED91E00E942B
:10244000750A1091310483E69FE00E941719812FCD
:102450000E94381981E69FE00E9417190F900F9093
:10246000DF91CF911F910F91FF90EF90DF90CF9070
:10247000BF90AF909F908F900895CF92DF92EF9290
:10248000FF920F931F93CF93DF936C017A018B011F
:10249000C0E0D0E0CE15DF0589F0D8016D918D0147
:1024A000D601ED91FC910190F081E02DC6010995D6
:1024B000892B11F47E0102C02196ECCFC701DF9178
:1024C000CF911F910F91FF90EF90DF90CF900895E3
:1024D000FC01538D448D252F30E0842F90E0821B2A
:1024E000930B541710F0CF96089501970895FC01AF
:1024F000918D828D981761F0828DDF01A80FB11D3B
:102500005D968C91928D9F5F9F73928F90E008955E
:102510008FEF9FEF0895FC01918D828D981731F018
:10252000828DE80FF11D858D90E008958FEF9FEF6C
:102530000895FC01918D228D892F90E0805C9F4F42
:10254000821B91098F73992708958EE795E00E9469
:10255000991221E0892B09F420E0822F0895FC01D3
:10256000848DDF01A80FB11DA35ABF4F2C91848D1C
:1025700090E001968F739927848FA689B7892C9351
:10258000A089B1898C9180648C93938D848D9813EC
:1025900006C00288F389E02D80818F7D80830895B5
:1025A000EF92FF920F931F93CF93DF93EC0181E0A3
:1025B000888F9B8D8C8D981305C0E889F98980815F
:1025C00085FD24C0F62E0B8D10E00F5F1F4F0F739B
:1025D0001127E02E8C8DE8120CC00FB607FCFACF45
:1025E000E889F989808185FFF5CFCE010E94AF127D
:1025F000F1CF8B8DFE01E80FF11DE35AFF4FF08202
:102600000B8FEA89FB898081806207C0EE89FF8990
:102610006083E889F98980818064808381E090E02B
:10262000DF91CF911F910F91FF90EF900895CF937D
:10263000DF93EC01888D8823C9F0EA89FB898081CA
:1026400085FD05C0A889B9898C9186FD0FC00FB69C
:1026500007FCF5CF808185FFF2CFA889B9898C91DD
:1026600085FFEDCFCE010E94AF12E7CFDF91CF9172
:10267000089580E090E0892B29F00E94A512811135
:102680000C94000008953FB7F89480911405909140
:102690001505A0911605B091170526B5A89B05C094
:1026A0002F3F19F00196A11DB11D3FBFBA2FA92FD1
:1026B000982F8827820F911DA11DB11DBC01CD014E
:1026C00042E0660F771F881F991F4A95D1F708953A
:1026D00085ED8093BC008091BC0084FDFCCF1092FE
:1026E0001D0608954091EA04262F30E0240F311D85
:1026F00021323105DCF420911D062430C9F4FC019F
:1027000080E090E0861758F43091EA042191DC01D2
:10271000A853BB4FA30FB11D2C930196F3CF80910B
:10272000EA04680F6093EA0480E0089581E0089568
:1027300082E008950895E091210680912006E8172F
:1027400030F4F0E0E85EFA4F808190E008958FEF7A
:102750009FEF08959091210680912006981750F4DC
:10276000E92FF0E0E85EFA4F208130E09F5F909320
:10277000210602C02FEF3FEFC90108958091200686
:1027800090E020912106821B91090895CF92DF925B
:10279000EF92FF920F931F93CF93DF937C01262F2D
:1027A000972F8A0180915C05882391F0C62FD72F3F
:1027B0006E01C40ED51ECC15DD0571F06991D701EF
:1027C000ED91FC910190F081E02DC7010995F3CFC7
:1027D000642F822F0E947213C801DF91CF911F9145
:1027E0000F91FF90EF90DF90CF900895CF93DF93FC
:1027F0001F92CDB7DEB7698320915C052223D1F00B
:1028000020911E06203240F021E030E0FC013383AD
:10281000228380E090E015C080911F06E82FF0E051
:10282000E35AFA4F998190838F5F80931F068093BC
:102830001E0605C061E0CE0101960E94721381E080
:1028400090E00F90DF91CF910895089580E090E09F
:102850000895982F92959F702AEF929F800D1124D2
:1028600008950E940C2EEF92FF920F931F93CF9327
:10287000DF93EC017B018A0188819981009729F01F
:102880002A813B8124173507F8F4B8016F5F7F4F29
:102890000E94422D009759F0998388831B830A83F5
:1028A0002C813D81232B81F4FC0110820DC0888195
:1028B0009981009711F00E94AA2C198218821D821A
:1028C0001C821B821A8207C01D830C83B70188817A
:1028D00099810E942E2ECE01DF91CF911F910F91F1
:1028E000FF90EF900895CF93DF93CDB7DEB7279792
:1028F0000FB6F894DEBF0FBECDBF81E080935C05BC
:1029000088E680937D0510921F0610921E0660E0F7
:1029100082E296E00E94F61381E00E946F198823FC
:1029200031F08093C70460E070E0CB013FC067E006
:1029300088E60E94CC19109221068093200682E23C
:1029400096E00E94AA138F770E942914898382E25D
:1029500096E00E94AA130E9429148A8382E296E0DC
:102960000E94AA138F7B0E9429148B8382E296E037
:102970000E94AA138C8382E296E00E94AA130E940E
:1029800029148D8382E296E00E94AA138F770E9419
:1029900029148E8382E296E00E94AA130E942914D1
:1029A000825E8F83CE0101960E94C00827960FB6E3
:1029B000F894DEBF0FBECDBFDF91CF910895AF92E7
:1029C000BF92CF92DF92EF92FF920F931F93CF931C
:1029D000DF93FC0124813581FB014481558189010C
:1029E000041B150B4115510551F12115310539F124
:1029F0002417350720F10217130718F08901015039
:102A000011097B01FC01A080B180C501DFEFCFEF90
:102A10006501C00ED11EC816D906A0F0F70160816D
:102A200071810E94352E009769F09C012A193B099B
:102A30000217130710F0D22FC32F0196ECCF8FEFA0
:102A40009FEF02C08D2F9C2FDF91CF911F910F918F
:102A5000FF90EF90DF90CF90BF90AF900895CF930D
:102A6000DF93EC016115710559F0FB010190002025
:102A7000E9F73197AF01461B570B0E9433140CC086
:102A800088819981009711F00E94AA2C19821882DE
:102A90001D821C821B821A82CE01DF91CF91089584
:102AA000FC01808191810C94AA2CFC01118210827E
:102AB00013821282158214826115710551F0FB0197
:102AC00001900020E9F73197AF01461B570B0C949A
:102AD00033140895DC01ED91FC910190F081E02D1B
:102AE00009946115710579F0FB0101900020E9F767
:102AF0003197AF01461B570BDC01ED91FC91028031
:102B0000F381E02D099480E090E008950C94711514
:102B10001F920F920FB60F9211242F933F934F9352
:102B20005F936F937F938F939F93AF93BF93EF9335
:102B3000FF938EE795E00E94AF12FF91EF91BF9156
:102B4000AF919F918F917F916F915F914F913F9145
:102B50002F910F900FBE0F901F9018951F920F92FC
:102B60000FB60F9211242F938F939F93EF93FF93A0
:102B7000E0918E05F0918F058081E0919405F091B0
:102B8000950582FD12C09081809197058F5F8F73AC
:102B900020919805821751F0E0919705F0E0E258F6
:102BA000FA4F958F8093970501C08081FF91EF9137
:102BB0009F918F912F910F900FBE0F901F9018959E
:102BC00090E0FC01EE5BFF4E3491FC01E258FF4EB9
:102BD0002491FC01E659FF4EE491EE2309F43BC039
:102BE000332339F1333091F038F43130A9F03230F9
:102BF00001F584B58F7D12C0373091F03830A1F0E7
:102C00003430B9F4809180008F7D03C080918000C2
:102C10008F77809380000DC084B58F7784BD09C005
:102C20008091B0008F7703C08091B0008F7D80933A
:102C3000B000F0E0EE0FFF1FEA5AFF4EA591B491ED
:102C40008FB7F894EC91611103C020952E2301C039
:102C50002E2B2C938FBF08958F929F92AF92BF928D
:102C6000CF92DF92EF92FF926B017C010E9443139F
:102C70004B015C01C114D104E104F104F1F00E94A4
:102C80004313DC01CB0188199909AA09BB09883EC5
:102C90009340A105B10570F321E0C21AD108E10803
:102CA000F10888EE880E83E0981EA11CB11CC114A7
:102CB000D104E104F10419F7DDCFFF90EF90DF902C
:102CC000CF90BF90AF909F908F9008952FB7F894BA
:102CD0006091100570911105809112059091130576
:102CE0002FBF08951F920F920FB60F9211242F93AA
:102CF0003F938F939F93AF93BF93809110059091D3
:102D00001105A0911205B091130530910F0523E034
:102D1000230F2D3720F40196A11DB11D05C026E813
:102D2000230F0296A11DB11D20930F05809310055E
:102D300090931105A0931205B0931305809114058B
:102D400090911505A0911605B09117050196A11D4A
:102D5000B11D8093140590931505A0931605B093AB
:102D60001705BF91AF919F918F913F912F910F9038
:102D70000FBE0F901F9018951F920F920FB60F92D3
:102D800011242F933F934F935F936F937F938F9370
:102D90009F93AF93BF93EF93FF938091B900887F88
:102DA000803609F49CC068F5883209F45BC090F461
:102DB000803109F454C038F4882309F4F6C088300F
:102DC00009F44DC0F6C0883109F44CC0803209F4D2
:102DD0005DC0EFC0803409F468C048F4803309F462
:102DE00055C0883309F0E5C080935B05D8C08035B5
:102DF00009F44FC0883509F45DC0883409F0D9C0A2
:102E0000D6C0883909F4C7C0A8F4883709F467C068
:102E100038F4883609F463C0803709F460C0C9C04B
:102E2000883809F4B8C0803909F45FC0803809F0E7
:102E3000C0C05BC0803B09F486C038F4803A09F416
:102E400066C0883A09F47FC0B4C0803C09F4A7C0CA
:102E5000883C09F4A4C0883B09F48AC0AAC08091C8
:102E6000380510C090915A0580915905981770F552
:102E7000E0915A0581E08E0F80935A05F0E0E75CFF
:102E8000FA4F80818093BB0085EC86C080935B0500
:102E90008EC0E0915A0581E08E0F80935A05809193
:102EA000BB00F0E0E75CFA4F808390915A05809177
:102EB00059056EC0E0915A0581E08E0F80935A0546
:102EC0008091BB00F0E0E75CFA4F808380911C06A4
:102ED00081116DC081E080931B0684EA61C083E0AC
:102EE00080931D0610920E05CFCF80910E05803283
:102EF00008F051C0E0910E0581E08E0F80930E0521
:102F00008091BB00F0E0E251FB4F8083BDCF85ECA8
:102F10008093BC0010921D0680910E05803230F423
:102F2000E0910E05F0E0E251FB4F108260910E053A
:102F300070E0E091EC04F091ED048EEE94E00995E0
:102F400010920E0536C084E080931D061092EB04AB
:102F50001092EA04E091E804F091E9040995809167
:102F6000EA04811105C081E08093EA041092C8044C
:102F7000E091EB0481E08E0F8093EB04F0E0E853E6
:102F8000FB4F80818093BB009091EB048091EA0419
:102F9000981708F479CF85E88093BC000AC085ECC7
:102FA0008093BC0010921D0604C010925B050E9425
:102FB0006813FF91EF91BF91AF919F918F917F9196
:102FC0006F915F914F913F912F910F900FBE0F9096
:102FD0001F9018956093C2037093C3038093C4033A
:102FE0009093C503DC01CB01845D9E4FAF4FBF4F73
:102FF0008093BE039093BF03A093C003B093C1031B
:1030000082E090E09093C9038093C8030E94661603
:103010006093C3047093C4048093C5049093C60462
:103020000895CF92DF92EF92FF920F931F930E9429
:103030006616C090C304D090C404E090C504F0901C
:10304000C6048B019C010C191D092E093F098091B2
:10305000C2039091C303A091C403B091C503083E7D
:10306000134021053105D0F00196A11DB11D8093BB
:10307000C2039093C303A093C403B093C503B701E5
:10308000A60148515C4F6F4F7F4F4093C30450934C
:10309000C4046093C5047093C604C9CF4091BE03B5
:1030A0005091BF036091C0037091C10384179507CD
:1030B000A607B70788F1E091C603F091C7033097E0
:1030C00059F10995611571058105910519F00E9465
:1030D000EA1722C08091C2039091C303A091C40358
:1030E000B091C503845D9E4FAF4FBF4F8093BE0329
:1030F0009093BF03A093C003B093C10381E090E01D
:103100002091C8033091C903232B11F480E090E093
:103110009093C9038093C8036091C2037091C30365
:103120008091C4039091C5031F910F91FF90EF9080
:10313000DF90CF9008958F929F92AF92BF920F939E
:103140001F93CF93DF93CDB7DEB7A1970FB6F89457
:10315000DEBF0FBECDBF19A2423008F44AE08E0197
:103160000F5D1F4F842E912CA12CB12CA501940131
:103170000E94D12BE62FB901CA0101501109EA3092
:1031800014F4E05D01C0E95CD801EC93232B242BFF
:10319000252B61F7B8018EE795E00E947115A19685
:1031A0000FB6F894DEBF0FBECDBFDF91CF911F9158
:1031B0000F91BF90AF909F908F900895CF92DF9224
:1031C000EF92FF92FC0144815581C080D180E28062
:1031D000F3804115510561F4E0917E05F0917F0582
:1031E0000190F081E02D6C2D8EE795E0099518C0D7
:1031F0004A30510589F4F7FE0EC06DE28EE795E086
:103200000E946A1566277727CB016C197D098E0904
:103210009F094AE003C04AE0C701B6010E949B181B
:103220008EE795E0FF90EF90DF90CF9008950F9399
:103230001F93CF93DF938C01C0E0D0E0F801EC0F37
:10324000FD1F6491662371F0E0917E05F0917F058A
:103250000190F081E02D8EE795E00995892B11F022
:103260002196ECCFCE01DF91CF911F910F91089560
:10327000682F70E080E090E04AE00C949B18CF92B9
:10328000DF92EF92FF92CF93DF936C01990FEE08DC
:10329000FF08F7FE19C06DE28EE795E00E946A15FF
:1032A000EC0166277727CB016C197D098E099F09F0
:1032B0004AE00E949B188C0F9D1FDF91CF91FF90D9
:1032C000EF90DF90CF9008954AE0C701B601DF91FB
:1032D000CF91FF90EF90DF90CF900C949B18382FF8
:1032E00020911E0690917D05213208F049C0809101
:1032F0001D068111FCCF42E040931D0630931C0651
:103300003FEF30935B0510925A0520935905ADE5C8
:10331000B5E049E355E0FA013E2F341B321718F4AB
:103320003D913193F9CF1092380520913805990FCE
:10333000922B9093380590911B06913061F4109276
:103340001B06909138059093BB009091BC0093FDB3
:10335000F8CF95EC01C095EE9093BC0090911D06BE
:103360009230E1F390915B059F3F79F080915B058E
:10337000803241F080915B05803331F084E005C0FC
:1033800081E003C082E001C083E010921F0610922A
:103390001E0610925C05089590911D069111FCCFB8
:1033A00091E090931D0690931C062FEF20935B05F0
:1033B00010925A05260F2093590590933805909145
:1033C0003805880F892B8093380580911B06813042
:1033D00061F410921B06809138058093BB008091A8
:1033E000BC0083FDF8CF85EC01C085EE8093BC0066
:1033F00080911D068130E1F380915A05861710F403
:1034000060915A05A9E3B5E028E135E0F9018E2F76
:10341000821B861718F48D918193F9CF862F08951A
:1034200090E0FC01E258FF4E2491FC01E659FF4E6A
:103430008491882399F090E0880F991FFC01E05A4D
:10344000FF4EA591B491FC01EA5AFF4E85919491EB
:103450008FB7F894EC91E22BEC938FBF0895CF9344
:10346000DF93CDB7DEB7CE54D1090FB6F894DEBFE7
:103470000FBECDBF789484B5826084BD84B5816071
:1034800084BD85B5826085BD85B5816085BD80912F
:103490006E00816080936E001092810080918100A7
:1034A000826080938100809181008160809381009F
:1034B000809180008160809380008091B100846061
:1034C0008093B1008091B00081608093B0008091C2
:1034D0007A00846080937A0080917A008260809381
:1034E0007A0080917A00816080937A0080917A00DE
:1034F000806880937A001092C10081E491E4A0E09A
:1035000022968DAF9EAFAFAF22978DE00E94101A2A
:1035100087E00E94101A86E00E94101A85E00E943F
:10352000101A84E00E94101AE0918E05F0918F0528
:1035300082E08083E0918A05F0918B051082E09112
:103540008C05F0918D0580E1808310929605E091C5
:103550009205F091930586E08083E0919005F091CB
:103560009105808180618083E0919005F0919105C3
:10357000808188608083E0919005F0919105808141
:1035800080688083E0919005F091910580818F7D26
:1035900080830E941118C090C203D090C303E090B2
:1035A000C403F090C50323E734E13093C7032093AD
:1035B000C603C092BE03D092BF03E092C003F09254
:1035C000C103672B682B692B29F40E941118DD2495
:1035D000D39403C00E941118D12C0E94111880911D
:1035E000C8039091C903029759F08CE292E00E94BF
:1035F00017196FE872E08EE795E00E94711518C008
:1036000080E192E00E9417196FE872E08EE795E082
:103610000E94711587E092E00E9417190E9411180C
:103620000E94CA0B60E972E08EE795E00E94861561
:10363000BE01615C7F4F80E591E00E947F0A6FE3ED
:1036400070E06C0F7D1F6F5F7F4F81E591E00E94FE
:103650007F0ABE01615C7F4FCE0101960E94551525
:103660008D819E81892B49F062E972E089819A817E
:103670000E94252E11E0892B09F010E0CE01019661
:103680000E945015112309F45AC0BE01615C7F4F9E
:10369000CE0101960E94551580E090E00E943F19EE
:1036A00085E092E00E9417194D815E8169817A81DF
:1036B0008EE795E00E943D1288EE91E00E94171976
:1036C000CE0101960E94501581ED91E00E941719DC
:1036D00081E00E94830D0E94250D0E94CB0C0E9468
:1036E0001E0B0E94890A62E374E087ED91E00E945C
:1036F000750A1091320482EC91E00E941719812F13
:103700000E94381980EC91E00E94171961E374E07F
:1037100088ED91E00E94750A1091310481EB91E0EF
:103720000E941719812F0E9438198FEA91E00E9498
:1037300017193AEFE32E33E0F32E10E003C00E9496
:10374000F610F7CFD70112966D917D918D919C91D6
:1037500015970E94CA0BF701A080B1808AE991E019
:103760000E941719812F0E9438198BE891E00E945E
:103770001719C5010E943F1989E891E00E941719A5
:103780001F5FF6E0EF0EF11C1830E1F62AECE22E96
:1037900023E0F22E10E0D70112966D917D918D916C
:1037A0009C9115970E94CA0BF701A080B18083E716
:1037B00091E00E941719812F0E94381984E691E048
:1037C0000E941719C5010E943F1982E691E00E94EC
:1037D00017191F5FF6E0EF0EF11C1830E1F606E551
:1037E00012E094E0F92EF00E61E0D8018D918D0188
:1037F0000E94E0156AEF70E080E090E00E942C16D5
:10380000F012F2CFDD2009F481C180E291E00E9444
:10381000171980E1E6E4F2E0DE01919601900D9245
:103820008A95E1F761E374E088ED91E00E94750A02
:103830001091310411115CC11092B3040E9411184F
:103840006B017C010E94510A80912F048EABC7014D
:10385000B6010E94510A80912E048DABC701B601BA
:103860000E94510A809130048FAB7E01B8E3EB0EC9
:10387000F11C03ED11E0C8010E944A2BF70181936E
:103880007F010F5F1F4F073DF1E01F07A1F78CE09D
:1038900091E00E94171968AD79AD8AAD9BAD0E9489
:1038A000CA0B8AE091E00E9417198E010F5F1F4F2B
:1038B000580120E030E0F901E05BFE4FC280D38088
:1038C000E480F580C701B6012F962FAF2F972E9673
:1038D0003FAF2E970E94510A80912C048BABC701F9
:1038E000B6010E94510A80912B048AABC701B60130
:1038F0000E94510A80912A0489ABCE01C1960E9490
:10390000C0082F962FAD2F972E963FAD2E97F90119
:10391000E050FF4F6283738384839583D5016D9359
:103920007D938D939D935D01F901E051FE4F1182CE
:103930001082F901E056FE4F11821082265F3F4F40
:103940002035310509F0B7CF87E090E0FE013196D0
:1039500020E030E028173907DCF441915191619162
:103960007191C080D180E280F380C416D506E6064E
:10397000F70658F4DF011497CD92DD92ED92FC9298
:10398000139740835183628373832F5F3F4FE2CF4E
:103990000197E1F6FE01B1969F01D8014D915D912D
:1039A0006D917D918D01A0E0B1E080E090E01296F4
:1039B000CD90DD90ED90FC9015974C155D056E0552
:1039C0007F0511F49183808301961A9688309105C2
:1039D00071F732960217130701F7FE01F1966F0196
:1039E00006E4A02EB12C8AE0382ED6019E908E904F
:1039F0006D01389C7001399CF00C1124F701E050E6
:103A0000FF4F42805380648075800E9411184616D3
:103A100057066806790608F061C08701005B1E4FF3
:103A2000F801808591858835910589F40E942D0FD4
:103A30008AE0889DF001899DF00D1124E05BFE4F26
:103A4000808591850E943F1985EF90E05DC08336A7
:103A5000910561F36080718087EE90E00E941719F4
:103A6000C4010E943F198DED90E00E941719C30117
:103A70000E943F198BED90E00E941719F8016281B6
:103A80007381848195810E94CA0BD8018D919C918C
:103A9000019701F5F701E051FE4F86819781813052
:103AA0009105C1F49183808385EC90E00E94171901
:103AB000F80182819381A481B58180589E4AAE4FDE
:103AC000BF4F82839383A483B583B801C5010E944D
:103AD000FA0E04C084E990E00E941719FAE0AF1AC8
:103AE000B10826EFA2162FEFB20609F07ECF0EC066
:103AF00081E08093B30485E890E00E941719812F3C
:103B00000E94381988E690E00E9417198091B3044A
:103B1000811192C200E511E0E12CF12CD12CD801E9
:103B20008D919C911197019709F05BC018968D912A
:103B30009C911997CC970CF054C08091B3048111DB
:103B400050C00E941118F80182809380A480B58033
:103B5000861A970AA80AB90AF2E18F169104A104FD
:103B6000B10408F08EC084EB93E00E9417194AE07C
:103B7000C501B4010E949B188FEA93E00E941719B7
:103B800088EA93E00E9417198D2D0E9438198CE95C
:103B900093E00E941719D80118968D919C9119975E
:103BA0002AE0289FF001299FF00D1124E051FE4FDB
:103BB0008D919C9111979183808312968D919D9107
:103BC0000D90BC91A02D80589E4AAE4FBF4FF8017A
:103BD00082839383A483B583B801C7010E94FA0E40
:103BE00050C00E941118D80112964D905D906D90B2
:103BF0007C90159753014201861A970AA80AB90AC0
:103C0000BAE08B169104A104B104D8F5F801208123
:103C1000318121303105A9F52085318528353105DF
:103C200081F5D301C20180589E4AAE4FBF4F8283B7
:103C30009383A483B583B801C7010E94FA0E8FE66F
:103C400093E00E94171988E693E00E9417198D2DC2
:103C50000E9438198CE593E00E94171989E593E0DA
:103C60000E9417194AE0C501B4010E949B1884E51F
:103C700093E00E9417190E947A0E86E293E00E9458
:103C80001719D394065F1F4FFAE0EF0EF11C20E5E1
:103C9000E216F10409F043CFE0EFAE2EE1E0BE2ED4
:103CA000F0EAEF2EF1E0FF2EAFE48A2EA6E09A2E86
:103CB000BAEFCB2EB3E0DB2E1AEC212E13E0312E1F
:103CC000370185012C961FAE2C97D8018D919C91C0
:103CD0001197019709F0ADC08091B3048111A9C07B
:103CE0001896ED91FC911997EA5AFD4F60E080819A
:103CF0000E94E0150E946616F40120813181428104
:103D00005381DC01CB01821B930BA40BB50B893EC5
:103D10009340A105B10508F48CC0F601828193811E
:103D2000A481B5810196A11DB11D82839383A483D3
:103D3000B583809132048130A9F5D80118964D9051
:103D40005C901997F201EA5AFD4F20818CE193E0D3
:103D50002F962FAF2F970E9417192C968FAD2C9767
:103D60000E94381981E193E00E941719C2010E9454
:103D70003F198FE093E00E9417192F962FAD2F97D0
:103D8000822F0E9438198DE093E00E941719F601E6
:103D900062817381848195810E94370B86EE92E067
:103DA0000E9417190E946616D4016D937D938D931E
:103DB0009C931397F6014281538164817581F801C8
:103DC00082819381A481B581481759076A077B07CF
:103DD00080F14084518486ED92E00E9417192C9660
:103DE0008FAD2C970E9438198EEB92E00E94171924
:103DF000C2010E943F1988EB92E00E941719D80176
:103E000011961C921E9221E030E0F3013183208351
:103E10001896ED91FC911997EA5AFD4F61E0808167
:103E20000E94E015D10112961D921D921D921C92C6
:103E300015972C962FAD2C972F5F2C962FAF2C9784
:103E4000065F1F4F3AE0630E711C86E0280E311C9E
:103E500094E0890E911CA6E0CA0ED11C283009F00E
:103E600034CF6FE2862E66E0962E0AEC13E07AEFEE
:103E7000672E73E0772ED12CF70180819181019715
:103E800009F09FC08091B30481119BC00084F1852B
:103E9000E02DEA5AFD4F61E080810E94E0150E940A
:103EA0006616D4012D913D914D915C91DC01CB01C1
:103EB000821B930BA40BB50B893E9340A105B10562
:103EC00008F47FC0F80182819381A481B5810196B5
:103ED000A11DB11D82839383A483B5838091320495
:103EE000813089F5D7011896ED91FC911997EA5A1E
:103EF000FD4FC080F501408451848DEA92E00E941C
:103F000017198D2D0E94381982EA92E00E94171924
:103F1000C2010E943F1980EA92E00E9417198C2D7D
:103F20000E9438198EE992E00E941719D801129662
:103F30006D917D918D919C9115970E94370B87E72C
:103F400092E00E9417190E946616F4016083718343
:103F500082839383D80112964D915D916D917C91EE
:103F60001597F70182819381A481B581481759077C
:103F70006A077B0730F14084518487E692E00E9413
:103F800017198D2D0E9438198EE492E00E9417199E
:103F9000C2010E943F1988E492E00E941719D701DC
:103FA0001D921C92F501868197818130910549F41B
:103FB00091838083D30112961D921D921D921C92B3
:103FC0001597D394BAE0EB0EF11CEAE0AE0EB11CEB
:103FD000F6E06F0E711C24E0820E911C0A5F1F4FE9
:103FE00038E0D31249CF0E946616009173061091F3
:103FF00074062091750630917606DC01CB01801B9A
:10400000910BA20BB30B893E9340A105B105B0F013
:104010006091B40481E068276093B4048DE00E944D
:10402000E0150E9466166093730670937406809381
:1040300075069093760602C00E942D0F9E012F5F99
:104040003F4F790100E010E00E94661660938605FC
:10405000709387058093880590938905E0917E058C
:10406000F0917F050284F385E02D8EE795E00995B8
:1040700097FD09C0D7018D937D010F5F1F4F0E3152
:10408000110511F71DC00E9466168090860590905C
:104090008705A0908805B0908905DC01CB018819BF
:1040A0009909AA09BB098090820590908305A09088
:1040B0008405B090850588159905AA05BB0570F2A1
:1040C000E1E0F0E0EC0FFD1FE00FF11F108261E96D
:1040D00072E0CE018B5B9F4F0E94551565E972E03F
:1040E000CE01CF960E9455156EE972E0CE01019681
:1040F0000E940A2B7C01BC01CE018B5B9F4F0E946A
:104100002F152796CEACDFAC2797C114D10409F444
:1041100044C02B960EAD1FAD2B9701151105E9F18B
:1041200046015401BFEF8B1A9B0AF5018081082ECE
:10413000000C990B0E943E2B892B99F70150110915
:104140000C0D1D1DD8018C91082E000C990B0E949E
:104150003E2B892B89F4A8014F5F5F4F4A195B09F9
:104160002B965FAF4EAF2B97CA14DB0458F4B50102
:10417000C6010E941C2E06C00A151B0560F30150E3
:104180001109E0CF2796EEADFFAD27972B968EADA8
:104190009FAD2B97E80FF91F108262EA72E0CE0103
:1041A00081960E945515BE016F5D7F4FCE018B5BDE
:1041B0009F4F0E94DF148C01CE0181960E94501502
:1041C00017FD0EC08EEE9CE00E9417190E94111878
:1041D0000E94CA0B8CEE9CE00E94171901E001C0FE
:1041E00000E06AEA72E0CE0181960E945515BE0198
:1041F0006F5D7F4FCE018B5B9F4F0E94DF146C0180
:10420000CE0181960E94501510E0D7FCFCC0E1144D
:10421000F10401F16EE972E080E090E00E940A2B67
:104220007C010E94EC2AFE013196E10FF11DE10FA5
:10423000F11D91A380A30E943F1988EE9CE00E948B
:104240001719812F0E94381986EE9CE00E941719D9
:104250001F5FDDCF8DA18CAF8BA18DAF89A1825B5C
:104260008EAF8FA18AAF89A589AF8BA588AFCE010C
:10427000C8960E94C0084B015C01AE014F5C5F4FC5
:104280000E948009CC24C394C0925C0558E6D52EC8
:10429000D0927D0510921F0610921E0660E082E209
:1042A00096E00E94F61329A90AE0822F602F0E944F
:1042B000B12B682F660F860F682F660F620F82E2A0
:1042C00096E00E94F6132AA9822F602F0E94B12B3C
:1042D000682F660F860F682F660F620F82E296E0E6
:1042E0000E94F6132BA9822F602F0E94B12B682FFA
:1042F000660F860F682F660F620F82E296E00E94BB
:10430000F6136CA982E296E00E94F6132DA9822F83
:10431000602F0E94B12B682F660F860F682F660FE3
:10432000620F82E296E00E94F6132EA9822F602F80
:104330000E94B12B682F660F860F682F660F620FE1
:1043400082E296E00E94F6132FA92E51822F602F51
:104350000E94B12B682F660F860F880F682F620F9F
:1043600082E296E00E94F61381E00E946F19C092EB
:104370005C05D0927D0510921F0610921E066FE01C
:1043800082E296E00E94F61381E00E946F1981118B
:104390000FC061E088E60E94CC191092210680933C
:1043A000200682E296E00E94AA132D968FAF2D97E9
:1043B00081E080935C0588E680937D0510921F065E
:1043C00010921E066FE082E296E00E94F6132D9690
:1043D0006FAD2D976F7782E296E00E94F61381E031
:1043E0000E946F19C501B4010E94EA1785ED9CE097
:1043F0000E941719C501B4010E94CA0B83ED9CE00D
:104400000E94171901E062EB72E0CE01C1960E9492
:104410005515BE016F5C7F4FCE018B5B9F4F0E9495
:10442000DF146C01CE01C1960E945015D7FC90C0DC
:10443000E114F10499F06EE972E080E090E00E94EE
:104440000A2B7C010E94EC2AFE013196E10FF11D3E
:10445000E10FF11D91A380A31F5FEACF89A09AA06D
:104460008AE0889D5001899DB00C1124F501E0512E
:10447000FE4F6F0189A59AA5978386838BA59CA57E
:10448000918780871182108281E08CAF8DAF1EAE44
:104490008BA18AAF8DA189AF8FA188AFCE01C896BD
:1044A0000E94C008D60112966D937D938D939C93C4
:1044B0001597B0E5AB0EB11CB601C5010E94FA0E0E
:1044C00085EA9CE00E9417198AE99CE00E9417196E
:1044D000C4010E943F1981E99CE00E941719F6016E
:1044E00062817381848195810E94370BD601169673
:1044F0008D909C90179718966D907C901997CD9001
:10450000DC9088E89CE00E941719C6010E943F19C0
:1045100080E89CE00E941719C3010E943F1983E7BD
:104520009CE00E941719C4010E943F1989E59CE094
:104530000E941719C5010E943F1987E59CE00E945F
:1045400017190E94250D89E29CE00E94171901E0CD
:104550006DEB72E0CE01C1960E945515BE016F5CF5
:104560007F4FCE018B5B9F4F0E94DF146C01CE0109
:10457000C1960E945015D7FC96C0E114F10499F041
:104580006EE972E080E090E00E940A2B7C010E94BC
:10459000EC2AFE013196E10FF11DE10FF11D91A30F
:1045A00080A31F5FEACF89A09AA08AE0889D50016E
:1045B000899DB00C1124F501E056FE4F6F0189A5CD
:1045C0009AA5978386838BA59CA591878087118266
:1045D000108281E08CAF8DAF1EAE8BA18AAF8DA112
:1045E00089AF8FA188AFCE01C8960E94C008D601BE
:1045F00012966D937D938D939C931597B0EAAB0EB5
:10460000B11CB601C5010E94FA0E6AE070E080E0BC
:1046100090E00E942C168BEF9BE00E9417198FEE02
:104620009BE00E941719C4010E943F1986EE9BE08F
:104630000E941719F60162817381848195810E941D
:10464000370BD60116968D909C90179718966D9003
:104650007C901997CD90DC908DED9BE00E9417190E
:10466000C6010E943F1985ED9BE00E941719C30106
:104670000E943F1988EC9BE00E941719C4010E9418
:104680003F198EEA9BE00E941719C5010E943F194D
:104690008CEA9BE00E9417190E94CB0C8EE79BE0EE
:1046A0000E94171901E069EC72E0CE01C1960E94E8
:1046B0005515BE016F5C7F4FCE018B5B9F4F0E94F3
:1046C000DF146C01CE01C1960E945015D7FCA7C023
:1046D000E114F10499F06EE972E080E090E00E944C
:1046E0000A2B7C010E94EC2AFE013196E10FF11D9C
:1046F000E10FF11D91A380A31F5FEACF89A09AA0CB
:104700008AE0889D5001899DB00C1124F501E05B81
:10471000FE4F6F0189A59AA5978386838BA59CA5DB
:1047200091878087118210820E9411182B013C0111
:104730000E94510A80912F048DAFC301B2010E94E3
:10474000510A80912E048CAFC301B2010E94510A1C
:10475000809130048EAF8BA18AAF8DA189AF8FA1DC
:1047600088AFCE01C8960E94C008D60112966D93FC
:104770007D938D939C931597B601C5010E94FA0E07
:104780006AE070E080E090E00E942C1680E59BE0FB
:104790000E94171988E49BE00E941719C4010E9427
:1047A0003F198FE39BE00E941719F6016281738124
:1047B000848195810E94370BD60116968D909C902E
:1047C000179718966D907C901997CD90DC9086E3A2
:1047D0009BE00E941719C6010E943F198BE29BE0E3
:1047E0000E941719C3010E943F1982E29BE00E94B8
:1047F0001719C4010E943F1988E09BE00E94171915
:10480000C5010E943F1986E09BE00E94171981E0D4
:104810000E94830D88ED9AE00E94171901E062ED75
:1048200072E0CE01C1960E945515BE016F5C7F4FAC
:10483000CE018B5B9F4F0E94DF146C01CE01C196AD
:104840000E945015D7FC86C0E114F10499F06EE97E
:1048500072E080E090E00E940A2B7C010E94EC2A2A
:10486000FE013196E10FF11DE10FF11D91A380A32F
:104870001F5FEACF89A09AA02AE0289DC001299D48
:10488000900D1124FC01E051FE4F6F012BA13CA1C2
:10489000318320835C01F0E5AF0EB11CB601C50188
:1048A0000E94FA0E6AE070E080E090E00E942C1610
:1048B0008AEA9AE00E9417196BED72E08EE795E0A4
:1048C0000E948615C4010E943F1963EE72E08EE7D4
:1048D00095E00E948615D60112966D917D918D917D
:1048E0009C9115970E94370BF60186809780608413
:1048F0007184C080D1806CEE72E08EE795E00E94FA
:104900008615C6010E943F1965EF72E08EE795E0BB
:104910000E948615C3010E943F1960E073E08EE794
:1049200095E00E948615C4010E943F1969E073E07A
:104930008EE795E00E948615C5010E943F1960E947
:1049400072E08EE795E00E9486158CE79AE00E945F
:10495000171901E063E273E0CE01C1960E9455157C
:10496000BE016F5C7F4FCE018B5B9F4F0E94DF14B7
:104970006C01CE01C1960E945015D7FC7DC0E11498
:10498000F10499F06EE972E080E090E00E940A2B59
:104990007C010E94EC2AFE013196E10FF11DE10F2E
:1049A000F11D91A380A31F5FEACF89A09AA02AE0FE
:1049B000289DC001299D900D11249C0120563E4F39
:1049C00069012BA13CA1D6012D933C935C01B0E57C
:1049D000AB0EB11CB601C5010E94FA0E6AE070E090
:1049E00080E090E00E942C168EE49AE00E94171955
:1049F00082E49AE00E941719C4010E943F1989E3DA
:104A00009AE00E941719F601628173818481958171
:104A10000E94370BD60116968D909C90179718968A
:104A20006D907C901997CD90DC9080E39AE00E9485
:104A30001719C6010E943F1985E29AE00E941719D2
:104A4000C3010E943F198CE19AE00E941719C4012A
:104A50000E943F1982E09AE00E941719C5010E9446
:104A60003F1980E09AE00E9417190E94CB0C82ED5A
:104A700099E00E94171901E06FE273E0CE01C19640
:104A80000E945515BE016F5C7F4FCE018B5B9F4F1F
:104A90000E94DF146C01CE01C1960E945015D7FC14
:104AA00077C0E114F10499F06EE972E080E090E0E3
:104AB0000E940A2B7C010E94EC2AFE013196E10F34
:104AC000F11DE10FF11D91A380A31F5FEACF89A023
:104AD0009AA08AE0889D5001899DB00C1124F501AF
:104AE000E05BFE4F6F018BA19CA191838083BF018E
:104AF000C5010E94FA0E6AE070E080E090E00E943A
:104B00002C1684EA99E00E9417198CE999E00E941A
:104B10001719C4010E943F1983E999E00E941719EF
:104B2000D60112966D917D918D919C9115970E9461
:104B3000370BF6018680978060847184C080D180B5
:104B40008AE899E00E941719C6010E943F198FE771
:104B500099E00E941719C3010E943F1986E799E066
:104B60000E941719C4010E943F198CE599E00E9428
:104B70001719C5010E943F198AE599E00E9417198B
:104B800081E00E94830D8CE299E00E94171901E0F8
:104B900068E373E0CE01C1960E945515BE016F5CBB
:104BA0007F4FCE018B5B9F4F0E94DF146C01CE01C3
:104BB000C1960E945015D7FC44C0E114F10499F04D
:104BC0006EE972E080E090E00E940A2B7C010E9476
:104BD000EC2AFE013196E10FF11DE10FF11D91A3C9
:104BE00080A31F5FEACF0BA1CCA0E9A1FAA1EA5AEA
:104BF000FD4FD080602F8D2D0E94E0158EEF98E044
:104C00000E9417198FEE98E00E941719812F0E94B9
:104C1000381988EE98E00E9417198D2D0E943819D6
:104C20008AED98E00E941719802F9C2D0E943F1951
:104C300088ED98E00E9417198AEA98E00E941719F7
:104C400001E061E473E0CE01C1960E945515BE01FA
:104C50006F5C7F4FCE018B5B9F4F0E94DF146C0116
:104C6000CE01C1960E945015D7FCF7C08CE798E0A2
:104C70000E9417196EE972E080E090E00E940A2B12
:104C80007C01DC018C91082E000C990BC0970A97CF
:104C900008F0C9C0C7010E94EC2A5C019AA389A34D
:104CA0000AE00A9DC0010B9D900D1124FC01E05B00
:104CB000FE4F6F0162817381848195810E94CA0BCE
:104CC000D60116968D909C90179718966D907C90B3
:104CD00019974D905C9081E798E00E941719C501E3
:104CE0000E943F1982E698E00E941719C2010E94B3
:104CF0003F198AE598E00E941719C3010E943F19E5
:104D000081E598E00E941719C4010E943F198FE4C1
:104D100098E00E941719F60180859185089FF0019F
:104D2000099FF00D1124E051FE4F6281738184814F
:104D300095810E94370BD60118962D903C901997BB
:104D4000029DF001039DF00D1124E051FE4F86807D
:104D50009780608471844080518081E498E00E9453
:104D60001719C1010E943F1982E398E00E941719A8
:104D7000C2010E943F198AE298E00E941719C301FC
:104D80000E943F198DE198E00E941719C4010E940A
:104D90003F198BE198E00E941719F60180859185F3
:104DA000089FF001099FF00D1124E056FE4F62812B
:104DB0007381848195810E94370BD6011896CD901E
:104DC000DC9019970C9DF0010D9DF00D1124E0561B
:104DD000FE4F8680978060847184408051808CE093
:104DE00098E00E941719C6010E943F198DEF97E0C5
:104DF0000E941719C2010E943F1985EF97E00E9497
:104E00001719C3010E943F1988EE97E00E941719F5
:104E1000C4010E943F1986EE97E00E9417198A2D5F
:104E20000E94E70A15C080E00E94830D89EB97E09D
:104E30000E9417190E94250D8CE897E00E9417190F
:104E40000E94CB0C8FE597E00E9417190E941E0B61
:104E500081E397E00E94171901E06FE473E0CE014F
:104E6000C1960E945515BE016F5C7F4FCE018B5BD2
:104E70009F4F0E94DF146C01CE01C1960E94501515
:104E8000D7FC29C0E114F10499F06EE972E080E0EA
:104E900090E00E940A2B7C010E94EC2AFE013196D0
:104EA000E10FF11DE10FF11D91A380A31F5FEACF78
:104EB00083E097E00E9417198AEE96E00E94171986
:104EC0000E94F61087ED96E00E94171989EA96E095
:104ED0000E94171901E064E673E0CE01C1960E94BA
:104EE0005515BE016F5C7F4FCE018B5B9F4F0E94BB
:104EF000DF146C01CE01C1960E945015D7FC17C07B
:104F00006BE18EE795E00E94D0126AE673E08EE7CF
:104F100095E00E9486156BE18EE795E00E94D01225
:104F20006EE673E08EE795E00E94861501E061E78A
:104F300073E0CE01C1960E945515BE016F5C7F4F94
:104F4000CE018B5B9F4F0E94DF146C01CE01C19696
:104F50000E945015D7FC9AC0E114F10421F16EE9CA
:104F600072E080E090E00E940A2B7C01FC018081CD
:104F7000082E000C990B0E94142E892B39F0B701D2
:104F8000CE018B5B9F4F0E942F150BC0C7010E9463
:104F9000EC2AFE013196E10FF11DE10FF11D91A305
:104FA00080A31F5FD9CF8DA19EA1C9A0DAA0BE01A9
:104FB0006B5B7F4F019789F4CE01CF960E94DF147F
:104FC000F601E555FB4F20E830E002C03595279506
:104FD0008A95E2F78081282B20C0CE01CF960E94CF
:104FE000DF14F601E555FB4FAC01475051094770FE
:104FF00055272EEF30E0B90102C0759567954A95A7
:10500000E2F747E050E0DA01A81BB90B01C0220F1C
:10501000AA95EAF7262B808128232083F601E555FF
:10502000FB4F5F01BF01C6018E5A9E4F0E94620E68
:105030008BE796E00E94171982E696E00E94171906
:10504000C6010E943F1985E596E00E94171935E9CF
:10505000C32E32E0D32E00E040E8942ED5018C918F
:10506000892119F0F601608101C06FE58EE795E0B6
:105070000E946A150F5F9694FFEFCF1ADF0A08307F
:1050800069F787E296E00E94171901E06FE773E085
:10509000CE01C1960E945515BE016F5C7F4FCE01B7
:1050A0008B5B9F4F0E94DF146C01CE01C1960E9462
:1050B0005015D7FC22C089EF95E00E9417196EE9C0
:1050C00072E080E090E00E940A2B7C01DC018C9170
:1050D000082E000C990BC0970A9740F4C7010E9454
:1050E000EC2A89A39AA30E94E70A02C00E941E0B21
:1050F0008BEC95E00E94171901E061E973E0CE01A5
:10510000C1960E945515BE016F5C7F4FCE018B5B2F
:105110009F4F0E94DF146C01CE01C1960E94501572
:10512000D7FC69C0E114F10499F06EE972E080E007
:1051300090E00E940A2B7C010E94EC2AFE0131962D
:10514000E10FF11DE10FF11D91A380A31F5FEACFD5
:10515000A9A0BAA0C501880F991F880F991FFC014B
:10516000ED5CFB4F2BA120832DA121832FA1228356
:1051700021E039A5311101C020E02383FC01ED5C61
:10518000FB4F6F01BF018AE591E00E94C70ED60177
:1051900013960C91139712969C90129711968C90DF
:1051A0001197DC9081EC95E00E941719C5010E94CF
:1051B0003F1988EB95E00E9417198D2D0E94381930
:1051C00086EB95E00E941719882D0E94381984EB10
:1051D00095E00E941719892D0E94381980EA95E000
:1051E0000E941719802F90E00E943F198EE995E0E8
:1051F0000E94171901E06CE973E0CE01C1960E948C
:105200005515BE016F5C7F4FCE018B5B9F4F0E9497
:10521000DF146C01CE01C1960E945015D7FC0BC063
:1052200080E795E00E9417190E94890A82E495E0C0
:105230000E94171901E06CEA73E0CE01C1960E944A
:105240005515BE016F5C7F4FCE018B5B9F4F0E9457
:10525000DF146C01CE01C1960E945015D7FC3BC0F3
:10526000E114F10499F06EE972E080E090E00E94B0
:105270000A2B7C010E94EC2AFE013196E10FF11D00
:10528000E10FF11D91A380A31F5FEACF09A1DAA06E
:105290000093320462E374E087ED91E00E94620EB5
:1052A0006AE070E080E090E00E942C1684E195E0D6
:1052B0000E9417198EEF94E00E941719802F9D2DE0
:1052C0000E943F198CEF94E00E9417198EEC94E035
:1052D0000E94171901E066EB73E0CE01C1960E94AF
:1052E0005515BE016F5C7F4FCE018B5B9F4F0E94B7
:1052F000DF146C01CE01C1960E945015D7FC4BC043
:10530000EF2899F06EE972E080E090E00E940A2BAD
:105310007C010E94EC2AFE013196E10FF11DE10FA4
:10532000F11D91A380A31F5FEBCF19A10AA11093D8
:10533000310461E374E088ED91E00E94620E6AE05E
:1053400070E080E090E00E942C1680EA94E00E94D9
:1053500017198EE894E00E941719812F902F0E9450
:105360003F198CE894E00E94171980913104813034
:1053700039F482E794E00E9417190E947A0E08C05F
:1053800083E694E00E9417191092B3040E942D0F37
:1053900085E394E018C0011118C0E114F104A9F0EC
:1053A00087E094E00E9417198EEF93E00E9417198E
:1053B000B7018EE795E00E94861585EE93E00E9486
:1053C000171987EB93E00E941719CE01CF960E9420
:1053D0005015CE018B5B9F4F0E9450150E946616A0
:1053E00000916F061091700620917106309172063F
:1053F000DC01CB01801B910BA20BB30B81369A4EC3
:10540000A105B10578F10E9411186B017C01698337
:105410007A838B839C839E012F5F3F4F590103ED5D
:1054200011E0D5016D915D011AA309A3CE0181960A
:105430000E94E80D0F5F1F4F073DB1E01B0789F782
:10544000C701B6010E94CA0B0E94661660936F06E0
:1054500070937006809371069093720687EF9CE0BC
:105460000E9417190E9439130C94861DCF93DF9365
:10547000109281051092800588EE93E0A0E0B0E0E4
:105480008093820590938305A0938405B09385054E
:105490002FE632E030937F0520937E0525EC30E047
:1054A00030938B0520938A0524EC30E030938D05F2
:1054B00020938C0520EC30E030938F0520938E05EF
:1054C00021EC30E0309391052093900522EC30E000
:1054D000309393052093920526EC30E030939505A8
:1054E00020939405109297051092980510929905B3
:1054F00010929A0510922506109224068093260693
:1055000090932706A0932806B093290681E892E09D
:105510009093230680932206109221061092200673
:1055200010921F0610921E0610921D0681E08093B5
:105530001C0610921B0661E082E10E94E01561E00A
:1055400083E10E94E0158091B9008E7F8093B900BD
:105550008091B9008D7F8093B90088E48093B80072
:1055600085E48093BC000E94661660937706709372
:1055700078068093790690937A060E946616609367
:1055800073067093740680937506909376060E9456
:10559000661660936F067093700680937106909301
:1055A0007206CFE4D6E00E946616699379938993D8
:1055B000999386E0CF36D807B1F7CFE2D6E00E94C4
:1055C0006616699379938993999386E0CF34D807C7
:1055D000B1F7DF91CF910895FC0188279927E894CE
:1055E00021912032E9F3293010F02E30C8F32B320C
:1055F00041F02D3239F4689404C00E94362B820F9A
:10560000911D219120532A30C0F31EF4909581956D
:105610009F4F08954BE756E00E940F2B0895FA0123
:10562000A191B081009719F41097E1F0CD01DC0150
:10563000CD010D90002011F4C00113C0FB01219198
:10564000222319F02015D9F7F3CFFB012191201562
:1056500019F41E92119606C02223C1F70D90002066
:10566000A1F7D001FA01A193B08308957AE0979F42
:10567000902D879F802D910D1124089591110C94E8
:10568000472B803219F089508550C8F70895992723
:1056900088270895F999FECF92BD81BDF89A992780
:1056A00080B50895262FF999FECF1FBA92BD81BD0E
:1056B00020BD0FB6F894FA9AF99A0FBE0196089594
:1056C0000E94A22BA59F900DB49F900DA49F800DCA
:1056D000911D112408952F923F924F925F926F92E5
:1056E0007F928F929F92AF92BF92CF92DF92EF9272
:1056F000FF920F931F93CF93DF93CDB7DEB7CA1BF3
:10570000DB0B0FB6F894DEBF0FBECDBF09942A881D
:10571000398848885F846E847D848C849B84AA84C5
:10572000B984C884DF80EE80FD800C811B81AA8152
:10573000B981CE0FD11D0FB6F894DEBF0FBECDBF1D
:10574000ED010895A29FB001B39FC001A39F700D0A
:10575000811D1124911DB29F700D811D1124911D79
:105760000895991B79E004C0991F961708F0961BBD
:10577000881F7A95C9F78095089597FB072E16F430
:10578000009407D077FD09D00E94FB2B07FC05D0C1
:105790003EF4909581959F4F0895709561957F4F48
:1057A0000895A1E21A2EAA1BBB1BFD010DC0AA1F62
:1057B000BB1FEE1FFF1FA217B307E407F50720F07A
:1057C000A21BB30BE40BF50B661F771F881F991FF5
:1057D0001A9469F760957095809590959B01AC013E
:1057E000BD01CF010895B7FF0C94602B0E94602B80
:1057F000821B930B0895AA1BBB1B51E107C0AA1F74
:10580000BB1FA617B70710F0A61BB70B881F991F61
:105810005A95A9F780959095BC01CD010895EE0F9A
:10582000FF1F0590F491E02D0994CF93DF93823010
:10583000910510F482E090E0E0917F06F0918006FF
:1058400020E030E0C0E0D0E0309711F1408151819C
:1058500048175907C0F04817590761F482819381AE
:10586000209719F09B838A832BC0909380068093A6
:105870007F0626C02115310519F04217530718F489
:105880009A01BE01DF01EF010280F381E02DDCCF40
:105890002115310509F1281B390B2430310590F40D
:1058A00012968D919C9113976115710521F0FB0162
:1058B0009383828304C09093800680937F06FD01CA
:1058C000329644C0FD01E20FF31F81939193225061
:1058D00031092D933C933AC020917D0630917E068C
:1058E000232B41F4209142023091430230937E06F3
:1058F00020937D062091400230914102211531050F
:1059000041F42DB73EB74091440250914502241B0B
:10591000350BE0917D06F0917E06E217F307A0F4C7
:105920002E1B3F0B2817390778F0AC014E5F5F4FF5
:105930002417350748F04E0F5F1F50937E064093A3
:105940007D068193919302C0E0E0F0E0CF01DF910A
:10595000CF9108950F931F93CF93DF93009709F48E
:105960008CC0FC0132971382128200917F06109145
:1059700080060115110581F420813181820F931F6A
:1059800020917D0630917E062817390779F5F0932E
:105990007E06E0937D0671C0D80140E050E0AE176E
:1059A000BF0750F412962D913C911397AD0121152C
:1059B000310509F1D901F3CF9D01DA013383228347
:1059C00060817181860F971F8217930769F4EC013C
:1059D00028813981260F371F2E5F3F4F3183208367
:1059E0008A819B8193838283452B29F4F0938006DF
:1059F000E0937F0642C01396FC93EE931297ED015D
:105A0000499159919E01240F351FE217F30771F454
:105A100080819181840F951F029611969C938E939D
:105A20008281938113969C938E931297E0E0F0E02D
:105A3000D80112968D919C911397009719F0F80157
:105A40008C01F6CF8D919C9198012E5F3F4F820F74
:105A5000931F20917D0630917E062817390769F43F
:105A6000309729F41092800610927F0602C01382AC
:105A7000128210937E0600937D06DF91CF911F91D5
:105A80000F910895A0E0B0E0E8E4FDE20C946F2BE4
:105A9000EC01009721F4CB010E94152CB8C0FC0149
:105AA000E60FF71F9C0122503109E217F30708F4B3
:105AB000ACC0D9010D911C91119706171707B0F0D2
:105AC0000530110508F49FC0C80104978617970791
:105AD00008F499C002501109061B170B019311938A
