:100000000C94F0080C9418090C9418090C94180915
:100010000C9418090C9418090C9418090C941809DC
:100020000C9418090C9418090C9418090C941809CC
:100030000C9418090C9418090C9418090C941809BC
:100040000C94F7150C9418090C9433150C940D1599
:100050000C9418090C9418090C9418090C9418099C
:100060000C9441160C941809206E6F7468696E67C1
:1000700020746F20646F2C20736C656570696E67E7
:100080002E2E2E0A00536C65657074696D652069AB
:10009000732020002062757420697320696E61638B
:1000A00074697665206F72206974732074696D6558
:1000B00072206973206E6F7420726570656174615F
:1000C000626C650A00204C61756E6368696E67201A
:1000D0006974732074696D65720A0020427574201A
:1000E0006861732061207765656B6C792044617964
:1000F0004F666620746F6461790A002000204163B6
:10010000746976653A2000466F756E6420416C61B3
:10011000726D3A20002046696E69736865642072CA
:100120006573746F72696E670A000A004C617374BC
:100130002074696D65207265636F72646564200068
:1001400043697263756974206861732072657373A3
:10015000657465642C20747279696E6720746F20F1
:10016000726573756D6520696E74657272757074F1
:100170006564206F7065726174696F6E732E2E2EC8
:100180000A000A002054696D652E20416374697667
:10019000653D002054696D6572204F666620636F6F
:1001A000756E74646F776E20000A002054696D6567
:1001B0002E204163746976653D002054696D657237
:1001C000204F6E20636F756E74646F776E20000A27
:1001D00000536C65657074696D652069732020003B
:1001E0000A00566572626F73697479206973202002
:1001F00000416C61726D7320696E666F20697320B7
:100200006C6F616465640A0020455050524F4D2068
:10021000616C726561647920696E697469616C6989
:100220007A65640A00200054696D652069732000B6
:10023000525443206861732073657420746865208C
:1002400073797374656D2074696D6500556E6162B4
:100250006C6520746F2073796E63207769746820F1
:1002600074686520525443002068617320446179AA
:10027000206F666620746F6461792C2073636865F3
:1002800064756C696E6720697420746F20746F6D7B
:100290006F72726F770A00416C61726D200020727C
:1002A000657065617473206C656674202E2E2E0A4D
:1002B0000049742068617320002000204F464620CA
:1002C000636F756E74646F776E206F6E2052656C0D
:1002D0006179200020526561636865642074696DEE
:1002E00065722000202E2E2E0A002000204F464648
:1002F00020636F756E74646F776E206F6E20526529
:100300006C617920002052656163686564207469BE
:100310006D65722000206973206163746976652CB5
:1003200020636865636B696E672069747320636F0F
:10033000756E74646F776E2E2E2E0A0020003A00C0
:10034000206F6E2052656C6179200054696D657272
:10035000204F66662000202E2E2E0A002000204FFF
:100360004E20636F756E74646F776E206F6E2052CF
:10037000656C617920002052656163686564207452
:10038000696D657220002069732061637469766508
:100390002C20636865636B696E67206974732063E2
:1003A0006F756E74646F776E2E2E2E0A0020003AE1
:1003B00000206F6E2052656C6179200054696D6574
:1003C00072204F6E20000A2A2A2A2A2A2A2A2A2A3A
:1003D0002A2A2A2A2A2A2A2A2A2A2A2A2A2A2A2A7D
:1003E0002A2A2A2A2A2A2A2A2A2A2A2A2A2A2A2A6D
:1003F0002A2A0A002E2E2E0A00743D0020726169FE
:100400007365642E2E2E0A00416C61726D20002AE5
:100410002A2A2A2A2A2A2A2A2A2A2A2A2A2A2A2A3C
:100420002A2A2A2A2A2A2A2A2A2A2A2A2A2A2A2A2C
:100430002A2A2A2A2A2A2A2A2A2A0A0020726169B2
:100440007365642E2E2E0A00416C61726D20002EA1
:100450002E2E0A00743D000A2A2A2A2A2A2A2A2A2B
:100460002A2A2A2A2A2A2A2A2A2A2A2A2A2A2A2AEC
:100470002A2A2A2A2A2A2A2A2A2A2A2A2A2A2A2ADC
:100480002A2A2A0A00206973206E6F742061207660
:10049000616C696420636F6D6D616E640A00576101
:1004A000726E696E6720000A2A2A2A2A2A2A2A2AB4
:1004B0002A2A2A2A2A2A2A2A2A2A2A2A2A2A2A2A9C
:1004C0002A2A2A2A2A2A2A2A2A2A2A2A2A2A2A2A8C
:1004D0002A2A2A0A000A2A2A2A2A2A2A2A2A2A2AE6
:1004E0002A2A2A2A2A2A2A2A2A2A2A2A2A2A2A2A6C
:1004F0002A2A2A2A2A2A2A2A2A2A2A2A2A2A2A2A5C
:100500002A0A0057616B696E672075702E2E2E20A7
:100510000A004665656C696E6720536C6565707985
:100520002C207A7A7A2E2E2E2E200A000A002053B2
:100530006C6565702069732073657420746F20008A
:100540000A2A2A2A2A2A2A2A2A2A2A2A2A2A2A2A2B
:100550002A2A2A2A2A2A2A2A2A2A2A2A2A2A2A2AFB
:100560002A2A2A2A2A2A2A2A2A2A2A2A0A000A2A55
:100570002A2A2A2A2A2A2A2A2A2A2A2A2A2A2A2ADB
:100580002A2A2A2A2A2A2A2A2A2A2A2A2A2A2A2ACB
:100590002A2A2A2A2A2A2A2A2A2A0A000A0020562D
:1005A0006572626F73697479206973207365742052
:1005B000746F20000A2A2A2A2A2A2A2A2A2A2A2A60
:1005C0002A2A2A2A2A2A2A2A2A2A2A2A2A2A2A2A8B
:1005D0002A2A2A2A2A2A2A2A2A2A2A2A2A2A2A2A7B
:1005E0000A000A2A2A2A2A2A2A2A2A2A2A2A2A2AD5
:1005F0002A2A2A2A2A2A2A2A2A2A2A2A2A2A2A2A5B
:100600002A2A2A2A2A2A2A2A2A2A2A2A2A2A0A0094
:100610000A2A2A2A2A2A2A2A2A2A2A2A2A2A2A2A5A
:100620002A2A2A2A2A2A2A2A2A2A2A2A2A2A2A2A2A
:100630002A2A2A2A2A2A2A2A2A2A2A2A0A000A00AE
:1006400020796561726C7920726570656174616290
:100650006C6520002F002F00206973206E6F7720BB
:100660000020486F6C7964617920000A2A2A2A2ABE
:100670002A2A2A2A2A2A2A2A2A2A2A2A2A2A2A2ADA
:100680002A2A2A2A2A2A2A2A2A2A2A2A2A2A2A2ACA
:100690002A2A2A2A2A2A2A0A000A2A2A2A2A2A2A24
:1006A0002A2A2A2A2A2A2A2A2A2A2A2A2A2A2A2AAA
:1006B0002A2A2A2A2A2A2A2A2A2A2A2A2A2A2A2A9A
:1006C0002A2A2A2A2A0A000A2A2A2A2A2A2A2A2AF4
:1006D0002A2A2A2A2A2A2A2A2A2A2A2A2A2A2A2A7A
:1006E0002A2A2A2A2A2A2A2A2A2A2A2A2A2A2A2A6A
:1006F0002A2A2A0A00206172652073657420746FAB
:1007000020005765656B6C79204461796F6666736C
:1007100020666F7220616C61726D000A2A2A2A2A93
:100720002A2A2A2A2A2A2A2A2A2A2A2A2A2A2A2A29
:100730002A2A2A2A2A2A2A2A2A2A2A2A2A2A2A2A19
:100740002A2A2A2A2A2A2A0A000A2A2A2A2A2A2A73
:100750002A2A2A2A2A2A2A2A2A2A2A2A2A2A2A2AF9
:100760002A2A2A2A2A2A2A2A2A2A2A2A2A2A2A2AE9
:100770002A2A2A2A2A0A00446F6E6520696E697443
:1007800069616C697A696E670A00496E69746961AA
:100790006C697A696E6720416C6C20616C61726D66
:1007A000730A000A2A2A2A2A2A2A2A2A2A2A2A2ACA
:1007B0002A2A2A2A2A2A2A2A2A2A2A2A2A2A2A2A99
:1007C0002A2A2A2A2A2A2A2A2A2A2A2A2A2A2A0AA9
:1007D000000A2A2A2A2A2A2A2A2A2A2A2A2A2A2AC3
:1007E0002A2A2A2A2A2A2A2A2A2A2A2A2A2A2A2A69
:1007F0002A2A2A2A2A2A2A2A2A2A2A2A2A0A0020AD
:10080000202020202020202020203D2D3D2D3D2D6A
:100810003D2D3D2D3D2D3D2D3D2D3D2020202020E9
:10082000202020202020202020200A0020202020FE
:10083000202020202020203D2D3D2D3D2D3D2D3DF3
:100840002D3D2D3D2D3D2D3D202020202020202000
:10085000202020202020200A0020202020202020CE
:10086000202020203D2D3D2D3D2D3D2D3D2D3D2D8C
:100870003D2D3D2D3D202020202020202020202007
:10088000202020200A000A002052657065617461F2
:10089000626C653D002052656C61793D00205469B1
:1008A0006D652E204163746976653D002069732073
:1008B00054696D6572204F666620000A00205265FB
:1008C0007065617461626C653D002052656C617990
:1008D0003D002054696D652E204163746976653D45
:1008E000002069732054696D6572204F6E20000AE4
:1008F000002052616E646F6D3D002054696D657219
:100900003D002054696D652E204163746976653D14
:100910000020697320416C61726D20000A2A2A2A26
:100920002A2A2A2A2A2A2A2A2A2A2A2A2A2A2A2A27
:100930002A2A2A2A2A2A2A2A2A2A2A2A2A2A2A2A17
:100940002A2A2A2A2A2A2A2A0A000A2A2A2A2A2A71
:100950002A2A2A2A2A2A2A2A2A2A2A2A2A2A2A2AF7
:100960002A2A2A2A2A2A2A2A2A2A2A2A2A2A2A2AE7
:100970002A2A2A2A2A2A0A000A0020204368616EAD
:1009800067656420746F20005D2050696E20002030
:1009900052656C6179436F6E74726F6C5B000A2AEA
:1009A0002A2A2A2A2A2A2A2A2A2A2A2A2A2A2A2AA7
:1009B0002A2A2A2A2A2A2A2A2A2A2A2A2A2A2A2A97
:1009C0002A2A2A2A2A2A2A2A2A2A0A000A2A2A2AF1
:1009D0002A2A2A2A2A2A2A2A2A2A2A2A2A2A2A2A77
:1009E0002A2A2A2A2A2A2A2A2A2A2A2A2A2A2A2A67
:1009F0002A2A2A2A2A2A2A2A0A000A002053617649
:100A00006564206F6E20454550524F4D20616464EF
:100A10007265737320002052616E646F6D3D00201B
:100A20004F6E2054696D65723D0020416374697694
:100A3000653D002053657420746F200020416C6177
:100A4000726D20000A2A2A2A2A2A2A2A2A2A2A2ACF
:100A50002A2A2A2A2A2A2A2A2A2A2A2A2A2A2A2AF6
:100A60002A2A2A2A2A2A2A2A2A2A2A2A2A2A2A2AE6
:100A70000A000A2A2A2A2A2A2A2A2A2A2A2A2A2A40
:100A80002A2A2A2A2A2A2A2A2A2A2A2A2A2A2A2AC6
:100A90002A2A2A2A2A2A2A2A2A2A2A2A2A2A0A0000
:100AA0000A00205361766564206F6E2045455052E0
:100AB0004F4D206164647265737320002052616E33
:100AC000646F6D3D00204F6E2054696D65723D006E
:100AD000204163746976653D002053657420746F0E
:100AE00020002054696D6572204F666620000A2A36
:100AF0002A2A2A2A2A2A2A2A2A2A2A2A2A2A2A2A56
:100B00002A2A2A2A2A2A2A2A2A2A2A2A2A2A2A2A45
:100B10002A2A2A2A2A2A2A2A2A2A0A000A2A2A2A9F
:100B20002A2A2A2A2A2A2A2A2A2A2A2A2A2A2A2A25
:100B30002A2A2A2A2A2A2A2A2A2A2A2A2A2A2A2A15
:100B40002A2A2A2A2A2A2A2A0A000A2A2A2A2A2A6F
:100B50002A2A2A2A2A2A2A2A2A2A2A2A2A2A2A2AF5
:100B60002A2A2A2A2A2A2A2A2A2A2A2A2A2A2A2AE5
:100B70002A2A2A2A2A2A0A000A2A2A2A2A2A2A2A3F
:100B80002A2A2A2A2A2A2A2A2A2A2A2A2A2A2A2AC5
:100B90002A2A2A2A2A2A2A2A2A2A2A2A2A2A2A2AB5
:100BA0002A2A2A2A0A000A00205361766564206FE7
:100BB0006E20454550524F4D2061646472657373D9
:100BC00020002052616E646F6D3D00204F6E2054F6
:100BD000696D65723D00204163746976653D002052
:100BE00053657420746F200020416C61726D206425
:100BF00061746520000A2A2A2A2A2A2A2A2A2A2AED
:100C00002A2A2A2A2A2A2A2A2A2A2A2A2A2A2A2A44
:100C10002A2A2A2A2A2A2A2A2A2A2A2A2A2A2A2A34
:100C20002A0A000A2A2A2A2A2A2A2A2A2A2A2A2A8E
:100C30002A2A2A2A2A2A2A2A2A2A2A2A2A2A2A2A14
:100C40002A2A2A2A2A2A2A2A2A2A2A2A2A2A2A0A24
:100C5000000A00205361766564206F6E2045455080
:100C6000524F4D206164647265737320002052619D
:100C70006E646F6D3D00204F6E2054696D65723D4E
:100C800000204163746976653D00205365742074CB
:100C90006F200020416C61726D20000A2A2A2A2AE6
:100CA0002A2A2A2A2A2A2A2A2A2A2A2A2A2A2A2AA4
:100CB0002A2A2A2A2A2A2A2A2A2A2A2A2A2A2A2A94
:100CC0002A2A2A2A2A2A2A0A000A2A2A2A2A2A2AEE
:100CD0002A2A2A2A2A2A2A2A2A2A2A2A2A2A2A2A74
:100CE0002A2A2A2A2A2A2A2A2A2A2A2A2A2A2A2A64
:100CF0002A2A2A2A2A0A000A0020536176656420DB
:100D00006F6E20454550524F4D206164647265738B
:100D10007320002052657065617461626C653D00EE
:100D20002052656C61793D00204163746976653DB0
:100D3000002053657420746F20002054696D657223
:100D4000204F666620000A2A2A2A2A2A2A2A2A2AC4
:100D50002A2A2A2A2A2A2A2A2A2A2A2A2A2A2A2AF3
:100D60002A2A2A2A2A2A2A2A2A2A2A2A2A2A2A2AE3
:100D70002A2A0A000A2A2A2A2A2A2A2A2A2A2A2A3D
:100D80002A2A2A2A2A2A2A2A2A2A2A2A2A2A2A2AC3
:100D90002A2A2A2A2A2A2A2A2A2A2A2A2A2A2A2AB3
:100DA0000A000A00205361766564206F6E20454575
:100DB00050524F4D2061646472657373200020525D
:100DC000657065617461626C653D002052656C619F
:100DD000793D00204163746976653D002053657458
:100DE00020746F20002054696D6572204F6E2000C2
:100DF0000A2A2A2A2A2A2A2A2A2A2A2A2A2A2A2A73
:100E00002A2A2A2A2A2A2A2A2A2A2A2A2A2A2A2A42
:100E10002A2A2A2A2A2A2A2A2A2A2A2A0A000A00C6
:100E20005254432054696D652053657420746F20BB
:100E3000000A00202D20000A0054696D65206973A6
:100E400020002054696D652053617665640A004571
:100E500072724A616E4665624D61724170724D6197
:100E6000794A756E4A756C4175675365704F637446
:100E70004E6F764465630020686173204461792079
:100E80006F666620746F6461792C20736368656493
:100E9000756C696E6720697420746F20746F6D6F54
:100EA00072726F770A00416C61726D20000A2A2A03
:100EB0002A2A2A2A2A2A2A2A2A2A2A2A2A2A2A2A92
:100EC0002A2A2A2A2A2A2A2A2A2A2A2A2A2A2A2A82
:100ED0002A2A2A2A2A2A2A2A2A0A00546F6461798D
:100EE00020697320616E207363686564756C656446
:100EF00020686F6C796461792C20676F696E672058
:100F0000746F20736C6565702E2E2E0A000A2A2AD3
:100F10002A2A2A2A2A2A2A2A2A2A2A2A2A2A2A2A31
:100F20002A2A2A2A2A2A2A2A2A2A2A2A2A2A2A2A21
:100F30002A2A2A2A2A2A2A2A2A0A000A2A2A2A2A7B
:100F40002A2A2A2A2A2A2A2A2A2A2A2A2A2A2A2A01
:100F50002A2A2A2A2A2A2A2A2A2A2A2A2A2A2A2AF1
:100F60002A2A2A2A2A2A2A0A0054696D65206973C6
:100F7000200057616B696E672075702E2E2E0A0057
:100F8000207261697365642E2E2E0A00416C6172B5
:100F90006D20002D2D2D2D2D2D2D2D2D2D2D3D3D5B
:100FA0003D3D3D3D3D3D3D3D3D204177616B696EA1
:100FB00067203D3D3D3D3D3D3D3D3D3D3D2D2D2D84
:100FC0002D2D2D2D2D2D2D2D0A000A002052616E64
:100FD000646F6D3D002054696D65723D0020546959
:100FE0006D652E204163746976653D0020416C611A
:100FF000726D20000A002052657065617461626C38
:10100000653D002052656C61793D002054696D6535
:101010002E204163746976653D002054696D6572C8
:10102000204F6E20000A0020526570656174616275
:101030006C653D002052656C61793D002054696DFE
:10104000652E204163746976653D002054696D65A5
:1010500072204F666620000A0020617265200057EA
:1010600065656B6C79204461794F666673206F66A5
:1010700020416C61726D2000202879792F6D6D2FD1
:101080006464290A0020796561726C792072657048
:1010900065617461626C6520002F002F0020697308
:1010A000200020486F6C7964617920000A00536C3D
:1010B00065657074696D652069732020000A0056AB
:1010C0006572626F7369747920697320200020450E
:1010D0004550524F4D20686173206265656E2069EE
:1010E0006E697469616C697A65640A0054696D653A
:1010F00020697320005265616C6C7920676F696E9E
:101100006720746F20736C6565702C206E6F77207C
:101110002E2E2E0A005475726E696E6720737461EC
:10112000747573206C6564206F66662E2E2E0A001F
:10113000537769746368696E672072656C6179734F
:10114000206F66662E2E2E0A0053657474696E67D2
:101150002074696D657273206F66662E2E2E0A00EC
:1011600053657474696E6720536C65657074696D3E
:1011700065206269742E2E2E0A00476F696E672003
:10118000746F20736C6565702E2E2E0A00000000AF
:101190000800020100000304070000000000000036
:1011A0000000000000250028002B000000000024A3
:1011B0000027002A000404040404040404020202B8
:1011C0000202020303030303030102040810204088
:1011D0008001020408102001020408102000122DD2
:1011E00011241FBECFEFD8E0DEBFCDBF26E0A8ECB4
:1011F000B3E001C01D92AB39B207E1F713E0A0E004
:10120000B1E0EAE5F2E602C005900D92A83CB10714
:10121000D9F718E0C0EFD8E004C02197FE010E9482
:10122000EB2ECF3ED107C9F70E94E01A0C942B3168
:101230000C940000CF92DF92EF92FF920F931F93D6
:10124000CF93DF93EB017B012AE0E20EF11C8B01CF
:101250006C01C61AD70AC601800F911F0E94262E64
:10126000F80181938F01EE15FF05A9F7CE01DF91FB
:10127000CF911F910F91FF90EF90DF90CF90089545
:10128000CF92DF92EF92FF920F931F93CF93DF9352
:10129000EB017B0124E0E20EF11C8B016C01C61A0C
:1012A000D70AC601800F911F0E94262EF801819354
:1012B0008F01EE15FF05A9F7CE01DF91CF911F91A8
:1012C0000F91FF90EF90DF90CF9008956F927F92F3
:1012D0008F929F92AF92BF92CF92DF92EF92FF9246
:1012E0000F931F93CF93DF93EA012CE3C22ED12CEF
:1012F000E12CF12CA70196010E94AD2E6883CA0152
:10130000B901A70196010E94AD2E6983CA01B901F6
:1013100028E130E040E050E00E94AD2E69017A0102
:101320006A83CA01B9016C5F7F4F8F4F9F4F27E0DF
:1013300030E040E050E00E94AD2E6F5F6B83812C67
:10134000912C540140E034E6632E712C00E911E049
:10135000242F30E02E54384FF901E370FF273097E7
:1013600089F4C901B3010E94992E892B31F4C90176
:10137000B8010E94992E892B29F48EE691E0A0E015
:10138000B0E004C08DE691E0A0E0B0E0880E991EC8
:10139000AA1EBB1ED501C401AA27BB27C816D906A1
:1013A000EA06FB0610F04F5FD3CF4E83309799F4D7
:1013B000C90164E670E00E94992E892B39F4C901B5
:1013C00060E971E00E94992E892B29F48EE691E064
:1013D000A0E0B0E004C08DE691E0A0E0B0E0881AA3
:1013E000990AAA0ABB0AC818D908EA08FB08C90161
:1013F00064E670E00E94992E8C01C90160E971E0F9
:101400000E94992EAFE5B2E020E0213041F4309700
:1014100051F40115110529F4009729F402C04C91EB
:1014200003C04DE101C04CE150E060E070E0C41643
:10143000D506E606F70640F0C41AD50AE60AF70A0A
:101440002F5F11962C3009F72F5F2D83C394CC8228
:10145000DF91CF911F910F91FF90EF90DF90CF9090
:10146000BF90AF909F908F907F906F900895CF9294
:10147000DF92EF92FF92C090D904D090DA04E0900E
:10148000DB04F090DC046C157D058E059F0571F082
:101490006B017C0144E354E00E946609C092D904C8
:1014A000D092DA04E092DB04F092DC04FF90EF903B
:1014B000DF90CF9008950E94370A80913A0490E01F
:1014C0008E54984F0895CF93DF93EB010E94262E00
:1014D0008883CE01DF91CF910895CF93DF93EB0105
:1014E0000E94262E8883CE01DF91CF910895BF926E
:1014F000CF92DF92EF92FF920F931F93CF93DF93E0
:101500000DE314E08AE5E82EFF24F394C0E0B8016F
:10151000C7010E94400984E0E80EF11C9701235C9A
:101520003B4FF901EB55F140D081F801D080F90132
:10153000ED55F140C0803196B08082EA90E10E9482
:10154000C8198C2F0E94E9198DE990E10E94C819F1
:101550008B2D0E94E9198BE990E10E94C8198C2D0E
:101560000E94E91989E990E10E94C8198D2D0E9415
:10157000E91985E890E10E94C8198D2F90E00E943A
:10158000F01988E790E10E94C819CF5F0C5F1F4FE8
:10159000CE3109F0BCCFDF91CF911F910F91FF9019
:1015A000EF90DF90CF90BF900895EF92FF920F934E
:1015B0001F93CF93DF93C82F8FE590E10E94C81946
:1015C0008C2F0E94E91989E590E10E94C81985E9EC
:1015D000E82E82E0F82E00E810E0D0E0CB54DB4F9C
:1015E0008881802319F0F701608101C06FE588E9E7
:1015F00095E00E94EF141F5F0695FFEFEF1AFF0AB8
:10160000183071F787E590E1DF91CF911F910F912D
:10161000FF90EF900C94C8191F93CF93DF93C2E50E
:10162000D1E01C2F1255BE016D597C4FCE010E9496
:10163000630A2196812F0E94D50ACA3581E0D80716
:1016400081F7DF91CF911F910895CF92DF92EF92B2
:10165000FF92CF93DF9300D000D000D0CDB7DEB79C
:101660006B017C010E94370A8091360490E0A0E073
:10167000B0E089839A83AB83BC838AE090E09E8349
:101680008D83C701B6010E94370A8091360490E02D
:101690000A971CF061E972E002C066EC73E088E929
:1016A00095E00E940B15CE0101960E948F196AE306
:1016B0000E94EF14C701B6010E94370A80913504D9
:1016C00090E0A0E0B0E089839A83AB83BC838AE09A
:1016D00090E09E838D83C701B6010E94370A8091F6
:1016E000350490E00A971CF061E972E002C066ECF4
:1016F00073E088E995E00E940B15CE0101960E94E7
:101700008F196AE30E94EF14C701B6010E94370ADD
:101710008091340490E0A0E0B0E089839A83AB83A9
:10172000BC838AE090E09E838D83C701B6010E944E
:10173000370A8091340490E00A971CF061E972E066
:1017400002C066EC73E088E995E00E940B15CE01BB
:1017500001960E948F1926960FB6F894DEBF0FBE31
:10176000CDBFDF91CF91FF90EF90DF90CF900895A4
:10177000CF92DF92EF92FF92CF93DF9300D000D011
:1017800000D0CDB7DEB76B017C010E94370A809193
:10179000380490E0A0E0B0E089839A83AB83BC83F7
:1017A0008AE090E09E838D83C701B6010E94370ACC
:1017B0008091380490E00A971CF061E972E002C061
:1017C00066EC73E088E995E00E940B15CE01019666
:1017D0000E948F196CE972E00E940B15C701B601D7
:1017E0000E945B0A092E000CAA0BBB0B89839A830B
:1017F000AB83BC838AE090E09E838D83C701B601F2
:101800000E94370A2091390483E0289F9001112417
:10181000AFECB4E080E090E0FC01E20FF31FE15B8D
:10182000F14FE491ED93019683309105A9F7109261
:10183000D2046FEC74E088E995E00E940B156CE926
:1018400072E088E995E00E940B15CE0101960E9496
:101850008F1960E20E94EF14C701B6010E94370A97
:101860008091360490E0A0E0B0E089839A83AB8356
:10187000BC838AE090E09E838D83C701B6010E94FD
:10188000370A8091360490E00A971CF061E972E013
:1018900002C066EC73E088E995E00E940B15CE016A
:1018A00001960E948F196AE30E94EF14C701B601E6
:1018B0000E94370A8091350490E0A0E0B0E089836F
:1018C0009A83AB83BC838AE090E09E838D83C701BB
:1018D000B6010E94370A8091350490E00A971CF007
:1018E00061E972E002C066EC73E088E995E00E946D
:1018F0000B15CE0101960E948F196AE30E94EF1426
:10190000C701B6010E94370A8091340490E0A0E03C
:10191000B0E089839A83AB83BC838AE090E09E83A6
:101920008D83C701B6010E94370A8091340490E08C
:101930000A971CF061E972E002C066EC73E088E986
:1019400095E00E940B15CE0101960E948F192696F4
:101950000FB6F894DEBF0FBECDBFDF91CF91FF90E1
:10196000EF90DF90CF9008958F929F92AF92BF92A9
:10197000CF92DF92EF92FF921F93CF93DF93C0EA53
:10198000D1E010E080EAE82EF12CBE01C7010E94F0
:101990001A098AE0E80EF11C6AE070E080E090E04D
:1019A0000E94B1156A817B818C819D810E94B80B58
:1019B000CE80DF80A884B984888099808BE490E110
:1019C0000E94C819812F0E94E9198CE390E10E94BE
:1019D000C819C4010E94F01984E390E10E94C8195B
:1019E000C5010E94F01987E290E10E94C819C60162
:1019F0000E94F01985E290E10E94C8191F5F2A96A3
:101A0000183019F6DF91CF911F91FF90EF90DF9082
:101A1000CF90BF90AF909F908F9008957F928F92BC
:101A20009F92AF92BF92CF92DF92EF92FF920F936D
:101A30001F93CF93DF93782EC0EFD1E000E010E04A
:101A400080E5E82EF12C81E078120DC0BE01C701BF
:101A50000E941A098AE0E80EF11C6AE070E080E05A
:101A600090E00E94B1156A817B818C819D810E94EA
:101A7000B80BCE80DF80A884B984888099808AE101
:101A800090E10E94C819C8010E94F0198BE090E112
:101A90000E94C819C4010E94F01983E090E10E94DD
:101AA000C819C5010E94F01986EF9FE00E94C8196D
:101AB000C6010E94F01984EF9FE00E94C8190F5FD1
:101AC0001F4F2A960830110509F0BDCFDF91CF9145
:101AD0001F910F91FF90EF90DF90CF90BF90AF904C
:101AE0009F908F907F9008957F928F929F92AF9258
:101AF000BF92CF92DF92EF92FF920F931F93CF93FB
:101B0000DF93782EC0E5D1E000E010E0E12CF12C6D
:101B100081E078120DC0BE01C7010E941A098AE057
:101B2000E80EF11C6AE070E080E090E00E94B115E0
:101B30006A817B818C819D810E94B80BCE80DF8081
:101B4000A884B984888099808CEE9FE00E94C8198F
:101B5000C8010E94F0198DED9FE00E94C819C401D0
:101B60000E94F01985ED9FE00E94C819C5010E94EE
:101B7000F0198CEC9FE00E94C819C6010E94F01970
:101B80008AEC9FE00E94C8190F5F1F4F2A96083009
:101B9000110509F0BDCFDF91CF911F910F91FF90FB
:101BA000EF90DF90CF90BF90AF909F908F907F90FD
:101BB0000895EF92FF920F931F93CF93DF931F929D
:101BC000CDB7DEB77C01FC0100811181C8016983BA
:101BD0000E94262E6981681719F0C8010E942E2ED6
:101BE000C7010F90DF91CF911F910F91FF90EF9060
:101BF0000895EF92FF920F931F93CF93DF9300D03E
:101C0000CDB7DEB78C017B01FB0160819A838983AC
:101C1000CE0101960E94D90DF70161810F5F1F4F20
:101C20001A830983CE0101960E94D90DC7010F9036
:101C30000F90DF91CF911F910F91FF90EF9008953A
:101C4000AF92BF92CF92DF92EF92FF920F931F93CA
:101C5000CF93DF9300D0CDB7DEB78B016B0126E0C9
:101C6000C20ED11C7B015C01A61AB70A95012E0D8C
:101C70003F1DF70161917F013A832983CE010196CF
:101C80000E94D90DEC14FD0489F7C8010F900F9044
:101C9000DF91CF911F910F91FF90EF90DF90CF9048
:101CA000BF90AF9008950F931F93CF93DF9300D011
:101CB000CDB7DEB78B01FB0160819A838983CE01AA
:101CC00001960E94D90DC8010F900F90DF91CF911E
:101CD0001F910F91089581E080933B048AE791E181
:101CE0000E94C8196BE374E088ED91E00E94530EE6
:101CF00080E691E10E94C81989E491E10E94C81927
:101D000080E090E0FC01E051FE4F11821082FC0166
:101D1000E056FE4F118210820A968035910591F7A8
:101D200080E391E10E94C81961E087E00E94651597
:101D300061E086E00E94651561E085E00E9465151E
:101D400061E084E00E94651585E191E10E94C81977
:101D500060E08DE00E94651585EF90E10E94C81952
:101D600081E08093BD048CEE90E10E94C8190E942E
:101D700096170C94B80BAF92BF92CF92DF92EF926E
:101D8000FF920F931F93CF93DF9300D0CDB7DEB7B1
:101D90008B016B0124E0C20ED11C7B015C01A61AF1
:101DA000B70A95012E0D3F1DF70161917F013A831E
:101DB0002983CE0101960E94D90DEC14FD0489F708
:101DC000C8010F900F90DF91CF911F910F91FF905D
:101DD000EF90DF90CF90BF90AF900895AF92BF92F9
:101DE000CF92DF92EF92FF920F931F93CF93DF93E7
:101DF00000D0CDB7DEB78B016B012AE0C20ED11C3B
:101E00007B015C01A61AB70A95012E0D3F1DF70153
:101E100061917F013A832983CE0101960E94D90DF9
:101E2000EC14FD0489F7C8010F900F90DF91CF915A
:101E30001F910F91FF90EF90DF90CF90BF90AF90E8
:101E400008952F923F924F925F926F927F928F925E
:101E50009F92AF92BF92CF92DF92EF92FF920F9339
:101E60001F93CF93DF93CDB7DEB72D970FB6F894BE
:101E7000DEBF0FBECDBF65E972E0CE0108960E94BD
:101E8000DA140E9496172B013C010E94370A8091B8
:101E900036048B83C301B2010E94370A8091350456
:101EA0008A83C301B2010E94370A80913404898376
:101EB0002DE3C22E24E0D22E00E414E0312C3AE5CA
:101EC000E32EFF24F394BB24B394B601C7010E9410
:101ED000400944E0E40EF11CF80131978081F601DD
:101EE00090819D83F801329790819E83825E8F83DB
:101EF000CE0101960E942018641575058605970588
:101F0000F9F48091BD04811110C0C301B2010E9497
:101F1000B80B8DE09FE00E94C8198BED9EE00E94F7
:101F2000C8198DEA9EE00E94C819F80180818111CC
:101F300005C0B082B601C7010E94BB0E33243394A2
:101F4000F4E0CF0ED11C0C5F1F4F42EDE41641E0D0
:101F5000F40609F0BACFC301B2010E94370A80919A
:101F600039048E83C301B2010E94370A809138047C
:101F70008D83C301B2010E945B0A825B8F8300E5FF
:101F800011E085EBC82E84E0D82EE12CF12C90E8EE
:101F9000A92EB12C2C2C85EB94E0281AF6019190F7
:101FA0006F01C301B2010E94370A292D30E08091F0
:101FB00037048150A50102C0559547958A95E2F7EF
:101FC000CA0182239323892B91F1C301B2010E949C
:101FD000370A90903904F801628173818481958178
:101FE0000E94370A80913904981221C0C301B201BE
:101FF0000E94370A90903804F801628173818481CD
:1020000095810E94370A80913804981210C0C3014C
:10201000B2010E945B0A4C01F801628173818481E4
:1020200095810E945B0A8816990609F479C0FAE046
:10203000EF0EF11C065F1F4F40E5E416F10409F0B6
:10204000A9CFCE0108960E94D514311065C000E5D5
:1020500011E0F12CF801808591858336910509F016
:1020600054C080819181019709F04FC00E9496175A
:10207000F80182809380A480B580DC01CB018819AF
:102080009909AA09BB094E97A105B105F0F583E9A5
:102090009FE00E94C8198CE89FE00E94C8198F2D0C
:1020A0000E94E91980E89FE00E94C81982E79FE03A
:1020B0000E94C81989E69FE00E94C8190E949617DD
:1020C0000E9496170E94B80B1092BD0410923B0418
:1020D0006BE374E088ED91E00E94530EF801828179
:1020E0009381A481B58180589E4AAE4FBF4F8283B1
:1020F0009383A483B583B801C801805591400E94A1
:10210000EE0E8BE39FE00E94C819F394065F1F4F09
:10211000F8E0FF129FCF41C081E08093BD043DC035
:10212000F80162817381848195810E94370A8091D0
:1021300036048B83F80162817381848195810E94CA
:10214000370A809135048A83F80162817381848122
:1021500095810E94370A809134048983CE010196CB
:102160000E942018DC01CB0180589E4AAE4FBF4F21
:10217000F80182839383A483B58386EA9EE00E945C
:10218000C819822D0E94E91987E79EE00E94C819AC
:10219000B801C7010E94EE0E4ACF2D960FB6F894F3
:1021A000DEBF0FBECDBFDF91CF911F910F91FF908A
:1021B000EF90DF90CF90BF90AF909F908F907F90E7
:1021C0006F905F904F903F902F9008958F929F92C5
:1021D000AF92BF92CF92DF92EF92FF920F931F9335
:1021E000CF93DF9300D0CDB7DEB7F0E5EF2EF1E06F
:1021F000FF2E812CAAE79A2EA9E4AA2EAAE5BA2ED0
:1022000000E010E0F7011182108282829382A482A2
:10221000B5821782168211861086B701C8010E9406
:10222000EE0E065F1F4FFAE0EF0EF11C8FEF881ADB
:10223000980AA80AB80A0035110521F770EFE72EB1
:1022400071E0F72EEAE08E2E912CA12CB12CF70133
:102250001182108282829382A482B58217821682B2
:1022600011861086B701C8010E94EE0E065F1F4F4F
:10227000FAE0EF0EF11C003A110549F750EAE52E9D
:1022800051E0F52E6AE0862E912CA12CB12CF7019D
:102290001182108282829382A482B5821782168272
:1022A00011861086B701C8010E94EE0E065F1F4F0F
:1022B000FAE0EF0EF11C003F110549F744E0E42E6F
:1022C00044E0F42EF70111821082128213821482EC
:1022D0001582B701C8010E94200E0A5F1F4FF6E069
:1022E000EF0EF11C003281E0180761F734EDE32EA8
:1022F00033E0F32EF70111821082128213821482CE
:102300001582B701C8010E94200E0A5F1F4FF6E038
:10231000EF0EF11C003581E0180761F722E9E22E8B
:1023200022E0F22EF70161917F011A830983CE0129
:1023300001960E94D90D0F5F1F4F0335F1E01F0773
:1023400089F795EBE92E94E0F92E02E511E0F7010B
:102350001082B701C8010E94530E0F5F1F4FFFEF9D
:10236000EF1AFF0A0A3581E0180789F78DE3C82EB6
:1023700084E0D82EF12CF601F082C801835C9B4FDB
:10238000FC01E955F140108231961082319610829D
:10239000B601C8010E94BB0E0C5F1F4FF394F4E01E
:1023A000CF0ED11C8EE1F812E6CF81E090E09A8347
:1023B0008983BE016F5F7F4F87ED91E00E94F90D29
:1023C0001A821982BE016F5F7F4F88ED91E00E94F3
:1023D000F90D8EEC90E10E94C81981E00E94740D05
:1023E00081E00E940E0D0E94B40C0E940C0B0E9412
:1023F000770A6CE374E087ED91E00E94630A109124
:102400003C048FEB90E10E94C819812F0E94E919CA
:102410008DEB90E10E94C8196BE374E088ED91E0C8
:102420000E94630A10913B048EEA90E10E94C81951
:10243000812F0E94E9198CEA90E10E94C8190F903F
:102440000F90DF91CF911F910F91FF90EF90DF9050
:10245000CF90BF90AF909F908F900895CF92DF92D2
:10246000EF92FF920F931F93CF93DF936C017A014A
:102470008B01C0E0D0E0CE15DF0589F0D8016D9169
:102480008D01D601ED91FC910190F081E02DC60106
:102490000995892B11F47E0102C02196ECCFC7016A
:1024A000DF91CF911F910F91FF90EF90DF90CF9030
:1024B0000895FC01538D448D252F30E0842F90E04A
:1024C000821B930B541710F0CF960895019708952F
:1024D000FC01918D828D981761F0828DDF01A80F2C
:1024E000B11D5D968C91928D9F5F9F73928F90E04E
:1024F00008958FEF9FEF0895FC01918D828D9817BD
:1025000031F0828DE80FF11D858D90E008958FEFF9
:102510009FEF0895FC01918D228D892F90E0805CC2
:102520009F4F821B91098F739927089588E995E041
:102530000E948A1221E0892B09F420E0822F08955D
:10254000FC01848DDF01A80FB11DA35ABF4F2C9150
:10255000848D90E001968F739927848FA689B7891F
:102560002C93A089B1898C9180648C93938D848DF8
:10257000981306C00288F389E02D80818F7D8083C7
:102580000895EF92FF920F931F93CF93DF93EC0187
:1025900081E0888F9B8D8C8D981305C0E889F9891F
:1025A000808185FD24C0F62E0B8D10E00F5F1F4F3C
:1025B0000F731127E02E8C8DE8120CC00FB607FCAC
:1025C000FACFE889F989808185FFF5CFCE010E9495
:1025D000A012F1CF8B8DFE01E80FF11DE35AFF4FE2
:1025E000F0820B8FEA89FB898081806207C0EE89C7
:1025F000FF896083E889F98980818064808381E034
:1026000090E0DF91CF911F910F91FF90EF9008958F
:10261000CF93DF93EC01888D8823C9F0EA89FB8989
:10262000808185FD05C0A889B9898C9186FD0FC080
:102630000FB607FCF5CF808185FFF2CFA889B98955
:102640008C9185FFEDCFCE010E94A012E7CFDF91E4
:10265000CF91089580E090E0892B29F00E94961296
:1026600081110C94000008953FB7F89480912E05D5
:1026700090912F05A0913005B091310526B5A89B0A
:1026800005C02F3F19F00196A11DB11D3FBFBA2F04
:10269000A92F982F8827820F911DA11DB11DBC0164
:1026A000CD0142E0660F771F881F991F4A95D1F729
:1026B000089585ED8093BC008091BC0084FDFCCF23
:1026C00010923706089540910405262F30E0240F1C
:1026D000311D21323105DCF4209137062430C9F454
:1026E000FC0180E090E0861758F4309104052191B8
:1026F000DC01AE51BB4FA30FB11D2C930196F3CF5C
:1027000080910405680F6093040580E0089581E0DE
:10271000089582E008950895E0913B0680913A067D
:10272000E81730F4F0E0EE5CFA4F808190E0089515
:102730008FEF9FEF089590913B0680913A0698178E
:1027400050F4E92FF0E0EE5CFA4F208130E09F5F1B
:1027500090933B0602C02FEF3FEFC901089580918F
:102760003A0690E020913B06821B91090895CF9292
:10277000DF92EF92FF920F931F93CF93DF937C0131
:10278000262F972F8A0180917605882391F0C62FF6
:10279000D72F6E01C40ED51ECC15DD0571F06991E1
:1027A000D701ED91FC910190F081E02DC7010995D1
:1027B000F3CF642F822F0E946313C801DF91CF9162
:1027C0001F910F91FF90EF90DF90CF900895CF93DE
:1027D000DF931F92CDB7DEB7698320917605222360
:1027E000D1F020913806203240F021E030E0FC01A9
:1027F0003383228380E090E015C080913906E82F72
:10280000F0E0E958FA4F998190838F5F8093390601
:102810008093380605C061E0CE0101960E946313E3
:1028200081E090E00F90DF91CF910895089580E0CE
:1028300090E00895982F92959F702AEF929F800DB7
:10284000112408950E94E830EF92FF920F931F9396
:10285000CF93DF93EC017B018A01888199810097F6
:1028600029F02A813B8124173507F8F4B8016F5FFE
:102870007F4F0E941E30009759F0998388831B83F5
:102880000A832C813D81232B81F4FC0110820DC031
:1028900088819981009711F00E94862F19821882F1
:1028A0001D821C821B821A8207C01D830C83B70104
:1028B000888199810E940A31CE01DF91CF911F91C9
:1028C0000F91FF90EF900895AF92BF92CF92DF9259
:1028D000EF92FF920F931F93CF93DF93FC0124811C
:1028E0003581FB01448155818901041B150B41157C
:1028F000510551F12115310539F12417350720F122
:102900000217130718F08901015011097B01FC011E
:10291000A080B180C501DFEFCFEF6501C00ED11EF1
:10292000C816D906A0F0F701608171810E941131AB
:10293000009769F09C012A193B090217130710F050
:10294000D22FC32F0196ECCF8FEF9FEF02C08D2FB8
:102950009C2FDF91CF911F910F91FF90EF90DF900F
:10296000CF90BF90AF900895CF93DF93EC016115A6
:10297000710559F0FB0101900020E9F73197AF0193
:10298000461B570B0E9424140CC088819981009724
:1029900011F00E94862F198218821D821C821B82D0
:1029A0001A82CE01DF91CF910895FC01808191813F
:1029B0000C94862FFC0111821082138212821582E0
:1029C00014826115710551F0FB0101900020E9F7B7
:1029D0003197AF01461B570B0C9424140895DC016A
:1029E000ED91FC910190F081E02D09946115710544
:1029F00079F0FB0101900020E9F73197AF01461B08
:102A0000570BDC01ED91FC910280F381E02D0994DC
:102A100080E090E008950C94F6141F920F920FB688
:102A20000F9211242F933F934F935F936F937F9354
:102A30008F939F93AF93BF93EF93FF9388E995E0B4
:102A40000E94A012FF91EF91BF91AF919F918F9142
:102A50007F916F915F914F913F912F910F900FBE9A
:102A60000F901F9018951F920F920FB60F9211247E
:102A70002F938F939F93EF93FF93E091A805F0918D
:102A8000A9058081E091AE05F091AF0582FD12C0ED
:102A900090818091B1058F5F8F732091B20582176D
:102AA00051F0E091B105F0E0E856FA4F958F809330
:102AB000B10501C08081FF91EF919F918F912F917E
:102AC0000F900FBE0F901F90189590E0FC01E357F8
:102AD000FE4E3491FC01E753FE4E2491FC01EB5471
:102AE000FE4EE491EE2309F43BC0332339F1333039
:102AF00091F038F43130A9F0323001F584B58F7D92
:102B000012C0373091F03830A1F03430B9F48091F0
:102B100080008F7D03C0809180008F77809380003C
:102B20000DC084B58F7784BD09C08091B0008F77C8
:102B300003C08091B0008F7D8093B000F0E0EE0F75
:102B4000FF1FEF55FE4EA591B4918FB7F894EC910D
:102B5000611103C020952E2301C02E2B2C938FBF13
:102B600008958F929F92AF92BF92CF92DF92EF9291
:102B7000FF926B017C010E9434134B015C01C11474
:102B8000D104E104F104F1F00E943413DC01CB0123
:102B900088199909AA09BB09883E9340A105B10586
:102BA00070F321E0C21AD108E108F10888EE880E1E
:102BB00083E0981EA11CB11CC114D104E104F104EE
:102BC00019F7DDCFFF90EF90DF90CF90BF90AF90DF
:102BD0009F908F9008952FB7F89460912A05709177
:102BE0002B0580912C0590912D052FBF08951F92E4
:102BF0000F920FB60F9211242F933F938F939F93B1
:102C0000AF93BF9380912A0590912B05A0912C053D
:102C1000B0912D053091290523E0230F2D3720F4A5
:102C20000196A11DB11D05C026E8230F0296A11D26
:102C3000B11D2093290580932A0590932B05A0931D
:102C40002C05B0932D0580912E0590912F05A09114
:102C50003005B09131050196A11DB11D80932E055F
:102C600090932F05A0933005B0933105BF91AF919C
:102C70009F918F913F912F910F900FBE0F901F90BA
:102C800018951F920F920FB60F9211242F933F9316
:102C90004F935F936F937F938F939F93AF93BF9364
:102CA000EF93FF938091B900887F803609F49CC030
:102CB00068F5883209F45BC090F4803109F454C09F
:102CC00038F4882309F4F6C0883009F44DC0F6C002
:102CD000883109F44CC0803209F45DC0EFC0803403
:102CE00009F468C048F4803309F455C0883309F00A
:102CF000E5C080937505D8C0803509F44FC088358C
:102D000009F45DC0883409F0D9C0D6C0883909F407
:102D1000C7C0A8F4883709F467C038F4883609F4C6
:102D200063C0803709F460C0C9C0883809F4B8C0EE
:102D3000803909F45FC0803809F0C0C05BC0803BB7
:102D400009F486C038F4803A09F466C0883A09F478
:102D50007FC0B4C0803C09F4A7C0883C09F4A4C07B
:102D6000883B09F48AC0AAC08091520510C0909196
:102D7000740580917305981770F5E091740581E0F2
:102D80008E0F80937405F0E0ED5AFA4F80818093A6
:102D9000BB0085EC86C0809375058EC0E0917405FC
:102DA00081E08E0F809374058091BB00F0E0ED5AB6
:102DB000FA4F808390917405809173056EC0E09105
:102DC000740581E08E0F809374058091BB00F0E064
:102DD000ED5AFA4F80838091360681116DC081E0F3
:102DE0008093350684EA61C083E0809337061092B1
:102DF0002805CFCF80912805803208F051C0E0919E
:102E0000280581E08E0F809328058091BB00F0E0BB
:102E1000E85FFA4F8083BDCF85EC8093BC001092B1
:102E2000370680912805803230F4E0912805F0E0E3
:102E3000E85FFA4F10826091280570E0E091060586
:102E4000F091070588E095E009951092280536C0B5
:102E500084E0809337061092050510920405E091F6
:102E60000205F0910305099580910405811105C0C3
:102E700081E0809304051092E204E091050581E071
:102E80008E0F80930505F0E0EE51FB4F808180931B
:102E9000BB009091050580910405981708F479CF3F
:102EA00085E88093BC000AC085EC8093BC0010923A
:102EB000370604C0109275050E945913FF91EF91D7
:102EC000BF91AF919F918F917F916F915F914F9142
:102ED0003F912F910F900FBE0F901F901895609308
:102EE000CC037093CD038093CE039093CF03DC018A
:102EF000CB01845D9E4FAF4FBF4F8093C80390932B
:102F0000C903A093CA03B093CB0382E090E09093EF
:102F1000D3038093D2030E94EB156093DD0470937A
:102F2000DE048093DF049093E0040895CF92DF9253
:102F3000EF92FF920F931F930E94EB15C090DD0458
:102F4000D090DE04E090DF04F090E0048B019C015F
:102F50000C191D092E093F098091CC039091CD03D6
:102F6000A091CE03B091CF03083E13402105310557
:102F7000D0F00196A11DB11D8093CC039093CD0399
:102F8000A093CE03B093CF03B701A60148515C4F85
:102F90006F4F7F4F4093DD045093DE046093DF0456
:102FA0007093E004C9CF4091C8035091C903609168
:102FB000CA037091CB0384179507A607B70788F15A
:102FC000E091D003F091D103309759F10995611543
:102FD00071058105910519F00E946F1722C080913B
:102FE000CC039091CD03A091CE03B091CF03845D2B
:102FF0009E4FAF4FBF4F8093C8039093C903A093D8
:10300000CA03B093CB0381E090E02091D2033091CA
:10301000D303232B11F480E090E09093D3038093AB
:10302000D2036091CC037091CD038091CE03909137
:10303000CF031F910F91FF90EF90DF90CF900895F5
:103040006F927F928F929F92AF92BF92CF92DF92B8
:10305000EF92FF920F931F93CF93DF93EC01EE81DA
:10306000AE2FB0E020E833E341EE51E00E943C2E69
:103070004B015C0122EB37E0FD0104E610E080E942
:10308000E82EFF24F394C901825B97408E179F07B7
:10309000DCF4C90183709927892B99F4C901B8011F
:1030A0000E94992E892B31F4C901B7010E94992EF3
:1030B000892B39F480E8880E81E5981E81E0A81EEE
:1030C000B11C2F5F3F4FDFCF6D80712CEE54F84F56
:1030D000CF0164E670E00E94992E7C01CF0160E987
:1030E00071E00E94992E6C0101E010E0E370FF276F
:1030F000061517052CF50230110581F4309771F48F
:10310000E114F10419F4C114D10441F480E8880EEB
:103110008BE3981E86E2A81EB11C0FC0D801A25AEC
:10312000BD4FAC91B0E020E831E541E050E00E94B5
:103130003C2E860E971EA81EB91E0F5F1F4FD8CFBC
:1031400049812A8130E0A0E1BEE00E947E2E6B0121
:103150007C01242F30E0ACE3B0E00E947E2EDC0145
:10316000CB018C0D9D1DAE1DBF1D28816C017D0105
:10317000C20ED11CE11CF11CAC81B0E0119720E81B
:1031800031E541E050E00E94CF2EDC01CB018C0DF7
:103190009D1DAE1DBF1DBC01CD01680D791D8A1D91
:1031A0009B1DDF91CF911F910F91FF90EF90DF90CA
:1031B000CF90BF90AF909F908F907F906F90089529
:1031C000CF93DF93CDB7DEB727970FB6F894DEBF66
:1031D0000FBECDBF81E08093760588E6809397058A
:1031E000109239061092380660E08CE396E00E9457
:1031F000E71381E00E94201A882331F08093E104D4
:1032000060E070E0CB013FC067E088E60E947D1A75
:1032100010923B0680933A068CE396E00E949B1343
:103220008F770E941A1489838CE396E00E949B1387
:103230000E941A148A838CE396E00E949B138F7B72
:103240000E941A148B838CE396E00E949B138C835C
:103250008CE396E00E949B130E941A148D838CE3EA
:1032600096E00E949B138F770E941A148E838CE342
:1032700096E00E949B130E941A14825E8F83CE01F7
:1032800001960E94201827960FB6F894DEBF0FBE55
:10329000CDBFDF91CF9108958F929F92AF92BF9251
:1032A0000F931F93CF93DF93CDB7DEB7A1970FB6E0
:1032B000F894DEBF0FBECDBF19A2423008F44AE039
:1032C0008E010F5D1F4F842E912CA12CB12CA501D6
:1032D00094010E94AD2EE62FB901CA0101501109D7
:1032E000EA3014F4E05D01C0E95CD801EC93232BD3
:1032F000242B252B61F7B80188E995E00E94F6148C
:10330000A1960FB6F894DEBF0FBECDBFDF91CF916F
:103310001F910F91BF90AF909F908F900895CF9283
:10332000DF92EF92FF92FC0144815581C080D180F1
:10333000E280F3804115510561F4E0919805F09128
:1033400099050190F081E02D6C2D88E995E00995B3
:1033500018C04A30510589F4F7FE0EC06DE288E9C5
:1033600095E00E94EF1466277727CB016C197D0941
:103370008E099F094AE003C04AE0C701B6010E94D6
:103380004C1988E995E0FF90EF90DF90CF90089579
:103390000F931F93CF93DF938C01C0E0D0E0F8012F
:1033A000EC0FFD1F6491662371F0E0919805F09198
:1033B00099050190F081E02D88E995E00995892B28
:1033C00011F02196ECCFCE01DF91CF911F910F919B
:1033D0000895682F70E080E090E04AE00C944C196A
:1033E000CF92DF92EF92FF92CF93DF936C01990F10
:1033F000EE08FF08F7FE19C06DE288E995E00E942B
:10340000EF14EC0166277727CB016C197D098E0933
:103410009F094AE00E944C198C0F9D1FDF91CF91AC
:10342000FF90EF90DF90CF9008954AE0C701B6017A
:10343000DF91CF91FF90EF90DF90CF900C944C19DB
:10344000382F2091380690919705213208F049C015
:10345000809137068111FCCF42E0409337063093CC
:1034600036063FEF3093750510927405209373056F
:10347000A7E7B5E043E555E0FA013E2F341B3217CC
:1034800018F43D913193F9CF1092520520915205D5
:10349000990F922B9093520590913506913061F4DB
:1034A00010923506909152059093BB009091BC000C
:1034B00093FDF8CF95EC01C095EE9093BC009091F0
:1034C00037069230E1F3909175059F3F79F0809136
:1034D0007505803241F080917505803331F084E0CC
:1034E00005C081E003C082E001C083E0109239068C
:1034F0001092380610927605089590913706911132
:10350000FCCF91E090933706909336062FEF2093EF
:10351000750510927405260F20937305909352053C
:1035200090915205880F892B809352058091350622
:10353000813061F410923506809152058093BB0072
:103540008091BC0083FDF8CF85EC01C085EE8093AF
:10355000BC00809137068130E1F3809174058617B5
:1035600010F460917405A3E5B5E022E335E0F901BC
:103570008E2F821B861718F48D918193F9CF862F99
:10358000089590E0FC01E753FE4E2491FC01EB54BA
:10359000FE4E8491882399F090E0880F991FFC01DA
:1035A000E555FE4EA591B491FC01EF55FE4E859177
:1035B00094918FB7F894EC91E22BEC938FBF089520
:1035C000CF93DF93CDB7DEB7CF54D1090FB6F894C0
:1035D000DEBF0FBECDBF789484B5826084BD84B554
:1035E000816084BD85B5826085BD85B5816085BDFE
:1035F00080916E00816080936E00109281008091B6
:10360000810082608093810080918100816080933D
:103610008100809180008160809380008091B10062
:1036200084608093B1008091B00081608093B0008D
:1036300080917A00846080937A0080917A00826021
:1036400080937A0080917A00816080937A008091E3
:103650007A00806880937A001092C10081E491E43E
:10366000A0E022968DAF9EAFAFAF22978DE00E9473
:10367000C11A87E00E94C11A86E00E94C11A85E043
:103680000E94C11A84E00E94C11AE091A805F0913D
:10369000A90582E08083E091A405F091A505108240
:1036A000E091A605F091A70580E180831092B00516
:1036B000E091AC05F091AD0586E08083E091AA052C
:1036C000F091AB05808180618083E091AA05F09143
:1036D000AB05808188608083E091AA05F091AB05FD
:1036E000808180688083E091AA05F091AB0580819C
:1036F0008F7D80830E949617C090CC03D090CD031D
:10370000E090CE03F090CF0320EE38E13093D10368
:103710002093D003C092C803D092C903E092CA0399
:10372000F092CB03672B682B692B29F40E94961724
:10373000DD24D39403C00E949617D12C0E949617C3
:103740008091D2039091D303029759F08CE492E0D8
:103750000E94C8196FE872E088E995E00E94F614AB
:1037600018C080E392E00E94C8196FE872E088E90F
:1037700095E00E94F61487E292E00E94C8190E9428
:1037800096170E94B80B60E972E088E995E00E9404
:103790000B15BE01615C7F4F80E591E00E946D0AD0
:1037A0006FE370E06C0F7D1F6F5F7F4F81E591E0ED
:1037B0000E946D0ABE01615C7F4FCE0101960E949E
:1037C000DA148D819E81892B49F062E972E089814A
:1037D0009A810E94013111E0892B09F010E0CE019D
:1037E00001960E94D514112309F45BC0BE01615CEF
:1037F0007F4FCE0101960E94DA1480E090E00E9493
:10380000F01985E292E00E94C8194D815E816981BC
:103810007A8188E995E00E942E1288E092E00E9469
:10382000C819CE0101960E94D51481EF91E00E9443
:10383000C81981E00E94740D81E00E940E0D0E9463
:10384000B40C0E940C0B0E94770A6CE374E087EDC5
:1038500091E00E94630A10913C0482EE91E00E9484
:10386000C819812F0E94E91980EE91E00E94C819C1
:103870006BE374E088ED91E00E94630A10913B04D1
:1038800081ED91E00E94C819812F0E94E9198FEC07
:1038900091E00E94C819A4E0EA2EA4E0FA2E10E0FC
:1038A00003C00E94E610F7CFD70112966D917D916B
:1038B0008D919C9115970E94B80BF701A080B18063
:1038C0008AEB91E00E94C819812F0E94E9198BEAC6
:1038D00091E00E94C819C5010E94F01989EA91E09F
:1038E0000E94C8191F5FF6E0EF0EF11C1830E1F6D8
:1038F000F4EDEF2EF3E0FF2E10E0D70112966D915C
:103900007D918D919C9115970E94B80BF701A08035
:10391000B18083E991E00E94C819812F0E94E919C2
:1039200084E891E00E94C819C5010E94F01982E85C
:1039300091E00E94C8191F5FF6E0EF0EF11C1830ED
:10394000E1F606E512E0E4E0FE2EF00E61E0D801BB
:103950008D918D010E9465156AEF70E080E090E026
:103960000E94B115F012F2CFDD2009F49EC180E46F
:1039700091E00E94C81980E1E6E4F2E0DE01919650
:1039800001900D928A95E1F76BE374E088ED91E088
:103990000E94630A10913B04111179C11092BD0479
:1039A0000E9496176B017C010E94370A80913904AE
:1039B0008EABC701B6010E94370A809138048DABE7
:1039C000C701B6010E945B0A825B8FAB7E01B8E340
:1039D000EB0EF11C03ED11E0C8010E94262EF70149
:1039E00081937F010F5F1F4F073DF1E01F07A1F794
:1039F0008CE291E00E94C81968AD79AD8AAD9BADAB
:103A00000E94B80B8AE291E00E94C8199E012F5FC4
:103A10003F4F7901690100E010E0F801E05BFE4FE3
:103A200082809380A480B580C501B4010E94370ACA
:103A3000809136048BABC501B4010E94370A809196
:103A400035048AABC501B4010E94370A8091340461
:103A500089ABCE01C1960E942018F801E050FF4FBB
:103A60006283738384839583D6016D937D938D9355
:103A70009D936D01F801E051FE4F11821082F80113
:103A8000E056FE4F11821082065F1F4F0035110570
:103A900021F687E090E0FE01319620E030E0281723
:103AA0003907DCF44191519161917191808091804D
:103AB000A280B38084169506A606B70658F4DF01E7
:103AC00014978D929D92AD92BC921397408351832F
:103AD000628373832F5F3F4FE2CF0197E1F6FE01D0
:103AE000B1969F01D7014D915D916D917D917D01C1
:103AF000A0E0B1E080E090E012968D909D90AD90B6
:103B0000BC901597481559056A057B0511F49183FA
:103B1000808301961A968830910571F73296E216E5
:103B2000F30601F7FE01F1967F0156E0C52ED12C78
:103B30006AE0B62E70E8672E712CD7019E908E90A9
:103B40007D01B89C8001B99C100D1124F801E05052
:103B5000FF4F22803380448055800E94961726169E
:103B600037064806590608F088C0005B1E4FF8016A
:103B7000808591858835910589F40E94210F8AE01E
:103B8000889DF001899DF00D1124E05BFE4F80853A
:103B900091850E94F01985E191E085C083369105F9
:103BA00061F34080518087E091E00E94C819C40110
:103BB0000E94F0198DEF90E00E94C819C2010E9486
:103BC000F0198BEF90E00E94C819F80162817381AF
:103BD000848195810E94B80BD8014D905C90B1E032
:103BE0004B16510409F045C0F80180859185B89EB7
:103BF000F001B99EF00D1124E051FE4F86819781AE
:103C000018161906B4F5F601EB54FB4F8180912C80
:103C10000E9496170E94370A8091370481509301C1
:103C200002C0359527958A95E2F78222932289284A
:103C300019F08BED90E01FC0D80118968D919C91E2
:103C40001997B89ED001B99EB00D1124A051BE4F56
:103C500011965C924E92880F991FFC01E254FB4F23
:103C600016968D919C9117979183808385EC90E0B7
:103C700002C084E990E00E94C819B1E0CB1AD108D3
:103C8000EEEFCE16EFEFDE0609F057CF0EC081E063
:103C90008093BD0485E890E00E94C819812F0E949E
:103CA000E91988E690E00E94C8198091BD0481114D
:103CB0009FC300E511E0C12CD12C312CD8018D918E
:103CC0009C911197019709F004C118968D919C91D0
:103CD0001997CC970CF0FDC08091BD048111F9C0FB
:103CE0000E949617F8014280538064807580461ABE
:103CF000570A680A790A0E9496174B015C010E94D4
:103D0000370A809139048E83C501B4010E94370AB5
:103D1000809138048D83C501B4010E945B0A825BE7
:103D20008F83C501B4010E94370A809136048B83CA
:103D3000C501B4010E94370A809135048A83C50108
:103D4000B4010E94370A80913404898330E5E32E60
:103D500031E0F32E25EB34E02D963FAF2EAF2D97BB
:103D6000A12CB12C2C962FAD2C9745EB54E0241BA5
:103D70002E962FAF2E972D96AEADBFAD2D979D9061
:103D80002D96BFAFAEAF2D970E9496170E94370AAF
:103D9000292D30E0809137048150E0E8F0E002C046
:103DA000F595E7958A95E2F7CF0182239323892B36
:103DB000B9F10E9496170E94370A90903904D701F2
:103DC00012966D917D918D919C9115970E94370A65
:103DD00080913904981224C00E9496170E94370AD5
:103DE00090903804F70162817381848195810E94EB
:103DF000370A80913804981213C00E9496170E94C7
:103E00005B0A4C01D70112966D917D918D919C9129
:103E100015970E945B0A8816990611F40C94D02C11
:103E2000BAE0AB0EB11CEAE0EE0EF11CF0E5AF1605
:103E3000B10409F097CF2AE04216510461047104DD
:103E400008F097C084E594E00E94C8194AE0C301D5
:103E5000B2010E944C198FE494E00E94C81988E4D2
:103E600094E00E94C819832D0E94E9198CE394E024
:103E70000E94C819D80118962D913C9119978AE093
:103E8000829FD001839FB00D1124A051BE4FF80135
:103E90008081918111969C938E934281538164819C
:103EA000758140585E4A6E4F7F4F428353836483CF
:103EB0007583F901EE0FFF1FE254FB4F16968D91AB
:103EC0009C91179791838083B801C6010E94EE0EE2
:103ED00050C00E949617D80112964D905D906D903B
:103EE0007C90159753014201861A970AA80AB90ACD
:103EF000BAE08B169104A104B104D8F5F801208131
:103F0000318121303105A9F52085318528353105EC
:103F100081F5D301C20180589E4AAE4FBF4F8283C4
:103F20009383A483B583B801C6010E94EE0E8FE08F
:103F300094E00E94C81988E094E00E94C819832D7B
:103F40000E94E9198CEF93E00E94C81989EF93E071
:103F50000E94C8194AE0C501B4010E944C1984EFBF
:103F600093E00E94C8190E946B0E86EC93E00E94B9
:103F7000C8193394065F1F4FFAE0CF0ED11C20E51D
:103F8000C216D10409F09ACEA0EFCA2EA1E0DA2E13
:103F900000EA11E0B9E68B2EB6E09B2E84ED282EC8
:103FA00083E0382E380194E0A92E94E0B92E7601F2
:103FB0002C961FAE2C97D7018D919C91119701974C
:103FC00009F0B8C08091BD048111B4C01896ED917C
:103FD000FC911997EA5AFD4F60E080810E946515B7
:103FE0000E94EB15F4012081318142815381DC0173
:103FF000CB01821B930BA40BB50B893E9340A1050B
:10400000B10508F497C0F50182819381A481B5813F
:104010000196A11DB11D82839383A483B5838091F2
:104020003C048130A9F5D70118964D905C90199702
:10403000F201EA5AFD4F20818CEB93E060962FAF9E
:1040400060970E94C8192C968FAD2C970E94E91991
:1040500081EB93E00E94C819C2010E94F0198FEA17
:1040600093E00E94C81960962FAD6097822F0E943E
:10407000E9198DEA93E00E94C819F5016281738104
:10408000848195810E94250B86E893E00E94C819DF
:104090000E94EB15D4016D937D938D939C931397A0
:1040A000F5014281538164817581F7018281938199
:1040B000A481B581481759076A077B07D8F1408466
:1040C000518486E793E00E94C8192C968FAD2C97F7
:1040D0000E94E9198EE593E00E94C819C2010E946E
:1040E000F0198CE593E00E94C819D50112966D91E4
:1040F0007D918D919C9115970E94250B86E593E00B
:104100000E94C819F70111821082E1E0F0E0D301AA
:10411000ED93FC93D7011896ED91FC911997EA5A0B
:10412000FD4F61E080810E946515F10112821382CA
:10413000148215822C962FAD2C972F5F2C962FAFC3
:104140002C973AE0E30EF11C46E0A40EB11C5AE0B5
:10415000650E711C86E0280E311C94E0890E911CBE
:10416000283009F028CF6EEBA62E64E0B62E79E455
:10417000672E76E0772EE4E08E2EE4E09E2EF4EDBE
:10418000EF2EF3E0FF2E312CD8018D919C911197E9
:10419000019709F0EFC08091BD048111EBC0189622
:1041A000ED91FC911997EA5AFD4F61E080810E94E0
:1041B00065150E94EB15F301208131814281538105
:1041C000DC01CB01821B930BA40BB50B893E934002
:1041D000A105B10508F4CEC0F70182819381A481C5
:1041E000B5810196A11DB11D82839383A483B583FC
:1041F00080913C04813069F5D80118964D905C900F
:104200001997F201EA5AFD4F20808BE493E00E9457
:10421000C819832D0E94E91980E493E00E94C8190F
:10422000C2010E94F0198EE393E00E94C819822D0A
:104230000E94E9198CE393E00E94C819F70162819A
:104240007381848195810E94250B85E193E00E9412
:10425000C8190E94EB15D3016D937D938D939C93A8
:104260001397F7014281538164817581F80182813E
:104270009381A481B581481759076A077B0708F421
:1042800079C04084518485E093E00E94C819832D51
:104290000E94E9198CEE92E00E94C819C2010E94A6
:1042A000F0198AEE92E00E94C819D70112966D911A
:1042B0007D918D919C9115970E94250B84EE92E043
:1042C0000E94C819F80111821082D60116968D91AC
:1042D0009C9117978130910541F48D939C93F40143
:1042E000128213821482158245C002970CF442C0D8
:1042F000D5018D919C91119782309105DCF1019748
:104300008D939C93F8014084518484ED92E00E9447
:10431000C819832D0E94E9198BEB92E00E94C819FD
:10432000C2010E94F01989EB92E00E94C819D701DE
:1043300012966D917D918D919C9115970E94250B00
:10434000F5014080518081EB92E00E94C819C201C2
:104350000E94F0198EE992E00E94C819E1E0F0E0B5
:10436000D601ED93FC93D40112961D921D921D92DD
:104370001C9215973394065F1F4FB2E0AB0EB11C31
:10438000E6E0EE0EF11CFAE0CF0ED11C26E0820E24
:10439000911C34E0630E711C48E03412F5CE0E948B
:1043A000EB1500918D0610918E0620918F063091AD
:1043B0009006DC01CB01801B910BA20BB30B893E55
:1043C0009340A105B105B0F06091CE0481E068276B
:1043D0006093CE048DE00E9465150E94EB156093FA
:1043E0008D0670938E0680938F069093900602C080
:1043F0000E94210FCE0101967C0100E010E00E9496
:10440000EB156093A0057093A1058093A20590938E
:10441000A305E0919805F09199050284F385E02DBC
:1044200088E995E0099597FD09C0D7018D937D0135
:104430000F5F1F4F0E31110511F71DC00E94EB15C4
:104440008090A0059090A105A090A205B090A30532
:10445000DC01CB0188199909AA09BB0980909C0548
:1044600090909D05A0909E05B0909F058815990598
:10447000AA05BB0570F2E1E0F0E0EC0FFD1FE00FD4
:10448000F11F108261E972E0CE018B5B9F4F0E94A9
:10449000DA1465E972E0CE01CF960E94DA146EE973
:1044A00072E0CE0101960E94E62D7C01BC01CE0196
:1044B0008B5B9F4F0E94B4142796CEACDFAC27973E
:1044C000C114D10409F444C02B960EAD1FAD2B9737
:1044D00001151105E9F146015401BFEF8B1A9B0A42
:1044E000F5018081082E000C990B0E941A2E892B51
:1044F00099F7015011090C0D1D1DD8018C91082E42
:10450000000C990B0E941A2E892B89F40F5F1F4F04
:10451000A8014A195B092B965FAF4EAF2B97CA14BF
:10452000DB0458F4B501C6010E94F83006C00A1534
:104530001B0560F301501109E0CF2796EEADFFADEA
:1045400027972B968EAD9FAD2B97E80FF91F108202
:1045500062EA72E0CE0181960E94DA14BE016F5DBC
:104560007F4FCE018B5B9F4F0E9464148C01CE0164
:1045700081960E94D51417FD0EC089E39EE00E942B
:10458000C8190E9496170E94B80B87E39EE00E940C
:10459000C81901E001C000E06AEA72E0CE0181962C
:1045A0000E94DA14BE016F5D7F4FCE018B5B9F4F7F
:1045B0000E9464146C01CE0181960E94D51410E013
:1045C000D7FCFCC0E114F10401F16EE972E080E077
:1045D00090E00E94E62D7C010E94C82DFE013196DC
:1045E000E10FF11DE10FF11D91A380A30E94F019CD
:1045F00083E39EE00E94C819812F0E94E91981E39C
:104600009EE00E94C8191F5FDDCF8DA18CAF8BA1EA
:104610008DAF89A1825B8EAF8FA18AAF89A589AF4B
:104620008BA588AFCE01C8960E9420184B015C0173
:10463000AE014F5C5F4F0E946609CC24C394C092C8
:10464000760558E6D52ED09297051092390610922D
:10465000380660E08CE396E00E94E71329A90AE09F
:10466000822F602F0E948D2E682F660F860F682F75
:10467000660F620F8CE396E00E94E7132AA9822F4F
:10468000602F0E948D2E682F660F860F682F660F91
:10469000620F8CE396E00E94E7132BA9822F602F14
:1046A0000E948D2E682F660F860F682F660F620F8F
:1046B0008CE396E00E94E7136CA98CE396E00E94DD
:1046C000E7132DA9822F602F0E948D2E682F660F71
:1046D000860F682F660F620F8CE396E00E94E71347
:1046E0002EA9822F602F0E948D2E682F660F860FB5
:1046F000682F660F620F8CE396E00E94E7132FA9E4
:104700002E51822F602F0E948D2E682F660F860FEC
:10471000880F682F620F8CE396E00E94E71381E018
:104720000E94201AC0927605D09297051092390601
:10473000109238066FE08CE396E00E94E71381E068
:104740000E94201A81110FC061E088E60E947D1A44
:1047500010923B0680933A068CE396E00E949B13EE
:104760002F968FAF2F9781E08093760588E6809310
:10477000970510923906109238066FE08CE396E0A8
:104780000E94E7132F966FAD2F976F778CE396E01B
:104790000E94E71381E00E94201AC501B4010E9423
:1047A0006F1780E29EE00E94C819C501B4010E9403
:1047B000B80B8EE19EE00E94C81901E062EB72E046
:1047C000CE01C1960E94DA14BE016F5C7F4FCE010C
:1047D0008B5B9F4F0E9464146C01CE01C1960E94B6
:1047E000D514D7FC91C0E114F10499F06EE972E0A0
:1047F00080E090E00E94E62D7C010E94C82DFE0121
:104800003196E10FF11DE10FF11D91A380A31F5F10
:10481000EACF89A09AA08AE0889D5001899DB00CBA
:104820001124F501E051FE4F6F0189A59AA59783E8
:1048300086838BA59CA5918780871182108281E059
:104840008CAF8DAF1EAE8BA18AAF8DA189AF8FA12A
:1048500088AFCE01C8960E942018D60112966D939B
:104860007D938D939C931597B0E5AB0EB11CB6016B
:10487000C5010E94EE0E80EF9DE00E94C81985EEF2
:104880009DE00E94C819C4010E94F0198CED9DE0C2
:104890000E94C819F60162817381848195810E940A
:1048A000250BD60116968D909C90179718966D90B3
:1048B0007C901997CD90DC9083ED9DE00E94C81903
:1048C000C6010E94F0198BEC9DE00E94C819C3013B
:1048D0000E94F0198EEB9DE00E94C819C4010E944D
:1048E000F01984EA9DE00E94C819C5010E94F019E0
:1048F00082EA9DE00E94C81980E00E940E0D84E7C4
:104900009DE00E94C81901E06DEB72E0CE01C196F6
:104910000E94DA14BE016F5C7F4FCE018B5B9F4F0C
:104920000E9464146C01CE01C1960E94D514D7FC7C
:1049300096C0E114F10499F06EE972E080E090E035
:104940000E94E62D7C010E94C82DFE013196E10FE8
:10495000F11DE10FF11D91A380A31F5FEACF89A094
:104960009AA08AE0889D5001899DB00C1124F50120
:10497000E056FE4F6F0189A59AA5978386838BA584
:104980009CA5918780871182108281E08CAF8DAFCA
:104990001EAE8BA18AAF8DA189AF8FA188AFCE014A
:1049A000C8960E942018D60112966D937D938D9320
:1049B0009C931597B0EAAB0EB11CB601C5010E94DD
:1049C000EE0E6AE070E080E090E00E94B11586E4AF
:1049D0009DE00E94C8198AE39DE00E94C819C401A5
:1049E0000E94F01981E39DE00E94C819F6016281DE
:1049F0007381848195810E94250BD60116968D9036
:104A00009C90179718966D907C901997CD90DC909C
:104A100088E29DE00E94C819C6010E94F01980E258
:104A20009DE00E94C819C3010E94F01983E19DE036
:104A30000E94C819C4010E94F01989EF9CE00E94ED
:104A4000C819C5010E94F01987EF9CE00E94C8199F
:104A50000E94B40C89EC9CE00E94C81901E069EC4A
:104A600072E0CE01C1960E94DA14BE016F5C7F4FE6
:104A7000CE018B5B9F4F0E9464146C01CE01C196E6
:104A80000E94D514D7FCA6C0E114F10499F06EE998
:104A900072E080E090E00E94E62D7C010E94C82D2B
:104AA000FE013196E10FF11DE10FF11D91A380A3ED
:104AB0001F5FEACF89A09AA08AE0889D5001899D56
:104AC000B00C1124F501E05BFE4F6F0189A59AA59A
:104AD000978386838BA59CA59187808711821082FE
:104AE0000E9496172B013C010E94370A80913904DD
:104AF0008DAFC301B2010E94370A809138048CAF98
:104B0000C301B2010E945B0A825B8EAF8BA18AAFA8
:104B10008DA189AF8FA188AFCE01C8960E942018C1
:104B2000D60112966D937D938D939C931597B60144
:104B3000C5010E94EE0E6AE070E080E090E00E9405
:104B4000B1158BE99CE00E94C81983E99CE00E94A2
:104B5000C819C4010E94F0198AE89CE00E94C81993
:104B6000F60162817381848195810E94250BD601B3
:104B700016968D909C90179718966D907C9019972B
:104B8000CD90DC9081E89CE00E94C819C6010E948B
:104B9000F01986E79CE00E94C819C3010E94F01931
:104BA0008DE69CE00E94C819C4010E94F01983E5BB
:104BB0009CE00E94C819C5010E94F01981E59CE0A3
:104BC0000E94C81981E00E94740D83E29CE00E945B
:104BD000C81901E062ED72E0CE01C1960E94DA14BC
:104BE000BE016F5C7F4FCE018B5B9F4F0E946414B0
:104BF0006C01CE01C1960E94D514D7FCA8C0E11467
:104C0000F10499F06EE972E080E090E00E94E62DF8
:104C10007C010E94C82DFE013196E10FF11DE10FCC
:104C2000F11D91A380A31F5FEACF0E9496178BA16D
:104C3000825B8EAF8DA18DAF8FA18CAF89A09AA022
:104C40008AE0889D5001899DB00C1124F501E05B3C
:104C5000FE4F6F0162817381848195810E94370AC2
:104C6000809136048AAFD60112966D917D918D9117
:104C70009C9115970E94370A8091350489AFF601FF
:104C800062817381848195810E94370A8091340406
:104C900088AFCE01C8960E942018D60112966D9357
:104CA0007D938D939C931597B601C5010E94EE0EDE
:104CB0006AE070E080E090E00E94B11585EF9BE033
:104CC0000E94C81988EE9BE00E94C819C4010E9486
:104CD000F0198FED9BE00E94C819F6016281738183
:104CE000848195810E94B80BD60116968D909C9078
:104CF000179718966D907C901997CD90DC9086ED63
:104D00009BE00E94C819C6010E94F0198BEC9BE041
:104D10000E94C819C3010E94F01982EC9BE00E9416
:104D2000C819C4010E94F01988EA9BE00E94C819C2
:104D3000C5010E94F01986EA9BE00E94C81981E033
:104D40000E94740D88E79BE00E94C81901E06CED99
:104D500072E0CE01C1960E94DA14BE016F5C7F4FF3
:104D6000CE018B5B9F4F0E9464146C01CE01C196F3
:104D70000E94D514D7FC86C0E114F10499F06EE9C5
:104D800072E080E090E00E94E62D7C010E94C82D38
:104D9000FE013196E10FF11DE10FF11D91A380A3FA
:104DA0001F5FEACF89A09AA02AE0289DC001299D13
:104DB000900D1124FC01E051FE4F6F012BA13CA18D
:104DC000318320835C01F0E5AF0EB11CB601C50153
:104DD0000E94EE0E6AE070E080E090E00E94B11563
:104DE0008AE49BE00E94C81965EE72E088E995E0CC
:104DF0000E940B15C4010E94F0196DEE72E088E963
:104E000095E00E940B15D60112966D917D918D91C2
:104E10009C9115970E94250BF601868097806084EF
:104E20007184C080D18066EF72E088E995E00E94CD
:104E30000B15C6010E94F0196FEF72E088E995E04A
:104E40000E940B15C3010E94F0196AE073E088E923
:104E500095E00E940B15C4010E94F01963E173E014
:104E600088E995E00E940B15C5010E94F01960E9E0
:104E700072E088E995E00E940B158CE19BE00E94AE
:104E8000C81901E06DE273E0CE01C1960E94DA1408
:104E9000BE016F5C7F4FCE018B5B9F4F0E946414FD
:104EA0006C01CE01C1960E94D514D7FC7DC0E114DF
:104EB000F10499F06EE972E080E090E00E94E62D46
:104EC0007C010E94C82DFE013196E10FF11DE10F1A
:104ED000F11D91A380A31F5FEACF89A09AA02AE0C9
:104EE000289DC001299D900D11249C0120563E4F04
:104EF00069012BA13CA1D6012D933C935C01B0E547
:104F0000AB0EB11CB601C5010E94EE0E6AE070E066
:104F100080E090E00E94B1158EEE9AE00E94C819E0
:104F200082EE9AE00E94C819C4010E94F01989ED2E
:104F30009AE00E94C819F60162817381848195818B
:104F40000E94250BD60116968D909C901797189667
:104F50006D907C901997CD90DC9080ED9AE00E9446
:104F6000C819C6010E94F01985EC9AE00E94C81980
:104F7000C3010E94F0198CEB9AE00E94C819C40189
:104F80000E94F01982EA9AE00E94C819C5010E94A5
:104F9000F01980EA9AE00E94C8190E94B40C82E7D6
:104FA0009AE00E94C81901E069E373E0CE01C1965E
:104FB0000E94DA14BE016F5C7F4FCE018B5B9F4F66
:104FC0000E9464146C01CE01C1960E94D514D7FCD6
:104FD00077C0E114F10499F06EE972E080E090E0AE
:104FE0000E94E62D7C010E94C82DFE013196E10F42
:104FF000F11DE10FF11D91A380A31F5FEACF89A0EE
:105000009AA08AE0889D5001899DB00C1124F50179
:10501000E05BFE4F6F018BA19CA191838083BF0158
:10502000C5010E94EE0E6AE070E080E090E00E9410
:10503000B11584E49AE00E94C8198CE39AE00E94BA
:10504000C819C4010E94F01983E39AE00E94C819AC
:10505000D60112966D917D918D919C9115970E942C
:10506000250BF6018680978060847184C080D18092
:105070008AE29AE00E94C819C6010E94F0198FE1E5
:105080009AE00E94C819C3010E94F01986E19AE0D3
:105090000E94C819C4010E94F0198CEF99E00E9487
:1050A000C819C5010E94F0198AEF99E00E94C81939
:1050B00081E00E94740D8CEC99E00E94C81901E017
:1050C00062E473E0CE01C1960E94DA14BE016F5C07
:1050D0007F4FCE018B5B9F4F0E9464146C01CE0109
:1050E000C1960E94D514D7FC44C0E114F10499F094
:1050F0006EE972E080E090E00E94E62D7C010E9463
:10510000C82DFE013196E10FF11DE10FF11D91A3B4
:1051100080A31F5FEACF0BA1CCA0E9A1FAA1EA5AB4
:10512000FD4FD080602F8D2D0E9465158EE999E08E
:105130000E94C8198FE899E00E94C819812F0E9427
:10514000E91988E899E00E94C8198D2D0E94E91993
:105150008AE799E00E94C819802F9C2D0E94F019BF
:1051600088E799E00E94C8198AE499E00E94C8196A
:1051700001E06BE473E0CE01C1960E94DA14BE0137
:105180006F5C7F4FCE018B5B9F4F0E9464146C015C
:10519000CE01C1960E94D514D7FCF8C08CE199E0ED
:1051A0000E94C8196EE972E080E090E00E94E62D4E
:1051B0007C01DC018C91082E000C990BC0970A979A
:1051C00008F0C9C0C7010E94C82D5C019AA389A339
:1051D0000AE00A9DC0010B9D900D1124FC01E05BCB
:1051E000FE4F6F0162817381848195810E94B80BAB
:1051F000D60116968D909C90179718966D907C907E
:1052000019974D905C9081E199E00E94C819C50101
:105210000E94F01982E099E00E94C819C2010E9420
:10522000F0198AEF98E00E94C819C3010E94F01992
:1052300081EF98E00E94C819C4010E94F0198FEE16
:1052400098E00E94C819F60180859185089FF001B9
:10525000099FF00D1124E051FE4F6281738184811A
:1052600095810E94250BD60118962D903C90199798
:10527000029DF001039DF00D1124E051FE4F868048
:105280009780608471844080518081EE98E00E9414
:10529000C819C1010E94F01982ED98E00E94C81956
:1052A000C2010E94F0198AEC98E00E94C819C3015B
:1052B0000E94F0198DEB98E00E94C819C4010E9469
:1052C000F0198BEB98E00E94C819F6018085918552
:1052D000089FF001099FF00D1124E056FE4F6281F6
:1052E0007381848195810E94250BD6011896CD90FB
:1052F000DC9019970C9DF0010D9DF00D1124E056E6
:10530000FE4F8680978060847184408051808CEA53
:1053100098E00E94C819C6010E94F0198DE998E032
:105320000E94C819C2010E94F01985E998E00E9404
:10533000C819C3010E94F01988E898E00E94C819B2
:10534000C4010E94F01986E898E00E94C8198A2DCD
:105350000E94D50A16C080E00E94740D89E598E08D
:105360000E94C81980E00E940E0D8CE298E00E9415
:10537000C8190E94B40C8FEF97E00E94C8190E94D0
:105380000C0B81ED97E00E94C81901E069E573E01C
:10539000CE01C1960E94DA14BE016F5C7F4FCE0130
:1053A0008B5B9F4F0E9464146C01CE01C1960E94DA
:1053B000D514D7FC29C0E114F10499F06EE972E02C
:1053C00080E090E00E94E62D7C010E94C82DFE0145
:1053D0003196E10FF11DE10FF11D91A380A31F5F35
:1053E000EACF83EA97E00E94C8198AE897E00E9412
:1053F000C8190E94E61087E797E00E94C81989E45F
:1054000097E00E94C81901E06EE673E0CE01C196F4
:105410000E94DA14BE016F5C7F4FCE018B5B9F4F01
:105420000E9464146C01CE01C1960E94D514D7FC71
:1054300017C06BE188E995E00E94C11264E773E050
:1054400088E995E00E940B156BE188E995E00E94E0
:10545000C11268E773E088E995E00E940B1501E04E
:105460006BE773E0CE01C1960E94DA14BE016F5C57
:105470007F4FCE018B5B9F4F0E9464146C01CE0165
:10548000C1960E94D514D7FC9BC0E114F10421F110
:105490006EE972E080E090E00E94E62D7C01FC0164
:1054A0008081082E000C990B0E94F030892B39F076
:1054B000B701CE018B5B9F4F0E94B4140BC0C70194
:1054C0000E94C82DFE013196E10FF11DE10FF11D83
:1054D00091A380A31F5FD9CF8DA19EA1A9A0BAA03F
:1054E000BE016B5B7F4F019799F4CE01CF960E946E
:1054F0006414F501EB54FB4F20E830E002C0359511
:1055000027958A95E2F7C9019081892B808320C075
:10551000CE01CF960E946414F501EB54FB4FAC0111
:1055200047505109477055272EEF30E0B90102C0AE
:10553000759567954A95E2F747E050E0481B590B8F
:1055400001C0220F4A95EAF7262B6081262320838B
:10555000A5014B545B4F6A01BA01C5018E5A9E4F9B
:105560000E94530E8BE197E00E94C81982E097E0F9
:105570000E94C819C5010E94F01985EF96E00E94AB
:10558000C81935E9A32E32E0B32E00E040E8942E8E
:10559000D6018C91892119F0F501608101C06FE578
:1055A00088E995E00E94EF140F5F9694FFEFAF1A21
:1055B000BF0A083069F787EC96E00E94C81901E03D
:1055C00069E873E0CE01C1960E94DA14BE016F5CF7
:1055D0007F4FCE018B5B9F4F0E9464146C01CE0104
:1055E000C1960E94D514D7FC22C089E996E00E949A
:1055F000C8196EE972E080E090E00E94E62D7C011F
:10560000DC018C91082E000C990BC0970A9740F48E
:10561000C7010E94C82D89A39AA30E94D50A02C07F
:105620000E940C0B8BE696E00E94C81901E06BE922
:1056300073E0CE01C1960E94DA14BE016F5C7F4F09
:10564000CE018B5B9F4F0E9464146C01CE01C1960A
:105650000E94D514D7FC69C0E114F10499F06EE9F9
:1056600072E080E090E00E94E62D7C010E94C82D4F
:10567000FE013196E10FF11DE10FF11D91A380A311
:105680001F5FEACFA9A0BAA0C501880F991F880F94
:10569000991FFC01E35CFB4F2BA120832DA12183EB
:1056A0002FA1228321E039A5311101C020E02383FD
:1056B000FC01E35CFB4F6F01BF018AE591E00E94B2
:1056C000BB0ED60113960C91139712969C901297CD
:1056D00011968C901197DC9081E696E00E94C81993
:1056E000C5010E94F01988E596E00E94C8198D2D29
:1056F0000E94E91986E596E00E94C819882D0E944B
:10570000E91984E596E00E94C819892D0E94E919DB
:1057100080E496E00E94C819802F90E00E94F01962
:105720008EE396E00E94C81901E066EA73E0CE01BC
:10573000C1960E94DA14BE016F5C7F4FCE018B5B75
:105740009F4F0E9464146C01CE01C1960E94D51433
:10575000D7FC0BC080E196E00E94C8190E94770A2E
:1057600082EE95E00E94C81901E066EB73E0CE017D
:10577000C1960E94DA14BE016F5C7F4FCE018B5B35
:105780009F4F0E9464146C01CE01C1960E94D514F3
:10579000D7FC3BC0E114F10499F06EE972E080E0BF
:1057A00090E00E94E62D7C010E94C82DFE013196FA
:1057B000E10FF11DE10FF11D91A380A31F5FEACF5F
:1057C00009A1DAA000933C046CE374E087ED91E05A
:1057D0000E94530E6AE070E080E090E00E94B115F4
:1057E00084EB95E00E94C8198EE995E00E94C819E3
:1057F000802F9D2D0E94F0198CE995E00E94C81918
:105800008EE695E00E94C81901E060EC73E0CE01DD
:10581000C1960E94DA14BE016F5C7F4FCE018B5B94
:105820009F4F0E9464146C01CE01C1960E94D51452
:10583000D7FC4BC0EF2899F06EE972E080E090E071
:105840000E94E62D7C010E94C82DFE013196E10FD9
:10585000F11DE10FF11D91A380A31F5FEBCF19A1F3
:105860000AA110933B046BE374E088ED91E00E9481
:10587000530E6AE070E080E090E00E94B11580E491
:1058800095E00E94C8198EE295E00E94C819812F08
:10589000902F0E94F0198CE295E00E94C819809127
:1058A0003B04813039F482E195E00E94C8190E94DE
:1058B0006B0E08C083E095E00E94C8191092BD04E9
:1058C0000E94210F85ED94E018C0011118C0E11469
:1058D000F104A9F087EA94E00E94C8198EE994E0E7
:1058E0000E94C819B70188E995E00E940B1585E868
:1058F00094E00E94C81987E594E00E94C819CE017F
:10590000CF960E94D514CE018B5B9F4F0E94D51479
:105910000E94EB150091890610918A0620918B0652
:1059200030918C06DC01CB01801B910BA20BB30BD9
:1059300081369A4EA105B10578F10E9496174B0168
:105940005C0169837A838B839C839E012F5F3F4F29
:10595000790103ED11E0D7016D917D011AA309A32F
:10596000CE0181960E94D90D0F5F1F4F073DB1E018
:105970001B0789F7C501B4010E94B80B0E94EB1503
:105980006093890670938A0680938B0690938C06A9
:1059900082E49EE00E94C8190E942A130C94551EAE
:1059A000F70162817381848195810E94370A809119
:1059B00036048B83D70112966D917D918D919C91C8
:1059C00015970E94370A809135048A83F701628116
:1059D0007381848195810E94370A80913404898380
:1059E000CE0101960E942018DC01CB0180589E4A0E
:1059F000AE4FBF4FF70182839383A483B58387E9BA
:105A000092E00E94C8192E968FAD2E970E94E91938
:105A100088E692E00E94C819B701C5010E94EE0E07
:105A20000C94101FCF93DF9310929B0510929A0550
:105A300088EE93E0A0E0B0E080939C0590939D05F4
:105A4000A0939E05B0939F052FE632E03093990511
:105A50002093980525EC30E03093A5052093A4050C
:105A600024EC30E03093A7052093A60520EC30E02D
:105A70003093A9052093A80521EC30E03093AB05C5
:105A80002093AA0522EC30E03093AD052093AC05BD
:105A900026EC30E03093AF052093AE051092B105AF
:105AA0001092B2051092B3051092B40510923F0601
:105AB00010923E068093400690934106A0934206C2
:105AC000B093430681E892E090933D0680933C06B4
:105AD00010923B0610923A06109239061092380640
