:100000000C9475080C949D080C949D080C949D0804
:100010000C949D080C949D080C949D080C949D08CC
:100020000C949D080C949D080C949D080C949D08BC
:100030000C949D080C949D080C949D080C949D08AC
:100040000C947C150C949D080C94B8140C94921488
:100050000C949D080C949D080C949D080C949D088C
:100060000C94C6150C949D08206E6F7468696E67B9
:1000700020746F20646F2C20736C656570696E67E7
:100080002E2E2E0A00536C65657074696D652069AB
:10009000732020002062757420697320696E61638B
:1000A00074697665206F72206974732074696D6558
:1000B00072206973206E6F7420726570656174615F
:1000C000626C650A00204C61756E6368696E67201A
:1000D0006974732074696D65720A0020427574201A
:1000E0006861732061207765656B6C792044617964
:1000F0004F666620746F6461790A002000204163B6
:10010000746976653A2000466F756E6420416C61B3
:10011000726D3A20002046696E69736865642072CA
:100120006573746F72696E670A000A004C617374BC
:100130002074696D65207265636F72646564200068
:1001400043697263756974206861732072657373A3
:10015000657465642C20747279696E6720746F20F1
:10016000726573756D6520696E74657272757074F1
:100170006564206F7065726174696F6E732E2E2EC8
:100180000A000A002054696D652E20416374697667
:10019000653D002054696D6572204F666620636F6F
:1001A000756E74646F776E20000A002054696D6567
:1001B0002E204163746976653D002054696D657237
:1001C000204F6E20636F756E74646F776E20000A27
:1001D00000536C65657074696D652069732020003B
:1001E0000A00566572626F73697479206973202002
:1001F00000416C61726D7320696E666F20697320B7
:100200006C6F616465640A0020455050524F4D2068
:10021000616C726561647920696E697469616C6989
:100220007A65640A00200054696D652069732000B6
:10023000525443206861732073657420746865208C
:1002400073797374656D2074696D6500556E6162B4
:100250006C6520746F2073796E63207769746820F1
:1002600074686520525443002068617320446179AA
:10027000206F666620746F6461792C2073636865F3
:1002800064756C696E6720697420746F20746F6D7B
:100290006F72726F770A00416C61726D2000202EC0
:1002A0002E2E0A00204F464620636F756E74646FD1
:1002B000776E206F6E2052656C6179200020526548
:1002C00061636865642074696D65722000206973DC
:1002D000206163746976652C20636865636B696E61
:1002E000672069747320636F756E74646F776E2E08
:1002F0002E2E0A0020003A00206F6E2052656C619D
:1003000079200054696D6572204F66662000202EAA
:100310002E2E0A00204F4E20636F756E74646F7727
:100320006E206F6E2052656C6179200020526561ED
:10033000636865642074696D6572200020697320AC
:100340006163746976652C20636865636B696E67A9
:100350002069747320636F756E74646F776E2E2ED0
:100360002E0A0020003A00206F6E2052656C6179E1
:10037000200054696D6572204F6E20000A2A2A2AD7
:100380002A2A2A2A2A2A2A2A2A2A2A2A2A2A2A2ACD
:100390002A2A2A2A2A2A2A2A2A2A2A2A2A2A2A2ABD
:1003A0002A2A2A2A2A2A2A2A0A002E2E2E0A0074EB
:1003B0003D00207261697365642E2E2E0A00416C27
:1003C00061726D20002A2A2A2A2A2A2A2A2A2A2AFF
:1003D0002A2A2A2A2A2A2A2A2A2A2A2A2A2A2A2A7D
:1003E0002A2A2A2A2A2A2A2A2A2A2A2A2A2A2A2A6D
:1003F0000A00207261697365642E2E2E0A00416C1A
:1004000061726D20002E2E2E0A00743D000A2A2AE9
:100410002A2A2A2A2A2A2A2A2A2A2A2A2A2A2A2A3C
:100420002A2A2A2A2A2A2A2A2A2A2A2A2A2A2A2A2C
:100430002A2A2A2A2A2A2A2A2A0A00206973206EAE
:100440006F7420612076616C696420636F6D6D61EB
:100450006E640A005761726E696E6720000A2A2A6C
:100460002A2A2A2A2A2A2A2A2A2A2A2A2A2A2A2AEC
:100470002A2A2A2A2A2A2A2A2A2A2A2A2A2A2A2ADC
:100480002A2A2A2A2A2A2A2A2A0A000A2A2A2A2A36
:100490002A2A2A2A2A2A2A2A2A2A2A2A2A2A2A2ABC
:1004A0002A2A2A2A2A2A2A2A2A2A2A2A2A2A2A2AAC
:1004B0002A2A2A2A2A2A2A0A0057616B696E67208B
:1004C00075702E2E2E200A004665656C696E6720B9
:1004D000536C656570792C207A7A7A2E2E2E2E2018
:1004E0000A000A0020536C656570206973207365EB
:1004F0007420746F20000A2A2A2A2A2A2A2A2A2AE1
:100500002A2A2A2A2A2A2A2A2A2A2A2A2A2A2A2A4B
:100510002A2A2A2A2A2A2A2A2A2A2A2A2A2A2A2A3B
:100520002A2A0A000A2A2A2A2A2A2A2A2A2A2A2A95
:100530002A2A2A2A2A2A2A2A2A2A2A2A2A2A2A2A1B
:100540002A2A2A2A2A2A2A2A2A2A2A2A2A2A2A2A0B
:100550000A000A0020566572626F73697479206917
:10056000732073657420746F20000A2A2A2A2A2AAD
:100570002A2A2A2A2A2A2A2A2A2A2A2A2A2A2A2ADB
:100580002A2A2A2A2A2A2A2A2A2A2A2A2A2A2A2ACB
:100590002A2A2A2A2A2A0A000A2A2A2A2A2A2A2A25
:1005A0002A2A2A2A2A2A2A2A2A2A2A2A2A2A2A2AAB
:1005B0002A2A2A2A2A2A2A2A2A2A2A2A2A2A2A2A9B
:1005C0002A2A2A2A0A000A2A2A2A2A2A2A2A2A2AF5
:1005D0002A2A2A2A2A2A2A2A2A2A2A2A2A2A2A2A7B
:1005E0002A2A2A2A2A2A2A2A2A2A2A2A2A2A2A2A6B
:1005F0002A2A0A000A0020796561726C79207265E6
:100600007065617461626C6520002F002F002069A5
:1006100073206E6F77200020486F6C7964617920B9
:10062000000A2A2A2A2A2A2A2A2A2A2A2A2A2A2A74
:100630002A2A2A2A2A2A2A2A2A2A2A2A2A2A2A2A1A
:100640002A2A2A2A2A2A2A2A2A2A2A2A2A0A000A74
:100650002A2A2A2A2A2A2A2A2A2A2A2A2A2A2A2AFA
:100660002A2A2A2A2A2A2A2A2A2A2A2A2A2A2A2AEA
:100670002A2A2A2A2A2A2A2A2A2A2A0A000A2A2A44
:100680002A2A2A2A2A2A2A2A2A2A2A2A2A2A2A2ACA
:100690002A2A2A2A2A2A2A2A2A2A2A2A2A2A2A2ABA
:1006A0002A2A2A2A2A2A2A2A2A0A0020617265204E
:1006B00073657420746F20005765656B6C792044F6
:1006C00061796F66667320666F7220616C61726D0E
:1006D000000A2A2A2A2A2A2A2A2A2A2A2A2A2A2AC4
:1006E0002A2A2A2A2A2A2A2A2A2A2A2A2A2A2A2A6A
:1006F0002A2A2A2A2A2A2A2A2A2A2A2A2A0A000AC4
:100700002A2A2A2A2A2A2A2A2A2A2A2A2A2A2A2A49
:100710002A2A2A2A2A2A2A2A2A2A2A2A2A2A2A2A39
:100720002A2A2A2A2A2A2A2A2A2A2A0A00446F6ED0
:100730006520696E697469616C697A696E670A001F
:10074000496E697469616C697A696E6720416C6C85
:1007500020616C61726D730A000A2A2A2A2A2A2AE9
:100760002A2A2A2A2A2A2A2A2A2A2A2A2A2A2A2AE9
:100770002A2A2A2A2A2A2A2A2A2A2A2A2A2A2A2AD9
:100780002A2A2A2A2A0A000A2A2A2A2A2A2A2A2A33
:100790002A2A2A2A2A2A2A2A2A2A2A2A2A2A2A2AB9
:1007A0002A2A2A2A2A2A2A2A2A2A2A2A2A2A2A2AA9
:1007B0002A2A2A0A00202020202020202020202051
:1007C0003D2D3D2D3D2D3D2D3D2D3D2D3D2D3D2DD9
:1007D0003D202020202020202020202020202020FC
:1007E0000A0020202020202020202020203D2D3DF8
:1007F0002D3D2D3D2D3D2D3D2D3D2D3D2D3D2020D3
:10080000202020202020202020202020200A00201E
:10081000202020202020202020203D2D3D2D3D2D5A
:100820003D2D3D2D3D2D3D2D3D2D3D2020202020D9
:10083000202020202020202020200A000A002052F2
:10084000657065617461626C653D002052656C6124
:10085000793D002054696D652E2041637469766589
:100860003D002069732054696D6572204F666620D3
:10087000000A002052657065617461626C653D001C
:100880002052656C61793D002054696D652E2041D0
:1008900063746976653D002069732054696D6572E3
:1008A000204F6E20000A002052616E646F6D3D0083
:1008B0002054696D65723D002054696D652E20419C
:1008C00063746976653D0020697320416C61726DC7
:1008D00020000A2A2A2A2A2A2A2A2A2A2A2A2A2ACC
:1008E0002A2A2A2A2A2A2A2A2A2A2A2A2A2A2A2A68
:1008F0002A2A2A2A2A2A2A2A2A2A2A2A2A2A0A00A2
:100900000A2A2A2A2A2A2A2A2A2A2A2A2A2A2A2A67
:100910002A2A2A2A2A2A2A2A2A2A2A2A2A2A2A2A37
:100920002A2A2A2A2A2A2A2A2A2A2A2A0A000A00BB
:1009300020204368616E67656420746F20005D202D
:1009400050696E20002052656C6179436F6E74723D
:100950006F6C5B000A2A2A2A2A2A2A2A2A2A2A2A89
:100960002A2A2A2A2A2A2A2A2A2A2A2A2A2A2A2AE7
:100970002A2A2A2A2A2A2A2A2A2A2A2A2A2A2A2AD7
:100980000A000A2A2A2A2A2A2A2A2A2A2A2A2A2A31
:100990002A2A2A2A2A2A2A2A2A2A2A2A2A2A2A2AB7
:1009A0002A2A2A2A2A2A2A2A2A2A2A2A2A2A0A00F1
:1009B0000A00205361766564206F6E2045455052D1
:1009C0004F4D206164647265737320002052616E24
:1009D000646F6D3D00204F6E2054696D65723D005F
:1009E000204163746976653D002053657420746FFF
:1009F000200020416C61726D20000A2A2A2A2A2ACE
:100A00002A2A2A2A2A2A2A2A2A2A2A2A2A2A2A2A46
:100A10002A2A2A2A2A2A2A2A2A2A2A2A2A2A2A2A36
:100A20002A2A2A2A2A2A0A000A2A2A2A2A2A2A2A90
:100A30002A2A2A2A2A2A2A2A2A2A2A2A2A2A2A2A16
:100A40002A2A2A2A2A2A2A2A2A2A2A2A2A2A2A2A06
:100A50002A2A2A2A0A000A00205361766564206F38
:100A60006E20454550524F4D20616464726573732A
:100A700020002052616E646F6D3D00204F6E205447
:100A8000696D65723D00204163746976653D0020A3
:100A900053657420746F20002054696D6572204F77
:100AA000666620000A2A2A2A2A2A2A2A2A2A2A2A82
:100AB0002A2A2A2A2A2A2A2A2A2A2A2A2A2A2A2A96
:100AC0002A2A2A2A2A2A2A2A2A2A2A2A2A2A2A2A86
:100AD0000A000A2A2A2A2A2A2A2A2A2A2A2A2A2AE0
:100AE0002A2A2A2A2A2A2A2A2A2A2A2A2A2A2A2A66
:100AF0002A2A2A2A2A2A2A2A2A2A2A2A2A2A0A00A0
:100B00000A2A2A2A2A2A2A2A2A2A2A2A2A2A2A2A65
:100B10002A2A2A2A2A2A2A2A2A2A2A2A2A2A2A2A35
:100B20002A2A2A2A2A2A2A2A2A2A2A2A0A000A2A8F
:100B30002A2A2A2A2A2A2A2A2A2A2A2A2A2A2A2A15
:100B40002A2A2A2A2A2A2A2A2A2A2A2A2A2A2A2A05
:100B50002A2A2A2A2A2A2A2A2A2A0A000A0020536A
:100B600061766564206F6E20454550524F4D20617F
:100B700064647265737320002052616E646F6D3D12
:100B800000204F6E2054696D65723D0020416374F2
:100B90006976653D002053657420746F2000204104
:100BA0006C61726D20000A2A2A2A2A2A2A2A2A2AF5
:100BB0002A2A2A2A2A2A2A2A2A2A2A2A2A2A2A2A95
:100BC0002A2A2A2A2A2A2A2A2A2A2A2A2A2A2A2A85
:100BD0002A2A0A000A2A2A2A2A2A2A2A2A2A2A2ADF
:100BE0002A2A2A2A2A2A2A2A2A2A2A2A2A2A2A2A65
:100BF0002A2A2A2A2A2A2A2A2A2A2A2A2A2A2A2A55
:100C00000A000A00205361766564206F6E20454516
:100C100050524F4D206164647265737320002052FE
:100C2000657065617461626C653D002052656C6140
:100C3000793D00204163746976653D0020536574F9
:100C400020746F20002054696D6572204F66662005
:100C5000000A2A2A2A2A2A2A2A2A2A2A2A2A2A2A3E
:100C60002A2A2A2A2A2A2A2A2A2A2A2A2A2A2A2AE4
:100C70002A2A2A2A2A2A2A2A2A2A2A2A2A0A000A3E
:100C80002A2A2A2A2A2A2A2A2A2A2A2A2A2A2A2AC4
:100C90002A2A2A2A2A2A2A2A2A2A2A2A2A2A2A2AB4
:100CA0002A2A2A2A2A2A2A2A2A2A2A0A000A002042
:100CB0005361766564206F6E20454550524F4D203C
:100CC000616464726573732000205265706561749D
:100CD00061626C653D002052656C61793D00204188
:100CE00063746976653D002053657420746F20003D
:100CF0002054696D6572204F6E20000A2A2A2A2A24
:100D00002A2A2A2A2A2A2A2A2A2A2A2A2A2A2A2A43
:100D10002A2A2A2A2A2A2A2A2A2A2A2A2A2A2A2A33
:100D20002A2A2A2A2A2A2A0A000A0052544320542C
:100D3000696D652053657420746F20000A00202DB2
:100D400020000A0054696D652069732000205469F1
:100D50006D652053617665640A004572724A616E62
:100D60004665624D61724170724D61794A756E4A95
:100D7000756C4175675365704F63744E6F7644654B
:100D800063002068617320446179206F6666207477
:100D90006F6461792C207363686564756C696E6734
:100DA00020697420746F20746F6D6F72726F770A90
:100DB00000416C61726D20000A2A2A2A2A2A2A2AF6
:100DC0002A2A2A2A2A2A2A2A2A2A2A2A2A2A2A2A83
:100DD0002A2A2A2A2A2A2A2A2A2A2A2A2A2A2A2A73
:100DE0002A2A2A2A0A00546F6461792069732061D3
:100DF0006E207363686564756C656420686F6C79D8
:100E00006461792C20676F696E6720746F20736C42
:100E10006565702E2E2E0A000A2A2A2A2A2A2A2AD4
:100E20002A2A2A2A2A2A2A2A2A2A2A2A2A2A2A2A22
:100E30002A2A2A2A2A2A2A2A2A2A2A2A2A2A2A2A12
:100E40002A2A2A2A0A000A2A2A2A2A2A2A2A2A2A6C
:100E50002A2A2A2A2A2A2A2A2A2A2A2A2A2A2A2AF2
:100E60002A2A2A2A2A2A2A2A2A2A2A2A2A2A2A2AE2
:100E70002A2A0A0054696D65206973200057616B46
:100E8000696E672075702E2E2E0A002072616973BC
:100E900065642E2E2E0A00416C61726D20002D2D8E
:100EA0002D2D2D2D2D2D2D2D2D3D3D3D3D3D3D3D02
:100EB0003D3D3D3D204177616B696E67203D3D3D85
:100EC0003D3D3D3D3D3D3D3D2D2D2D2D2D2D2D2DD2
:100ED0002D2D2D0A000A002052616E646F6D3D00B9
:100EE0002054696D65723D002054696D652E204166
:100EF00063746976653D0020416C61726D20000A63
:100F0000002052657065617461626C653D0020521D
:100F1000656C61793D002054696D652E20416374D4
:100F20006976653D002054696D6572204F6E200022
:100F30000A002052657065617461626C653D002035
:100F400052656C61793D002054696D652E204163C6
:100F5000746976653D002054696D6572204F666640
:100F600020000A002061726520005765656B6C796E
:100F7000204461794F666673206F6620416C617210
:100F80006D2000202879792F6D6D2F6464290A0067
:100F900020796561726C7920726570656174616237
:100FA0006C6520002F002F00206973200020486FFF
:100FB0006C7964617920000A00536C65657074690E
:100FC0006D652069732020000A00566572626F7398
:100FD00069747920697320200020454550524F4D97
:100FE00020686173206265656E20696E697469614D
:100FF0006C697A65640A0054696D65206973200024
:101000005265616C6C7920676F696E6720746F2020
:10101000736C6565702C206E6F77202E2E2E0A0063
:101020005475726E696E6720737461747573206C89
:101030006564206F66662E2E2E0A005377697463EE
:1010400068696E672072656C617973206F66662EC1
:101050002E2E0A0053657474696E672074696D657D
:101060007273206F66662E2E2E0A005365747469A3
:101070006E6720536C65657074696D652062697474
:101080002E2E2E0A00476F696E6720746F20736CD6
:101090006565702E2E2E0A00000000080002010077
:1010A0000003040700000000000000000000000032
:1010B000250028002B0000000000240027002A0043
:1010C00004040404040404040202020202020303EE
:1010D00003030303010204081020408001020408F6
:1010E00010200102040810204E2B11241FBECFEF48
:1010F000D8E0DEBFCDBF26E0AEEBB3E001C01D926D
:10110000A138B207E1F713E0A0E0B1E0E2EDFEE5BF
:1011100002C005900D92AE3BB107D9F718E0C5E7C4
:10112000D8E004C02197FE010E94272DC437D107C3
:10113000C9F70E94651A0C94672F0C940000CF9297
:10114000DF92EF92FF920F931F93CF93DF93EB0108
:101150007B012AE0E20EF11C8B016C01C61AD70A52
:10116000C601800F911F0E94622CF80181938F01AC
:10117000EE15FF05A9F7CE01DF91CF911F910F91D9
:10118000FF90EF90DF90CF900895CF92DF92EF9293
:10119000FF920F931F93CF93DF93EB017B0124E02A
:1011A000E20EF11C8B016C01C61AD70AC601800F32
:1011B000911F0E94622CF80181938F01EE15FF05AB
:1011C000A9F7CE01DF91CF911F910F91FF90EF9082
:1011D000DF90CF9008956F927F928F929F92AF92FF
:1011E000BF92CF92DF92EF92FF920F931F93CF9314
:1011F000DF93EA012CE3C22ED12CE12CF12CA701C4
:1012000096010E94E92C6883CA01B901A7019601E1
:101210000E94E92C6983CA01B90128E130E040E06D
:1012200050E00E94E92C69017A016A83CA01B90180
:101230006C5F7F4F8F4F9F4F27E030E040E050E0E2
:101240000E94E92C6F5F6B83812C912C540140E04C
:1012500034E6632E712C00E911E0242F30E02E5487
:10126000384FF901E370FF27309789F4C901B301C2
:101270000E94D52C892B31F4C901B8010E94D52CCC
:10128000892B29F48EE691E0A0E0B0E004C08DE661
:1012900091E0A0E0B0E0880E991EAA1EBB1ED50109
:1012A000C401AA27BB27C816D906EA06FB0610F018
:1012B0004F5FD3CF4E83309799F4C90164E670E055
:1012C0000E94D52C892B39F4C90160E971E00E9494
:1012D000D52C892B29F48EE691E0A0E0B0E004C083
:1012E0008DE691E0A0E0B0E0881A990AAA0ABB0A4C
:1012F000C818D908EA08FB08C90164E670E00E9432
:10130000D52C8C01C90160E971E00E94D52CAFE5B4
:10131000B2E020E0213041F4309751F4011511057D
:1013200029F4009729F402C04C9103C04DE101C09B
:101330004CE150E060E070E0C416D506E606F70622
:1013400040F0C41AD50AE60AF70A2F5F11962C302E
:1013500009F72F5F2D83C394CC82DF91CF911F912A
:101360000F91FF90EF90DF90CF90BF90AF909F9044
:101370008F907F906F900895CF92DF92EF92FF92BF
:10138000C090BF04D090C004E090C104F090C204AB
:101390006C157D058E059F0571F06B017C014AE29D
:1013A00054E00E94EB08C092BF04D092C004E092C7
:1013B000C104F092C204FF90EF90DF90CF900895A7
:1013C0000E94BC098091300490E08E54984F08959B
:1013D000CF93DF93EB010E94622C8883CE01DF91D3
:1013E000CF910895CF93DF93EB010E94622C888305
:1013F000CE01DF91CF910895BF92CF92DF92EF920D
:10140000FF920F931F93CF93DF9303E314E08AE5DA
:10141000E82EFF24F394C0E0B801C7010E94C5087C
:1014200084E0E80EF11C97012D5C3B4FF901EB5570
:10143000F140D081F801D080F901ED55F140C08034
:101440003196B0808DEA9FE00E944D198C2F0E944A
:101450006E1988EA9FE00E944D198B2D0E946E192B
:1014600086EA9FE00E944D198C2D0E946E1984EA35
:101470009FE00E944D198D2D0E946E1980E99FE01A
:101480000E944D198D2F90E00E94751983E89FE00E
:101490000E944D19CF5F0C5F1F4FCE3109F0BCCFBA
:1014A000DF91CF911F910F91FF90EF90DF90CF9040
:1014B000BF900895EF92FF920F931F93CF93DF9306
:1014C000C82F8AE69FE00E944D198C2F0E946E194A
:1014D00084E69FE00E944D1985E9E82E82E0F82E0F
:1014E00000E810E0D0E0C555DB4F8881802319F07B
:1014F000F701608101C06FE58EE795E00E947414EA
:101500001F5F0695FFEFEF1AFF0A183071F782E6AA
:101510009FE0DF91CF911F910F91FF90EF900C947E
:101520004D191F93CF93DF93C2E5D1E01C2F1255C5
:10153000BE01675A7C4FCE010E94E8092196812F97
:101540000E945A0ACA3581E0D80781F7DF91CF910E
:101550001F910895CF92DF92EF92FF92CF93DF9386
:1015600000D000D000D0CDB7DEB76B017C010E9467
:10157000BC0980912C0490E0A0E0B0E089839A83BC
:10158000AB83BC838AE090E09E838D83C701B60164
:101590000E94BC0980912C0490E00A971CF061E93C
:1015A00072E002C06CEB73E08EE795E00E9490144D
:1015B000CE0101960E9414196AE30E947414C701B7
:1015C000B6010E94BC0980912B0490E0A0E0B0E03D
:1015D00089839A83AB83BC838AE090E09E838D836A
:1015E000C701B6010E94BC0980912B0490E00A97C4
:1015F0001CF061E972E002C06CEB73E08EE795E0ED
:101600000E949014CE0101960E9414196AE30E9470
:101610007414C701B6010E94BC0980912A0490E0AD
:10162000A0E0B0E089839A83AB83BC838AE090E03A
:101630009E838D83C701B6010E94BC0980912A0454
:1016400090E00A971CF061E972E002C06CEB73E075
:101650008EE795E00E949014CE0101960E94141925
:1016600026960FB6F894DEBF0FBECDBFDF91CF91A7
:10167000FF90EF90DF90CF900895CF92DF92EF929E
:10168000FF92CF93DF9300D000D000D0CDB7DEB76C
:101690006B017C010E94BC0980912E0490E0A0E0C7
:1016A000B0E089839A83AB83BC838AE090E09E8319
:1016B0008D83C701B6010E94BC0980912E0490E081
:1016C0000A971CF061E972E002C06CEB73E08EE7F0
:1016D00095E00E949014CE0101960E9414196CE9C5
:1016E00072E00E949014C701B6010E94E009092E21
:1016F000000CAA0BBB0B89839A83AB83BC838AE063
:1017000090E09E838D83C701B6010E94BC092091A1
:101710002F0483E0289F90011124A5EBB4E080E022
:1017200090E0FC01E20FF31FE65AF24FE491ED93D3
:10173000019683309105A9F71092B80465EB74E027
:101740008EE795E00E9490146CE972E08EE795E0D8
:101750000E949014CE0101960E94141960E20E942A
:101760007414C701B6010E94BC0980912C0490E05A
:10177000A0E0B0E089839A83AB83BC838AE090E0E9
:101780009E838D83C701B6010E94BC0980912C0401
:1017900090E00A971CF061E972E002C06CEB73E024
:1017A0008EE795E00E949014CE0101960E941419D4
:1017B0006AE30E947414C701B6010E94BC098091BB
:1017C0002B0490E0A0E0B0E089839A83AB83BC83D4
:1017D0008AE090E09E838D83C701B6010E94BC0918
:1017E00080912B0490E00A971CF061E972E002C03E
:1017F0006CEB73E08EE795E00E949014CE010196A9
:101800000E9414196AE30E947414C701B6010E9471
:10181000BC0980912A0490E0A0E0B0E089839A831B
:10182000AB83BC838AE090E09E838D83C701B601C1
:101830000E94BC0980912A0490E00A971CF061E99B
:1018400072E002C06CEB73E08EE795E00E949014AA
:10185000CE0101960E94141926960FB6F894DEBFA9
:101860000FBECDBFDF91CF91FF90EF90DF90CF9073
:1018700008958F929F92AF92BF92CF92DF92EF9294
:10188000FF921F93CF93DF93C0EAD1E010E080EA8C
:10189000E82EF12CBE01C7010E949F088AE0E80EE5
:1018A000F11C6AE070E080E090E00E9436156A81E9
:1018B0007B818C819D810E943D0BCE80DF80A8843E
:1018C000B9848880998086E59FE00E944D19812F18
:1018D0000E946E1987E49FE00E944D19C4010E9486
:1018E00075198FE39FE00E944D19C5010E9475197B
:1018F00082E39FE00E944D19C6010E94751980E3A2
:101900009FE00E944D191F5F2A96183019F6DF914B
:10191000CF911F91FF90EF90DF90CF90BF90AF904D
:101920009F908F9008957F928F929F92AF92BF92D7
:10193000CF92DF92EF92FF920F931F93CF93DF939B
:10194000782EC0EFD1E000E010E080E5E82EF12C29
:1019500081E078120DC0BE01C7010E949F088AE095
:10196000E80EF11C6AE070E080E090E00E9436151D
:101970006A817B818C819D810E943D0BCE80DF80BE
:10198000A884B9848880998085E29FE00E944D19DF
:10199000C8010E94751986E19FE00E944D19C4019B
:1019A0000E9475198EE09FE00E944D19C5010E94AA
:1019B000751981E09FE00E944D19C6010E947519BA
:1019C0008FEF9EE00E944D190F5F1F4F2A9608303F
:1019D000110509F0BDCFDF91CF911F910F91FF90BD
:1019E000EF90DF90CF90BF90AF909F908F907F90BF
:1019F00008957F928F929F92AF92BF92CF92DF9283
:101A0000EF92FF920F931F93CF93DF93782EC0E551
:101A1000D1E000E010E0E12CF12C81E078120DC063
:101A2000BE01C7010E949F088AE0E80EF11C6AE02F
:101A300070E080E090E00E9436156A817B818C81A5
:101A40009D810E943D0BCE80DF80A884B984888070
:101A5000998087EF9EE00E944D19C8010E94751978
:101A600088EE9EE00E944D19C4010E94751980EE17
:101A70009EE00E944D19C5010E94751987ED9EE0F8
:101A80000E944D19C6010E94751985ED9EE00E94C5
:101A90004D190F5F1F4F2A960830110509F0BDCF71
:101AA000DF91CF911F910F91FF90EF90DF90CF903A
:101AB000BF90AF909F908F907F900895EF92FF928C
:101AC0000F931F93CF93DF931F92CDB7DEB77C01A7
:101AD000FC0100811181C80169830E94622C698127
:101AE000681719F0C8010E946A2CC7010F90DF9196
:101AF000CF911F910F91FF90EF900895EF92FF9279
:101B00000F931F93CF93DF9300D0CDB7DEB78C0137
:101B10007B01FB0160819A838983CE0101960E943B
:101B20005E0DF70161810F5F1F4F1A830983CE019C
:101B300001960E945E0DC7010F900F90DF91CF912B
:101B40001F910F91FF90EF900895AF92BF92CF92A7
:101B5000DF92EF92FF920F931F93CF93DF9300D00A
:101B6000CDB7DEB78B016B0126E0C20ED11C7B0125
:101B70005C01A61AB70A95012E0D3F1DF701619170
:101B80007F013A832983CE0101960E945E0DEC14F9
:101B9000FD0489F7C8010F900F90DF91CF911F913D
:101BA0000F91FF90EF90DF90CF90BF90AF9008958E
:101BB0000F931F93CF93DF9300D0CDB7DEB78B0188
:101BC000FB0160819A838983CE0101960E945E0D9C
:101BD000C8010F900F90DF91CF911F910F91089541
:101BE00081E08093310485E890E10E944D1961E322
:101BF00074E088ED91E00E94D80D8BE690E10E94A0
:101C00004D1984E590E10E944D1980E090E0FC01BF
:101C1000E051FE4F11821082FC01E056FE4F11820E
:101C200010820A968035910591F78BE390E10E942E
:101C30004D1961E087E00E94EA1461E086E00E94AD
:101C4000EA1461E085E00E94EA1461E084E00E9409
:101C5000EA1480E290E10E944D1960E08DE00E945C
:101C6000EA1480E090E10E944D1981E08093B30472
:101C700087EF9FE00E944D190E941B170C943D0BAB
:101C8000AF92BF92CF92DF92EF92FF920F931F938A
:101C9000CF93DF9300D0CDB7DEB78B016B0124E08B
:101CA000C20ED11C7B015C01A61AB70A95012E0D4C
:101CB0003F1DF70161917F013A832983CE0101968F
:101CC0000E945E0DEC14FD0489F7C8010F900F907F
:101CD000DF91CF911F910F91FF90EF90DF90CF9008
:101CE000BF90AF900895AF92BF92CF92DF92EF92E4
:101CF000FF920F931F93CF93DF9300D0CDB7DEB742
:101D00008B016B012AE0C20ED11C7B015C01A61A7B
:101D1000B70A95012E0D3F1DF70161917F013A83AE
:101D20002983CE0101960E945E0DEC14FD0489F713
:101D3000C8010F900F90DF91CF911F910F91FF90ED
:101D4000EF90DF90CF90BF90AF9008952F923F9289
:101D50004F925F926F927F928F929F92AF92BF92BB
:101D6000CF92DF92EF92FF920F931F93CF93DF9367
:101D7000CDB7DEB72D970FB6F894DEBF0FBECDBF3F
:101D800065E972E0CE0108960E945F140E941B175D
:101D90002B013C010E94BC0980912C048B83C30160
:101DA000B2010E94BC0980912B048A83C301B20155
:101DB0000E94BC0980912A04898323E3C22E24E077
:101DC000D22E06E314E0312C3AE5E32EFF24F394FF
:101DD000BB24B394B601C7010E94C50844E0E40ED9
:101DE000F11CF80131978081F60190819D83F80103
:101DF000329790819E83825E8F83CE0101960E94EE
:101E0000A5176415750586059705F9F48091B30447
:101E1000811110C0C301B2010E943D0B88E19EE018
:101E20000E944D1986EE9DE00E944D1988EB9DE0C1
:101E30000E944D19F8018081811105C0B082B60160
:101E4000C7010E94400E33243394F4E0CF0ED11C1E
:101E50000C5F1F4F42EDE41641E0F40609F0BACFE3
:101E6000C301B2010E94BC0980912F048E83C3017B
:101E7000B2010E94BC0980912E048D83C301B2017E
:101E80000E94E009825B8F8300E511E08BEAC82E97
:101E900084E0D82EE12CF12C90E8A92EB12C2C2C2A
:101EA0008BEA94E0281AF60191906F01C301B20108
:101EB0000E94BC09292D30E080912D048150A5019C
:101EC00002C0559547958A95E2F7CA01822393236C
:101ED000892B91F1C301B2010E94BC0990902F049B
:101EE000F80162817381848195810E94BC0980918F
:101EF0002F04981221C0C301B2010E94BC09909026
:101F00002E04F80162817381848195810E94BC094D
:101F100080912E04981210C0C301B2010E94E00902
:101F20004C01F80162817381848195810E94E009EE
:101F30008816990609F479C0FAE0EF0EF11C065FE5
:101F40001F4F40E5E416F10409F0A9CFCE01089631
:101F50000E945A14311065C000E511E0F12CF8011F
:101F6000808591858336910509F054C080819181E7
:101F7000019709F04FC00E941B17F80182809380DF
:101F8000A480B580DC01CB0188199909AA09BB0995
:101F90004E97A105B105F0F58EE99EE00E944D191E
:101FA00087E99EE00E944D198F2D0E946E198BE8E3
:101FB0009EE00E944D198DE79EE00E944D1984E736
:101FC0009EE00E944D190E941B170E941B170E9441
:101FD0003D0B1092B3041092310461E374E088ED7C
:101FE00091E00E94D80DF80182819381A481B5818E
:101FF00080589E4AAE4FBF4F82839383A483B5839C
:10200000B801C801805591400E94730E86E49EE09D
:102010000E944D19F394065F1F4FF8E0FF129FCF07
:1020200041C081E08093B3043DC0F80162817381B7
:10203000848195810E94BC0980912C048B83F801D6
:1020400062817381848195810E94BC0980912B04F7
:102050008A83F80162817381848195810E94BC0921
:1020600080912A048983CE0101960E94A517DC0184
:10207000CB0180589E4AAE4FBF4FF80182839383B5
:10208000A483B58381EB9DE00E944D19822D0E94AF
:102090006E1982E89DE00E944D19B801C7010E94A7
:1020A000730E4ACF2D960FB6F894DEBF0FBECDBF8C
:1020B000DF91CF911F910F91FF90EF90DF90CF9024
:1020C000BF90AF909F908F907F906F905F904F9058
:1020D0003F902F9008958F929F92AF92BF92CF9290
:1020E000DF92EF92FF920F931F93CF93DF9300D075
:1020F000CDB7DEB7F0E5EF2EF1E0FF2E812CAAE799
:102100009A2EA9E4AA2EAAE5BA2E00E010E0F70163
:102110001182108282829382A482B58217821682F3
:1021200011861086B701C8010E94730E065F1F4F0B
:10213000FAE0EF0EF11C8FEF881A980AA80AB80A85
:102140000035110521F770EFE72E71E0F72EEAE078
:102150008E2E912CA12CB12CF7011182108282823B
:102160009382A482B5821782168211861086B701E7
:10217000C8010E94730E065F1F4FFAE0EF0EF11CBC
:10218000003A110549F750EAE52E51E0F52E6AE0D4
:10219000862E912CA12CB12CF70111821082828203
:1021A0009382A482B5821782168211861086B701A7
:1021B000C8010E94730E065F1F4FFAE0EF0EF11C7C
:1021C000003F110549F74AEFE42E43E0F42EF701F2
:1021D000118210821282138214821582B701C80103
:1021E0000E94A50D0A5F1F4FF6E0EF0EF11C0032B2
:1021F00081E0180761F73AECE32E33E0F32EF701A4
:10220000118210821282138214821582B701C801D2
:102210000E94A50D0A5F1F4FF6E0EF0EF11C00357E
:1022200081E0180761F722E9E22E22E0F22EF701A1
:1022300061917F011A830983CE0101960E945E0D90
:102240000F5F1F4F0335F1E01F0789F79BEAE92E67
:1022500094E0F92E02E511E0F7011082B701C80100
:102260000E94D80D0F5F1F4FFFEFEF1AFF0A0A35CC
:1022700081E0180789F783E3C82E84E0D82EF12C7B
:10228000F601F082C8018D5C9B4FFC01E955F140DD
:1022900010823196108231961082B601C8010E94D8
:1022A000400E0C5F1F4FF394F4E0CF0ED11C8EE173
:1022B000F812E6CF81E090E09A838983BE016F5FD8
:1022C0007F4F87ED91E00E947E0D1A821982BE0138
:1022D0006F5F7F4F88ED91E00E947E0D89ED9FE05A
:1022E0000E944D1981E00E94F90C81E00E94930C3C
:1022F0000E94390C0E94910A0E94FC0962E374E07A
:1023000087ED91E00E94E809109132048AEC9FE089
:102310000E944D19812F0E946E1988EC9FE00E9447
:102320004D1961E374E088ED91E00E94E809109195
:10233000310489EB9FE00E944D19812F0E946E1994
:1023400087EB9FE00E944D190F900F90DF91CF9186
:102350001F910F91FF90EF90DF90CF90BF90AF90C3
:102360009F908F900895CF92DF92EF92FF920F93FC
:102370001F93CF93DF936C017A018B01C0E0D0E013
:10238000CE15DF0589F0D8016D918D01D601ED9153
:10239000FC910190F081E02DC6010995892B11F483
:1023A0007E0102C02196ECCFC701DF91CF911F9132
:1023B0000F91FF90EF90DF90CF900895FC01538D27
:1023C000448D252F30E0842F90E0821B930B54170F
:1023D00010F0CF96089501970895FC01918D828D9C
:1023E000981761F0828DDF01A80FB11D5D968C9169
:1023F000928D9F5F9F73928F90E008958FEF9FEF74
:102400000895FC01918D828D981731F0828DE80F2F
:10241000F11D858D90E008958FEF9FEF0895FC01E9
:10242000918D228D892F90E0805C9F4F821B9109B6
:102430008F73992708958EE795E00E940F1221E08F
:10244000892B09F420E0822F0895FC01848DDF019F
:10245000A80FB11DA35ABF4F2C91848D90E0019617
:102460008F739927848FA689B7892C93A089B18906
:102470008C9180648C93938D848D981306C0028810
:10248000F389E02D80818F7D80830895EF92FF9204
:102490000F931F93CF93DF93EC0181E0888F9B8D87
:1024A0008C8D981305C0E889F989808185FD24C049
:1024B000F62E0B8D10E00F5F1F4F0F731127E02ECC
:1024C0008C8DE8120CC00FB607FCFACFE889F989A9
:1024D000808185FFF5CFCE010E942512F1CF8B8D33
:1024E000FE01E80FF11DE35AFF4FF0820B8FEA89DE
:1024F000FB898081806207C0EE89FF896083E8895B
:10250000F98980818064808381E090E0DF91CF91C0
:102510001F910F91FF90EF900895CF93DF93EC01FF
:10252000888D8823C9F0EA89FB89808185FD05C0F3
:10253000A889B9898C9186FD0FC00FB607FCF5CF2D
:10254000808185FFF2CFA889B9898C9185FFEDCF75
:10255000CE010E942512E7CFDF91CF91089580E050
:1025600090E0892B29F00E941B1281110C9400002D
:1025700008953FB7F8948091140590911505A091A6
:102580001605B091170526B5A89B05C02F3F19F079
:102590000196A11DB11D3FBFBA2FA92F982F8827E3
:1025A000820F911DA11DB11DBC01CD0142E0660F3E
:1025B000771F881F991F4A95D1F7089585ED80935D
:1025C000BC008091BC0084FDFCCF10921D060895D4
:1025D0004091EA04262F30E0240F311D21323105CD
:1025E000DCF420911D062430C9F4FC0180E090E069
:1025F000861758F43091EA042191DC01A853BB4FAF
:10260000A30FB11D2C930196F3CF8091EA04680FBC
:102610006093EA0480E0089581E0089582E00895DF
:102620000895E091210680912006E81730F4F0E04B
:10263000E85EFA4F808190E008958FEF9FEF089554
:102640009091210680912006981750F4E92FF0E030
:10265000E85EFA4F208130E09F5F9093210602C030
:102660002FEF3FEFC90108958091200690E020915F
:102670002106821B91090895CF92DF92EF92FF927B
:102680000F931F93CF93DF937C01262F972F8A01FF
:1026900080915C05882391F0C62FD72F6E01C40E60
:1026A000D51ECC15DD0571F06991D701ED91FC9136
:1026B0000190F081E02DC7010995F3CF642F822F9F
:1026C0000E94E812C801DF91CF911F910F91FF90F6
:1026D000EF90DF90CF900895CF93DF931F92CDB707
:1026E000DEB7698320915C052223D1F020911E067C
:1026F000203240F021E030E0FC013383228380E08F
:1027000090E015C080911F06E82FF0E0E35AFA4FE1
:10271000998190838F5F80931F0680931E0605C06A
:1027200061E0CE0101960E94E81281E090E00F90F6
:10273000DF91CF910895089580E090E00895982F5B
:1027400092959F702AEF929F800D112408950E9408
:10275000242FEF92FF920F931F93CF93DF93EC01FF
:102760007B018A0188819981009729F02A813B8128
:1027700024173507F8F4B8016F5F7F4F0E945A2E77
:10278000009759F0998388831B830A832C813D81AC
:10279000232B81F4FC0110820DC088819981009760
:1027A00011F00E94C22D198218821D821C821B8288
:1027B0001A8207C01D830C83B701888199810E940A
:1027C000462FCE01DF91CF911F910F91FF90EF9097
:1027D0000895AF92BF92CF92DF92EF92FF920F9344
:1027E0001F93CF93DF93FC0124813581FB0144814A
:1027F00055818901041B150B4115510551F1211516
:10280000310539F12417350720F10217130718F0A5
:102810008901015011097B01FC01A080B180C50133
:10282000DFEFCFEF6501C00ED11EC816D906A0F0AC
:10283000F701608171810E944D2F009769F09C0122
:102840002A193B090217130710F0D22FC32F019644
:10285000ECCF8FEF9FEF02C08D2F9C2FDF91CF9198
:102860001F910F91FF90EF90DF90CF90BF90AF90AE
:102870000895CF93DF93EC016115710559F0FB01C9
:1028800001900020E9F73197AF01461B570B0E94DA
:10289000A9130CC088819981009711F00E94C22D64
:1028A000198218821D821C821B821A82CE01DF913E
:1028B000CF910895FC01808191810C94C22DFC017F
:1028C00011821082138212821582148261157105A1
:1028D00051F0FB0101900020E9F73197AF01461B51
:1028E000570B0C94A9130895DC01ED91FC91019014
:1028F000F081E02D09946115710579F0FB010190DB
:102900000020E9F73197AF01461B570BDC01ED9131
:10291000FC910280F381E02D099480E090E008951D
:102920000C947B141F920F920FB60F9211242F93C9
:102930003F934F935F936F937F938F939F93AF9347
:10294000BF93EF93FF938EE795E00E942512FF91CE
:10295000EF91BF91AF919F918F917F916F915F9117
:102960004F913F912F910F900FBE0F901F90189590
:102970001F920F920FB60F9211242F938F939F9354
:10298000EF93FF93E0918E05F0918F058081E091A8
:102990009405F091950582FD12C090818091970574
:1029A0008F5F8F7320919805821751F0E091970502
:1029B000F0E0E258FA4F958F8093970501C080812F
:1029C000FF91EF919F918F912F910F900FBE0F90DC
:1029D0001F90189590E0FC01E856FF4E3491FC01E1
:1029E000EC52FF4E2491FC01E054FF4EE491EE23A3
:1029F00009F43BC0332339F1333091F038F43130EE
:102A0000A9F0323001F584B58F7D12C0373091F0D6
:102A10003830A1F03430B9F4809180008F7D03C04C
:102A2000809180008F77809380000DC084B58F7770
:102A300084BD09C08091B0008F7703C08091B00041
:102A40008F7D8093B000F0E0EE0FFF1FE455FF4E46
:102A5000A591B4918FB7F894EC91611103C02095C2
:102A60002E2301C02E2B2C938FBF08958F929F92FF
:102A7000AF92BF92CF92DF92EF92FF926B017C01F7
:102A80000E94B9124B015C01C114D104E104F104AC
:102A9000F1F00E94B912DC01CB0188199909AA0949
:102AA000BB09883E9340A105B10570F321E0C21A2D
:102AB000D108E108F10888EE880E83E0981EA11C79
:102AC000B11CC114D104E104F10419F7DDCFFF906A
:102AD000EF90DF90CF90BF90AF909F908F90089530
:102AE0002FB7F8946091100570911105809112052F
:102AF000909113052FBF08951F920F920FB60F925A
:102B000011242F933F938F939F93AF93BF93809103
:102B1000100590911105A0911205B0911305309107
:102B20000F0523E0230F2D3720F40196A11DB11DC1
:102B300005C026E8230F0296A11DB11D20930F05A5
:102B40008093100590931105A0931205B09313057F
:102B50008091140590911505A0911605B091170567
:102B60000196A11DB11D8093140590931505A093A6
:102B70001605B0931705BF91AF919F918F913F912B
:102B80002F910F900FBE0F901F9018951F920F92CC
:102B90000FB60F9211242F933F934F935F936F9330
:102BA0007F938F939F93AF93BF93EF93FF93809106
:102BB000B900887F803609F49CC068F5883209F432
:102BC0005BC090F4803109F454C038F4882309F4D0
:102BD000F6C0883009F44DC0F6C0883109F44CC005
:102BE000803209F45DC0EFC0803409F468C048F455
:102BF000803309F455C0883309F0E5C080935B0544
:102C0000D8C0803509F44FC0883509F45DC08834D8
:102C100009F0D9C0D6C0883909F4C7C0A8F48837EC
:102C200009F467C038F4883609F463C0803709F4C2
:102C300060C0C9C0883809F4B8C0803909F45FC0E1
:102C4000803809F0C0C05BC0803B09F486C038F40E
:102C5000803A09F466C0883A09F47FC0B4C0803C69
:102C600009F4A7C0883C09F4A4C0883B09F48AC0D1
:102C7000AAC08091380510C090915A0580915905DD
:102C8000981770F5E0915A0581E08E0F80935A05F0
:102C9000F0E0E75CFA4F80818093BB0085EC86C052
:102CA00080935B058EC0E0915A0581E08E0F809382
:102CB0005A058091BB00F0E0E75CFA4F8083909169
:102CC0005A05809159056EC0E0915A0581E08E0F3A
:102CD00080935A058091BB00F0E0E75CFA4F808357
:102CE00080911C0681116DC081E080931B0684EAEF
:102CF00061C083E080931D0610920E05CFCF8091B6
:102D00000E05803208F051C0E0910E0581E08E0F73
:102D100080930E058091BB00F0E0E251FB4F808371
:102D2000BDCF85EC8093BC0010921D0680910E05EE
:102D3000803230F4E0910E05F0E0E251FB4F10825A
:102D400060910E0570E0E091EC04F091ED048EEEE0
:102D500094E0099510920E0536C084E080931D061C
:102D60001092EB041092EA04E091E804F091E90477
:102D700009958091EA04811105C081E08093EA04FD
:102D80001092C804E091EB0481E08E0F8093EB0475
:102D9000F0E0E853FB4F80818093BB009091EB04FF
:102DA0008091EA04981708F479CF85E88093BC00F5
:102DB0000AC085EC8093BC0010921D0604C01092DE
:102DC0005B050E94DE12FF91EF91BF91AF919F9141
:102DD0008F917F916F915F914F913F912F910F90C4
:102DE0000FBE0F901F9018956093C2037093C3039A
:102DF0008093C4039093C503DC01CB01845D9E4F97
:102E0000AF4FBF4F8093BE039093BF03A093C00307
:102E1000B093C10382E090E09093C9038093C8030C
:102E20000E9470156093C3047093C4048093C5041A
:102E30009093C6040895CF92DF92EF92FF920F9382
:102E40001F930E947015C090C304D090C404E090FA
:102E5000C504F090C6048B019C010C191D092E09B4
:102E60003F098091C2039091C303A091C403B09124
:102E7000C503083E134021053105D0F00196A11D80
:102E8000B11D8093C2039093C303A093C403B09376
:102E9000C503B701A60148515C4F6F4F7F4F409368
:102EA000C3045093C4046093C5047093C604C9CF8F
:102EB0004091BE035091BF036091C0037091C10364
:102EC00084179507A607B70788F1E091C603F0912C
:102ED000C703309759F10995611571058105910571
:102EE00019F00E94F41622C08091C2039091C3038E
:102EF000A091C403B091C503845D9E4FAF4FBF4FF7
:102F00008093BE039093BF03A093C003B093C1030B
:102F100081E090E02091C8033091C903232B11F484
:102F200080E090E09093C9038093C8036091C2034E
:102F30007091C3038091C4039091C5031F910F91B9
:102F4000FF90EF90DF90CF9008956F927F928F92D5
:102F50009F92AF92BF92CF92DF92EF92FF920F9328
:102F60001F93CF93DF93EC01EE81AE2FB0E020E80A
:102F700033E341EE51E00E94782C4B015C0122EBDF
:102F800037E0FD0104E610E080E9E82EFF24F39429
:102F9000C901825B97408E179F07DCF4C9018370DB
:102FA0009927892B99F4C901B8010E94D52C892B46
:102FB00031F4C901B7010E94D52C892B39F480E87E
:102FC000880E81E5981E81E0A81EB11C2F5F3F4F3F
:102FD000DFCF6D80712CEE54F84FCF0164E670E0C6
:102FE0000E94D52C7C01CF0160E971E00E94D52CB4
:102FF0006C0101E010E0E370FF27061517052CF5C2
:103000000230110581F4309771F4E114F10419F4E0
:10301000C114D10441F480E8880E8BE3981E86E247
:10302000A81EB11C0FC0D801A25ABD4FAC91B0E090
:1030300020E831E541E050E00E94782C860E971E92
:10304000A81EB91E0F5F1F4FD8CF49812A8130E0DB
:10305000A0E1BEE00E94BA2C6B017C01242F30E07D
:10306000ACE3B0E00E94BA2CDC01CB018C0D9D1DBD
:10307000AE1DBF1D28816C017D01C20ED11CE11C5B
:10308000F11CAC81B0E0119720E831E541E050E05F
:103090000E940B2DDC01CB018C0D9D1DAE1DBF1DB3
:1030A000BC01CD01680D791D8A1D9B1DDF91CF915B
:1030B0001F910F91FF90EF90DF90CF90BF90AF9056
:1030C0009F908F907F906F900895CF93DF93CDB7AF
:1030D000DEB727970FB6F894DEBF0FBECDBF81E0F5
:1030E00080935C0588E680937D0510921F06109200
:1030F0001E0660E082E296E00E946C1381E00E946E
:10310000A519882331F08093C70460E070E0CB01FB
:103110003FC067E088E60E94021A10922106809361
:10312000200682E296E00E9420138F770E949F1370
:10313000898382E296E00E9420130E949F138A8373
:1031400082E296E00E9420138F7B0E949F138B8364
:1031500082E296E00E9420138C8382E296E00E9435
:1031600020130E949F138D8382E296E00E94201319
:103170008F770E949F138E8382E296E00E94201335
:103180000E949F13825E8F83CE0101960E94A51735
:1031900027960FB6F894DEBF0FBECDBFDF91CF915B
:1031A00008958F929F92AF92BF920F931F93CF93E8
:1031B000DF93CDB7DEB7A1970FB6F894DEBF0FBE91
:1031C000CDBF19A2423008F44AE08E010F5D1F4FB7
:1031D000842E912CA12CB12CA50194010E94E92CE4
:1031E000E62FB901CA0101501109EA3014F4E05D7B
:1031F00001C0E95CD801EC93232B242B252B61F72C
:10320000B8018EE795E00E947B14A1960FB6F89462
:10321000DEBF0FBECDBFDF91CF911F910F91BF9049
:10322000AF909F908F900895CF92DF92EF92FF9290
:10323000FC0144815581C080D180E280F38041153A
:10324000510561F4E0917E05F0917F050190F081D8
:10325000E02D6C2D8EE795E0099518C04A30510598
:1032600089F4F7FE0EC06DE28EE795E00E947414BB
:1032700066277727CB016C197D098E099F094AE0E3
:1032800003C04AE0C701B6010E94D1188EE795E05D
:10329000FF90EF90DF90CF9008950F931F93CF93FF
:1032A000DF938C01C0E0D0E0F801EC0FFD1F6491CA
:1032B000662371F0E0917E05F0917F050190F08129
:1032C000E02D8EE795E00995892B11F02196ECCF42
:1032D000CE01DF91CF911F910F910895682F70E07B
:1032E00080E090E04AE00C94D118CF92DF92EF9208
:1032F000FF92CF93DF936C01990FEE08FF08F7FE62
:1033000019C06DE28EE795E00E947414EC01662707
:103310007727CB016C197D098E099F094AE00E942D
:10332000D1188C0F9D1FDF91CF91FF90EF90DF9010
:10333000CF9008954AE0C701B601DF91CF91FF9089
:10334000EF90DF90CF900C94D118382F20911E066B
:1033500090917D05213208F049C080911D068111B0
:10336000FCCF42E040931D0630931C063FEF3093A4
:103370005B0510925A0520935905ADE5B5E049E388
:1033800055E0FA013E2F341B321718F43D9131936A
:10339000F9CF1092380520913805990F922B909310
:1033A000380590911B06913061F410921B069091A4
:1033B00038059093BB009091BC0093FDF8CF95EC3D
:1033C00001C095EE9093BC0090911D069230E1F300
:1033D00090915B059F3F79F080915B05803241F0D1
:1033E00080915B05803331F084E005C081E003C04B
:1033F00082E001C083E010921F0610921E06109218
:103400005C05089590911D069111FCCF91E0909379
:103410001D0690931C062FEF20935B0510925A0512
:10342000260F209359059093380590913805880F01
:10343000892B8093380580911B06813061F41092AE
:103440001B06809138058093BB008091BC0083FDF2
:10345000F8CF85EC01C085EE8093BC0080911D06FD
:103460008130E1F380915A05861710F460915A0576
:10347000A9E3B5E028E135E0F9018E2F821B86171C
:1034800018F48D918193F9CF862F089590E0FC0177
:10349000EC52FF4E2491FC01E054FF4E84918823AE
:1034A00099F090E0880F991FFC01EA54FF4EA59116
:1034B000B491FC01E455FF4E859194918FB7F89437
:1034C000EC91E22BEC938FBF0895CF93DF93CDB7B0
:1034D000DEB7CF54D1090FB6F894DEBF0FBECDBF13
:1034E000789484B5826084BD84B5816084BD85B5DF
:1034F000826085BD85B5816085BD80916E008160EB
:1035000080936E0010928100809181008260809390
:103510008100809181008160809381008091800092
:103520008160809380008091B10084608093B100BD
:103530008091B00081608093B00080917A008460B7
:1035400080937A0080917A00826080937A008091E3
:103550007A00816080937A0080917A0080688093FD
:103560007A001092C10081E491E4A0E022968DAF30
:103570009EAFAFAF22978DE00E94461A87E00E946F
:10358000461A86E00E94461A85E00E94461A84E0A8
:103590000E94461AE0918E05F0918F0582E08083AB
:1035A000E0918A05F0918B051082E0918C05F091F5
:1035B0008D0580E1808310929605E0919205F0914F
:1035C000930586E08083E0919005F09191058081DC
:1035D00080618083E0919005F09191058081886001
:1035E0008083E0919005F0919105808180688083CF
:1035F000E0919005F091910580818F7D80830E94FC
:103600001B17C090C203D090C303E090C403F09096
:10361000C50325E638E13093C7032093C603C09263
:10362000BE03D092BF03E092C003F092C103672BA8
:10363000682B692B29F40E941B17DD24D39403C047
:103640000E941B17D12C0E941B178091C8039091D8
:10365000C903029759F08CE492E00E944D196FE87B
:1036600072E08EE795E00E947B1418C080E392E040
:103670000E944D196FE872E08EE795E00E947B147E
:1036800087E292E00E944D190E941B170E943D0B99
:1036900060E972E08EE795E00E949014BE01615CE3
:1036A0007F4F80E591E00E94F2096FE370E06C0FBC
:1036B0007D1F6F5F7F4F81E591E00E94F209BE019F
:1036C000615C7F4FCE0101960E945F148D819E81C7
:1036D000892B49F062E972E089819A810E943D2F2D
:1036E00011E0892B09F010E0CE0101960E945A14D6
:1036F000112309F45BC0BE01615C7F4FCE010196CE
:103700000E945F1480E090E00E94751985E292E0CB
:103710000E944D194D815E8169817A818EE795E025
:103720000E94B31188E092E00E944D19CE010196EB
:103730000E945A1481EF91E00E944D1981E00E948D
:10374000F90C81E00E94930C0E94390C0E94910AAE
:103750000E94FC0962E374E087ED91E00E94E809B1
:103760001091320482EE91E00E944D19812F0E9447
:103770006E1980EE91E00E944D1961E374E088EDCE
:1037800091E00E94E8091091310481ED91E00E94DE
:103790004D19812F0E946E198FEC91E00E944D19F6
:1037A0005AEFE52E53E0F52E10E003C00E946B1097
:1037B000F7CFD70112966D917D918D919C911597C0
:1037C0000E943D0BF701A080B1808AEB91E00E943E
:1037D0004D19812F0E946E198BEA91E00E944D19BC
:1037E000C5010E94751989EA91E00E944D191F5F79
:1037F000F6E0EF0EF11C1830E1F64AECE42E43E05F
:10380000F42E10E0D70112966D917D918D919C91CF
:1038100015970E943D0BF701A080B18083E991E0EC
:103820000E944D19812F0E946E1984E891E00E9438
:103830004D19C5010E94751982E891E00E944D1949
:103840001F5FF6E0EF0EF11C1830E1F606E512E01E
:1038500034E0F32EF00E61E0D8018D918D010E94CD
:10386000EA146AEF70E080E090E00E943615F012F2
:10387000F2CFDD2009F47DC180E491E00E944D1972
:1038800080E1E6E4F2E0DE01919601900D928A95E6
:10389000E1F761E374E088ED91E00E94E80910919E
:1038A0003104111158C11092B3040E941B176B010F
:1038B0007C010E94BC0980912F048EABC701B60128
:1038C0000E94BC0980912E048DABC701B6010E94F5
:1038D000E009825B8FAB7E01B8E3EB0EF11C03EDD8
:1038E00011E0C8010E94622CF70181937F010F5FF4
:1038F0001F4F073DF1E01F07A1F78CE291E00E9406
:103900004D1968AD79AD8AAD9BAD0E943D0B8AE241
:1039100091E00E944D199E012F5F3F4F790169018F
:1039200000E010E0F801E05BFE4F82809380A4800D
:10393000B580C501B4010E94BC0980912C048BABF9
:10394000C501B4010E94BC0980912B048AABC5015A
:10395000B4010E94BC0980912A0489ABCE01C196B2
:103960000E94A517F801E050FF4F628373838483A0
:103970009583D6016D937D938D939D936D01F80191
:10398000E051FE4F11821082F801E056FE4F118285
:103990001082065F1F4F0035110521F687E090E089
:1039A000FE01319620E030E028173907DCF4419120
:1039B00051916191719180809180A280B380841631
:1039C0009506A606B70658F4DF0114978D929D92CE
:1039D000AD92BC92139740835183628373832F5FB0
:1039E0003F4FE2CF0197E1F6FE01B1969F01D7016B
:1039F0004D915D916D917D917D01A0E0B1E080E000
:103A000090E012968D909D90AD90BC9015974815C2
:103A100059056A057B0511F49183808301961A96F6
:103A20008830910571F73296E216F30601F7FE0130
:103A3000F1962F0196E0E92EF12C2AE0322ED201E8
:103A4000BE90AE902D013A9C80013B9C100D11243C
:103A5000F801E050FF4F62807380848095800E945F
:103A60001B17661677068806990608F06AC0F801E3
:103A7000E05BFE4F6F01808591858835910589F463
:103A80000E94A60E8AE08A9DF0018B9DF00D112404
:103A9000E05BFE4F808591850E94751985E191E07C
:103AA00066C08336910561F36080718087E091E0A4
:103AB0000E944D19C5010E9475198DEF90E00E947A
:103AC0004D19C3010E9475198BEF90E00E944D19AA
:103AD000F60162817381848195810E943D0BD6013C
:103AE0008D919C91019749F500511E4FF801A680D8
:103AF000B780F1E0AF16B10401F5F701E555FB4FD2
:103B0000C180D12C0E941B170E94BC0980912D04FA
:103B1000815020E830E002C0359527958A95E2F77C
:103B2000C222D322CD2819F08BED90E008C0D80135
:103B3000AD92BC9285EC90E002C084E990E00E94D6
:103B40004D19B1E0EB1AF108EEEFEE16EFEFFE06BD
:103B500009F075CF0EC081E08093B30485E890E052
:103B60000E944D19812F0E946E1988E690E00E94F4
:103B70004D198091B304811134C300E511E0C12CCB
:103B8000D12C312CD8018D919C911197019709F07E
:103B9000FBC018968D919C911997CC970CF0F4C0AE
:103BA0008091B3048111F0C00E941B17F80142807C
:103BB000538064807580461A570A680A790A0E9401
:103BC0001B174B015C010E94BC0980912F048E835E
:103BD000C501B4010E94BC0980912E048D83C501EA
:103BE000B4010E94E009825B8F83C501B4010E9489
:103BF000BC0980912C048B83C501B4010E94BC09CF
:103C000080912B048A83C501B4010E94BC09809174
:103C10002A04898380E5E82E81E0F82E2BEA34E03F
:103C20002D963FAF2EAF2D97A12CB12C2C962FADFA
:103C30002C974BEA54E0241B2E962FAF2E972D96EF
:103C4000AEADBFAD2D979D902D96BFAFAEAF2D976A
:103C50000E941B170E94BC09292D30E080912D0481
:103C60008150E0E8F0E002C0F595E7958A95E2F72B
:103C7000CF0182239323892BB9F10E941B170E9445
:103C8000BC0990902F04D70112966D917D918D9172
:103C90009C9115970E94BC0980912F04981224C012
:103CA0000E941B170E94BC0990902E04F7016281AC
:103CB0007381848195810E94BC0980912E049812A1
:103CC00013C00E941B170E94E0094C01D7011296F5
:103CD0006D917D918D919C9115970E94E0098816B8
:103CE000990611F40C940C2BBAE0AB0EB11CEAE06F
:103CF000EE0EF11CF0E5AF16B10409F097CF22E10A
:103D0000421651046104710408F08EC08AE094E008
:103D10000E944D194AE0C301B2010E94D11885E00A
:103D200094E00E944D198EEF93E00E944D19832D6F
:103D30000E946E1982EF93E00E944D19D8011896E7
:103D40008D919C9119972AE0289FF001299FF00DF1
:103D50001124E051FE4F8D919C91119791838083A6
:103D600012968D919D910D90BC91A02D80589E4AE8
:103D7000AE4FBF4FF80182839383A483B583B8010C
:103D8000C6010E94730E50C00E941B17D8011296E4
:103D90004D905D906D907C90159753014201861A6D
:103DA000970AA80AB90ABAE08B169104A104B104D3
:103DB000D8F5F8012081318121303105A9F5208520
:103DC00031852835310581F5D301C20180589E4ADD
:103DD000AE4FBF4F82839383A483B583B801C601DE
:103DE0000E94730E85EC93E00E944D198EEB93E0D8
:103DF0000E944D19832D0E946E1982EB93E00E9460
:103E00004D198FEA93E00E944D194AE0C501B401B3
:103E10000E94D1188AEA93E00E944D190E94F00D89
:103E20008CE793E00E944D193394065F1F4FFAE030
:103E3000CF0ED11C20E5C216D10409F0A3CEE0EFCD
:103E4000AE2EE1E0BE2EF0EAEF2EF1E0FF2EAFE461
:103E50008A2EA6E09A2EBAEFCB2EB3E0DB2E1AEC18
:103E6000212E13E0312E370185012C961FAE2C97A1
:103E7000D8018D919C911197019709F0ADC0809167
:103E8000B3048111A9C01896ED91FC911997EA5AD3
:103E9000FD4F60E080810E94EA140E947015F401D9
:103EA0002081318142815381DC01CB01821B930B44
:103EB000A40BB50B893E9340A105B10508F48CC055
:103EC000F60182819381A481B5810196A11DB11D66
:103ED00082839383A483B583809132048130A9F5D2
:103EE000D80118964D905C901997F201EA5AFD4F4F
:103EF000208182E793E060962FAF60970E944D1972
:103F00002C968FAD2C970E946E1987E693E00E9445
:103F10004D19C2010E94751985E693E00E944D1962
:103F200060962FAD6097822F0E946E1983E693E012
:103F30000E944D19F60162817381848195810E94EE
:103F4000AA0A8CE393E00E944D190E947015D401D7
:103F50006D937D938D939C931397F60142815381CA
:103F600064817581F80182819381A481B5814817AC
:103F700059076A077B0780F1408451848CE293E003
:103F80000E944D192C968FAD2C970E946E1984E1DA
:103F900093E00E944D19C2010E9475198EE093E0D2
:103FA0000E944D19D80111961C921E9221E030E01A
:103FB000F301318320831896ED91FC911997EA5A09
:103FC000FD4F61E080810E94EA14D10112961D929A
:103FD0001D921D921C9215972C962FAD2C972F5F3A
:103FE0002C962FAF2C97065F1F4F3AE0630E711C83
:103FF00046E0240E311C54E0850E911C86E0C80E6C
:10400000D11C283009F034CF6FE2862E66E0962E60
:104010000AEC13E07AEF672E73E0772ED12CD701EC
:104020008D919C911197019709F0A0C08091B304E4
:1040300081119CC01896ED91FC911997EA5AFD4F99
:1040400061E080810E94EA140E947015F4012081D1
:10405000318142815381DC01CB01821B930BA40B84
:10406000B50B893E9340A105B10508F47FC0F80166
:1040700082819381A481B5810196A11DB11D8283A6
:104080009383A483B58380913204813089F5D7016D
:104090001896ED91FC911997EA5AFD4FC080F501F1
:1040A0004084518483E093E00E944D198D2D0E943D
:1040B0006E1988EF92E00E944D19C2010E94751995
:1040C00086EF92E00E944D198C2D0E946E1984EFAC
:1040D00092E00E944D19D80112966D917D918D91BB
:1040E0009C9115970E94AA0A8DEC92E00E944D19AE
:1040F0000E947015F4016083718382839383D801D9
:1041000012964D915D916D917C911597F701828189
:104110009381A481B581481759076A077B0730F15D
:10412000408451848DEB92E00E944D198D2D0E94A8
:104130006E1984EA92E00E944D19C2010E9475191D
:104140008EE992E00E944D19D7011D921C92F50153
:10415000868197818130910549F491838083D301D1
:1041600012961D921D921D921C921597D394BAE03F
:10417000EB0EF11CEAE0AE0EB11CF6E06F0E711C06
:1041800024E0820E911C0A5F1F4F38E0D31247CF04
:104190000E947015009173061091740620917506A7
:1041A00030917606DC01CB01801B910BA20BB30B87
:1041B000893E9340A105B105B0F06091B40481E05F
:1041C00068276093B4048DE00E94EA140E94701581
:1041D00060937306709374068093750690937606C9
:1041E00002C00E94A60ECE0101967C0100E010E004
:1041F0000E947015609386057093870580938805EB
:1042000090938905E0917E05F0917F050284F38506
:10421000E02D8EE795E0099597FD09C0D7018D93B4
:104220007D010F5F1F4F0E31110511F71DC00E9458
:1042300070158090860590908705A0908805B090B5
:104240008905DC01CB0188199909AA09BB0980906D
:10425000820590908305A0908405B090850588150F
:104260009905AA05BB0570F2E1E0F0E0EC0FFD1F37
:10427000E00FF11F108261E972E0CE018B5B9F4F6E
:104280000E945F1465E972E0CE01CF960E945F1430
:104290006EE972E0CE0101960E94222C7C01BC01E5
:1042A000CE018B5B9F4F0E9439142796CEACDFACBA
:1042B0002797C114D10409F444C02B960EAD1FAD4D
:1042C0002B9701151105E9F146015401BFEF8B1A37
:1042D0009B0AF5018081082E000C990B0E94562C38
:1042E000892B99F7015011090C0D1D1DD8018C91D6
:1042F000082E000C990B0E94562C892B89F40F5F15
:104300001F4FA8014A195B092B965FAF4EAF2B9741
:10431000CA14DB0458F4B501C6010E94342F06C04C
:104320000A151B0560F301501109E0CF2796EEAD89
:10433000FFAD27972B968EAD9FAD2B97E80FF91FFA
:10434000108262EA72E0CE0181960E945F14BE0183
:104350006F5D7F4FCE018B5B9F4F0E94E9138C01F5
:10436000CE0181960E945A1417FD0EC084E49DE090
:104370000E944D190E941B170E943D0B82E49DE094
:104380000E944D1901E001C000E06AEA72E0CE012E
:1043900081960E945F14BE016F5D7F4FCE018B5BE3
:1043A0009F4F0E94E9136C01CE0181960E945A141E
:1043B00010E0D7FCFCC0E114F10401F16EE972E0F9
:1043C00080E090E00E94222C7C010E94042CFE01DF
:1043D0003196E10FF11DE10FF11D91A380A30E9421
:1043E00075198EE39DE00E944D19812F0E946E1970
:1043F0008CE39DE00E944D191F5FDDCF8DA18CAF36
:104400008BA18DAF89A1825B8EAF8FA18AAF89A569
:1044100089AF8BA588AFCE01C8960E94A5174B0126
:104420005C01AE014F5C5F4F0E94EB08CC24C3944B
:10443000C0925C0558E6D52ED0927D0510921F06DD
:1044400010921E0660E082E296E00E946C1329A999
:104450000AE0822F602F0E94C92C682F660F860FFA
:10446000682F660F620F82E296E00E946C132AA901
:10447000822F602F0E94C92C682F660F860F682F2D
:10448000660F620F82E296E00E946C132BA9822FC6
:10449000602F0E94C92C682F660F860F682F660F49
:1044A000620F82E296E00E946C136CA982E296E0B1
:1044B0000E946C132DA9822F602F0E94C92C682F97
:1044C000660F860F682F660F620F82E296E00E94E9
:1044D0006C132EA9822F602F0E94C92C682F660FA3
:1044E000860F682F660F620F82E296E00E946C13BF
:1044F0002FA92E51822F602F0E94C92C682F660F82
:10450000860F880F682F620F82E296E00E946C137C
:1045100081E00E94A519C0925C05D0927D051092A1
:104520001F0610921E066FE082E296E00E946C1356
:1045300081E00E94A51981110FC061E088E60E9408
:10454000021A109221068093200682E296E00E94D1
:1045500020132F968FAF2F9781E080935C0588E61C
:1045600080937D0510921F0610921E066FE082E276
:1045700096E00E946C132F966FAD2F976F7782E2B3
:1045800096E00E946C1381E00E94A519C501B40158
:104590000E94F4168BE29DE00E944D19C501B40102
:1045A0000E943D0B89E29DE00E944D1901E062EB03
:1045B00072E0CE01C1960E945F14BE016F5C7F4F16
:1045C000CE018B5B9F4F0E94E9136C01CE01C19617
:1045D0000E945A14D7FC91C0E114F10499F06EE9DD
:1045E00072E080E090E00E94222C7C010E94042C6A
:1045F000FE013196E10FF11DE10FF11D91A380A3A2
:104600001F5FEACF89A09AA08AE0889D5001899D0A
:10461000B00C1124F501E051FE4F6F0189A59AA558
:10462000978386838BA59CA59187808711821082B2
:1046300081E08CAF8DAF1EAE8BA18AAF8DA189AF0B
:104640008FA188AFCE01C8960E94A517D6011296F9
:104650006D937D938D939C931597B0E5AB0EB11C34
:10466000B601C5010E94730E8BEF9CE00E944D19AC
:1046700080EF9CE00E944D19C4010E94751987EEDD
:104680009CE00E944D19F6016281738184819581BD
:104690000E94AA0AD60116968D909C90179718969C
:1046A0006D907C901997CD90DC908EED9CE00E94EF
:1046B0004D19C6010E94751986ED9CE00E944D19A6
:1046C000C3010E94751989EC9CE00E944D19C40138
:1046D0000E9475198FEA9CE00E944D19C5010E9445
:1046E00075198DEA9CE00E944D1980E00E94930CA0
:1046F0008FE79CE00E944D1901E06DEB72E0CE0166
:10470000C1960E945F14BE016F5C7F4FCE018B5B30
:104710009F4F0E94E9136C01CE01C1960E945A146A
:10472000D7FC96C0E114F10499F06EE972E080E0E4
:1047300090E00E94222C7C010E94042CFE01319604
:10474000E10FF11DE10FF11D91A380A31F5FEACFDF
:1047500089A09AA08AE0889D5001899DB00C1124FF
:10476000F501E056FE4F6F0189A59AA597838683D0
:104770008BA59CA5918780871182108281E08CAFE8
:104780008DAF1EAE8BA18AAF8DA189AF8FA188AFEF
:10479000CE01C8960E94A517D60112966D937D93FF
:1047A0008D939C931597B0EAAB0EB11CB601C50171
:1047B0000E94730E6AE070E080E090E00E9436157F
:1047C00081E59CE00E944D1985E49CE00E944D1912
:1047D000C4010E9475198CE39CE00E944D19F601FA
:1047E00062817381848195810E94AA0AD6011696FE
:1047F0008D909C90179718966D907C901997CD90FE
:10480000DC9083E39CE00E944D19C6010E9475195B
:104810008BE29CE00E944D19C3010E9475198EE144
:104820009CE00E944D19C4010E94751984E09CE02F
:104830000E944D19C5010E94751982E09CE00E94FA
:104840004D190E94390C84ED9BE00E944D1901E046
:1048500069EC72E0CE01C1960E945F14BE016F5CEC
:104860007F4FCE018B5B9F4F0E94E9136C01CE01FD
:10487000C1960E945A14D7FCA6C0E114F10499F025
:104880006EE972E080E090E00E94222C7C010E94A0
:10489000042CFE013196E10FF11DE10FF11D91A3F2
:1048A00080A31F5FEACF89A09AA08AE0889D50016B
:1048B000899DB00C1124F501E05BFE4F6F0189A5C5
:1048C0009AA5978386838BA59CA591878087118263
:1048D00010820E941B172B013C010E94BC09809191
:1048E0002F048DAFC301B2010E94BC0980912E0438
:1048F0008CAFC301B2010E94E009825B8EAF8BA135
:104900008AAF8DA189AF8FA188AFCE01C8960E94D2
:10491000A517D60112966D937D938D939C93159751
:10492000B601C5010E94730E6AE070E080E090E07D
:104930000E94361586EA9BE00E944D198EE99BE0A5
:104940000E944D19C4010E94751985E99BE00E94DF
:104950004D19F60162817381848195810E94AA0AB2
:10496000D60116968D909C90179718966D907C9016
:104970001997CD90DC908CE89BE00E944D19C60100
:104980000E94751981E89BE00E944D19C3010E94A5
:10499000751988E79BE00E944D19C4010E947519A2
:1049A0008EE59BE00E944D19C5010E9475198CE5AA
:1049B0009BE00E944D1981E00E94F90C8EE29BE081
:1049C0000E944D1901E062ED72E0CE01C1960E9495
:1049D0005F14BE016F5C7F4FCE018B5B9F4F0E94C7
:1049E000E9136C01CE01C1960E945A14D7FC86C00F
:1049F000E114F10499F06EE972E080E090E00E9429
:104A0000222C7C010E94042CFE013196E10FF11D45
:104A1000E10FF11D91A380A31F5FEACF89A09AA0A7
:104A20002AE0289DC001299D900D1124FC01E05130
:104A3000FE4F6F012BA13CA1318320835C01F0E587
:104A4000AF0EB11CB601C5010E94730E6AE070E0A2
:104A500080E090E00E94361580E09BE00E944D19B6
:104A60006BED72E08EE795E00E949014C4010E9405
:104A7000751963EE72E08EE795E00E949014D601FE
:104A800012966D917D918D919C9115970E94AA0A25
:104A9000F6018680978060847184C080D1806CEE3E
:104AA00072E08EE795E00E949014C6010E9475198D
:104AB00065EF72E08EE795E00E949014C3010E94BA
:104AC000751960E073E08EE795E00E949014C401D0
:104AD0000E94751969E073E08EE795E00E949014DA
:104AE000C5010E94751960E972E08EE795E00E94A9
:104AF000901482ED9AE00E944D1901E063E273E0A8
:104B0000CE01C1960E945F14BE016F5C7F4FCE0143
:104B10008B5B9F4F0E94E9136C01CE01C1960E94EE
:104B20005A14D7FC7DC0E114F10499F06EE972E0EB
:104B300080E090E00E94222C7C010E94042CFE0167
:104B40003196E10FF11DE10FF11D91A380A31F5FCD
:104B5000EACF89A09AA02AE0289DC001299D900D46
:104B600011249C0120563E4F69012BA13CA1D60186
:104B70002D933C935C01B0E5AB0EB11CB601C501B1
:104B80000E94730E6AE070E080E090E00E943615AB
:104B900084EA9AE00E944D1988E99AE00E944D1932
:104BA000C4010E9475198FE89AE00E944D19F60120
:104BB00062817381848195810E94AA0AD60116962A
:104BC0008D909C90179718966D907C901997CD902A
:104BD000DC9086E89AE00E944D19C6010E94751982
:104BE0008BE79AE00E944D19C3010E94751982E774
:104BF0009AE00E944D19C4010E94751988E59AE057
:104C00000E944D19C5010E94751986E59AE00E941F
:104C10004D190E94390C88E29AE00E944D1901E07A
:104C20006FE273E0CE01C1960E945F14BE016F5C1B
:104C30007F4FCE018B5B9F4F0E94E9136C01CE0129
:104C4000C1960E945A14D7FC77C0E114F10499F080
:104C50006EE972E080E090E00E94222C7C010E94CC
:104C6000042CFE013196E10FF11DE10FF11D91A31E
:104C700080A31F5FEACF89A09AA08AE0889D500197
:104C8000899DB00C1124F501E05BFE4F6F018BA1F3
:104C90009CA191838083BF01C5010E94730E6AE0CD
:104CA00070E080E090E00E9436158AEF99E00E9463
:104CB0004D1982EF99E00E944D19C4010E947519A7
:104CC00089EE99E00E944D19D60112966D917D9161
:104CD0008D919C9115970E94AA0AF6018680978073
:104CE00060847184C080D18080EE99E00E944D196B
:104CF000C6010E94751985ED99E00E944D19C30106
:104D00000E9475198CEC99E00E944D19C4010E9413
:104D1000751982EB99E00E944D19C5010E94751921
:104D200080EB99E00E944D1981E00E94F90C82E825
:104D300099E00E944D1901E068E373E0CE01C1964D
:104D40000E945F14BE016F5C7F4FCE018B5B9F4F53
:104D50000E94E9136C01CE01C1960E945A14D7FC3F
:104D600044C0E114F10499F06EE972E080E090E053
:104D70000E94222C7C010E94042CFE013196E10F3E
:104D8000F11DE10FF11D91A380A31F5FEACF0BA1DD
:104D9000CCA0E9A1FAA1EA5AFD4FD080602F8D2D59
:104DA0000E94EA1484E599E00E944D1985E499E097
:104DB0000E944D19812F0E946E198EE399E00E9486
:104DC0004D198D2D0E946E1980E399E00E944D19B6
:104DD000802F9C2D0E9475198EE299E00E944D193A
:104DE00080E099E00E944D1901E061E473E0CE019A
:104DF000C1960E945F14BE016F5C7F4FCE018B5B3A
:104E00009F4F0E94E9136C01CE01C1960E945A1473
:104E1000D7FCF8C082ED98E00E944D196EE972E06F
:104E200080E090E00E94222C7C01DC018C91082E15
:104E3000000C990BC0970A9708F0C9C0C7010E94DF
:104E4000042C5C019AA389A30AE00A9DC0010B9D72
:104E5000900D1124FC01E05BFE4F6F0162817381B4
:104E6000848195810E943D0BD60116968D909C9071
:104E7000179718966D907C9019974D905C9087ECE1
:104E800098E00E944D19C5010E94751988EB98E0C1
:104E90000E944D19C2010E94751980EB98E00E9492
:104EA0004D19C3010E94751987EA98E00E944D19B7
:104EB000C4010E94751985EA98E00E944D19F60117
:104EC00080859185089FF001099FF00D1124E05124
:104ED000FE4F62817381848195810E94AA0AD60166
:104EE00018962D903C901997029DF001039DF00DAE
:104EF0001124E051FE4F8680978060847184408049
:104F0000518087E998E00E944D19C1010E947519EE
:104F100088E898E00E944D19C2010E94751980E846
:104F200098E00E944D19C3010E94751983E798E02B
:104F30000E944D19C4010E94751981E798E00E94F2
:104F40004D19F60180859185089FF001099FF00DAC
:104F50001124E056FE4F62817381848195810E9405
:104F6000AA0AD6011896CD90DC9019970C9DF001F5
:104F70000D9DF00D1124E056FE4F868097806084D1
:104F800071844080518082E698E00E944D19C601EC
:104F90000E94751983E598E00E944D19C2010E9494
:104FA00075198BE498E00E944D19C3010E94751990
:104FB0008EE398E00E944D19C4010E9475198CE39C
:104FC00098E00E944D198A2D0E945A0A16C080E06E
:104FD0000E94F90C8FE098E00E944D1980E00E9439
:104FE000930C82EE97E00E944D190E94390C85EBDC
:104FF00097E00E944D190E94910A87E897E00E946D
:105000004D1901E06FE473E0CE01C1960E945F1478
:10501000BE016F5C7F4FCE018B5B9F4F0E94E913F7
:105020006C01CE01C1960E945A14D7FC29C0E1142C
:10503000F10499F06EE972E080E090E00E94222C89
:105040007C010E94042CFE013196E10FF11DE10F5D
:10505000F11D91A380A31F5FEACF89E597E00E942D
:105060004D1980E497E00E944D190E946B108DE26B
:1050700097E00E944D198FEF96E00E944D1901E0D4
:1050800064E673E0CE01C1960E945F14BE016F5CBE
:105090007F4FCE018B5B9F4F0E94E9136C01CE01C5
:1050A000C1960E945A14D7FC17C06BE18EE795E0B9
:1050B0000E9446126AE673E08EE795E00E94901423
:1050C0006BE18EE795E00E9446126EE673E08EE794
:1050D00095E00E94901401E061E773E0CE01C19673
:1050E0000E945F14BE016F5C7F4FCE018B5B9F4FB0
:1050F0000E94E9136C01CE01C1960E945A14D7FC9C
:105100009BC0E114F10421F16EE972E080E090E0CF
:105110000E94222C7C01FC018081082E000C990B3E
:105120000E942C2F892B39F0B701CE018B5B9F4F4A
:105130000E9439140BC0C7010E94042CFE01319655
:10514000E10FF11DE10FF11D91A380A31F5FD9CFE6
:105150008DA19EA1A9A0BAA0BE016B5B7F4F019754
:1051600099F4CE01CF960E94E913F501E555FB4F66
:1051700020E830E002C0359527958A95E2F7C9010D
:105180009081892B808320C0CE01CF960E94E913A5
:10519000F501E555FB4FAC014750510947705527C4
:1051A0002EEF30E0B90102C0759567954A95E2F798
:1051B00047E050E0481B590B01C0220F4A95EAF71F
:1051C000262B608126232083A50145555B4F6A016C
:1051D000BA01C5018E5A9E4F0E94D80D81ED96E00E
:1051E0000E944D1988EB96E00E944D19C5010E945E
:1051F00075198BEA96E00E944D1935E9A32E32E02D
:10520000B32E00E040E8942ED6018C91892119F04C
:10521000F501608101C06FE58EE795E00E9474148E
:105220000F5F9694FFEFAF1ABF0A083069F78DE75A
:1052300096E00E944D1901E06FE773E0CE01C19640
:105240000E945F14BE016F5C7F4FCE018B5B9F4F4E
:105250000E94E9136C01CE01C1960E945A14D7FC3A
:1052600022C08FE496E00E944D196EE972E080E062
:1052700090E00E94222C7C01DC018C91082E000C15
:10528000990BC0970A9740F4C7010E94042C89A388
:105290009AA30E945A0A02C00E94910A81E296E0F3
:1052A0000E944D1901E061E973E0CE01C1960E94B0
:1052B0005F14BE016F5C7F4FCE018B5B9F4F0E94DE
:1052C000E9136C01CE01C1960E945A14D7FC69C043
:1052D000E114F10499F06EE972E080E090E00E9440
:1052E000222C7C010E94042CFE013196E10FF11D5D
:1052F000E10FF11D91A380A31F5FEACFA9A0BAA07F
:10530000C501880F991F880F991FFC01ED5CFB4FA9
:105310002BA120832DA121832FA1228321E039A558
:10532000311101C020E02383FC01ED5CFB4F6F01D4
:10533000BF018AE591E00E94400ED60113960C91C0
:10534000139712969C90129711968C901197DC905F
:1053500087E196E00E944D19C5010E9475198EE003
:1053600096E00E944D198D2D0E946E198CE096E0FA
:105370000E944D19882D0E946E198AE096E00E94C5
:105380004D19892D0E946E1986EF95E00E944D19E6
:10539000802F90E00E94751984EF95E00E944D19CE
:1053A00001E06CE973E0CE01C1960E945F14BE017A
:1053B0006F5C7F4FCE018B5B9F4F0E94E9136C01A6
:1053C000CE01C1960E945A14D7FC0BC086EC95E022
:1053D0000E944D190E94FC0988E995E00E944D1930
:1053E00001E06CEA73E0CE01C1960E945F14BE0139
:1053F0006F5C7F4FCE018B5B9F4F0E94E9136C0166
:10540000CE01C1960E945A14D7FC3BC0E114F104AE
:1054100099F06EE972E080E090E00E94222C7C011D
:105420000E94042CFE013196E10FF11DE10FF11DE8
:1054300091A380A31F5FEACF09A1DAA000933204F1
:1054400062E374E087ED91E00E94D80D6AE070E0BD
:1054500080E090E00E9436158AE695E00E944D19A2
:1054600084E595E00E944D19802F9D2D0E947519AD
:1054700082E595E00E944D1984E295E00E944D1965
:1054800001E066EB73E0CE01C1960E945F14BE019D
:105490006F5C7F4FCE018B5B9F4F0E94E9136C01C5
:1054A000CE01C1960E945A14D7FC4BC0EF2899F048
:1054B0006EE972E080E090E00E94222C7C010E9464
:1054C000042CFE013196E10FF11DE10FF11D91A3B6
:1054D00080A31F5FEBCF19A10AA11093310461E3F0
:1054E00074E088ED91E00E94D80D6AE070E080E001
:1054F00090E00E94361586EF94E00E944D1984EEEC
:1055000094E00E944D19812F902F0E94751982EE10
:1055100094E00E944D1980913104813039F488EC77
:1055200094E00E944D190E94F00D08C089EB94E0B0
:105530000E944D191092B3040E94A60E8BE894E0CD
:1055400018C0011118C0E114F104A9F08DE594E030
:105550000E944D1984E594E00E944D19B7018EE731
:1055600095E00E9490148BE394E00E944D198DE029
:1055700094E00E944D19CE01CF960E945A14CE019C
:105580008B5B9F4F0E945A140E94701500916F060A
:10559000109170062091710630917206DC01CB01EA
:1055A000801B910BA20BB30B81369A4EA105B1055E
:1055B00078F10E941B174B015C0169837A838B830E
:1055C0009C839E012F5F3F4F790103ED11E0D701CE
:1055D0006D917D011AA309A3CE0181960E945E0DF3
:1055E0000F5F1F4F073DB1E01B0789F7C501B401ED
:1055F0000E943D0B0E94701560936F0670937006B9
:1056000080937106909372068DE49DE00E944D197F
:105610000E94AF120C94B91DF701628173818481DD
:1056200095810E94BC0980912C048B83D70112962E
:105630006D917D918D919C9115970E94BC098091EF
:105640002B048A83F70162817381848195810E9492
:10565000BC0980912A048983CE0101960E94A51776
:10566000DC01CB0180589E4AAE4FBF4FF7018283C9
:105670009383A483B58387E992E00E944D192E9607
:105680008FAD2E970E946E1988E692E00E944D1908
:10569000B701C5010E94730E0C94741ECF93DF9363
:1056A000109281051092800588EE93E0A0E0B0E0B2
:1056B0008093820590938305A0938405B09385051C
:1056C0002FE632E030937F0520937E0525EC30E015
:1056D00030938B0520938A0524EC30E030938D05C0
:1056E00020938C0520EC30E030938F0520938E05BD
:1056F00021EC30E0309391052093900522EC30E0CE
:10570000309393052093920526EC30E03093950575
:105710002093940510929705109298051092990580
:1057200010929A0510922506109224068093260660
:1057300090932706A0932806B093290681E892E06B
:105740009093230680932206109221061092200641
:1057500010921F0610921E0610921D0681E0809383
:105760001C0610921B0661E082E10E94EA1461E0CF
:1057700083E10E94EA148091B9008E7F8093B90082
:105780008091B9008D7F8093B90088E48093B80040
:1057900085E48093BC000E94701560937706709337
:1057A00078068093790690937A060E94701560932C
:1057B00073067093740680937506909376060E9424
:1057C000701560936F0670937006809371069093C6
:1057D0007206CFE4D6E00E9470156993799389939D
:1057E000999386E0CF36D807B1F7CFE2D6E00E9492
:1057F0007015699379938993999386E0CF34D8078C
:10580000B1F7DF91CF910895FC0188279927E8949B
:1058100021912032E9F3293010F02E30C8F32B32D9
:1058200041F02D3239F4689404C00E944E2C820F4E
:10583000911D219120532A30C0F31EF4909581953B
:105840009F4F08954BE756E00E94272C0895FA01D8
:10585000A191B081009719F41097E1F0CD01DC011E
:10586000CD010D90002011F4C00113C0FB01219166
:10587000222319F02015D9F7F3CFFB012191201530
:1058800019F41E92119606C02223C1F70D90002034
:10589000A1F7D001FA01A193B08308957AE0979F10
:1058A000902D879F802D910D1124089591110C94B6
:1058B0005F2C803219F089508550C8F708959927D8
:1058C00088270895F999FECF92BD81BDF89A99274E
:1058D00080B50895262FF999FECF1FBA92BD81BDDC
:1058E00020BD0FB6F894FA9AF99A0FBE0196089562
:1058F0000E94BA2CA59F900DB49F900DA49F800D7F
:10590000911D112408952F923F924F925F926F92B2
:105910007F928F929F92AF92BF92CF92DF92EF923F
:10592000FF920F931F93CF93DF93CDB7DEB7CA1BC0
:10593000DB0B0FB6F894DEBF0FBECDBF09942A88EB
:10594000398848885F846E847D848C849B84AA8493
:10595000B984C884DF80EE80FD800C811B81AA8120
:10596000B981CE0FD11D0FB6F894DEBF0FBECDBFEB
:10597000ED010895A29FB001B39FC001A39F700DD8
:10598000811D1124911DB29F700D811D1124911D47
:105990000895991B79E004C0991F961708F0961B8B
:1059A000881F7A95C9F78095089597FB072E16F4FE
:1059B000009407D077FD09D00E94132D07FC05D075
:1059C0003EF4909581959F4F0895709561957F4F16
:1059D0000895A1E21A2EAA1BBB1BFD010DC0AA1F30
:1059E000BB1FEE1FFF1FA217B307E407F50720F048
:1059F000A21BB30BE40BF50B661F771F881F991FC3
:105A00001A9469F760957095809590959B01AC010B
:105A1000BD01CF010895B7FF0C94782C0E94782C1B
:105A2000821B930B0895AA1BBB1B51E107C0AA1F41
:105A3000BB1FA617B70710F0A61BB70B881F991F2F
:105A40005A95A9F780959095BC01CD010895EE0F68
:105A5000FF1F0590F491E02D0994CF93DF938230DE
:105A6000910510F482E090E0E0917F06F0918006CD
:105A700020E030E0C0E0D0E0309711F1408151816A
:105A800048175907C0F04817590761F4828193817C
:105A9000209719F09B838A832BC090938006809374
:105AA0007F0626C02115310519F04217530718F457
:105AB0009A01BE01DF01EF010280F381E02DDCCF0E
:105AC0002115310509F1281B390B2430310590F4DB
:105AD00012968D919C9113976115710521F0FB0130
