:100000000C9477080C949F080C949F080C949F08FC
:100010000C949F080C949F080C949F080C949F08C4
:100020000C949F080C949F080C949F080C949F08B4
:100030000C949F080C949F080C949F080C949F08A4
:100040000C94AA160C949F080C94E6150C94C015F9
:100050000C949F080C949F080C949F080C949F0884
:100060000C94F4160C949F08206E6F7468696E6788
:1000700020746F20646F2C20736C656570696E67E7
:100080002E2E2E0A00536C65657074696D652069AB
:10009000732020002062757420697320696E61638B
:1000A00074697665206F72206974732074696D6558
:1000B00072206973206E6F7420726570656174615F
:1000C000626C650A00204C61756E6368696E67201A
:1000D0006974732074696D65720A0020427574201A
:1000E0006861732061207765656B6C792044617964
:1000F0004F666620746F6461790A002000204163B6
:10010000746976653A2000466F756E6420416C61B3
:10011000726D3A20002046696E69736865642072CA
:100120006573746F72696E670A000A004C617374BC
:100130002074696D65207265636F72646564200068
:1001400043697263756974206861732072657373A3
:10015000657465642C20747279696E6720746F20F1
:10016000726573756D6520696E74657272757074F1
:100170006564206F7065726174696F6E732E2E2EC8
:100180000A000A002054696D652E20416374697667
:10019000653D002054696D6572204F666620636F6F
:1001A000756E74646F776E20000A002054696D6567
:1001B0002E204163746976653D002054696D657237
:1001C000204F6E20636F756E74646F776E20000A27
:1001D00000536C65657074696D652069732020003B
:1001E0000A00566572626F73697479206973202002
:1001F00000416C61726D7320696E666F20697320B7
:100200006C6F616465640A0020455050524F4D2068
:10021000616C726561647920696E697469616C6989
:100220007A65640A00200054696D652069732000B6
:10023000525443206861732073657420746865208C
:1002400073797374656D2074696D6500556E6162B4
:100250006C6520746F2073796E63207769746820F1
:1002600074686520525443002068617320446179AA
:10027000206F666620746F6461792C2073636865F3
:1002800064756C696E6720697420746F20746F6D7B
:100290006F72726F770A00416C61726D2000202EC0
:1002A0002E2E0A002000204F464620636F756E7484
:1002B000646F776E206F6E2052656C61792000202C
:1002C000526561636865642074696D657220002001
:1002D0006973206163746976652C20636865636B5C
:1002E000696E672069747320636F756E74646F77CD
:1002F0006E2E2E2E0A0020003A00206F6E205265CE
:100300006C6179200054696D6572204F666620002B
:10031000202E2E2E0A002000204F4E20636F756E77
:1003200074646F776E206F6E2052656C6179200067
:1003300020526561636865642074696D6572200090
:10034000206973206163746976652C206368656336
:100350006B696E672069747320636F756E74646F68
:10036000776E2E2E2E0A0020003A00206F6E20524B
:10037000656C6179200054696D6572204F6E2000B4
:100380000A2A2A2A2A2A2A2A2A2A2A2A2A2A2A2AED
:100390002A2A2A2A2A2A2A2A2A2A2A2A2A2A2A2ABD
:1003A0002A2A2A2A2A2A2A2A2A2A2A2A0A002E2EEF
:1003B0002E0A00743D00207261697365642E2E2E32
:1003C0000A00416C61726D20002A2A2A2A2A2A2AF0
:1003D0002A2A2A2A2A2A2A2A2A2A2A2A2A2A2A2A7D
:1003E0002A2A2A2A2A2A2A2A2A2A2A2A2A2A2A2A6D
:1003F0002A2A2A2A0A00207261697365642E2E2E29
:100400000A00416C61726D20002E2E2E0A00743D90
:10041000000A2A2A2A2A2A2A2A2A2A2A2A2A2A2A86
:100420002A2A2A2A2A2A2A2A2A2A2A2A2A2A2A2A2C
:100430002A2A2A2A2A2A2A2A2A2A2A2A2A0A002070
:100440006973206E6F7420612076616C696420632B
:100450006F6D6D616E640A005761726E696E672020
:10046000000A2A2A2A2A2A2A2A2A2A2A2A2A2A2A36
:100470002A2A2A2A2A2A2A2A2A2A2A2A2A2A2A2ADC
:100480002A2A2A2A2A2A2A2A2A2A2A2A2A0A000A36
:100490002A2A2A2A2A2A2A2A2A2A2A2A2A2A2A2ABC
:1004A0002A2A2A2A2A2A2A2A2A2A2A2A2A2A2A2AAC
:1004B0002A2A2A2A2A2A2A2A2A2A2A0A0057616B41
:1004C000696E672075702E2E2E200A004665656CB9
:1004D000696E6720536C656570792C207A7A7A2E64
:1004E0002E2E2E200A000A0020536C6565702069AC
:1004F000732073657420746F20000A2A2A2A2A2A1E
:100500002A2A2A2A2A2A2A2A2A2A2A2A2A2A2A2A4B
:100510002A2A2A2A2A2A2A2A2A2A2A2A2A2A2A2A3B
:100520002A2A2A2A2A2A0A000A2A2A2A2A2A2A2A95
:100530002A2A2A2A2A2A2A2A2A2A2A2A2A2A2A2A1B
:100540002A2A2A2A2A2A2A2A2A2A2A2A2A2A2A2A0B
:100550002A2A2A2A0A000A0020566572626F7369E5
:1005600074792069732073657420746F20000A2ADF
:100570002A2A2A2A2A2A2A2A2A2A2A2A2A2A2A2ADB
:100580002A2A2A2A2A2A2A2A2A2A2A2A2A2A2A2ACB
:100590002A2A2A2A2A2A2A2A2A2A0A000A2A2A2A25
:1005A0002A2A2A2A2A2A2A2A2A2A2A2A2A2A2A2AAB
:1005B0002A2A2A2A2A2A2A2A2A2A2A2A2A2A2A2A9B
:1005C0002A2A2A2A2A2A2A2A0A000A2A2A2A2A2AF5
:1005D0002A2A2A2A2A2A2A2A2A2A2A2A2A2A2A2A7B
:1005E0002A2A2A2A2A2A2A2A2A2A2A2A2A2A2A2A6B
:1005F0002A2A2A2A2A2A0A000A0020796561726CAE
:10060000792072657065617461626C6520002F00ED
:100610002F00206973206E6F77200020486F6C795F
:1006200064617920000A2A2A2A2A2A2A2A2A2A2ABE
:100630002A2A2A2A2A2A2A2A2A2A2A2A2A2A2A2A1A
:100640002A2A2A2A2A2A2A2A2A2A2A2A2A2A2A2A0A
:100650002A0A000A2A2A2A2A2A2A2A2A2A2A2A2A64
:100660002A2A2A2A2A2A2A2A2A2A2A2A2A2A2A2AEA
:100670002A2A2A2A2A2A2A2A2A2A2A2A2A2A2A0AFA
:10068000000A2A2A2A2A2A2A2A2A2A2A2A2A2A2A14
:100690002A2A2A2A2A2A2A2A2A2A2A2A2A2A2A2ABA
:1006A0002A2A2A2A2A2A2A2A2A2A2A2A2A0A0020FE
:1006B0006172652073657420746F20005765656BE7
:1006C0006C79204461796F66667320666F72206171
:1006D0006C61726D000A2A2A2A2A2A2A2A2A2A2AC0
:1006E0002A2A2A2A2A2A2A2A2A2A2A2A2A2A2A2A6A
:1006F0002A2A2A2A2A2A2A2A2A2A2A2A2A2A2A2A5A
:100700002A0A000A2A2A2A2A2A2A2A2A2A2A2A2AB3
:100710002A2A2A2A2A2A2A2A2A2A2A2A2A2A2A2A39
:100720002A2A2A2A2A2A2A2A2A2A2A2A2A2A2A0A49
:1007300000446F6E6520696E697469616C697A69DD
:100740006E670A00496E697469616C697A696E67DF
:1007500020416C6C20616C61726D730A000A2A2A58
:100760002A2A2A2A2A2A2A2A2A2A2A2A2A2A2A2AE9
:100770002A2A2A2A2A2A2A2A2A2A2A2A2A2A2A2AD9
:100780002A2A2A2A2A2A2A2A2A0A000A2A2A2A2A33
:100790002A2A2A2A2A2A2A2A2A2A2A2A2A2A2A2AB9
:1007A0002A2A2A2A2A2A2A2A2A2A2A2A2A2A2A2AA9
:1007B0002A2A2A2A2A2A2A0A002020202020202029
:1007C000202020203D2D3D2D3D2D3D2D3D2D3D2D2D
:1007D0003D2D3D2D3D2020202020202020202020A8
:1007E000202020200A00202020202020202020203F
:1007F000203D2D3D2D3D2D3D2D3D2D3D2D3D2D3DB6
:100800002D3D2020202020202020202020202020BE
:10081000200A0020202020202020202020203D2DE4
:100820003D2D3D2D3D2D3D2D3D2D3D2D3D2D3D2085
:1008300020202020202020202020202020200A00EE
:100840000A002052657065617461626C653D00202C
:1008500052656C61793D002054696D652E204163BD
:10086000746976653D002069732054696D65722056
:100870004F666620000A00205265706561746162EF
:100880006C653D002052656C61793D002054696DB6
:10089000652E204163746976653D0020697320549C
:1008A000696D6572204F6E20000A002052616E64EF
:1008B0006F6D3D002054696D65723D002054696D77
:1008C000652E204163746976653D0020697320417F
:1008D0006C61726D20000A2A2A2A2A2A2A2A2A2AC8
:1008E0002A2A2A2A2A2A2A2A2A2A2A2A2A2A2A2A68
:1008F0002A2A2A2A2A2A2A2A2A2A2A2A2A2A2A2A58
:100900002A2A0A000A2A2A2A2A2A2A2A2A2A2A2AB1
:100910002A2A2A2A2A2A2A2A2A2A2A2A2A2A2A2A37
:100920002A2A2A2A2A2A2A2A2A2A2A2A2A2A2A2A27
:100930000A000A0020204368616E67656420746FB6
:1009400020005D2050696E20002052656C61794363
:100950006F6E74726F6C5B000A2A2A2A2A2A2A2A6E
:100960002A2A2A2A2A2A2A2A2A2A2A2A2A2A2A2AE7
:100970002A2A2A2A2A2A2A2A2A2A2A2A2A2A2A2AD7
:100980002A2A2A2A0A000A2A2A2A2A2A2A2A2A2A31
:100990002A2A2A2A2A2A2A2A2A2A2A2A2A2A2A2AB7
:1009A0002A2A2A2A2A2A2A2A2A2A2A2A2A2A2A2AA7
:1009B0002A2A0A000A00205361766564206F6E209F
:1009C000454550524F4D2061646472657373200039
:1009D0002052616E646F6D3D00204F6E2054696D32
:1009E00065723D00204163746976653D0020536562
:1009F0007420746F200020416C61726D20000A2AFF
:100A00002A2A2A2A2A2A2A2A2A2A2A2A2A2A2A2A46
:100A10002A2A2A2A2A2A2A2A2A2A2A2A2A2A2A2A36
:100A20002A2A2A2A2A2A2A2A2A2A0A000A2A2A2A90
:100A30002A2A2A2A2A2A2A2A2A2A2A2A2A2A2A2A16
:100A40002A2A2A2A2A2A2A2A2A2A2A2A2A2A2A2A06
:100A50002A2A2A2A2A2A2A2A0A000A0020536176E8
:100A60006564206F6E20454550524F4D206164648F
:100A70007265737320002052616E646F6D3D0020BB
:100A80004F6E2054696D65723D0020416374697634
:100A9000653D002053657420746F20002054696DFB
:100AA0006572204F666620000A2A2A2A2A2A2A2AE4
:100AB0002A2A2A2A2A2A2A2A2A2A2A2A2A2A2A2A96
:100AC0002A2A2A2A2A2A2A2A2A2A2A2A2A2A2A2A86
:100AD0002A2A2A2A0A000A2A2A2A2A2A2A2A2A2AE0
:100AE0002A2A2A2A2A2A2A2A2A2A2A2A2A2A2A2A66
:100AF0002A2A2A2A2A2A2A2A2A2A2A2A2A2A2A2A56
:100B00002A2A0A000A2A2A2A2A2A2A2A2A2A2A2AAF
:100B10002A2A2A2A2A2A2A2A2A2A2A2A2A2A2A2A35
:100B20002A2A2A2A2A2A2A2A2A2A2A2A2A2A2A2A25
:100B30000A000A2A2A2A2A2A2A2A2A2A2A2A2A2A7F
:100B40002A2A2A2A2A2A2A2A2A2A2A2A2A2A2A2A05
:100B50002A2A2A2A2A2A2A2A2A2A2A2A2A2A0A003F
:100B60000A00205361766564206F6E20454550521F
:100B70004F4D206164647265737320002052616E72
:100B8000646F6D3D00204F6E2054696D65723D00AD
:100B9000204163746976653D002053657420746F4D
:100BA000200020416C61726D20000A2A2A2A2A2A1C
:100BB0002A2A2A2A2A2A2A2A2A2A2A2A2A2A2A2A95
:100BC0002A2A2A2A2A2A2A2A2A2A2A2A2A2A2A2A85
:100BD0002A2A2A2A2A2A0A000A2A2A2A2A2A2A2ADF
:100BE0002A2A2A2A2A2A2A2A2A2A2A2A2A2A2A2A65
:100BF0002A2A2A2A2A2A2A2A2A2A2A2A2A2A2A2A55
:100C00002A2A2A2A0A000A00205361766564206F86
:100C10006E20454550524F4D206164647265737378
:100C200020002052657065617461626C653D002032
:100C300052656C61793D00204163746976653D00C1
:100C40002053657420746F20002054696D657220F4
:100C50004F666620000A2A2A2A2A2A2A2A2A2A2AAB
:100C60002A2A2A2A2A2A2A2A2A2A2A2A2A2A2A2AE4
:100C70002A2A2A2A2A2A2A2A2A2A2A2A2A2A2A2AD4
:100C80002A0A000A2A2A2A2A2A2A2A2A2A2A2A2A2E
:100C90002A2A2A2A2A2A2A2A2A2A2A2A2A2A2A2AB4
:100CA0002A2A2A2A2A2A2A2A2A2A2A2A2A2A2A0AC4
:100CB000000A00205361766564206F6E2045455020
:100CC000524F4D2061646472657373200020526539
:100CD0007065617461626C653D002052656C61797C
:100CE0003D00204163746976653D002053657420A2
:100CF000746F20002054696D6572204F6E20000AC9
:100D00002A2A2A2A2A2A2A2A2A2A2A2A2A2A2A2A43
:100D10002A2A2A2A2A2A2A2A2A2A2A2A2A2A2A2A33
:100D20002A2A2A2A2A2A2A2A2A2A2A0A000A00528F
:100D300054432054696D652053657420746F2000FE
:100D40000A00202D20000A0054696D652069732077
:100D5000002054696D652053617665640A00457210
:100D6000724A616E4665624D61724170724D617981
:100D70004A756E4A756C4175675365704F63744E62
:100D80006F76446563002068617320446179206F49
:100D9000666620746F6461792C207363686564757E
:100DA0006C696E6720697420746F20746F6D6F7248
:100DB000726F770A00416C61726D20000A2A2A2A3C
:100DC0002A2A2A2A2A2A2A2A2A2A2A2A2A2A2A2A83
:100DD0002A2A2A2A2A2A2A2A2A2A2A2A2A2A2A2A73
:100DE0002A2A2A2A2A2A2A2A0A00546F6461792088
:100DF000697320616E207363686564756C65642037
:100E0000686F6C796461792C20676F696E672074F4
:100E10006F20736C6565702E2E2E0A000A2A2A2A0E
:100E20002A2A2A2A2A2A2A2A2A2A2A2A2A2A2A2A22
:100E30002A2A2A2A2A2A2A2A2A2A2A2A2A2A2A2A12
:100E40002A2A2A2A2A2A2A2A0A000A2A2A2A2A2A6C
:100E50002A2A2A2A2A2A2A2A2A2A2A2A2A2A2A2AF2
:100E60002A2A2A2A2A2A2A2A2A2A2A2A2A2A2A2AE2
:100E70002A2A2A2A2A2A0A0054696D6520697320C1
:100E80000057616B696E672075702E2E2E0A002048
:100E90007261697365642E2E2E0A00416C61726D59
:100EA00020002D2D2D2D2D2D2D2D2D2D2D3D3D3D7C
:100EB0003D3D3D3D3D3D3D3D204177616B696E6768
:100EC000203D3D3D3D3D3D3D3D3D3D3D2D2D2D2DAF
:100ED0002D2D2D2D2D2D2D0A000A002052616E641E
:100EE0006F6D3D002054696D65723D002054696D41
:100EF000652E204163746976653D0020416C617206
:100F00006D20000A002052657065617461626C6535
:100F10003D002052656C61793D002054696D652E5D
:100F2000204163746976653D002054696D657220C7
:100F30004F6E20000A002052657065617461626C1A
:100F4000653D002052656C61793D002054696D65F6
:100F50002E204163746976653D002054696D657289
:100F6000204F666620000A002061726520005765E8
:100F7000656B6C79204461794F666673206F6620DB
:100F8000416C61726D2000202879792F6D6D2F647E
:100F900064290A0020796561726C79207265706538
:100FA000617461626C6520002F002F00206973203E
:100FB0000020486F6C7964617920000A00536C65E9
:100FC000657074696D652069732020000A0056659C
:100FD00072626F736974792069732020002045451F
:100FE00050524F4D20686173206265656E20696EB6
:100FF000697469616C697A65640A0054696D652079
:10100000697320005265616C6C7920676F696E6747
:1010100020746F20736C6565702C206E6F77202EA6
:101020002E2E0A005475726E696E67207374617497
:101030007573206C6564206F66662E2E2E0A005331
:101040007769746368696E672072656C6179732073
:101050006F66662E2E2E0A0053657474696E6720C3
:1010600074696D657273206F66662E2E2E0A0053AA
:10107000657474696E6720536C65657074696D651D
:10108000206269742E2E2E0A00476F696E672074E5
:101090006F20736C6565702E2E2E0A00000000080C
:1010A000000201000003040700000000000000002F
:1010B00000000000250028002B0000000000240094
:1010C00027002A00040404040404040402020202A7
:1010D00002020303030303030102040810204080FB
:1010E000010204081020010204081020792B1124A9
:1010F0001FBECFEFD8E0DEBFCDBF26E0AEEBB3E042
:1011000001C01D92A138B207E1F713E0A0E0B1E001
:10111000E8E2FFE502C005900D92AE3BB107D9F7BA
:1011200018E0C7E7D8E004C02197FE010E94522DC5
:10113000C637D107C9F70E94671A0C94922F0C94F6
:101140000000CF92DF92EF92FF920F931F93CF9305
:10115000DF93EB017B012AE0E20EF11C8B016C01B5
:10116000C61AD70AC601800F911F0E948D2CF80164
:1011700081938F01EE15FF05A9F7CE01DF91CF9185
:101180001F910F91FF90EF90DF90CF900895CF9235
:10119000DF92EF92FF920F931F93CF93DF93EB01B8
:1011A0007B0124E0E20EF11C8B016C01C61AD70A08
:1011B000C601800F911F0E948D2CF80181938F0131
:1011C000EE15FF05A9F7CE01DF91CF911F910F9189
:1011D000FF90EF90DF90CF9008956F927F928F9263
:1011E0009F92AF92BF92CF92DF92EF92FF920F93B6
:1011F0001F93CF93DF93EC01EE81AE2FB0E020E898
:1012000033E341EE51E00E94A32C4B015C0122EB41
:1012100037E0FD0104E610E080E9E82EFF24F394B6
:10122000C901825B97408E179F07DCF4C901837068
:101230009927892B99F4C901B8010E94002D892BA7
:1012400031F4C901B7010E94002D892B39F480E8DF
:10125000880E81E5981E81E0A81EB11C2F5F3F4FCC
:10126000DFCF6D80712CEE54F84FCF0164E670E053
:101270000E94002D7C01CF0160E971E00E94002DE9
:101280006C0101E010E0E370FF27061517052CF54F
:101290000230110581F4309771F4E114F10419F46E
:1012A000C114D10441F480E8880E8BE3981E86E2D5
:1012B000A81EB11C0FC0D801A25ABD4FAC91B0E01E
:1012C00020E831E541E050E00E94A32C860E971EF5
:1012D000A81EB91E0F5F1F4FD8CF49812A8130E069
:1012E000A0E1BEE00E94E52C6B017C01242F30E0E0
:1012F000ACE3B0E00E94E52CDC01CB018C0D9D1D20
:10130000AE1DBF1D28816C017D01C20ED11CE11CE8
:10131000F11CAC81B0E0119720E831E541E050E0EC
:101320000E94362DDC01CB018C0D9D1DAE1DBF1D15
:10133000BC01CD01680D791D8A1D9B1DDF91CF91E8
:101340001F910F91FF90EF90DF90CF90BF90AF90E3
:101350009F908F907F906F9008956F927F928F9261
:101360009F92AF92BF92CF92DF92EF92FF920F9334
:101370001F93CF93DF93EA012CE3C22ED12CE12CF3
:10138000F12CA70196010E94142D6883CA01B901AE
:10139000A70196010E94142D6983CA01B90128E1B1
:1013A00030E040E050E00E94142D69017A016A8328
:1013B000CA01B9016C5F7F4F8F4F9F4F27E030E02C
:1013C00040E050E00E94142D6F5F6B83812C912CC4
:1013D000540140E034E6632E712C00E911E0242F23
:1013E00030E02E54384FF901E370FF27309789F42D
:1013F000C901B3010E94002D892B31F4C901B80144
:101400000E94002D892B29F48EE691E0A0E0B0E047
:1014100004C08DE691E0A0E0B0E0880E991EAA1EFF
:10142000BB1ED501C401AA27BB27C816D906EA06E8
:10143000FB0610F04F5FD3CF4E83309799F4C9016C
:1014400064E670E00E94002D892B39F4C90160E93F
:1014500071E00E94002D892B29F48EE691E0A0E036
:10146000B0E004C08DE691E0A0E0B0E0881A990AEF
:10147000AA0ABB0AC818D908EA08FB08C90164E629
:1014800070E00E94002D8C01C90160E971E00E94AA
:10149000002DAFE5B2E020E0213041F4309751F467
:1014A0000115110529F4009729F402C04C9103C0DD
:1014B0004DE101C04CE150E060E070E0C416D5069B
:1014C000E606F70640F0C41AD50AE60AF70A2F5FC7
:1014D00011962C3009F72F5F2D83C394CC82DF91B6
:1014E000CF911F910F91FF90EF90DF90CF90BF9021
:1014F000AF909F908F907F906F900895CF92DF92E2
:10150000EF92FF92C090BF04D090C004E090C1045D
:10151000F090C2046C157D058E059F0571F06B017E
:101520007C014AE254E00E94AD09C092BF04D0920F
:10153000C004E092C104F092C204FF90EF90DF90EB
:10154000CF9008950E947E0A8091300490E08E54DE
:10155000984F0895CF93DF93EB010E948D2C8883E1
:10156000CE01DF91CF910895CF93DF93EB010E94DD
:101570008D2C8883CE01DF91CF910895BF92CF92B9
:10158000DF92EF92FF920F931F93CF93DF9303E3CA
:1015900014E08AE5E82EFF24F394C0E0B801C70107
:1015A0000E94C70884E0E80EF11C97012D5C3B4FB8
:1015B000F901EB55F140D081F801D080F901ED55EA
:1015C000F140C0803196B08081EB9FE00E944F19BE
:1015D0008C2F0E9470198CEA9FE00E944F198B2D6E
:1015E0000E9470198AEA9FE00E944F198C2D0E9478
:1015F000701988EA9FE00E944F198D2D0E94701982
:1016000084E99FE00E944F198D2F90E00E94771986
:1016100087E89FE00E944F19CF5F0C5F1F4FCE31CC
:1016200009F0BCCFDF91CF911F910F91FF90EF9008
:10163000DF90CF90BF900895EF92FF920F931F938A
:10164000CF93DF93C82F8EE69FE00E944F198C2F17
:101650000E94701988E69FE00E944F1985E9E82EE4
:1016600082E0F82E00E810E0D0E0C555DB4F88811D
:10167000802319F0F701608101C06FE58EE795E0E6
:101680000E94A2151F5F0695FFEFEF1AFF0A1830A0
:1016900071F786E69FE0DF91CF911F910F91FF9048
:1016A000EF900C944F191F93CF93DF93C2E5D1E0D5
:1016B0001C2F1255BE01675A7C4FCE010E94AA0A08
:1016C0002196812F0E941C0BCA3581E0D80781F733
:1016D000DF91CF911F910895CF92DF92EF92FF9209
:1016E000CF93DF9300D000D000D0CDB7DEB76B0131
:1016F0007C010E947E0A80912C0490E0A0E0B0E082
:1017000089839A83AB83BC838AE090E09E838D8338
:10171000C701B6010E947E0A80912C0490E00A97CE
:101720001CF061E972E002C06CEB73E08EE795E0BB
:101730000E94BE15CE0101960E9416196AE30E940E
:10174000A215C701B6010E947E0A80912B0490E089
:10175000A0E0B0E089839A83AB83BC838AE090E009
:101760009E838D83C701B6010E947E0A80912B045F
:1017700090E00A971CF061E972E002C06CEB73E044
:101780008EE795E00E94BE15CE0101960E941619C3
:101790006AE30E94A215C701B6010E947E0A8091E9
:1017A0002A0490E0A0E0B0E089839A83AB83BC83F5
:1017B0008AE090E09E838D83C701B6010E947E0A75
:1017C00080912A0490E00A971CF061E972E002C05F
:1017D0006CEB73E08EE795E00E94BE15CE0101969A
:1017E0000E94161926960FB6F894DEBF0FBECDBF25
:1017F000DF91CF91FF90EF90DF90CF900895CF923F
:10180000DF92EF92FF92CF93DF9300D000D000D011
:10181000CDB7DEB76B017C010E947E0A80912E0459
:1018200090E0A0E0B0E089839A83AB83BC838AE038
:1018300090E09E838D83C701B6010E947E0A80914D
:101840002E0490E00A971CF061E972E002C06CEB94
:1018500073E08EE795E00E94BE15CE0101960E94CE
:1018600016196CE972E00E94BE15C701B6010E940C
:10187000A20A092E000CAA0BBB0B89839A83AB83A7
:10188000BC838AE090E09E838D83C701B6010E94ED
:101890007E0A20912F0483E0289F90011124A5EB5C
:1018A000B4E080E090E0FC01E20FF31FE25AF24F57
:1018B000E491ED93019683309105A9F71092B80455
:1018C00065EB74E08EE795E00E94BE156CE972E06E
:1018D0008EE795E00E94BE15CE0101960E94161972
:1018E00060E20E94A215C701B6010E947E0A8091A3
:1018F0002C0490E0A0E0B0E089839A83AB83BC83A2
:101900008AE090E09E838D83C701B6010E947E0A23
:1019100080912C0490E00A971CF061E972E002C00B
:101920006CEB73E08EE795E00E94BE15CE01019648
:101930000E9416196AE30E94A215C701B6010E940F
:101940007E0A80912B0490E0A0E0B0E089839A8326
:10195000AB83BC838AE090E09E838D83C701B60190
:101960000E947E0A80912B0490E00A971CF061E9A6
:1019700072E002C06CEB73E08EE795E00E94BE154A
:10198000CE0101960E9416196AE30E94A215C701B2
:10199000B6010E947E0A80912A0490E0A0E0B0E0A7
:1019A00089839A83AB83BC838AE090E09E838D8396
:1019B000C701B6010E947E0A80912A0490E00A972E
:1019C0001CF061E972E002C06CEB73E08EE795E019
:1019D0000E94BE15CE0101960E94161926960FB6DA
:1019E000F894DEBF0FBECDBFDF91CF91FF90EF9097
:1019F000DF90CF9008958F929F92AF92BF92CF9237
:101A0000DF92EF92FF921F93CF93DF93C0EAD1E072
:101A100010E080EAE82EF12CBE01C7010E94A10867
:101A20008AE0E80EF11C6AE070E080E090E00E943D
:101A300064166A817B818C819D810E94FF0BCE8020
:101A4000DF80A884B984888099808AE59FE00E941D
:101A50004F19812F0E9470198BE49FE00E944F194B
:101A6000C4010E94771983E49FE00E944F19C501C9
:101A70000E94771986E39FE00E944F19C6010E94D9
:101A8000771984E39FE00E944F191F5F2A96183050
:101A900019F6DF91CF911F91FF90EF90DF90CF90DB
:101AA000BF90AF909F908F9008957F928F929F925A
:101AB000AF92BF92CF92DF92EF92FF920F931F935C
:101AC000CF93DF93782EC0EFD1E000E010E080E507
:101AD000E82EF12C81E078120DC0BE01C7010E94F2
:101AE000A1088AE0E80EF11C6AE070E080E090E076
:101AF0000E9464166A817B818C819D810E94FF0B0C
:101B0000CE80DF80A884B9848880998089E29FE0B4
:101B10000E944F19C8010E9477198AE19FE00E9434
:101B20004F19C4010E94771982E19FE00E944F196A
:101B3000C5010E94771985E09FE00E944F19C601F8
:101B40000E94771983E09FE00E944F190F5F1F4F9B
:101B50002A960830110509F0BDCFDF91CF911F9172
:101B60000F91FF90EF90DF90CF90BF90AF909F903C
:101B70008F907F9008957F928F929F92AF92BF92A5
:101B8000CF92DF92EF92FF920F931F93CF93DF9349
:101B9000782EC0E5D1E000E010E0E12CF12C81E0EE
:101BA00078120DC0BE01C7010E94A1088AE0E80EAC
:101BB000F11C6AE070E080E090E00E9464166A81A7
:101BC0007B818C819D810E94FF0BCE80DF80A88469
:101BD000B984888099808BEF9EE00E944F19C801DC
:101BE0000E9477198CEE9EE00E944F19C4010E945A
:101BF000771984EE9EE00E944F19C5010E94771963
:101C00008BED9EE00E944F19C6010E94771989ED65
:101C10009EE00E944F190F5F1F4F2A960830110552
:101C200009F0BDCFDF91CF911F910F91FF90EF9001
:101C3000DF90CF90BF90AF909F908F907F9008954E
:101C4000EF92FF920F931F93CF93DF931F92CDB725
:101C5000DEB77C01FC0100811181C80169830E940B
:101C60008D2C6981681719F0C8010E94952CC70155
:101C70000F90DF91CF911F910F91FF90EF900895FA
:101C8000EF92FF920F931F93CF93DF9300D0CDB7C6
:101C9000DEB78C017B01FB0160819A838983CE01D1
:101CA00001960E94200EF70161810F5F1F4F1A837A
:101CB0000983CE0101960E94200EC7010F900F905C
:101CC000DF91CF911F910F91FF90EF900895AF9208
:101CD000BF92CF92DF92EF92FF920F931F93CF9319
:101CE000DF9300D0CDB7DEB78B016B0126E0C20ECB
:101CF000D11C7B015C01A61AB70A95012E0D3F1D70
:101D0000F70161917F013A832983CE0101960E94F8
:101D1000200EEC14FD0489F7C8010F900F90DF919D
:101D2000CF911F910F91FF90EF90DF90CF90BF90D8
:101D3000AF9008950F931F93CF93DF9300D0CDB74B
:101D4000DEB78B01FB0160819A838983CE01019606
:101D50000E94200EC8010F900F90DF91CF911F912C
:101D60000F91089581E08093310489E890E10E9409
:101D70004F1961E374E088ED91E00E949A0E8FE6BE
:101D800090E10E944F1988E590E10E944F1980E090
:101D900090E0FC01E051FE4F11821082FC01E05600
:101DA000FE4F118210820A968035910591F78FE3DC
:101DB00090E10E944F1961E087E00E94181661E0EF
:101DC00086E00E94181661E085E00E94181661E026
:101DD00084E00E94181684E290E10E944F1960E0AE
:101DE0008DE00E94181684E090E10E944F1981E076
:101DF0008093B3048BEF9FE00E944F190E94491813
:101E00000C94FF0BAF92BF92CF92DF92EF92FF92B2
:101E10000F931F93CF93DF9300D0CDB7DEB78B0125
:101E20006B0124E0C20ED11C7B015C01A61AB70A2B
:101E300095012E0D3F1DF70161917F013A832983A2
:101E4000CE0101960E94200EEC14FD0489F7C80112
:101E50000F900F90DF91CF911F910F91FF90EF9016
:101E6000DF90CF90BF90AF900895AF92BF92CF9286
:101E7000DF92EF92FF920F931F93CF93DF9300D0E7
:101E8000CDB7DEB78B016B012AE0C20ED11C7B01FE
:101E90005C01A61AB70A95012E0D3F1DF70161914D
:101EA0007F013A832983CE0101960E94200EEC1413
:101EB000FD0489F7C8010F900F90DF91CF911F911A
:101EC0000F91FF90EF90DF90CF90BF90AF9008956B
:101ED0002F923F924F925F926F927F928F929F923A
:101EE000AF92BF92CF92DF92EF92FF920F931F9328
:101EF000CF93DF93CDB7DEB72D970FB6F894DEBF43
:101F00000FBECDBF65E972E0CE0108960E948D1527
:101F10000E9449182B013C010E947E0A80912C04EA
:101F20008B83C301B2010E947E0A80912B048A83B5
:101F3000C301B2010E947E0A80912A04898323E3AF
:101F4000C22E24E0D22E06E314E0312C3AE5E32E33
:101F5000FF24F394BB24B394B601C7010E94C708C1
:101F600044E0E40EF11CF80131978081F601908184
:101F70009D83F801329790819E83825E8F83CE018C
:101F800001960E94ED086415750586059705F9F41C
:101F90008091B304811110C0C301B2010E94FF0BF4
:101FA0008CE19EE00E944F198AEE9DE00E944F193D
:101FB0008CEB9DE00E944F19F8018081811105C0D2
:101FC000B082B601C7010E94020F33243394F4E0BB
:101FD000CF0ED11C0C5F1F4F42EDE41641E0F4061A
:101FE00009F0BACFC301B2010E947E0A80912F048A
:101FF0008E83C301B2010E947E0A80912E048D83DC
:10200000C301B2010E94A20A825B8F8300E511E046
:102010008BEAC82E84E0D82EE12CF12C90E8A92E72
:10202000B12C2C2C8BEA94E0281AF60191906F01C8
:10203000C301B2010E947E0A292D30E080912D0457
:102040008150A50102C0559547958A95E2F7CA01CE
:1020500082239323892B91F1C301B2010E947E0A4E
:1020600090902F04F80162817381848195810E9490
:102070007E0A80912F04981221C0C301B2010E94F0
:102080007E0A90902E04F80162817381848195818B
:102090000E947E0A80912E04981210C0C301B201E2
:1020A0000E94A20A4C01F8016281738184819581AA
:1020B0000E94A20A8816990609F479C0FAE0EF0E88
:1020C000F11C065F1F4F40E5E416F10409F0A9CFAB
:1020D000CE0108960E948815311065C000E511E018
:1020E000F12CF801808591858336910509F054C063
:1020F00080819181019709F04FC00E944918F80131
:1021000082809380A480B580DC01CB018819990975
:10211000AA09BB094E97A105B105F0F582EA9EE038
:102120000E944F198BE99EE00E944F198F2D0E944B
:1021300070198FE89EE00E944F1981E89EE00E948E
:102140004F1988E79EE00E944F190E9449180E948B
:1021500049180E94FF0B1092B3041092310461E3FE
:1021600074E088ED91E00E949A0EF80182819381DB
:10217000A481B58180589E4AAE4FBF4F828393831E
:10218000A483B583B801C801805591400E94350FE2
:102190008AE49EE00E944F19F394065F1F4FF8E017
:1021A000FF129FCF41C081E08093B3043DC0F8018E
:1021B00062817381848195810E947E0A80912C04C2
:1021C0008B83F80162817381848195810E947E0AEC
:1021D00080912B048A83F8016281738184819581C7
:1021E0000E947E0A80912A048983CE0101960E9472
:1021F000ED08DC01CB0180589E4AAE4FBF4FF8017D
:1022000082839383A483B58385EB9DE00E944F195D
:10221000822D0E94701986E89DE00E944F19B80136
:10222000C7010E94350F4ACF2D960FB6F894DEBF36
:102230000FBECDBFDF91CF911F910F91FF90EF9017
:10224000DF90CF90BF90AF909F908F907F906F90D6
:102250005F904F903F902F9008958F929F92AF92F2
:10226000BF92CF92DF92EF92FF920F931F93CF9383
:10227000DF9300D0CDB7DEB7F0E5EF2EF1E0FF2E13
:10228000812CAAE79A2EA9E4AA2EAAE5BA2E00E08C
:1022900010E0F7011182108282829382A482B582BB
:1022A0001782168211861086B701C8010E94350F69
:1022B000065F1F4FFAE0EF0EF11C8FEF881A980AA5
:1022C000A80AB80A0035110521F770EFE72E71E072
:1022D000F72EEAE08E2E912CA12CB12CF701118261
:1022E000108282829382A482B5821782168211861E
:1022F0001086B701C8010E94350F065F1F4FFAE034
:10230000EF0EF11C003A110549F750EAE52E51E0B5
:10231000F52E6AE0862E912CA12CB12CF7011182AA
:10232000108282829382A482B582178216821186DD
:102330001086B701C8010E94350F065F1F4FFAE0F3
:10234000EF0EF11C003F110549F74AEFE42E43E080
:10235000F42EF701118210821282138214821582E8
:10236000B701C8010E94670E0A5F1F4FF6E0EF0E2B
:10237000F11C003281E0180761F73AECE32E33E0FC
:10238000F32EF701118210821282138214821582B9
:10239000B701C8010E94670E0A5F1F4FF6E0EF0EFB
:1023A000F11C003581E0180761F722E9E22E22E0F6
:1023B000F22EF70161917F011A830983CE01019604
:1023C0000E94200E0F5F1F4F0335F1E01F0789F7B2
:1023D0009BEAE92E94E0F92E02E511E0F701108264
:1023E000B701C8010E949A0E0F5F1F4FFFEFEF1A4F
:1023F000FF0A0A3581E0180789F783E3C82E84E0D5
:10240000D82EF12CF601F082C8018D5C9B4FFC01A7
:10241000E955F14010823196108231961082B60152
:10242000C8010E94020F0C5F1F4FF394F4E0CF0E1F
:10243000D11C8EE1F812E6CF81E090E09A83898387
:10244000BE016F5F7F4F87ED91E00E94400E1A82C0
:102450001982BE016F5F7F4F88ED91E00E94400EB0
:102460008DED9FE00E944F1981E00E94BB0D81E03D
:102470000E94550D0E94FB0C0E94530B0E94BE0A45
:1024800062E374E087ED91E00E94AA0A10913204A1
:102490008EEC9FE00E944F19812F0E9470198CECE6
:1024A0009FE00E944F1961E374E088ED91E00E9483
:1024B000AA0A109131048DEB9FE00E944F19812FE1
:1024C0000E9470198BEB9FE00E944F190F900F90A4
:1024D000DF91CF911F910F91FF90EF90DF90CF9000
:1024E000BF90AF909F908F900895CF92DF92EF9220
:1024F000FF920F931F93CF93DF936C017A018B01AF
:10250000C0E0D0E0CE15DF0589F0D8016D918D01D6
:10251000D601ED91FC910190F081E02DC601099565
:10252000892B11F47E0102C02196ECCFC701DF9107
:10253000CF911F910F91FF90EF90DF90CF90089572
:10254000FC01538D448D252F30E0842F90E0821BB9
:10255000930B541710F0CF96089501970895FC013E
:10256000918D828D981761F0828DDF01A80FB11DCA
:102570005D968C91928D9F5F9F73928F90E00895EE
:102580008FEF9FEF0895FC01918D828D981731F0A8
:10259000828DE80FF11D858D90E008958FEF9FEFFC
:1025A0000895FC01918D228D892F90E0805C9F4FD2
:1025B000821B91098F73992708958EE795E00E94F9
:1025C000D11221E0892B09F420E0822F0895FC012B
:1025D000848DDF01A80FB11DA35ABF4F2C91848DAC
:1025E00090E001968F739927848FA689B7892C93E1
:1025F000A089B1898C9180648C93938D848D98137C
:1026000006C00288F389E02D80818F7D8083089544
:10261000EF92FF920F931F93CF93DF93EC0181E032
:10262000888F9B8D8C8D981305C0E889F9898081EE
:1026300085FD24C0F62E0B8D10E00F5F1F4F0F732A
:102640001127E02E8C8DE8120CC00FB607FCFACFD4
:10265000E889F989808185FFF5CFCE010E94E712D4
:10266000F1CF8B8DFE01E80FF11DE35AFF4FF08291
:102670000B8FEA89FB898081806207C0EE89FF8920
:102680006083E889F98980818064808381E090E0BB
:10269000DF91CF911F910F91FF90EF900895CF930D
:1026A000DF93EC01888D8823C9F0EA89FB8980815A
:1026B00085FD05C0A889B9898C9186FD0FC00FB62C
:1026C00007FCF5CF808185FFF2CFA889B9898C916D
:1026D00085FFEDCFCE010E94E712E7CFDF91CF91CA
:1026E000089580E090E0892B29F00E94DD1281118D
:1026F0000C94000008953FB7F894809114059091D0
:102700001505A0911605B091170526B5A89B05C023
:102710002F3F19F00196A11DB11D3FBFBA2FA92F60
:10272000982F8827820F911DA11DB11DBC01CD01DD
:1027300042E0660F771F881F991F4A95D1F70895C9
:1027400085ED8093BC008091BC0084FDFCCF10928D
:102750001D0608954091EA04262F30E0240F311D14
:1027600021323105DCF420911D062430C9F4FC012E
:1027700080E090E0861758F43091EA042191DC0162
:10278000A853BB4FA30FB11D2C930196F3CF80919B
:10279000EA04680F6093EA0480E0089581E00895F8
:1027A00082E008950895E091210680912006E817BF
:1027B00030F4F0E0E85EFA4F808190E008958FEF0A
:1027C0009FEF08959091210680912006981750F46C
:1027D000E92FF0E0E85EFA4F208130E09F5F9093B0
:1027E000210602C02FEF3FEFC90108958091200616
:1027F00090E020912106821B91090895CF92DF92EB
:10280000EF92FF920F931F93CF93DF937C01262FBC
:10281000972F8A0180915C05882391F0C62FD72FCE
:102820006E01C40ED51ECC15DD0571F06991D7017E
:10283000ED91FC910190F081E02DC7010995F3CF56
:10284000642F822F0E94AA13C801DF91CF911F919C
:102850000F91FF90EF90DF90CF900895CF93DF938B
:102860001F92CDB7DEB7698320915C052223D1F09A
:1028700020911E06203240F021E030E0FC0133833D
:10288000228380E090E015C080911F06E82FF0E0E1
:10289000E35AFA4F998190838F5F80931F0680934C
:1028A0001E0605C061E0CE0101960E94AA1381E0D8
:1028B00090E00F90DF91CF910895089580E090E02F
:1028C0000895982F92959F702AEF929F800D112462
:1028D00008950E944F2FEF92FF920F931F93CF9373
:1028E000DF93EC017B018A0188819981009729F0AF
:1028F0002A813B8124173507F8F4B8016F5F7F4FB9
:102900000E94852E009759F0998388831B830A8340
:102910002C813D81232B81F4FC0110820DC0888124
:102920009981009711F00E94ED2D198218821D8265
:102930001C821B821A8207C01D830C83B701888109
:1029400099810E94712FCE01DF91CF911F910F913C
:10295000FF90EF900895CF93DF93CDB7DEB7279721
:102960000FB6F894DEBF0FBECDBF81E080935C054B
:1029700088E680937D0510921F0610921E0660E087
:1029800082E296E00E942E1481E00E94A71988231B
:1029900031F08093C70460E070E0CB013FC067E096
:1029A00088E60E94041A109221068093200682E293
:1029B00096E00E94E2138F770E946114898382E27D
:1029C00096E00E94E2130E9461148A8382E296E0FC
:1029D0000E94E2138F7B0E9461148B8382E296E057
:1029E0000E94E2138C8382E296E00E94E2130E942E
:1029F00061148D8382E296E00E94E2138F770E9439
:102A000061148E8382E296E00E94E2130E946114B8
:102A1000825E8F83CE0101960E94ED0827960FB645
:102A2000F894DEBF0FBECDBFDF91CF910895AF9276
:102A3000BF92CF92DF92EF92FF920F931F93CF93AB
:102A4000DF93FC0124813581FB014481558189019B
:102A5000041B150B4115510551F12115310539F1B3
:102A60002417350720F10217130718F089010150C8
:102A700011097B01FC01A080B180C501DFEFCFEF20
:102A80006501C00ED11EC816D906A0F0F7016081FD
:102A900071810E94782F009769F09C012A193B09E7
:102AA0000217130710F0D22FC32F0196ECCF8FEF30
:102AB0009FEF02C08D2F9C2FDF91CF911F910F911F
:102AC000FF90EF90DF90CF90BF90AF900895CF939D
:102AD000DF93EC016115710559F0FB0101900020B5
:102AE000E9F73197AF01461B570B0E946B140CC0DE
:102AF00088819981009711F00E94ED2D198218822A
:102B00001D821C821B821A82CE01DF91CF91089513
:102B1000FC01808191810C94ED2DFC0111821082C9
:102B200013821282158214826115710551F0FB0126
:102B300001900020E9F73197AF01461B570B0C9429
:102B40006B140895DC01ED91FC910190F081E02D72
:102B500009946115710579F0FB0101900020E9F7F6
:102B60003197AF01461B570BDC01ED91FC910280C0
:102B7000F381E02D099480E090E008950C94A9156C
:102B80001F920F920FB60F9211242F933F934F93E2
:102B90005F936F937F938F939F93AF93BF93EF93C5
:102BA000FF938EE795E00E94E712FF91EF91BF91AE
:102BB000AF919F918F917F916F915F914F913F91D5
:102BC0002F910F900FBE0F901F9018951F920F928C
:102BD0000FB60F9211242F938F939F93EF93FF9330
:102BE000E0918E05F0918F058081E0919405F09140
:102BF000950582FD12C09081809197058F5F8F733C
:102C000020919805821751F0E0919705F0E0E25885
:102C1000FA4F958F8093970501C08081FF91EF91C6
:102C20009F918F912F910F900FBE0F901F9018952D
:102C300090E0FC01E456FF4E3491FC01E852FF4E57
:102C40002491FC01EC53FF4EE491EE2309F43BC0C8
:102C5000332339F1333091F038F43130A9F0323088
:102C600001F584B58F7D12C0373091F03830A1F076
:102C70003430B9F4809180008F7D03C08091800052
:102C80008F77809380000DC084B58F7784BD09C095
:102C90008091B0008F7703C08091B0008F7D8093CA
:102CA000B000F0E0EE0FFF1FE055FF4EA591B4918C
:102CB0008FB7F894EC91611103C020952E2301C0C9
:102CC0002E2B2C938FBF08958F929F92AF92BF921D
:102CD000CF92DF92EF92FF926B017C010E947B13F7
:102CE0004B015C01C114D104E104F104F1F00E9434
:102CF0007B13DC01CB0188199909AA09BB09883E1D
:102D00009340A105B10570F321E0C21AD108E10892
:102D1000F10888EE880E83E0981EA11CB11CC11436
:102D2000D104E104F10419F7DDCFFF90EF90DF90BB
:102D3000CF90BF90AF909F908F9008952FB7F89449
:102D40006091100570911105809112059091130505
:102D50002FBF08951F920F920FB60F9211242F9339
:102D60003F938F939F93AF93BF9380911005909162
:102D70001105A0911205B091130530910F0523E0C4
:102D8000230F2D3720F40196A11DB11D05C026E8A3
:102D9000230F0296A11DB11D20930F0580931005EE
:102DA00090931105A0931205B0931305809114051B
:102DB00090911505A0911605B09117050196A11DDA
:102DC000B11D8093140590931505A0931605B0933B
:102DD0001705BF91AF919F918F913F912F910F90C8
:102DE0000FBE0F901F9018951F920F920FB60F9263
:102DF00011242F933F934F935F936F937F938F9300
:102E00009F93AF93BF93EF93FF938091B900887F17
:102E1000803609F49CC068F5883209F45BC090F4F0
:102E2000803109F454C038F4882309F4F6C088309E
:102E300009F44DC0F6C0883109F44CC0803209F461
:102E40005DC0EFC0803409F468C048F4803309F4F1
:102E500055C0883309F0E5C080935B05D8C0803544
:102E600009F44FC0883509F45DC0883409F0D9C031
:102E7000D6C0883909F4C7C0A8F4883709F467C0F8
:102E800038F4883609F463C0803709F460C0C9C0DB
:102E9000883809F4B8C0803909F45FC0803809F077
:102EA000C0C05BC0803B09F486C038F4803A09F4A6
:102EB00066C0883A09F47FC0B4C0803C09F4A7C05A
:102EC000883C09F4A4C0883B09F48AC0AAC0809158
:102ED000380510C090915A0580915905981770F5E2
:102EE000E0915A0581E08E0F80935A05F0E0E75C8F
:102EF000FA4F80818093BB0085EC86C080935B0590
:102F00008EC0E0915A0581E08E0F80935A05809122
:102F1000BB00F0E0E75CFA4F808390915A05809106
:102F200059056EC0E0915A0581E08E0F80935A05D5
:102F30008091BB00F0E0E75CFA4F808380911C0633
:102F400081116DC081E080931B0684EA61C083E03B
:102F500080931D0610920E05CFCF80910E05803212
:102F600008F051C0E0910E0581E08E0F80930E05B0
:102F70008091BB00F0E0E251FB4F8083BDCF85EC38
:102F80008093BC0010921D0680910E05803230F4B3
:102F9000E0910E05F0E0E251FB4F108260910E05CA
:102FA00070E0E091EC04F091ED048EEE94E0099570
:102FB00010920E0536C084E080931D061092EB043B
:102FC0001092EA04E091E804F091E90409958091F7
:102FD000EA04811105C081E08093EA041092C804DC
:102FE000E091EB0481E08E0F8093EB04F0E0E85376
:102FF000FB4F80818093BB009091EB048091EA04A9
:10300000981708F479CF85E88093BC000AC085EC56
:103010008093BC0010921D0604C010925B050E94B4
:10302000A013FF91EF91BF91AF919F918F917F91ED
:103030006F915F914F913F912F910F900FBE0F9025
:103040001F9018956093C2037093C3038093C403C9
:103050009093C503DC01CB01845D9E4FAF4FBF4F02
:103060008093BE039093BF03A093C003B093C103AA
:1030700082E090E09093C9038093C8030E949E165B
:103080006093C3047093C4048093C5049093C604F2
:103090000895CF92DF92EF92FF920F931F930E94B9
:1030A0009E16C090C304D090C404E090C504F09074
:1030B000C6048B019C010C191D092E093F09809142
:1030C000C2039091C303A091C403B091C503083E0D
:1030D000134021053105D0F00196A11DB11D80934B
:1030E000C2039093C303A093C403B093C503B70175
:1030F000A60148515C4F6F4F7F4F4093C3045093DC
:10310000C4046093C5047093C604C9CF4091BE0344
:103110005091BF036091C0037091C103841795075C
:10312000A607B70788F1E091C603F091C70330976F
:1031300059F10995611571058105910519F00E94F4
:10314000221822C08091C2039091C303A091C403AE
:10315000B091C503845D9E4FAF4FBF4F8093BE03B8
:103160009093BF03A093C003B093C10381E090E0AC
:103170002091C8033091C903232B11F480E090E023
:103180009093C9038093C8036091C2037091C303F5
:103190008091C4039091C5031F910F91FF90EF9010
:1031A000DF90CF9008958F929F92AF92BF920F932E
:1031B0001F93CF93DF93CDB7DEB7A1970FB6F894E7
:1031C000DEBF0FBECDBF19A2423008F44AE08E0127
:1031D0000F5D1F4F842E912CA12CB12CA5019401C1
:1031E0000E94142DE62FB901CA0101501109EA30DD
:1031F00014F4E05D01C0E95CD801EC93232B242B8F
:10320000252B61F7B8018EE795E00E94A915A196DC
:103210000FB6F894DEBF0FBECDBFDF91CF911F91E7
:103220000F91BF90AF909F908F900895CF92DF92B3
:10323000EF92FF92FC0144815581C080D180E280F1
:10324000F3804115510561F4E0917E05F0917F0511
:103250000190F081E02D6C2D8EE795E0099518C066
:103260004A30510589F4F7FE0EC06DE28EE795E015
:103270000E94A21566277727CB016C197D098E095C
:103280009F094AE003C04AE0C701B6010E94D31873
:103290008EE795E0FF90EF90DF90CF9008950F9329
:1032A0001F93CF93DF938C01C0E0D0E0F801EC0FC7
:1032B000FD1F6491662371F0E0917E05F0917F051A
:1032C0000190F081E02D8EE795E00995892B11F0B2
:1032D0002196ECCFCE01DF91CF911F910F910895F0
:1032E000682F70E080E090E04AE00C94D318CF9211
:1032F000DF92EF92FF92CF93DF936C01990FEE086C
:10330000FF08F7FE19C06DE28EE795E00E94A21556
:10331000EC0166277727CB016C197D098E099F097F
:103320004AE00E94D3188C0F9D1FDF91CF91FF9030
:10333000EF90DF90CF9008954AE0C701B601DF918A
:10334000CF91FF90EF90DF90CF900C94D318382F4F
:1033500020911E0690917D05213208F049C0809190
:103360001D068111FCCF42E040931D0630931C06E0
:103370003FEF30935B0510925A0520935905ADE558
:10338000B5E049E355E0FA013E2F341B321718F43B
:103390003D913193F9CF1092380520913805990F5E
:1033A000922B9093380590911B06913061F4109206
:1033B0001B06909138059093BB009091BC0093FD43
:1033C000F8CF95EC01C095EE9093BC0090911D064E
:1033D0009230E1F390915B059F3F79F080915B051E
:1033E000803241F080915B05803331F084E005C08C
:1033F00081E003C082E001C083E010921F061092BA
:103400001E0610925C05089590911D069111FCCF47
:1034100091E090931D0690931C062FEF20935B057F
:1034200010925A05260F20935905909338059091D4
:103430003805880F892B8093380580911B068130D1
:1034400061F410921B06809138058093BB00809137
:10345000BC0083FDF8CF85EC01C085EE8093BC00F5
:1034600080911D068130E1F380915A05861710F492
:1034700060915A05A9E3B5E028E135E0F9018E2F06
:10348000821B861718F48D918193F9CF862F0895AA
:1034900090E0FC01E852FF4E2491FC01EC53FF4EFA
:1034A0008491882399F090E0880F991FFC01E654DD
:1034B000FF4EA591B491FC01E055FF4E859194918A
:1034C0008FB7F894EC91E22BEC938FBF0895CF93D4
:1034D000DF93CDB7DEB7CF54D1090FB6F894DEBF76
:1034E0000FBECDBF789484B5826084BD84B5816001
:1034F00084BD85B5826085BD85B5816085BD8091BF
:103500006E00816080936E00109281008091810036
:10351000826080938100809181008160809381002E
:10352000809180008160809380008091B1008460F0
:103530008093B1008091B00081608093B000809151
:103540007A00846080937A0080917A008260809310
:103550007A0080917A00816080937A0080917A006D
:10356000806880937A001092C10081E491E4A0E029
:1035700022968DAF9EAFAFAF22978DE00E94481A82
:1035800087E00E94481A86E00E94481A85E00E945F
:10359000481A84E00E94481AE0918E05F0918F0548
:1035A00082E08083E0918A05F0918B051082E091A2
:1035B0008C05F0918D0580E1808310929605E09155
:1035C0009205F091930586E08083E0919005F0915B
:1035D0009105808180618083E0919005F091910553
:1035E000808188608083E0919005F09191058081D1
:1035F00080688083E0919005F091910580818F7DB6
:1036000080830E944918C090C203D090C303E09009
:10361000C403F090C5032BEA34E13093C703209331
:10362000C603C092BE03D092BF03E092C003F092E3
:10363000C103672B682B692B29F40E944918DD24EC
:10364000D39403C00E944918D12C0E94491880913C
:10365000C8039091C903029759F08CE492E00E944C
:103660004F196FE872E08EE795E00E94A91518C027
:1036700080E392E00E944F196FE872E08EE795E0D8
:103680000E94A91587E292E00E944F190E944918F2
:103690000E94FF0B60E972E08EE795E00E94BE1584
:1036A000BE01615C7F4F80E591E00E94B40A6FE348
:1036B00070E06C0F7D1F6F5F7F4F81E591E00E948E
:1036C000B40ABE01615C7F4FCE0101960E948D1548
:1036D0008D819E81892B49F062E972E089819A810E
:1036E0000E94682F11E0892B09F010E0CE010196AD
:1036F0000E948815112309F45BC0BE01615C7F4FF5
:10370000CE0101960E948D1580E090E00E9477190D
:1037100085E292E00E944F194D815E8169817A8134
:103720008EE795E00E94751288E092E00E944F19A2
:10373000CE0101960E94881581EF91E00E944F19F9
:1037400081E00E94BB0D81E00E94550D0E94FB0CA0
:103750000E94530B0E94BE0A62E374E087ED91E081
:103760000E94AA0A1091320482EE91E00E944F1941
:10377000812F0E94701980EE91E00E944F1961E341
:1037800074E088ED91E00E94AA0A1091310481ED65
:1037900091E00E944F19812F0E9470198FEC91E0E7
:1037A0000E944F196AEFE62E63E0F62E10E003C088
:1037B0000E942D11F7CFD70112966D917D918D91B9
:1037C0009C9115970E94FF0BF701A080B1808AEBB6
:1037D00091E00E944F19812F0E9470198BEA91E0AD
:1037E0000E944F19C5010E94771989EA91E00E9451
:1037F0004F191F5FF6E0EF0EF11C1830E1F65AEC9E
:10380000E52E53E0F52E10E0D70112966D917D91D3
:103810008D919C9115970E94FF0BF701A080B180BC
:1038200083E991E00E944F19812F0E94701984E86A
:1038300091E00E944F19C5010E94771982E891E03A
:103840000E944F191F5FF6E0EF0EF11C1830E1F6F1
:1038500006E512E044E0F42EF00E61E0D8018D910F
:103860008D010E9418166AEF70E080E090E00E94DF
:103870006416F012F2CFDD2009F492C180E491E0E9
:103880000E944F1980E1E6E4F2E0DE01919601909A
:103890000D928A95E1F761E374E088ED91E00E9472
:1038A000AA0A1091310411116DC11092B3040E9443
:1038B00049186B017C010E947E0A80912F048EAB17
:1038C000C701B6010E947E0A80912E048DABC7010C
:1038D000B6010E94A20A825B8FAB7E01B8E3EB0EB9
:1038E000F11C03ED11E0C8010E948D2CF7018193BA
:1038F0007F010F5F1F4F073DF1E01F07A1F78CE22B
:1039000091E00E944F1968AD79AD8AAD9BAD0E94E0
:10391000FF0B8AE291E00E944F199E012F5F3F4FFB
:103920007901690100E010E0F801E05BFE4F828060
:103930009380A480B580C501B4010E947E0A809165
:103940002C048BABC501B4010E947E0A80912B042C
:103950008AABC501B4010E947E0A80912A0489AB1A
:10396000CE01C1960E94ED08F801E050FF4F62833E
:10397000738384839583D6016D937D938D939D93FB
:103980006D01F801E051FE4F11821082F801E056FE
:10399000FE4F11821082065F1F4F0035110521F680
:1039A00087E090E0FE01319620E030E028173907EB
:1039B000DCF4419151916191719180809180A2805C
:1039C000B38084169506A606B70658F4DF0114974F
:1039D0008D929D92AD92BC921397408351836283E6
:1039E00073832F5F3F4FE2CF0197E1F6FE01B1965F
:1039F0009F01D7014D915D916D917D917D01A0E079
:103A0000B1E080E090E012968D909D90AD90BC90DA
:103A10001597481559056A057B0511F49183808334
:103A200001961A968830910571F73296E216F306E0
:103A300001F7FE01F1967F0196E0C92ED12C2AE014
:103A4000B22E30E8632E712CD7019E908E907D01AE
:103A5000B89C8001B99C100D1124F801E050FF4F73
:103A600022803380448055800E94491826163706EC
:103A70004806590608F07CC0005B1E4FF80180859F
:103A800091858835910589F40E94680F8AE0889DA8
:103A9000F001899DF00D1124E05BFE4F808591853A
:103AA0000E94771985E191E079C08336910561F331
:103AB0004080518087E091E00E944F19C4010E942C
:103AC00077198DEF90E00E944F19C2010E9477197B
:103AD0008BEF90E00E944F19F8016281738184811D
:103AE00095810E94FF0BD8018D919C9111970197B0
:103AF000D9F518968D919C911997B89EF001B99EB1
:103B0000F00D1124E051FE4F46805780B1E04B1676
:103B1000510451F5F601E555FB4F8180912C0E942F
:103B200049180E947E0A80912D048150F30102C041
:103B3000F595E7958A95E2F78E229F22892819F05C
:103B40008BED90E013C0D80118968D919C91199738
:103B5000B89EF001B99EF00D1124E051FE4F518244
:103B6000408285EC90E002C084E990E00E944F1909
:103B7000B1E0CB1AD108EEEFCE16EFEFDE0609F07A
:103B800063CF0EC081E08093B30485E890E00E948B
:103B90004F19812F0E94701988E690E00E944F19FA
:103BA0008091B304811147C300E511E0C12CD12CF1
:103BB000312CD8018D919C911197019709F0FBC090
:103BC00018968D919C911997CC970CF0F4C0809128
:103BD000B3048111F0C00E944918F801428053805B
:103BE00064807580461A570A680A790A0E94491843
:103BF0004B015C010E947E0A80912F048E83C501D7
:103C0000B4010E947E0A80912E048D83C501B40107
:103C10000E94A20A825B8F83C501B4010E947E0AC2
:103C200080912C048B83C501B4010E947E0A80918F
:103C30002B048A83C501B4010E947E0A80912A0464
:103C4000898380E5E82E81E0F82E2BEA34E02D967A
:103C50003FAF2EAF2D97A12CB12C2C962FAD2C97CA
:103C60004BEA54E0241B2E962FAF2E972D96AEAD27
:103C7000BFAD2D979D902D96BFAFAEAF2D970E94F3
:103C800049180E947E0A292D30E080912D04815030
:103C9000E0E8F0E002C0F595E7958A95E2F7CF01FC
:103CA00082239323892BB9F10E9449180E947E0A2E
:103CB00090902F04D70112966D917D918D919C91DA
:103CC00015970E947E0A80912F04981224C00E94AA
:103CD00049180E947E0A90902E04F7016281738138
:103CE000848195810E947E0A80912E04981213C0CF
:103CF0000E9449180E94A20A4C01D70112966D91A8
:103D00007D918D919C9115970E94A20A8816990623
:103D100011F40C94372BBAE0AB0EB11CEAE0EE0EB6
:103D2000F11CF0E5AF16B10409F097CF22E142167D
:103D300051046104710408F08EC08EE094E00E948A
:103D40004F194AE0C301B2010E94D31889E094E000
:103D50000E944F1982E094E00E944F19832D0E9427
:103D6000701986EF93E00E944F19D80118968D9133
:103D70009C9119972AE0289FF001299FF00D1124AA
:103D8000E051FE4F8D919C91119791838083129603
:103D90008D919D910D90BC91A02D80589E4AAE4F63
:103DA000BF4FF80182839383A483B583B801C60112
:103DB0000E94350F50C00E944918D80112964D90AC
:103DC0005D906D907C90159753014201861A970A79
:103DD000A80AB90ABAE08B169104A104B104D8F577
:103DE000F8012081318121303105A9F52085318507
:103DF0002835310581F5D301C20180589E4AAE4F66
:103E0000BF4F82839383A483B583B801C6010E9408
:103E1000350F89EC93E00E944F1982EC93E00E94E9
:103E20004F19832D0E94701986EB93E00E944F1961
:103E300083EB93E00E944F194AE0C501B4010E9450
:103E4000D3188EEA93E00E944F190E94B20E80E8C8
:103E500093E00E944F193394065F1F4FFAE0CF0E94
:103E6000D11C20E5C216D10409F0A3CEE0EFAE2E9E
:103E7000E1E0BE2EF0EAEF2EF1E0FF2EAFE48A2E55
:103E8000A6E09A2EBAEC2B2EB3E03B2E37011AEFA8
:103E9000C12E13E0D12E85012C961FAE2C97D80190
:103EA0008D919C911197019709F0B8C08091B3044E
:103EB0008111B4C01896ED91FC911997EA5AFD4F03
:103EC00060E080810E9418160E949E16F4012081F5
:103ED000318142815381DC01CB01821B930BA40B06
:103EE000B50B893E9340A105B10508F497C0F601D2
:103EF00082819381A481B5810196A11DB11D828328
:103F00009383A483B583809132048130A9F5D801CD
:103F100018964D905C901997F201EA5AFD4F208156
:103F200086E793E060962FAF60970E944F192C961A
:103F30008FAD2C970E9470198BE693E00E944F1969
:103F4000C2010E94771989E693E00E944F1960969A
:103F50002FAD6097822F0E94701987E693E00E9430
:103F60004F19F60162817381848195810E946C0BE7
:103F700080E493E00E944F190E949E16D4016D9335
:103F80007D938D939C931397F601428153816481B5
:103F90007581F80182819381A481B5814817590701
:103FA0006A077B07D8F14084518480E393E00E9444
:103FB0004F192C968FAD2C970E94701988E193E0D1
:103FC0000E944F19C2010E94771986E193E00E9476
:103FD0004F19D60112966D917D918D919C911597F7
:103FE0000E946C0B80E193E00E944F19F80111824E
:103FF0001082E1E0F0E0D301ED93FC93D801189634
:10400000ED91FC911997EA5AFD4F61E080810E9481
:104010001816F10112821382148215822C962FAD8C
:104020002C972F5F2C962FAF2C97065F1F4F36E0F3
:10403000C30ED11C4AE0640E711C56E0250E311CE3
:1040400084E0880E911C283009F029CF6FE2C62E3B
:1040500066E0D62E0AEC13E07AEF872E73E0972EF7
:10406000512CD7018D919C911197019709F0A8C00F
:104070008091B3048111A4C01896ED91FC91199719
:10408000EA5AFD4F61E080810E9418160E949E1638
:10409000F6012081318142815381DC01CB01821BF9
:1040A000930BA40BB50B893E9340A105B10508F411
:1040B00087C0F80182819381A481B5810196A11DF9
:1040C000B11D82839383A483B583809132048130B0
:1040D00069F5D70118966D907C901997F301EA5A0B
:1040E000FD4F408085E093E00E944F19852D0E948E
:1040F00070198AEF92E00E944F19C3010E9477194C
:1041000088EF92E00E944F19842D0E94701986EF6B
:1041100092E00E944F19F801628173818481958138
:104120000E946C0B8FEC92E00E944F190E949E1629
:10413000D6016D937D938D939C931397F8014281E3
:10414000538164817581F70182819381A481B58156
:10415000481759076A077B0798F1608471848FEBD1
:1041600092E00E944F19852D0E94701986EA92E014
:104170000E944F19C3010E94771984EA92E00E94BD
:104180004F19D80112966D917D918D919C91159743
:104190000E946C0B8EE992E00E944F19F701118288
:1041A0001082D50116968D919C91179781309105BB
:1041B00039F48D939C93F401128213821482158238
:1041C0005394FAE0EF0EF11C2AE0A20EB11C36E087
:1041D000830E911C0A5F1F4F44E0C40ED11C58E0AF
:1041E00055123FCF0E949E160091730610917406DF
:1041F0002091750630917606DC01CB01801B910B76
:10420000A20BB30B893E9340A105B105B0F06091BC
:10421000B40481E068276093B4048DE00E9418160E
:104220000E949E16609373067093740680937506C1
:104230009093760602C00E94680F9E012F5F3F4F49
:10424000790100E010E00E949E166093860570934D
:1042500087058093880590938905E0917E05F0910C
:104260007F050284F385E02D8EE795E0099597FDA3
:1042700009C0D7018D937D010F5F1F4F0E311105CE
:1042800011F71DC00E949E168090860590908705AC
:10429000A0908805B0908905DC01CB0188199909A7
:1042A000AA09BB098090820590908305A09084059F
:1042B000B090850588159905AA05BB0570F2E1E067
:1042C000F0E0EC0FFD1FE00FF11F108261E972E0DA
:1042D000CE018B5B9F4F0E948D1565E972E0CE0188
:1042E000CF960E948D156EE972E0CE0101960E9474
:1042F0004D2C7C01BC01CE018B5B9F4F0E9467154A
:104300002796CEACDFAC2797C114D10409F444C082
:104310002B960EAD1FAD2B9701151105E9F1460146
:104320005401BFEF8B1A9B0AF5018081082E000C07
:10433000990B0E94812C892B99F7015011090C0DC2
:104340001D1DD8018C91082E000C990B0E94812C08
:10435000892B89F40F5F1F4FA8014A195B092B961F
:104360005FAF4EAF2B97CA14DB0458F4B501C601FA
:104370000E945F2F06C00A151B0560F3015011094A
:10438000E0CF2796EEADFFAD27972B968EAD9FAD74
:104390002B97E80FF91F108262EA72E0CE01819636
:1043A0000E948D15BE016F5D7F4FCE018B5B9F4FCD
:1043B0000E9417158C01CE0181960E94881517FD69
:1043C0000EC088E49DE00E944F190E9449180E9487
:1043D000FF0B86E49DE00E944F1901E001C000E060
:1043E0006AEA72E0CE0181960E948D15BE016F5D72
:1043F0007F4FCE018B5B9F4F0E9417156C01CE0142
:1044000081960E94881510E0D7FCFCC0E114F104ED
:1044100001F16EE972E080E090E00E944D2C7C0199
:104420000E942F2CFE013196E10FF11DE10FF11DCD
:1044300091A380A30E94771982E49DE00E944F1906
:10444000812F0E94701980E49DE00E944F191F5F28
:10445000DDCF8DA18CAF8BA18DAF89A1825B8EAF9B
:104460008FA18AAF89A589AF8BA588AFCE01C896E9
:104470000E94ED084B015C01AE014F5C5F4F0E9452
:10448000AD09CC24C394C0925C0558E6D52ED092D9
:104490007D0510921F0610921E0660E082E296E0F3
:1044A0000E942E1429A90AE0822F602F0E94F42C6A
:1044B000682F660F860F682F660F620F82E296E004
:1044C0000E942E142AA9822F602F0E94F42C682F9C
:1044D000660F860F682F660F620F82E296E00E94D9
:1044E0002E142BA9822F602F0E94F42C682F660FA8
:1044F000860F682F660F620F82E296E00E942E14EC
:104500006CA982E296E00E942E142DA9822F602FC2
:104510000E94F42C682F660F860F682F660F620FBB
:1045200082E296E00E942E142EA9822F602F0E9414
:10453000F42C682F660F860F682F660F620F82E2D9
:1045400096E00E942E142FA92E51822F602F0E94D8
:10455000F42C682F660F860F880F682F620F82E297
:1045600096E00E942E1481E00E94A719C0925C057B
:10457000D0927D0510921F0610921E066FE082E217
:1045800096E00E942E1481E00E94A71981110FC0AD
:1045900061E088E60E94041A1092210680932006AA
:1045A00082E296E00E94E2132F968FAF2F9781E070
:1045B00080935C0588E680937D0510921F0610921B
:1045C0001E066FE082E296E00E942E142F966FADD9
:1045D0002F976F7782E296E00E942E1481E00E946E
:1045E000A719C501B4010E9422188FE29DE00E9424
:1045F0004F19C501B4010E94FF0B8DE29DE00E949E
:104600004F1901E062EB72E0CE01C1960E948D1558
:10461000BE016F5C7F4FCE018B5B9F4F0E941715D1
:104620006C01CE01C1960E948815D7FC91C0E1149F
:10463000F10499F06EE972E080E090E00E944D2C68
:104640007C010E942F2CFE013196E10FF11DE10F3C
:10465000F11D91A380A31F5FEACF89A09AA08AE0F1
:10466000889D5001899DB00C1124F501E051FE4F49
:104670006F0189A59AA5978386838BA59CA59187B1
:1046800080871182108281E08CAF8DAF1EAE8BA12E
:104690008AAF8DA189AF8FA188AFCE01C8960E9445
:1046A000ED08D60112966D937D938D939C9315978B
:1046B000B0E5AB0EB11CB601C5010E94350F8FEFFE
:1046C0009CE00E944F1984EF9CE00E944F19C401A6
:1046D0000E9477198BEE9CE00E944F19F6016281CF
:1046E0007381848195810E946C0BD60116968D9002
:1046F0009C90179718966D907C901997CD90DC90B0
:1047000082EE9CE00E944F19C6010E9477198AED43
:104710009CE00E944F19C3010E9477198DEC9CE028
:104720000E944F19C4010E94771983EB9CE00E94FC
:104730004F19C5010E94771981EB9CE00E944F1927
:1047400080E00E94550D83E89CE00E944F1901E033
:104750006DEB72E0CE01C1960E948D15BE016F5CBB
:104760007F4FCE018B5B9F4F0E9417156C01CE01CE
:10477000C1960E948815D7FC96C0E114F10499F007
:104780006EE972E080E090E00E944D2C7C010E9476
:104790002F2CFE013196E10FF11DE10FF11D91A3C8
:1047A00080A31F5FEACF89A09AA08AE0889D50016C
:1047B000899DB00C1124F501E056FE4F6F0189A5CB
:1047C0009AA5978386838BA59CA591878087118264
:1047D000108281E08CAF8DAF1EAE8BA18AAF8DA110
:1047E00089AF8FA188AFCE01C8960E94ED08D6018F
:1047F00012966D937D938D939C931597B0EAAB0EB3
:10480000B11CB601C5010E94350F6AE070E080E07E
:1048100090E00E94641685E59CE00E944F1989E4AF
:104820009CE00E944F19C4010E94771980E49CE02B
:104830000E944F19F60162817381848195810E94E3
:104840006C0BD60116968D909C90179718966D90CC
:104850007C901997CD90DC9087E39CE00E944F19E3
:10486000C6010E9477198FE29CE00E944F19C30194
:104870000E94771982E29CE00E944F19C4010E94B5
:10488000771988E09CE00E944F19C5010E947719B2
:1048900086E09CE00E944F190E94FB0C88ED9BE093
:1048A0000E944F1901E069EC72E0CE01C1960E94AE
:1048B0008D15BE016F5C7F4FCE018B5B9F4F0E94B9
:1048C00017156C01CE01C1960E948815D7FCA6C0B1
:1048D000E114F10499F06EE972E080E090E00E944A
:1048E0004D2C7C010E942F2CFE013196E10FF11D11
:1048F000E10FF11D91A380A31F5FEACF89A09AA0C9
:104900008AE0889D5001899DB00C1124F501E05B7F
:10491000FE4F6F0189A59AA5978386838BA59CA5D9
:1049200091878087118210820E9449182B013C01D7
:104930000E947E0A80912F048DAFC301B2010E94B4
:104940007E0A80912E048CAFC301B2010E94A20A9C
:10495000825B8EAF8BA18AAF8DA189AF8FA188AF0B
:10496000CE01C8960E94ED08D60112966D937D93F4
:104970008D939C931597B601C5010E94350F6AE08F
:1049800070E080E090E00E9464168AEA9BE00E945A
:104990004F1982EA9BE00E944F19C4010E947719C7
:1049A00089E99BE00E944F19F6016281738184813D
:1049B00095810E946C0BD60116968D909C9017974E
:1049C00018966D907C901997CD90DC9080E99BE0D3
:1049D0000E944F19C6010E94771985E89BE00E944A
:1049E0004F19C3010E9477198CE79BE00E944F1971
:1049F000C4010E94771982E69BE00E944F19C5010D
:104A00000E94771980E69BE00E944F1981E00E9486
:104A1000BB0D82E39BE00E944F1901E062ED72E062
:104A2000CE01C1960E948D15BE016F5C7F4FCE01F5
:104A30008B5B9F4F0E9417156C01CE01C1960E949F
:104A40008815D7FC86C0E114F10499F06EE972E094
:104A500080E090E00E944D2C7C010E942F2CFE01F2
:104A60003196E10FF11DE10FF11D91A380A31F5FAE
:104A7000EACF89A09AA02AE0289DC001299D900D27
:104A80001124FC01E051FE4F6F012BA13CA13183A9
:104A900020835C01F0E5AF0EB11CB601C5010E9498
:104AA000350F6AE070E080E090E00E94641684E0D8
:104AB0009BE00E944F196BED72E08EE795E00E943B
:104AC000BE15C4010E94771963EE72E08EE795E08F
:104AD0000E94BE15D60112966D917D918D919C918B
:104AE00015970E946C0BF601868097806084718414
:104AF000C080D1806CEE72E08EE795E00E94BE151A
:104B0000C6010E94771965EF72E08EE795E00E947A
:104B1000BE15C3010E94771960E073E08EE795E04F
:104B20000E94BE15C4010E94771969E073E08EE708
:104B300095E00E94BE15C5010E94771960E972E0F8
:104B40008EE795E00E94BE1586ED9AE00E944F190F
:104B500001E063E273E0CE01C1960E948D15BE01B3
:104B60006F5C7F4FCE018B5B9F4F0E9417156C01CE
:104B7000CE01C1960E948815D7FC7DC0E114F104D6
:104B800099F06EE972E080E090E00E944D2C7C018B
:104B90000E942F2CFE013196E10FF11DE10FF11D56
:104BA00091A380A31F5FEACF89A09AA02AE0289D45
:104BB000C001299D900D11249C0120563E4F690192
:104BC0002BA13CA1D6012D933C935C01B0E5AB0E2B
:104BD000B11CB601C5010E94350F6AE070E080E0AB
:104BE00090E00E94641688EA9AE00E944F198CE9CE
:104BF0009AE00E944F19C4010E94771983E99AE054
:104C00000E944F19F60162817381848195810E940F
:104C10006C0BD60116968D909C90179718966D90F8
:104C20007C901997CD90DC908AE89AE00E944F1909
:104C3000C6010E9477198FE79AE00E944F19C301BD
:104C40000E94771986E79AE00E944F19C4010E94DA
:104C500077198CE59AE00E944F19C5010E947719D7
:104C60008AE59AE00E944F190E94FB0C8CE29AE0C0
:104C70000E944F1901E06FE273E0CE01C1960E94DD
:104C80008D15BE016F5C7F4FCE018B5B9F4F0E94E5
:104C900017156C01CE01C1960E948815D7FC77C00C
:104CA000E114F10499F06EE972E080E090E00E9476
:104CB0004D2C7C010E942F2CFE013196E10FF11D3D
:104CC000E10FF11D91A380A31F5FEACF89A09AA0F5
:104CD0008AE0889D5001899DB00C1124F501E05BAC
:104CE000FE4F6F018BA19CA191838083BF01C50101
:104CF0000E94350F6AE070E080E090E00E94641648
:104D00008EEF99E00E944F1986EF99E00E944F19AB
:104D1000C4010E9477198DEE99E00E944F19D601C7
:104D200012966D917D918D919C9115970E946C0BBF
:104D3000F6018680978060847184C080D18084EE83
:104D400099E00E944F19C6010E94771989ED99E0F8
:104D50000E944F19C3010E94771980ED99E00E94CB
:104D60004F19C4010E94771986EB99E00E944F19F0
:104D7000C5010E94771984EB99E00E944F1981E0E8
:104D80000E94BB0D86E899E00E944F1901E068E39C
:104D900073E0CE01C1960E948D15BE016F5C7F4FFE
:104DA000CE018B5B9F4F0E9417156C01CE01C196FF
:104DB0000E948815D7FC44C0E114F10499F06EE913
:104DC00072E080E090E00E944D2C7C010E942F2C2C
:104DD000FE013196E10FF11DE10FF11D91A380A3BA
:104DE0001F5FEACF0BA1CCA0E9A1FAA1EA5AFD4FBF
:104DF000D080602F8D2D0E94181688E599E00E94C2
:104E00004F1989E499E00E944F19812F0E9470196F
:104E100082E499E00E944F198D2D0E94701984E35D
:104E200099E00E944F19802F9C2D0E94771982E3F0
:104E300099E00E944F1984E099E00E944F1901E027
:104E400061E473E0CE01C1960E948D15BE016F5CD6
:104E50007F4FCE018B5B9F4F0E9417156C01CE01D7
:104E6000C1960E948815D7FCF8C086ED98E00E9494
:104E70004F196EE972E080E090E00E944D2C7C01B9
:104E8000DC018C91082E000C990BC0970A9708F052
:104E9000C9C0C7010E942F2C5C019AA389A30AE014
:104EA0000A9DC0010B9D900D1124FC01E05BFE4F9B
:104EB0006F0162817381848195810E94FF0BD6010D
:104EC00016968D909C90179718966D907C901997D8
:104ED0004D905C908BEC98E00E944F19C5010E94A8
:104EE00077198CEB98E00E944F19C2010E94771944
:104EF00084EB98E00E944F19C3010E9477198BEA56
:104F000098E00E944F19C4010E94771989EA98E03D
:104F10000E944F19F60180859185089FF001099F35
:104F2000F00D1124E051FE4F6281738184819581DF
:104F30000E946C0BD60118962D903C901997029DFB
:104F4000F001039DF00D1124E051FE4F8680978003
:104F500060847184408051808BE998E00E944F19F1
:104F6000C1010E9477198CE898E00E944F19C20194
:104F70000E94771984E898E00E944F19C3010E94AB
:104F8000771987E798E00E944F19C4010E947719AA
:104F900085E798E00E944F19F60180859185089F6A
:104FA000F001099FF00D1124E056FE4F62817381DC
:104FB000848195810E946C0BD6011896CD90DC906F
:104FC00019970C9DF0010D9DF00D1124E056FE4F38
:104FD00086809780608471844080518086E698E066
:104FE0000E944F19C6010E94771987E598E00E9438
:104FF0004F19C2010E9477198FE498E00E944F195F
:10500000C3010E94771982E498E00E944F19C401FD
:105010000E94771980E498E00E944F198A2D0E941F
:105020001C0B16C080E00E94BB0D83E198E00E943B
:105030004F1980E00E94550D86EE97E00E944F19AF
:105040000E94FB0C89EB97E00E944F190E94530BC2
:105050008BE897E00E944F1901E06FE473E0CE0106
:10506000C1960E948D15BE016F5C7F4FCE018B5B98
:105070009F4F0E9417156C01CE01C1960E948815A2
:10508000D7FC29C0E114F10499F06EE972E080E0E8
:1050900090E00E944D2C7C010E942F2CFE01319645
:1050A000E10FF11DE10FF11D91A380A31F5FEACF76
:1050B0008DE597E00E944F1984E497E00E944F1914
:1050C0000E942D1181E397E00E944F1983E097E041
:1050D0000E944F1901E064E673E0CE01C1960E9480
:1050E0008D15BE016F5C7F4FCE018B5B9F4F0E9481
:1050F00017156C01CE01C1960E948815D7FC17C008
:105100006BE18EE795E00E9408136AE673E08EE794
:1051100095E00E94BE156BE18EE795E00E940813B2
:105120006EE673E08EE795E00E94BE1501E061E750
:1051300073E0CE01C1960E948D15BE016F5C7F4F5A
:10514000CE018B5B9F4F0E9417156C01CE01C1965B
:105150000E948815D7FC9BC0E114F10421F16EE98F
:1051600072E080E090E00E944D2C7C01FC01808187
:10517000082E000C990B0E94572F892B39F0B7018C
:10518000CE018B5B9F4F0E9467150BC0C7010E9429
:105190002F2CFE013196E10FF11DE10FF11D91A3BE
:1051A00080A31F5FD9CF8DA19EA1A9A0BAA0BE01E7
:1051B0006B5B7F4F019799F4CE01CF960E94171534
:1051C000F501E555FB4F20E830E002C03595279505
:1051D0008A95E2F7C9019081892B808320C0CE0196
:1051E000CF960E941715F501E555FB4FAC014750CE
:1051F0005109477055272EEF30E0B90102C075956F
:1052000067954A95E2F747E050E0481B590B01C00B
:10521000220F4A95EAF7262B608126232083A501D9
:1052200045555B4F6A01BA01C5018E5A9E4F0E94D7
:105230009A0E85ED96E00E944F198CEB96E00E9445
:105240004F19C5010E9477198FEA96E00E944F1905
:1052500035E9A32E32E0B32E00E040E8942ED601CB
:105260008C91892119F0F501608101C06FE58EE70D
:1052700095E00E94A2150F5F9694FFEFAF1ABF0A48
:10528000083069F781E896E00E944F1901E06FE766
:1052900073E0CE01C1960E948D15BE016F5C7F4FF9
:1052A000CE018B5B9F4F0E9417156C01CE01C196FA
:1052B0000E948815D7FC22C083E596E00E944F1912
:1052C0006EE972E080E090E00E944D2C7C01DC01F0
:1052D0008C91082E000C990BC0970A9740F4C701D7
:1052E0000E942F2C89A39AA30E941C0B02C00E942B
:1052F000530B85E296E00E944F1901E061E973E0EB
:10530000CE01C1960E948D15BE016F5C7F4FCE010C
:105310008B5B9F4F0E9417156C01CE01C1960E94B6
:105320008815D7FC69C0E114F10499F06EE972E0C8
:1053300080E090E00E944D2C7C010E942F2CFE0109
:105340003196E10FF11DE10FF11D91A380A31F5FC5
:10535000EACFA9A0BAA0C501880F991F880F991F8D
:10536000FC01ED5CFB4F2BA120832DA121832FA1FC
:10537000228321E039A5311101C020E02383FC0103
:10538000ED5CFB4F6F01BF018AE591E00E94020FC7
:10539000D60113960C91139712969C901297119622
:1053A0008C901197DC908BE196E00E944F19C5011B
:1053B0000E94771982E196E00E944F198D2D0E947C
:1053C000701980E196E00E944F19882D0E94701993
:1053D0008EE096E00E944F19892D0E9470198AEF85
:1053E00095E00E944F19802F90E00E94771988EF76
:1053F00095E00E944F1901E06CE973E0CE01C1967F
:105400000E948D15BE016F5C7F4FCE018B5B9F4F5D
:105410000E9417156C01CE01C1960E948815D7FC19
:105420000BC08AEC95E00E944F190E94BE0A8CE9DD
:1054300095E00E944F1901E06CEA73E0CE01C1963D
:105440000E948D15BE016F5C7F4FCE018B5B9F4F1D
:105450000E9417156C01CE01C1960E948815D7FCD9
:105460003BC0E114F10499F06EE972E080E090E055
:105470000E944D2C7C010E942F2CFE013196E10FE1
:10548000F11DE10FF11D91A380A31F5FEACF09A1D8
:10549000DAA00093320462E374E087ED91E00E94A9
:1054A0009A0E6AE070E080E090E00E9464168EE65A
:1054B00095E00E944F1988E595E00E944F19802FD2
:1054C0009D2D0E94771986E595E00E944F1988E28C
:1054D00095E00E944F1901E066EB73E0CE01C196A2
:1054E0000E948D15BE016F5C7F4FCE018B5B9F4F7D
:1054F0000E9417156C01CE01C1960E948815D7FC39
:105500004BC0EF2899F06EE972E080E090E00E94D5
:105510004D2C7C010E942F2CFE013196E10FF11DD4
:10552000E10FF11D91A380A31F5FEBCF19A10AA189
:105530001093310461E374E088ED91E00E949A0ECB
:105540006AE070E080E090E00E9464168AEF94E0E8
:105550000E944F1988EE94E00E944F19812F902FDE
:105560000E94771986EE94E00E944F1980913104D1
:10557000813039F48CEC94E00E944F190E94B20EF5
:1055800008C08DEB94E00E944F191092B3040E9462
:10559000680F8FE894E018C0011118C0E114F104FD
:1055A000A9F081E694E00E944F1988E594E00E94FA
:1055B0004F19B7018EE795E00E94BE158FE394E086
:1055C0000E944F1981E194E00E944F19CE01CF96BD
:1055D0000E948815CE018B5B9F4F0E9488150E9408
:1055E0009E1600916F061091700620917106309101
:1055F0007206DC01CB01801B910BA20BB30B813631
:105600009A4EA105B10578F10E9449184B015C0141
:1056100069837A838B839C839E012F5F3F4F79013F
:1056200003ED11E0D7016D917D011AA309A3CE010D
:1056300081960E94200E0F5F1F4F073DB1E01B07B0
:1056400089F7C501B4010E94FF0B0E949E1660936A
:105650006F0670937006809371069093720681E5D1
:105660009DE00E944F190E9471130C94D01DF70108
:1056700062817381848195810E947E0A80912C04CD
:105680008B83D70112966D917D918D919C91159789
:105690000E947E0A80912B048A83F70162817381C4
:1056A000848195810E947E0A80912A048983CE019B
:1056B00001960E94ED08DC01CB0180589E4AAE4F56
:1056C000BF4FF70182839383A483B58387E992E078
:1056D0000E944F192E968FAD2E970E94701988E662
:1056E00092E00E944F19B701C5010E94350F0C943A
:1056F0008B1ECF93DF93109281051092800588EE68
:1057000093E0A0E0B0E08093820590938305A0939E
:105710008405B09385052FE632E030937F05209312
:105720007E0525EC30E030938B0520938A0524EC30
:1057300030E030938D0520938C0520EC30E03093E1
:105740008F0520938E0521EC30E030939105209356
:10575000900522EC30E0309393052093920526ECDF
:1057600030E03093950520939405109297051092A0
:1057700098051092990510929A051092250610929C
:1057800024068093260690932706A0932806B093BC
:10579000290681E892E090932306809322061092D6
:1057A00021061092200610921F0610921E061092DB
:1057B0001D0681E080931C0610921B0661E082E1C9
:1057C0000E94181661E083E10E9418168091B900CA
:1057D0008E7F8093B9008091B9008D7F8093B9004E
:1057E00088E48093B80085E48093BC000E949E16F4
:1057F00060937706709378068093790690937A0683
:105800000E949E16609373067093740680937506CB
:10581000909376060E949E1660936F0670937006B2
:105820008093710690937206CFE4D6E00E949E1694
:10583000699379938993999386E0CF36D807B1F726
:10584000CFE2D6E00E949E1669937993899399934B
:1058500086E0CF34D807B1F7DF91CF910895FC01EE
:1058600088279927E89421912032E9F3293010F014
:105870002E30C8F32B3241F02D3239F4689404C035
:105880000E94792C820F911D219120532A30C0F360
:105890001EF4909581959F4F08954BE756E00E9426
:1058A000522C0895FA01A191B081009719F4109734
:1058B000E1F0CD01DC01CD010D90002011F4C0011B
:1058C00013C0FB012191222319F02015D9F7F3CF42
:1058D000FB012191201519F41E92119606C0222376
:1058E000C1F70D900020A1F7D001FA01A193B08378
:1058F00008957AE0979F902D879F802D910D112418
:10590000089591110C948A2C803219F08950855099
:10591000C8F70895992788270895F999FECF92BD71
:1059200081BDF89A992780B50895262FF999FECF61
:105930001FBA92BD81BD20BD0FB6F894FA9AF99AAC
:105940000FBE019608950E94E52CA59F900DB49F6F
:10595000900DA49F800D911D112408952F923F92C8
:105960004F925F926F927F928F929F92AF92BF926F
:10597000CF92DF92EF92FF920F931F93CF93DF931B
:10598000CDB7DEB7CA1BDB0B0FB6F894DEBF0FBE78
:10599000CDBF09942A88398848885F846E847D84C5
:1059A0008C849B84AA84B984C884DF80EE80FD80C7
:1059B0000C811B81AA81B981CE0FD11D0FB6F8943D
:1059C000DEBF0FBECDBFED010895A29FB001B39F12
:1059D000C001A39F700D811D1124911DB29F700DF8
:1059E000811D1124911D0895991B79E004C0991F10
:1059F000961708F0961B881F7A95C9F78095089529
:105A000097FB072E16F4009407D077FD09D00E946B
:105A10003E2D07FC05D03EF4909581959F4F08954B
:105A2000709561957F4F0895A1E21A2EAA1BBB1BAA
:105A3000FD010DC0AA1FBB1FEE1FFF1FA217B3075A
:105A4000E407F50720F0A21BB30BE40BF50B661F70
:105A5000771F881F991F1A9469F760957095809534
:105A600090959B01AC01BD01CF010895B7FF0C9447
:105A7000A32C0E94A32C821B930B0895AA1BBB1B73
:105A800051E107C0AA1FBB1FA617B70710F0A61B3E
:105A9000B70B881F991F5A95A9F780959095BC015F
:105AA000CD010895EE0FFF1F0590F491E02D0994AC
:105AB000CF93DF938230910510F482E090E0E09183
:105AC0007F06F091800620E030E0C0E0D0E0309723
:105AD00011F14081518148175907C0F04817590703
