:100000000C9497070C94BF070C94BF070C94BF0780
:100010000C94BF070C94BF070C94BF070C94BF0748
:100020000C94BF070C94BF070C94BF070C94BF0738
:100030000C94BF070C94BF070C94BF070C94BF0728
:100040000C948A0B0C94BF070C94C60A0C94A00A5B
:100050000C94BF070C94BF070C94BF070C94BF0708
:100060000C94D40B0C94BF07206275742069732024
:10007000696E616374697665206F7220697473209C
:1000800074696D6572206973206E6F74207265707B
:1000900065617461626C650A00204C61756E63680D
:1000A000696E67206974732074696D65720A002037
:1000B00000204163746976653A2000466F756E646E
:1000C00020416C61726D3A20002046696E69736848
:1000D000656420726573746F72696E670A000A0046
:1000E0004C6173742074696D65207265636F72640E
:1000F00065642000436972637569742068617320C8
:1001000072657373657465642C20747279696E67A7
:1001100020746F20726573756D6520696E746572E9
:10012000727570746564206F7065726174696F6E4A
:10013000732E2E2E0A000A002054696D652E204170
:1001400063746976653D002054696D6572204F6661
:100150006620636F756E74646F776E20000A0020EE
:1001600054696D652E204163746976653D002054A5
:10017000696D6572204F6E20636F756E74646F7762
:100180006E20000A00566572626F73697479206987
:1001900073202000416C61726D7320696E666F2060
:1001A0006973206C6F616465640A00204550505289
:1001B0004F4D20616C726561647920696E69746964
:1001C000616C697A65640A00200054696D65206974
:1001D0007320005254432068617320736574207447
:1001E00068652073797374656D2074696D65005559
:1001F0006E61626C6520746F2073796E632077691D
:100200007468207468652052544300204F4646208D
:10021000636F756E74646F776E2E2E2E0A002052F7
:100220006561636865642074696D6572200020698A
:1002300073206163746976652C20636865636B69FC
:100240006E672069747320636F756E74646F776E68
:100250002E2E2E0A0020003A00206F6E2052656C70
:100260006179200054696D6572204F666620002018
:100270004F4E20636F756E74646F776E2E2E2E0A4C
:100280000020526561636865642074696D65722041
:1002900000206973206163746976652C206368654A
:1002A000636B696E672069747320636F756E746425
:1002B0006F776E2E2E2E0A0020003A00206F6E20DF
:1002C00052656C6179200054696D6572204F6E2013
:1002D000000A2A2A2A2A2A2A2A2A2A2A2A2A2A2AC8
:1002E0002A2A2A2A2A2A2A2A2A2A2A2A2A2A2A2A6E
:1002F0002A2A2A2A2A2A2A2A2A2A2A2A2A0A00547E
:10030000696D652069732000537769746368696E4D
:10031000672072656C617973206F66662E2E2E0AD7
:100320000053657474696E672074696D657273201B
:100330006F66662E2E2E0A00476F696E6720746FF7
:1003400020736C6565702E2E2E0A002E2E2E0A004C
:10035000743D00207261697365642E2E2E0A00417F
:100360006C61726D20002A2A2A2A2A2A2A2A2A2A1D
:100370002A2A2A2A2A2A2A2A2A2A2A2A2A2A2A2ADD
:100380002A2A2A2A2A2A2A2A2A2A2A2A2A2A2A2ACD
:100390002A0A00207261697365642E2E2E0A0041BC
:1003A0006C61726D20002E2E2E0A00743D000A2A08
:1003B0002A2A2A2A2A2A2A2A2A2A2A2A2A2A2A2A9D
:1003C0002A2A2A2A2A2A2A2A2A2A2A2A2A2A2A2A8D
:1003D0002A2A2A2A2A2A2A2A2A2A0A002069732053
:1003E0006E6F7420612076616C696420636F6D6D3F
:1003F000616E640A005761726E696E6720000A2A96
:100400002A2A2A2A2A2A2A2A2A2A2A2A2A2A2A2A4C
:100410002A2A2A2A2A2A2A2A2A2A2A2A2A2A2A2A3C
:100420002A2A2A2A2A2A2A2A2A2A0A000A2A2A2A96
:100430002A2A2A2A2A2A2A2A2A2A2A2A2A2A2A2A1C
:100440002A2A2A2A2A2A2A2A2A2A2A2A2A2A2A2A0C
:100450002A2A2A2A2A2A2A2A0A000A0020566572EB
:10046000626F736974792069732073657420746F87
:1004700020000A2A2A2A2A2A2A2A2A2A2A2A2A2A30
:100480002A2A2A2A2A2A2A2A2A2A2A2A2A2A2A2ACC
:100490002A2A2A2A2A2A2A2A2A2A2A2A2A2A0A0006
:1004A0000A2A2A2A2A2A2A2A2A2A2A2A2A2A2A2ACC
:1004B0002A2A2A2A2A2A2A2A2A2A2A2A2A2A2A2A9C
:1004C0002A2A2A2A2A2A2A2A2A2A2A2A0A000A2AF6
:1004D0002A2A2A2A2A2A2A2A2A2A2A2A2A2A2A2A7C
:1004E0002A2A2A2A2A2A2A2A2A2A2A2A2A2A2A2A6C
:1004F0002A2A2A2A2A2A2A2A2A2A0A000A002079AB
:100500006561726C792072657065617461626C6599
:1005100020002F002F00206973206E6F77200020AD
:10052000486F6C7964617920000A2A2A2A2A2A2ACB
:100530002A2A2A2A2A2A2A2A2A2A2A2A2A2A2A2A1B
:100540002A2A2A2A2A2A2A2A2A2A2A2A2A2A2A2A0B
:100550002A2A2A2A2A0A000A2A2A2A2A2A2A2A2A65
:100560002A2A2A2A2A2A2A2A2A2A2A2A2A2A2A2AEB
:100570002A2A2A2A2A2A2A2A2A2A2A2A2A2A2A2ADB
:100580002A2A2A0A000A2A2A2A2A2A2A2A2A2A2A35
:100590002A2A2A2A2A2A2A2A2A2A2A2A2A2A2A2ABB
:1005A0002A2A2A2A2A2A2A2A2A2A2A2A2A2A2A2AAB
:1005B0002A0A00206172652073657420746F200020
:1005C0005765656B6C79204461796F666673206648
:1005D0006F7220616C61726D000A2A2A2A2A2A2A07
:1005E0002A2A2A2A2A2A2A2A2A2A2A2A2A2A2A2A6B
:1005F0002A2A2A2A2A2A2A2A2A2A2A2A2A2A2A2A5B
:100600002A2A2A2A2A0A000A2A2A2A2A2A2A2A2AB4
:100610002A2A2A2A2A2A2A2A2A2A2A2A2A2A2A2A3A
:100620002A2A2A2A2A2A2A2A2A2A2A2A2A2A2A2A2A
:100630002A2A2A0A00446F6E6520696E697469610E
:100640006C697A696E670A00496E697469616C69E0
:100650007A696E6720416C6C20616C61726D730AFF
:10066000000A2A2A2A2A2A2A2A2A2A2A2A2A2A2A34
:100670002A2A2A2A2A2A2A2A2A2A2A2A2A2A2A2ADA
:100680002A2A2A2A2A2A2A2A2A2A2A2A2A0A000A34
:100690002A2A2A2A2A2A2A2A2A2A2A2A2A2A2A2ABA
:1006A0002A2A2A2A2A2A2A2A2A2A2A2A2A2A2A2AAA
:1006B0002A2A2A2A2A2A2A2A2A2A2A0A0020202002
:1006C00020202020202020203D2D3D2D3D2D3D2D82
:1006D0003D2D3D2D3D2D3D2D3D2020202020202055
:1006E00020202020202020200A0020202020202040
:1006F00020202020203D2D3D2D3D2D3D2D3D2D3D0B
:100700002D3D2D3D2D3D202020202020202020206B
:1007100020202020200A002020202020202020200F
:1007200020203D2D3D2D3D2D3D2D3D2D3D2D3D2DA3
:100730003D2D3D2020202020202020202020202072
:1007400020200A000A002052657065617461626CA5
:10075000653D002052656C61793D002054696D65EE
:100760002E204163746976653D00206973205469C9
:100770006D6572204F666620000A00205265706524
:10078000617461626C653D002052656C61793D0069
:100790002054696D652E204163746976653D0020A3
:1007A00069732054696D6572204F6E20000A002025
:1007B00052616E646F6D3D002054696D65723D003D
:1007C0002054696D652E204163746976653D002073
:1007D000697320416C61726D20000A2A2A2A2A2A34
:1007E0002A2A2A2A2A2A2A2A2A2A2A2A2A2A2A2A69
:1007F0002A2A2A2A2A2A2A2A2A2A2A2A2A2A2A2A59
:100800002A2A2A2A2A2A0A000A2A2A2A2A2A2A2AB2
:100810002A2A2A2A2A2A2A2A2A2A2A2A2A2A2A2A38
:100820002A2A2A2A2A2A2A2A2A2A2A2A2A2A2A2A28
:100830002A2A2A2A0A000A0020204368616E676576
:100840006420746F20005D2050696E200020526586
:100850006C6179436F6E74726F6C5B000A2A2A2A8E
:100860002A2A2A2A2A2A2A2A2A2A2A2A2A2A2A2AE8
:100870002A2A2A2A2A2A2A2A2A2A2A2A2A2A2A2AD8
:100880002A2A2A2A2A2A2A2A0A000A2A2A2A2A2A32
:100890002A2A2A2A2A2A2A2A2A2A2A2A2A2A2A2AB8
:1008A0002A2A2A2A2A2A2A2A2A2A2A2A2A2A2A2AA8
:1008B0002A2A2A2A2A2A0A000A0020536176656415
:1008C000206F6E20454550524F4D20616464726523
:1008D000737320002052616E646F6D3D00204F6E77
:1008E0002054696D65723D00204163746976653DF1
:1008F000002053657420746F200020416C61726D7C
:1009000020000A2A2A2A2A2A2A2A2A2A2A2A2A2A9B
:100910002A2A2A2A2A2A2A2A2A2A2A2A2A2A2A2A37
:100920002A2A2A2A2A2A2A2A2A2A2A2A2A2A0A0071
:100930000A2A2A2A2A2A2A2A2A2A2A2A2A2A2A2A37
:100940002A2A2A2A2A2A2A2A2A2A2A2A2A2A2A2A07
:100950002A2A2A2A2A2A2A2A2A2A2A2A0A000A008B
:10096000205361766564206F6E20454550524F4D8F
:10097000206164647265737320002052616E646F3D
:100980006D3D00204F6E2054696D65723D00204121
:1009900063746976653D002053657420746F200090
:1009A0002054696D6572204F666620000A2A2A2A43
:1009B0002A2A2A2A2A2A2A2A2A2A2A2A2A2A2A2A97
:1009C0002A2A2A2A2A2A2A2A2A2A2A2A2A2A2A2A87
:1009D0002A2A2A2A2A2A2A2A0A000A2A2A2A2A2AE1
:1009E0002A2A2A2A2A2A2A2A2A2A2A2A2A2A2A2A67
:1009F0002A2A2A2A2A2A2A2A2A2A2A2A2A2A2A2A57
:100A00002A2A2A2A2A2A0A000A2A2A2A2A2A2A2AB0
:100A10002A2A2A2A2A2A2A2A2A2A2A2A2A2A2A2A36
:100A20002A2A2A2A2A2A2A2A2A2A2A2A2A2A2A2A26
:100A30002A2A2A2A0A000A2A2A2A2A2A2A2A2A2A80
:100A40002A2A2A2A2A2A2A2A2A2A2A2A2A2A2A2A06
:100A50002A2A2A2A2A2A2A2A2A2A2A2A2A2A2A2AF6
:100A60002A2A0A000A00205361766564206F6E20EE
:100A7000454550524F4D2061646472657373200088
:100A80002052616E646F6D3D00204F6E2054696D81
:100A900065723D00204163746976653D00205365B1
:100AA0007420746F200020416C61726D20000A2A4E
:100AB0002A2A2A2A2A2A2A2A2A2A2A2A2A2A2A2A96
:100AC0002A2A2A2A2A2A2A2A2A2A2A2A2A2A2A2A86
:100AD0002A2A2A2A2A2A2A2A2A2A0A000A2A2A2AE0
:100AE0002A2A2A2A2A2A2A2A2A2A2A2A2A2A2A2A66
:100AF0002A2A2A2A2A2A2A2A2A2A2A2A2A2A2A2A56
:100B00002A2A2A2A2A2A2A2A0A000A002053617637
:100B10006564206F6E20454550524F4D20616464DE
:100B20007265737320002052657065617461626C38
:100B3000653D002052656C61793D00204163746918
:100B400076653D002053657420746F200020546941
:100B50006D6572204F666620000A2A2A2A2A2A2AF0
:100B60002A2A2A2A2A2A2A2A2A2A2A2A2A2A2A2AE5
:100B70002A2A2A2A2A2A2A2A2A2A2A2A2A2A2A2AD5
:100B80002A2A2A2A2A0A000A2A2A2A2A2A2A2A2A2F
:100B90002A2A2A2A2A2A2A2A2A2A2A2A2A2A2A2AB5
:100BA0002A2A2A2A2A2A2A2A2A2A2A2A2A2A2A2AA5
:100BB0002A2A2A0A000A00205361766564206F6E93
:100BC00020454550524F4D20616464726573732017
:100BD000002052657065617461626C653D00205251
:100BE000656C61793D00204163746976653D002044
:100BF00053657420746F20002054696D6572204F16
:100C00006E20000A2A2A2A2A2A2A2A2A2A2A2A2A54
:100C10002A2A2A2A2A2A2A2A2A2A2A2A2A2A2A2A34
:100C20002A2A2A2A2A2A2A2A2A2A2A2A2A2A2A0A44
:100C3000000A005254432054696D652053657420A6
:100C4000746F20000A00202D20000A0054696D6591
:100C5000206973200054696D652053617665640ACC
:100C6000000000000800020100000304070000006B
:100C700000000000004572724A616E4665624D6177
:100C8000724170724D61794A756E4A756C41756733
:100C90005365704F63744E6F7644656300206861DE
:100CA0007320446179206F666620746F6461792CCB
:100CB000207363686564756C696E6720697420745D
:100CC0006F20746F6D6F72726F770A00416C617282
:100CD0006D20000A2A2A2A2A2A2A2A2A2A2A2A2A85
:100CE0002A2A2A2A2A2A2A2A2A2A2A2A2A2A2A2A64
:100CF0002A2A2A2A2A2A2A2A2A2A2A2A2A2A2A0A74
:100D000000546F64617920697320616E2073636899
:100D10006564756C656420686F6C796461792C20FA
:100D2000676F696E6720746F20736C6565702E2E17
:100D30002E0A000A2A2A2A2A2A2A2A2A2A2A2A2A79
:100D40002A2A2A2A2A2A2A2A2A2A2A2A2A2A2A2A03
:100D50002A2A2A2A2A2A2A2A2A2A2A2A2A2A2A0A13
:100D6000000A2A2A2A2A2A2A2A2A2A2A2A2A2A2A2D
:100D70002A2A2A2A2A2A2A2A2A2A2A2A2A2A2A2AD3
:100D80002A2A2A2A2A2A2A2A2A2A2A2A2A0A0054E3
:100D9000696D65206973200057616B696E67207506
:100DA000702E2E2E0A00207261697365642E2E2E1D
:100DB0000A00416C61726D20002D2D2D2D2D2D2DE1
:100DC0002D2D2D2D3D3D3D3D3D3D3D3D3D3D3D20B0
:100DD0004177616B696E67203D3D3D3D3D3D3D3D49
:100DE0003D3D3D2D2D2D2D2D2D2D2D2D2D2D0A0053
:100DF0000A002052616E646F6D3D002054696D657C
:100E0000723D002054696D652E20416374697665DA
:100E10003D0020416C61726D20000A002052657017
:100E200065617461626C653D002052656C61793D5D
:100E3000002054696D652E204163746976653D001C
:100E40002054696D6572204F6E20000A00205265A3
:100E50007065617461626C653D002052656C6179FA
:100E60003D002054696D652E204163746976653DAF
:100E7000002054696D6572204F666620000A0020CC
:100E800061726520005765656B6C79204461794F0C
:100E9000666673206F6620416C61726D20002028A9
:100EA00079792F6D6D2F6464290A0020796561724C
:100EB0006C792072657065617461626C6520002FC9
:100EC000002F00206973200020486F6C79646179DD
:100ED000200020454550524F4D20686173206265C7
:100EE000656E20696E697469616C697A65640A006F
:100EF00000000000250028002B0000000000240056
:100F000027002A0004040404040404040202020268
:100F100002020303030303030102040810204080BC
:100F20000102040810200102040810207528112471
:100F30001FBECFEFD8E0DEBFCDBF26E0A8EBB3E009
:100F400001C01D92AA37B207E1F713E0A0E0B1E0BB
:100F5000E0E2F9E502C005900D92A83BB107D9F790
:100F600017E0C7E9D7E004C02197FE010E944E2A8E
:100F7000C639D107C9F70E94D8180C948E2C0C944E
:100F80000000CF92DF92EF92FF920F931F93CF93C7
:100F9000DF936C017A018B01C0E0D0E0CE15DF0554
:100FA00089F0D8016D918D01D601ED91FC910190F0
:100FB000F081E02DC6010995892B11F47E0102C054
:100FC0002196ECCFC701DF91CF911F910F91FF9038
:100FD000EF90DF90CF900895FC01538D448D252F25
:100FE00030E0842F90E0821B930B541710F0CF96C3
:100FF000089501970895FC01918D828D981761F0F5
:10100000828DDF01A80FB11D5D968C91928D9F5F3F
:101010009F73928F90E008958FEF9FEF0895FC01EA
:10102000918D828D981731F0828DE80FF11D858D9D
:1010300090E008958FEF9FEF0895FC01918D228D30
:10104000892F90E0805C9F4F821B91098F739927B5
:10105000089587E795E00E941D0821E0892B09F497
:1010600020E0822F0895FC01848DDF01A80FB11DBF
:10107000A35ABF4F2C91848D90E001968F739927CE
:10108000848FA689B7892C93A089B1898C918064BB
:101090008C93938D848D981306C00288F389E02D7C
:1010A00080818F7D80830895EF92FF920F931F932D
:1010B000CF93DF93EC0181E0888F9B8D8C8D98130B
:1010C00005C0E889F989808185FD24C0F62E0B8D45
:1010D00010E00F5F1F4F0F731127E02E8C8DE81269
:1010E0000CC00FB607FCFACFE889F989808185FF2B
:1010F000F5CFCE010E943308F1CF8B8DFE01E80FB2
:10110000F11DE35AFF4FF0820B8FEA89FB89808142
:10111000806207C0EE89FF896083E889F989808150
:101120008064808381E090E0DF91CF911F910F91E7
:10113000FF90EF900895CF93DF93EC01888D882383
:10114000C9F0EA89FB89808185FD05C0A889B98934
:101150008C9186FD0FC00FB607FCF5CF808185FF0F
:10116000F2CFA889B9898C9185FFEDCFCE010E947D
:101170003308E7CFDF91CF91089580E090E0892B8D
:1011800029F00E94290881110C94000008953FB7AE
:10119000F8948091FF0490910005A0910105B09111
:1011A000020526B5A89B05C02F3F19F00196A11D89
:1011B000B11D3FBFBA2FA92F982F8827820F911DED
:1011C000A11DB11DBC01CD0142E0660F771F881F34
:1011D000991F4A95D1F7089585ED8093BC008091C1
:1011E000BC0084FDFCCF1092160608954091D504F2
:1011F000262F30E0240F311D21323105DCF42091FF
:1012000016062430C9F4FC0180E090E0861758F4FB
:101210003091D5042191DC01AD54BB4FA30FB11D1A
:101220002C930196F3CF8091D504680F6093D50479
:1012300080E0089581E0089582E008950895E091A6
:101240001A0680911906E81730F4F0E0EF5EFA4FC5
:10125000808190E008958FEF9FEF089590911A0696
:1012600080911906981750F4E92FF0E0EF5EFA4FDD
:10127000208130E09F5F90931A0602C02FEF3FEF6E
:10128000C90108958091190690E020911A06821BE9
:1012900091090895CF92DF92EF92FF920F931F93DF
:1012A000CF93DF937C01262F972F8A0180915505DC
:1012B000882391F0C62FD72F6E01C40ED51ECC15F2
:1012C000DD0571F06991D701ED91FC910190F081FC
:1012D000E02DC7010995F3CF642F822F0E94F608F5
:1012E000C801DF91CF911F910F91FF90EF90DF9098
:1012F000CF900895CF93DF931F92CDB7DEB7698368
:10130000209155052223D1F020911706203240F07C
:1013100021E030E0FC013383228380E090E015C0BF
:1013200080911806E82FF0E0EA5AFA4F99819083ED
:101330008F5F809318068093170605C061E0CE0189
:1013400001960E94F60881E090E00F90DF91CF9126
:101350000895089580E090E00895982F92959F70E9
:101360002AEF929F800D112408950E944B2CEF923A
:10137000FF920F931F93CF93DF93EC017B018A01C0
:1013800088819981009729F02A813B8124173507AC
:10139000F8F4B8016F5F7F4F0E94812B009759F0DE
:1013A000998388831B830A832C813D81232B81F4BD
:1013B000FC0110820DC088819981009711F00E9474
:1013C000E92A198218821D821C821B821A8207C098
:1013D0001D830C83B701888199810E946D2CCE01F9
:1013E000DF91CF911F910F91FF90EF900895AF92F1
:1013F000BF92CF92DF92EF92FF920F931F93CF9302
:10140000DF93FC0124813581FB01448155818901F1
:10141000041B150B4115510551F12115310539F109
:101420002417350720F10217130718F0890101501E
:1014300011097B01FC01A080B180C501DFEFCFEF76
:101440006501C00ED11EC816D906A0F0F701608153
:1014500071810E94742C009769F09C012A193B0944
:101460000217130710F0D22FC32F0196ECCF8FEF86
:101470009FEF02C08D2F9C2FDF91CF911F910F9175
:10148000FF90EF90DF90CF90BF90AF900895CF93F3
:10149000DF93EC016115710559F0FB01019000200B
:1014A000E9F73197AF01461B570B0E94B7090CC0F3
:1014B00088819981009711F00E94E92A1982188287
:1014C0001D821C821B821A82CE01DF91CF9108956A
:1014D000FC01808191810C94E92AFC011182108227
:1014E00013821282158214826115710551F0FB017D
:1014F00001900020E9F73197AF01461B570B0C9480
:10150000B7090895DC01ED91FC910190F081E02D87
:1015100009946115710579F0FB0101900020E9F74C
:101520003197AF01461B570BDC01ED91FC91028016
:10153000F381E02D099480E090E008950C94890AED
:101540001F920F920FB60F9211242F933F934F9338
:101550005F936F937F938F939F93AF93BF93EF931B
:10156000FF9387E795E00E943308FF91EF91BF91C9
:10157000AF919F918F917F916F915F914F913F912B
:101580002F910F900FBE0F901F9018951F920F92E2
:101590000FB60F9211242F938F939F93EF93FF9386
:1015A000E0918705F09188058081E0918D05F091AB
:1015B0008E0582FD12C09081809190058F5F8F73A0
:1015C00020919105821751F0E0919005F0E0E958E3
:1015D000FA4F958F8093900501C08081FF91EF9124
:1015E0009F918F912F910F900FBE0F901F90189584
:1015F00090E0FC01EF59F34F3491FC01E85EF04FAD
:101600002491FC01EC5FF04FE491EE2309F43BC020
:10161000332339F1333091F038F43130A9F03230DE
:1016200001F584B58F7D12C0373091F03830A1F0CC
:101630003430B9F4809180008F7D03C080918000A8
:101640008F77809380000DC084B58F7784BD09C0EB
:101650008091B0008F7703C08091B0008F7D809320
:10166000B000F0E0EE0FFF1FE051F14FA591B491F3
:101670008FB7F894EC91611103C020952E2301C01F
:101680002E2B2C938FBF08958F929F92AF92BF9273
:10169000CF92DF92EF92FF926B017C010E94C7080C
:1016A0004B015C01C114D104E104F104F1F00E948A
:1016B000C708DC01CB0188199909AA09BB09883E32
:1016C0009340A105B10570F321E0C21AD108E108E9
:1016D000F10888EE880E83E0981EA11CB11CC1148D
:1016E000D104E104F10419F7DDCFFF90EF90DF9012
:1016F000CF90BF90AF909F908F9008952FB7F894A0
:101700006091FB047091FC048091FD049091FE04B3
:101710002FBF08951F920F920FB60F9211242F938F
:101720003F938F939F93AF93BF938091FB049091CE
:10173000FC04A091FD04B091FE043091FA0423E072
:10174000230F2D3720F40196A11DB11D05C026E8F9
:10175000230F0296A11DB11D2093FA048093FB0470
:101760009093FC04A093FD04B093FE048091FF04C9
:1017700090910005A0910105B09102050196A11D6F
:10178000B11D8093FF0490930005A0930105B093D1
:101790000205BF91AF919F918F913F912F910F9033
:1017A0000FBE0F901F9018951F920F920FB60F92B9
:1017B00011242F933F934F935F936F937F938F9356
:1017C0009F93AF93BF93EF93FF938091B900887F6E
:1017D000803609F49CC068F5883209F45BC090F447
:1017E000803109F454C038F4882309F4F6C08830F5
:1017F00009F44DC0F6C0883109F44CC0803209F4B8
:101800005DC0EFC0803409F468C048F4803309F447
:1018100055C0883309F0E5C080935405D8C08035A1
:1018200009F44FC0883509F45DC0883409F0D9C087
:10183000D6C0883909F4C7C0A8F4883709F467C04E
:1018400038F4883609F463C0803709F460C0C9C031
:10185000883809F4B8C0803909F45FC0803809F0CD
:10186000C0C05BC0803B09F486C038F4803A09F4FC
:1018700066C0883A09F47FC0B4C0803C09F4A7C0B0
:10188000883C09F4A4C0883B09F48AC0AAC08091AE
:10189000310510C09091530580915205981770F54D
:1018A000E091530581E08E0F80935305F0E0EE5CEC
:1018B000FA4F80818093BB0085EC86C080935405ED
:1018C0008EC0E091530581E08E0F80935305809187
:1018D000BB00F0E0EE5CFA4F80839091530580915D
:1018E00052056EC0E091530581E08E0F8093530541
:1018F0008091BB00F0E0EE5CFA4F8083809115068A
:1019000081116DC081E08093140684EA61C083E098
:10191000809316061092F904CFCF8091F90480329B
:1019200008F051C0E091F90481E08E0F8093F90432
:101930008091BB00F0E0E752FB4F8083BDCF85EC88
:101940008093BC00109216068091F904803230F426
:10195000E091F904F0E0E752FB4F10826091F90446
:1019600070E0E091D704F091D80489ED94E00995F6
:101970001092F90436C084E0809316061092D604C3
:101980001092D504E091D304F091D404099580918C
:10199000D504811105C081E08093D5041092B30471
:1019A000E091D60481E08E0F8093D604F0E0ED54F0
:1019B000FB4F80818093BB009091D6048091D50429
:1019C000981708F479CF85E88093BC000AC085ECAD
:1019D0008093BC001092160604C0109254050E9419
:1019E000EC08FF91EF91BF91AF919F918F917F9103
:1019F0006F915F914F913F912F910F900FBE0F907C
:101A00001F9018956093BC037093BD038093BE0331
:101A10009093BF03DC01CB01845D9E4FAF4FBF4F5E
:101A20008093B8039093B903A093BA03B093BB0318
:101A300082E090E09093C3038093C2030E947E0BE8
:101A40006093AE047093AF048093B0049093B1049C
:101A50000895CF92DF92EF92FF920F931F930E940F
:101A60007E0BC090AE04D090AF04E090B004F09034
:101A7000B1048B019C010C191D092E093F098091AD
:101A8000BC039091BD03A091BE03B091BF03083E7B
:101A9000134021053105D0F00196A11DB11D8093A1
:101AA000BC039093BD03A093BE03B093BF03B701E3
:101AB000A60148515C4F6F4F7F4F4093AE04509347
:101AC000AF046093B0047093B104C9CF4091B803E0
:101AD0005091B9036091BA037091BB0384179507C5
:101AE000A607B70788F1E091C003F091C1033097D2
:101AF00059F10995611571058105910519F00E944B
:101B0000020D22C08091BC039091BD03A091BE0341
:101B1000B091BF03845D9E4FAF4FBF4F8093B8031A
:101B20009093B903A093BA03B093BB0381E090E014
:101B30002091C2033091C303232B11F480E090E085
:101B40009093C3038093C2036091BC037091BD0363
:101B50008091BE039091BF031F910F91FF90EF9072
:101B6000DF90CF9008956F927F928F929F92AF9265
:101B7000BF92CF92DF92EF92FF920F931F93CF937A
:101B8000DF93EC01EE81AE2FB0E020E833E341EECD
:101B900051E00E949F294B015C0122EB37E0FD01DF
:101BA00004E610E080E9E82EFF24F394C901825B8B
:101BB00097408E179F07DCF4C90183709927892B02
:101BC00099F4C901B8010E94FC29892B31F4C9019B
:101BD000B7010E94FC29892B39F480E8880E81E541
:101BE000981E81E0A81EB11C2F5F3F4FDFCF6D8094
:101BF000712CEE54F84FCF0164E670E00E94FC298E
:101C00007C01CF0160E971E00E94FC296C0101E0D8
:101C100010E0E370FF27061517052CF502301105BB
:101C200081F4309771F4E114F10419F4C114D10472
:101C300041F480E8880E8BE3981E86E2A81EB11C52
:101C40000FC0D801A35ABD4FAC91B0E020E831E5F8
:101C500041E050E00E949F29860E971EA81EB91EE3
:101C60000F5F1F4FD8CF49812A8130E0A0E1BEE04D
:101C70000E94E1296B017C01242F30E0ACE3B0E04D
:101C80000E94E129DC01CB018C0D9D1DAE1DBF1D05
:101C900028816C017D01C20ED11CE11CF11CAC81BC
:101CA000B0E0119720E831E541E050E00E94322A8F
:101CB000DC01CB018C0D9D1DAE1DBF1DBC01CD01F6
:101CC000680D791D8A1D9B1DDF91CF911F910F918A
:101CD000FF90EF90DF90CF90BF90AF909F908F904C
:101CE0007F906F900895CF93DF93CDB7DEB727979E
:101CF0000FB6F894DEBF0FBECDBF81E080935505CF
:101D000088E680937605109218061092170660E018
:101D10008BE196E00E947A0981E00E9418188823DE
:101D200031F08093B20460E070E0CB013FC067E027
:101D300088E60E94751810921A06809319068BE1A6
:101D400096E00E942E098F770E94AD0989838BE16E
:101D500096E00E942E090E94AD098A838BE196E0ED
:101D60000E942E098F7B0E94AD098B838BE196E048
:101D70000E942E098C838BE196E00E942E090E941E
:101D8000AD098D838BE196E00E942E098F770E942A
:101D9000AD098E838BE196E00E942E090E94AD0969
:101DA000825E8F83CE0101960E94B30D27960FB6F7
:101DB000F894DEBF0FBECDBFDF91CF910895CF92D3
:101DC000DF92EF92FF920F931F93CF93DF93EB017C
:101DD0007B012AE0E20EF11C8B016C01C61AD70AC6
:101DE000C601800F911F0E948929F80181938F01FC
:101DF000EE15FF05A9F7CE01DF91CF911F910F914D
:101E0000FF90EF90DF90CF900895CF92DF92EF9206
:101E1000FF920F931F93CF93DF93EB017B0124E09D
:101E2000E20EF11C8B016C01C61AD70AC601800FA5
:101E3000911F0E948929F80181938F01EE15FF05FA
:101E4000A9F7CE01DF91CF911F910F91FF90EF90F5
:101E5000DF90CF9008956F927F928F929F92AF9272
:101E6000BF92CF92DF92EF92FF920F931F93CF9387
:101E7000DF93EA012CE3C22ED12CE12CF12CA70137
:101E800096010E94102A6883CA01B901A701960130
:101E90000E94102A6983CA01B90128E130E040E0BC
:101EA00050E00E94102A69017A016A83CA01B901CF
:101EB0006C5F7F4F8F4F9F4F27E030E040E050E056
:101EC0000E94102A6F5F6B83812C912C540140E09B
:101ED00034E6632E712C00E911E0242F30E02E54FB
:101EE000384FF901E370FF27309789F4C901B30136
:101EF0000E94FC29892B31F4C901B8010E94FC29F8
:101F0000892B29F48EE691E0A0E0B0E004C08DE6D4
:101F100091E0A0E0B0E0880E991EAA1EBB1ED5017C
:101F2000C401AA27BB27C816D906EA06FB0610F08B
:101F30004F5FD3CF4E83309799F4C90164E670E0C8
:101F40000E94FC29892B39F4C90160E971E00E94E3
:101F5000FC29892B29F48EE691E0A0E0B0E004C0D2
:101F60008DE691E0A0E0B0E0881A990AAA0ABB0ABF
:101F7000C818D908EA08FB08C90164E670E00E94A5
:101F8000FC298C01C90160E971E00E94FC29AEE5E1
:101F9000B2E020E0213041F4309751F401151105F1
:101FA00029F4009729F402C04C9103C04DE101C00F
:101FB0004CE150E060E070E0C416D506E606F70696
:101FC00040F0C41AD50AE60AF70A2F5F11962C30A2
:101FD00009F72F5F2D83C394CC82DF91CF911F919E
:101FE0000F91FF90EF90DF90CF90BF90AF909F90B8
:101FF0008F907F906F900895CF92DF92EF92FF9233
:10200000C0900D05D0900E05E0900F05F0901005E2
:102010006C157D058E059F0571F06B017C0144E216
:1020200054E00E942B0FC0920D05D0920E05E09255
:102030000F05F0921005FF90EF90DF90CF9008957C
:10204000CF93DF93EB010E9489298883CE01DF9132
:10205000CF910895CF93DF93EB010E948929888364
:10206000CE01DF91CF910895BF92CF92DF92EF9290
:10207000FF920F931F93CF93DF930BE214E08AE557
:10208000E82EFF24F394C0E0B801C7010E94050FB9
:1020900084E0E80EF11C9701255D3B4FF901EB55FB
:1020A000F140D081F801D080F901ED55F140C080B8
:1020B0003196B08088EC9EE00E94C0178C2F0E9461
:1020C000E11783EC9EE00E94C0178B2D0E94E11760
:1020D00081EC9EE00E94C0178C2D0E94E1178FEBCF
:1020E0009EE00E94C0178D2D0E94E1178BEA9EE0B2
:1020F0000E94C0178D2F90E00E94E8178EE99EE0A5
:102100000E94C017CF5F0C5F1F4FCE3109F0BCCFCC
:10211000DF91CF911F910F91FF90EF90DF90CF90C3
:10212000BF900895EF92FF920F931F93CF93DF9389
:10213000C82F85E89EE00E94C0178C2F0E94E117EF
:102140008FE79EE00E94C01784E9E82E82E0F82E17
:1021500000E810E0D0E0CD55DB4F8881802319F0F6
:10216000F701608101C06FE587E795E00E94820A70
:102170001F5F0695FFEFEF1AFF0A183071F78DE722
:102180009EE0DF91CF911F910F91FF90EF900C9403
:10219000C0171F93CF93DF93C2E5D1E01C2F1255D8
:1021A000BE016F5A7C4FCE010E9420102196812FD4
:1021B0000E949210CA3581E0D80781F7DF91CF9154
:1021C0001F910895CF92DF92EF92FF92CF93DF930A
:1021D00000D000D000D0CDB7DEB76B017C010E94EB
:1021E000FC0F8091260490E0A0E0B0E089839A8300
:1021F000AB83BC838AE090E09E838D83C701B601E8
:102200000E94FC0F8091260490E00A971CF060E980
:1022100072E002C065EB73E087E795E00E949E0ADA
:10222000CE0101960E9487176AE30E94820AC701C5
:10223000B6010E94FC0F8091250490E0A0E0B0E080
:1022400089839A83AB83BC838AE090E09E838D83ED
:10225000C701B6010E94FC0F8091250490E00A9707
:102260001CF060E972E002C065EB73E087E795E07F
:102270000E949E0ACE0101960E9487176AE30E947F
:10228000820AC701B6010E94FC0F8091240490E0ED
:10229000A0E0B0E089839A83AB83BC838AE090E0BE
:1022A0009E838D83C701B6010E94FC0F8091240498
:1022B00090E00A971CF060E972E002C065EB73E001
:1022C00087E795E00E949E0ACE0101960E9487173B
:1022D00026960FB6F894DEBF0FBECDBFDF91CF912B
:1022E000FF90EF90DF90CF900895CF92DF92EF9222
:1022F000FF92CF93DF9300D000D000D0CDB7DEB7F0
:102300006B017C010E94FC0F8091280490E0A0E00A
:10231000B0E089839A83AB83BC838AE090E09E839C
:102320008D83C701B6010E94FC0F8091280490E0C4
:102330000A971CF060E972E002C065EB73E087E782
:1023400095E00E949E0ACE0101960E9487176BE9D4
:1023500072E00E949E0AC701B6010E94FC0F8091A4
:102360002A0490E08E54984F092E000CAA0BBB0B48
:1023700089839A83AB83BC838AE090E09E838D83BC
:10238000C701B6010E94FC0F2091290483E0289F19
:1023900090011124A3E0B5E080E090E0FC01E20FA1
:1023A000F31FEB58F34FE491ED93019683309105C1
:1023B000A9F71092060563E075E087E795E00E94B3
:1023C0009E0A6BE972E087E795E00E949E0ACE01C3
:1023D00001960E94871760E20E94820AC701B60137
:1023E0000E94FC0F8091260490E0A0E0B0E0898379
:1023F0009A83AB83BC838AE090E09E838D83C70180
:10240000B6010E94FC0F8091260490E00A971CF010
:1024100060E972E002C065EB73E087E795E00E9437
:102420009E0ACE0101960E9487176AE30E94820AE3
:10243000C701B6010E94FC0F8091250490E0A0E046
:10244000B0E089839A83AB83BC838AE090E09E836B
:102450008D83C701B6010E94FC0F8091250490E096
:102460000A971CF060E972E002C065EB73E087E751
:1024700095E00E949E0ACE0101960E9487176AE3AA
:102480000E94820AC701B6010E94FC0F80912404B9
:1024900090E0A0E0B0E089839A83AB83BC838AE0BC
:1024A00090E09E838D83C701B6010E94FC0F80914E
:1024B000240490E00A971CF060E972E002C065EB2A
:1024C00073E087E795E00E949E0ACE0101960E9484
:1024D000871726960FB6F894DEBF0FBECDBFDF91EB
:1024E000CF91FF90EF90DF90CF9008958F929F92C1
:1024F000AF92BF92CF92DF92EF92FF921F93CF9352
:10250000DF93C0EAD1E010E080EAE82EF12CBE01B2
:10251000C7010E94DF0E8AE0E80EF11C6AE070E05D
:1025200080E090E00E94440B6A817B818C819D81D8
:102530000E947511CE80DF80A884B984888099803C
:1025400081E79EE00E94C017812F0E94E11782E67A
:102550009EE00E94C017C4010E94E8178AE59EE031
:102560000E94C017C5010E94E8178DE49EE00E94FA
:10257000C017C6010E94E8178BE49EE00E94C017B6
:102580001F5F2A96183019F6DF91CF911F91FF90A7
:10259000EF90DF90CF90BF90AF909F908F90089575
:1025A0008F929F92AF92BF92CF92DF92EF92FF9263
:1025B0000F931F93CF93DF93C0EFD1E0E12CF12C69
:1025C00000E510E0BE01C8010E94DF0E065F1F4F4C
:1025D0006AE070E080E090E00E94440B6A817B81B9
:1025E0008C819D810E947511CE80DF80A884B98482
:1025F0008880998080E49EE00E94C017C7010E94F5
:10260000E81781E39EE00E94C017C4010E94E8170A
:1026100089E29EE00E94C017C5010E94E8178CE184
:102620009EE00E94C017C6010E94E8178AE19EE062
:102630000E94C0178FEFE81AF80A2A96003A11058F
:1026400009F6DF91CF911F910F91FF90EF90DF90EE
:10265000CF90BF90AF909F908F9008958F929F9250
:10266000AF92BF92CF92DF92EF92FF920F931F93A0
:10267000CF93DF93C0E5D1E0E12CF12C00E010E036
:10268000BE01C8010E94DF0E065F1F4F6AE070E0C6
:1026900080E090E00E94440B6A817B818C819D8167
:1026A0000E947511CE80DF80A884B98488809980CB
:1026B00082E19EE00E94C017C7010E94E81783E0F4
:1026C0009EE00E94C017C4010E94E8178BEF9DE0B6
:1026D0000E94C017C5010E94E81782EF9DE00E948A
:1026E000C017C6010E94E81780EF9DE00E94C01746
:1026F0008FEFE81AF80A2A960035110509F6DF91DE
:10270000CF911F910F91FF90EF90DF90CF90BF90EE
:10271000AF909F908F900895EF92FF920F931F9329
:10272000CF93DF931F92CDB7DEB77C01FC01008110
:102730001181C80169830E9489296981681719F08C
:10274000C8010E949129C7010F90DF91CF911F917D
:102750000F91FF90EF900895AF92BF92CF92DF92CA
:10276000EF92FF920F931F93CF93DF9300D0CDB7DB
:10277000DEB78B016B0126E0C20ED11C7B015C0130
:10278000A61AB70A95012E0D3F1DF70161917F0131
:102790003A832983CE0101960E948C13EC14FD0428
:1027A00089F7C8010F900F90DF91CF911F910F9182
:1027B000FF90EF90DF90CF90BF90AF9008950F9370
:1027C0001F93CF93DF9300D0CDB7DEB78B01FB0112
:1027D00060819A838983CE0101960E948C13C8017F
:1027E0000F900F90DF91CF911F910F910895AF92AD
:1027F000BF92CF92DF92EF92FF920F931F93CF93EE
:10280000DF9300D0CDB7DEB78B016B0124E0C20EA1
:10281000D11C7B015C01A61AB70A95012E0D3F1D44
:10282000F70161917F013A832983CE0101960E94CD
:102830008C13EC14FD0489F7C8010F900F90DF9101
:10284000CF911F910F91FF90EF90DF90CF90BF90AD
:10285000AF900895AF92BF92CF92DF92EF92FF9226
:102860000F931F93CF93DF9300D0CDB7DEB78B01CB
:102870006B012AE0C20ED11C7B015C01A61AB70ACB
:1028800095012E0D3F1DF70161917F013A83298348
:10289000CE0101960E948C13EC14FD0489F7C80147
:1028A0000F900F90DF91CF911F910F91FF90EF90BC
:1028B000DF90CF90BF90AF9008952F923F924F92AC
:1028C0005F926F927F928F929F92AF92BF92CF92C0
:1028D000DF92EF92FF920F931F93CF93DF93CDB7C9
:1028E000DEB72D970FB6F894DEBF0FBECDBF64E9FB
:1028F00072E0CE0108960E946D0A0E94290D2B01FC
:102900003C010E94FC0F809126048B83C301B2011D
:102910000E94FC0F809125048A83C301B2010E94AA
:10292000FC0F8091240489832BE2C22E24E0D22E56
:102930000EE214E0312C3AE5E32EFF24F394BB249D
:10294000B394B601C7010E94050F44E0E40EF11CE8
:10295000F80131978081F60190819D83F8013297CB
:1029600090819E83825E8F83CE0101960E94B30D7B
:102970006415750586059705F9F48091AB048111FE
:1029800010C0C301B2010E94751183E39DE00E9453
:10299000C01781E09DE00E94C01783ED9CE00E947B
:1029A000C017F8018081811105C0B082B601C7014E
:1029B0000E94F71333243394F4E0CF0ED11C0C5F44
:1029C0001F4F42EDE41641E0F40609F0BACFC3010F
:1029D000B2010E94FC0F809129048E83C301B201D1
:1029E0000E94FC0F809128048D83C301B2010E94D4
:1029F000FC0F80912A048F8300E511E083EAA82E62
:102A000084E0B82EC12CD12C90E8892E912C2A2C50
:102A100083EA94E0281AF501F1905F01C301B20145
:102A20000E94FC0F2F2D30E0809127048150A401DB
:102A300002C0559547958A95E2F7CA0182239323F0
:102A4000892BE9F1C301B2010E94FC0FF090290427
:102A5000F80162817381848195810E94FC0F8091CD
:102A60002904F8122CC0C301B2010E94FC0FF0909F
:102A70002804F80162817381848195810E94FC0F92
:102A800080912804F8121BC0C301B2010E94FC0F00
:102A9000E0902A04F12CFEE4EF1AF8EFFF0AF801A7
:102AA00062817381848195810E94FC0F80912A0448
:102AB00090E08E54984FE816F90609F471C0FAE0D8
:102AC000CF0ED11C065F1F4F40E5C416D10409F09C
:102AD0009ECFCE0108960E94680A31105DC089EB36
:102AE0009DE00E94C01700E511E0F12CF8018085FF
:102AF00091858336910509F044C0808191810197C9
:102B000009F03FC00E94290DF80182809380A480C3
:102B1000B580DC01CB0188199909AA09BB094E9738
:102B2000A105B10570F582EB9DE00E94C0178F2DC5
:102B30000E94E11786EA9DE00E94C01788E99DE0A7
:102B40000E94C0178FE89DE00E94C0170E94290DC7
:102B50000E94290D0E9475111092AB04F801828128
:102B60009381A481B58180589E4AAE4FBF4F828326
:102B70009383A483B583B801C801805591400E9416
:102B80002A14F394065F1F4FF8E0FF12AFCF81E6DF
:102B90009DE00E94C01741C081E08093AB043DC01E
:102BA000F80162817381848195810E94FC0F80917C
:102BB00026048B83F80162817381848195810E9450
:102BC000FC0F809125048A83F801628173818481DE
:102BD00095810E94FC0F809124048983CE01019687
:102BE0000E94B30DDC01CB0180589E4AAE4FBF4F0F
:102BF000F80182839383A483B5838CEC9CE00E94CC
:102C0000C017822D0E94E1178DE99CE00E94C01739
:102C1000B801C6010E942A1452CF2D960FB6F8941F
:102C2000DEBF0FBECDBFDF91CF911F910F91FF90FF
:102C3000EF90DF90CF90BF90AF909F908F907F905C
:102C40006F905F904F903F902F9008958F929F923A
:102C5000AF92BF92CF92DF92EF92FF920F931F93AA
:102C6000CF93DF9300D0CDB7DEB7F0E5EF2EF1E0E4
:102C7000FF2E812CAAE79A2EA9E4AA2EAAE5BA2E45
:102C800000E010E0F7011182108282829382A48218
:102C9000B5821782168211861086B701C8010E947C
:102CA0002A14065F1F4FFAE0EF0EF11C8FEF881A0F
:102CB000980AA80AB80A0035110521F770EFE72E27
:102CC00071E0F72EEAE08E2E912CA12CB12CF701A9
:102CD0001182108282829382A482B5821782168228
:102CE00011861086B701C8010E942A14065F1F4F83
:102CF000FAE0EF0EF11C003A110549F750EAE52E13
:102D000051E0F52E6AE0862E912CA12CB12CF70112
:102D10001182108282829382A482B58217821682E7
:102D200011861086B701C8010E942A14065F1F4F42
:102D3000FAE0EF0EF11C003F110549F744EFE42ED5
:102D400043E0F42EF7011182108212821382148262
:102D50001582B701C8010E94AC130A5F1F4FF6E04D
:102D6000EF0EF11C003281E0180761F734ECE32E1E
:102D700033E0F32EF7011182108212821382148243
:102D80001582B701C8010E94AC130A5F1F4FF6E01D
:102D9000EF0EF11C003581E0180761F721E9E22E02
:102DA00022E0F22EF70161917F011A830983CE019F
:102DB00001960E948C130F5F1F4F0335F1E01F0730
:102DC00089F793EAE92E94E0F92E02E511E0F70184
:102DD0001082B701C8010E94DF130F5F1F4FFFEF82
:102DE000EF1AFF0A0A3581E0180789F78BE2C82E2F
:102DF00084E0D82EF12CF601F082C801855D9B4F4E
:102E0000FC01E955F1401082319610823196108212
:102E1000B601C8010E94F7130C5F1F4FF394F4E052
:102E2000CF0ED11C8EE1F812E6CF87ED91E09A83A8
:102E3000898361E0CE0101960E948C1388ED91E0B8
:102E40009A83898360E0CE0101960E948C1382ED03
:102E50009EE00E94C0170E942E130E94D0120E9472
:102E600076120E94C9100E9434100F900F90DF91CB
:102E7000CF911F910F91FF90EF90DF90CF90BF9077
:102E8000AF909F908F9008958F929F92AF92BF9234
:102E90000F931F93CF93DF93CDB7DEB7A1970FB6F4
:102EA000F894DEBF0FBECDBF19A2423008F44AE04D
:102EB0008E010F5D1F4F842E912CA12CB12CA501EA
:102EC00094010E94102AE62FB901CA01015011098C
:102ED000EA3014F4E05D01C0E95CD801EC93232BE7
:102EE000242B252B61F7B80187E795E00E94890A1A
:102EF000A1960FB6F894DEBF0FBECDBFDF91CF9184
:102F00001F910F91BF90AF909F908F900895CF9297
:102F1000DF92EF92FF92FC0144815581C080D18005
:102F2000E280F3804115510561F4E0917705F0915D
:102F300078050190F081E02D6C2D87E795E00995EB
:102F400018C04A30510589F4F7FE0EC06DE287E7DC
:102F500095E00E94820A66277727CB016C197D09CC
:102F60008E099F094AE003C04AE0C701B6010E94EA
:102F7000441787E795E0FF90EF90DF90CF9008959A
:102F80000F931F93CF93DF938C01C0E0D0E0F80143
:102F9000EC0FFD1F6491662371F0E0917705F091CD
:102FA00078050190F081E02D87E795E00995892B60
:102FB00011F02196ECCFCE01DF91CF911F910F91AF
:102FC0000895682F70E080E090E04AE00C94441788
:102FD000CF92DF92EF92FF92CF93DF936C01990F24
:102FE000EE08FF08F7FE19C06DE287E795E00E9442
:102FF000820AEC0166277727CB016C197D098E09BF
:103000009F094AE00E9444178C0F9D1FDF91CF91CA
:10301000FF90EF90DF90CF9008954AE0C701B6018E
:10302000DF91CF91FF90EF90DF90CF900C944417F9
:10303000382F2091170690917605213208F049C06B
:10304000809116068111FCCF42E040931606309322
:1030500015063FEF30935405109253052093520507
:10306000A6E5B5E042E355E0FA013E2F341B3217E6
:1030700018F43D913193F9CF10923105209131052B
:10308000990F922B9093310590911406913061F431
:1030900010921406909131059093BB009091BC0062
:1030A00093FDF8CF95EC01C095EE9093BC00909104
:1030B00016069230E1F3909154059F3F79F080918C
:1030C0005405803241F080915405803331F084E022
:1030D00005C081E003C082E001C083E010921806C1
:1030E00010921706109255050895909116069111A9
:1030F000FCCF91E090931606909315062FEF209346
:10310000540510925305260F2093520590933105D4
:1031100090913105880F892B809331058091140699
:10312000813061F410921406809131058093BB00C8
:103130008091BC0083FDF8CF85EC01C085EE8093C3
:10314000BC00809116068130E1F38091530586170B
:1031500010F460915305A2E3B5E021E135E0F901F7
:103160008E2F821B861718F48D918193F9CF862FAD
:10317000089590E0FC01E85EF04F2491FC01EC5FC3
:10318000F04F8491882399F090E0880F991FFC01FB
:10319000E650F14FA591B491FC01E051F14F8591BA
:1031A00094918FB7F894EC91E22BEC938FBF089534
:1031B000CF93DF93CDB7DEB7CE54D1090FB6F894D5
:1031C000DEBF0FBECDBF789484B5826084BD84B568
:1031D000816084BD85B5826085BD85B5816085BD12
:1031E00080916E00816080936E00109281008091CA
:1031F0008100826080938100809181008160809352
:103200008100809180008160809380008091B10076
:1032100084608093B1008091B00081608093B000A1
:1032200080917A00846080937A0080917A00826035
:1032300080937A0080917A00816080937A008091F7
:103240007A00806880937A001092C10081E491E452
:10325000A0E022968DAF9EAFAFAF22978DE00E9487
:10326000B91887E00E94B91886E00E94B91885E075
:103270000E94B91884E00E94B918E0918705F09186
:10328000880582E08083E0918305F09184051082B7
:10329000E0918505F091860580E1808310928F058D
:1032A000E0918B05F0918C0586E08083E0918905A3
:1032B000F0918A05808180618083E0918905F09199
:1032C0008A05808188608083E0918905F0918A0574
:1032D000808180688083E0918905F0918A058081F2
:1032E0008F7D80830E94290DC090BC03D090BD03C8
:1032F000E090BE03F090BF0323E73EE03093C103AC
:103300002093C003C092B803D092B903E092BA03ED
:10331000F092BB03672B682B692B29F40E94290DBF
:10332000DD24D39403C00E94290DD12C0E94290DC5
:103330008091C2039091C303029759F08FEE91E000
:103340000E94C0176EE872E087E795E00E94890A44
:1033500018C083ED91E00E94C0176EE872E087E725
:1033600095E00E94890A8AEC91E00E94C0170E94B1
:10337000290D0E9475116FE872E087E795E00E94C1
:103380009E0ABE01615C7F4F80E591E00E942A1099
:103390006FE370E06C0F7D1F6F5F7F4F81E591E001
:1033A0000E942A10BE01615C7F4FCE0101960E94EF
:1033B0006D0A8D819E81892B49F061E972E08981D6
:1033C0009A810E94642C11E0892B09F010E0CE0153
:1033D00001960E94680A112309F446C0BE01615C8F
:1033E0007F4FCE0101960E946D0A80E090E00E941E
:1033F000E81788EC91E00E94C0174D815E816981D9
:103400007A8187E795E00E94C1078BEA91E00E94EC
:10341000C017CE0101960E94680A84E991E00E94DB
:10342000C0170E942E130E94D0120E9476120E9492
:10343000C9100E9434106CEA74E087ED91E00E949C
:1034400020101091AC0485E891E00E94C017812FF4
:103450000E94E11783E891E00E94C01734EFE32E49
:1034600033E0F32E10E003C00E942616F7CFD701F9
:1034700012966D917D918D919C9115970E94751179
:10348000F701A080B1808EE691E00E94C017812FE5
:103490000E94E1178FE591E00E94C017C5010E94CC
:1034A000E8178DE591E00E94C0171F5FF6E0EF0E70
:1034B000F11C1830E1F624ECE22E23E0F22E10E0AD
:1034C000D70112966D917D918D919C9115970E94D7
:1034D0007511F701A080B18087E491E00E94C017C8
:1034E000812F0E94E11788E391E00E94C017C50177
:1034F0000E94E81786E391E00E94C0171F5FF6E084
:10350000EF0EF11C1830E1F606E512E094E0F92E1A
:10351000F00E61E0D8018D918D010E94F80A6AEFEA
:1035200070E080E090E00E94440BF012F2CFDD20CA
:1035300009F468C184EF90E00E94C01780E1E6E4DE
:10354000F2E0DE01919601900D928A95E1F70E94DA
:10355000290D6B017C010E94FC0F809129048EAB28
:10356000C701B6010E94FC0F809128048DABC701F2
:10357000B6010E94FC0F80912A048FAB7E01B8E354
:10358000EB0EF11C03ED11E0C8010E948929F7013F
:1035900081937F010F5F1F4F073DF1E01F07A1F7E8
:1035A00080EE90E00E94C01768AD79AD8AAD9BAD0A
:1035B0000E9475118EED90E00E94C0178E010F5F82
:1035C0001F4F580120E030E0F901E05BFE4FC28060
:1035D000D380E480F580C701B6012F962FAF2F97D7
:1035E0002E963FAF2E970E94FC0F809126048BAB46
:1035F000C701B6010E94FC0F809125048AABC70168
:10360000B6010E94FC0F8091240489ABCE01C196C3
:103610000E94B30D2F962FAD2F972E963FAD2E976C
:10362000F901E050FF4F6283738384839583D50152
:103630006D937D938D939D935D01F901E051FE4F54
:1036400011821082F901E056FE4F11821082265F2E
:103650003F4F2035310509F0B7CF87E090E0FE01FC
:10366000319620E030E028173907DCF44191519180
:1036700061917191C080D180E280F380C416D5063B
:10368000E606F70658F4DF011497CD92DD92ED922D
:10369000FC92139740835183628373832F5F3F4F64
:1036A000E2CF0197E1F6FE01B1969F01D8014D915D
:1036B0005D916D917D918D01A0E0B1E080E090E0A1
:1036C0001296CD90DD90ED90FC9015974C155D0510
:1036D0006E057F0511F49183808301961A968830D8
:1036E000910571F732960217130701F7FE01F19663
:1036F0006F0106E4A02EB12C8AE0382ED6019E90F0
:103700008E906D01389C7001399CF00C1124F701EA
:10371000E050FF4F42805380648075800E94290DE5
:10372000461657066806790608F063C08701005BF5
:103730001E4FF801808591858835910599F40E9486
:103740005D148AE0889DF001899DF00D1124E05BF5
:10375000FE4F808591850E94E81789EC90E00E94D9
:10376000C01750C08336910551F3608071808BEB98
:1037700090E00E94C017C4010E94E81781EB90E01E
:103780000E94C017C3010E94E8178FEA90E00E94D0
:10379000C017F80162817381848195810E9475113F
:1037A000D8018D919C91019701F5F701E051FE4FF1
:1037B0008681978181309105C1F49183808389E965
:1037C00090E00E94C017F80182819381A481B581A5
:1037D00080589E4AAE4FBF4F82839383A483B583A4
:1037E000B801C5010E942A1404C088E690E00E9436
:1037F000C017FAE0AF1AB10826EFA2162FEFB206F3
:1038000009F07CCF8091AB048111BBC200E511E0CF
:10381000E12CF12CD12CD8018D919C91119701971D
:1038200009F05BC018968D919C911997CC970CF07C
:1038300054C08091AB04811150C00E94290DF80141
:1038400082809380A480B580861A970AA80AB90A54
:10385000F2E18F169104A104B10408F0C9C08BEA0B
:1038600093E00E94C0174AE0C501B4010E944417CA
:1038700086EA93E00E94C0178FE993E00E94C01788
:103880008D2D0E94E11783E993E00E94C017D801B3
:1038900018968D919C9119972AE0289FF001299FF5
:1038A000F00D1124E051FE4F8D919C911197918361
:1038B000808312968D919D910D90BC91A02D805882
:1038C0009E4AAE4FBF4FF80182839383A483B58392
:1038D000B801C7010E942A148BC00E94290DD8018B
:1038E00012968D909D90AD90BC901597861A970A70
:1038F000A80AB90ABAE08B169104A104B10408F031
:1039000077C0F80180819181019709F071C08085AD
:1039100091858835910509F06BC086E693E00E9499
:10392000C0178FE593E00E94C0178D2D0E94E1170C
:1039300083E593E00E94C01780E593E00E94C017E2
:103940004AE0C501B4010E9444178BE493E00E9451
:10395000C01788E393E00E94C017F8018281938129
:10396000A481B58180589E4AAE4FBF4F8283938316
:10397000A483B583B801C7010E942A1481E293E0B1
:103980000E94C01720E030E0F901E051FE4F1182A3
:103990001082F901E056FE4F11821082265F3F4FE0
:1039A0002035310589F788E093E00E94C01761E077
:1039B00087E00E94F80A61E086E00E94F80A61E070
:1039C00085E00E94F80A61E084E00E94F80A81E044
:1039D0008093AB048FEF92E00E94C0170E94290DE4
:1039E0000E94290D0E94751181ED92E00E94C0177E
:1039F000D394065F1F4FFAE0EF0EF11C20E5E216AC
:103A0000F10409F008CFE0EFAE2EE1E0BE2EF0EABF
:103A1000EF2EF1E0FF2EA8E48A2EA6E09A2EB4EF56
:103A2000CB2EB3E0DB2E14EC212E13E0312E370128
:103A300085012C961FAE2C97D8018D919C911197E2
:103A4000019709F0A4C08091AB048111A0C0189621
:103A5000ED91FC911997EA5AFD4F60E080810E9438
:103A6000F80A0E947E0BF40120813181428153814A
:103A7000DC01CB01821B930BA40BB50B893E934059
:103A8000A105B10508F483C0F60182819381A48168
:103A9000B5810196A11DB11D82839383A483B58353
:103AA0008091AC048130A9F5D80118964D905C90B6
:103AB0001997F201EA5AFD4F208187EC92E02F9688
:103AC0002FAF2F970E94C0172C968FAD2C970E9476
:103AD000E1178CEB92E00E94C017C2010E94E81728
:103AE0008AEB92E00E94C0172F962FAD2F97822F5E
:103AF0000E94E11788EB92E00E94C017F6016281F4
:103B00007381848195810E94E21081E992E00E9494
:103B1000C0170E947E0BD4016D937D938D939C936F
:103B20001397F6014281538164817581F801828186
:103B30009381A481B581481759076A077B0738F13B
:103B400081E892E00E94C0172C968FAD2C970E94BE
:103B5000E1178FE692E00E94C017D80111961C92DF
:103B60001E9221E030E0F301318320831896ED911D
:103B7000FC911997EA5AFD4F61E080810E94F80A92
:103B8000D10112961D921D921D921C9215972C9692
:103B90002FAD2C972F5F2C962FAF2C97065F1F4FC2
:103BA0003AE0630E711C86E0280E311C94E0890E09
:103BB000911CA6E0CA0ED11C283009F03DCF68E266
:103BC000C62E66E0D62E04EC13E074EF872E73E069
:103BD000972E512CF70180819181019709F096C0B1
:103BE0008091AB04811192C00084F185E02DEA5AE6
:103BF000FD4F61E080810E94F80A0E947E0BD60191
:103C00002D913D914D915C91DC01CB01821B930B79
:103C1000A40BB50B893E9340A105B10508F476C00D
:103C2000F80182819381A481B5810196A11DB11D06
:103C300082839383A483B5838091AC04813089F51A
:103C4000D7011896ED91FC911997EA5AFD4F4080E3
:103C5000F5016084718484E692E00E94C017852D8E
:103C60000E94E11789E592E00E94C017C3010E94FB
:103C7000E81787E592E00E94C017842D0E94E117A3
:103C800085E592E00E94C017D80112966D917D9152
:103C90008D919C9115970E94E2108EE292E00E9415
:103CA000C0170E947E0BF601608371838283938329
:103CB000D80112964D915D916D917C911597F70108
:103CC00082819381A481B581481759076A077B07D0
:103CD000E8F08EE192E00E94C017852D0E94E11766
:103CE0008BE092E00E94C017D7011D921C92F50153
:103CF000868197818130910549F491838083D40135
:103D000012961D921D921D921C9215975394BAE023
:103D1000EB0EF11CEAE0AE0EB11CF6E08F0E911C2A
:103D200024E0C20ED11C0A5F1F4F38E0531252CF5D
:103D30000E947E0B00916C0610916D0620916E061C
:103D400030916F06DC01CB01801B910BA20BB30BF2
:103D5000893E9340A105B105B0F06091AD0481E0CA
:103D600068276093AD048DE00E94F80A0E947E0BE4
:103D700060936C0670936D0680936E0690936F0649
:103D800002C00E945D149E012F5F3F4F790100E049
:103D900010E00E947E0B60937F05709380058093F6
:103DA000810590938205E0917705F0917805028472
:103DB000F385E02D87E795E0099597FD09C0D701C8
:103DC0008D937D010F5F1F4F0E31110511F71DC03F
:103DD0000E947E0B80907F0590908005A0908105C9
:103DE000B0908205DC01CB0188199909AA09BB09A9
:103DF00080907B0590907C05A0907D05B0907E051D
:103E000088159905AA05BB0570F2E1E0F0E0EC0F1A
:103E1000FD1FE00FF11F108260E972E0CE018B5BA5
:103E20009F4F0E946D0A64E972E0CE01CF960E9416
:103E30006D0A6DE972E0CE0101960E9449297C016C
:103E4000BC01CE018B5B9F4F0E94470A2796CEACE8
:103E5000DFAC2797C114D10409F444C02B960EADF2
:103E60001FAD2B9701151105E9F146015401BFEF74
:103E70008B1A9B0AF5018081082E000C990B0E9479
:103E80007D29892B99F7015011090C0D1D1DD801B1
:103E90008C91082E000C990B0E947D29892B89F4A6
:103EA000A8014F5F5F4F4A195B092B965FAF4EAF7A
:103EB0002B97CA14DB0458F4B501C6010E945B2C91
:103EC00006C00A151B0560F301501109E0CF2796C3
:103ED000EEADFFAD27972B968EAD9FAD2B97E80FDC
:103EE000F91F108261EA72E0CE0181960E946D0A8C
:103EF000BE016F5D7F4FCE018B5B9F4F0E94F70924
:103F00008C01CE0181960E94680A17FD0EC08CE4D8
:103F10009CE00E94C0170E94290D0E9475118AE43E
:103F20009CE00E94C01701E001C000E069EA72E075
:103F3000CE0181960E946D0ABE016F5D7F4FCE015A
:103F40008B5B9F4F0E94F7096C01CE0181960E9406
:103F5000680A10E0D7FCFCC0E114F10401F16DE93E
:103F600072E080E090E00E9449297C010E942B29A8
:103F7000FE013196E10FF11DE10FF11D91A380A328
:103F80000E94E81786E49CE00E94C017812F0E94DF
:103F9000E11784E49CE00E94C0171F5FDDCF8DA174
:103FA0008CAF8BA18DAF89A1825B8EAF8FA18AAFC1
:103FB00089A589AF8BA588AFCE01C8960E94B30DA5
:103FC0004B015C01AE014F5C5F4F0E942B0FCC2474
:103FD000C394C092550558E6D52ED092760510921E
:103FE00018061092170660E08BE196E00E947A09AD
:103FF00029A90AE0822F602F0E94F029682F660FFE
:10400000860F682F660F620F8BE196E00E947A0997
:104010002AA9822F602F0E94F029682F660F860F31
:10402000682F660F620F8BE196E00E947A092BA938
:10403000822F602F0E94F029682F660F860F682F4D
:10404000660F620F8BE196E00E947A096CA98BE102
:1040500096E00E947A092DA9822F602F0E94F029F4
:10406000682F660F860F682F660F620F8BE196E050
:104070000E947A092EA9822F602F0E94F029682FB2
:10408000660F860F682F660F620F8BE196E00E9425
:104090007A092FA92E51822F602F0E94F029682FB4
:1040A000660F860F880F682F620F8BE196E00E94E3
:1040B0007A0981E00E941818C0925505D0927605C1
:1040C00010921806109217066FE08BE196E00E949E
:1040D0007A0981E00E94181881110FC061E088E61A
:1040E0000E94751810921A06809319068BE196E0CB
:1040F0000E942E092D968FAF2D9781E08093550554
:1041000088E68093760510921806109217066FE0E5
:104110008BE196E00E947A092D966FAD2D976F770F
:104120008BE196E00E947A0981E00E941818C5018F
:10413000B4010E94020D83E39CE00E94C017C501F8
:10414000B4010E94751181E39CE00E94C01701E058
:1041500061EB72E0CE01C1960E946D0ABE016F5CF8
:104160007F4FCE018B5B9F4F0E94F7096C01CE0100
:10417000C1960E94680AD7FC90C0E114F10499F03E
:104180006DE972E080E090E00E9449297C010E9484
:104190002B29FE013196E10FF11DE10FF11D91A3D5
:1041A00080A31F5FEACF89A09AA08AE0889D500172
:1041B000899DB00C1124F501E051FE4F6F0189A5D6
:1041C0009AA5978386838BA59CA59187808711826A
:1041D000108281E08CAF8DAF1EAE8BA18AAF8DA116
:1041E00089AF8FA188AFCE01C8960E94B30DD601CA
:1041F00012966D937D938D939C931597B0E5AB0EBE
:10420000B11CB601C5010E942A1483E09CE00E9403
:10421000C01788EF9BE00E94C017C4010E94E817F6
:104220008FEE9BE00E94C017F6016281738184814A
:1042300095810E94E210D60116968D909C9017975A
:1042400018966D907C901997CD90DC9086EE9BE04F
:104250000E94C017C6010E94E8178EED9BE00E94E5
:10426000C017C3010E94E81781ED9BE00E94C017B0
:10427000C4010E94E81787EB9BE00E94C017C501AC
:104280000E94E81785EB9BE00E94C0170E94D012A5
:1042900087E89BE00E94C01701E06CEB72E0CE0162
:1042A000C1960E946D0ABE016F5C7F4FCE018B5B91
:1042B0009F4F0E94F7096C01CE01C1960E94680AC7
:1042C000D7FC96C0E114F10499F06DE972E080E04A
:1042D00090E00E9449297C010E942B29FE01319621
:1042E000E10FF11DE10FF11D91A380A31F5FEACF44
:1042F00089A09AA08AE0889D5001899DB00C112464
:10430000F501E056FE4F6F0189A59AA59783868334
:104310008BA59CA5918780871182108281E08CAF4C
:104320008DAF1EAE8BA18AAF8DA189AF8FA188AF53
:10433000CE01C8960E94B30DD60112966D937D935F
:104340008D939C931597B0EAAB0EB11CB601C501D5
:104350000E942A146AE070E080E090E00E94440B22
:1043600089E59BE00E94C0178DE49BE00E94C01786
:10437000C4010E94E81784E49BE00E94C017F60184
:1043800062817381848195810E94E210D601169624
:104390008D909C90179718966D907C901997CD9062
:1043A000DC908BE39BE00E94C017C6010E94E817D7
:1043B00083E39BE00E94C017C3010E94E81786E2D6
:1043C0009BE00E94C017C4010E94E8178CE09BE0AC
:1043D0000E94C017C5010E94E8178AE09BE00E9476
:1043E000C0170E9476128CED9AE00E94C01701E07F
:1043F00068EC72E0CE01C1960E946D0ABE016F5C4E
:104400007F4FCE018B5B9F4F0E94F7096C01CE015D
:10441000C1960E94680AD7FCA6C0E114F10499F085
:104420006DE972E080E090E00E9449297C010E94E1
:104430002B29FE013196E10FF11DE10FF11D91A332
:1044400080A31F5FEACF89A09AA08AE0889D5001CF
:10445000899DB00C1124F501E05BFE4F6F0189A529
:104460009AA5978386838BA59CA5918780871182C7
:1044700010820E94290D2B013C010E94FC0F8091AB
:1044800029048DAFC301B2010E94FC0F8091280462
:104490008CAFC301B2010E94FC0F80912A048EAF41
:1044A0008BA18AAF8DA189AF8FA188AFCE01C896AD
:1044B0000E94B30DD60112966D937D938D939C93BC
:1044C0001597B601C5010E942A146AE070E080E0E9
:1044D00090E00E94440B8EEA9AE00E94C01786EAA0
:1044E0009AE00E94C017C4010E94E8178DE99AE083
:1044F0000E94C017F60162817381848195810E94B8
:10450000E210D60116968D909C90179718966D9094
:104510007C901997CD90DC9084E99AE00E94C017B6
:10452000C6010E94E81789E89AE00E94C017C301FB
:104530000E94E81780E89AE00E94C017C4010E9418
:10454000E81786E69AE00E94C017C5010E94E817A6
:1045500084E69AE00E94C0170E942E1386E39AE038
:104560000E94C01701E061ED72E0CE01C1960E9489
:104570006D0ABE016F5C7F4FCE018B5B9F4F0E9427
:10458000F7096C01CE01C1960E94680AD7FC86C06B
:10459000E114F10499F06DE972E080E090E00E948E
:1045A00049297C010E942B29FE013196E10FF11D62
:1045B000E10FF11D91A380A31F5FEACF89A09AA00C
:1045C0002AE0289DC001299D900D1124FC01E05195
:1045D000FE4F6F012BA13CA1318320835C01F0E5EC
:1045E000AF0EB11CB601C5010E942A146AE070E04A
:1045F00080E090E00E94440B88E09AE00E94C0179F
:104600006AED72E087E795E00E949E0AC4010E946D
:10461000E81762EE72E087E795E00E949E0AD601F5
:1046200012966D917D918D919C9115970E94E2104B
:10463000F6018680978060847184C080D1806BEEA3
:1046400072E087E795E00E949E0AC6010E94E81783
:1046500064EF72E087E795E00E949E0AC3010E9422
:10466000E8176FEF72E087E795E00E949E0AC401A9
:104670000E94E81768E073E087E795E00E949E0AD1
:10468000C5010E94E8176FE872E087E795E00E9495
:104690009E0A8AED99E00E94C01701E062E273E091
:1046A000CE01C1960E946D0ABE016F5C7F4FCE01A4
:1046B0008B5B9F4F0E94F7096C01CE01C1960E944F
:1046C000680AD7FC7DC0E114F10499F06DE972E04D
:1046D00080E090E00E9449297C010E942B29FE0184
:1046E0003196E10FF11DE10FF11D91A380A31F5F32
:1046F000EACF89A09AA02AE0289DC001299D900DAB
:1047000011249C0120563E4F69012BA13CA1D601EA
:104710002D933C935C01B0E5AB0EB11CB601C50115
:104720000E942A146AE070E080E090E00E94440B4E
:104730008CEA99E00E94C01780EA99E00E94C017B5
:10474000C4010E94E81787E999E00E94C017F601AA
:1047500062817381848195810E94E210D601169650
:104760008D909C90179718966D907C901997CD908E
:10477000DC908EE899E00E94C017C6010E94E817FD
:1047800083E899E00E94C017C3010E94E8178AE7F6
:1047900099E00E94C017C4010E94E81780E699E0E2
:1047A0000E94C017C5010E94E8178EE599E00E949B
:1047B000C0170E94761280E399E00E94C01701E0C2
:1047C0006EE273E0CE01C1960E946D0ABE016F5C7D
:1047D0007F4FCE018B5B9F4F0E94F7096C01CE018A
:1047E000C1960E94680AD7FC76C0E114F10499F0E2
:1047F0006DE972E080E090E00E9449297C010E940E
:104800002B29FE013196E10FF11DE10FF11D91A35E
:1048100080A31F5FEACF89A09AA08AE0889D5001FB
:10482000899DB00C1124F501E05BFE4F6F018BA157
:104830009CA191838083BF01C5010E942A146AE074
:1048400070E080E090E00E94440B82E099E00E94DA
:10485000C0178AEF98E00E94C017C4010E94E817B1
:1048600081EF98E00E94C017D60112966D917D915C
:104870008D919C9115970E94E210F6018680978099
:1048800060847184C080D18088EE98E00E94C01757
:10489000C6010E94E8178DED98E00E94C017C30181
:1048A0000E94E81784ED98E00E94C017C4010E949E
:1048B000E8178AEB98E00E94C017C5010E94E8172C
:1048C00088EB98E00E94C0170E942E138AE898E0B7
:1048D0000E94C01701E067E373E0CE01C1960E9419
:1048E0006D0ABE016F5C7F4FCE018B5B9F4F0E94B4
:1048F000F7096C01CE01C1960E94680AD7FC44C03A
:10490000E114F10499F06DE972E080E090E00E941A
:1049100049297C010E942B29FE013196E10FF11DEE
:10492000E10FF11D91A380A31F5FEACF0BA1CCA0E3
:10493000E9A1FAA1EA5AFD4FD080602F8D2D0E9487
:10494000F80A8CE598E00E94C0178DE498E00E9478
:10495000C017812F0E94E11786E498E00E94C017DB
:104960008D2D0E94E11788E398E00E94C017802FE8
:104970009C2D0E94E81786E398E00E94C01788E00B
:1049800098E00E94C01701E060E473E0CE01C19698
:104990000E946D0ABE016F5C7F4FCE018B5B9F4F03
:1049A0000E94F7096C01CE01C1960E94680AD7FCEB
:1049B000F6C08AED97E00E94C0176DE972E080E0D2
:1049C00090E00E9449297C01DC018C91082E000CAA
:1049D000990BC0970A9708F0C9C0C7010E942B29FC
:1049E0005C019AA389A30AE00A9DC0010B9D900D6A
:1049F0001124FC01E05BFE4F6F01628173818481B1
:104A000095810E947511D60116968D909C901797EE
:104A100018966D907C9019974D905C908FEC97E074
:104A20000E94C017C5010E94E81780EC97E00E9421
:104A3000C017C2010E94E81788EB97E00E94C017D8
:104A4000C3010E94E8178FEA97E00E94C017C401D3
:104A50000E94E8178DEA97E00E94C017F601808552
:104A60009185089FF001099FF00D1124E051FE4F40
:104A700062817381848195810E94E210D60118962B
:104A80002D903C901997029DF001039DF00D11248B
:104A9000E051FE4F86809780608471844080518011
:104AA0008FE997E00E94C017C1010E94E81780E9D2
:104AB00097E00E94C017C2010E94E81788E897E0BB
:104AC0000E94C017C3010E94E8178BE797E00E947D
:104AD000C017C4010E94E81789E797E00E94C01739
:104AE000F60180859185089FF001099FF00D112442
:104AF000E056FE4F62817381848195810E94E210AD
:104B0000D6011896CD90DC9019970C9DF0010D9D63
:104B1000F00D1124E056FE4F8680978060847184EA
:104B2000408051808AE697E00E94C017C6010E942B
:104B3000E8178BE597E00E94C017C2010E94E817B2
:104B400083E597E00E94C017C3010E94E81786E43E
:104B500097E00E94C017C4010E94E81784E497E020
:104B60000E94C0178A2D0E94921014C00E942E131A
:104B700087E197E00E94C0170E94D0128AEE96E06B
:104B80000E94C0170E9476128DEB96E00E94C0171B
:104B90000E94C9108FE896E00E94C01701E06EE401
:104BA00073E0CE01C1960E946D0ABE016F5C7F4F1B
:104BB000CE018B5B9F4F0E94F7096C01CE01C1961D
:104BC0000E94680AD7FC29C0E114F10499F06DE94C
:104BD00072E080E090E00E9449297C010E942B292C
:104BE000FE013196E10FF11DE10FF11D91A380A3AC
:104BF0001F5FEACF81E696E00E94C01788E496E046
:104C00000E94C0170E94261685E396E00E94C017F6
:104C100087E096E00E94C01701E063E673E0CE01F2
:104C2000C1960E946D0ABE016F5C7F4FCE018B5B07
:104C30009F4F0E94F7096C01CE01C1960E94680A3D
:104C4000D7FC17C06BE187E795E00E94540869E63E
:104C500073E087E795E00E949E0A6BE187E795E0A5
:104C60000E9454086DE673E087E795E00E949E0A73
:104C700001E060E773E0CE01C1960E946D0ABE01BB
:104C80006F5C7F4FCE018B5B9F4F0E94F7096C01D9
:104C9000CE01C1960E94680AD7FC9AC0E114F104C3
:104CA00021F16DE972E080E090E00E9449297C01E9
:104CB000FC018081082E000C990B0E94532C892B3B
:104CC00039F0B701CE018B5B9F4F0E94470A0BC0A2
:104CD000C7010E942B29FE013196E10FF11DE10F62
:104CE000F11D91A380A31F5FD9CF8DA19EA1C9A063
:104CF000DAA0BE016B5B7F4F019789F4CE01CF969E
:104D00000E94F709F601ED55FB4F20E830E002C0A4
:104D1000359527958A95E2F78081282B20C0CE0112
:104D2000CF960E94F709F601ED55FB4FAC014750B5
:104D30005109477055272EEF30E0B90102C0759533
:104D400067954A95E2F747E050E0DA01A81BB90BF6
:104D500001C0220FAA95EAF7262B80812823208301
:104D6000F601ED55FB4F5F01BF01C6018E5A9E4F04
:104D70000E94DF1389ED95E00E94C01780EC95E05A
:104D80000E94C017C6010E94E81783EB95E00E94BD
:104D9000C01734E9C32E32E0D32E00E040E8942E51
:104DA000D5018C91892119F0F601608101C06FE570
:104DB00087E795E00E94820A0F5F9694FFEFCF1A73
:104DC000DF0A083069F785E895E00E94C01701E026
:104DD0006EE773E0CE01C1960E946D0ABE016F5C62
:104DE0007F4FCE018B5B9F4F0E94F7096C01CE0174
:104DF000C1960E94680AD7FC22C087E595E00E9410
:104E0000C0176DE972E080E090E00E9449297C01C2
:104E1000DC018C91082E000C990BC0970A9740F486
:104E2000C7010E942B2989A39AA30E94921002C055
:104E30000E94C91089E295E00E94C01701E060E974
:104E400073E0CE01C1960E946D0ABE016F5C7F4F78
:104E5000CE018B5B9F4F0E94F7096C01CE01C1967A
:104E60000E94680AD7FC69C0E114F10499F06DE969
:104E700072E080E090E00E9449297C010E942B2989
:104E8000FE013196E10FF11DE10FF11D91A380A309
:104E90001F5FEACFA9A0BAA0C501880F991F880F8C
:104EA000991FFC01E55DFB4F2BA120832DA12183E0
:104EB0002FA1228321E039A5311101C020E02383F5
:104EC000FC01E55DFB4F6F01BF018AE591E00E94A7
:104ED000F713D60113960C91139712969C90129784
:104EE00011968C901197DC908FE195E00E94C0178D
:104EF000C5010E94E81786E195E00E94C0178D2D3C
:104F00000E94E11784E195E00E94C017882D0E945D
:104F1000E11782E195E00E94C017892D0E94E117F8
:104F20008EEF94E00E94C017802F90E00E94E81757
:104F30008CEF94E00E94C01701E06BE973E0CE01B2
:104F4000C1960E946D0ABE016F5C7F4FCE018B5BE4
:104F50009F4F0E94F7096C01CE01C1960E94680A1A
:104F6000D7FC0BC08EEC94E00E94C0170E94341056
:104F700080EA94E00E94C01701E06BEA73E0CE0182
:104F8000C1960E946D0ABE016F5C7F4FCE018B5BA4
:104F90009F4F0E94F7096C01CE01C1960E94680ADA
:104FA000D7FC38C0EF2899F06DE972E080E090E01E
:104FB0000E9449297C010E942B29FE013196E10FB4
:104FC000F11DE10FF11D91A380A31F5FEBCF19A18C
:104FD0000AA11093AC046CEA74E087ED91E00E94A2
:104FE000DF136AE070E080E090E00E94440B82E70B
:104FF00094E00E94C0178CE594E00E94C017812FB6
:10500000902F0E94E8178AE594E00E94C0178CE276
:1050100094E018C0011118C0E114F104A9F08EEF5A
:1050200093E00E94C01785EF93E00E94C017B7017C
:1050300087E795E00E949E0A8CED93E00E94C017DE
:105040008EEA93E00E94C017CE01CF960E94680AB4
:10505000CE018B5B9F4F0E94680A0E947E0B0091DD
:1050600068061091690620916A0630916B06DC0192
:10507000CB01801B910BA20BB30B81369A4EA1057D
:10508000B10578F10E94290D6B017C0169837A8357
:105090008B839C839E012F5F3F4F590103ED11E0ED
:1050A000D5016D915D011AA309A3CE0181960E94DD
:1050B0008C130F5F1F4F073DB1E01B0789F7C70136
:1050C000B6010E9475110E947E0B60936806709372
:1050D000690680936A0690936B0685E59CE00E94C2
:1050E000C0170E94BD080C94021CCF93DF9310924E
:1050F0007A051092790588EE93E0A0E0B0E0809305
:105100007B0590937C05A0937D05B0937E052EE6EC
:1051100032E0309378052093770525EC30E030932A
:1051200084052093830524EC30E03093860520939A
:10513000850520EC30E0309388052093870521EC2D
:1051400030E030938A052093890522EC30E03093DB
:105150008C0520938B0526EC30E030938E05209350
:105160008D05109290051092910510929205109263
:10517000930510921E0610921D0680931F069093B1
:105180002006A0932106B093220680E892E0909337
:105190001C0680931B0610921A0610921906109294
:1051A0001806109217061092160681E080931506D5
:1051B0001092140661E082E10E94F80A61E083E146
:1051C0000E94F80A8091B9008E7F8093B900809187
:1051D000B9008D7F8093B90088E48093B80085E49E
:1051E0008093BC000E947E0B6093700670937106E2
:1051F00080937206909373060E947E0B60936C06F8
:1052000070936D0680936E0690936F060E947E0BDE
:10521000609368067093690680936A0690936B06A4
:10522000C8E4D6E00E947E0B6993799389939993A1
:1052300086E0C836D807B1F7C8E2D6E00E947E0BF8
:10524000699379938993999386E0C834D807B1F725
:10525000DF91CF910895FC0188279927E894219147
:105260002032E9F3293010F02E30C8F32B3241F010
:105270002D3239F4689404C00E947529820F911D63
:10528000219120532A30C0F31EF4909581959F4FB1
:10529000089544E756E00E944E290895FA01A1912D
:1052A000B081009719F41097E1F0CD01DC01CD0138
:1052B0000D90002011F4C00113C0FB0121912223A5
:1052C00019F02015D9F7F3CFFB012191201519F41E
:1052D0001E92119606C02223C1F70D900020A1F75F
:1052E000D001FA01A193B08308957AE0979F902DA1
:1052F000879F802D910D1124089591110C9486297A
:10530000803219F089508550C8F708959927882769
:105310000895F999FECF92BD81BDF89A992780B57D
:105320000895262FF999FECF1FBA92BD81BD20BDE9
:105330000FB6F894FA9AF99A0FBE019608950E9452
:10534000E129A59F900DB49F900DA49F800D911D04
:10535000112408952F923F924F925F926F927F9205
:105360008F929F92AF92BF92CF92DF92EF92FF9275
:105370000F931F93CF93DF93CDB7DEB7CA1BDB0B21
:105380000FB6F894DEBF0FBECDBF09942A883988C6
:1053900048885F846E847D848C849B84AA84B984CD
:1053A000C884DF80EE80FD800C811B81AA81B981D9
:1053B000CE0FD11D0FB6F894DEBF0FBECDBFED01ED
:1053C0000895A29FB001B39FC001A39F700D811DDE
:1053D0001124911DB29F700D811D1124911D0895FE
:1053E000991B79E004C0991F961708F0961B881F37
:1053F0007A95C9F78095089597FB072E16F40094C7
:1054000007D077FD09D00E943A2A07FC05D03EF468
:10541000909581959F4F0895709561957F4F089560
:10542000A1E21A2EAA1BBB1BFD010DC0AA1FBB1FA8
:10543000EE1FFF1FA217B307E407F50720F0A21B1A
:10544000B30BE40BF50B661F771F881F991F1A9487
:1054500069F760957095809590959B01AC01BD01B1
:10546000CF010895B7FF0C949F290E949F29821BAA
:10547000930B0895AA1BBB1B51E107C0AA1FBB1FBA
:10548000A617B70710F0A61BB70B881F991F5A95D0
:10549000A9F780959095BC01CD010895EE0FFF1FEF
:1054A0000590F491E02D0994CF93DF93823091051C
:1054B00010F482E090E0E0917806F091790620E027
:1054C00030E0C0E0D0E0309711F1408151814817C1
:1054D0005907C0F04817590761F4828193812097DA
:1054E00019F09B838A832BC090937906809378066A
:1054F00026C02115310519F04217530718F49A01F7
:10550000BE01DF01EF010280F381E02DDCCF211528
:10551000310509F1281B390B2430310590F412961E
:105520008D919C9113976115710521F0FB01938377
:10553000828304C09093790680937806FD013296A9
:1055400044C0FD01E20FF31F819391932250310972
:105550002D933C933AC02091760630917706232B09
:1055600041F4209142023091430230937706209318
:10557000760620914002309141022115310541F417
:105580002DB73EB74091440250914502241B350B84
:10559000E0917606F0917706E217F307A0F42E1B50
:1055A0003F0B2817390778F0AC014E5F5F4F241787
:1055B000350748F04E0F5F1F5093770640937606ED
:1055C0008193919302C0E0E0F0E0CF01DF91CF91B1
:1055D00008950F931F93CF93DF93009709F48CC026
:1055E000FC0132971382128200917806109179069D
:1055F0000115110581F420813181820F931F2091C3
:105600007606309177062817390779F5F0937706F3
:10561000E093760671C0D80140E050E0AE17BF07B6
:1056200050F412962D913C911397AD01211531053F
:1056300009F1D901F3CF9D01DA013383228360811F
:105640007181860F971F8217930769F4EC012881F7
:105650003981260F371F2E5F3F4F318320838A8188
:105660009B8193838283452B29F4F0937906E09301
:10567000780642C01396FC93EE931297ED01499180
:1056800059919E01240F351FE217F30771F48081B1
:105690009181840F951F029611969C938E9382811F
:1056A000938113969C938E931297E0E0F0E0D801DB
:1056B00012968D919C911397009719F0F8018C0127
:1056C000F6CF8D919C9198012E5F3F4F820F931FD3
:1056D00020917606309177062817390769F43097BC
:1056E00029F4109279061092780602C01382128271
:1056F0001093770600937606DF91CF911F910F915B
:105700000895A0E0B0E0E7E8FBE20C94AE29EC01DC
:10571000009721F4CB010E94542AB8C0FC01E60F87
:10572000F71F9C0122503109E217F30708F4ACC0BF
:10573000D9010D911C91119706171707B0F005308C
:10574000110508F49FC0C80104978617970708F44D
:1057500099C002501109061B170B019311936D9309
:105760007C93CF010E94E92A8DC05B01A01AB10A87
:105770004C01800E911EA0917806B091790640E010
:1057800050E0E12CF12C109709F44AC0A815B90596
:10579000D1F56D907C901197630182E0C80ED11C09
:1057A000CA14DB0480F1A3014A195B096A0182E093
:1057B000C80ED11C1296BC9012971396AC91B5E00E
:1057C000CB16D10440F0B282A38351834083D90128
:1057D0006D937C930AC00E5F1F4FC301800F911F12
:1057E000F90191838083EB2DFA2FE114F10431F05C
:1057F000D7011396FC93EE93129744C0F093790669
:10580000E09378063FC08D919C91119748175907F6
:1058100008F4AC017D0112960D90BC91A02DB3CF80
:10582000809176069091770688159905E1F44617E0
:105830005707C8F48091400290914102009741F4CB
:105840008DB79EB74091440250914502841B950B41
:10585000E817F907C8F4F0937706E0937606F901A4
:10586000718360830FC0CB010E94542A7C01009792
:1058700059F0A801BE010E945B2CCE010E94E92ACA
:10588000C70104C0CE0102C080E090E0CDB7DEB712
:10589000EEE00C94CA2981E090E0F8940C948E2CF0
:1058A00085FD0C948629806291110C94862981567D
:1058B0008A51D8F70895FB01DC0102C001900D92D6
:1058C00041505040D8F70895FB01DC018D910190C3
:1058D00080190110D9F3990B0895FB01DC010190A7
:1058E0000D920020E1F70895FB0151915523A9F095
:1058F000BF01DC014D9145174111E1F759F4CD018C
:105900000190002049F04D9140154111C9F3FB0170
:105910004111EFCF81E090E001970895F894FFCF17
:105920000000007A495A000000000000007A495A3D
:10593000000000000000007A495A0000000000004A
:10594000007A495A000000000000007A495A00001D
:1059500000000000007A495A000000000000007AB0
:10596000495A000000000000647A495A0000000013
:105970000000027A495A000000000000037A495AE8
:10598000000000000000007A495A000000000000FA
:10599000057A495A000000000000087A495A0000C0
:1059A00000000000097A495A000000000000077A50
:1059B000495A000000000000067A495A0000000021
:1059C00000000A0000000000000000000A000000C3
:1059D0000000000000000A000000000000000000BD
:1059E0000A0000000000000000000A0000000000A3
:1059F000000000000A0000000000000000000A0093
:105A000000000000000000000A000000000000008C
:105A100000000A0000000000000000000A00000072
:105A20000000000000000A0000000000000000006C
:105A30000A0000000000000000000A000000000052
:105A4000000000000A0000000000000000000A0042
:105A500000000000000000000A000000000000003C
:105A600000007A068000000001000200030004002C
:105A700005000600070007060504070605041F1CAD
:105A80001F1E1F1E1F1F1E1F1E1F00000000540888
:105A9000C107EC079B081D08FB070F08000000006A
:105AA0007A094A09AA091E0942092E091F090D0A85
:105AB00000436800444C4D584A56532000203A2F6A
:105AC0000050727454696D650053657454696D6556
:105AD000005365744F6E54696D6572005365744F61
