:100000000C94A4070C94CC070C94CC070C94CC074C
:100010000C94CC070C94CC070C94CC070C94CC0714
:100020000C94CC070C94CC070C94CC070C94CC0704
:100030000C94CC070C94CC070C94CC070C94CC07F4
:100040000C94970B0C94CC070C94D30A0C94AD0A27
:100050000C94CC070C94CC070C94CC070C94CC07D4
:100060000C94E10B0C94CC0720627574206973200A
:10007000696E616374697665206F7220697473209C
:1000800074696D6572206973206E6F74207265707B
:1000900065617461626C650A00204C61756E63680D
:1000A000696E67206974732074696D65720A002037
:1000B00000204163746976653A2000466F756E646E
:1000C00020416C61726D3A20002046696E69736848
:1000D000656420726573746F72696E670A000A0046
:1000E0004C6173742074696D65207265636F72640E
:1000F00065642000436972637569742068617320C8
:1001000072657373657465642C20747279696E67A7
:1001100020746F20726573756D6520696E746572E9
:10012000727570746564206F7065726174696F6E4A
:10013000732E2E2E0A000A002054696D652E204170
:1001400063746976653D002054696D6572204F6661
:100150006620636F756E74646F776E20000A0020EE
:1001600054696D652E204163746976653D002054A5
:10017000696D6572204F6E20636F756E74646F7762
:100180006E20000A00566572626F73697479206987
:1001900073202000416C61726D7320696E666F2060
:1001A0006973206C6F616465640A00204550505289
:1001B0004F4D20616C726561647920696E69746964
:1001C000616C697A65640A00200054696D65206974
:1001D0007320005254432068617320736574207447
:1001E00068652073797374656D2074696D65005559
:1001F0006E61626C6520746F2073796E632077691D
:100200007468207468652052544300202E2E2E0AF4
:1002100000204F464620636F756E74646F776E20C2
:100220006F6E2052656C61792000205265616368B1
:1002300065642074696D65722000206973206163B4
:10024000746976652C20636865636B696E672069E5
:10025000747320636F756E74646F776E2E2E2E0A22
:100260000020003A00206F6E2052656C61792000FA
:1002700054696D6572204F66662000202E2E2E0A6E
:1002800000204F4E20636F756E74646F776E206F21
:100290006E2052656C61792000205265616368654B
:1002A000642074696D657220002069732061637435
:1002B0006976652C20636865636B696E6720697475
:1002C0007320636F756E74646F776E2E2E2E0A0026
:1002D00020003A00206F6E2052656C617920005436
:1002E000696D6572204F6E20000A2A2A2A2A2A2A5E
:1002F0002A2A2A2A2A2A2A2A2A2A2A2A2A2A2A2A5E
:100300002A2A2A2A2A2A2A2A2A2A2A2A2A2A2A2A4D
:100310002A2A2A2A2A0A0054696D65206973200056
:10032000537769746368696E672072656C6179736D
:10033000206F66662E2E2E0A0053657474696E67F0
:100340002074696D657273206F66662E2E2E0A000A
:10035000476F696E6720746F20736C6565702E2E11
:100360002E0A002E2E2E0A00743D00207261697341
:1003700065642E2E2E0A00416C61726D20002A2ABF
:100380002A2A2A2A2A2A2A2A2A2A2A2A2A2A2A2ACD
:100390002A2A2A2A2A2A2A2A2A2A2A2A2A2A2A2ABD
:1003A0002A2A2A2A2A2A2A2A2A0A002072616973FA
:1003B00065642E2E2E0A00416C61726D20002E2E77
:1003C0002E0A00743D000A2A2A2A2A2A2A2A2A2AC0
:1003D0002A2A2A2A2A2A2A2A2A2A2A2A2A2A2A2A7D
:1003E0002A2A2A2A2A2A2A2A2A2A2A2A2A2A2A2A6D
:1003F0002A2A0A00206973206E6F742061207661BA
:100400006C696420636F6D6D616E640A0057617280
:100410006E696E6720000A2A2A2A2A2A2A2A2A2A8C
:100420002A2A2A2A2A2A2A2A2A2A2A2A2A2A2A2A2C
:100430002A2A2A2A2A2A2A2A2A2A2A2A2A2A2A2A1C
:100440002A2A0A000A2A2A2A2A2A2A2A2A2A2A2A76
:100450002A2A2A2A2A2A2A2A2A2A2A2A2A2A2A2AFC
:100460002A2A2A2A2A2A2A2A2A2A2A2A2A2A2A2AEC
:100470000A000A0020566572626F736974792069F8
:10048000732073657420746F20000A2A2A2A2A2A8E
:100490002A2A2A2A2A2A2A2A2A2A2A2A2A2A2A2ABC
:1004A0002A2A2A2A2A2A2A2A2A2A2A2A2A2A2A2AAC
:1004B0002A2A2A2A2A2A0A000A2A2A2A2A2A2A2A06
:1004C0002A2A2A2A2A2A2A2A2A2A2A2A2A2A2A2A8C
:1004D0002A2A2A2A2A2A2A2A2A2A2A2A2A2A2A2A7C
:1004E0002A2A2A2A0A000A2A2A2A2A2A2A2A2A2AD6
:1004F0002A2A2A2A2A2A2A2A2A2A2A2A2A2A2A2A5C
:100500002A2A2A2A2A2A2A2A2A2A2A2A2A2A2A2A4B
:100510002A2A0A000A0020796561726C79207265C6
:100520007065617461626C6520002F002F00206986
:1005300073206E6F77200020486F6C79646179209A
:10054000000A2A2A2A2A2A2A2A2A2A2A2A2A2A2A55
:100550002A2A2A2A2A2A2A2A2A2A2A2A2A2A2A2AFB
:100560002A2A2A2A2A2A2A2A2A2A2A2A2A0A000A55
:100570002A2A2A2A2A2A2A2A2A2A2A2A2A2A2A2ADB
:100580002A2A2A2A2A2A2A2A2A2A2A2A2A2A2A2ACB
:100590002A2A2A2A2A2A2A2A2A2A2A0A000A2A2A25
:1005A0002A2A2A2A2A2A2A2A2A2A2A2A2A2A2A2AAB
:1005B0002A2A2A2A2A2A2A2A2A2A2A2A2A2A2A2A9B
:1005C0002A2A2A2A2A2A2A2A2A0A0020617265202F
:1005D00073657420746F20005765656B6C792044D7
:1005E00061796F66667320666F7220616C61726DEF
:1005F000000A2A2A2A2A2A2A2A2A2A2A2A2A2A2AA5
:100600002A2A2A2A2A2A2A2A2A2A2A2A2A2A2A2A4A
:100610002A2A2A2A2A2A2A2A2A2A2A2A2A0A000AA4
:100620002A2A2A2A2A2A2A2A2A2A2A2A2A2A2A2A2A
:100630002A2A2A2A2A2A2A2A2A2A2A2A2A2A2A2A1A
:100640002A2A2A2A2A2A2A2A2A2A2A0A00446F6EB1
:100650006520696E697469616C697A696E670A0000
:10066000496E697469616C697A696E6720416C6C66
:1006700020616C61726D730A000A2A2A2A2A2A2ACA
:100680002A2A2A2A2A2A2A2A2A2A2A2A2A2A2A2ACA
:100690002A2A2A2A2A2A2A2A2A2A2A2A2A2A2A2ABA
:1006A0002A2A2A2A2A0A000A2A2A2A2A2A2A2A2A14
:1006B0002A2A2A2A2A2A2A2A2A2A2A2A2A2A2A2A9A
:1006C0002A2A2A2A2A2A2A2A2A2A2A2A2A2A2A2A8A
:1006D0002A2A2A0A00202020202020202020202032
:1006E0003D2D3D2D3D2D3D2D3D2D3D2D3D2D3D2DBA
:1006F0003D202020202020202020202020202020DD
:100700000A0020202020202020202020203D2D3DD8
:100710002D3D2D3D2D3D2D3D2D3D2D3D2D3D2020B3
:10072000202020202020202020202020200A0020FF
:10073000202020202020202020203D2D3D2D3D2D3B
:100740003D2D3D2D3D2D3D2D3D2D3D2020202020BA
:10075000202020202020202020200A000A002052D3
:10076000657065617461626C653D002052656C6105
:10077000793D002054696D652E204163746976656A
:100780003D002069732054696D6572204F666620B4
:10079000000A002052657065617461626C653D00FD
:1007A0002052656C61793D002054696D652E2041B1
:1007B00063746976653D002069732054696D6572C4
:1007C000204F6E20000A002052616E646F6D3D0064
:1007D0002054696D65723D002054696D652E20417D
:1007E00063746976653D0020697320416C61726DA8
:1007F00020000A2A2A2A2A2A2A2A2A2A2A2A2A2AAD
:100800002A2A2A2A2A2A2A2A2A2A2A2A2A2A2A2A48
:100810002A2A2A2A2A2A2A2A2A2A2A2A2A2A0A0082
:100820000A2A2A2A2A2A2A2A2A2A2A2A2A2A2A2A48
:100830002A2A2A2A2A2A2A2A2A2A2A2A2A2A2A2A18
:100840002A2A2A2A2A2A2A2A2A2A2A2A0A000A009C
:1008500020204368616E67656420746F20005D200E
:1008600050696E20002052656C6179436F6E74721E
:100870006F6C5B000A2A2A2A2A2A2A2A2A2A2A2A6A
:100880002A2A2A2A2A2A2A2A2A2A2A2A2A2A2A2AC8
:100890002A2A2A2A2A2A2A2A2A2A2A2A2A2A2A2AB8
:1008A0000A000A2A2A2A2A2A2A2A2A2A2A2A2A2A12
:1008B0002A2A2A2A2A2A2A2A2A2A2A2A2A2A2A2A98
:1008C0002A2A2A2A2A2A2A2A2A2A2A2A2A2A0A00D2
:1008D0000A00205361766564206F6E2045455052B2
:1008E0004F4D206164647265737320002052616E05
:1008F000646F6D3D00204F6E2054696D65723D0040
:10090000204163746976653D002053657420746FDF
:10091000200020416C61726D20000A2A2A2A2A2AAE
:100920002A2A2A2A2A2A2A2A2A2A2A2A2A2A2A2A27
:100930002A2A2A2A2A2A2A2A2A2A2A2A2A2A2A2A17
:100940002A2A2A2A2A2A0A000A2A2A2A2A2A2A2A71
:100950002A2A2A2A2A2A2A2A2A2A2A2A2A2A2A2AF7
:100960002A2A2A2A2A2A2A2A2A2A2A2A2A2A2A2AE7
:100970002A2A2A2A0A000A00205361766564206F19
:100980006E20454550524F4D20616464726573730B
:1009900020002052616E646F6D3D00204F6E205428
:1009A000696D65723D00204163746976653D002084
:1009B00053657420746F20002054696D6572204F58
:1009C000666620000A2A2A2A2A2A2A2A2A2A2A2A63
:1009D0002A2A2A2A2A2A2A2A2A2A2A2A2A2A2A2A77
:1009E0002A2A2A2A2A2A2A2A2A2A2A2A2A2A2A2A67
:1009F0000A000A2A2A2A2A2A2A2A2A2A2A2A2A2AC1
:100A00002A2A2A2A2A2A2A2A2A2A2A2A2A2A2A2A46
:100A10002A2A2A2A2A2A2A2A2A2A2A2A2A2A0A0080
:100A20000A2A2A2A2A2A2A2A2A2A2A2A2A2A2A2A46
:100A30002A2A2A2A2A2A2A2A2A2A2A2A2A2A2A2A16
:100A40002A2A2A2A2A2A2A2A2A2A2A2A0A000A2A70
:100A50002A2A2A2A2A2A2A2A2A2A2A2A2A2A2A2AF6
:100A60002A2A2A2A2A2A2A2A2A2A2A2A2A2A2A2AE6
:100A70002A2A2A2A2A2A2A2A2A2A0A000A0020534B
:100A800061766564206F6E20454550524F4D206160
:100A900064647265737320002052616E646F6D3DF3
:100AA00000204F6E2054696D65723D0020416374D3
:100AB0006976653D002053657420746F20002041E5
:100AC0006C61726D20000A2A2A2A2A2A2A2A2A2AD6
:100AD0002A2A2A2A2A2A2A2A2A2A2A2A2A2A2A2A76
:100AE0002A2A2A2A2A2A2A2A2A2A2A2A2A2A2A2A66
:100AF0002A2A0A000A2A2A2A2A2A2A2A2A2A2A2AC0
:100B00002A2A2A2A2A2A2A2A2A2A2A2A2A2A2A2A45
:100B10002A2A2A2A2A2A2A2A2A2A2A2A2A2A2A2A35
:100B20000A000A00205361766564206F6E204545F7
:100B300050524F4D206164647265737320002052DF
:100B4000657065617461626C653D002052656C6121
:100B5000793D00204163746976653D0020536574DA
:100B600020746F20002054696D6572204F666620E6
:100B7000000A2A2A2A2A2A2A2A2A2A2A2A2A2A2A1F
:100B80002A2A2A2A2A2A2A2A2A2A2A2A2A2A2A2AC5
:100B90002A2A2A2A2A2A2A2A2A2A2A2A2A0A000A1F
:100BA0002A2A2A2A2A2A2A2A2A2A2A2A2A2A2A2AA5
:100BB0002A2A2A2A2A2A2A2A2A2A2A2A2A2A2A2A95
:100BC0002A2A2A2A2A2A2A2A2A2A2A0A000A002023
:100BD0005361766564206F6E20454550524F4D201D
:100BE000616464726573732000205265706561747E
:100BF00061626C653D002052656C61793D00204169
:100C000063746976653D002053657420746F20001D
:100C10002054696D6572204F6E20000A2A2A2A2A04
:100C20002A2A2A2A2A2A2A2A2A2A2A2A2A2A2A2A24
:100C30002A2A2A2A2A2A2A2A2A2A2A2A2A2A2A2A14
:100C40002A2A2A2A2A2A2A0A000A0052544320540D
:100C5000696D652053657420746F20000A00202D93
:100C600020000A0054696D652069732000205469D2
:100C70006D652053617665640A000000000800027B
:100C8000010000030407000000000000000045729E
:100C9000724A616E4665624D61724170724D617952
:100CA0004A756E4A756C4175675365704F63744E33
:100CB0006F76446563002068617320446179206F1A
:100CC000666620746F6461792C207363686564754F
:100CD0006C696E6720697420746F20746F6D6F7219
:100CE000726F770A00416C61726D20000A2A2A2A0D
:100CF0002A2A2A2A2A2A2A2A2A2A2A2A2A2A2A2A54
:100D00002A2A2A2A2A2A2A2A2A2A2A2A2A2A2A2A43
:100D10002A2A2A2A2A2A2A2A0A00546F6461792058
:100D2000697320616E207363686564756C65642007
:100D3000686F6C796461792C20676F696E672074C5
:100D40006F20736C6565702E2E2E0A000A2A2A2ADF
:100D50002A2A2A2A2A2A2A2A2A2A2A2A2A2A2A2AF3
:100D60002A2A2A2A2A2A2A2A2A2A2A2A2A2A2A2AE3
:100D70002A2A2A2A2A2A2A2A0A000A2A2A2A2A2A3D
:100D80002A2A2A2A2A2A2A2A2A2A2A2A2A2A2A2AC3
:100D90002A2A2A2A2A2A2A2A2A2A2A2A2A2A2A2AB3
:100DA0002A2A2A2A2A2A0A0054696D652069732092
:100DB0000057616B696E672075702E2E2E0A002019
:100DC0007261697365642E2E2E0A00416C61726D2A
:100DD00020002D2D2D2D2D2D2D2D2D2D2D3D3D3D4D
:100DE0003D3D3D3D3D3D3D3D204177616B696E6739
:100DF000203D3D3D3D3D3D3D3D3D3D3D2D2D2D2D80
:100E00002D2D2D2D2D2D2D0A000A002052616E64EE
:100E10006F6D3D002054696D65723D002054696D11
:100E2000652E204163746976653D0020416C6172D6
:100E30006D20000A002052657065617461626C6506
:100E40003D002052656C61793D002054696D652E2E
:100E5000204163746976653D002054696D65722098
:100E60004F6E20000A002052657065617461626CEB
:100E7000653D002052656C61793D002054696D65C7
:100E80002E204163746976653D002054696D65725A
:100E9000204F666620000A002061726520005765B9
:100EA000656B6C79204461794F666673206F6620AC
:100EB000416C61726D2000202879792F6D6D2F644F
:100EC00064290A0020796561726C79207265706509
:100ED000617461626C6520002F002F00206973200F
:100EE0000020486F6C79646179200020454550529C
:100EF0004F4D20686173206265656E20696E69746C
:100F000069616C697A65640A0000000000250028A8
:100F1000002B0000000000240027002A0004040425
:100F20000404040404020202020202030303030392
:100F3000030102040810204080010204081020016F
:100F4000020408102000942811241FBECFEFD8E01F
:100F5000DEBFCDBF26E0A8EBB3E001C01D92AA37EB
:100F6000B207E1F713E0A0E0B1E0EEE5F9E502C079
:100F700005900D92A83BB107D9F717E0C4EAD7E076
:100F800004C02197FE010E946D2AC33AD107C9F718
:100F90000E94E5180C94AD2C0C940000CF92DF92C7
:100FA000EF92FF920F931F93CF93DF936C017A011F
:100FB0008B01C0E0D0E0CE15DF0589F0D8016D913E
:100FC0008D01D601ED91FC910190F081E02DC601DB
:100FD0000995892B11F47E0102C02196ECCFC7013F
:100FE000DF91CF911F910F91FF90EF90DF90CF9005
:100FF0000895FC01538D448D252F30E0842F90E01F
:10100000821B930B541710F0CF9608950197089503
:10101000FC01918D828D981761F0828DDF01A80F00
:10102000B11D5D968C91928D9F5F9F73928F90E022
:1010300008958FEF9FEF0895FC01918D828D981791
:1010400031F0828DE80FF11D858D90E008958FEFCE
:101050009FEF0895FC01918D228D892F90E0805C97
:101060009F4F821B91098F739927089587E795E019
:101070000E942A0821E0892B09F420E0822F08959C
:10108000FC01848DDF01A80FB11DA35ABF4F2C9125
:10109000848D90E001968F739927848FA689B789F4
:1010A0002C93A089B1898C9180648C93938D848DCD
:1010B000981306C00288F389E02D80818F7D80839C
:1010C0000895EF92FF920F931F93CF93DF93EC015C
:1010D00081E0888F9B8D8C8D981305C0E889F989F4
:1010E000808185FD24C0F62E0B8D10E00F5F1F4F11
:1010F0000F731127E02E8C8DE8120CC00FB607FC81
:10110000FACFE889F989808185FFF5CFCE010E9469
:101110004008F1CF8B8DFE01E80FF11DE35AFF4F20
:10112000F0820B8FEA89FB898081806207C0EE899B
:10113000FF896083E889F98980818064808381E008
:1011400090E0DF91CF911F910F91FF90EF90089564
:10115000CF93DF93EC01888D8823C9F0EA89FB895E
:10116000808185FD05C0A889B9898C9186FD0FC055
:101170000FB607FCF5CF808185FFF2CFA889B9892A
:101180008C9185FFEDCFCE010E944008E7CFDF9123
:10119000CF91089580E090E0892B29F00E943608D5
:1011A00081110C94000008953FB7F8948091FF04DA
:1011B00090910005A0910105B091020526B5A89B6C
:1011C00005C02F3F19F00196A11DB11D3FBFBA2FD9
:1011D000A92F982F8827820F911DA11DB11DBC0139
:1011E000CD0142E0660F771F881F991F4A95D1F7FE
:1011F000089585ED8093BC008091BC0084FDFCCFF8
:101200001092160608954091D504262F30E0240F41
:10121000311D21323105DCF4209116062430C9F449
:10122000FC0180E090E0861758F43091D5042191BC
:10123000DC01AD54BB4FA30FB11D2C930196F3CF2E
:101240008091D504680F6093D50480E0089581E013
:10125000089582E008950895E0911A068091190694
:10126000E81730F4F0E0EF5EFA4F808190E00895E7
:101270008FEF9FEF089590911A06809119069817A5
:1012800050F4E92FF0E0EF5EFA4F208130E09F5FED
:1012900090931A0602C02FEF3FEFC9010895809185
:1012A000190690E020911A06821B91090895CF92A9
:1012B000DF92EF92FF920F931F93CF93DF937C0106
:1012C000262F972F8A0180915505882391F0C62FEC
:1012D000D72F6E01C40ED51ECC15DD0571F06991B6
:1012E000D701ED91FC910190F081E02DC7010995A6
:1012F000F3CF642F822F0E940309C801DF91CF91A1
:101300001F910F91FF90EF90DF90CF900895CF93B2
:10131000DF931F92CDB7DEB7698320915505222355
:10132000D1F020911706203240F021E030E0FC019E
:101330003383228380E090E015C080911806E82F67
:10134000F0E0EA5AFA4F998190838F5F80931806F4
:101350008093170605C061E0CE0101960E94030943
:1013600081E090E00F90DF91CF910895089580E0A3
:1013700090E00895982F92959F702AEF929F800D8C
:10138000112408950E946A2CEF92FF920F931F93ED
:10139000CF93DF93EC017B018A01888199810097CB
:1013A00029F02A813B8124173507F8F4B8016F5FD3
:1013B0007F4F0E94A02B009759F0998388831B834D
:1013C0000A832C813D81232B81F4FC0110820DC006
:1013D00088819981009711F00E94082B1982188248
:1013E0001D821C821B821A8207C01D830C83B701D9
:1013F000888199810E948C2CCE01DF91CF911F9121
:101400000F91FF90EF900895AF92BF92CF92DF922D
:10141000EF92FF920F931F93CF93DF93FC012481F0
:101420003581FB01448155818901041B150B411550
:10143000510551F12115310539F12417350720F1F6
:101440000217130718F08901015011097B01FC01F3
:10145000A080B180C501DFEFCFEF6501C00ED11EC6
:10146000C816D906A0F0F701608171810E94932C03
:10147000009769F09C012A193B090217130710F025
:10148000D22FC32F0196ECCF8FEF9FEF02C08D2F8D
:101490009C2FDF91CF911F910F91FF90EF90DF90E4
:1014A000CF90BF90AF900895CF93DF93EC0161157B
:1014B000710559F0FB0101900020E9F73197AF0168
:1014C000461B570B0E94C4090CC088819981009764
:1014D00011F00E94082B198218821D821C821B8227
:1014E0001A82CE01DF91CF910895FC018081918114
:1014F0000C94082BFC011182108213821282158237
:1015000014826115710551F0FB0101900020E9F78B
:101510003197AF01461B570B0C94C4090895DC01A9
:10152000ED91FC910190F081E02D09946115710518
:1015300079F0FB0101900020E9F73197AF01461BDC
:10154000570BDC01ED91FC910280F381E02D0994B1
:1015500080E090E008950C94960A1F920F920FB6C7
:101560000F9211242F933F934F935F936F937F9329
:101570008F939F93AF93BF93EF93FF9387E795E08C
:101580000E944008FF91EF91BF91AF919F918F9181
:101590007F916F915F914F913F912F910F900FBE6F
:1015A0000F901F9018951F920F920FB60F92112453
:1015B0002F938F939F93EF93FF93E0918705F09183
:1015C00088058081E0918D05F0918E0582FD12C025
:1015D0009081809190058F5F8F7320919105821784
:1015E00051F0E0919005F0E0E958FA4F958F809323
:1015F000900501C08081FF91EF919F918F912F9174
:101600000F900FBE0F901F90189590E0FC01E658C8
:10161000F34F3491FC01EF5CF04F2491FC01E35E49
:10162000F04FE491EE2309F43BC0332339F133301A
:1016300091F038F43130A9F0323001F584B58F7D66
:1016400012C0373091F03830A1F03430B9F48091C5
:1016500080008F7D03C0809180008F778093800011
:101660000DC084B58F7784BD09C08091B0008F779D
:1016700003C08091B0008F7D8093B000F0E0EE0F4A
:10168000FF1FE75FF04FA591B4918FB7F894EC91ED
:10169000611103C020952E2301C02E2B2C938FBFE8
:1016A00008958F929F92AF92BF92CF92DF92EF9266
:1016B000FF926B017C010E94D4084B015C01C114B4
:1016C000D104E104F104F1F00E94D408DC01CB0163
:1016D00088199909AA09BB09883E9340A105B1055B
:1016E00070F321E0C21AD108E108F10888EE880EF3
:1016F00083E0981EA11CB11CC114D104E104F104C3
:1017000019F7DDCFFF90EF90DF90CF90BF90AF90B3
:101710009F908F9008952FB7F8946091FB0470917B
:10172000FC048091FD049091FE042FBF08951F9248
:101730000F920FB60F9211242F933F938F939F9385
:10174000AF93BF938091FB049091FC04A091FD04A2
:10175000B091FE043091FA0423E0230F2D3720F4DA
:101760000196A11DB11D05C026E8230F0296A11DFB
:10177000B11D2093FA048093FB049093FC04A09382
:10178000FD04B093FE048091FF0490910005A091A8
:101790000105B09102050196A11DB11D8093FF04C2
:1017A00090930005A0930105B0930205BF91AF91FE
:1017B0009F918F913F912F910F900FBE0F901F908F
:1017C00018951F920F920FB60F9211242F933F93EB
:1017D0004F935F936F937F938F939F93AF93BF9339
:1017E000EF93FF938091B900887F803609F49CC005
:1017F00068F5883209F45BC090F4803109F454C074
:1018000038F4882309F4F6C0883009F44DC0F6C0D6
:10181000883109F44CC0803209F45DC0EFC08034D7
:1018200009F468C048F4803309F455C0883309F0DE
:10183000E5C080935405D8C0803509F44FC0883581
:1018400009F45DC0883409F0D9C0D6C0883909F4DC
:10185000C7C0A8F4883709F467C038F4883609F49B
:1018600063C0803709F460C0C9C0883809F4B8C0C3
:10187000803909F45FC0803809F0C0C05BC0803B8C
:1018800009F486C038F4803A09F466C0883A09F44D
:101890007FC0B4C0803C09F4A7C0883C09F4A4C050
:1018A000883B09F48AC0AAC08091310510C090918C
:1018B000530580915205981770F5E091530581E02A
:1018C0008E0F80935305F0E0EE5CFA4F8081809399
:1018D000BB0085EC86C0809354058EC0E091530513
:1018E00081E08E0F809353058091BB00F0E0EE5CA9
:1018F000FA4F808390915305809152056EC0E0911C
:10190000530581E08E0F809353058091BB00F0E07A
:10191000EE5CFA4F80838091150681116DC081E0E5
:101920008093140684EA61C083E0809316061092C7
:10193000F904CFCF8091F904803208F051C0E091D2
:10194000F90481E08E0F8093F9048091BB00F0E0F0
:10195000E752FB4F8083BDCF85EC8093BC00109293
:1019600016068091F904803230F4E091F904F0E039
:10197000E752FB4F10826091F90470E0E091D704C8
:10198000F091D80489ED94E009951092F90436C0DD
:1019900084E0809316061092D6041092D504E0914C
:1019A000D304F091D40409958091D504811105C028
:1019B00081E08093D5041092B304E091D60481E0D5
:1019C0008E0F8093D604F0E0ED54FB4F808180931E
:1019D000BB009091D6048091D504981708F479CF74
:1019E00085E88093BC000AC085EC8093BC0010920F
:1019F000160604C0109254050E94F908FF91EF9159
:101A0000BF91AF919F918F917F916F915F914F9116
:101A10003F912F910F900FBE0F901F9018956093DC
:101A2000BC037093BD038093BE039093BF03DC019E
:101A3000CB01845D9E4FAF4FBF4F8093B80390930F
:101A4000B903A093BA03B093BB0382E090E09093F4
:101A5000C3038093C2030E948B0B6093AE04709308
:101A6000AF048093B0049093B1040895CF92DF92B5
:101A7000EF92FF920F931F930E948B0BC090AE04C6
:101A8000D090AF04E090B004F090B1048B019C01C1
:101A90000C191D092E093F098091BC039091BD03CB
:101AA000A091BE03B091BF03083E1340210531054C
:101AB000D0F00196A11DB11D8093BC039093BD038E
:101AC000A093BE03B093BF03B701A60148515C4F7A
:101AD0006F4F7F4F4093AE045093AF046093B004B8
:101AE0007093B104C9CF4091B8035091B90360918C
:101AF000BA037091BB0384179507A607B70788F14F
:101B0000E091C003F091C103309759F10995611537
:101B100071058105910519F00E940F0D22C0809179
:101B2000BC039091BD03A091BE03B091BF03845D3F
:101B30009E4FAF4FBF4F8093B8039093B903A093CC
:101B4000BA03B093BB0381E090E02091C2033091CF
:101B5000C303232B11F480E090E09093C3038093A0
:101B6000C2036091BC037091BD038091BE0390914C
:101B7000BF031F910F91FF90EF90DF90CF900895DA
:101B80006F927F928F929F92AF92BF92CF92DF928D
:101B9000EF92FF920F931F93CF93DF93EC01EE81AF
:101BA000AE2FB0E020E833E341EE51E00E94BE29C1
:101BB0004B015C0122EB37E0FD0104E610E080E917
:101BC000E82EFF24F394C901825B97408E179F078C
:101BD000DCF4C90183709927892B99F4C901B801F4
:101BE0000E941B2A892B31F4C901B7010E941B2ACC
:101BF000892B39F480E8880E81E5981E81E0A81EC3
:101C0000B11C2F5F3F4FDFCF6D80712CEE54F84F2A
:101C1000CF0164E670E00E941B2A7C01CF0160E9DD
:101C200071E00E941B2A6C0101E010E0E370FF27C5
:101C3000061517052CF50230110581F4309771F463
:101C4000E114F10419F4C114D10441F480E8880EC0
:101C50008BE3981E86E2A81EB11C0FC0D801A35AC0
:101C6000BD4FAC91B0E020E831E541E050E00E948A
:101C7000BE29860E971EA81EB91E0F5F1F4FD8CF14
:101C800049812A8130E0A0E1BEE00E94002A6B0178
:101C90007C01242F30E0ACE3B0E00E94002ADC019C
:101CA000CB018C0D9D1DAE1DBF1D28816C017D01DA
:101CB000C20ED11CE11CF11CAC81B0E0119720E8F0
:101CC00031E541E050E00E94512ADC01CB018C0D4E
:101CD0009D1DAE1DBF1DBC01CD01680D791D8A1D66
:101CE0009B1DDF91CF911F910F91FF90EF90DF909F
:101CF000CF90BF90AF909F908F907F906F900895FE
:101D0000CF93DF93CDB7DEB727970FB6F894DEBF3A
:101D10000FBECDBF81E08093550588E680937605A0
:101D2000109218061092170660E08BE196E00E9470
:101D3000870981E00E942518882331F08093B2043E
:101D400060E070E0CB013FC067E088E60E94821847
:101D500010921A06809319068BE196E00E943B09C7
:101D60008F770E94BA0989838BE196E00E943B0934
:101D70000E94BA098A838BE196E00E943B098F7B1F
:101D80000E94BA098B838BE196E00E943B098C8309
:101D90008BE196E00E943B090E94BA098D838BE19A
:101DA00096E00E943B098F770E94BA098E838BE1EF
:101DB00096E00E943B090E94BA09825E8F83CE01A1
:101DC00001960E94C00D27960FB6F894DEBF0FBE95
:101DD000CDBFDF91CF910895CF92DF92EF92FF9226
:101DE0000F931F93CF93DF93EB017B012AE0E20E69
:101DF000F11C8B016C01C61AD70AC601800F911F16
:101E00000E94A829F80181938F01EE15FF05A9F71B
:101E1000CE01DF91CF911F910F91FF90EF90DF9056
:101E2000CF900895CF92DF92EF92FF920F931F937E
:101E3000CF93DF93EB017B0124E0E20EF11C8B01D9
:101E40006C01C61AD70AC601800F911F0E94A829EB
:101E5000F80181938F01EE15FF05A9F7CE01DF91FF
:101E6000CF911F910F91FF90EF90DF90CF90089549
:101E70006F927F928F929F92AF92BF92CF92DF929A
:101E8000EF92FF920F931F93CF93DF93EA012CE31E
:101E9000C22ED12CE12CF12CA70196010E942F2AF1
:101EA0006883CA01B901A70196010E942F2A69839C
:101EB000CA01B90128E130E040E050E00E942F2A39
:101EC00069017A016A83CA01B9016C5F7F4F8F4F44
:101ED0009F4F27E030E040E050E00E942F2A6F5FE4
:101EE0006B83812C912C540140E034E6632E712CDD
:101EF00000E911E0242F30E02E54384FF901E3704F
:101F0000FF27309789F4C901B3010E941B2A892B4E
:101F100031F4C901B8010E941B2A892B29F48EE6ED
:101F200091E0A0E0B0E004C08DE691E0A0E0B0E078
:101F3000880E991EAA1EBB1ED501C401AA27BB2765
:101F4000C816D906EA06FB0610F04F5FD3CF4E83C2
:101F5000309799F4C90164E670E00E941B2A892B2E
:101F600039F4C90160E971E00E941B2A892B29F428
:101F70008EE691E0A0E0B0E004C08DE691E0A0E044
:101F8000B0E0881A990AAA0ABB0AC818D908EA0850
:101F9000FB08C90164E670E00E941B2A8C01C9019C
:101FA00060E971E00E941B2AAEE5B2E020E021303A
:101FB00041F4309751F40115110529F4009729F4E3
:101FC00002C04C9103C04DE101C04CE150E060E023
:101FD00070E0C416D506E606F70640F0C41AD50A26
:101FE000E60AF70A2F5F11962C3009F72F5F2D8331
:101FF000C394CC82DF91CF911F910F91FF90EF900E
:10200000DF90CF90BF90AF909F908F907F906F9018
:102010000895CF92DF92EF92FF92C0900D05D0907D
:102020000E05E0900F05F09010056C157D058E05EE
:102030009F0571F06B017C0144E254E00E94380F6F
:10204000C0920D05D0920E05E0920F05F09210059A
:10205000FF90EF90DF90CF900895CF93DF93EB0147
:102060000E94A8298883CE01DF91CF910895CF9354
:10207000DF93EB010E94A8298883CE01DF91CF91E5
:102080000895BF92CF92DF92EF92FF920F931F932A
:10209000CF93DF930BE214E08AE5E82EFF24F3945C
:1020A000C0E0B801C7010E94120F84E0E80EF11CE5
:1020B0009701255D3B4FF901EB55F140D081F801C7
:1020C000D080F901ED55F140C0803196B08081EEAD
:1020D0009EE00E94CD178C2F0E94EE178CED9EE0A3
:1020E0000E94CD178B2D0E94EE178AED9EE00E9474
:1020F000CD178C2D0E94EE1788ED9EE00E94CD1723
:102100008D2D0E94EE1784EC9EE00E94CD178D2F3E
:1021100090E00E94F51787EB9EE00E94CD17CF5FFD
:102120000C5F1F4FCE3109F0BCCFDF91CF911F91D3
:102130000F91FF90EF90DF90CF90BF900895EF92B6
:10214000FF920F931F93CF93DF93C82F8EE99EE0EA
:102150000E94CD178C2F0E94EE1788E99EE00E9406
:10216000CD1784E9E82E82E0F82E00E810E0D0E0F8
:10217000CD55DB4F8881802319F0F701608101C0C4
:102180006FE587E795E00E948F0A1F5F0695FFEFD6
:10219000EF1AFF0A183071F786E99EE0DF91CF91C0
:1021A0001F910F91FF90EF900C94CD171F93CF9339
:1021B000DF93C2E5D1E01C2F1255BE016F5A7C4F50
:1021C000CE010E942D102196812F0E949F10CA35AA
:1021D00081E0D80781F7DF91CF911F910895CF92C9
:1021E000DF92EF92FF92CF93DF9300D000D000D028
:1021F000CDB7DEB76B017C010E94091080912604E7
:1022000090E0A0E0B0E089839A83AB83BC838AE04E
:1022100090E09E838D83C701B6010E9409108091D2
:10222000260490E00A971CF060E972E002C065EBBA
:1022300073E087E795E00E94AB0ACE0101960E9409
:1022400094176AE30E948F0AC701B6010E94091021
:102250008091250490E0A0E0B0E089839A83AB836D
:10226000BC838AE090E09E838D83C701B6010E9403
:1022700009108091250490E00A971CF060E972E053
:1022800002C065EB73E087E795E00E94AB0ACE01E0
:1022900001960E9494176AE30E948F0AC701B60153
:1022A0000E9409108091240490E0A0E0B0E08983AE
:1022B0009A83AB83BC838AE090E09E838D83C701C1
:1022C000B6010E9409108091240490E00A971CF046
:1022D00060E972E002C065EB73E087E795E00E9479
:1022E000AB0ACE0101960E94941726960FB6F89479
:1022F000DEBF0FBECDBFDF91CF91FF90EF90DF909B
:10230000CF900895CF92DF92EF92FF92CF93DF9319
:1023100000D000D000D0CDB7DEB76B017C010E94A9
:1023200009108091280490E0A0E0B0E089839A83AE
:10233000AB83BC838AE090E09E838D83C701B601A6
:102340000E9409108091280490E00A971CF060E92F
:1023500072E002C065EB73E087E795E00E94AB0A8C
:10236000CE0101960E9494176BE972E00E94AB0ABD
:10237000C701B6010E94091080912A0490E08E5492
:10238000984F092E000CAA0BBB0B89839A83AB8351
:10239000BC838AE090E09E838D83C701B6010E94D2
:1023A00009102091290483E0289F90011124A3E0C3
:1023B000B5E080E090E0FC01E20FF31FE257F34F3D
:1023C000E491ED93019683309105A9F710920605EB
:1023D00063E075E087E795E00E94AB0A6BE972E085
:1023E00087E795E00E94AB0ACE0101960E94941700
:1023F00060E20E948F0AC701B6010E940910809115
:10240000260490E0A0E0B0E089839A83AB83BC838C
:102410008AE090E09E838D83C701B6010E94091077
:102420008091260490E00A971CF060E972E002C0F7
:1024300065EB73E087E795E00E94AB0ACE01019659
:102440000E9494176AE30E948F0AC701B6010E9496
:1024500009108091250490E0A0E0B0E089839A8380
:10246000AB83BC838AE090E09E838D83C701B60175
:102470000E9409108091250490E00A971CF060E901
:1024800072E002C065EB73E087E795E00E94AB0A5B
:10249000CE0101960E9494176AE30E948F0AC70139
:1024A000B6010E9409108091240490E0A0E0B0E001
:1024B00089839A83AB83BC838AE090E09E838D837B
:1024C000C701B6010E9409108091240490E00A9788
:1024D0001CF060E972E002C065EB73E087E795E00D
:1024E0000E94AB0ACE0101960E94941726960FB661
:1024F000F894DEBF0FBECDBFDF91CF91FF90EF907C
:10250000DF90CF9008958F929F92AF92BF92CF921B
:10251000DF92EF92FF921F93CF93DF93C0EAD1E057
:1025200010E080EAE82EF12CBE01C7010E94EC0EFB
:102530008AE0E80EF11C6AE070E080E090E00E9422
:10254000510B6A817B818C819D810E948211CE809A
:10255000DF80A884B984888099808AE89EE00E9400
:10256000CD17812F0E94EE178BE79EE00E94CD17BA
:10257000C4010E94F51783E79EE00E94CD17C501B4
:102580000E94F51786E69EE00E94CD17C6010E94C4
:10259000F51784E69EE00E94CD171F5F2A9618303B
:1025A00019F6DF91CF911F91FF90EF90DF90CF90C0
:1025B000BF90AF909F908F9008958F929F92AF920F
:1025C000BF92CF92DF92EF92FF920F931F93CF9320
:1025D000DF93C0EFD1E0E12CF12C00E510E0BE016B
:1025E000C8010E94EC0E065F1F4F6AE070E080E0B9
:1025F00090E00E94510B6A817B818C819D810E94B9
:102600008211CE80DF80A884B9848880998089E592
:102610009EE00E94CD17C7010E94F5178AE49EE054
:102620000E94CD17C4010E94F51782E49EE00E942B
:10263000CD17C5010E94F51785E39EE00E94CD17D6
:10264000C6010E94F51783E39EE00E94CD178FEF2D
:10265000E81AF80A2A96003A110509F6DF91CF9197
:102660001F910F91FF90EF90DF90CF90BF90AF90B0
:102670009F908F9008958F929F92AF92BF92CF922A
:10268000DF92EF92FF920F931F93CF93DF93C0E5FA
:10269000D1E0E12CF12C00E010E0BE01C8010E9465
:1026A000EC0E065F1F4F6AE070E080E090E00E9451
:1026B000510B6A817B818C819D810E948211CE8029
:1026C000DF80A884B984888099808BE29EE00E9494
:1026D000CD17C7010E94F5178CE19EE00E94CD172F
:1026E000C4010E94F51784E19EE00E94CD17C50148
:1026F0000E94F5178BE09EE00E94CD17C6010E9454
:10270000F51789E09EE00E94CD178FEFE81AF80ACE
:102710002A960035110509F6DF91CF911F910F918F
:10272000FF90EF90DF90CF90BF90AF909F908F90F1
:102730000895EF92FF920F931F93CF93DF931F9211
:10274000CDB7DEB77C01FC0100811181C80169832E
:102750000E94A8296981681719F0C8010E94B02950
:10276000C7010F90DF91CF911F910F91FF90EF90D4
:102770000895AF92BF92CF92DF92EF92FF920F93A4
:102780001F93CF93DF9300D0CDB7DEB78B016B01E2
:1027900026E0C20ED11C7B015C01A61AB70A950186
:1027A0002E0D3F1DF70161917F013A832983CE01F0
:1027B00001960E949913EC14FD0489F7C8010F904B
:1027C0000F90DF91CF911F910F91FF90EF90DF90CD
:1027D000CF90BF90AF9008950F931F93CF93DF9347
:1027E00000D0CDB7DEB78B01FB0160819A8389836E
:1027F000CE0101960E949913C8010F900F90DF91AE
:10280000CF911F910F910895AF92BF92CF92DF9217
:10281000EF92FF920F931F93CF93DF9300D0CDB72A
:10282000DEB78B016B0124E0C20ED11C7B015C0181
:10283000A61AB70A95012E0D3F1DF70161917F0180
:102840003A832983CE0101960E949913EC14FD046A
:1028500089F7C8010F900F90DF91CF911F910F91D1
:10286000FF90EF90DF90CF90BF90AF900895AF9220
:10287000BF92CF92DF92EF92FF920F931F93CF936D
:10288000DF9300D0CDB7DEB78B016B012AE0C20E1B
:10289000D11C7B015C01A61AB70A95012E0D3F1DC4
:1028A000F70161917F013A832983CE0101960E944D
:1028B0009913EC14FD0489F7C8010F900F90DF9174
:1028C000CF911F910F91FF90EF90DF90CF90BF902D
:1028D000AF9008952F923F924F925F926F927F92A6
:1028E0008F929F92AF92BF92CF92DF92EF92FF9220
:1028F0000F931F93CF93DF93CDB7DEB72D970FB60E
:10290000F894DEBF0FBECDBF64E972E0CE01089639
:102910000E947A0A0E94360D2B013C010E94091088
:10292000809126048B83C301B2010E94091080911B
:1029300025048A83C301B2010E94091080912404F6
:1029400089832BE2C22E24E0D22E0EE214E0312C39
:102950003AE5E32EFF24F394BB24B394B601C701F8
:102960000E94120F44E0E40EF11CF80131978081BF
:10297000F60190819D83F801329790819E83825E5B
:102980008F83CE0101960E94C00D641575058605E2
:102990009705F9F48091AB04811110C0C301B20115
:1029A0000E9482118CE49DE00E94CD178AE19DE097
:1029B0000E94CD178CEE9CE00E94CD17F80180811B
:1029C000811105C0B082B601C7010E9404143324EE
:1029D0003394F4E0CF0ED11C0C5F1F4F42EDE41690
:1029E00041E0F40609F0BACFC301B2010E94091018
:1029F000809129048E83C301B2010E940910809145
:102A000028048D83C301B2010E94091080912A0419
:102A10008F8300E511E083EAA82E84E0B82EC12C54
:102A2000D12C90E8892E912C2A2C83EA94E0281A44
:102A3000F501F1905F01C301B2010E9409102F2D31
:102A400030E0809127048150A40102C0559547953C
:102A50008A95E2F7CA0182239323892BE9F1C30106
:102A6000B2010E940910F0902904F801628173817B
:102A7000848195810E94091080912904F8122CC04C
:102A8000C301B2010E940910F0902804F80162818C
:102A90007381848195810E94091080912804F81225
:102AA0001BC0C301B2010E940910E0902A04F12C5E
:102AB000FEE4EF1AF8EFFF0AF80162817381848166
:102AC00095810E94091080912A0490E08E54984FBD
:102AD000E816F90609F471C0FAE0CF0ED11C065FC2
:102AE0001F4F40E5C416D10409F09ECFCE010896D1
:102AF0000E94750A31105DC082ED9DE00E94CD17E5
:102B000000E511E0F12CF80180859185833691056F
:102B100009F044C080819181019709F03FC00E9473
:102B2000360DF80182809380A480B580DC01CB0152
:102B300088199909AA09BB094E97A105B10570F535
:102B40008BEC9DE00E94CD178F2D0E94EE178FEB2E
:102B50009DE00E94CD1781EB9DE00E94CD1788EA91
:102B60009DE00E94CD170E94360D0E94360D0E94F6
:102B700082111092AB04F80182819381A481B58106
:102B800080589E4AAE4FBF4F82839383A483B58300
:102B9000B801C801805591400E943714F394065F34
:102BA0001F4FF8E0FF12AFCF8AE79DE00E94CD17DC
:102BB00041C081E08093AB043DC0F8016281738124
:102BC000848195810E940910809126048B83F801ED
:102BD00062817381848195810E940910809125040E
:102BE0008A83F80162817381848195810E94091032
:102BF000809124048983CE0101960E94C00DDC01DE
:102C0000CB0180589E4AAE4FBF4FF8018283938319
:102C1000A483B58385EE9CE00E94CD17822D0E948F
:102C2000EE1786EB9CE00E94CD17B801C6010E940A
:102C3000371452CF2D960FB6F894DEBF0FBECDBF1E
:102C4000DF91CF911F910F91FF90EF90DF90CF9088
:102C5000BF90AF909F908F907F906F905F904F90BC
:102C60003F902F9008958F929F92AF92BF92CF92F4
:102C7000DF92EF92FF920F931F93CF93DF9300D0D9
:102C8000CDB7DEB7F0E5EF2EF1E0FF2E812CAAE7FD
:102C90009A2EA9E4AA2EAAE5BA2E00E010E0F701C8
:102CA0001182108282829382A482B5821782168258
:102CB00011861086B701C8010E943714065F1F4FA6
:102CC000FAE0EF0EF11C8FEF881A980AA80AB80AEA
:102CD0000035110521F770EFE72E71E0F72EEAE0DD
:102CE0008E2E912CA12CB12CF701118210828282A0
:102CF0009382A482B5821782168211861086B7014C
:102D0000C8010E943714065F1F4FFAE0EF0EF11C56
:102D1000003A110549F750EAE52E51E0F52E6AE038
:102D2000862E912CA12CB12CF70111821082828267
:102D30009382A482B5821782168211861086B7010B
:102D4000C8010E943714065F1F4FFAE0EF0EF11C16
:102D5000003F110549F744EFE42E43E0F42EF7015C
:102D6000118210821282138214821582B701C80167
:102D70000E94B9130A5F1F4FF6E0EF0EF11C0032FC
:102D800081E0180761F734ECE32E33E0F32EF7010E
:102D9000118210821282138214821582B701C80137
:102DA0000E94B9130A5F1F4FF6E0EF0EF11C0035C9
:102DB00081E0180761F721E9E22E22E0F22EF70107
:102DC00061917F011A830983CE0101960E949913B4
:102DD0000F5F1F4F0335F1E01F0789F793EAE92ED4
:102DE00094E0F92E02E511E0F7011082B701C80165
:102DF0000E94EC130F5F1F4FFFEFEF1AFF0A0A3517
:102E000081E0180789F78BE2C82E84E0D82EF12CD8
:102E1000F601F082C801855D9B4FFC01E955F14048
:102E200010823196108231961082B601C8010E943C
:102E300004140C5F1F4FF394F4E0CF0ED11C8EE10D
:102E4000F812E6CF87ED91E09A83898361E0CE01A5
:102E500001960E94991388ED91E09A83898360E03E
:102E6000CE0101960E9499138BEE9EE00E94CD1731
:102E70000E943B130E94DD120E9483120E94D61012
:102E80000E9441100F900F90DF91CF911F910F91F1
:102E9000FF90EF90DF90CF90BF90AF909F908F907A
:102EA00008958F929F92AF92BF920F931F93CF93EB
:102EB000DF93CDB7DEB7A1970FB6F894DEBF0FBE94
:102EC000CDBF19A2423008F44AE08E010F5D1F4FBA
:102ED000842E912CA12CB12CA50194010E942F2AA3
:102EE000E62FB901CA0101501109EA3014F4E05D7E
:102EF00001C0E95CD801EC93232B242B252B61F72F
:102F0000B80187E795E00E94960AA1960FB6F8945B
:102F1000DEBF0FBECDBFDF91CF911F910F91BF904C
:102F2000AF909F908F900895CF92DF92EF92FF9293
:102F3000FC0144815581C080D180E280F38041153D
:102F4000510561F4E0917705F09178050190F081E9
:102F5000E02D6C2D87E795E0099518C04A305105A2
:102F600089F4F7FE0EC06DE287E795E00E948F0AB4
:102F700066277727CB016C197D098E099F094AE0E6
:102F800003C04AE0C701B6010E94511787E795E0E8
:102F9000FF90EF90DF90CF9008950F931F93CF9302
:102FA000DF938C01C0E0D0E0F801EC0FFD1F6491CD
:102FB000662371F0E0917705F09178050190F0813A
:102FC000E02D87E795E00995892B11F02196ECCF4C
:102FD000CE01DF91CF911F910F910895682F70E07E
:102FE00080E090E04AE00C945117CF92DF92EF928C
:102FF000FF92CF93DF936C01990FEE08FF08F7FE65
:1030000019C06DE287E795E00E948F0AEC01662700
:103010007727CB016C197D098E099F094AE00E9430
:1030200051178C0F9D1FDF91CF91FF90EF90DF9094
:10303000CF9008954AE0C701B601DF91CF91FF908C
:10304000EF90DF90CF900C945117382F20911706F6
:1030500090917605213208F049C0809116068111C1
:10306000FCCF42E040931606309315063FEF3093B5
:1030700054051092530520935205A6E5B5E042E3AE
:1030800055E0FA013E2F341B321718F43D9131936D
:10309000F9CF1092310520913105990F922B909321
:1030A000310590911406913061F4109214069091BC
:1030B00031059093BB009091BC0093FDF8CF95EC47
:1030C00001C095EE9093BC00909116069230E1F30A
:1030D000909154059F3F79F080915405803241F0E2
:1030E00080915405803331F084E005C081E003C055
:1030F00082E001C083E01092180610921706109229
:1031000055050895909116069111FCCF91E090938A
:103110001606909315062FEF209354051092530531
:10312000260F209352059093310590913105880F19
:10313000892B8093310580911406813061F41092BF
:103140001406809131058093BB008091BC0083FD03
:10315000F8CF85EC01C085EE8093BC008091160607
:103160008130E1F380915305861710F46091530587
:10317000A2E3B5E021E135E0F9018E2F821B86172D
:1031800018F48D918193F9CF862F089590E0FC017A
:10319000EF5CF04F2491FC01E35EF04F84918823B3
:1031A00099F090E0880F991FFC01ED5EF04FA5911A
:1031B000B491FC01E75FF04F859194918FB7F8943B
:1031C000EC91E22BEC938FBF0895CF93DF93CDB7B3
:1031D000DEB7CE54D1090FB6F894DEBF0FBECDBF17
:1031E000789484B5826084BD84B5816084BD85B5E2
:1031F000826085BD85B5816085BD80916E008160EE
:1032000080936E0010928100809181008260809393
:103210008100809181008160809381008091800095
:103220008160809380008091B10084608093B100C0
:103230008091B00081608093B00080917A008460BA
:1032400080937A0080917A00826080937A008091E6
:103250007A00816080937A0080917A008068809300
:103260007A001092C10081E491E4A0E022968DAF33
:103270009EAFAFAF22978DE00E94C61887E00E94F4
:10328000C61886E00E94C61885E00E94C61884E031
:103290000E94C618E0918705F091880582E080833E
:1032A000E0918305F09184051082E0918505F0910D
:1032B000860580E1808310928F05E0918B05F09167
:1032C0008C0586E08083E0918905F0918A058081F4
:1032D00080618083E0918905F0918A058081886012
:1032E0008083E0918905F0918A05808180688083E0
:1032F000E0918905F0918A0580818F7D80830E940D
:10330000360DC090BC03D090BD03E090BE03F0909A
:10331000BF0320E83EE03093C1032093C003C09276
:10332000B803D092B903E092BA03F092BB03672BC3
:10333000682B692B29F40E94360DDD24D39403C039
:103340000E94360DD12C0E94360D8091C2039091BF
:10335000C303029759F08FEE91E00E94CD176EE8FB
:1033600072E087E795E00E94960A18C083ED91E02D
:103370000E94CD176EE872E087E795E00E94960AFA
:103380008AEC91E00E94CD170E94360D0E948211B6
:103390006FE872E087E795E00E94AB0ABE01615CCE
:1033A0007F4F80E591E00E9437106FE370E06C0F73
:1033B0007D1F6F5F7F4F81E591E00E943710BE0156
:1033C000615C7F4FCE0101960E947A0A8D819E81B9
:1033D000892B49F061E972E089819A810E94832CEE
:1033E00011E0892B09F010E0CE0101960E94750AC8
:1033F000112309F446C0BE01615C7F4FCE010196E6
:103400000E947A0A80E090E00E94F51788EC91E033
:103410000E94CD174D815E8169817A8187E795E0B1
:103420000E94CE078BEA91E00E94CD17CE01019653
:103430000E94750A84E991E00E94CD170E943B1317
:103440000E94DD120E9483120E94D6100E94411039
:103450006CEA74E087ED91E00E942D101091AC04AD
:1034600085E891E00E94CD17812F0E94EE1783E836
:1034700091E00E94CD1734EFE32E33E0F32E10E0FD
:1034800003C00E943316F7CFD70112966D917D913C
:103490008D919C9115970E948211F701A080B180B7
:1034A0008EE691E00E94CD17812F0E94EE178FE5E6
:1034B00091E00E94CD17C5010E94F5178DE591E0BE
:1034C0000E94CD171F5FF6E0EF0EF11C1830E1F6F9
:1034D00024ECE22E23E0F22E10E0D70112966D913B
:1034E0007D918D919C9115970E948211F701A0808A
:1034F000B18087E491E00E94CD17812F0E94EE17E2
:1035000088E391E00E94CD17C5010E94F51786E37C
:1035100091E00E94CD171F5FF6E0EF0EF11C18300E
:10352000E1F606E512E094E0F92EF00E61E0D80134
:103530008D918D010E94050B6AEF70E080E090E0B4
:103540000E94510BF012F2CFDD2009F468C184EF24
:1035500090E00E94CD1780E1E6E4F2E0DE01919672
:1035600001900D928A95E1F70E94360D6B017C0166
:103570000E940910809129048EABC701B6010E94F8
:103580000910809128048DABC701B6010E94091073
:1035900080912A048FAB7E01B8E3EB0EF11C03EDA2
:1035A00011E0C8010E94A829F70181937F010F5FF4
:1035B0001F4F073DF1E01F07A1F780EE90E00E944A
:1035C000CD1768AD79AD8AAD9BAD0E9482118EEDAD
:1035D00090E00E94CD178E010F5F1F4F580120E031
:1035E00030E0F901E05BFE4FC280D380E480F580DB
:1035F000C701B6012F962FAF2F972E963FAF2E976C
:103600000E940910809126048BABC701B6010E946D
:103610000910809125048AABC701B6010E940910E8
:103620008091240489ABCE01C1960E94C00D2F96D3
:103630002FAD2F972E963FAD2E97F901E050FF4FFB
:103640006283738384839583D5016D937D938D937A
:103650009D935D01F901E051FE4F11821082F90145
:10366000E056FE4F11821082265F3F4F2035310514
:1036700009F0B7CF87E090E0FE01319620E030E01E
:1036800028173907DCF44191519161917191C08003
:10369000D180E280F380C416D506E606F70658F41A
:1036A000DF011497CD92DD92ED92FC921397408347
:1036B0005183628373832F5F3F4FE2CF0197E1F61F
:1036C000FE01B1969F01D8014D915D916D917D9163
:1036D0008D01A0E0B1E080E090E01296CD90DD9009
:1036E000ED90FC9015974C155D056E057F0511F466
:1036F0009183808301961A968830910571F73296EE
:103700000217130701F7FE01F1966F0106E4A02EE0
:10371000B12C8AE0382ED6019E908E906D01389C97
:103720007001399CF00C1124F701E050FF4F4280EA
:103730005380648075800E94360D461657066806D1
:10374000790608F063C08701005B1E4FF801808591
:1037500091858835910599F40E946A148AE0889DC4
:10376000F001899DF00D1124E05BFE4F808591856D
:103770000E94F51789EC90E00E94CD1750C0833667
:10378000910551F3608071808BEB90E00E94CD1722
:10379000C4010E94F51781EB90E00E94CD17C30190
:1037A0000E94F5178FEA90E00E94CD17F801628120
:1037B0007381848195810E948211D8018D919C91A1
:1037C000019701F5F701E051FE4F86819781813025
:1037D0009105C1F49183808389E990E00E94CD171F
:1037E000F80182819381A481B58180589E4AAE4FB1
:1037F000BF4F82839383A483B583B801C5010E9420
:10380000371404C088E690E00E94CD17FAE0AF1AA2
:10381000B10826EFA2162FEFB20609F07CCF8091F7
:10382000AB048111CDC200E511E0E12CF12CD12CCB
:10383000D8018D919C911197019709F05BC0189662
:103840008D919C911997CC970CF054C08091AB044A
:10385000811150C00E94360DF80182809380A480AF
:10386000B580861A970AA80AB90AF2E18F16910460
:10387000A104B10408F0C9C083EC93E00E94CD1705
:103880004AE0C501B4010E9451178EEB93E00E94FB
:10389000CD1787EB93E00E94CD178D2D0E94EE1778
:1038A0008BEA93E00E94CD17D80118968D919C91D8
:1038B00019972AE0289FF001299FF00D1124E0516B
:1038C000FE4F8D919C9111979183808312968D91DB
:1038D0009D910D90BC91A02D80589E4AAE4FBF4F38
:1038E000F80182839383A483B583B801C7010E9442
:1038F00037148BC00E94360DD80112968D909D9082
:10390000AD90BC901597861A970AA80AB90ABAE032
:103910008B169104A104B10408F077C0F8018081EE
:103920009181019709F071C0808591858835910555
:1039300009F06BC08EE793E00E94CD1787E793E014
:103940000E94CD178D2D0E94EE178BE693E00E940A
:10395000CD1788E693E00E94CD174AE0C501B40177
:103960000E94511783E693E00E94CD1780E593E013
:103970000E94CD17F80182819381A481B58180587E
:103980009E4AAE4FBF4F82839383A483B583B80111
:10399000C7010E94371489E393E00E94CD1720E00D
:1039A00030E0F901E051FE4F11821082F901E0563A
:1039B000FE4F11821082265F3F4F2035310589F777
:1039C00080E293E00E94CD1761E087E00E94050B42
:1039D00061E086E00E94050B61E085E00E94050B36
:1039E00061E084E00E94050B81E08093AB0487E1F5
:1039F00093E00E94CD170E94360D0E94360D0E9462
:103A0000821189EE92E00E94CD17D394065F1F4F7A
:103A1000FAE0EF0EF11C20E5E216F10409F008CF00
:103A2000E0EFAE2EE1E0BE2EF0EAEF2EF1E0FF2E49
:103A3000A8E48A2EA6E09A2EB4EFCB2EB3E0DB2EBC
:103A400014EC212E13E0312E370185012C961FAE88
:103A50002C97D8018D919C911197019709F0ADC0D9
:103A60008091AB048111A9C01896ED91FC91199732
:103A7000EA5AFD4F60E080810E94050B0E948B0B8B
:103A8000F4012081318142815381DC01CB01821B11
:103A9000930BA40BB50B893E9340A105B10508F427
:103AA0008CC0F60182819381A481B5810196A11D0C
:103AB000B11D82839383A483B5838091AC0481304C
:103AC000A9F5D80118964D905C901997F201EA5A21
:103AD000FD4F20818FED92E02F962FAF2F970E9400
:103AE000CD172C968FAD2C970E94EE1784ED92E0A7
:103AF0000E94CD17C2010E94F51782ED92E00E944C
:103B0000CD172F962FAD2F97822F0E94EE1780EDA5
:103B100092E00E94CD17F6016281738184819581C4
:103B20000E94EF1089EA92E00E94CD170E948B0B51
:103B3000D4016D937D938D939C931397F6014281ED
:103B4000538164817581F80182819381A481B5815B
:103B5000481759076A077B0780F14084518489E937
:103B600092E00E94CD172C968FAD2C970E94EE17F5
:103B700081E892E00E94CD17C2010E94F5178BE701
:103B800092E00E94CD17D80111961C921E9221E05E
:103B900030E0F301318320831896ED91FC91199761
:103BA000EA5AFD4F61E080810E94050BD101129617
:103BB0001D921D921D921C9215972C962FAD2C973D
:103BC0002F5F2C962FAF2C97065F1F4F3AE0630EA6
:103BD000711C86E0280E311C94E0890E911CA6E031
:103BE000CA0ED11C283009F034CF68E2862E66E078
:103BF000962E04EC13E074EF672E73E0772ED12C31
:103C0000F70180819181019709F09FC08091AB04F9
:103C100081119BC00084F185E02DEA5AFD4F61E0DF
:103C200080810E94050B0E948B0BD4012D913D9148
:103C30004D915C91DC01CB01821B930BA40BB50B66
:103C4000893E9340A105B10508F47FC0F801828147
:103C50009381A481B5810196A11DB11D82839383B7
:103C6000A483B5838091AC04813089F5D70118967F
:103C7000ED91FC911997EA5AFD4FC080F5014084FF
:103C8000518480E792E00E94CD178D2D0E94EE179F
:103C900085E692E00E94CD17C2010E94F51783E6E7
:103CA00092E00E94CD178C2D0E94EE1781E692E0E3
:103CB0000E94CD17D80112966D917D918D919C91A6
:103CC00015970E94EF108AE392E00E94CD170E94A0
:103CD0008B0BF4016083718382839383D8011296E6
:103CE0004D915D916D917C911597F7018281938142
:103CF000A481B581481759076A077B0730F14084D2
:103D000051848AE292E00E94CD178D2D0E94EE1719
:103D100081E192E00E94CD17C2010E94F5178BE06D
:103D200092E00E94CD17D7011D921C92F501868169
:103D300097818130910549F491838083D301129654
:103D40001D921D921D921C921597D394BAE0EB0E12
:103D5000F11CEAE0AE0EB11CF6E06F0E711C24E01F
:103D6000820E911C0A5F1F4F38E0D31249CF0E9488
:103D70008B0B00916C0610916D0620916E063091B0
:103D80006F06DC01CB01801B910BA20BB30B893EAC
:103D90009340A105B105B0F06091AD0481E06827C2
:103DA0006093AD048DE00E94050B0E948B0B609325
:103DB0006C0670936D0680936E0690936F0602C03A
:103DC0000E946A149E012F5F3F4F790100E010E0CE
:103DD0000E948B0B60937F05709380058093810513
:103DE00090938205E0917705F09178050284F38540
:103DF000E02D87E795E0099597FD09C0D7018D93E0
:103E00007D010F5F1F4F0E31110511F71DC00E947C
:103E10008B0B80907F0590908005A0908105B090DD
:103E20008205DC01CB0188199909AA09BB09809098
:103E30007B0590907C05A0907D05B0907E0588154F
:103E40009905AA05BB0570F2E1E0F0E0EC0FFD1F5B
:103E5000E00FF11F108260E972E0CE018B5B9F4F93
:103E60000E947A0A64E972E0CE01CF960E947A0A33
:103E70006DE972E0CE0101960E9468297C01BC01C7
:103E8000CE018B5B9F4F0E94540A2796CEACDFACCD
:103E90002797C114D10409F444C02B960EAD1FAD71
:103EA0002B9701151105E9F146015401BFEF8B1A5B
:103EB0009B0AF5018081082E000C990B0E949C2919
:103EC000892B99F7015011090C0D1D1DD8018C91FA
:103ED000082E000C990B0E949C29892B89F4A801BB
:103EE0004F5F5F4F4A195B092B965FAF4EAF2B9721
:103EF000CA14DB0458F4B501C6010E947A2C06C02E
:103F00000A151B0560F301501109E0CF2796EEADAD
:103F1000FFAD27972B968EAD9FAD2B97E80FF91F1E
:103F2000108261EA72E0CE0181960E947A0ABE0197
:103F30006F5D7F4FCE018B5B9F4F0E94040A8C0107
:103F4000CE0181960E94750A17FD0EC084E69CE0A2
:103F50000E94CD170E94360D0E94821182E69CE0DD
:103F60000E94CD1701E001C000E069EA72E0CE01D5
:103F700081960E947A0ABE016F5D7F4FCE018B5BF6
:103F80009F4F0E94040A6C01CE0181960E94750A1F
:103F900010E0D7FCFCC0E114F10401F16DE972E01E
:103FA00080E090E00E9468297C010E944A29FE017D
:103FB0003196E10FF11DE10FF11D91A380A30E9445
:103FC000F5178EE59CE00E94CD17812F0E94EE1719
:103FD0008CE59CE00E94CD171F5FDDCF8DA18CAFDB
:103FE0008BA18DAF89A1825B8EAF8FA18AAF89A58E
:103FF00089AF8BA588AFCE01C8960E94C00D4B013A
:104000005C01AE014F5C5F4F0E94380FCC24C3941B
:10401000C092550558E6D52ED09276051092180616
:104020001092170660E08BE196E00E94870929A9AB
:104030000AE0822F602F0E940F2A682F660F860FDA
:10404000682F660F620F8BE196E00E9487092AA90C
:10405000822F602F0E940F2A682F660F860F682F0D
:10406000660F620F8BE196E00E9487092BA9822FD1
:10407000602F0E940F2A682F660F860F682F660F29
:10408000620F8BE196E00E9487096CA98BE196E0B4
:104090000E9487092DA9822F602F0E940F2A682F66
:1040A000660F860F682F660F620F8BE196E00E9405
:1040B00087092EA9822F602F0E940F2A682F660F72
:1040C000860F682F660F620F8BE196E00E948709CA
:1040D0002FA92E51822F602F0E940F2A682F660F62
:1040E000860F880F682F620F8BE196E00E94870988
:1040F00081E00E942518C0925505D0927605109255
:104100001806109217066FE08BE196E00E9487096F
:1041100081E00E94251881110FC061E088E60E94AD
:10412000821810921A06809319068BE196E00E947D
:104130003B092D968FAF2D9781E08093550588E63A
:104140008093760510921806109217066FE08BE1A7
:1041500096E00E9487092D966FAD2D976F778BE1C2
:1041600096E00E94870981E00E942518C501B401EC
:104170000E940F0D8BE49CE00E94CD17C501B40195
:104180000E94821189E49CE00E94CD1701E061EB5E
:1041900072E0CE01C1960E947A0ABE016F5C7F4F29
:1041A000CE018B5B9F4F0E94040A6C01CE01C19629
:1041B0000E94750AD7FC90C0E114F10499F06DE9F2
:1041C00072E080E090E00E9468297C010E944A2908
:1041D000FE013196E10FF11DE10FF11D91A380A3C6
:1041E0001F5FEACF89A09AA08AE0889D5001899D2F
:1041F000B00C1124F501E051FE4F6F0189A59AA57D
:10420000978386838BA59CA59187808711821082D6
:1042100081E08CAF8DAF1EAE8BA18AAF8DA189AF2F
:104220008FA188AFCE01C8960E94C00DD60112960C
:104230006D937D938D939C931597B0E5AB0EB11C58
:10424000B601C5010E9437148BE19CE00E94CD1796
:1042500080E19CE00E94CD17C4010E94F51787E021
:104260009CE00E94CD17F601628173818481958163
:104270000E94EF10D60116968D909C901797189675
:104280006D907C901997CD90DC908EEF9BE00E9412
:10429000CD17C6010E94F51786EF9BE00E94CD174F
:1042A000C3010E94F51789EE9BE00E94CD17C4015F
:1042B0000E94F5178FEC9BE00E94CD17C5010E946C
:1042C000F5178DEC9BE00E94CD170E94DD128FE95F
:1042D0009BE00E94CD1701E06CEB72E0CE01C1962D
:1042E0000E947A0ABE016F5C7F4FCE018B5B9F4FAD
:1042F0000E94040A6C01CE01C1960E94750AD7FC87
:1043000096C0E114F10499F06DE972E080E090E06C
:104310000E9468297C010E944A29FE013196E10F22
:10432000F11DE10FF11D91A380A31F5FEACF89A0CA
:104330009AA08AE0889D5001899DB00C1124F50156
:10434000E056FE4F6F0189A59AA5978386838BA5BA
:104350009CA5918780871182108281E08CAF8DAF00
:104360001EAE8BA18AAF8DA189AF8FA188AFCE0180
:10437000C8960E94C00DD60112966D937D938D93C1
:104380009C931597B0EAAB0EB11CB601C5010E9413
:1043900037146AE070E080E090E00E94510B81E702
:1043A0009BE00E94CD1785E69BE00E94CD17C401DB
:1043B0000E94F5178CE59BE00E94CD17F601628103
:1043C0007381848195810E94EF10D60116968D909D
:1043D0009C90179718966D907C901997CD90DC90D3
:1043E00083E59BE00E94CD17C6010E94F5178BE480
:1043F0009BE00E94CD17C3010E94F5178EE39BE05E
:104400000E94CD17C4010E94F51784E29BE00E9430
:10441000CD17C5010E94F51782E29BE00E94CD17DF
:104420000E94831284EF9AE00E94CD1701E068ECAD
:1044300072E0CE01C1960E947A0ABE016F5C7F4F86
:10444000CE018B5B9F4F0E94040A6C01CE01C19686
:104450000E94750AD7FCA6C0E114F10499F06DE939
:1044600072E080E090E00E9468297C010E944A2965
:10447000FE013196E10FF11DE10FF11D91A380A323
:104480001F5FEACF89A09AA08AE0889D5001899D8C
:10449000B00C1124F501E05BFE4F6F0189A59AA5D0
:1044A000978386838BA59CA5918780871182108234
:1044B0000E94360D2B013C010E94091080912904B5
:1044C0008DAFC301B2010E940910809128048CAF06
:1044D000C301B2010E94091080912A048EAF8BA102
:1044E0008AAF8DA189AF8FA188AFCE01C8960E94F7
:1044F000C00DD60112966D937D938D939C93159765
:10450000B601C5010E9437146AE070E080E090E0D7
:104510000E94510B86EC9AE00E94CD178EEB9AE038
:104520000E94CD17C4010E94F51785EB9AE00E9406
:10453000CD17F60162817381848195810E94EF100D
:10454000D60116968D909C90179718966D907C903A
:104550001997CD90DC908CEA9AE00E94CD17C601A5
:104560000E94F51781EA9AE00E94CD17C3010E94CC
:10457000F51788E99AE00E94CD17C4010E94F5174B
:104580008EE79AE00E94CD17C5010E94F5178CE7CF
:104590009AE00E94CD170E943B138EE49AE00E949D
:1045A000CD1701E061ED72E0CE01C1960E947A0A5A
:1045B000BE016F5C7F4FCE018B5B9F4F0E94040A50
:1045C0006C01CE01C1960E94750AD7FC86C0E11429
:1045D000F10499F06DE972E080E090E00E946829B2
:1045E0007C010E944A29FE013196E10FF11DE10F85
:1045F000F11D91A380A31F5FEACF89A09AA02AE0B2
:10460000289DC001299D900D1124FC01E051FE4F11
:104610006F012BA13CA1318320835C01F0E5AF0E3B
:10462000B11CB601C5010E9437146AE070E080E059
:1046300090E00E94510B80E29AE00E94CD176AED53
:1046400072E087E795E00E94AB0AC4010E94F5176B
:1046500062EE72E087E795E00E94AB0AD6011296FF
:104660006D917D918D919C9115970E94EF10F601AF
:104670008680978060847184C080D1806BEE72E008
:1046800087E795E00E94AB0AC6010E94F51764EF28
:1046900072E087E795E00E94AB0AC3010E94F5171C
:1046A0006FEF72E087E795E00E94AB0AC4010E94B9
:1046B000F51768E073E087E795E00E94AB0AC50153
:1046C0000E94F5176FE872E087E795E00E94AB0A59
:1046D00082EF99E00E94CD1701E062E273E0CE0123
:1046E000C1960E947A0ABE016F5C7F4FCE018B5B40
:1046F0009F4F0E94040A6C01CE01C1960E94750A68
:10470000D7FC7DC0E114F10499F06DE972E080E01E
:1047100090E00E9468297C010E944A29FE0131969E
:10472000E10FF11DE10FF11D91A380A31F5FEACFFF
:1047300089A09AA02AE0289DC001299D900D1124EE
:104740009C0120563E4F69012BA13CA1D6012D931F
:104750003C935C01B0E5AB0EB11CB601C5010E94F3
:1047600037146AE070E080E090E00E94510B84EC26
:1047700099E00E94CD1788EB99E00E94CD17C40103
:104780000E94F5178FEA99E00E94CD17F601628129
:104790007381848195810E94EF10D60116968D90C9
:1047A0009C90179718966D907C901997CD90DC90FF
:1047B00086EA99E00E94CD17C6010E94F5178BE9A1
:1047C00099E00E94CD17C3010E94F51782E999E094
:1047D0000E94CD17C4010E94F51788E799E00E9456
:1047E000CD17C5010E94F51786E799E00E94CD1705
:1047F0000E94831288E499E00E94CD1701E06EE2E6
:1048000073E0CE01C1960E947A0ABE016F5C7F4FB1
:10481000CE018B5B9F4F0E94040A6C01CE01C196B2
:104820000E94750AD7FC76C0E114F10499F06DE995
:1048300072E080E090E00E9468297C010E944A2991
:10484000FE013196E10FF11DE10FF11D91A380A34F
:104850001F5FEACF89A09AA08AE0889D5001899DB8
:10486000B00C1124F501E05BFE4F6F018BA19CA100
:1048700091838083BF01C5010E9437146AE070E014
:1048800080E090E00E94510B8AE199E00E94CD17F0
:1048900082E199E00E94CD17C4010E94F51789E0DA
:1048A00099E00E94CD17D60112966D917D918D9160
:1048B0009C9115970E94EF10F60186809780608486
:1048C0007184C080D18080E099E00E94CD17C6013C
:1048D0000E94F51785EF98E00E94CD17C3010E9452
:1048E000F5178CEE98E00E94CD17C4010E94F517D1
:1048F00082ED98E00E94CD17C5010E94F51780ED6A
:1049000098E00E94CD170E943B1382EA98E00E9433
:10491000CD1701E067E373E0CE01C1960E947A0AE9
:10492000BE016F5C7F4FCE018B5B9F4F0E94040ADC
:104930006C01CE01C1960E94750AD7FC44C0E114F7
:10494000F10499F06DE972E080E090E00E9468293E
:104950007C010E944A29FE013196E10FF11DE10F11
:10496000F11D91A380A31F5FEACF0BA1CCA0E9A109
:10497000FAA1EA5AFD4FD080602F8D2D0E94050BC1
:1049800084E798E00E94CD1785E698E00E94CD1755
:10499000812F0E94EE178EE598E00E94CD178D2D95
:1049A0000E94EE1780E598E00E94CD17802F9C2D85
:1049B0000E94F5178EE498E00E94CD1780E298E0FF
:1049C0000E94CD1701E060E473E0CE01C1960E9421
:1049D0007A0ABE016F5C7F4FCE018B5B9F4F0E94B6
:1049E000040A6C01CE01C1960E94750AD7FCF6C07C
:1049F00082EF97E00E94CD176DE972E080E090E0D1
:104A00000E9468297C01DC018C91082E000C990B16
:104A1000C0970A9708F0C9C0C7010E944A295C01E3
:104A20009AA389A30AE00A9DC0010B9D900D112451
:104A3000FC01E05BFE4F6F0162817381848195818F
:104A40000E948211D60116968D909C901797189609
:104A50006D907C9019974D905C9087EE97E00E9446
:104A6000CD17C5010E94F51788ED97E00E94CD177C
:104A7000C2010E94F51780ED97E00E94CD17C30197
:104A80000E94F51787EC97E00E94CD17C4010E94A1
:104A9000F51785EC97E00E94CD17F601808591858A
:104AA000089FF001099FF00D1124E051FE4F628133
:104AB0007381848195810E94EF10D60118962D9004
:104AC0003C901997029DF001039DF00D1124E051D7
:104AD000FE4F86809780608471844080518087EB90
:104AE00097E00E94CD17C1010E94F51788EA97E070
:104AF0000E94CD17C2010E94F51780EA97E00E943C
:104B0000CD17C3010E94F51783E997E00E94CD17E6
:104B1000C4010E94F51781E997E00E94CD17F601C4
:104B200080859185089FF001099FF00D1124E056C2
:104B3000FE4F62817381848195810E94EF10D601BE
:104B40001896CD90DC9019970C9DF0010D9DF00DFD
:104B50001124E056FE4F86809780608471844080E7
:104B6000518082E897E00E94CD17C6010E94F51798
:104B700083E797E00E94CD17C2010E94F5178BE6EC
:104B800097E00E94CD17C3010E94F5178EE597E0CC
:104B90000E94CD17C4010E94F5178CE597E00E9492
:104BA000CD178A2D0E949F1014C00E943B138FE2E4
:104BB00097E00E94CD170E94DD1282E097E00E94EC
:104BC000CD170E94831285ED96E00E94CD170E94BA
:104BD000D61087EA96E00E94CD1701E06EE473E0FC
:104BE000CE01C1960E947A0ABE016F5C7F4FCE0152
:104BF0008B5B9F4F0E94040A6C01CE01C1960E94FC
:104C0000750AD7FC29C0E114F10499F06DE972E04E
:104C100080E090E00E9468297C010E944A29FE0100
:104C20003196E10FF11DE10FF11D91A380A31F5FEC
:104C3000EACF89E796E00E94CD1780E696E00E94D1
:104C4000CD170E9433168DE496E00E94CD178FE1B8
:104C500096E00E94CD1701E063E673E0CE01C196B5
:104C60000E947A0ABE016F5C7F4FCE018B5B9F4F23
:104C70000E94040A6C01CE01C1960E94750AD7FCFD
:104C800017C06BE187E795E00E94610869E673E071
:104C900087E795E00E94AB0A6BE187E795E00E9409
:104CA00061086DE673E087E795E00E94AB0A01E0DA
:104CB00060E773E0CE01C1960E947A0ABE016F5C84
:104CC0007F4FCE018B5B9F4F0E94040A6C01CE0187
:104CD000C1960E94750AD7FC9AC0E114F10421F133
:104CE0006DE972E080E090E00E9468297C01FC019F
:104CF0008081082E000C990B0E94722C892B39F0B0
:104D0000B701CE018B5B9F4F0E94540A0BC0C701B5
:104D10000E944A29FE013196E10FF11DE10FF11DBC
:104D200091A380A31F5FD9CF8DA19EA1C9A0DAA0B6
:104D3000BE016B5B7F4F019789F4CE01CF960E9435
:104D4000040AF601ED55FB4F20E830E002C035952E
:104D500027958A95E2F78081282B20C0CE01CF9637
:104D60000E94040AF601ED55FB4FAC014750510972
:104D7000477055272EEF30E0B90102C07595679551
:104D80004A95E2F747E050E0DA01A81BB90B01C0F1
:104D9000220FAA95EAF7262B808128232083F6018B
:104DA000ED55FB4F5F01BF01C6018E5A9E4F0E9419
:104DB000EC1381EF95E00E94CD1788ED95E00E94FD
:104DC000CD17C6010E94F5178BEC95E00E94CD1718
:104DD00034E9C32E32E0D32E00E040E8942ED50112
:104DE0008C91892119F0F601608101C06FE587E798
:104DF00095E00E948F0A0F5F9694FFEFCF1ADF0AAB
:104E0000083069F78DE995E00E94CD1701E06EE763
:104E100073E0CE01C1960E947A0ABE016F5C7F4F9B
:104E2000CE018B5B9F4F0E94040A6C01CE01C1969C
:104E30000E94750AD7FC22C08FE695E00E94CD172C
:104E40006DE972E080E090E00E9468297C01DC015D
:104E50008C91082E000C990BC0970A9740F4C7015B
:104E60000E944A2989A39AA30E949F1002C00E940F
:104E7000D61081E495E00E94CD1701E060E973E06F
:104E8000CE01C1960E947A0ABE016F5C7F4FCE01AF
:104E90008B5B9F4F0E94040A6C01CE01C1960E9459
:104EA000750AD7FC69C0E114F10499F06DE972E06C
:104EB00080E090E00E9468297C010E944A29FE015E
:104EC0003196E10FF11DE10FF11D91A380A31F5F4A
:104ED000EACFA9A0BAA0C501880F991F880F991F12
:104EE000FC01E55DFB4F2BA120832DA121832FA188
:104EF000228321E039A5311101C020E02383FC0188
:104F0000E55DFB4F6F01BF018AE591E00E9404144B
:104F1000D60113960C91139712969C9012971196A6
:104F20008C901197DC9087E395E00E94CD17C50126
:104F30000E94F5178EE295E00E94CD178D2D0E94FC
:104F4000EE178CE295E00E94CD17882D0E94EE1797
:104F50008AE295E00E94CD17892D0E94EE1786E126
:104F600095E00E94CD17802F90E00E94F51784E114
:104F700095E00E94CD1701E06BE973E0CE01C19688
:104F80000E947A0ABE016F5C7F4FCE018B5B9F4F00
:104F90000E94040A6C01CE01C1960E94750AD7FCDA
:104FA0000BC086EE94E00E94CD170E94411088EB62
:104FB00094E00E94CD1701E06BEA73E0CE01C19648
:104FC0000E947A0ABE016F5C7F4FCE018B5B9F4FC0
:104FD0000E94040A6C01CE01C1960E94750AD7FC9A
:104FE00038C0EF2899F06DE972E080E090E00E940F
:104FF00068297C010E944A29FE013196E10FF11DCA
:10500000E10FF11D91A380A31F5FEBCF19A10AA1AE
:105010001093AC046CEA74E087ED91E00E94EC130D
:105020006AE070E080E090E00E94510B8AE894E032
:105030000E94CD1784E794E00E94CD17812F902F16
:105040000E94F51782E794E00E94CD1784E494E073
:1050500018C0011118C0E114F104A9F086E194E030
:105060000E94CD178DE094E00E94CD17B70187E72D
:1050700095E00E94AB0A84EF93E00E94CD1786EC86
:1050800093E00E94CD17CE01CF960E94750ACE0103
:105090008B5B9F4F0E94750A0E948B0B00916806E4
:1050A0001091690620916A0630916B06DC01CB01F4
:1050B000801B910BA20BB30B81369A4EA105B10553
:1050C00078F10E94360D6B017C0169837A838B83B2
:1050D0009C839E012F5F3F4F590103ED11E0D501E5
:1050E0006D915D011AA309A3CE0181960E949913C7
:1050F0000F5F1F4F073DB1E01B0789F7C701B601DE
:105100000E9482110E948B0B60936806709369065F
:1051100080936A0690936B068DE69CE00E94CD1703
:105120000E94CA080C940F1CCF93DF9310927A054B
:105130001092790588EE93E0A0E0B0E080937B05C3
:1051400090937C05A0937D05B0937E052EE632E01A
:10515000309378052093770525EC30E03093840573
:105160002093830524EC30E0309386052093850559
:1051700020EC30E0309388052093870521EC30E067
:1051800030938A052093890522EC30E030938C051A
:1051900020938B0526EC30E030938E0520938D050F
:1051A000109290051092910510929205109293051D
:1051B00010921E0610921D0680931F0690932006E3
:1051C000A0932106B093220680E892E090931C06FB
:1051D00080931B0610921A06109219061092180658
:1051E000109217061092160681E080931506109211
:1051F000140661E082E10E94050B61E083E10E94F8
:10520000050B8091B9008E7F8093B9008091B90021
:105210008D7F8093B90088E48093B80085E4809303
:10522000BC000E948B0B6093700670937106809394
:105230007206909373060E948B0B60936C067093BA
:105240006D0680936E0690936F060E948B0B6093A1
:1052500068067093690680936A0690936B06C8E4AB
:10526000D6E00E948B0B699379938993999386E09A
:10527000C836D807B1F7C8E2D6E00E948B0B699315
:1052800079938993999386E0C834D807B1F7DF9171
:10529000CF910895FC0188279927E8942191203225
:1052A000E9F3293010F02E30C8F32B3241F02D32C3
:1052B00039F4689404C00E949429820F911D2191B1
:1052C00020532A30C0F31EF4909581959F4F089586
:1052D00044E756E00E946D290895FA01A191B0813A
:1052E000009719F41097E1F0CD01DC01CD010D908C
:1052F000002011F4C00113C0FB012191222319F0F9
:105300002015D9F7F3CFFB012191201519F41E9236
:10531000119606C02223C1F70D900020A1F7D001FD
:10532000FA01A193B08308957AE0979F902D879F0B
:10533000802D910D1124089591110C94A52980328E
:1053400019F089508550C8F708959927882708953E
:10535000F999FECF92BD81BDF89A992780B508953D
:10536000262FF999FECF1FBA92BD81BD20BD0FB681
:10537000F894FA9AF99A0FBE019608950E94002AAD
:10538000A59F900DB49F900DA49F800D911D112499
:1053900008952F923F924F925F926F927F928F92D9
:1053A0009F92AF92BF92CF92DF92EF92FF920F93B4
:1053B0001F93CF93DF93CDB7DEB7CA1BDB0B0FB6BE
:1053C000F894DEBF0FBECDBF09942A88398848887B
:1053D0005F846E847D848C849B84AA84B984C88411
:1053E000DF80EE80FD800C811B81AA81B981CE0F08
:1053F000D11D0FB6F894DEBF0FBECDBFED010895ED
:10540000A29FB001B39FC001A39F700D811D112405
:10541000911DB29F700D811D1124911D0895991B3E
:1054200079E004C0991F961708F0961B881F7A959B
:10543000C9F78095089597FB072E16F4009407D0BE
:1054400077FD09D00E94592A07FC05D03EF49095BB
:1054500081959F4F0895709561957F4F0895A1E2C2
:105460001A2EAA1BBB1BFD010DC0AA1FBB1FEE1FDE
:10547000FF1FA217B307E407F50720F0A21BB30B29
:10548000E40BF50B661F771F881F991F1A9469F7A5
:1054900060957095809590959B01AC01BD01CF0101
:1054A0000895B7FF0C94BE290E94BE29821B930B5E
:1054B0000895AA1BBB1B51E107C0AA1FBB1FA6175B
:1054C000B70710F0A61BB70B881F991F5A95A9F7AD
:1054D00080959095BC01CD010895EE0FFF1F0590BA
:1054E000F491E02D0994CF93DF938230910510F46D
:1054F00082E090E0E0917806F091790620E030E0DB
:10550000C0E0D0E0309711F1408151814817590730
:10551000C0F04817590761F482819381209719F0F0
:105520009B838A832BC0909379068093780626C04C
:105530002115310519F04217530718F49A01BE01DD
:10554000DF01EF010280F381E02DDCCF2115310571
:1055500009F1281B390B2430310590F412968D91F6
:105560009C9113976115710521F0FB019383828350
:1055700004C09093790680937806FD01329644C06A
:10558000FD01E20FF31F81939193225031092D9376
:105590003C933AC02091760630917706232B41F454
:1055A0002091420230914302309377062093760691
:1055B00020914002309141022115310541F42DB76F
:1055C0003EB74091440250914502241B350BE091B7
:1055D0007606F0917706E217F307A0F42E1B3F0B37
:1055E0002817390778F0AC014E5F5F4F2417350755
:1055F00048F04E0F5F1F50937706409376068193D5
:10560000919302C0E0E0F0E0CF01DF91CF910895E7
:105610000F931F93CF93DF93009709F48CC0FC0185
:105620003297138212820091780610917906011543
:10563000110581F420813181820F931F209176061C
:10564000309177062817390779F5F0937706E093BC
:10565000760671C0D80140E050E0AE17BF0750F4A5
:1056600012962D913C911397AD012115310509F149
:10567000D901F3CF9D01DA013383228360817181E7
:10568000860F971F8217930769F4EC0128813981EF
:10569000260F371F2E5F3F4F318320838A819B81E6
:1056A00093838283452B29F4F0937906E09378065F
:1056B00042C01396FC93EE931297ED0149915991D4
:1056C0009E01240F351FE217F30771F48081918149
:1056D000840F951F029611969C938E9382819381DD
:1056E00013969C938E931297E0E0F0E0D801129607
:1056F0008D919C911397009719F0F8018C01F6CFCA
:105700008D919C9198012E5F3F4F820F931F2091A6
:105710007606309177062817390769F4309729F40F
:10572000109279061092780602C0138212821093AA
:10573000770600937606DF91CF911F910F91089520
:10574000A0E0B0E0E6EAFBE20C94CD29EC01009782
:1057500021F4CB010E94732AB8C0FC01E60FF71FA9
:105760009C0122503109E217F30708F4ACC0D901BB
:105770000D911C91119706171707B0F00530110510
:1057800008F49FC0C80104978617970708F499C0CA
:1057900002501109061B170B019311936D937C9313
:1057A000CF010E94082B8DC05B01A01AB10A4C01E9
:1057B000800E911EA0917806B091790640E050E0ED
:1057C000E12CF12C109709F44AC0A815B905D1F5C0
:1057D0006D907C901197630182E0C80ED11CCA14B1
:1057E000DB0480F1A3014A195B096A0182E0C80E5B
:1057F000D11C1296BC9012971396AC91B5E0CB16C3
:10580000D10440F0B282A38351834083D9016D93C8
:105810007C930AC00E5F1F4FC301800F911FF901D7
:1058200091838083EB2DFA2FE114F10431F0D7013D
:105830001396FC93EE93129744C0F0937906E0938D
:1058400078063FC08D919C9111974817590708F42D
:10585000AC017D0112960D90BC91A02DB3CF80912B
:1058600076069091770688159905E1F44617570753
:10587000C8F48091400290914102009741F48DB7A5
:105880009EB74091440250914502841B950BE81746
:10589000F907C8F4F0937706E0937606F90171836F
:1058A00060830FC0CB010E94732A7C01009759F0DE
:1058B000A801BE010E947A2CCE010E94082BC701CC
:1058C00004C0CE0102C080E090E0CDB7DEB7EEE0CC
:1058D0000C94E92981E090E0F8940C94AD2C85FDBE
:1058E0000C94A529806291110C94A52981568A51A6
:1058F000D8F70895FB01DC0102C001900D924150E0
:105900005040D8F70895FB01DC018D91019080197A
:105910000110D9F3990B0895FB01DC0101900D9260
:105920000020E1F70895FB0151915523A9F0BF0133
:10593000DC014D9145174111E1F759F4CD0101907A
:10594000002049F04D9140154111C9F3FB0141116F
:0E595000EFCF81E090E001970895F894FFCF2B
:10595E000000007A495A000000000000007A495AFF
:10596E00000000000000007A495A0000000000000C
:10597E00007A495A000000000000007A495A0000DF
:10598E0000000000007A495A000000000000007A72
:10599E00495A000000000000647A495A00000000D5
:1059AE000000027A495A000000000000037A495AAA
:1059BE00000000000000007A495A000000000000BC
:1059CE00057A495A000000000000087A495A000082
:1059DE0000000000097A495A000000000000077A12
:1059EE00495A000000000000067A495A00000000E3
:1059FE0000000A0000000000000000000A00000085
:105A0E000000000000000A0000000000000000007E
:105A1E000A0000000000000000000A000000000064
:105A2E00000000000A0000000000000000000A0054
:105A3E0000000000000000000A000000000000004E
:105A4E0000000A0000000000000000000A00000034
:105A5E000000000000000A0000000000000000002E
:105A6E000A0000000000000000000A000000000014
:105A7E00000000000A0000000000000000000A0004
:105A8E0000000000000000000A00000000000000FE
:105A9E0000007A06800000000100020003000400EE
:105AAE0005000600070007060504070605041F1C6F
:105ABE001F1E1F1E1F1F1E1F1E1F0000000061083D
:105ACE00CE07F907A8082A0808081C0800000000DD
